{
  "abi": [
    {
      "inputs": [
        {
          "internalType": "uint256",
          "name": "paraId",
          "type": "uint256"
        }
      ],
      "stateMutability": "nonpayable",
      "type": "constructor"
    },
    {
      "inputs": [],
      "name": "AURA_CONSENSUS_ID",
      "outputs": [
        {
          "internalType": "bytes4",
          "name": "",
          "type": "bytes4"
        }
      ],
      "stateMutability": "view",
      "type": "function"
    },
    {
      "inputs": [],
      "name": "ISMP_CONSENSUS_ID",
      "outputs": [
        {
          "internalType": "bytes4",
          "name": "",
          "type": "bytes4"
        }
      ],
      "stateMutability": "view",
      "type": "function"
    },
    {
      "inputs": [],
      "name": "MMR_ROOT_PAYLOAD_ID",
      "outputs": [
        {
          "internalType": "bytes2",
          "name": "",
          "type": "bytes2"
        }
      ],
      "stateMutability": "view",
      "type": "function"
    },
    {
      "inputs": [],
      "name": "SLOT_DURATION",
      "outputs": [
        {
          "internalType": "uint256",
          "name": "",
          "type": "uint256"
        }
      ],
      "stateMutability": "view",
      "type": "function"
    },
    {
      "inputs": [
        {
          "components": [
            {
              "internalType": "uint256",
              "name": "latestHeight",
              "type": "uint256"
            },
            {
              "internalType": "uint256",
              "name": "beefyActivationBlock",
              "type": "uint256"
            },
            {
              "components": [
                {
                  "internalType": "uint256",
                  "name": "id",
                  "type": "uint256"
                },
                {
                  "internalType": "uint256",
                  "name": "len",
                  "type": "uint256"
                },
                {
                  "internalType": "bytes32",
                  "name": "root",
                  "type": "bytes32"
                }
              ],
              "internalType": "struct AuthoritySetCommitment",
              "name": "currentAuthoritySet",
              "type": "tuple"
            },
            {
              "components": [
                {
                  "internalType": "uint256",
                  "name": "id",
                  "type": "uint256"
                },
                {
                  "internalType": "uint256",
                  "name": "len",
                  "type": "uint256"
                },
                {
                  "internalType": "bytes32",
                  "name": "root",
                  "type": "bytes32"
                }
              ],
              "internalType": "struct AuthoritySetCommitment",
              "name": "nextAuthoritySet",
              "type": "tuple"
            }
          ],
          "internalType": "struct BeefyConsensusState",
          "name": "trustedState",
          "type": "tuple"
        },
        {
          "components": [
            {
              "components": [
                {
                  "components": [
                    {
                      "components": [
                        {
                          "components": [
                            {
                              "internalType": "bytes2",
                              "name": "id",
                              "type": "bytes2"
                            },
                            {
                              "internalType": "bytes",
                              "name": "data",
                              "type": "bytes"
                            }
                          ],
                          "internalType": "struct Payload[]",
                          "name": "payload",
                          "type": "tuple[]"
                        },
                        {
                          "internalType": "uint256",
                          "name": "blockNumber",
                          "type": "uint256"
                        },
                        {
                          "internalType": "uint256",
                          "name": "validatorSetId",
                          "type": "uint256"
                        }
                      ],
                      "internalType": "struct Commitment",
                      "name": "commitment",
                      "type": "tuple"
                    },
                    {
                      "components": [
                        {
                          "internalType": "bytes",
                          "name": "signature",
                          "type": "bytes"
                        },
                        {
                          "internalType": "uint256",
                          "name": "authorityIndex",
                          "type": "uint256"
                        }
                      ],
                      "internalType": "struct Vote[]",
                      "name": "votes",
                      "type": "tuple[]"
                    }
                  ],
                  "internalType": "struct SignedCommitment",
                  "name": "signedCommitment",
                  "type": "tuple"
                },
                {
                  "components": [
                    {
                      "internalType": "uint256",
                      "name": "version",
                      "type": "uint256"
                    },
                    {
                      "internalType": "uint256",
                      "name": "parentNumber",
                      "type": "uint256"
                    },
                    {
                      "internalType": "bytes32",
                      "name": "parentHash",
                      "type": "bytes32"
                    },
                    {
                      "components": [
                        {
                          "internalType": "uint256",
                          "name": "id",
                          "type": "uint256"
                        },
                        {
                          "internalType": "uint256",
                          "name": "len",
                          "type": "uint256"
                        },
                        {
                          "internalType": "bytes32",
                          "name": "root",
                          "type": "bytes32"
                        }
                      ],
                      "internalType": "struct AuthoritySetCommitment",
                      "name": "nextAuthoritySet",
                      "type": "tuple"
                    },
                    {
                      "internalType": "bytes32",
                      "name": "extra",
                      "type": "bytes32"
                    },
                    {
                      "internalType": "uint256",
                      "name": "kIndex",
                      "type": "uint256"
                    },
                    {
                      "internalType": "uint256",
                      "name": "leafIndex",
                      "type": "uint256"
                    }
                  ],
                  "internalType": "struct BeefyMmrLeaf",
                  "name": "latestMmrLeaf",
                  "type": "tuple"
                },
                {
                  "internalType": "bytes32[]",
                  "name": "mmrProof",
                  "type": "bytes32[]"
                },
                {
                  "components": [
                    {
                      "internalType": "uint256",
                      "name": "k_index",
                      "type": "uint256"
                    },
                    {
                      "internalType": "bytes32",
                      "name": "node",
                      "type": "bytes32"
                    }
                  ],
                  "internalType": "struct Node[][]",
                  "name": "proof",
                  "type": "tuple[][]"
                }
              ],
              "internalType": "struct RelayChainProof",
              "name": "relay",
              "type": "tuple"
            },
            {
              "components": [
                {
                  "components": [
                    {
                      "internalType": "uint256",
                      "name": "index",
                      "type": "uint256"
                    },
                    {
                      "internalType": "uint256",
                      "name": "id",
                      "type": "uint256"
                    },
                    {
                      "internalType": "bytes",
                      "name": "header",
                      "type": "bytes"
                    }
                  ],
                  "internalType": "struct Parachain",
                  "name": "parachain",
                  "type": "tuple"
                },
                {
                  "components": [
                    {
                      "internalType": "uint256",
                      "name": "k_index",
                      "type": "uint256"
                    },
                    {
                      "internalType": "bytes32",
                      "name": "node",
                      "type": "bytes32"
                    }
                  ],
                  "internalType": "struct Node[][]",
                  "name": "proof",
                  "type": "tuple[][]"
                }
              ],
              "internalType": "struct ParachainProof",
              "name": "parachain",
              "type": "tuple"
            }
          ],
          "internalType": "struct BeefyConsensusProof",
          "name": "proof",
          "type": "tuple"
        }
      ],
      "name": "verifyConsensus",
      "outputs": [
        {
          "components": [
            {
              "internalType": "uint256",
              "name": "latestHeight",
              "type": "uint256"
            },
            {
              "internalType": "uint256",
              "name": "beefyActivationBlock",
              "type": "uint256"
            },
            {
              "components": [
                {
                  "internalType": "uint256",
                  "name": "id",
                  "type": "uint256"
                },
                {
                  "internalType": "uint256",
                  "name": "len",
                  "type": "uint256"
                },
                {
                  "internalType": "bytes32",
                  "name": "root",
                  "type": "bytes32"
                }
              ],
              "internalType": "struct AuthoritySetCommitment",
              "name": "currentAuthoritySet",
              "type": "tuple"
            },
            {
              "components": [
                {
                  "internalType": "uint256",
                  "name": "id",
                  "type": "uint256"
                },
                {
                  "internalType": "uint256",
                  "name": "len",
                  "type": "uint256"
                },
                {
                  "internalType": "bytes32",
                  "name": "root",
                  "type": "bytes32"
                }
              ],
              "internalType": "struct AuthoritySetCommitment",
              "name": "nextAuthoritySet",
              "type": "tuple"
            }
          ],
          "internalType": "struct BeefyConsensusState",
          "name": "",
          "type": "tuple"
        },
        {
          "components": [
            {
              "internalType": "uint256",
              "name": "stateMachineId",
              "type": "uint256"
            },
            {
              "internalType": "uint256",
              "name": "height",
              "type": "uint256"
            },
            {
              "components": [
                {
                  "internalType": "uint256",
                  "name": "timestamp",
                  "type": "uint256"
                },
                {
                  "internalType": "bytes32",
                  "name": "overlayRoot",
                  "type": "bytes32"
                },
                {
                  "internalType": "bytes32",
                  "name": "stateRoot",
                  "type": "bytes32"
                }
              ],
              "internalType": "struct StateCommitment",
              "name": "commitment",
              "type": "tuple"
            }
          ],
          "internalType": "struct IntermediateState",
          "name": "",
          "type": "tuple"
        }
      ],
      "stateMutability": "view",
      "type": "function"
    },
    {
      "inputs": [
        {
          "internalType": "bytes",
          "name": "encodedState",
          "type": "bytes"
        },
        {
          "internalType": "bytes",
          "name": "encodedProof",
          "type": "bytes"
        }
      ],
      "name": "verifyConsensus",
      "outputs": [
        {
          "internalType": "bytes",
          "name": "",
          "type": "bytes"
        },
        {
          "components": [
            {
              "internalType": "uint256",
              "name": "stateMachineId",
              "type": "uint256"
            },
            {
              "internalType": "uint256",
              "name": "height",
              "type": "uint256"
            },
            {
              "components": [
                {
                  "internalType": "uint256",
                  "name": "timestamp",
                  "type": "uint256"
                },
                {
                  "internalType": "bytes32",
                  "name": "overlayRoot",
                  "type": "bytes32"
                },
                {
                  "internalType": "bytes32",
                  "name": "stateRoot",
                  "type": "bytes32"
                }
              ],
              "internalType": "struct StateCommitment",
              "name": "commitment",
              "type": "tuple"
            }
          ],
          "internalType": "struct IntermediateState",
          "name": "",
          "type": "tuple"
        }
      ],
      "stateMutability": "nonpayable",
      "type": "function"
    }
  ],
  "bytecode": {
    "object": "0x60806040523480156200001157600080fd5b5060405162003d9838038062003d9883398101604081905262000034916200003d565b60005562000057565b6000602082840312156200005057600080fd5b5051919050565b613d3180620000676000396000f3fe608060405234801561001057600080fd5b50600436106100625760003560e01c80634e9fdbec146100675780635e399aea146100935780637d755598146100b4578063905c0511146100d5578063af8b91d6146100ec578063babb311814610111575b600080fd5b610075636175726160e01b81565b6040516001600160e01b031990911681526020015b60405180910390f35b6100a66100a1366004612bd4565b61011f565b60405161008a929190612d90565b6100c76100c2366004612dd8565b610164565b60405161008a929190612e8b565b6100de612ee081565b60405190815260200161008a565b6100f8610dad60f31b81565b6040516001600160f01b0319909116815260200161008a565b61007563049534d560e41b81565b610127612443565b61012f6124a6565b60008061014086866000015161025b565b915091506000610154828760200151610751565b92945091925050505b9250929050565b606061016e6124a6565b6000848060200190518101906101849190612f64565b90506000808580602001905181019061019d919061343d565b91509150600080306001600160a01b0316635e399aea866040518060400160405280888152602001878152506040518363ffffffff1660e01b81526004016101e69291906136fe565b6101a060405180830381865afa158015610204573d6000803e3d6000fd5b505050506040513d601f19601f82011682018060405250810190610228919061385e565b915091508160405160200161023d91906138f9565b60408051808303601f19018152919052999098509650505050505050565b610263612443565b815160208082015151915101518451600092919081116102e75760405162461bcd60e51b815260206004820152603460248201527f636f6e73656e73757320636c69656e7473206f6e6c79206163636570742070726044820152736f6f667320666f72206e6577206865616465727360601b60648201526084015b60405180910390fd5b6102f982876040015160200151610b5f565b80610311575061031182876060015160200151610b5f565b6103695760405162461bcd60e51b8152602060048201526024808201527f5375706572206d616a6f72697479207468726573686f6c64206e6f742072656160448201526318da195960e21b60648201526084016102de565b8451516040808801515190820151148061038b57506060870151516040820151145b6103cf5760405162461bcd60e51b8152602060048201526015602482015274155b9adb9bdddb88185d5d1a1bdc9a5d1e481cd95d605a1b60448201526064016102de565b60408088015151908201518251519114906000805b8281101561048f5784518051610dad60f31b91908390811061040857610408613908565b6020026020010151600001516001600160f01b03191614801561044b5750845180518290811061043a5761043a613908565b602002602001015160200151516020145b1561047d5761047a8560000151828151811061046957610469613908565b602002602001015160200151610b8d565b91505b8061048781613934565b9150506103e4565b50806104dd5760405162461bcd60e51b815260206004820152601760248201527f4d6d7220726f6f742068617368206e6f7420666f756e6400000000000000000060448201526064016102de565b60006104e885610bf5565b8051906020012090506000876001600160401b0381111561050b5761050b612572565b60405190808252806020026020018201604052801561055057816020015b60408051808201909152600080825260208201528152602001906001900390816105295790505b50905060005b8881101561061f5760008c6000015160200151828151811061057a5761057a613908565b602002602001015190506000610594858360000151610d95565b9050604051806040016040528083602001518152602001826040516020016105d4919060609190911b6bffffffffffffffffffffffff1916815260140190565b604051602081830303815290604052805190602001208152508484815181106105ff576105ff613908565b60200260200101819052505050808061061790613934565b915050610556565b5084156106985761063d8c60400151604001518c6060015183610db9565b6106935760405162461bcd60e51b815260206004820152602160248201527f496e76616c69642063757272656e7420617574686f7269746965732070726f6f6044820152603360f91b60648201526084016102de565b6106fb565b6106af8c60600151604001518c6060015183610db9565b6106fb5760405162461bcd60e51b815260206004820152601e60248201527f496e76616c6964206e65787420617574686f7269746965732070726f6f66000060448201526064016102de565b6107068c8c85610dd1565b6060808d01515160208d015190910151511115610735576060808d01805160408f015260208d01519091015190525b5050509288525050505060209290920151608001519293915050565b6107596124a6565b604080516001808252818301909252600091816020015b6040805180820190915260008082526020820152815260200190600190039081610770575050835160005460208201519293509091146107e35760405162461bcd60e51b815260206004820152600e60248201526d155b9adb9bdddb881c185c98525960921b60448201526064016102de565b60006107f28260400151610f68565b905080602001516000036108545760405162461bcd60e51b8152602060048201526024808201527f47656e6573697320626c6f636b2073686f756c64206e6f7420626520696e636c6044820152631d59195960e21b60648201526084016102de565b60008060005b8360800151518110156109d0578360800151818151811061087d5761087d613908565b60200260200101516040015180156108d4575063049534d560e41b6001600160e01b031916846080015182815181106108b8576108b8613908565b602002602001015160600151600001516001600160e01b031916145b1561090a57610907846080015182815181106108f2576108f2613908565b60200260200101516060015160200151610b8d565b92505b8360800151818151811061092057610920613908565b60200260200101516000015180156109775750636175726160e01b6001600160e01b0319168460800151828151811061095b5761095b613908565b602002602001015160200151600001516001600160e01b031916145b156109be5760006109ac8560800151838151811061099757610997613908565b6020026020010151602001516020015161116a565b90506109ba612ee08261394d565b9250505b806109c881613934565b91505061085a565b5080600003610a185760405162461bcd60e51b815260206004820152601460248201527374696d657374616d70206e6f7420666f756e642160601b60448201526064016102de565b604051806040016040528085600001518152602001610a5c8660200151600881811c62ff00ff1663ff00ff009290911b9190911617601081811c91901b1760e01b90565b610a6987604001516111ec565b604051602001610a7a929190613964565b6040516020818303038152906040528051906020012081525085600081518110610aa657610aa6613908565b6020026020010181905250600060405180606001604052808660200151815260200185602001518152602001604051806060016040528085815260200186815260200187604001518152508152509050610b0589896020015188610db9565b610b515760405162461bcd60e51b815260206004820152601e60248201527f496e76616c69642070617261636861696e732068656164732070726f6f66000060448201526064016102de565b955050505050505b92915050565b60006003610b6e83600261394d565b610b7891906139ab565b610b839060016139bf565b9092101592915050565b6000602082511015610bed5760405162461bcd60e51b8152602060048201526024808201527f42797465733a3a20746f427974657333323a206461746120697320746f20736860448201526337b93a1760e11b60648201526084016102de565b506020015190565b8051516040805160208101909152600080825260609291905b82811015610cc4578451805182908110610c2a57610c2a613908565b602002602001015160000151604051602001610c5691906001600160f01b031991909116815260020190565b604051602081830303815290604052610c8f86600001518381518110610c7e57610c7e613908565b6020026020010151602001516111ec565b604051602001610ca09291906139d2565b60405160208183030381529060405291508080610cbc90613934565b915050610c0e565b506000610cd083611220565b82604051602001610ce29291906139d2565b60405160208183030381529060405290506000610d248660200151600881811c62ff00ff1663ff00ff009290911b9190911617601081811c91901b1760e01b90565b610d3187604001516114c3565b6040516001600160e01b031990921660208301526001600160c01b0319166024820152602c0160405160208183030381529060405290508181604051602001610d7b9291906139d2565b604051602081830303815290604052945050505050919050565b6000806000610da4858561152d565b91509150610db18161156f565b509392505050565b6000610dc583836116bc565b841490505b9392505050565b6000610de083602001516119ef565b8051906020012090506000610e018560200151856020015160200151611bb7565b610e0c9060016139bf565b60408051600180825281830190925291925060009190816020015b6040805160608101825260008082526020808301829052928201528252600019909201910181610e275790505090506040518060600160405280866020015160a001518152602001866020015160c0015181526020018481525081600081518110610e9457610e94613908565b6020908102919091010152604080860151905163722e206d60e01b815273__$2399d33eab5707eb5118077f9c67419cb4$__9163722e206d91610edf91889186908890600401613a01565b602060405180830381865af4158015610efc573d6000803e3d6000fd5b505050506040513d601f19601f82011682018060405250810190610f209190613aad565b610f605760405162461bcd60e51b815260206004820152601160248201527024b73b30b634b21026b6b910283937b7b360791b60448201526064016102de565b505050505050565b6040805160a08101825260008082526020808301829052828401829052606080840183905260808401528351808501909452848452838101829052919291610fba90610fb5908490611bd9565b610b8d565b90506000610fc783611c5a565b90506000610fd9610fb5856020611bd9565b90506000610feb610fb5866020611bd9565b90506000610ff886611c5a565b90506000816001600160401b0381111561101457611014612572565b60405190808252806020026020018201604052801561104d57816020015b61103a6124d9565b8152602001906001900390816110325790505b50905060005b8281101561113b57600061106689611e3f565b90506110706124d9565b60ff821661108457600160c0820152611108565b60031960ff8316016110aa57600160408201526110a08a611edb565b6060820152611108565b60041960ff8316016110d057600160808201526110c68a611edb565b60a0820152611108565b60051960ff8316016110f357600181526110e98a611edb565b6020820152611108565b60071960ff8316016111085760016101008201525b8084848151811061111b5761111b613908565b60200260200101819052505050808061113390613934565b915050611053565b506040805160a08101825296875260208701959095529385019290925260608401525060808201529392505050565b805160009081905b80156111e557611183600182613acf565b61118e90600861394d565b611199906002613bc6565b846111a5600184613acf565b815181106111b5576111b5613908565b01602001516111c7919060f81c61394d565b6111d190836139bf565b9150806111dd81613bd2565b915050611172565b5092915050565b60606111f88251611220565b8260405160200161120a9291906139d2565b6040516020818303038152906040529050919050565b6060604082101561124a576040516001600160f81b031960fa84901b16602082015260210161120a565b61400082101561129d5761127a611266600284901b60016139bf565b600881811b62ffff001691901c60ff161790565b60405160200161120a919060f09190911b6001600160f01b031916815260020190565b6340000000821015611301576112de6112ba600284811b906139bf565b600881811c62ff00ff1663ff00ff009290911b9190911617601081811c91901b1790565b60405160200161120a919060e09190911b6001600160e01b031916815260040190565b600061147561144f8460008190506008817eff00ff00ff00ff00ff00ff00ff00ff00ff00ff00ff00ff00ff00ff00ff00ff16901b6008827fff00ff00ff00ff00ff00ff00ff00ff00ff00ff00ff00ff00ff00ff00ff00ff0016901c1790506010817dffff0000ffff0000ffff0000ffff0000ffff0000ffff0000ffff0000ffff16901b6010827fffff0000ffff0000ffff0000ffff0000ffff0000ffff0000ffff0000ffff000016901c1790506020817bffffffff00000000ffffffff00000000ffffffff00000000ffffffff16901b6020827fffffffff00000000ffffffff00000000ffffffff00000000ffffffff0000000016901c17905060408177ffffffffffffffff0000000000000000ffffffffffffffff16901b60408277ffffffffffffffff0000000000000000ffffffffffffffff1916901c179050608081901b608082901c179050919050565b60405160200161146191815260200190565b604051602081830303815290604052611f48565b805190915060006002611489600484613acf565b611495911b60036139bf565b905080836040516020016114aa929190613be9565b6040516020818303038152906040529350505050919050565b600065ff000000ff00600883811b91821664ff000000ff9185901c91821617601090811b67ff000000ff0000009390931666ff000000ff00009290921691909117901c17602081811b6bffffffffffffffff000000001691901c63ffffffff161760c01b92915050565b60008082516041036115635760208301516040840151606085015160001a61155787828585611fb5565b9450945050505061015d565b5060009050600261015d565b600081600481111561158357611583613c18565b0361158b5750565b600181600481111561159f5761159f613c18565b036115ec5760405162461bcd60e51b815260206004820152601860248201527f45434453413a20696e76616c6964207369676e6174757265000000000000000060448201526064016102de565b600281600481111561160057611600613c18565b0361164d5760405162461bcd60e51b815260206004820152601f60248201527f45434453413a20696e76616c6964207369676e6174757265206c656e6774680060448201526064016102de565b600381600481111561166157611661613c18565b036116b95760405162461bcd60e51b815260206004820152602260248201527f45434453413a20696e76616c6964207369676e6174757265202773272076616c604482015261756560f01b60648201526084016102de565b50565b604080516000808252602082019092528190816116fb565b60408051808201909152600080825260208201528152602001906001900390816116d45790505b509050611722838560008151811061171557611715613908565b6020026020010151612079565b8460008151811061173557611735613908565b6020908102919091010152835160005b818110156119b757604080516000808252602082019092528161178a565b60408051808201909152600080825260208201528152602001906001900390816117635790505b50905083516000036117b7578682815181106117a8576117a8613908565b602002602001015190506117dd565b6117da8783815181106117cc576117cc613908565b602002602001015185612079565b90505b6117e981516002612285565b6001600160401b0381111561180057611800612572565b60405190808252806020026020018201604052801561184557816020015b604080518082019091526000808252602082015281526020019060019003908161181e5790505b508151909450600090815b818110156119a057816118648260016139bf565b106118d857600084828151811061187d5761187d613908565b602002602001015190506118af85838151811061189c5761189c613908565b60200260200101516000015160026122ad565b8152875181908990869081106118c7576118c7613908565b60200260200101819052505061198e565b604080518082019091526000808252602082015261190185838151811061189c5761189c613908565b815284516119609086908490811061191b5761191b613908565b6020026020010151602001518684600161193591906139bf565b8151811061194557611945613908565b60200260200101516020015160009182526020526040902090565b60208201528751819089908690811061197b5761197b613908565b6020908102919091010152506001909201915b6119996002826139bf565b9050611850565b5050505080806119af90613934565b915050611745565b5081516001146119c657600080fd5b816000815181106119d9576119d9613908565b6020026020010151602001519250505092915050565b606060008260000151604051602001611a1b919060f89190911b6001600160f81b031916815260010190565b604051602081830303815290604052611a598460200151600881811c62ff00ff1663ff00ff009290911b9190911617601081811c91901b1760e01b90565b604051602001611a6a929190613c2e565b60408051601f19818403018152828252858201516020840152925060009101604051602081830303815290604052611aa98560600151600001516114c3565b604051602001611aba929190613c5d565b60405160208183030381529060405290506000611b00856060015160200151600881811c62ff00ff1663ff00ff009290911b9190911617601081811c91901b1760e01b90565b856060015160400151604051602001611b1b91815260200190565b60408051601f1981840301815290829052611b399291602001613964565b60405160208183030381529060405290508282604051602001611b5d9291906139d2565b60408051601f19818403018152828252608088015160208401529183910160408051601f1981840301815290829052611b9992916020016139d2565b60408051601f19818403018152908290526114aa92916020016139d2565b600082600003611bc8575080610b59565b611bd28383613acf565b9050610b59565b6060826000015151828460200151611bf191906139bf565b1115611bfc57600080fd5b81600003611c195750604080516020810190915260008152610b59565b8251602080850151910190600090611c3b90611c3590846139bf565b856122b9565b90508385602001818151611c4f91906139bf565b905250949350505050565b600080611c6683611e3f565b90506000611c75600483613c8c565b905060008160ff16600003611c925750603f600283901c16611e37565b8160ff16600103611cd7576000611ca886611e3f565b9050613fc0600682901b16611cc4603f600287901c1682613cae565b6001600160401b03169250611e37915050565b8160ff16600203611d4a576000611ced86611e3f565b90506000611cfa87611e3f565b90506000611d0788611e3f565b63ffffffff60089490941b61ff001660ff88161760109390931b62ff0000169290921760189290921b63ff000000169190911760021c919091169150611e379050565b8160ff16600303611def576000611d69603f600286901c166004613cce565b905060088160ff161115611dd05760405162461bcd60e51b815260206004820152602860248201527f756e657870656374656420707265666978206465636f64696e6720436f6d706160448201526731ba1e2ab4b73a1f60c11b60648201526084016102de565b611de5611de0878360ff16611bd9565b61116a565b9695505050505050565b60405162461bcd60e51b815260206004820152601a60248201527f436f64652073686f756c6420626520756e726561636861626c6500000000000060448201526064016102de565b949350505050565b805151602082015160009190611e569060016139bf565b1115611e935760405162461bcd60e51b815260206004820152600c60248201526b4f7574206f662072616e676560a01b60448201526064016102de565b60008260000151836020015181518110611eaf57611eaf613908565b602001015160f81c60f81b60f81c9050600183602001818151611ed291906139bf565b90525092915050565b6040805180820190915260008152606060208201526000611f07611f00846004611bd9565b600061230f565b90506000611f1484611c5a565b90506000611f228583611bd9565b604080518082019091526001600160e01b03199094168452602084015250909392505050565b8051606090600080611f5b600184613acf565b90505b848181518110611f7057611f70613908565b01602001516001600160f81b03191615611f8c57809150611f9e565b80611f9681613bd2565b915050611f5e565b50611e37846000611fb08460016139bf565b61236c565b6000807f7fffffffffffffffffffffffffffffff5d576e7357a4501ddfe92f46681b20a0831115611fec5750600090506003612070565b6040805160008082526020820180845289905260ff881692820192909252606081018690526080810185905260019060a0016020604051602081039080840390855afa158015612040573d6000803e3d6000fd5b5050604051601f1901519150506001600160a01b03811661206957600060019250925050612070565b9150600090505b94509492505050565b81518151606091600091829182918261209282846139bf565b90506000816001600160401b038111156120ae576120ae612572565b6040519080825280602002602001820160405280156120f357816020015b60408051808201909152600080825260208201528152602001906001900390816120cc5790505b5090505b838710801561210557508286105b156121da5788868151811061211c5761211c613908565b6020026020010151600001518a888151811061213a5761213a613908565b60200260200101516000015110156121935789878151811061215e5761215e613908565b602002602001015181868151811061217857612178613908565b602090810291909101015260019687019694909401936120f7565b8886815181106121a5576121a5613908565b60200260200101518186815181106121bf576121bf613908565b602090810291909101015260019586019594909401936120f7565b83871015612229578987815181106121f4576121f4613908565b602002602001015181868151811061220e5761220e613908565b602090810291909101015260019687019694909401936121da565b828610156122785788868151811061224357612243613908565b602002602001015181868151811061225d5761225d613908565b60209081029190910101526001958601959490940193612229565b9998505050505050505050565b60008061229283856139ab565b905061229e8385613ce7565b15610dca576001019392505050565b6000610dca82846139ab565b6060816001600160401b038111156122d3576122d3612572565b6040519080825280601f01601f1916602001820160405280156122fd576020820181803683370190505b509050602081016111e58482856123c3565b60008060005b6004811015610db15761232981600861394d565b8561233483876139bf565b8151811061234457612344613908565b01602001516001600160f81b031916901c91909117908061236481613934565b915050612315565b825160609061237b83856139bf565b111561238657600080fd5b816000036123a35750604080516020810190915260008152610dca565b602084016123ba6123b485836139bf565b846122b9565b95945050505050565b602081106123fb57825182526123da6020836139bf565b91506123e76020846139bf565b92506123f4602082613acf565b90506123c3565b6000811561242b576001612410836020613acf565b61241c90610100613bc6565b6124269190613acf565b61242f565b6000195b935183518516941916939093179091525050565b6040518060800160405280600081526020016000815260200161248360405180606001604052806000815260200160008152602001600080191681525090565b815260408051606081018252600080825260208281018290529282015291015290565b60408051606080820183526000808352602080840182905284519283018552818352820181905281840152909182015290565b60405180610120016040528060001515815260200161250960408051808201909152600081526060602082015290565b81526000602082015260400161253060408051808201909152600081526060602082015290565b81526000602082015260400161255760408051808201909152600081526060602082015290565b81526000602082018190526060604083018190529091015290565b634e487b7160e01b600052604160045260246000fd5b604051606081016001600160401b03811182821017156125aa576125aa612572565b60405290565b604080519081016001600160401b03811182821017156125aa576125aa612572565b60405160e081016001600160401b03811182821017156125aa576125aa612572565b604051608081016001600160401b03811182821017156125aa576125aa612572565b604051601f8201601f191681016001600160401b038111828210171561263e5761263e612572565b604052919050565b60006060828403121561265857600080fd5b612660612588565b905081358152602082013560208201526040820135604082015292915050565b60006001600160401b0382111561269957612699612572565b5060051b60200190565b6001600160f01b0319811681146116b957600080fd5b60006001600160401b038211156126d2576126d2612572565b50601f01601f191660200190565b600082601f8301126126f157600080fd5b81356127046126ff826126b9565b612616565b81815284602083860101111561271957600080fd5b816020850160208301376000918101602001919091529392505050565b600082601f83011261274757600080fd5b813560206127576126ff83612680565b82815260059290921b8401810191818101908684111561277657600080fd5b8286015b848110156127f45780356001600160401b038082111561279a5760008081fd5b908801906040828b03601f19018113156127b45760008081fd5b6127bc6125b0565b87840135838111156127ce5760008081fd5b6127dc8d8a838801016126e0565b8252509201358683015250835291830191830161277a565b509695505050505050565b60006040828403121561281157600080fd5b6128196125b0565b905081356001600160401b038082111561283257600080fd5b908301906060828603121561284657600080fd5b61284e612588565b82358281111561285d57600080fd5b8301601f8101871361286e57600080fd5b8035602061287e6126ff83612680565b82815260059290921b8301810191818101908a84111561289d57600080fd5b8285015b8481101561291b578035888111156128b95760008081fd5b86016040818e03601f190112156128d05760008081fd5b6128d86125b0565b858201356128e5816126a3565b815260408201358a8111156128fa5760008081fd5b6129088f88838601016126e0565b82880152508452509183019183016128a1565b5080865250508086013581850152604086013560408501528387528088013595508486111561294957600080fd5b61295589878a01612736565b8188015250505050505092915050565b6000610120828403121561297857600080fd5b6129806125d2565b90508135815260208201356020820152604082013560408201526129a78360608401612646565b606082015260c0820135608082015260e082013560a082015261010082013560c082015292915050565b600082601f8301126129e257600080fd5b813560206129f26126ff83612680565b82815260059290921b84018101918181019086841115612a1157600080fd5b8286015b848110156127f45780358352918301918301612a15565b600082601f830112612a3d57600080fd5b81356020612a4d6126ff83612680565b82815260059290921b84018101918181019086841115612a6c57600080fd5b8286015b848110156127f45780356001600160401b03811115612a8f5760008081fd5b8701603f81018913612aa15760008081fd5b848101356040612ab36126ff83612680565b82815260069290921b8301810191878101908c841115612ad35760008081fd5b938201935b83851015612b135782858e031215612af05760008081fd5b612af86125b0565b85358152898601358a82015282529382019390880190612ad8565b875250505092840192508301612a70565b600060408284031215612b3657600080fd5b612b3e6125b0565b905081356001600160401b0380821115612b5757600080fd5b9083019060608286031215612b6b57600080fd5b612b73612588565b8235815260208301356020820152604083013582811115612b9357600080fd5b612b9f878286016126e0565b60408301525083526020840135915080821115612bbb57600080fd5b50612bc884828501612a2c565b60208301525092915050565b600080828403610120811215612be957600080fd5b61010080821215612bf957600080fd5b612c016125f4565b91508435825260208086013581840152612c1e8760408801612646565b6040840152612c308760a08801612646565b6060840152919350840135906001600160401b039081831115612c5257600080fd5b9185019160408388031215612c6657600080fd5b612c6e6125b0565b833583811115612c7d57600080fd5b8401610180818a031215612c9057600080fd5b612c986125f4565b813585811115612ca757600080fd5b612cb38b8285016127ff565b825250612cc28a858401612965565b8482015261014082013585811115612cd957600080fd5b612ce58b8285016129d1565b60408301525061016082013585811115612cfe57600080fd5b612d0a8b828501612a2c565b6060830152508252508382013583811115612d2457600080fd5b612d3089828701612b24565b8383015250809450505050509250929050565b805182526020808201518184015260408083015180518286015291820151606085015281015160808401525060600151805160a0830152602081015160c08301526040015160e090910152565b6101a08101612d9f8285612d43565b82516101008301526020808401516101208401526040808501518051610140860152918201516101608501520151610180830152610dca565b60008060408385031215612deb57600080fd5b82356001600160401b0380821115612e0257600080fd5b612e0e868387016126e0565b93506020850135915080821115612e2457600080fd5b50612e31858286016126e0565b9150509250929050565b60005b83811015612e56578181015183820152602001612e3e565b50506000910152565b60008151808452612e77816020860160208601612e3b565b601f01601f19169290920160200192915050565b60c081526000612e9e60c0830185612e5f565b9050610dca602083018480518252602080820151818401526040918201518051838501529081015160608401520151608090910152565b600060608284031215612ee757600080fd5b612eef612588565b905081518152602082015160208201526040820151604082015292915050565b60006101008284031215612f2257600080fd5b612f2a6125f4565b90508151815260208201516020820152612f478360408401612ed5565b6040820152612f598360a08401612ed5565b606082015292915050565b60006101008284031215612f7757600080fd5b610dca8383612f0f565b600082601f830112612f9257600080fd5b8151612fa06126ff826126b9565b818152846020838601011115612fb557600080fd5b611e37826020830160208701612e3b565b600082601f830112612fd757600080fd5b81516020612fe76126ff83612680565b82815260059290921b8401810191818101908684111561300657600080fd5b8286015b848110156127f45780516001600160401b038082111561302a5760008081fd5b908801906040828b03601f19018113156130445760008081fd5b61304c6125b0565b878401518381111561305e5760008081fd5b61306c8d8a83880101612f81565b8252509201518683015250835291830191830161300a565b60006040828403121561309657600080fd5b61309e6125b0565b905081516001600160401b03808211156130b757600080fd5b90830190606082860312156130cb57600080fd5b6130d3612588565b8251828111156130e257600080fd5b8301601f810187136130f357600080fd5b805160206131036126ff83612680565b82815260059290921b8301810191818101908a84111561312257600080fd5b8285015b848110156131a05780518881111561313e5760008081fd5b86016040818e03601f190112156131555760008081fd5b61315d6125b0565b8582015161316a816126a3565b815260408201518a81111561317f5760008081fd5b61318d8f8883860101612f81565b8288015250845250918301918301613126565b508086525050808601518185015260408601516040850152838752808801519550848611156131ce57600080fd5b61295589878a01612fc6565b600061012082840312156131ed57600080fd5b6131f56125d2565b905081518152602082015160208201526040820151604082015261321c8360608401612ed5565b606082015260c0820151608082015260e082015160a082015261010082015160c082015292915050565b600082601f83011261325757600080fd5b815160206132676126ff83612680565b82815260059290921b8401810191818101908684111561328657600080fd5b8286015b848110156127f4578051835291830191830161328a565b600082601f8301126132b257600080fd5b815160206132c26126ff83612680565b82815260059290921b840181019181810190868411156132e157600080fd5b8286015b848110156127f45780516001600160401b038111156133045760008081fd5b8701603f810189136133165760008081fd5b8481015160406133286126ff83612680565b82815260069290921b8301810191878101908c8411156133485760008081fd5b938201935b838510156133885782858e0312156133655760008081fd5b61336d6125b0565b85518152898601518a8201528252938201939088019061334d565b8752505050928401925083016132e5565b6000604082840312156133ab57600080fd5b6133b36125b0565b905081516001600160401b03808211156133cc57600080fd5b90830190606082860312156133e057600080fd5b6133e8612588565b825181526020830151602082015260408301518281111561340857600080fd5b61341487828601612f81565b6040830152508352602084015191508082111561343057600080fd5b50612bc8848285016132a1565b6000806040838503121561345057600080fd5b82516001600160401b038082111561346757600080fd5b90840190610180828703121561347c57600080fd5b6134846125f4565b82518281111561349357600080fd5b61349f88828601613084565b8252506134af87602085016131da565b6020820152610140830151828111156134c757600080fd5b6134d388828601613246565b604083015250610160830151828111156134ec57600080fd5b6134f8888286016132a1565b606083015250602086015190945091508082111561351557600080fd5b50612e3185828601613399565b600081518084526020808501808196508360051b8101915082860160005b8581101561358057828403895281516040815181875261356282880182612e5f565b92880151968801969096525098850198935090840190600101613540565b5091979650505050505050565b80518252602081015160208301526040810151604083015260608101516135cb60608401828051825260208082015190830152604090810151910152565b50608081015160c083015260a081015160e083015260c08101516101008301525050565b600081518084526020808501945080840160005b8381101561361f57815187529582019590820190600101613603565b509495945050505050565b600081518084526020808501808196508360051b810191508286016000805b868110156136a3578385038a52825180518087529087019087870190845b8181101561368e578351805184528a01518a84015292890192604090920191600101613667565b50509a87019a95505091850191600101613649565b509298975050505050505050565b6000815160408452805160408501526020810151606085015260408101519050606060808501526136e560a0850182612e5f565b9050602083015184820360208601526123ba828261362a565b600061012061370d8386612d43565b8061010084015283516040808386015281519250610180806101608701528351826102e08801526103808701815160606103208a01528181518084526103a09350838b019150838160051b8c010193506020808401935060005b828110156137b1578c860361039f19018452845180516001600160f01b03191687528201518287018a905261379e8a880182612e5f565b9650509381019392810192600101613767565b50858101516103408d0152878601516103608d0152988901518b85036102df19016103008d0152986137e3858b613522565b99508089015195506137f7878d018761358d565b87890151975061015f199650868c8b03016102a08d01526138188a896135ef565b995060608901519850868c8b03016102c08d01526138368a8a61362a565b9950808d01519850505050505050505061011f1984830301610140850152611de582826136b1565b6000808284036101a081121561387357600080fd5b61387d8585612f0f565b925060a060ff198201121561389157600080fd5b613899612588565b61010085015181526101208501516020820152606061013f19830112156138bf57600080fd5b6138c7612588565b915061014085015182526101608501516020830152610180850151604083015281604082015280925050509250929050565b6101008101610b598284612d43565b634e487b7160e01b600052603260045260246000fd5b634e487b7160e01b600052601160045260246000fd5b6000600182016139465761394661391e565b5060010190565b8082028115828204841417610b5957610b5961391e565b6001600160e01b0319831681528151600090613987816004850160208701612e3b565b919091016004019392505050565b634e487b7160e01b600052601260045260246000fd5b6000826139ba576139ba613995565b500490565b80820180821115610b5957610b5961391e565b600083516139e4818460208801612e3b565b8351908301906139f8818360208801612e3b565b01949350505050565b600060808201868352602060808185015281875180845260a086019150828901935060005b81811015613a4257845183529383019391830191600101613a26565b50508481036040860152865180825290820192508187019060005b81811015613a9757613a848584518051825260208082015190830152604090810151910152565b6060949094019391830191600101613a5d565b5050505060609290920192909252949350505050565b600060208284031215613abf57600080fd5b81518015158114610dca57600080fd5b81810381811115610b5957610b5961391e565b600181815b80851115613b1d578160001904821115613b0357613b0361391e565b80851615613b1057918102915b93841c9390800290613ae7565b509250929050565b600082613b3457506001610b59565b81613b4157506000610b59565b8160018114613b575760028114613b6157613b7d565b6001915050610b59565b60ff841115613b7257613b7261391e565b50506001821b610b59565b5060208310610133831016604e8410600b8410161715613ba0575081810a610b59565b613baa8383613ae2565b8060001904821115613bbe57613bbe61391e565b029392505050565b6000610dca8383613b25565b600081613be157613be161391e565b506000190190565b60ff60f81b8360f81b16815260008251613c0a816001850160208701612e3b565b919091016001019392505050565b634e487b7160e01b600052602160045260246000fd5b60008351613c40818460208801612e3b565b6001600160e01b0319939093169190920190815260040192915050565b60008351613c6f818460208801612e3b565b6001600160c01b0319939093169190920190815260080192915050565b600060ff831680613c9f57613c9f613995565b8060ff84160691505092915050565b6001600160401b038181168382160190808211156111e5576111e561391e565b60ff8181168382160190811115610b5957610b5961391e565b600082613cf657613cf6613995565b50069056fea2646970667358221220d20bfac253c2198bb4f2670c538179920eab12667a4fee3856ac14331786021064736f6c63430008110033",
    "linkReferences": {
      "lib/solidity-merkle-trees/src/MerkleMountainRange.sol": {
        "MerkleMountainRange": [
          {
            "start": 3866,
            "length": 20
          }
        ]
      }
    }
  },
  "methodIdentifiers": {
    "AURA_CONSENSUS_ID()": "4e9fdbec",
    "ISMP_CONSENSUS_ID()": "babb3118",
    "MMR_ROOT_PAYLOAD_ID()": "af8b91d6",
    "SLOT_DURATION()": "905c0511",
    "verifyConsensus((uint256,uint256,(uint256,uint256,bytes32),(uint256,uint256,bytes32)),(((((bytes2,bytes)[],uint256,uint256),(bytes,uint256)[]),(uint256,uint256,bytes32,(uint256,uint256,bytes32),bytes32,uint256,uint256),bytes32[],(uint256,bytes32)[][]),((uint256,uint256,bytes),(uint256,bytes32)[][])))": "5e399aea",
    "verifyConsensus(bytes,bytes)": "7d755598"
  },
  "id": 49
}