{
  "abi": [
    {
      "anonymous": false,
      "inputs": [
        {
          "indexed": false,
          "internalType": "uint256",
          "name": "stateMachineId",
          "type": "uint256"
        },
        {
          "indexed": false,
          "internalType": "uint256",
          "name": "height",
          "type": "uint256"
        }
      ],
      "name": "StateMachineUpdated",
      "type": "event"
    },
    {
      "inputs": [
        {
          "internalType": "contract IIsmpHost",
          "name": "host",
          "type": "address"
        },
        {
          "internalType": "bytes",
          "name": "proof",
          "type": "bytes"
        }
      ],
      "name": "handleConsensus",
      "outputs": [],
      "stateMutability": "nonpayable",
      "type": "function"
    },
    {
      "inputs": [
        {
          "internalType": "contract IIsmpHost",
          "name": "host",
          "type": "address"
        },
        {
          "components": [
            {
              "internalType": "bytes[]",
              "name": "proof",
              "type": "bytes[]"
            },
            {
              "components": [
                {
                  "internalType": "uint256",
                  "name": "stateMachineId",
                  "type": "uint256"
                },
                {
                  "internalType": "uint256",
                  "name": "height",
                  "type": "uint256"
                }
              ],
              "internalType": "struct StateMachineHeight",
              "name": "height",
              "type": "tuple"
            },
            {
              "components": [
                {
                  "internalType": "bytes",
                  "name": "source",
                  "type": "bytes"
                },
                {
                  "internalType": "bytes",
                  "name": "dest",
                  "type": "bytes"
                },
                {
                  "internalType": "uint64",
                  "name": "nonce",
                  "type": "uint64"
                },
                {
                  "internalType": "bytes",
                  "name": "from",
                  "type": "bytes"
                },
                {
                  "internalType": "uint64",
                  "name": "timeoutTimestamp",
                  "type": "uint64"
                },
                {
                  "internalType": "bytes[]",
                  "name": "keys",
                  "type": "bytes[]"
                },
                {
                  "internalType": "uint64",
                  "name": "height",
                  "type": "uint64"
                },
                {
                  "internalType": "uint64",
                  "name": "gaslimit",
                  "type": "uint64"
                }
              ],
              "internalType": "struct GetRequest[]",
              "name": "requests",
              "type": "tuple[]"
            }
          ],
          "internalType": "struct GetResponseMessage",
          "name": "message",
          "type": "tuple"
        }
      ],
      "name": "handleGetResponses",
      "outputs": [],
      "stateMutability": "nonpayable",
      "type": "function"
    },
    {
      "inputs": [
        {
          "internalType": "contract IIsmpHost",
          "name": "host",
          "type": "address"
        },
        {
          "components": [
            {
              "components": [
                {
                  "internalType": "bytes",
                  "name": "source",
                  "type": "bytes"
                },
                {
                  "internalType": "bytes",
                  "name": "dest",
                  "type": "bytes"
                },
                {
                  "internalType": "uint64",
                  "name": "nonce",
                  "type": "uint64"
                },
                {
                  "internalType": "bytes",
                  "name": "from",
                  "type": "bytes"
                },
                {
                  "internalType": "uint64",
                  "name": "timeoutTimestamp",
                  "type": "uint64"
                },
                {
                  "internalType": "bytes[]",
                  "name": "keys",
                  "type": "bytes[]"
                },
                {
                  "internalType": "uint64",
                  "name": "height",
                  "type": "uint64"
                },
                {
                  "internalType": "uint64",
                  "name": "gaslimit",
                  "type": "uint64"
                }
              ],
              "internalType": "struct GetRequest[]",
              "name": "timeouts",
              "type": "tuple[]"
            }
          ],
          "internalType": "struct GetTimeoutMessage",
          "name": "message",
          "type": "tuple"
        }
      ],
      "name": "handleGetTimeouts",
      "outputs": [],
      "stateMutability": "nonpayable",
      "type": "function"
    },
    {
      "inputs": [
        {
          "internalType": "contract IIsmpHost",
          "name": "host",
          "type": "address"
        },
        {
          "components": [
            {
              "components": [
                {
                  "components": [
                    {
                      "internalType": "uint256",
                      "name": "stateMachineId",
                      "type": "uint256"
                    },
                    {
                      "internalType": "uint256",
                      "name": "height",
                      "type": "uint256"
                    }
                  ],
                  "internalType": "struct StateMachineHeight",
                  "name": "height",
                  "type": "tuple"
                },
                {
                  "internalType": "bytes32[]",
                  "name": "multiproof",
                  "type": "bytes32[]"
                },
                {
                  "internalType": "uint256",
                  "name": "leafCount",
                  "type": "uint256"
                }
              ],
              "internalType": "struct Proof",
              "name": "proof",
              "type": "tuple"
            },
            {
              "components": [
                {
                  "components": [
                    {
                      "internalType": "bytes",
                      "name": "source",
                      "type": "bytes"
                    },
                    {
                      "internalType": "bytes",
                      "name": "dest",
                      "type": "bytes"
                    },
                    {
                      "internalType": "uint64",
                      "name": "nonce",
                      "type": "uint64"
                    },
                    {
                      "internalType": "bytes",
                      "name": "from",
                      "type": "bytes"
                    },
                    {
                      "internalType": "bytes",
                      "name": "to",
                      "type": "bytes"
                    },
                    {
                      "internalType": "uint64",
                      "name": "timeoutTimestamp",
                      "type": "uint64"
                    },
                    {
                      "internalType": "bytes",
                      "name": "body",
                      "type": "bytes"
                    },
                    {
                      "internalType": "uint64",
                      "name": "gaslimit",
                      "type": "uint64"
                    }
                  ],
                  "internalType": "struct PostRequest",
                  "name": "request",
                  "type": "tuple"
                },
                {
                  "internalType": "uint256",
                  "name": "index",
                  "type": "uint256"
                },
                {
                  "internalType": "uint256",
                  "name": "kIndex",
                  "type": "uint256"
                }
              ],
              "internalType": "struct PostRequestLeaf[]",
              "name": "requests",
              "type": "tuple[]"
            }
          ],
          "internalType": "struct PostRequestMessage",
          "name": "request",
          "type": "tuple"
        }
      ],
      "name": "handlePostRequests",
      "outputs": [],
      "stateMutability": "nonpayable",
      "type": "function"
    },
    {
      "inputs": [
        {
          "internalType": "contract IIsmpHost",
          "name": "host",
          "type": "address"
        },
        {
          "components": [
            {
              "components": [
                {
                  "components": [
                    {
                      "internalType": "uint256",
                      "name": "stateMachineId",
                      "type": "uint256"
                    },
                    {
                      "internalType": "uint256",
                      "name": "height",
                      "type": "uint256"
                    }
                  ],
                  "internalType": "struct StateMachineHeight",
                  "name": "height",
                  "type": "tuple"
                },
                {
                  "internalType": "bytes32[]",
                  "name": "multiproof",
                  "type": "bytes32[]"
                },
                {
                  "internalType": "uint256",
                  "name": "leafCount",
                  "type": "uint256"
                }
              ],
              "internalType": "struct Proof",
              "name": "proof",
              "type": "tuple"
            },
            {
              "components": [
                {
                  "components": [
                    {
                      "components": [
                        {
                          "internalType": "bytes",
                          "name": "source",
                          "type": "bytes"
                        },
                        {
                          "internalType": "bytes",
                          "name": "dest",
                          "type": "bytes"
                        },
                        {
                          "internalType": "uint64",
                          "name": "nonce",
                          "type": "uint64"
                        },
                        {
                          "internalType": "bytes",
                          "name": "from",
                          "type": "bytes"
                        },
                        {
                          "internalType": "bytes",
                          "name": "to",
                          "type": "bytes"
                        },
                        {
                          "internalType": "uint64",
                          "name": "timeoutTimestamp",
                          "type": "uint64"
                        },
                        {
                          "internalType": "bytes",
                          "name": "body",
                          "type": "bytes"
                        },
                        {
                          "internalType": "uint64",
                          "name": "gaslimit",
                          "type": "uint64"
                        }
                      ],
                      "internalType": "struct PostRequest",
                      "name": "request",
                      "type": "tuple"
                    },
                    {
                      "internalType": "bytes",
                      "name": "response",
                      "type": "bytes"
                    }
                  ],
                  "internalType": "struct PostResponse",
                  "name": "response",
                  "type": "tuple"
                },
                {
                  "internalType": "uint256",
                  "name": "index",
                  "type": "uint256"
                },
                {
                  "internalType": "uint256",
                  "name": "kIndex",
                  "type": "uint256"
                }
              ],
              "internalType": "struct PostResponseLeaf[]",
              "name": "responses",
              "type": "tuple[]"
            }
          ],
          "internalType": "struct PostResponseMessage",
          "name": "response",
          "type": "tuple"
        }
      ],
      "name": "handlePostResponses",
      "outputs": [],
      "stateMutability": "nonpayable",
      "type": "function"
    },
    {
      "inputs": [
        {
          "internalType": "contract IIsmpHost",
          "name": "host",
          "type": "address"
        },
        {
          "components": [
            {
              "components": [
                {
                  "internalType": "bytes",
                  "name": "source",
                  "type": "bytes"
                },
                {
                  "internalType": "bytes",
                  "name": "dest",
                  "type": "bytes"
                },
                {
                  "internalType": "uint64",
                  "name": "nonce",
                  "type": "uint64"
                },
                {
                  "internalType": "bytes",
                  "name": "from",
                  "type": "bytes"
                },
                {
                  "internalType": "bytes",
                  "name": "to",
                  "type": "bytes"
                },
                {
                  "internalType": "uint64",
                  "name": "timeoutTimestamp",
                  "type": "uint64"
                },
                {
                  "internalType": "bytes",
                  "name": "body",
                  "type": "bytes"
                },
                {
                  "internalType": "uint64",
                  "name": "gaslimit",
                  "type": "uint64"
                }
              ],
              "internalType": "struct PostRequest[]",
              "name": "timeouts",
              "type": "tuple[]"
            },
            {
              "components": [
                {
                  "internalType": "uint256",
                  "name": "stateMachineId",
                  "type": "uint256"
                },
                {
                  "internalType": "uint256",
                  "name": "height",
                  "type": "uint256"
                }
              ],
              "internalType": "struct StateMachineHeight",
              "name": "height",
              "type": "tuple"
            },
            {
              "internalType": "bytes[]",
              "name": "proof",
              "type": "bytes[]"
            }
          ],
          "internalType": "struct PostTimeoutMessage",
          "name": "message",
          "type": "tuple"
        }
      ],
      "name": "handlePostTimeouts",
      "outputs": [],
      "stateMutability": "nonpayable",
      "type": "function"
    }
  ],
  "bytecode": {
    "object": "0x608060405234801561001057600080fd5b50614031806100206000396000f3fe608060405234801561001057600080fd5b50600436106100625760003560e01c806320d71c7a14610067578063873ce1ce1461007c578063ac269bd61461008f578063bb1689be146100a2578063d95e4fbb146100b5578063fda626c3146100c8575b600080fd5b61007a610075366004612cdb565b6100db565b005b61007a61008a3660046130b4565b610819565b61007a61009d36600461316b565b610f43565b61007a6100b0366004613202565b6111e7565b61007a6100c3366004613251565b611a82565b61007a6100d6366004613378565b611f43565b81806001600160a01b031663054f7d9c6040518163ffffffff1660e01b81526004016020604051808303816000875af115801561011c573d6000803e3d6000fd5b505050506040513d601f19601f8201168201806040525081019061014091906134d8565b156101665760405162461bcd60e51b815260040161015d90613501565b60405180910390fd5b815151604051631a880a9360e01b81526000916001600160a01b03861691631a880a93916101969160040161352b565b6020604051808303816000875af11580156101b5573d6000803e3d6000fd5b505050506040513d601f19601f820116820180604052508101906101d99190613542565b846001600160a01b031663b80777ea6040518163ffffffff1660e01b81526004016020604051808303816000875af1158015610219573d6000803e3d6000fd5b505050506040513d601f19601f8201168201806040525081019061023d9190613542565b6102479190613571565b9050836001600160a01b031663f3f480d96040518163ffffffff1660e01b81526004016020604051808303816000875af1158015610289573d6000803e3d6000fd5b505050506040513d601f19601f820116820180604052508101906102ad9190613542565b81116102cb5760405162461bcd60e51b815260040161015d90613584565b6020830151516000816001600160401b038111156102eb576102eb612972565b60405190808252806020026020018201604052801561033657816020015b60408051606081018252600080825260208083018290529282015282526000199092019101816103095790505b50905060005b828110156105f95760008660200151828151811061035c5761035c6135c7565b602002602001015190506103db886001600160a01b031663f437bc596040518163ffffffff1660e01b81526004016000604051808303816000875af11580156103a9573d6000803e3d6000fd5b505050506040513d6000823e601f3d908101601f191682016040526103d1919081019061364e565b8251515190612698565b6104365760405162461bcd60e51b815260206004820152602660248201527f4948616e646c65723a20496e76616c696420726573706f6e73652064657374696044820152653730ba34b7b760d11b606482015260840161015d565b805151600090610445906126ca565b604051630da2fd1960e21b8152600481018290529091506001600160a01b038a169063368bf464906024016020604051808303816000875af115801561048f573d6000803e3d6000fd5b505050506040513d601f19601f820116820180604052508101906104b391906134d8565b6104cf5760405162461bcd60e51b815260040161015d90613682565b60006104de8360000151612721565b604051632211f1dd60e01b8152600481018290529091506001600160a01b038b1690632211f1dd906024016020604051808303816000875af1158015610528573d6000803e3d6000fd5b505050506040513d601f19601f8201168201806040525081019061054c91906134d8565b156105a35760405162461bcd60e51b815260206004820152602160248201527f4948616e646c65723a204475706c696361746520506f737420726573706f6e736044820152606560f81b606482015260840161015d565b60405180606001604052808460400151815260200184602001518152602001828152508585815181106105d8576105d86135c7565b602002602001018190525050505080806105f1906136b9565b91505061033c565b5084515160405163a70a8c4760e01b81526000916001600160a01b0389169163a70a8c479161062a9160040161352b565b6060604051808303816000875af1158015610649573d6000803e3d6000fd5b505050506040513d601f19601f8201168201806040525081019061066d919061370c565b602001519050806106905760405162461bcd60e51b815260040161015d90613728565b85516020810151604091820151915163722e206d60e01b815273__$2399d33eab5707eb5118077f9c67419cb4$__9263722e206d926106d59286928891600401613769565b602060405180830381865af41580156106f2573d6000803e3d6000fd5b505050506040513d601f19601f8201168201806040525081019061071691906134d8565b61076c5760405162461bcd60e51b815260206004820152602160248201527f4948616e646c65723a20496e76616c696420726573706f6e73652070726f6f666044820152607360f81b606482015260840161015d565b60005b8381101561080f5760008760200151828151811061078f5761078f6135c7565b60200260200101519050886001600160a01b0316638cf66b9282600001516040518263ffffffff1660e01b81526004016107c99190613916565b600060405180830381600087803b1580156107e357600080fd5b505af11580156107f7573d6000803e3d6000fd5b50505050508080610807906136b9565b91505061076f565b5050505050505050565b81806001600160a01b031663054f7d9c6040518163ffffffff1660e01b81526004016020604051808303816000875af115801561085a573d6000803e3d6000fd5b505050506040513d601f19601f8201168201806040525081019061087e91906134d8565b1561089b5760405162461bcd60e51b815260040161015d90613501565b6020820151604051631a880a9360e01b81526000916001600160a01b03861691631a880a93916108cd9160040161352b565b6020604051808303816000875af11580156108ec573d6000803e3d6000fd5b505050506040513d601f19601f820116820180604052508101906109109190613542565b846001600160a01b031663b80777ea6040518163ffffffff1660e01b81526004016020604051808303816000875af1158015610950573d6000803e3d6000fd5b505050506040513d601f19601f820116820180604052508101906109749190613542565b61097e9190613571565b9050836001600160a01b031663f3f480d96040518163ffffffff1660e01b81526004016020604051808303816000875af11580156109c0573d6000803e3d6000fd5b505050506040513d601f19601f820116820180604052508101906109e49190613542565b8111610a025760405162461bcd60e51b815260040161015d90613584565b602083015160405163a70a8c4760e01b81526000916001600160a01b0387169163a70a8c4791610a349160040161352b565b6060604051808303816000875af1158015610a53573d6000803e3d6000fd5b505050506040513d601f19601f82011682018060405250810190610a77919061370c565b604081015190915080610a9c5760405162461bcd60e51b815260040161015d90613728565b604085015151855160005b82811015610f3857600088604001518281518110610ac757610ac76135c7565b60200260200101519050610b448a6001600160a01b031663f437bc596040518163ffffffff1660e01b81526004016000604051808303816000875af1158015610b14573d6000803e3d6000fd5b505050506040513d6000823e601f3d908101601f19168201604052610b3c919081019061364e565b825190612698565b610ba35760405162461bcd60e51b815260206004820152602a60248201527f4948616e646c65723a20496e76616c69642047455420726573706f6e7365206460448201526932b9ba34b730ba34b7b760b11b606482015260840161015d565b6000610bae82612764565b604051630da2fd1960e21b8152600481018290529091506001600160a01b038c169063368bf464906024016020604051808303816000875af1158015610bf8573d6000803e3d6000fd5b505050506040513d601f19601f82011682018060405250810190610c1c91906134d8565b610c685760405162461bcd60e51b815260206004820152601d60248201527f4948616e646c65723a20556e6b6e6f776e204745542072657175657374000000604482015260640161015d565b60808201516001600160401b03161580610cf157508a6001600160a01b031663b80777ea6040518163ffffffff1660e01b81526004016020604051808303816000875af1158015610cbd573d6000803e3d6000fd5b505050506040513d601f19601f82011682018060405250810190610ce19190613542565b82608001516001600160401b0316115b610d3d5760405162461bcd60e51b815260206004820152601f60248201527f4948616e646c65723a2047455420726571756573742074696d6564206f757400604482015260640161015d565b600073__$3557184f57f01f44bdc1609b323054fd0c$__6355028f6f88878660a0015186604051602001610d7391815260200190565b6040516020818303038152906040526040518563ffffffff1660e01b8152600401610da194939291906139a4565b600060405180830381865af4158015610dbe573d6000803e3d6000fd5b505050506040513d6000823e601f3d908101601f19168201604052610de691908101906139ee565b60408051808201909152848152602081018290529091506001600160a01b038d16632211f1dd610e1583612836565b6040518263ffffffff1660e01b8152600401610e3391815260200190565b6020604051808303816000875af1158015610e52573d6000803e3d6000fd5b505050506040513d601f19601f82011682018060405250810190610e7691906134d8565b15610ec35760405162461bcd60e51b815260206004820181905260248201527f4948616e646c65723a204475706c69636174652047455420726573706f6e7365604482015260640161015d565b60405163f073609160e01b81526001600160a01b038e169063f073609190610eef908490600401613bcb565b600060405180830381600087803b158015610f0957600080fd5b505af1158015610f1d573d6000803e3d6000fd5b50505050505050508080610f30906136b9565b915050610aa7565b505050505050505050565b81806001600160a01b031663054f7d9c6040518163ffffffff1660e01b81526004016020604051808303816000875af1158015610f84573d6000803e3d6000fd5b505050506040513d601f19601f82011682018060405250810190610fa891906134d8565b15610fc55760405162461bcd60e51b815260040161015d90613501565b81515160005b818110156111e057600084600001518281518110610feb57610feb6135c7565b60200260200101519050600061100082612764565b604051630da2fd1960e21b8152600481018290529091506001600160a01b0388169063368bf464906024016020604051808303816000875af115801561104a573d6000803e3d6000fd5b505050506040513d601f19601f8201168201806040525081019061106e91906134d8565b61108a5760405162461bcd60e51b815260040161015d90613682565b60808201516001600160401b031615801590611115575081608001516001600160401b0316876001600160a01b031663b80777ea6040518163ffffffff1660e01b81526004016020604051808303816000875af11580156110ef573d6000803e3d6000fd5b505050506040513d601f19601f820116820180604052508101906111139190613542565b115b61116d5760405162461bcd60e51b815260206004820152602360248201527f4948616e646c65723a204745542072657175657374206e6f742074696d6564206044820152621bdd5d60ea1b606482015260840161015d565b6040516384566a5d60e01b81526001600160a01b038816906384566a5d90611199908590600401613c71565b600060405180830381600087803b1580156111b357600080fd5b505af11580156111c7573d6000803e3d6000fd5b50505050505080806111d8906136b9565b915050610fcb565b5050505050565b81806001600160a01b031663054f7d9c6040518163ffffffff1660e01b81526004016020604051808303816000875af1158015611228573d6000803e3d6000fd5b505050506040513d601f19601f8201168201806040525081019061124c91906134d8565b156112695760405162461bcd60e51b815260040161015d90613501565b826001600160a01b031663f3f480d96040518163ffffffff1660e01b81526004016020604051808303816000875af11580156112a9573d6000803e3d6000fd5b505050506040513d601f19601f820116820180604052508101906112cd9190613542565b836001600160a01b0316639a8425bc6040518163ffffffff1660e01b81526004016020604051808303816000875af115801561130d573d6000803e3d6000fd5b505050506040513d601f19601f820116820180604052508101906113319190613542565b846001600160a01b031663b80777ea6040518163ffffffff1660e01b81526004016020604051808303816000875af1158015611371573d6000803e3d6000fd5b505050506040513d601f19601f820116820180604052508101906113959190613542565b61139f9190613571565b116113bc5760405162461bcd60e51b815260040161015d90613584565b826001600160a01b031663d40784c76040518163ffffffff1660e01b81526004016020604051808303816000875af11580156113fc573d6000803e3d6000fd5b505050506040513d601f19601f820116820180604052508101906114209190613542565b836001600160a01b0316639a8425bc6040518163ffffffff1660e01b81526004016020604051808303816000875af1158015611460573d6000803e3d6000fd5b505050506040513d601f19601f820116820180604052508101906114849190613542565b846001600160a01b031663b80777ea6040518163ffffffff1660e01b81526004016020604051808303816000875af11580156114c4573d6000803e3d6000fd5b505050506040513d601f19601f820116820180604052508101906114e89190613542565b6114f29190613571565b10806115725750826001600160a01b031663f851a4406040518163ffffffff1660e01b81526004016020604051808303816000875af1158015611539573d6000803e3d6000fd5b505050506040513d601f19601f8201168201806040525081019061155d9190613c84565b6001600160a01b0316336001600160a01b0316145b61158e5760405162461bcd60e51b815260040161015d90613584565b600080846001600160a01b0316632476132b6040518163ffffffff1660e01b81526004016020604051808303816000875af11580156115d1573d6000803e3d6000fd5b505050506040513d601f19601f820116820180604052508101906115f59190613c84565b6001600160a01b0316637d755598866001600160a01b031663bbad99d46040518163ffffffff1660e01b81526004016000604051808303816000875af1158015611643573d6000803e3d6000fd5b505050506040513d6000823e601f3d908101601f1916820160405261166b919081019061364e565b866040518363ffffffff1660e01b8152600401611689929190613ca1565b6000604051808303816000875af11580156116a8573d6000803e3d6000fd5b505050506040513d6000823e601f3d908101601f191682016040526116d09190810190613ccf565b604051630b4974cf60e41b815291935091506001600160a01b0386169063b4974cf090611701908590600401613d51565b600060405180830381600087803b15801561171b57600080fd5b505af115801561172f573d6000803e3d6000fd5b50505050846001600160a01b031663d860cb47866001600160a01b031663b80777ea6040518163ffffffff1660e01b81526004016020604051808303816000875af1158015611782573d6000803e3d6000fd5b505050506040513d601f19601f820116820180604052508101906117a69190613542565b6040518263ffffffff1660e01b81526004016117c491815260200190565b600060405180830381600087803b1580156117de57600080fd5b505af11580156117f2573d6000803e3d6000fd5b50505050846001600160a01b03166356b655976040518163ffffffff1660e01b81526004016020604051808303816000875af1158015611836573d6000803e3d6000fd5b505050506040513d601f19601f8201168201806040525081019061185a9190613542565b816020015111156111e05760408051808201825282518152602080840151818301908152848401518451632acf7f4f60e11b81528451600482015291516024830152805160448301529182015160648201529201516084830152906001600160a01b0387169063559efe9e9060a401600060405180830381600087803b1580156118e357600080fd5b505af11580156118f7573d6000803e3d6000fd5b50505050856001600160a01b03166314863dcb82886001600160a01b031663b80777ea6040518163ffffffff1660e01b81526004016020604051808303816000875af115801561194b573d6000803e3d6000fd5b505050506040513d601f19601f8201168201806040525081019061196f9190613542565b6040516001600160e01b031960e085901b1681528251600482015260209092015160248301526044820152606401600060405180830381600087803b1580156119b757600080fd5b505af11580156119cb573d6000803e3d6000fd5b505050602082015160405163a0756ecd60e01b81526001600160a01b038916925063a0756ecd91611a029160040190815260200190565b600060405180830381600087803b158015611a1c57600080fd5b505af1158015611a30573d6000803e3d6000fd5b5050825160208401516040517ff12a80290a43822c9acabb2a766d41728f06fe4c0497e4a7bb3f54292e4cb0da9450611a729350918252602082015260400190565b60405180910390a1505050505050565b81806001600160a01b031663054f7d9c6040518163ffffffff1660e01b81526004016020604051808303816000875af1158015611ac3573d6000803e3d6000fd5b505050506040513d601f19601f82011682018060405250810190611ae791906134d8565b15611b045760405162461bcd60e51b815260040161015d90613501565b602082015160405163a70a8c4760e01b81526000916001600160a01b0386169163a70a8c4791611b369160040161352b565b6060604051808303816000875af1158015611b55573d6000803e3d6000fd5b505050506040513d601f19601f82011682018060405250810190611b79919061370c565b83515190915060005b81811015611f3b57600085600001518281518110611ba257611ba26135c7565b602002602001015190508060a001516001600160401b0316600014158015611bda57508060a001516001600160401b03168460000151115b611c1e5760405162461bcd60e51b815260206004820152601560248201527414995c5d595cdd081b9bdd081d1a5b5959081bdd5d605a1b604482015260640161015d565b6000611c29826126ca565b604051630da2fd1960e21b8152600481018290529091506001600160a01b0389169063368bf464906024016020604051808303816000875af1158015611c73573d6000803e3d6000fd5b505050506040513d601f19601f82011682018060405250810190611c9791906134d8565b611cb35760405162461bcd60e51b815260040161015d90613682565b604080516001808252818301909252600091816020015b6060815260200190600190039081611cca57505060408051808201825260208082527f103895530afb23bb607661426d55eb8b0484aecefe882c3ce64e6f82507f715a818301528251908101869052929350910160408051601f1981840301815290829052611d3c9291602001613d64565b604051602081830303815290604052818581518110611d5d57611d5d6135c7565b6020026020010181905250600073__$3557184f57f01f44bdc1609b323054fd0c$__631475ff4588604001518b60400151856040518463ffffffff1660e01b8152600401611dad93929190613d93565b600060405180830381865af4158015611dca573d6000803e3d6000fd5b505050506040513d6000823e601f3d908101601f19168201604052611df291908101906139ee565b600081518110611e0457611e046135c7565b60200260200101519050611e6060006001600160401b03811115611e2a57611e2a612972565b6040519080825280601f01601f191660200182016040528015611e54576020820181803683370190505b50602083015190612698565b611ebb5760405162461bcd60e51b815260206004820152602660248201527f4948616e646c65723a20496e76616c6964206e6f6e2d6d656d6265727368697060448201526510383937b7b360d11b606482015260840161015d565b6040805160208101825285815290516312dde20360e11b81526001600160a01b038c16916325bbc40691611ef29190600401613dc8565b600060405180830381600087803b158015611f0c57600080fd5b505af1158015611f20573d6000803e3d6000fd5b50505050505050508080611f33906136b9565b915050611b82565b505050505050565b81806001600160a01b031663054f7d9c6040518163ffffffff1660e01b81526004016020604051808303816000875af1158015611f84573d6000803e3d6000fd5b505050506040513d601f19601f82011682018060405250810190611fa891906134d8565b15611fc55760405162461bcd60e51b815260040161015d90613501565b815151604051631a880a9360e01b81526000916001600160a01b03861691631a880a9391611ff59160040161352b565b6020604051808303816000875af1158015612014573d6000803e3d6000fd5b505050506040513d601f19601f820116820180604052508101906120389190613542565b846001600160a01b031663b80777ea6040518163ffffffff1660e01b81526004016020604051808303816000875af1158015612078573d6000803e3d6000fd5b505050506040513d601f19601f8201168201806040525081019061209c9190613542565b6120a69190613571565b9050836001600160a01b031663f3f480d96040518163ffffffff1660e01b81526004016020604051808303816000875af11580156120e8573d6000803e3d6000fd5b505050506040513d601f19601f8201168201806040525081019061210c9190613542565b811161212a5760405162461bcd60e51b815260040161015d90613584565b6020830151516000816001600160401b0381111561214a5761214a612972565b60405190808252806020026020018201604052801561219557816020015b60408051606081018252600080825260208083018290529282015282526000199092019101816121685790505b50905060005b8281101561248c576000866020015182815181106121bb576121bb6135c7565b6020026020010151905061223c886001600160a01b031663f437bc596040518163ffffffff1660e01b81526004016000604051808303816000875af1158015612208573d6000803e3d6000fd5b505050506040513d6000823e601f3d908101601f19168201604052612230919081019061364e565b82516020015190612698565b6122965760405162461bcd60e51b815260206004820152602560248201527f4948616e646c65723a20496e76616c696420726571756573742064657374696e60448201526430ba34b7b760d91b606482015260840161015d565b805160a001516001600160401b031615806123215750876001600160a01b031663b80777ea6040518163ffffffff1660e01b81526004016020604051808303816000875af11580156122ec573d6000803e3d6000fd5b505050506040513d601f19601f820116820180604052508101906123109190613542565b815160a001516001600160401b0316115b61236d5760405162461bcd60e51b815260206004820152601b60248201527f4948616e646c65723a20526571756573742074696d6564206f75740000000000604482015260640161015d565b600061237c82600001516126ca565b604051630cb33d1f60e11b8152600481018290529091506001600160a01b038a16906319667a3e906024016020604051808303816000875af11580156123c6573d6000803e3d6000fd5b505050506040513d601f19601f820116820180604052508101906123ea91906134d8565b156124375760405162461bcd60e51b815260206004820152601b60248201527f4948616e646c65723a204475706c696361746520726571756573740000000000604482015260640161015d565b604051806060016040528083604001518152602001836020015181526020018281525084848151811061246c5761246c6135c7565b602002602001018190525050508080612484906136b9565b91505061219b565b5084515160405163a70a8c4760e01b81526000916001600160a01b0389169163a70a8c47916124bd9160040161352b565b6060604051808303816000875af11580156124dc573d6000803e3d6000fd5b505050506040513d601f19601f82011682018060405250810190612500919061370c565b602001519050806125235760405162461bcd60e51b815260040161015d90613728565b85516020810151604091820151915163722e206d60e01b815273__$2399d33eab5707eb5118077f9c67419cb4$__9263722e206d926125689286928891600401613769565b602060405180830381865af4158015612585573d6000803e3d6000fd5b505050506040513d601f19601f820116820180604052508101906125a991906134d8565b6125f55760405162461bcd60e51b815260206004820181905260248201527f4948616e646c65723a20496e76616c696420726571756573742070726f6f6673604482015260640161015d565b60005b8381101561080f57600087602001518281518110612618576126186135c7565b60200260200101519050886001600160a01b0316633b8c2bf782600001516040518263ffffffff1660e01b81526004016126529190613de3565b600060405180830381600087803b15801561266c57600080fd5b505af1158015612680573d6000803e3d6000fd5b50505050508080612690906136b9565b9150506125f8565b600081518351146126ab575060006126c4565b825160208381018281209186019283209091145b925050505b92915050565b805160208083015160408085015160a08601516060870151608088015160c089015160e08a01519551600099612704999098979101613df6565b604051602081830303815290604052805190602001209050919050565b8051805160208083015160408085015160a086015160c08701516060880151608090980151868a0151945160009961270499989596949593949093909101613e9e565b6040805160208101909152600080825260a083015151909190825b818110156127db57828560a00151828151811061279e5761279e6135c7565b60200260200101516040516020016127b7929190613d64565b604051602081830303815290604052925080806127d3906136b9565b91505061277f565b508360000151846020015185604001518660c0015187608001518860600151878a60e00151604051602001612817989796959493929190613f4c565b6040516020818303038152906040528051906020012092505050919050565b600080826000015160a001516040516020016128529190613fe8565b60408051601f19818403018152828252855180516020828101519483015160c08401516080850151606086015160e0909601519699506000986128a49895979596939592949193928b92909101613f4c565b60408051601f1981840301815291905260208501515190915060005b81811015612949576000866020015182815181106128e0576128e06135c7565b602002602001015190508381600001518260200151604051602001612906929190613d64565b60408051601f19818403018152908290526129249291602001613d64565b6040516020818303038152906040529350508080612941906136b9565b9150506128c0565b505080516020909101209392505050565b6001600160a01b038116811461296f57600080fd5b50565b634e487b7160e01b600052604160045260246000fd5b604080519081016001600160401b03811182821017156129aa576129aa612972565b60405290565b604051606081016001600160401b03811182821017156129aa576129aa612972565b60405161010081016001600160401b03811182821017156129aa576129aa612972565b604051601f8201601f191681016001600160401b0381118282101715612a1d57612a1d612972565b604052919050565b600060408284031215612a3757600080fd5b612a3f612988565b9050813581526020820135602082015292915050565b60006001600160401b03821115612a6e57612a6e612972565b5060051b60200190565b600060808284031215612a8a57600080fd5b612a926129b0565b9050612a9e8383612a25565b815260408201356001600160401b03811115612ab957600080fd5b8201601f81018413612aca57600080fd5b80356020612adf612ada83612a55565b6129f5565b82815260059290921b83018101918181019087841115612afe57600080fd5b938201935b83851015612b1c57843582529382019390820190612b03565b808387015250505050506060820135604082015292915050565b60006001600160401b03821115612b4f57612b4f612972565b50601f01601f191660200190565b600082601f830112612b6e57600080fd5b8135612b7c612ada82612b36565b818152846020838601011115612b9157600080fd5b816020850160208301376000918101602001919091529392505050565b80356001600160401b0381168114612bc557600080fd5b919050565b60006101008284031215612bdd57600080fd5b612be56129d2565b905081356001600160401b0380821115612bfe57600080fd5b612c0a85838601612b5d565b83526020840135915080821115612c2057600080fd5b612c2c85838601612b5d565b6020840152612c3d60408501612bae565b60408401526060840135915080821115612c5657600080fd5b612c6285838601612b5d565b60608401526080840135915080821115612c7b57600080fd5b612c8785838601612b5d565b6080840152612c9860a08501612bae565b60a084015260c0840135915080821115612cb157600080fd5b50612cbe84828501612b5d565b60c083015250612cd060e08301612bae565b60e082015292915050565b60008060408385031215612cee57600080fd5b612cf8833561295a565b823591506001600160401b038060208501351115612d1557600080fd5b6020840135840160408187031215612d2c57600080fd5b612d34612988565b8282351115612d4257600080fd5b612d4f8783358401612a78565b81528260208301351115612d6257600080fd5b60208201358201915086601f830112612d7a57600080fd5b612d87612ada8335612a55565b82358082526020808301929160051b850101891015612da557600080fd5b602084015b6020853560051b860101811015612e9b578581351115612dc957600080fd5b601f196060823587018c0382011215612de157600080fd5b612de96129b0565b8760208435890101351115612dfd57600080fd5b823587016020810135016040818e0384011215612e1957600080fd5b612e21612988565b92508860208201351115612e3457600080fd5b612e468d602080840135840101612bca565b83528860408201351115612e5957600080fd5b612e6c8d60206040840135840101612b5d565b602084810191909152928252506040833588018181013583850152606001359082015284529283019201612daa565b506020830152509396939550929350505050565b600082601f830112612ec057600080fd5b81356020612ed0612ada83612a55565b82815260059290921b84018101918181019086841115612eef57600080fd5b8286015b84811015612f2e5780356001600160401b03811115612f125760008081fd5b612f208986838b0101612b5d565b845250918301918301612ef3565b509695505050505050565b600082601f830112612f4a57600080fd5b81356020612f5a612ada83612a55565b82815260059290921b84018101918181019086841115612f7957600080fd5b8286015b84811015612f2e5780356001600160401b0380821115612f9d5760008081fd5b90880190610100828b03601f1901811315612fb85760008081fd5b612fc06129d2565b8784013583811115612fd25760008081fd5b612fe08d8a83880101612b5d565b82525060408085013584811115612ff75760008081fd5b6130058e8b83890101612b5d565b8a840152506060613017818701612bae565b828401526080915081860135858111156130315760008081fd5b61303f8f8c838a0101612b5d565b82850152505060a0613052818701612bae565b8284015260c09150818601358581111561306c5760008081fd5b61307a8f8c838a0101612eaf565b82850152505060e0935061308f848601612bae565b9082015261309e848301612bae565b9281019290925250845250918301918301612f7d565b600080604083850312156130c757600080fd5b82356130d28161295a565b915060208301356001600160401b03808211156130ee57600080fd5b908401906080828703121561310257600080fd5b61310a6129b0565b82358281111561311957600080fd5b61312588828601612eaf565b8252506131358760208501612a25565b602082015260608301358281111561314c57600080fd5b61315888828601612f39565b6040830152508093505050509250929050565b6000806040838503121561317e57600080fd5b82356131898161295a565b915060208301356001600160401b03808211156131a557600080fd5b90840190602082870312156131b957600080fd5b6040516020810181811083821117156131d4576131d4612972565b6040528235828111156131e657600080fd5b6131f288828601612f39565b8252508093505050509250929050565b6000806040838503121561321557600080fd5b82356132208161295a565b915060208301356001600160401b0381111561323b57600080fd5b61324785828601612b5d565b9150509250929050565b6000806040838503121561326457600080fd5b823561326f8161295a565b91506020838101356001600160401b038082111561328c57600080fd5b90850190608082880312156132a057600080fd5b6132a86129b0565b8235828111156132b757600080fd5b8301601f810189136132c857600080fd5b80356132d6612ada82612a55565b81815260059190911b8201860190868101908b8311156132f557600080fd5b8784015b8381101561332d578035878111156133115760008081fd5b61331f8e8b83890101612bca565b8452509188019188016132f9565b508085525050505061334188858501612a25565b84820152606083013593508184111561335957600080fd5b61336588858501612eaf565b6040820152809450505050509250929050565b6000806040838503121561338b57600080fd5b82356133968161295a565b91506020838101356001600160401b03808211156133b357600080fd5b90850190604082880312156133c757600080fd5b6133cf612988565b8235828111156133de57600080fd5b6133ea89828601612a78565b82525083830135828111156133fe57600080fd5b80840193505087601f84011261341357600080fd5b8235613421612ada82612a55565b81815260059190911b8401850190858101908a83111561344057600080fd5b8686015b838110156134c15780358681111561345b57600080fd5b87016060818e03601f190112156134725760008081fd5b61347a6129b0565b898201358881111561348c5760008081fd5b61349a8f8c83860101612bca565b8252506040828101358b830152606090920135918101919091528352918701918701613444565b508087850152505050809450505050509250929050565b6000602082840312156134ea57600080fd5b815180151581146134fa57600080fd5b9392505050565b60208082526010908201526f24a430b7323632b91d10333937bd32b760811b604082015260600190565b8151815260208083015190820152604081016126c4565b60006020828403121561355457600080fd5b5051919050565b634e487b7160e01b600052601160045260246000fd5b818103818111156126c4576126c461355b565b60208082526023908201527f4948616e646c65723a207374696c6c20696e206368616c6c656e6765207065726040820152621a5bd960ea1b606082015260800190565b634e487b7160e01b600052603260045260246000fd5b60005b838110156135f85781810151838201526020016135e0565b50506000910152565b600082601f83011261361257600080fd5b8151613620612ada82612b36565b81815284602083860101111561363557600080fd5b6136468260208301602087016135dd565b949350505050565b60006020828403121561366057600080fd5b81516001600160401b0381111561367657600080fd5b61364684828501613601565b60208082526019908201527f4948616e646c65723a20556e6b6e6f776e207265717565737400000000000000604082015260600190565b6000600182016136cb576136cb61355b565b5060010190565b6000606082840312156136e457600080fd5b6136ec6129b0565b905081518152602082015160208201526040820151604082015292915050565b60006060828403121561371e57600080fd5b6134fa83836136d2565b60208082526021908201527f4948616e646c65723a2050726f6f6620686569676874206e6f7420666f756e646040820152602160f81b606082015260800190565b600060808201868352602060808185015281875180845260a086019150828901935060005b818110156137aa5784518352938301939183019160010161378e565b505060409250848103838601528087518083528383019150838901925060005b818110156137f957835180518452858101518685015286015186840152928401926060909201916001016137ca565b50508094505050505082606083015295945050505050565b600081518084526138298160208601602086016135dd565b601f01601f19169290920160200192915050565b6000610100825181855261385382860182613811565b9150506020830151848203602086015261386d8282613811565b915050604083015161388a60408601826001600160401b03169052565b50606083015184820360608601526138a28282613811565b915050608083015184820360808601526138bc8282613811565b91505060a08301516138d960a08601826001600160401b03169052565b5060c083015184820360c08601526138f18282613811565b91505060e083015161390e60e08601826001600160401b03169052565b509392505050565b602081526000825160406020840152613932606084018261383d565b90506020840151601f198483030160408501526126bf8282613811565b600081518084526020808501808196508360051b8101915082860160005b85811015613997578284038952613985848351613811565b9885019893509084019060010161396d565b5091979650505050505050565b8481526080602082015260006139bd608083018661394f565b82810360408401526139cf818661394f565b905082810360608401526139e38185613811565b979650505050505050565b60006020808385031215613a0157600080fd5b82516001600160401b0380821115613a1857600080fd5b818501915085601f830112613a2c57600080fd5b8151613a3a612ada82612a55565b81815260059190911b83018401908481019088831115613a5957600080fd5b8585015b83811015613aec57805185811115613a755760008081fd5b86016040818c03601f1901811315613a8d5760008081fd5b613a95612988565b8983015188811115613aa75760008081fd5b613ab58e8c83870101613601565b825250908201519087821115613acb5760008081fd5b613ad98d8b84860101613601565b818b015285525050918601918601613a5d565b5098975050505050505050565b60006101008251818552613b0f82860182613811565b91505060208301518482036020860152613b298282613811565b9150506040830151613b4660408601826001600160401b03169052565b5060608301518482036060860152613b5e8282613811565b9150506080830151613b7b60808601826001600160401b03169052565b5060a083015184820360a0860152613b93828261394f565b91505060c0830151613bb060c08601826001600160401b03169052565b5060e083015161390e60e08601826001600160401b03169052565b60006020808352835160408083860152613be86060860183613af9565b83870151601f1987830381018489015281518084529294509085019184860190600581901b8601870160005b82811015613c62578488830301845285518051888452613c3689850182613811565b918b0151848303858d0152919050613c4e8183613811565b978b0197958b019593505050600101613c14565b509a9950505050505050505050565b6020815260006134fa6020830184613af9565b600060208284031215613c9657600080fd5b81516134fa8161295a565b604081526000613cb46040830185613811565b8281036020840152613cc68185613811565b95945050505050565b60008082840360c0811215613ce357600080fd5b83516001600160401b03811115613cf957600080fd5b613d0586828701613601565b93505060a0601f1982011215613d1a57600080fd5b50613d236129b0565b6020840151815260408401516020820152613d4185606086016136d2565b6040820152809150509250929050565b6020815260006134fa6020830184613811565b60008351613d768184602088016135dd565b835190830190613d8a8183602088016135dd565b01949350505050565b838152606060208201526000613dac606083018561394f565b8281036040840152613dbe818561394f565b9695505050505050565b6020815260008251602080840152613646604084018261383d565b6020815260006134fa602083018461383d565b60008951613e08818460208e016135dd565b895190830190613e1c818360208e016135dd565b60c08a811b6001600160c01b03199081169390920192835289901b811660088301528751613e51816010850160208c016135dd565b8751920191613e67816010850160208b016135dd565b8651920191613e7d816010850160208a016135dd565b60c09590951b16930160108101939093525050601801979650505050505050565b600089516020613eb18285838f016135dd565b8a5191840191613ec48184848f016135dd565b60c08b811b6001600160c01b0319908116949092019384528a901b1660088301528751613ef78160108501848c016135dd565b8751920191613f0c8160108501848b016135dd565b8651920191613f218160108501848a016135dd565b8551920191613f3681601085018489016135dd565b919091016010019b9a5050505050505050505050565b60008951613f5e818460208e016135dd565b895190830190613f72818360208e016135dd565b60c08a811b6001600160c01b03199081169390920192835289811b8216600884015288901b811660108301528651613fb1816018850160208b016135dd565b8651920191613fc7816018850160208a016135dd565b60c09590951b16930160188101939093525050602001979650505050505050565b6020815260006134fa602083018461394f56fea2646970667358221220d48e8c1a6adeaba192c5a08e1f358c3cc2d259772f75677b2ad3497183a6f65464736f6c63430008110033",
    "linkReferences": {
      "lib/solidity-merkle-trees/src/MerkleMountainRange.sol": {
        "MerkleMountainRange": [
          {
            "start": 1739,
            "length": 20
          },
          {
            "start": 9566,
            "length": 20
          }
        ]
      },
      "lib/solidity-merkle-trees/src/MerklePatricia.sol": {
        "MerklePatricia": [
          {
            "start": 3425,
            "length": 20
          },
          {
            "start": 7564,
            "length": 20
          }
        ]
      }
    }
  },
  "methodIdentifiers": {
    "handleConsensus(address,bytes)": "bb1689be",
    "handleGetResponses(address,(bytes[],(uint256,uint256),(bytes,bytes,uint64,bytes,uint64,bytes[],uint64,uint64)[]))": "873ce1ce",
    "handleGetTimeouts(address,((bytes,bytes,uint64,bytes,uint64,bytes[],uint64,uint64)[]))": "ac269bd6",
    "handlePostRequests(address,(((uint256,uint256),bytes32[],uint256),((bytes,bytes,uint64,bytes,bytes,uint64,bytes,uint64),uint256,uint256)[]))": "fda626c3",
    "handlePostResponses(address,(((uint256,uint256),bytes32[],uint256),(((bytes,bytes,uint64,bytes,bytes,uint64,bytes,uint64),bytes),uint256,uint256)[]))": "20d71c7a",
    "handlePostTimeouts(address,((bytes,bytes,uint64,bytes,bytes,uint64,bytes,uint64)[],(uint256,uint256),bytes[]))": "d95e4fbb"
  },
  "id": 58
}