{
    "abi": [
        {
            "inputs": [],
            "stateMutability": "nonpayable",
            "type": "constructor"
        },
        {
            "inputs": [
                {
                    "internalType": "Hash",
                    "name": "uuid",
                    "type": "bytes32"
                }
            ],
            "name": "GameAlreadyExists",
            "type": "error"
        },
        {
            "inputs": [],
            "name": "InsufficientBond",
            "type": "error"
        },
        {
            "inputs": [
                {
                    "internalType": "GameType",
                    "name": "gameType",
                    "type": "uint32"
                }
            ],
            "name": "NoImplementation",
            "type": "error"
        },
        {
            "anonymous": false,
            "inputs": [
                {
                    "indexed": true,
                    "internalType": "address",
                    "name": "disputeProxy",
                    "type": "address"
                },
                {
                    "indexed": true,
                    "internalType": "GameType",
                    "name": "gameType",
                    "type": "uint32"
                },
                {
                    "indexed": true,
                    "internalType": "Claim",
                    "name": "rootClaim",
                    "type": "bytes32"
                }
            ],
            "name": "DisputeGameCreated",
            "type": "event"
        },
        {
            "anonymous": false,
            "inputs": [
                {
                    "indexed": true,
                    "internalType": "address",
                    "name": "impl",
                    "type": "address"
                },
                {
                    "indexed": true,
                    "internalType": "GameType",
                    "name": "gameType",
                    "type": "uint32"
                }
            ],
            "name": "ImplementationSet",
            "type": "event"
        },
        {
            "anonymous": false,
            "inputs": [
                {
                    "indexed": true,
                    "internalType": "GameType",
                    "name": "gameType",
                    "type": "uint32"
                },
                {
                    "indexed": true,
                    "internalType": "uint256",
                    "name": "newBond",
                    "type": "uint256"
                }
            ],
            "name": "InitBondUpdated",
            "type": "event"
        },
        {
            "anonymous": false,
            "inputs": [
                {
                    "indexed": false,
                    "internalType": "uint8",
                    "name": "version",
                    "type": "uint8"
                }
            ],
            "name": "Initialized",
            "type": "event"
        },
        {
            "anonymous": false,
            "inputs": [
                {
                    "indexed": true,
                    "internalType": "address",
                    "name": "previousOwner",
                    "type": "address"
                },
                {
                    "indexed": true,
                    "internalType": "address",
                    "name": "newOwner",
                    "type": "address"
                }
            ],
            "name": "OwnershipTransferred",
            "type": "event"
        },
        {
            "inputs": [
                {
                    "internalType": "GameType",
                    "name": "_gameType",
                    "type": "uint32"
                },
                {
                    "internalType": "Claim",
                    "name": "_rootClaim",
                    "type": "bytes32"
                },
                {
                    "internalType": "bytes",
                    "name": "_extraData",
                    "type": "bytes"
                }
            ],
            "name": "create",
            "outputs": [
                {
                    "internalType": "contract IDisputeGame",
                    "name": "proxy_",
                    "type": "address"
                }
            ],
            "stateMutability": "payable",
            "type": "function"
        },
        {
            "inputs": [
                {
                    "internalType": "GameType",
                    "name": "_gameType",
                    "type": "uint32"
                },
                {
                    "internalType": "uint256",
                    "name": "_start",
                    "type": "uint256"
                },
                {
                    "internalType": "uint256",
                    "name": "_n",
                    "type": "uint256"
                }
            ],
            "name": "findLatestGames",
            "outputs": [
                {
                    "components": [
                        {
                            "internalType": "uint256",
                            "name": "index",
                            "type": "uint256"
                        },
                        {
                            "internalType": "GameId",
                            "name": "metadata",
                            "type": "bytes32"
                        },
                        {
                            "internalType": "Timestamp",
                            "name": "timestamp",
                            "type": "uint64"
                        },
                        {
                            "internalType": "Claim",
                            "name": "rootClaim",
                            "type": "bytes32"
                        },
                        {
                            "internalType": "bytes",
                            "name": "extraData",
                            "type": "bytes"
                        }
                    ],
                    "internalType": "struct IDisputeGameFactory.GameSearchResult[]",
                    "name": "games_",
                    "type": "tuple[]"
                }
            ],
            "stateMutability": "view",
            "type": "function"
        },
        {
            "inputs": [
                {
                    "internalType": "uint256",
                    "name": "_index",
                    "type": "uint256"
                }
            ],
            "name": "gameAtIndex",
            "outputs": [
                {
                    "internalType": "GameType",
                    "name": "gameType_",
                    "type": "uint32"
                },
                {
                    "internalType": "Timestamp",
                    "name": "timestamp_",
                    "type": "uint64"
                },
                {
                    "internalType": "contract IDisputeGame",
                    "name": "proxy_",
                    "type": "address"
                }
            ],
            "stateMutability": "view",
            "type": "function"
        },
        {
            "inputs": [],
            "name": "gameCount",
            "outputs": [
                {
                    "internalType": "uint256",
                    "name": "gameCount_",
                    "type": "uint256"
                }
            ],
            "stateMutability": "view",
            "type": "function"
        },
        {
            "inputs": [
                {
                    "internalType": "GameType",
                    "name": "",
                    "type": "uint32"
                }
            ],
            "name": "gameImpls",
            "outputs": [
                {
                    "internalType": "contract IDisputeGame",
                    "name": "",
                    "type": "address"
                }
            ],
            "stateMutability": "view",
            "type": "function"
        },
        {
            "inputs": [
                {
                    "internalType": "GameType",
                    "name": "_gameType",
                    "type": "uint32"
                },
                {
                    "internalType": "Claim",
                    "name": "_rootClaim",
                    "type": "bytes32"
                },
                {
                    "internalType": "bytes",
                    "name": "_extraData",
                    "type": "bytes"
                }
            ],
            "name": "games",
            "outputs": [
                {
                    "internalType": "contract IDisputeGame",
                    "name": "proxy_",
                    "type": "address"
                },
                {
                    "internalType": "Timestamp",
                    "name": "timestamp_",
                    "type": "uint64"
                }
            ],
            "stateMutability": "view",
            "type": "function"
        },
        {
            "inputs": [
                {
                    "internalType": "GameType",
                    "name": "_gameType",
                    "type": "uint32"
                },
                {
                    "internalType": "Claim",
                    "name": "_rootClaim",
                    "type": "bytes32"
                },
                {
                    "internalType": "bytes",
                    "name": "_extraData",
                    "type": "bytes"
                }
            ],
            "name": "getGameUUID",
            "outputs": [
                {
                    "internalType": "Hash",
                    "name": "uuid_",
                    "type": "bytes32"
                }
            ],
            "stateMutability": "pure",
            "type": "function"
        },
        {
            "inputs": [
                {
                    "internalType": "GameType",
                    "name": "",
                    "type": "uint32"
                }
            ],
            "name": "initBonds",
            "outputs": [
                {
                    "internalType": "uint256",
                    "name": "",
                    "type": "uint256"
                }
            ],
            "stateMutability": "view",
            "type": "function"
        },
        {
            "inputs": [
                {
                    "internalType": "address",
                    "name": "_owner",
                    "type": "address"
                }
            ],
            "name": "initialize",
            "outputs": [],
            "stateMutability": "nonpayable",
            "type": "function"
        },
        {
            "inputs": [],
            "name": "owner",
            "outputs": [
                {
                    "internalType": "address",
                    "name": "",
                    "type": "address"
                }
            ],
            "stateMutability": "view",
            "type": "function"
        },
        {
            "inputs": [],
            "name": "renounceOwnership",
            "outputs": [],
            "stateMutability": "nonpayable",
            "type": "function"
        },
        {
            "inputs": [
                {
                    "internalType": "GameType",
                    "name": "_gameType",
                    "type": "uint32"
                },
                {
                    "internalType": "contract IDisputeGame",
                    "name": "_impl",
                    "type": "address"
                }
            ],
            "name": "setImplementation",
            "outputs": [],
            "stateMutability": "nonpayable",
            "type": "function"
        },
        {
            "inputs": [
                {
                    "internalType": "GameType",
                    "name": "_gameType",
                    "type": "uint32"
                },
                {
                    "internalType": "uint256",
                    "name": "_initBond",
                    "type": "uint256"
                }
            ],
            "name": "setInitBond",
            "outputs": [],
            "stateMutability": "nonpayable",
            "type": "function"
        },
        {
            "inputs": [
                {
                    "internalType": "address",
                    "name": "newOwner",
                    "type": "address"
                }
            ],
            "name": "transferOwnership",
            "outputs": [],
            "stateMutability": "nonpayable",
            "type": "function"
        },
        {
            "inputs": [],
            "name": "version",
            "outputs": [
                {
                    "internalType": "string",
                    "name": "",
                    "type": "string"
                }
            ],
            "stateMutability": "view",
            "type": "function"
        }
    ],
    "bytecode": {
        "object": "0x60806040523480156200001157600080fd5b506200001e600062000024565b62000292565b600054610100900460ff1615808015620000455750600054600160ff909116105b8062000075575062000062306200016260201b62000cdc1760201c565b15801562000075575060005460ff166001145b620000de5760405162461bcd60e51b815260206004820152602e60248201527f496e697469616c697a61626c653a20636f6e747261637420697320616c72656160448201526d191e481a5b9a5d1a585b1a5e995960921b60648201526084015b60405180910390fd5b6000805460ff19166001179055801562000102576000805461ff0019166101001790555b6200010c62000171565b6200011782620001d9565b80156200015e576000805461ff0019169055604051600181527f7f26b83ff96e1f2b6a682f133852f6798a09c465da95921460cefb38474024989060200160405180910390a15b5050565b6001600160a01b03163b151590565b600054610100900460ff16620001cd5760405162461bcd60e51b815260206004820152602b60248201526000805160206200180083398151915260448201526a6e697469616c697a696e6760a81b6064820152608401620000d5565b620001d76200022b565b565b603380546001600160a01b038381166001600160a01b0319831681179093556040519116919082907f8be0079c531659141344cd1fd0a4f28419497f9722a3daafe3b4186f6b6457e090600090a35050565b600054610100900460ff16620002875760405162461bcd60e51b815260206004820152602b60248201526000805160206200180083398151915260448201526a6e697469616c697a696e6760a81b6064820152608401620000d5565b620001d733620001d9565b61155e80620002a26000396000f3fe6080604052600436106100e85760003560e01c80636593dc6e1161008a57806396cd97201161005957806396cd972014610313578063bb8aa1fc14610333578063c4d66de814610394578063f2fde38b146103b457600080fd5b80636593dc6e14610293578063715018a6146102c057806382ecf2f6146102d55780638da5cb5b146102e857600080fd5b8063254bd683116100c6578063254bd6831461019c5780634d1975b4146101c957806354fd4d50146101e85780635f0150cb1461023e57600080fd5b806314f6b1a3146100ed5780631b685b9e1461010f5780631e3342401461017c575b600080fd5b3480156100f957600080fd5b5061010d610108366004611099565b6103d4565b005b34801561011b57600080fd5b5061015261012a3660046110d0565b60656020526000908152604090205473ffffffffffffffffffffffffffffffffffffffff1681565b60405173ffffffffffffffffffffffffffffffffffffffff90911681526020015b60405180910390f35b34801561018857600080fd5b5061010d6101973660046110eb565b61045e565b3480156101a857600080fd5b506101bc6101b7366004611115565b6104aa565b60405161017391906111c2565b3480156101d557600080fd5b506068545b604051908152602001610173565b3480156101f457600080fd5b506102316040518060400160405280600581526020017f302e322e3000000000000000000000000000000000000000000000000000000081525081565b604051610173919061127f565b34801561024a57600080fd5b5061025e610259366004611292565b6106ee565b6040805173ffffffffffffffffffffffffffffffffffffffff909316835267ffffffffffffffff909116602083015201610173565b34801561029f57600080fd5b506101da6102ae3660046110d0565b60666020526000908152604090205481565b3480156102cc57600080fd5b5061010d610741565b6101526102e3366004611292565b610755565b3480156102f457600080fd5b5060335473ffffffffffffffffffffffffffffffffffffffff16610152565b34801561031f57600080fd5b506101da61032e366004611292565b6109ee565b34801561033f57600080fd5b5061035361034e366004611319565b610a27565b6040805163ffffffff909416845267ffffffffffffffff909216602084015273ffffffffffffffffffffffffffffffffffffffff1690820152606001610173565b3480156103a057600080fd5b5061010d6103af366004611332565b610a89565b3480156103c057600080fd5b5061010d6103cf366004611332565b610c25565b6103dc610cf8565b63ffffffff821660008181526065602052604080822080547fffffffffffffffffffffffff00000000000000000000000000000000000000001673ffffffffffffffffffffffffffffffffffffffff8616908117909155905190917fff513d80e2c7fa487608f70a618dfbc0cf415699dc69588c747e8c71566c88de91a35050565b610466610cf8565b63ffffffff8216600081815260666020526040808220849055518392917f74d6665c4b26d5596a5aa13d3014e0c06af4d322075a797f87b03cd4c5bc91ca91a35050565b606854606090831015806104bc575081155b6106e7575060408051600583901b8101602001909152825b8381116106e5576000606882815481106104f0576104f061134f565b600091825260209091200154905060e081901c67ffffffffffffffff60a083901c1673ffffffffffffffffffffffffffffffffffffffff831660ff808a16908416036106b6576001865101865260008173ffffffffffffffffffffffffffffffffffffffff1663609d33346040518163ffffffff1660e01b8152600401600060405180830381865afa15801561058a573d6000803e3d6000fd5b505050506040513d6000823e601f3d9081017fffffffffffffffffffffffffffffffffffffffffffffffffffffffffffffffe01682016040526105d091908101906113ad565b905060008273ffffffffffffffffffffffffffffffffffffffff1663bcef3b556040518163ffffffff1660e01b8152600401602060405180830381865afa15801561061f573d6000803e3d6000fd5b505050506040513d601f19601f820116820180604052508101906106439190611478565b90506040518060a001604052808881526020018781526020018567ffffffffffffffff168152602001828152602001838152508860018a516106859190611491565b815181106106955761069561134f565b6020026020010181905250888851106106b3575050505050506106e5565b50505b50507fffffffffffffffffffffffffffffffffffffffffffffffffffffffffffffffff90920191506104d49050565b505b9392505050565b60008060006106ff878787876109ee565b60009081526067602052604090205473ffffffffffffffffffffffffffffffffffffffff81169860a09190911c67ffffffffffffffff16975095505050505050565b610749610cf8565b6107536000610d79565b565b63ffffffff841660009081526065602052604081205473ffffffffffffffffffffffffffffffffffffffff16806107c5576040517f031c6de400000000000000000000000000000000000000000000000000000000815263ffffffff871660048201526024015b60405180910390fd5b63ffffffff8616600090815260666020526040902054341015610814576040517fe92c469f00000000000000000000000000000000000000000000000000000000815260040160405180910390fd5b6000610821600143611491565b4090506108898682878760405160200161083e94939291906114cf565b604080517fffffffffffffffffffffffffffffffffffffffffffffffffffffffffffffffe081840301815291905273ffffffffffffffffffffffffffffffffffffffff841690610df0565b92508273ffffffffffffffffffffffffffffffffffffffff16638129fc1c346040518263ffffffff1660e01b81526004016000604051808303818588803b1580156108d357600080fd5b505af11580156108e7573d6000803e3d6000fd5b505050505060006108fa888888886109ee565b60008181526067602052604090205490915015610946576040517f014f6fe5000000000000000000000000000000000000000000000000000000008152600481018290526024016107bc565b60004260a01b60e08a901b178517600083815260676020526040808220839055606880546001810182559083527fa2153420d844928b4421650203c77babc8b33d7f2e7b450e2966db0c220977530183905551919250899163ffffffff8c169173ffffffffffffffffffffffffffffffffffffffff8916917f5b565efe82411da98814f356d0e7bcb8f0219b8d970307c5afb4a6903a8b2e359190a450505050949350505050565b600084848484604051602001610a0794939291906114f0565b604051602081830303815290604052805190602001209050949350505050565b6000806000610a7c60688581548110610a4257610a4261134f565b906000526020600020015460e081901c9160a082901c67ffffffffffffffff169173ffffffffffffffffffffffffffffffffffffffff1690565b9196909550909350915050565b600054610100900460ff1615808015610aa95750600054600160ff909116105b80610ac35750303b158015610ac3575060005460ff166001145b610b4f576040517f08c379a000000000000000000000000000000000000000000000000000000000815260206004820152602e60248201527f496e697469616c697a61626c653a20636f6e747261637420697320616c72656160448201527f647920696e697469616c697a656400000000000000000000000000000000000060648201526084016107bc565b600080547fffffffffffffffffffffffffffffffffffffffffffffffffffffffffffffff001660011790558015610bad57600080547fffffffffffffffffffffffffffffffffffffffffffffffffffffffffffff00ff166101001790555b610bb5610f24565b610bbe82610d79565b8015610c2157600080547fffffffffffffffffffffffffffffffffffffffffffffffffffffffffffff00ff169055604051600181527f7f26b83ff96e1f2b6a682f133852f6798a09c465da95921460cefb38474024989060200160405180910390a15b5050565b610c2d610cf8565b73ffffffffffffffffffffffffffffffffffffffff8116610cd0576040517f08c379a000000000000000000000000000000000000000000000000000000000815260206004820152602660248201527f4f776e61626c653a206e6577206f776e657220697320746865207a65726f206160448201527f646472657373000000000000000000000000000000000000000000000000000060648201526084016107bc565b610cd981610d79565b50565b73ffffffffffffffffffffffffffffffffffffffff163b151590565b60335473ffffffffffffffffffffffffffffffffffffffff163314610753576040517f08c379a000000000000000000000000000000000000000000000000000000000815260206004820181905260248201527f4f776e61626c653a2063616c6c6572206973206e6f7420746865206f776e657260448201526064016107bc565b6033805473ffffffffffffffffffffffffffffffffffffffff8381167fffffffffffffffffffffffff0000000000000000000000000000000000000000831681179093556040519116919082907f8be0079c531659141344cd1fd0a4f28419497f9722a3daafe3b4186f6b6457e090600090a35050565b60006002825101603f8101600a81036040518360581b8260e81b177f6100003d81600a3d39f3363d3d373d3d3d3d610000806035363936013d7300001781528660601b601e8201527f5af43d3d93803e603357fd5bf300000000000000000000000000000000000000603282015285519150603f8101602087015b60208410610ea857805182527fffffffffffffffffffffffffffffffffffffffffffffffffffffffffffffffe09093019260209182019101610e6b565b517fffffffffffffffffffffffffffffffffffffffffffffffffffffffffffffffff602085900360031b1b16815260f085901b9083015282816000f0945084610f15577febfef1880000000000000000000000000000000000000000000000000000000060005260206000fd5b90910160405250909392505050565b600054610100900460ff16610fbb576040517f08c379a000000000000000000000000000000000000000000000000000000000815260206004820152602b60248201527f496e697469616c697a61626c653a20636f6e7472616374206973206e6f74206960448201527f6e697469616c697a696e6700000000000000000000000000000000000000000060648201526084016107bc565b610753600054610100900460ff16611055576040517f08c379a000000000000000000000000000000000000000000000000000000000815260206004820152602b60248201527f496e697469616c697a61626c653a20636f6e7472616374206973206e6f74206960448201527f6e697469616c697a696e6700000000000000000000000000000000000000000060648201526084016107bc565b61075333610d79565b803563ffffffff8116811461107257600080fd5b919050565b73ffffffffffffffffffffffffffffffffffffffff81168114610cd957600080fd5b600080604083850312156110ac57600080fd5b6110b58361105e565b915060208301356110c581611077565b809150509250929050565b6000602082840312156110e257600080fd5b6106e78261105e565b600080604083850312156110fe57600080fd5b6111078361105e565b946020939093013593505050565b60008060006060848603121561112a57600080fd5b6111338461105e565b95602085013595506040909401359392505050565b60005b8381101561116357818101518382015260200161114b565b83811115611172576000848401525b50505050565b60008151808452611190816020860160208601611148565b601f017fffffffffffffffffffffffffffffffffffffffffffffffffffffffffffffffe0169290920160200192915050565b60006020808301818452808551808352604092508286019150828160051b87010184880160005b83811015611271578883037fffffffffffffffffffffffffffffffffffffffffffffffffffffffffffffffc001855281518051845287810151888501528681015167ffffffffffffffff16878501526060808201519085015260809081015160a09185018290529061125d81860183611178565b9689019694505050908601906001016111e9565b509098975050505050505050565b6020815260006106e76020830184611178565b600080600080606085870312156112a857600080fd5b6112b18561105e565b935060208501359250604085013567ffffffffffffffff808211156112d557600080fd5b818701915087601f8301126112e957600080fd5b8135818111156112f857600080fd5b88602082850101111561130a57600080fd5b95989497505060200194505050565b60006020828403121561132b57600080fd5b5035919050565b60006020828403121561134457600080fd5b81356106e781611077565b7f4e487b7100000000000000000000000000000000000000000000000000000000600052603260045260246000fd5b7f4e487b7100000000000000000000000000000000000000000000000000000000600052604160045260246000fd5b6000602082840312156113bf57600080fd5b815167ffffffffffffffff808211156113d757600080fd5b818401915084601f8301126113eb57600080fd5b8151818111156113fd576113fd61137e565b604051601f82017fffffffffffffffffffffffffffffffffffffffffffffffffffffffffffffffe0908116603f011681019083821181831017156114435761144361137e565b8160405282815287602084870101111561145c57600080fd5b61146d836020830160208801611148565b979650505050505050565b60006020828403121561148a57600080fd5b5051919050565b6000828210156114ca577f4e487b7100000000000000000000000000000000000000000000000000000000600052601160045260246000fd5b500390565b84815283602082015281836040830137600091016040019081529392505050565b63ffffffff8516815283602082015260606040820152816060820152818360808301376000818301608090810191909152601f9092017fffffffffffffffffffffffffffffffffffffffffffffffffffffffffffffffe0160101939250505056fea164736f6c634300080f000a496e697469616c697a61626c653a20636f6e7472616374206973206e6f742069",
        "linkReferences": {}
    },
    "methodIdentifiers": {
        "create(uint32,bytes32,bytes)": "82ecf2f6",
        "findLatestGames(uint32,uint256,uint256)": "254bd683",
        "gameAtIndex(uint256)": "bb8aa1fc",
        "gameCount()": "4d1975b4",
        "gameImpls(uint32)": "1b685b9e",
        "games(uint32,bytes32,bytes)": "5f0150cb",
        "getGameUUID(uint32,bytes32,bytes)": "96cd9720",
        "initBonds(uint32)": "6593dc6e",
        "initialize(address)": "c4d66de8",
        "owner()": "8da5cb5b",
        "renounceOwnership()": "715018a6",
        "setImplementation(uint32,address)": "14f6b1a3",
        "setInitBond(uint32,uint256)": "1e334240",
        "transferOwnership(address)": "f2fde38b",
        "version()": "54fd4d50"
    },
    "storageLayout": {
        "storage": [
            {
                "astId": 45313,
                "contract": "src/dispute/DisputeGameFactory.sol:DisputeGameFactory",
                "label": "_initialized",
                "offset": 0,
                "slot": "0",
                "type": "t_uint8"
            },
            {
                "astId": 45316,
                "contract": "src/dispute/DisputeGameFactory.sol:DisputeGameFactory",
                "label": "_initializing",
                "offset": 1,
                "slot": "0",
                "type": "t_bool"
            },
            {
                "astId": 46844,
                "contract": "src/dispute/DisputeGameFactory.sol:DisputeGameFactory",
                "label": "__gap",
                "offset": 0,
                "slot": "1",
                "type": "t_array(t_uint256)50_storage"
            },
            {
                "astId": 45185,
                "contract": "src/dispute/DisputeGameFactory.sol:DisputeGameFactory",
                "label": "_owner",
                "offset": 0,
                "slot": "51",
                "type": "t_address"
            },
            {
                "astId": 45305,
                "contract": "src/dispute/DisputeGameFactory.sol:DisputeGameFactory",
                "label": "__gap",
                "offset": 0,
                "slot": "52",
                "type": "t_array(t_uint256)49_storage"
            },
            {
                "astId": 93213,
                "contract": "src/dispute/DisputeGameFactory.sol:DisputeGameFactory",
                "label": "gameImpls",
                "offset": 0,
                "slot": "101",
                "type": "t_mapping(t_userDefinedValueType(GameType)99164,t_contract(IDisputeGame)96132)"
            },
            {
                "astId": 93219,
                "contract": "src/dispute/DisputeGameFactory.sol:DisputeGameFactory",
                "label": "initBonds",
                "offset": 0,
                "slot": "102",
                "type": "t_mapping(t_userDefinedValueType(GameType)99164,t_uint256)"
            },
            {
                "astId": 93226,
                "contract": "src/dispute/DisputeGameFactory.sol:DisputeGameFactory",
                "label": "_disputeGames",
                "offset": 0,
                "slot": "103",
                "type": "t_mapping(t_userDefinedValueType(Hash)99146,t_userDefinedValueType(GameId)99158)"
            },
            {
                "astId": 93231,
                "contract": "src/dispute/DisputeGameFactory.sol:DisputeGameFactory",
                "label": "_disputeGameList",
                "offset": 0,
                "slot": "104",
                "type": "t_array(t_userDefinedValueType(GameId)99158)dyn_storage"
            }
        ],
        "types": {
            "t_address": {
                "encoding": "inplace",
                "label": "address",
                "numberOfBytes": "20"
            },
            "t_array(t_uint256)49_storage": {
                "encoding": "inplace",
                "label": "uint256[49]",
                "numberOfBytes": "1568",
                "base": "t_uint256"
            },
            "t_array(t_uint256)50_storage": {
                "encoding": "inplace",
                "label": "uint256[50]",
                "numberOfBytes": "1600",
                "base": "t_uint256"
            },
            "t_array(t_userDefinedValueType(GameId)99158)dyn_storage": {
                "encoding": "dynamic_array",
                "label": "GameId[]",
                "numberOfBytes": "32",
                "base": "t_userDefinedValueType(GameId)99158"
            },
            "t_bool": {
                "encoding": "inplace",
                "label": "bool",
                "numberOfBytes": "1"
            },
            "t_contract(IDisputeGame)96132": {
                "encoding": "inplace",
                "label": "contract IDisputeGame",
                "numberOfBytes": "20"
            },
            "t_mapping(t_userDefinedValueType(GameType)99164,t_contract(IDisputeGame)96132)": {
                "encoding": "mapping",
                "key": "t_userDefinedValueType(GameType)99164",
                "label": "mapping(GameType => contract IDisputeGame)",
                "numberOfBytes": "32",
                "value": "t_contract(IDisputeGame)96132"
            },
            "t_mapping(t_userDefinedValueType(GameType)99164,t_uint256)": {
                "encoding": "mapping",
                "key": "t_userDefinedValueType(GameType)99164",
                "label": "mapping(GameType => uint256)",
                "numberOfBytes": "32",
                "value": "t_uint256"
            },
            "t_mapping(t_userDefinedValueType(Hash)99146,t_userDefinedValueType(GameId)99158)": {
                "encoding": "mapping",
                "key": "t_userDefinedValueType(Hash)99146",
                "label": "mapping(Hash => GameId)",
                "numberOfBytes": "32",
                "value": "t_userDefinedValueType(GameId)99158"
            },
            "t_uint256": {
                "encoding": "inplace",
                "label": "uint256",
                "numberOfBytes": "32"
            },
            "t_uint8": {
                "encoding": "inplace",
                "label": "uint8",
                "numberOfBytes": "1"
            },
            "t_userDefinedValueType(GameId)99158": {
                "encoding": "inplace",
                "label": "GameId",
                "numberOfBytes": "32"
            },
            "t_userDefinedValueType(GameType)99164": {
                "encoding": "inplace",
                "label": "GameType",
                "numberOfBytes": "4"
            },
            "t_userDefinedValueType(Hash)99146": {
                "encoding": "inplace",
                "label": "Hash",
                "numberOfBytes": "32"
            }
        }
    },
    "id": 157
}