{"abi":[{"type":"function","name":"handleConsensus","inputs":[{"name":"host","type":"address","internalType":"contract IIsmpHost"},{"name":"proof","type":"bytes","internalType":"bytes"}],"outputs":[],"stateMutability":"nonpayable"},{"type":"function","name":"handleGetRequestTimeouts","inputs":[{"name":"host","type":"address","internalType":"contract IIsmpHost"},{"name":"message","type":"tuple","internalType":"struct GetTimeoutMessage","components":[{"name":"timeouts","type":"tuple[]","internalType":"struct GetRequest[]","components":[{"name":"source","type":"bytes","internalType":"bytes"},{"name":"dest","type":"bytes","internalType":"bytes"},{"name":"nonce","type":"uint64","internalType":"uint64"},{"name":"from","type":"bytes","internalType":"bytes"},{"name":"timeoutTimestamp","type":"uint64","internalType":"uint64"},{"name":"keys","type":"bytes[]","internalType":"bytes[]"},{"name":"height","type":"uint64","internalType":"uint64"},{"name":"gaslimit","type":"uint64","internalType":"uint64"}]}]}],"outputs":[],"stateMutability":"nonpayable"},{"type":"function","name":"handleGetResponses","inputs":[{"name":"host","type":"address","internalType":"contract IIsmpHost"},{"name":"message","type":"tuple","internalType":"struct GetResponseMessage","components":[{"name":"proof","type":"bytes[]","internalType":"bytes[]"},{"name":"height","type":"tuple","internalType":"struct StateMachineHeight","components":[{"name":"stateMachineId","type":"uint256","internalType":"uint256"},{"name":"height","type":"uint256","internalType":"uint256"}]},{"name":"requests","type":"tuple[]","internalType":"struct GetRequest[]","components":[{"name":"source","type":"bytes","internalType":"bytes"},{"name":"dest","type":"bytes","internalType":"bytes"},{"name":"nonce","type":"uint64","internalType":"uint64"},{"name":"from","type":"bytes","internalType":"bytes"},{"name":"timeoutTimestamp","type":"uint64","internalType":"uint64"},{"name":"keys","type":"bytes[]","internalType":"bytes[]"},{"name":"height","type":"uint64","internalType":"uint64"},{"name":"gaslimit","type":"uint64","internalType":"uint64"}]}]}],"outputs":[],"stateMutability":"nonpayable"},{"type":"function","name":"handlePostRequestTimeouts","inputs":[{"name":"host","type":"address","internalType":"contract IIsmpHost"},{"name":"message","type":"tuple","internalType":"struct PostRequestTimeoutMessage","components":[{"name":"timeouts","type":"tuple[]","internalType":"struct PostRequest[]","components":[{"name":"source","type":"bytes","internalType":"bytes"},{"name":"dest","type":"bytes","internalType":"bytes"},{"name":"nonce","type":"uint64","internalType":"uint64"},{"name":"from","type":"bytes","internalType":"bytes"},{"name":"to","type":"bytes","internalType":"bytes"},{"name":"timeoutTimestamp","type":"uint64","internalType":"uint64"},{"name":"body","type":"bytes","internalType":"bytes"},{"name":"gaslimit","type":"uint64","internalType":"uint64"}]},{"name":"height","type":"tuple","internalType":"struct StateMachineHeight","components":[{"name":"stateMachineId","type":"uint256","internalType":"uint256"},{"name":"height","type":"uint256","internalType":"uint256"}]},{"name":"proof","type":"bytes[]","internalType":"bytes[]"}]}],"outputs":[],"stateMutability":"nonpayable"},{"type":"function","name":"handlePostRequests","inputs":[{"name":"host","type":"address","internalType":"contract IIsmpHost"},{"name":"request","type":"tuple","internalType":"struct PostRequestMessage","components":[{"name":"proof","type":"tuple","internalType":"struct Proof","components":[{"name":"height","type":"tuple","internalType":"struct StateMachineHeight","components":[{"name":"stateMachineId","type":"uint256","internalType":"uint256"},{"name":"height","type":"uint256","internalType":"uint256"}]},{"name":"multiproof","type":"bytes32[]","internalType":"bytes32[]"},{"name":"leafCount","type":"uint256","internalType":"uint256"}]},{"name":"requests","type":"tuple[]","internalType":"struct PostRequestLeaf[]","components":[{"name":"request","type":"tuple","internalType":"struct PostRequest","components":[{"name":"source","type":"bytes","internalType":"bytes"},{"name":"dest","type":"bytes","internalType":"bytes"},{"name":"nonce","type":"uint64","internalType":"uint64"},{"name":"from","type":"bytes","internalType":"bytes"},{"name":"to","type":"bytes","internalType":"bytes"},{"name":"timeoutTimestamp","type":"uint64","internalType":"uint64"},{"name":"body","type":"bytes","internalType":"bytes"},{"name":"gaslimit","type":"uint64","internalType":"uint64"}]},{"name":"index","type":"uint256","internalType":"uint256"},{"name":"kIndex","type":"uint256","internalType":"uint256"}]}]}],"outputs":[],"stateMutability":"nonpayable"},{"type":"function","name":"handlePostResponseTimeouts","inputs":[{"name":"host","type":"address","internalType":"contract IIsmpHost"},{"name":"message","type":"tuple","internalType":"struct PostResponseTimeoutMessage","components":[{"name":"timeouts","type":"tuple[]","internalType":"struct PostResponse[]","components":[{"name":"request","type":"tuple","internalType":"struct PostRequest","components":[{"name":"source","type":"bytes","internalType":"bytes"},{"name":"dest","type":"bytes","internalType":"bytes"},{"name":"nonce","type":"uint64","internalType":"uint64"},{"name":"from","type":"bytes","internalType":"bytes"},{"name":"to","type":"bytes","internalType":"bytes"},{"name":"timeoutTimestamp","type":"uint64","internalType":"uint64"},{"name":"body","type":"bytes","internalType":"bytes"},{"name":"gaslimit","type":"uint64","internalType":"uint64"}]},{"name":"response","type":"bytes","internalType":"bytes"},{"name":"timeoutTimestamp","type":"uint64","internalType":"uint64"},{"name":"gaslimit","type":"uint64","internalType":"uint64"}]},{"name":"height","type":"tuple","internalType":"struct StateMachineHeight","components":[{"name":"stateMachineId","type":"uint256","internalType":"uint256"},{"name":"height","type":"uint256","internalType":"uint256"}]},{"name":"proof","type":"bytes[]","internalType":"bytes[]"}]}],"outputs":[],"stateMutability":"nonpayable"},{"type":"function","name":"handlePostResponses","inputs":[{"name":"host","type":"address","internalType":"contract IIsmpHost"},{"name":"response","type":"tuple","internalType":"struct PostResponseMessage","components":[{"name":"proof","type":"tuple","internalType":"struct Proof","components":[{"name":"height","type":"tuple","internalType":"struct StateMachineHeight","components":[{"name":"stateMachineId","type":"uint256","internalType":"uint256"},{"name":"height","type":"uint256","internalType":"uint256"}]},{"name":"multiproof","type":"bytes32[]","internalType":"bytes32[]"},{"name":"leafCount","type":"uint256","internalType":"uint256"}]},{"name":"responses","type":"tuple[]","internalType":"struct PostResponseLeaf[]","components":[{"name":"response","type":"tuple","internalType":"struct PostResponse","components":[{"name":"request","type":"tuple","internalType":"struct PostRequest","components":[{"name":"source","type":"bytes","internalType":"bytes"},{"name":"dest","type":"bytes","internalType":"bytes"},{"name":"nonce","type":"uint64","internalType":"uint64"},{"name":"from","type":"bytes","internalType":"bytes"},{"name":"to","type":"bytes","internalType":"bytes"},{"name":"timeoutTimestamp","type":"uint64","internalType":"uint64"},{"name":"body","type":"bytes","internalType":"bytes"},{"name":"gaslimit","type":"uint64","internalType":"uint64"}]},{"name":"response","type":"bytes","internalType":"bytes"},{"name":"timeoutTimestamp","type":"uint64","internalType":"uint64"},{"name":"gaslimit","type":"uint64","internalType":"uint64"}]},{"name":"index","type":"uint256","internalType":"uint256"},{"name":"kIndex","type":"uint256","internalType":"uint256"}]}]}],"outputs":[],"stateMutability":"nonpayable"},{"type":"event","name":"StateMachineUpdated","inputs":[{"name":"stateMachineId","type":"uint256","indexed":false,"internalType":"uint256"},{"name":"height","type":"uint256","indexed":false,"internalType":"uint256"}],"anonymous":false}],"bytecode":{"object":"0x608060405234801561001057600080fd5b506146d0806100206000396000f3fe608060405234801561001057600080fd5b506004361061007d5760003560e01c8063873ce1ce1161005b578063873ce1ce146100bd578063ab314e94146100d0578063bb1689be146100e3578063fda626c3146100f657600080fd5b806313448c41146100825780631d914e8b146100975780632b12a5e2146100aa575b600080fd5b61009561009036600461319b565b610109565b005b6100956100a5366004613426565b610714565b6100956100b8366004613701565b610e5a565b6100956100cb366004613798565b611102565b6100956100de36600461384f565b61174f565b6100956100f136600461392b565b611d4a565b61009561010436600461397a565b612499565b81806001600160a01b031663054f7d9c6040518163ffffffff1660e01b81526004016020604051808303816000875af115801561014a573d6000803e3d6000fd5b505050506040513d601f19601f8201168201806040525081019061016e9190613ac3565b156101945760405162461bcd60e51b815260040161018b90613aec565b60405180910390fd5b6020820151604051631a880a9360e01b81526000916001600160a01b03861691631a880a93916101c691600401613b16565b6020604051808303816000875af11580156101e5573d6000803e3d6000fd5b505050506040513d601f19601f820116820180604052508101906102099190613b2d565b846001600160a01b031663b80777ea6040518163ffffffff1660e01b81526004016020604051808303816000875af1158015610249573d6000803e3d6000fd5b505050506040513d601f19601f8201168201806040525081019061026d9190613b2d565b6102779190613b5c565b9050836001600160a01b031663f3f480d96040518163ffffffff1660e01b81526004016020604051808303816000875af11580156102b9573d6000803e3d6000fd5b505050506040513d601f19601f820116820180604052508101906102dd9190613b2d565b81116102fb5760405162461bcd60e51b815260040161018b90613b6f565b602083015160405163a70a8c4760e01b81526000916001600160a01b0387169163a70a8c479161032d91600401613b16565b6060604051808303816000875af115801561034c573d6000803e3d6000fd5b505050506040513d601f19601f820116820180604052508101906103709190613bec565b60408101519091506103945760405162461bcd60e51b815260040161018b90613c08565b83515160005b8181101561070b576000866000015182815181106103ba576103ba613c50565b602002602001015190506103cd81612be8565b6001600160401b03168460000151116104205760405162461bcd60e51b815260206004820152601560248201527414995c5d595cdd081b9bdd081d1a5b5959081bdd5d605a1b604482015260640161018b565b600061042b82612c1a565b604051630da2fd1960e21b8152600481018290529091506000906001600160a01b038b169063368bf4649060240160408051808303816000875af1158015610477573d6000803e3d6000fd5b505050506040513d601f19601f8201168201806040525081019061049b9190613c66565b60208101519091506001600160a01b03166104c85760405162461bcd60e51b815260040161018b90613c9e565b604080516001808252818301909252600091816020015b60608152602001906001900390816104df57505060408051808201825260208082527f103895530afb23bb607661426d55eb8b0484aecefe882c3ce64e6f82507f715a818301528251908101879052929350910160408051601f19818403018152908290526105519291602001613cf9565b60405160208183030381529060405281868151811061057257610572613c50565b6020026020010181905250600073__$3557184f57f01f44bdc1609b323054fd0c$__631475ff4589604001518d60400151856040518463ffffffff1660e01b81526004016105c293929190613da9565b600060405180830381865af41580156105df573d6000803e3d6000fd5b505050506040513d6000823e601f3d908101601f191682016040526106079190810190613e2b565b60008151811061061957610619613c50565b6020026020010151905061067560006001600160401b0381111561063f5761063f612e66565b6040519080825280601f01601f191660200182016040528015610669576020820181803683370190505b50602083015190612c33565b6106915760405162461bcd60e51b815260040161018b90613f36565b60405163059e186760e21b81526001600160a01b038d1690631678619c906106c190889087908990600401614055565b600060405180830381600087803b1580156106db57600080fd5b505af11580156106ef573d6000803e3d6000fd5b505050505050505050808061070390614098565b91505061039a565b50505050505050565b81806001600160a01b031663054f7d9c6040518163ffffffff1660e01b81526004016020604051808303816000875af1158015610755573d6000803e3d6000fd5b505050506040513d601f19601f820116820180604052508101906107799190613ac3565b156107965760405162461bcd60e51b815260040161018b90613aec565b815151604051631a880a9360e01b81526000916001600160a01b03861691631a880a93916107c691600401613b16565b6020604051808303816000875af11580156107e5573d6000803e3d6000fd5b505050506040513d601f19601f820116820180604052508101906108099190613b2d565b846001600160a01b031663b80777ea6040518163ffffffff1660e01b81526004016020604051808303816000875af1158015610849573d6000803e3d6000fd5b505050506040513d601f19601f8201168201806040525081019061086d9190613b2d565b6108779190613b5c565b9050836001600160a01b031663f3f480d96040518163ffffffff1660e01b81526004016020604051808303816000875af11580156108b9573d6000803e3d6000fd5b505050506040513d601f19601f820116820180604052508101906108dd9190613b2d565b81116108fb5760405162461bcd60e51b815260040161018b90613b6f565b6020830151516000816001600160401b0381111561091b5761091b612e66565b60405190808252806020026020018201604052801561096657816020015b60408051606081018252600080825260208083018290529282015282526000199092019101816109395790505b50905060005b82811015610c3a5760008660200151828151811061098c5761098c613c50565b60200260200101519050876001600160a01b031663b80777ea6040518163ffffffff1660e01b81526004016020604051808303816000875af11580156109d6573d6000803e3d6000fd5b505050506040513d601f19601f820116820180604052508101906109fa9190613b2d565b8151610a0590612c60565b6001600160401b031611610a5b5760405162461bcd60e51b815260206004820152601c60248201527f4948616e646c65723a20526573706f6e73652074696d6564206f757400000000604482015260640161018b565b805151600090610a6a90612c1a565b604051630da2fd1960e21b8152600481018290529091506000906001600160a01b038b169063368bf4649060240160408051808303816000875af1158015610ab6573d6000803e3d6000fd5b505050506040513d601f19601f82011682018060405250810190610ada9190613c66565b60208101519091506001600160a01b0316610b075760405162461bcd60e51b815260040161018b90613c9e565b60405163442b19bf60e11b8152600481018390526000906001600160a01b038c1690638856337e9060240160408051808303816000875af1158015610b50573d6000803e3d6000fd5b505050506040513d601f19601f82011682018060405250810190610b749190613c66565b602001516001600160a01b031614610bd85760405162461bcd60e51b815260206004820152602160248201527f4948616e646c65723a204475706c696361746520506f737420726573706f6e736044820152606560f81b606482015260840161018b565b60405180606001604052808460400151815260200184602001518152602001610c048560000151612c8d565b815250858581518110610c1957610c19613c50565b60200260200101819052505050508080610c3290614098565b91505061096c565b5084515160405163a70a8c4760e01b81526000916001600160a01b0389169163a70a8c4791610c6b91600401613b16565b6060604051808303816000875af1158015610c8a573d6000803e3d6000fd5b505050506040513d601f19601f82011682018060405250810190610cae9190613bec565b60200151905080610cd15760405162461bcd60e51b815260040161018b906140b1565b85516020810151604091820151915163722e206d60e01b815273__$2399d33eab5707eb5118077f9c67419cb4$__9263722e206d92610d1692869288916004016140f2565b602060405180830381865af4158015610d33573d6000803e3d6000fd5b505050506040513d601f19601f82011682018060405250810190610d579190613ac3565b610dad5760405162461bcd60e51b815260206004820152602160248201527f4948616e646c65723a20496e76616c696420726573706f6e73652070726f6f666044820152607360f81b606482015260840161018b565b60005b83811015610e5057600087602001518281518110610dd057610dd0613c50565b60200260200101519050886001600160a01b0316634f5b258a82600001516040518263ffffffff1660e01b8152600401610e0a91906141f8565b600060405180830381600087803b158015610e2457600080fd5b505af1158015610e38573d6000803e3d6000fd5b50505050508080610e4890614098565b915050610db0565b5050505050505050565b81806001600160a01b031663054f7d9c6040518163ffffffff1660e01b81526004016020604051808303816000875af1158015610e9b573d6000803e3d6000fd5b505050506040513d601f19601f82011682018060405250810190610ebf9190613ac3565b15610edc5760405162461bcd60e51b815260040161018b90613aec565b81515160005b818110156110fb57600084600001518281518110610f0257610f02613c50565b602002602001015190506000610f1782612cf8565b604051630da2fd1960e21b8152600481018290529091506000906001600160a01b0389169063368bf4649060240160408051808303816000875af1158015610f63573d6000803e3d6000fd5b505050506040513d601f19601f82011682018060405250810190610f879190613c66565b60208101519091506001600160a01b0316610fb45760405162461bcd60e51b815260040161018b90613c9e565b610fbd83612dca565b6001600160401b0316886001600160a01b031663b80777ea6040518163ffffffff1660e01b81526004016020604051808303816000875af1158015611006573d6000803e3d6000fd5b505050506040513d601f19601f8201168201806040525081019061102a9190613b2d565b116110835760405162461bcd60e51b815260206004820152602360248201527f4948616e646c65723a204745542072657175657374206e6f742074696d6564206044820152621bdd5d60ea1b606482015260840161018b565b6040516309cc21c360e01b81526001600160a01b038916906309cc21c3906110b3908690859087906004016142dd565b600060405180830381600087803b1580156110cd57600080fd5b505af11580156110e1573d6000803e3d6000fd5b5050505050505080806110f390614098565b915050610ee2565b5050505050565b81806001600160a01b031663054f7d9c6040518163ffffffff1660e01b81526004016020604051808303816000875af1158015611143573d6000803e3d6000fd5b505050506040513d601f19601f820116820180604052508101906111679190613ac3565b156111845760405162461bcd60e51b815260040161018b90613aec565b6020820151604051631a880a9360e01b81526000916001600160a01b03861691631a880a93916111b691600401613b16565b6020604051808303816000875af11580156111d5573d6000803e3d6000fd5b505050506040513d601f19601f820116820180604052508101906111f99190613b2d565b846001600160a01b031663b80777ea6040518163ffffffff1660e01b81526004016020604051808303816000875af1158015611239573d6000803e3d6000fd5b505050506040513d601f19601f8201168201806040525081019061125d9190613b2d565b6112679190613b5c565b9050836001600160a01b031663f3f480d96040518163ffffffff1660e01b81526004016020604051808303816000875af11580156112a9573d6000803e3d6000fd5b505050506040513d601f19601f820116820180604052508101906112cd9190613b2d565b81116112eb5760405162461bcd60e51b815260040161018b90613b6f565b602083015160405163a70a8c4760e01b81526000916001600160a01b0387169163a70a8c479161131d91600401613b16565b6060604051808303816000875af115801561133c573d6000803e3d6000fd5b505050506040513d601f19601f820116820180604052508101906113609190613bec565b604001519050806113835760405162461bcd60e51b815260040161018b906140b1565b604084015151845160005b82811015610e50576000876040015182815181106113ae576113ae613c50565b60200260200101519050886001600160a01b031663b80777ea6040518163ffffffff1660e01b81526004016020604051808303816000875af11580156113f8573d6000803e3d6000fd5b505050506040513d601f19601f8201168201806040525081019061141c9190613b2d565b61142582612dca565b6001600160401b03161161147b5760405162461bcd60e51b815260206004820152601f60248201527f4948616e646c65723a2047455420726571756573742074696d6564206f757400604482015260640161018b565b600061148682612cf8565b604051630da2fd1960e21b8152600481018290529091506000906001600160a01b038c169063368bf4649060240160408051808303816000875af11580156114d2573d6000803e3d6000fd5b505050506040513d601f19601f820116820180604052508101906114f69190613c66565b60208101519091506001600160a01b03166115535760405162461bcd60e51b815260206004820152601d60248201527f4948616e646c65723a20556e6b6e6f776e204745542072657175657374000000604482015260640161018b565b60405163442b19bf60e11b8152600481018390526000906001600160a01b038d1690638856337e9060240160408051808303816000875af115801561159c573d6000803e3d6000fd5b505050506040513d601f19601f820116820180604052508101906115c09190613c66565b602001516001600160a01b03161461161a5760405162461bcd60e51b815260206004820181905260248201527f4948616e646c65723a204475706c69636174652047455420726573706f6e7365604482015260640161018b565b600073__$3557184f57f01f44bdc1609b323054fd0c$__6355028f6f89888760a001518760405160200161165091815260200190565b6040516020818303038152906040526040518563ffffffff1660e01b815260040161167e94939291906142f0565b600060405180830381865af415801561169b573d6000803e3d6000fd5b505050506040513d6000823e601f3d908101601f191682016040526116c39190810190613e2b565b60408051808201825286815260208101839052905163f073609160e01b8152919250906001600160a01b038e169063f07360919061170590849060040161433a565b600060405180830381600087803b15801561171f57600080fd5b505af1158015611733573d6000803e3d6000fd5b505050505050505050808061174790614098565b91505061138e565b81806001600160a01b031663054f7d9c6040518163ffffffff1660e01b81526004016020604051808303816000875af1158015611790573d6000803e3d6000fd5b505050506040513d601f19601f820116820180604052508101906117b49190613ac3565b156117d15760405162461bcd60e51b815260040161018b90613aec565b6020820151604051631a880a9360e01b81526000916001600160a01b03861691631a880a939161180391600401613b16565b6020604051808303816000875af1158015611822573d6000803e3d6000fd5b505050506040513d601f19601f820116820180604052508101906118469190613b2d565b846001600160a01b031663b80777ea6040518163ffffffff1660e01b81526004016020604051808303816000875af1158015611886573d6000803e3d6000fd5b505050506040513d601f19601f820116820180604052508101906118aa9190613b2d565b6118b49190613b5c565b9050836001600160a01b031663f3f480d96040518163ffffffff1660e01b81526004016020604051808303816000875af11580156118f6573d6000803e3d6000fd5b505050506040513d601f19601f8201168201806040525081019061191a9190613b2d565b81116119385760405162461bcd60e51b815260040161018b90613b6f565b602083015160405163a70a8c4760e01b81526000916001600160a01b0387169163a70a8c479161196a91600401613b16565b6060604051808303816000875af1158015611989573d6000803e3d6000fd5b505050506040513d601f19601f820116820180604052508101906119ad9190613bec565b60408101519091506119d15760405162461bcd60e51b815260040161018b90613c08565b83515160005b8181101561070b576000866000015182815181106119f7576119f7613c50565b60200260200101519050611a0a81612c60565b6001600160401b0316846000015111611a655760405162461bcd60e51b815260206004820181905260248201527f4948616e646c65723a20526573706f6e7365206e6f742074696d6564206f7574604482015260640161018b565b6000611a7082612c8d565b604051632211f1dd60e01b8152600481018290529091506000906001600160a01b038b1690632211f1dd9060240160408051808303816000875af1158015611abc573d6000803e3d6000fd5b505050506040513d601f19601f82011682018060405250810190611ae09190613c66565b60208101519091506001600160a01b0316611b3d5760405162461bcd60e51b815260206004820152601a60248201527f4948616e646c65723a20556e6b6e6f776e20726573706f6e7365000000000000604482015260640161018b565b604080516001808252818301909252600091816020015b6060815260200190600190039081611b5457505060408051808201825260208082527f103895530afb23bb607661426d55eb8b554b72b7162725f9457d35ecafb8b02f818301528251908101879052929350910160408051601f1981840301815290829052611bc69291602001613cf9565b604051602081830303815290604052818681518110611be757611be7613c50565b6020026020010181905250600073__$3557184f57f01f44bdc1609b323054fd0c$__631475ff4589604001518d60400151856040518463ffffffff1660e01b8152600401611c3793929190613da9565b600060405180830381865af4158015611c54573d6000803e3d6000fd5b505050506040513d6000823e601f3d908101601f19168201604052611c7c9190810190613e2b565b600081518110611c8e57611c8e613c50565b60200260200101519050611cb460006001600160401b0381111561063f5761063f612e66565b611cd05760405162461bcd60e51b815260040161018b90613f36565b604051633a57219b60e21b81526001600160a01b038d169063e95c866c90611d00908890879089906004016143e0565b600060405180830381600087803b158015611d1a57600080fd5b505af1158015611d2e573d6000803e3d6000fd5b5050505050505050508080611d4290614098565b9150506119d7565b81806001600160a01b031663054f7d9c6040518163ffffffff1660e01b81526004016020604051808303816000875af1158015611d8b573d6000803e3d6000fd5b505050506040513d601f19601f82011682018060405250810190611daf9190613ac3565b15611dcc5760405162461bcd60e51b815260040161018b90613aec565b6000836001600160a01b0316639a8425bc6040518163ffffffff1660e01b81526004016020604051808303816000875af1158015611e0e573d6000803e3d6000fd5b505050506040513d601f19601f82011682018060405250810190611e329190613b2d565b846001600160a01b031663b80777ea6040518163ffffffff1660e01b81526004016020604051808303816000875af1158015611e72573d6000803e3d6000fd5b505050506040513d601f19601f82011682018060405250810190611e969190613b2d565b611ea09190613b5c565b9050836001600160a01b031663d40784c76040518163ffffffff1660e01b81526004016020604051808303816000875af1158015611ee2573d6000803e3d6000fd5b505050506040513d601f19601f82011682018060405250810190611f069190613b2d565b811080611f875750836001600160a01b031663f851a4406040518163ffffffff1660e01b81526004016020604051808303816000875af1158015611f4e573d6000803e3d6000fd5b505050506040513d601f19601f82011682018060405250810190611f7291906143f3565b6001600160a01b0316336001600160a01b0316145b611fa35760405162461bcd60e51b815260040161018b90613b6f565b600080856001600160a01b0316632476132b6040518163ffffffff1660e01b81526004016020604051808303816000875af1158015611fe6573d6000803e3d6000fd5b505050506040513d601f19601f8201168201806040525081019061200a91906143f3565b6001600160a01b0316637d755598876001600160a01b031663bbad99d46040518163ffffffff1660e01b81526004016000604051808303816000875af1158015612058573d6000803e3d6000fd5b505050506040513d6000823e601f3d908101601f191682016040526120809190810190614410565b876040518363ffffffff1660e01b815260040161209e929190614444565b6000604051808303816000875af11580156120bd573d6000803e3d6000fd5b505050506040513d6000823e601f3d908101601f191682016040526120e59190810190614472565b604051630b4974cf60e41b815291935091506001600160a01b0387169063b4974cf0906121169085906004016144f4565b600060405180830381600087803b15801561213057600080fd5b505af1158015612144573d6000803e3d6000fd5b50505050856001600160a01b031663d860cb47876001600160a01b031663b80777ea6040518163ffffffff1660e01b81526004016020604051808303816000875af1158015612197573d6000803e3d6000fd5b505050506040513d601f19601f820116820180604052508101906121bb9190613b2d565b6040518263ffffffff1660e01b81526004016121d991815260200190565b600060405180830381600087803b1580156121f357600080fd5b505af1158015612207573d6000803e3d6000fd5b50505050856001600160a01b03166356b655976040518163ffffffff1660e01b81526004016020604051808303816000875af115801561224b573d6000803e3d6000fd5b505050506040513d601f19601f8201168201806040525081019061226f9190613b2d565b816020015111156124915760408051808201825282518152602080840151818301908152848401518451632acf7f4f60e11b81528451600482015291516024830152805160448301529182015160648201529201516084830152906001600160a01b0388169063559efe9e9060a401600060405180830381600087803b1580156122f857600080fd5b505af115801561230c573d6000803e3d6000fd5b50505050866001600160a01b03166314863dcb82896001600160a01b031663b80777ea6040518163ffffffff1660e01b81526004016020604051808303816000875af1158015612360573d6000803e3d6000fd5b505050506040513d601f19601f820116820180604052508101906123849190613b2d565b6040516001600160e01b031960e085901b1681528251600482015260209092015160248301526044820152606401600060405180830381600087803b1580156123cc57600080fd5b505af11580156123e0573d6000803e3d6000fd5b505050602082015160405163a0756ecd60e01b81526001600160a01b038a16925063a0756ecd916124179160040190815260200190565b600060405180830381600087803b15801561243157600080fd5b505af1158015612445573d6000803e3d6000fd5b5050825160208401516040517ff12a80290a43822c9acabb2a766d41728f06fe4c0497e4a7bb3f54292e4cb0da94506124879350918252602082015260400190565b60405180910390a1505b505050505050565b81806001600160a01b031663054f7d9c6040518163ffffffff1660e01b81526004016020604051808303816000875af11580156124da573d6000803e3d6000fd5b505050506040513d601f19601f820116820180604052508101906124fe9190613ac3565b1561251b5760405162461bcd60e51b815260040161018b90613aec565b815151604051631a880a9360e01b81526000916001600160a01b03861691631a880a939161254b91600401613b16565b6020604051808303816000875af115801561256a573d6000803e3d6000fd5b505050506040513d601f19601f8201168201806040525081019061258e9190613b2d565b846001600160a01b031663b80777ea6040518163ffffffff1660e01b81526004016020604051808303816000875af11580156125ce573d6000803e3d6000fd5b505050506040513d601f19601f820116820180604052508101906125f29190613b2d565b6125fc9190613b5c565b9050836001600160a01b031663f3f480d96040518163ffffffff1660e01b81526004016020604051808303816000875af115801561263e573d6000803e3d6000fd5b505050506040513d601f19601f820116820180604052508101906126629190613b2d565b81116126805760405162461bcd60e51b815260040161018b90613b6f565b6020830151516000816001600160401b038111156126a0576126a0612e66565b6040519080825280602002602001820160405280156126eb57816020015b60408051606081018252600080825260208083018290529282015282526000199092019101816126be5790505b50905060005b828110156129dc5760008660200151828151811061271157612711613c50565b60200260200101519050612792886001600160a01b031663f437bc596040518163ffffffff1660e01b81526004016000604051808303816000875af115801561275e573d6000803e3d6000fd5b505050506040513d6000823e601f3d908101601f191682016040526127869190810190614410565b82516020015190612c33565b6127ec5760405162461bcd60e51b815260206004820152602560248201527f4948616e646c65723a20496e76616c696420726571756573742064657374696e60448201526430ba34b7b760d91b606482015260840161018b565b876001600160a01b031663b80777ea6040518163ffffffff1660e01b81526004016020604051808303816000875af115801561282c573d6000803e3d6000fd5b505050506040513d601f19601f820116820180604052508101906128509190613b2d565b815161285b90612be8565b6001600160401b0316116128b15760405162461bcd60e51b815260206004820152601b60248201527f4948616e646c65723a20526571756573742074696d6564206f75740000000000604482015260640161018b565b60006128c08260000151612c1a565b604051630cb33d1f60e11b8152600481018290529091506000906001600160a01b038b16906319667a3e906024016020604051808303816000875af115801561290d573d6000803e3d6000fd5b505050506040513d601f19601f8201168201806040525081019061293191906143f3565b6001600160a01b0316146129875760405162461bcd60e51b815260206004820152601b60248201527f4948616e646c65723a204475706c696361746520726571756573740000000000604482015260640161018b565b60405180606001604052808360400151815260200183602001518152602001828152508484815181106129bc576129bc613c50565b6020026020010181905250505080806129d490614098565b9150506126f1565b5084515160405163a70a8c4760e01b81526000916001600160a01b0389169163a70a8c4791612a0d91600401613b16565b6060604051808303816000875af1158015612a2c573d6000803e3d6000fd5b505050506040513d601f19601f82011682018060405250810190612a509190613bec565b60200151905080612a735760405162461bcd60e51b815260040161018b906140b1565b85516020810151604091820151915163722e206d60e01b815273__$2399d33eab5707eb5118077f9c67419cb4$__9263722e206d92612ab892869288916004016140f2565b602060405180830381865af4158015612ad5573d6000803e3d6000fd5b505050506040513d601f19601f82011682018060405250810190612af99190613ac3565b612b455760405162461bcd60e51b815260206004820181905260248201527f4948616e646c65723a20496e76616c696420726571756573742070726f6f6673604482015260640161018b565b60005b83811015610e5057600087602001518281518110612b6857612b68613c50565b60200260200101519050886001600160a01b0316633b8c2bf782600001516040518263ffffffff1660e01b8152600401612ba29190614507565b600060405180830381600087803b158015612bbc57600080fd5b505af1158015612bd0573d6000803e3d6000fd5b50505050508080612be090614098565b915050612b48565b60008160a001516001600160401b0316600003612c0d57506001600160401b03919050565b5060a0015190565b919050565b6000612c2582612df7565b805190602001209050919050565b60008151835114612c4657506000612c5a565b508151602082810182902090840191909120145b92915050565b600081604001516001600160401b0316600003612c8557506001600160401b03919050565b506040015190565b6000612c9c8260000151612df7565b826020015183604001518460600151604051602001612cbd9392919061451a565b60408051601f1981840301815290829052612cdb9291602001613cf9565b604051602081830303815290604052805190602001209050919050565b6040805160208101909152600080825260a083015151909190825b81811015612d6f57828560a001518281518110612d3257612d32613c50565b6020026020010151604051602001612d4b929190613cf9565b60405160208183030381529060405292508080612d6790614098565b915050612d13565b508360000151846020015185604001518660c0015187608001518860600151878a60e00151604051602001612dab989796959493929190614556565b6040516020818303038152906040528051906020012092505050919050565b600081608001516001600160401b0316600003612def57506001600160401b03919050565b506080015190565b60608160000151826020015183604001518460a00151856060015186608001518760c001518860e00151604051602001612e389897969594939291906145f2565b6040516020818303038152906040529050919050565b6001600160a01b0381168114612e6357600080fd5b50565b634e487b7160e01b600052604160045260246000fd5b60405161010081016001600160401b0381118282101715612e9f57612e9f612e66565b60405290565b604080519081016001600160401b0381118282101715612e9f57612e9f612e66565b604051606081016001600160401b0381118282101715612e9f57612e9f612e66565b604051601f8201601f191681016001600160401b0381118282101715612f1157612f11612e66565b604052919050565b60006001600160401b03821115612f3257612f32612e66565b5060051b60200190565b60006001600160401b03821115612f5557612f55612e66565b50601f01601f191660200190565b600082601f830112612f7457600080fd5b8135612f87612f8282612f3c565b612ee9565b818152846020838601011115612f9c57600080fd5b816020850160208301376000918101602001919091529392505050565b80356001600160401b0381168114612c1557600080fd5b60006101008284031215612fe357600080fd5b612feb612e7c565b905081356001600160401b038082111561300457600080fd5b61301085838601612f63565b8352602084013591508082111561302657600080fd5b61303285838601612f63565b602084015261304360408501612fb9565b6040840152606084013591508082111561305c57600080fd5b61306885838601612f63565b6060840152608084013591508082111561308157600080fd5b61308d85838601612f63565b608084015261309e60a08501612fb9565b60a084015260c08401359150808211156130b757600080fd5b506130c484828501612f63565b60c0830152506130d660e08301612fb9565b60e082015292915050565b6000604082840312156130f357600080fd5b6130fb612ea5565b9050813581526020820135602082015292915050565b600082601f83011261312257600080fd5b81356020613132612f8283612f19565b82815260059290921b8401810191818101908684111561315157600080fd5b8286015b848110156131905780356001600160401b038111156131745760008081fd5b6131828986838b0101612f63565b845250918301918301613155565b509695505050505050565b600080604083850312156131ae57600080fd5b82356131b981612e4e565b91506020838101356001600160401b03808211156131d657600080fd5b90850190608082880312156131ea57600080fd5b6131f2612ec7565b82358281111561320157600080fd5b8301601f8101891361321257600080fd5b8035613220612f8282612f19565b81815260059190911b8201860190868101908b83111561323f57600080fd5b8784015b838110156132775780358781111561325b5760008081fd5b6132698e8b83890101612fd0565b845250918801918801613243565b508085525050505061328b888585016130e1565b8482015260608301359350818411156132a357600080fd5b6132af88858501613111565b6040820152809450505050509250929050565b6000608082840312156132d457600080fd5b6132dc612ec7565b90506132e883836130e1565b815260408201356001600160401b0381111561330357600080fd5b8201601f8101841361331457600080fd5b80356020613324612f8283612f19565b82815260059290921b8301810191818101908784111561334357600080fd5b938201935b8385101561336157843582529382019390820190613348565b808387015250505050506060820135604082015292915050565b60006080828403121561338d57600080fd5b604051608081016001600160401b0382821081831117156133b0576133b0612e66565b8160405282935084359150808211156133c857600080fd5b6133d486838701612fd0565b835260208501359150808211156133ea57600080fd5b506133f785828601612f63565b60208301525061340960408401612fb9565b604082015261341a60608401612fb9565b60608201525092915050565b6000806040838503121561343957600080fd5b823561344481612e4e565b91506020838101356001600160401b038082111561346157600080fd5b908501906040828803121561347557600080fd5b61347d612ea5565b82358281111561348c57600080fd5b613498898286016132c2565b82525083830135828111156134ac57600080fd5b80840193505087601f8401126134c157600080fd5b82356134cf612f8282612f19565b81815260059190911b8401850190858101908a8311156134ee57600080fd5b8686015b8381101561356f5780358681111561350957600080fd5b87016060818e03601f190112156135205760008081fd5b613528612ec7565b898201358881111561353a5760008081fd5b6135488f8c8386010161337b565b8252506040828101358b8301526060909201359181019190915283529187019187016134f2565b508087850152505050809450505050509250929050565b600082601f83011261359757600080fd5b813560206135a7612f8283612f19565b82815260059290921b840181019181810190868411156135c657600080fd5b8286015b848110156131905780356001600160401b03808211156135ea5760008081fd5b90880190610100828b03601f19018113156136055760008081fd5b61360d612e7c565b878401358381111561361f5760008081fd5b61362d8d8a83880101612f63565b825250604080850135848111156136445760008081fd5b6136528e8b83890101612f63565b8a840152506060613664818701612fb9565b8284015260809150818601358581111561367e5760008081fd5b61368c8f8c838a0101612f63565b82850152505060a061369f818701612fb9565b8284015260c0915081860135858111156136b95760008081fd5b6136c78f8c838a0101613111565b82850152505060e093506136dc848601612fb9565b908201526136eb848301612fb9565b92810192909252508452509183019183016135ca565b6000806040838503121561371457600080fd5b823561371f81612e4e565b915060208301356001600160401b038082111561373b57600080fd5b908401906020828703121561374f57600080fd5b60405160208101818110838211171561376a5761376a612e66565b60405282358281111561377c57600080fd5b61378888828601613586565b8252508093505050509250929050565b600080604083850312156137ab57600080fd5b82356137b681612e4e565b915060208301356001600160401b03808211156137d257600080fd5b90840190608082870312156137e657600080fd5b6137ee612ec7565b8235828111156137fd57600080fd5b61380988828601613111565b82525061381987602085016130e1565b602082015260608301358281111561383057600080fd5b61383c88828601613586565b6040830152508093505050509250929050565b6000806040838503121561386257600080fd5b823561386d81612e4e565b91506020838101356001600160401b038082111561388a57600080fd5b908501906080828803121561389e57600080fd5b6138a6612ec7565b8235828111156138b557600080fd5b8301601f810189136138c657600080fd5b80356138d4612f8282612f19565b81815260059190911b8201860190868101908b8311156138f357600080fd5b8784015b838110156132775780358781111561390f5760008081fd5b61391d8e8b8389010161337b565b8452509188019188016138f7565b6000806040838503121561393e57600080fd5b823561394981612e4e565b915060208301356001600160401b0381111561396457600080fd5b61397085828601612f63565b9150509250929050565b6000806040838503121561398d57600080fd5b823561399881612e4e565b91506020838101356001600160401b03808211156139b557600080fd5b90850190604082880312156139c957600080fd5b6139d1612ea5565b8235828111156139e057600080fd5b6139ec898286016132c2565b8252508383013582811115613a0057600080fd5b80840193505087601f840112613a1557600080fd5b8235613a23612f8282612f19565b81815260059190911b8401850190858101908a831115613a4257600080fd5b8686015b8381101561356f57803586811115613a5d57600080fd5b87016060818e03601f19011215613a745760008081fd5b613a7c612ec7565b8982013588811115613a8e5760008081fd5b613a9c8f8c83860101612fd0565b8252506040828101358b830152606090920135918101919091528352918701918701613a46565b600060208284031215613ad557600080fd5b81518015158114613ae557600080fd5b9392505050565b60208082526010908201526f24a430b7323632b91d10333937bd32b760811b604082015260600190565b815181526020808301519082015260408101612c5a565b600060208284031215613b3f57600080fd5b5051919050565b634e487b7160e01b600052601160045260246000fd5b81810381811115612c5a57612c5a613b46565b60208082526023908201527f4948616e646c65723a207374696c6c20696e206368616c6c656e6765207065726040820152621a5bd960ea1b606082015260800190565b600060608284031215613bc457600080fd5b613bcc612ec7565b905081518152602082015160208201526040820151604082015292915050565b600060608284031215613bfe57600080fd5b613ae58383613bb2565b60208082526028908201527f4948616e646c65723a20537461746520436f6d6d69746d656e7420646f65736e60408201526709dd08195e1a5cdd60c21b606082015260800190565b634e487b7160e01b600052603260045260246000fd5b600060408284031215613c7857600080fd5b613c80612ea5565b825181526020830151613c9281612e4e565b60208201529392505050565b60208082526019908201527f4948616e646c65723a20556e6b6e6f776e207265717565737400000000000000604082015260600190565b60005b83811015613cf0578181015183820152602001613cd8565b50506000910152565b60008351613d0b818460208801613cd5565b835190830190613d1f818360208801613cd5565b01949350505050565b60008151808452613d40816020860160208601613cd5565b601f01601f19169290920160200192915050565b600081518084526020808501808196508360051b8101915082860160005b85811015613d9c578284038952613d8a848351613d28565b98850198935090840190600101613d72565b5091979650505050505050565b838152606060208201526000613dc26060830185613d54565b8281036040840152613dd48185613d54565b9695505050505050565b600082601f830112613def57600080fd5b8151613dfd612f8282612f3c565b818152846020838601011115613e1257600080fd5b613e23826020830160208701613cd5565b949350505050565b60006020808385031215613e3e57600080fd5b82516001600160401b0380821115613e5557600080fd5b818501915085601f830112613e6957600080fd5b8151613e77612f8282612f19565b81815260059190911b83018401908481019088831115613e9657600080fd5b8585015b83811015613f2957805185811115613eb25760008081fd5b86016040818c03601f1901811315613eca5760008081fd5b613ed2612ea5565b8983015188811115613ee45760008081fd5b613ef28e8c83870101613dde565b825250908201519087821115613f085760008081fd5b613f168d8b84860101613dde565b818b015285525050918601918601613e9a565b5098975050505050505050565b60208082526026908201527f4948616e646c65723a20496e76616c6964206e6f6e2d6d656d6265727368697060408201526510383937b7b360d11b606082015260800190565b60006101008251818552613f9282860182613d28565b91505060208301518482036020860152613fac8282613d28565b9150506040830151613fc960408601826001600160401b03169052565b5060608301518482036060860152613fe18282613d28565b91505060808301518482036080860152613ffb8282613d28565b91505060a083015161401860a08601826001600160401b03169052565b5060c083015184820360c08601526140308282613d28565b91505060e083015161404d60e08601826001600160401b03169052565b509392505050565b6080815260006140686080830186613f7c565b905061408a6020830185805182526020908101516001600160a01b0316910152565b826060830152949350505050565b6000600182016140aa576140aa613b46565b5060010190565b60208082526021908201527f4948616e646c65723a2050726f6f6620686569676874206e6f7420666f756e646040820152602160f81b606082015260800190565b600060808201868352602060808185015281875180845260a086019150828901935060005b8181101561413357845183529383019391830191600101614117565b505060409250848103838601528087518083528383019150838901925060005b818110156141825783518051845285810151868501528601518684015292840192606090920191600101614153565b50508094505050505082606083015295945050505050565b60008151608084526141af6080850182613f7c565b9050602083015184820360208601526141c88282613d28565b91505060408301516001600160401b03808216604087015280606086015116606087015250508091505092915050565b602081526000613ae5602083018461419a565b6000610100825181855261422182860182613d28565b9150506020830151848203602086015261423b8282613d28565b915050604083015161425860408601826001600160401b03169052565b50606083015184820360608601526142708282613d28565b915050608083015161428d60808601826001600160401b03169052565b5060a083015184820360a08601526142a58282613d54565b91505060c08301516142c260c08601826001600160401b03169052565b5060e083015161404d60e08601826001600160401b03169052565b608081526000614068608083018661420b565b8481526080602082015260006143096080830186613d54565b828103604084015261431b8186613d54565b9050828103606084015261432f8185613d28565b979650505050505050565b60006020808352835160408083860152614357606086018361420b565b83870151601f1987830381018489015281518084529294509085019184860190600581901b8601870160005b828110156143d15784888303018452855180518884526143a589850182613d28565b918b0151848303858d01529190506143bd8183613d28565b978b0197958b019593505050600101614383565b509a9950505050505050505050565b608081526000614068608083018661419a565b60006020828403121561440557600080fd5b8151613ae581612e4e565b60006020828403121561442257600080fd5b81516001600160401b0381111561443857600080fd5b613e2384828501613dde565b6040815260006144576040830185613d28565b82810360208401526144698185613d28565b95945050505050565b60008082840360c081121561448657600080fd5b83516001600160401b0381111561449c57600080fd5b6144a886828701613dde565b93505060a0601f19820112156144bd57600080fd5b506144c6612ec7565b60208401518152604084015160208201526144e48560608601613bb2565b6040820152809150509250929050565b602081526000613ae56020830184613d28565b602081526000613ae56020830184613f7c565b6000845161452c818460208901613cd5565b6001600160c01b031960c095861b8116919093019081529290931b16600882015260100192915050565b60008951614568818460208e01613cd5565b89519083019061457c818360208e01613cd5565b60c08a811b6001600160c01b03199081169390920192835289811b8216600884015288901b8116601083015286516145bb816018850160208b01613cd5565b86519201916145d1816018850160208a01613cd5565b60c09590951b16930160188101939093525050602001979650505050505050565b60008951614604818460208e01613cd5565b895190830190614618818360208e01613cd5565b60c08a811b6001600160c01b03199081169390920192835289901b81166008830152875161464d816010850160208c01613cd5565b8751920191614663816010850160208b01613cd5565b8651920191614679816010850160208a01613cd5565b60c09590951b1693016010810193909352505060180197965050505050505056fea26469706673582212209e33b935539407ef2599b2ef0ae3f0d0dc6823a238b341a42fb31308e65afff664736f6c63430008110033","linkReferences":{"lib/solidity-merkle-trees/src/MerkleMountainRange.sol":{"MerkleMountainRange":[{"start":3340,"length":20},{"start":10926,"length":20}]},"lib/solidity-merkle-trees/src/MerklePatricia.sol":{"MerklePatricia":[{"start":1441,"length":20},{"start":5694,"length":20},{"start":7190,"length":20}]}}},"methodIdentifiers":{"handleConsensus(address,bytes)":"bb1689be","handleGetRequestTimeouts(address,((bytes,bytes,uint64,bytes,uint64,bytes[],uint64,uint64)[]))":"2b12a5e2","handleGetResponses(address,(bytes[],(uint256,uint256),(bytes,bytes,uint64,bytes,uint64,bytes[],uint64,uint64)[]))":"873ce1ce","handlePostRequestTimeouts(address,((bytes,bytes,uint64,bytes,bytes,uint64,bytes,uint64)[],(uint256,uint256),bytes[]))":"13448c41","handlePostRequests(address,(((uint256,uint256),bytes32[],uint256),((bytes,bytes,uint64,bytes,bytes,uint64,bytes,uint64),uint256,uint256)[]))":"fda626c3","handlePostResponseTimeouts(address,(((bytes,bytes,uint64,bytes,bytes,uint64,bytes,uint64),bytes,uint64,uint64)[],(uint256,uint256),bytes[]))":"ab314e94","handlePostResponses(address,(((uint256,uint256),bytes32[],uint256),(((bytes,bytes,uint64,bytes,bytes,uint64,bytes,uint64),bytes,uint64,uint64),uint256,uint256)[]))":"1d914e8b"},"id":55}