{
  "abi": [
    {
      "type": "constructor",
      "inputs": [],
      "stateMutability": "nonpayable"
    },
    {
      "type": "function",
      "name": "GENESIS_CONFIG_NAME",
      "inputs": [],
      "outputs": [
        {
          "name": "",
          "type": "bytes32",
          "internalType": "bytes32"
        }
      ],
      "stateMutability": "view"
    },
    {
      "type": "function",
      "name": "addOpSuccinctConfig",
      "inputs": [
        {
          "name": "_configName",
          "type": "bytes32",
          "internalType": "bytes32"
        },
        {
          "name": "_rollupConfigHash",
          "type": "bytes32",
          "internalType": "bytes32"
        },
        {
          "name": "_aggregationVkey",
          "type": "bytes32",
          "internalType": "bytes32"
        },
        {
          "name": "_rangeVkeyCommitment",
          "type": "bytes32",
          "internalType": "bytes32"
        }
      ],
      "outputs": [],
      "stateMutability": "nonpayable"
    },
    {
      "type": "function",
      "name": "addProposer",
      "inputs": [
        {
          "name": "_proposer",
          "type": "address",
          "internalType": "address"
        }
      ],
      "outputs": [],
      "stateMutability": "nonpayable"
    },
    {
      "type": "function",
      "name": "aggregationVkey",
      "inputs": [],
      "outputs": [
        {
          "name": "",
          "type": "bytes32",
          "internalType": "bytes32"
        }
      ],
      "stateMutability": "view"
    },
    {
      "type": "function",
      "name": "approvedProposers",
      "inputs": [
        {
          "name": "",
          "type": "address",
          "internalType": "address"
        }
      ],
      "outputs": [
        {
          "name": "",
          "type": "bool",
          "internalType": "bool"
        }
      ],
      "stateMutability": "view"
    },
    {
      "type": "function",
      "name": "challenger",
      "inputs": [],
      "outputs": [
        {
          "name": "",
          "type": "address",
          "internalType": "address"
        }
      ],
      "stateMutability": "view"
    },
    {
      "type": "function",
      "name": "checkpointBlockHash",
      "inputs": [
        {
          "name": "_blockNumber",
          "type": "uint256",
          "internalType": "uint256"
        }
      ],
      "outputs": [],
      "stateMutability": "nonpayable"
    },
    {
      "type": "function",
      "name": "computeL2Timestamp",
      "inputs": [
        {
          "name": "_l2BlockNumber",
          "type": "uint256",
          "internalType": "uint256"
        }
      ],
      "outputs": [
        {
          "name": "",
          "type": "uint256",
          "internalType": "uint256"
        }
      ],
      "stateMutability": "view"
    },
    {
      "type": "function",
      "name": "deleteL2Outputs",
      "inputs": [
        {
          "name": "_l2OutputIndex",
          "type": "uint256",
          "internalType": "uint256"
        }
      ],
      "outputs": [],
      "stateMutability": "nonpayable"
    },
    {
      "type": "function",
      "name": "deleteOpSuccinctConfig",
      "inputs": [
        {
          "name": "_configName",
          "type": "bytes32",
          "internalType": "bytes32"
        }
      ],
      "outputs": [],
      "stateMutability": "nonpayable"
    },
    {
      "type": "function",
      "name": "dgfProposeL2Output",
      "inputs": [
        {
          "name": "_configName",
          "type": "bytes32",
          "internalType": "bytes32"
        },
        {
          "name": "_outputRoot",
          "type": "bytes32",
          "internalType": "bytes32"
        },
        {
          "name": "_l2BlockNumber",
          "type": "uint256",
          "internalType": "uint256"
        },
        {
          "name": "_l1BlockNumber",
          "type": "uint256",
          "internalType": "uint256"
        },
        {
          "name": "_proof",
          "type": "bytes",
          "internalType": "bytes"
        },
        {
          "name": "_proverAddress",
          "type": "address",
          "internalType": "address"
        }
      ],
      "outputs": [
        {
          "name": "_game",
          "type": "address",
          "internalType": "contract IDisputeGame"
        }
      ],
      "stateMutability": "payable"
    },
    {
      "type": "function",
      "name": "disableOptimisticMode",
      "inputs": [
        {
          "name": "_finalizationPeriodSeconds",
          "type": "uint256",
          "internalType": "uint256"
        }
      ],
      "outputs": [],
      "stateMutability": "nonpayable"
    },
    {
      "type": "function",
      "name": "disputeGameFactory",
      "inputs": [],
      "outputs": [
        {
          "name": "",
          "type": "address",
          "internalType": "address"
        }
      ],
      "stateMutability": "view"
    },
    {
      "type": "function",
      "name": "enableOptimisticMode",
      "inputs": [
        {
          "name": "_finalizationPeriodSeconds",
          "type": "uint256",
          "internalType": "uint256"
        }
      ],
      "outputs": [],
      "stateMutability": "nonpayable"
    },
    {
      "type": "function",
      "name": "fallbackTimeout",
      "inputs": [],
      "outputs": [
        {
          "name": "",
          "type": "uint256",
          "internalType": "uint256"
        }
      ],
      "stateMutability": "view"
    },
    {
      "type": "function",
      "name": "finalizationPeriodSeconds",
      "inputs": [],
      "outputs": [
        {
          "name": "",
          "type": "uint256",
          "internalType": "uint256"
        }
      ],
      "stateMutability": "view"
    },
    {
      "type": "function",
      "name": "getL2Output",
      "inputs": [
        {
          "name": "_l2OutputIndex",
          "type": "uint256",
          "internalType": "uint256"
        }
      ],
      "outputs": [
        {
          "name": "",
          "type": "tuple",
          "internalType": "struct Types.OutputProposal",
          "components": [
            {
              "name": "outputRoot",
              "type": "bytes32",
              "internalType": "bytes32"
            },
            {
              "name": "timestamp",
              "type": "uint128",
              "internalType": "uint128"
            },
            {
              "name": "l2BlockNumber",
              "type": "uint128",
              "internalType": "uint128"
            }
          ]
        }
      ],
      "stateMutability": "view"
    },
    {
      "type": "function",
      "name": "getL2OutputAfter",
      "inputs": [
        {
          "name": "_l2BlockNumber",
          "type": "uint256",
          "internalType": "uint256"
        }
      ],
      "outputs": [
        {
          "name": "",
          "type": "tuple",
          "internalType": "struct Types.OutputProposal",
          "components": [
            {
              "name": "outputRoot",
              "type": "bytes32",
              "internalType": "bytes32"
            },
            {
              "name": "timestamp",
              "type": "uint128",
              "internalType": "uint128"
            },
            {
              "name": "l2BlockNumber",
              "type": "uint128",
              "internalType": "uint128"
            }
          ]
        }
      ],
      "stateMutability": "view"
    },
    {
      "type": "function",
      "name": "getL2OutputIndexAfter",
      "inputs": [
        {
          "name": "_l2BlockNumber",
          "type": "uint256",
          "internalType": "uint256"
        }
      ],
      "outputs": [
        {
          "name": "",
          "type": "uint256",
          "internalType": "uint256"
        }
      ],
      "stateMutability": "view"
    },
    {
      "type": "function",
      "name": "historicBlockHashes",
      "inputs": [
        {
          "name": "",
          "type": "uint256",
          "internalType": "uint256"
        }
      ],
      "outputs": [
        {
          "name": "",
          "type": "bytes32",
          "internalType": "bytes32"
        }
      ],
      "stateMutability": "view"
    },
    {
      "type": "function",
      "name": "initialize",
      "inputs": [
        {
          "name": "_initParams",
          "type": "tuple",
          "internalType": "struct OPSuccinctL2OutputOracle.InitParams",
          "components": [
            {
              "name": "challenger",
              "type": "address",
              "internalType": "address"
            },
            {
              "name": "proposer",
              "type": "address",
              "internalType": "address"
            },
            {
              "name": "owner",
              "type": "address",
              "internalType": "address"
            },
            {
              "name": "finalizationPeriodSeconds",
              "type": "uint256",
              "internalType": "uint256"
            },
            {
              "name": "l2BlockTime",
              "type": "uint256",
              "internalType": "uint256"
            },
            {
              "name": "aggregationVkey",
              "type": "bytes32",
              "internalType": "bytes32"
            },
            {
              "name": "rangeVkeyCommitment",
              "type": "bytes32",
              "internalType": "bytes32"
            },
            {
              "name": "rollupConfigHash",
              "type": "bytes32",
              "internalType": "bytes32"
            },
            {
              "name": "startingOutputRoot",
              "type": "bytes32",
              "internalType": "bytes32"
            },
            {
              "name": "startingBlockNumber",
              "type": "uint256",
              "internalType": "uint256"
            },
            {
              "name": "startingTimestamp",
              "type": "uint256",
              "internalType": "uint256"
            },
            {
              "name": "submissionInterval",
              "type": "uint256",
              "internalType": "uint256"
            },
            {
              "name": "verifier",
              "type": "address",
              "internalType": "address"
            },
            {
              "name": "fallbackTimeout",
              "type": "uint256",
              "internalType": "uint256"
            }
          ]
        }
      ],
      "outputs": [],
      "stateMutability": "nonpayable"
    },
    {
      "type": "function",
      "name": "initializerVersion",
      "inputs": [],
      "outputs": [
        {
          "name": "",
          "type": "uint8",
          "internalType": "uint8"
        }
      ],
      "stateMutability": "view"
    },
    {
      "type": "function",
      "name": "isValidOpSuccinctConfig",
      "inputs": [
        {
          "name": "_config",
          "type": "tuple",
          "internalType": "struct OPSuccinctL2OutputOracle.OpSuccinctConfig",
          "components": [
            {
              "name": "aggregationVkey",
              "type": "bytes32",
              "internalType": "bytes32"
            },
            {
              "name": "rangeVkeyCommitment",
              "type": "bytes32",
              "internalType": "bytes32"
            },
            {
              "name": "rollupConfigHash",
              "type": "bytes32",
              "internalType": "bytes32"
            }
          ]
        }
      ],
      "outputs": [
        {
          "name": "",
          "type": "bool",
          "internalType": "bool"
        }
      ],
      "stateMutability": "pure"
    },
    {
      "type": "function",
      "name": "l2BlockTime",
      "inputs": [],
      "outputs": [
        {
          "name": "",
          "type": "uint256",
          "internalType": "uint256"
        }
      ],
      "stateMutability": "view"
    },
    {
      "type": "function",
      "name": "lastProposalTimestamp",
      "inputs": [],
      "outputs": [
        {
          "name": "",
          "type": "uint256",
          "internalType": "uint256"
        }
      ],
      "stateMutability": "view"
    },
    {
      "type": "function",
      "name": "latestBlockNumber",
      "inputs": [],
      "outputs": [
        {
          "name": "",
          "type": "uint256",
          "internalType": "uint256"
        }
      ],
      "stateMutability": "view"
    },
    {
      "type": "function",
      "name": "latestOutputIndex",
      "inputs": [],
      "outputs": [
        {
          "name": "",
          "type": "uint256",
          "internalType": "uint256"
        }
      ],
      "stateMutability": "view"
    },
    {
      "type": "function",
      "name": "nextBlockNumber",
      "inputs": [],
      "outputs": [
        {
          "name": "",
          "type": "uint256",
          "internalType": "uint256"
        }
      ],
      "stateMutability": "view"
    },
    {
      "type": "function",
      "name": "nextOutputIndex",
      "inputs": [],
      "outputs": [
        {
          "name": "",
          "type": "uint256",
          "internalType": "uint256"
        }
      ],
      "stateMutability": "view"
    },
    {
      "type": "function",
      "name": "opSuccinctConfigs",
      "inputs": [
        {
          "name": "",
          "type": "bytes32",
          "internalType": "bytes32"
        }
      ],
      "outputs": [
        {
          "name": "aggregationVkey",
          "type": "bytes32",
          "internalType": "bytes32"
        },
        {
          "name": "rangeVkeyCommitment",
          "type": "bytes32",
          "internalType": "bytes32"
        },
        {
          "name": "rollupConfigHash",
          "type": "bytes32",
          "internalType": "bytes32"
        }
      ],
      "stateMutability": "view"
    },
    {
      "type": "function",
      "name": "optimisticMode",
      "inputs": [],
      "outputs": [
        {
          "name": "",
          "type": "bool",
          "internalType": "bool"
        }
      ],
      "stateMutability": "view"
    },
    {
      "type": "function",
      "name": "owner",
      "inputs": [],
      "outputs": [
        {
          "name": "",
          "type": "address",
          "internalType": "address"
        }
      ],
      "stateMutability": "view"
    },
    {
      "type": "function",
      "name": "proposeL2Output",
      "inputs": [
        {
          "name": "_outputRoot",
          "type": "bytes32",
          "internalType": "bytes32"
        },
        {
          "name": "_l2BlockNumber",
          "type": "uint256",
          "internalType": "uint256"
        },
        {
          "name": "_l1BlockHash",
          "type": "bytes32",
          "internalType": "bytes32"
        },
        {
          "name": "_l1BlockNumber",
          "type": "uint256",
          "internalType": "uint256"
        }
      ],
      "outputs": [],
      "stateMutability": "payable"
    },
    {
      "type": "function",
      "name": "proposeL2Output",
      "inputs": [
        {
          "name": "_configName",
          "type": "bytes32",
          "internalType": "bytes32"
        },
        {
          "name": "_outputRoot",
          "type": "bytes32",
          "internalType": "bytes32"
        },
        {
          "name": "_l2BlockNumber",
          "type": "uint256",
          "internalType": "uint256"
        },
        {
          "name": "_l1BlockNumber",
          "type": "uint256",
          "internalType": "uint256"
        },
        {
          "name": "_proof",
          "type": "bytes",
          "internalType": "bytes"
        },
        {
          "name": "_proverAddress",
          "type": "address",
          "internalType": "address"
        }
      ],
      "outputs": [],
      "stateMutability": "nonpayable"
    },
    {
      "type": "function",
      "name": "proposer",
      "inputs": [],
      "outputs": [
        {
          "name": "",
          "type": "address",
          "internalType": "address"
        }
      ],
      "stateMutability": "view"
    },
    {
      "type": "function",
      "name": "rangeVkeyCommitment",
      "inputs": [],
      "outputs": [
        {
          "name": "",
          "type": "bytes32",
          "internalType": "bytes32"
        }
      ],
      "stateMutability": "view"
    },
    {
      "type": "function",
      "name": "removeProposer",
      "inputs": [
        {
          "name": "_proposer",
          "type": "address",
          "internalType": "address"
        }
      ],
      "outputs": [],
      "stateMutability": "nonpayable"
    },
    {
      "type": "function",
      "name": "rollupConfigHash",
      "inputs": [],
      "outputs": [
        {
          "name": "",
          "type": "bytes32",
          "internalType": "bytes32"
        }
      ],
      "stateMutability": "view"
    },
    {
      "type": "function",
      "name": "setDisputeGameFactory",
      "inputs": [
        {
          "name": "_disputeGameFactory",
          "type": "address",
          "internalType": "address"
        }
      ],
      "outputs": [],
      "stateMutability": "nonpayable"
    },
    {
      "type": "function",
      "name": "startingBlockNumber",
      "inputs": [],
      "outputs": [
        {
          "name": "",
          "type": "uint256",
          "internalType": "uint256"
        }
      ],
      "stateMutability": "view"
    },
    {
      "type": "function",
      "name": "startingTimestamp",
      "inputs": [],
      "outputs": [
        {
          "name": "",
          "type": "uint256",
          "internalType": "uint256"
        }
      ],
      "stateMutability": "view"
    },
    {
      "type": "function",
      "name": "submissionInterval",
      "inputs": [],
      "outputs": [
        {
          "name": "",
          "type": "uint256",
          "internalType": "uint256"
        }
      ],
      "stateMutability": "view"
    },
    {
      "type": "function",
      "name": "transferOwnership",
      "inputs": [
        {
          "name": "_owner",
          "type": "address",
          "internalType": "address"
        }
      ],
      "outputs": [],
      "stateMutability": "nonpayable"
    },
    {
      "type": "function",
      "name": "updateSubmissionInterval",
      "inputs": [
        {
          "name": "_submissionInterval",
          "type": "uint256",
          "internalType": "uint256"
        }
      ],
      "outputs": [],
      "stateMutability": "nonpayable"
    },
    {
      "type": "function",
      "name": "updateVerifier",
      "inputs": [
        {
          "name": "_verifier",
          "type": "address",
          "internalType": "address"
        }
      ],
      "outputs": [],
      "stateMutability": "nonpayable"
    },
    {
      "type": "function",
      "name": "verifier",
      "inputs": [],
      "outputs": [
        {
          "name": "",
          "type": "address",
          "internalType": "address"
        }
      ],
      "stateMutability": "view"
    },
    {
      "type": "function",
      "name": "version",
      "inputs": [],
      "outputs": [
        {
          "name": "",
          "type": "string",
          "internalType": "string"
        }
      ],
      "stateMutability": "view"
    },
    {
      "type": "event",
      "name": "DisputeGameFactorySet",
      "inputs": [
        {
          "name": "disputeGameFactory",
          "type": "address",
          "indexed": true,
          "internalType": "address"
        }
      ],
      "anonymous": false
    },
    {
      "type": "event",
      "name": "Initialized",
      "inputs": [
        {
          "name": "version",
          "type": "uint8",
          "indexed": false,
          "internalType": "uint8"
        }
      ],
      "anonymous": false
    },
    {
      "type": "event",
      "name": "OpSuccinctConfigDeleted",
      "inputs": [
        {
          "name": "configName",
          "type": "bytes32",
          "indexed": true,
          "internalType": "bytes32"
        }
      ],
      "anonymous": false
    },
    {
      "type": "event",
      "name": "OpSuccinctConfigUpdated",
      "inputs": [
        {
          "name": "configName",
          "type": "bytes32",
          "indexed": true,
          "internalType": "bytes32"
        },
        {
          "name": "aggregationVkey",
          "type": "bytes32",
          "indexed": false,
          "internalType": "bytes32"
        },
        {
          "name": "rangeVkeyCommitment",
          "type": "bytes32",
          "indexed": false,
          "internalType": "bytes32"
        },
        {
          "name": "rollupConfigHash",
          "type": "bytes32",
          "indexed": false,
          "internalType": "bytes32"
        }
      ],
      "anonymous": false
    },
    {
      "type": "event",
      "name": "OptimisticModeToggled",
      "inputs": [
        {
          "name": "enabled",
          "type": "bool",
          "indexed": true,
          "internalType": "bool"
        },
        {
          "name": "finalizationPeriodSeconds",
          "type": "uint256",
          "indexed": false,
          "internalType": "uint256"
        }
      ],
      "anonymous": false
    },
    {
      "type": "event",
      "name": "OutputProposed",
      "inputs": [
        {
          "name": "outputRoot",
          "type": "bytes32",
          "indexed": true,
          "internalType": "bytes32"
        },
        {
          "name": "l2OutputIndex",
          "type": "uint256",
          "indexed": true,
          "internalType": "uint256"
        },
        {
          "name": "l2BlockNumber",
          "type": "uint256",
          "indexed": true,
          "internalType": "uint256"
        },
        {
          "name": "l1Timestamp",
          "type": "uint256",
          "indexed": false,
          "internalType": "uint256"
        }
      ],
      "anonymous": false
    },
    {
      "type": "event",
      "name": "OutputsDeleted",
      "inputs": [
        {
          "name": "prevNextOutputIndex",
          "type": "uint256",
          "indexed": true,
          "internalType": "uint256"
        },
        {
          "name": "newNextOutputIndex",
          "type": "uint256",
          "indexed": true,
          "internalType": "uint256"
        }
      ],
      "anonymous": false
    },
    {
      "type": "event",
      "name": "OwnershipTransferred",
      "inputs": [
        {
          "name": "previousOwner",
          "type": "address",
          "indexed": true,
          "internalType": "address"
        },
        {
          "name": "newOwner",
          "type": "address",
          "indexed": true,
          "internalType": "address"
        }
      ],
      "anonymous": false
    },
    {
      "type": "event",
      "name": "ProposerUpdated",
      "inputs": [
        {
          "name": "proposer",
          "type": "address",
          "indexed": true,
          "internalType": "address"
        },
        {
          "name": "added",
          "type": "bool",
          "indexed": false,
          "internalType": "bool"
        }
      ],
      "anonymous": false
    },
    {
      "type": "event",
      "name": "SubmissionIntervalUpdated",
      "inputs": [
        {
          "name": "oldSubmissionInterval",
          "type": "uint256",
          "indexed": false,
          "internalType": "uint256"
        },
        {
          "name": "newSubmissionInterval",
          "type": "uint256",
          "indexed": false,
          "internalType": "uint256"
        }
      ],
      "anonymous": false
    },
    {
      "type": "event",
      "name": "VerifierUpdated",
      "inputs": [
        {
          "name": "oldVerifier",
          "type": "address",
          "indexed": true,
          "internalType": "address"
        },
        {
          "name": "newVerifier",
          "type": "address",
          "indexed": true,
          "internalType": "address"
        }
      ],
      "anonymous": false
    },
    {
      "type": "error",
      "name": "L1BlockHashNotAvailable",
      "inputs": []
    },
    {
      "type": "error",
      "name": "L1BlockHashNotCheckpointed",
      "inputs": []
    }
  ],
  "bytecode": {
    "object": "0x60806040523480156200001157600080fd5b50620000226200002860201b60201c565b620001d3565b600060019054906101000a900460ff16156200007b576040517f08c379a0000000000000000000000000000000000000000000000000000000008152600401620000729062000176565b60405180910390fd5b60ff801660008054906101000a900460ff1660ff161015620000ed5760ff6000806101000a81548160ff021916908360ff1602179055507f7f26b83ff96e1f2b6a682f133852f6798a09c465da95921460cefb384740249860ff604051620000e49190620001b6565b60405180910390a15b565b600082825260208201905092915050565b7f496e697469616c697a61626c653a20636f6e747261637420697320696e69746960008201527f616c697a696e6700000000000000000000000000000000000000000000000000602082015250565b60006200015e602783620000ef565b91506200016b8262000100565b604082019050919050565b6000602082019050818103600083015262000191816200014f565b9050919050565b600060ff82169050919050565b620001b08162000198565b82525050565b6000602082019050620001cd6000830184620001a5565b92915050565b61513f80620001e36000396000f3fe6080604052600436106102885760003560e01c8063887862721161015a578063ce5db8d6116100c1578063e1a41bcf1161007a578063e1a41bcf146109e2578063e40b7a1214610a0d578063ec5b2e3a14610a36578063f2b4e61714610a5f578063f2fde38b14610a8a578063f72f606d14610ab357610288565b8063ce5db8d6146108aa578063cf8e5cf0146108d5578063d1de856c14610912578063d46512761461094f578063dcec33481461098c578063e0c2f935146109b757610288565b8063a196b52511610113578063a196b52514610788578063a25ae557146107c5578063a4ee9d7b14610802578063a8e4fb901461082b578063b03cd41814610856578063c32e4e3e1461087f57610288565b8063887862721461069957806389c44cbb146106c45780638da5cb5b146106ed57806393991af31461071857806397fc007c146107435780639aaab6481461076c57610288565b80634ab309ac116101fe5780636abcf563116101b75780636abcf563146105805780636d9a1c8b146105ab57806370872aa5146105d65780637a41a035146106015780637f006420146106315780637f01ea681461066e57610288565b80634ab309ac1461046c578063534db0e21461049557806354fd4d50146104c057806360caf7a0146104eb57806369f16eec146105165780636a56620b1461054157610288565b8063336c9e8111610250578063336c9e811461035e5780633419d2c2146103875780634277bc06146103b05780634599c788146103db57806347c37e9c1461040657806349185e061461042f57610288565b806309d632d31461028d5780631e856800146102b65780632b31841e146102df5780632b7ac3f31461030a5780632c69796114610335575b600080fd5b34801561029957600080fd5b506102b460048036038101906102af9190613276565b610ade565b005b3480156102c257600080fd5b506102dd60048036038101906102d891906132d9565b610c18565b005b3480156102eb57600080fd5b506102f4610c76565b604051610301919061331f565b60405180910390f35b34801561031657600080fd5b5061031f610c7c565b60405161032c9190613349565b60405180910390f35b34801561034157600080fd5b5061035c600480360381019061035791906132d9565b610ca2565b005b34801561036a57600080fd5b50610385600480360381019061038091906132d9565b610de2565b005b34801561039357600080fd5b506103ae60048036038101906103a99190613276565b610efa565b005b3480156103bc57600080fd5b506103c5611011565b6040516103d29190613373565b60405180910390f35b3480156103e757600080fd5b506103f0611017565b6040516103fd9190613373565b60405180910390f35b34801561041257600080fd5b5061042d600480360381019061042891906133ba565b611098565b005b34801561043b57600080fd5b5061045660048036038101906104519190613516565b6112d0565b604051610463919061355e565b60405180910390f35b34801561047857600080fd5b50610493600480360381019061048e91906132d9565b61130a565b005b3480156104a157600080fd5b506104aa611449565b6040516104b79190613349565b60405180910390f35b3480156104cc57600080fd5b506104d561146f565b6040516104e29190613601565b60405180910390f35b3480156104f757600080fd5b506105006114a8565b60405161050d919061355e565b60405180910390f35b34801561052257600080fd5b5061052b6114bb565b6040516105389190613373565b60405180910390f35b34801561054d57600080fd5b5061056860048036038101906105639190613623565b6114d4565b60405161057793929190613650565b60405180910390f35b34801561058c57600080fd5b506105956114fe565b6040516105a29190613373565b60405180910390f35b3480156105b757600080fd5b506105c061150b565b6040516105cd919061331f565b60405180910390f35b3480156105e257600080fd5b506105eb611511565b6040516105f89190613373565b60405180910390f35b61061b60048036038101906106169190613741565b611517565b6040516106289190613849565b60405180910390f35b34801561063d57600080fd5b50610658600480360381019061065391906132d9565b611707565b6040516106659190613373565b60405180910390f35b34801561067a57600080fd5b5061068361184e565b6040516106909190613880565b60405180910390f35b3480156106a557600080fd5b506106ae611853565b6040516106bb9190613373565b60405180910390f35b3480156106d057600080fd5b506106eb60048036038101906106e691906132d9565b611859565b005b3480156106f957600080fd5b50610702611a57565b60405161070f9190613349565b60405180910390f35b34801561072457600080fd5b5061072d611a7d565b60405161073a9190613373565b60405180910390f35b34801561074f57600080fd5b5061076a60048036038101906107659190613276565b611a83565b005b6107866004803603810190610781919061389b565b611bd3565b005b34801561079457600080fd5b506107af60048036038101906107aa91906132d9565b611f63565b6040516107bc919061331f565b60405180910390f35b3480156107d157600080fd5b506107ec60048036038101906107e791906132d9565b611f7b565b6040516107f9919061397e565b60405180910390f35b34801561080e57600080fd5b5061082960048036038101906108249190613741565b612055565b005b34801561083757600080fd5b506108406126c6565b60405161084d9190613349565b60405180910390f35b34801561086257600080fd5b5061087d60048036038101906108789190613276565b6126ec565b005b34801561088b57600080fd5b50610894612826565b6040516108a1919061331f565b60405180910390f35b3480156108b657600080fd5b506108bf61282c565b6040516108cc9190613373565b60405180910390f35b3480156108e157600080fd5b506108fc60048036038101906108f791906132d9565b612832565b604051610909919061397e565b60405180910390f35b34801561091e57600080fd5b50610939600480360381019061093491906132d9565b612914565b6040516109469190613373565b60405180910390f35b34801561095b57600080fd5b5061097660048036038101906109719190613276565b612945565b604051610983919061355e565b60405180910390f35b34801561099857600080fd5b506109a1612965565b6040516109ae9190613373565b60405180910390f35b3480156109c357600080fd5b506109cc612981565b6040516109d99190613373565b60405180910390f35b3480156109ee57600080fd5b506109f7612a02565b604051610a049190613373565b60405180910390f35b348015610a1957600080fd5b50610a346004803603810190610a2f9190613ae7565b612a08565b005b348015610a4257600080fd5b50610a5d6004803603810190610a589190613623565b612f34565b005b348015610a6b57600080fd5b50610a74613022565b604051610a819190613349565b60405180910390f35b348015610a9657600080fd5b50610ab16004803603810190610aac9190613276565b613048565b005b348015610abf57600080fd5b50610ac8613198565b604051610ad5919061331f565b60405180910390f35b600d60009054906101000a900473ffffffffffffffffffffffffffffffffffffffff1673ffffffffffffffffffffffffffffffffffffffff163373ffffffffffffffffffffffffffffffffffffffff1614610b6e576040517f08c379a0000000000000000000000000000000000000000000000000000000008152600401610b6590613b87565b60405180910390fd5b6000600e60008373ffffffffffffffffffffffffffffffffffffffff1673ffffffffffffffffffffffffffffffffffffffff16815260200190815260200160002060006101000a81548160ff0219169083151502179055508073ffffffffffffffffffffffffffffffffffffffff167f5df38d395edc15b669d646569bd015513395070b5b4deb8a16300abb060d1b5a6000604051610c0d919061355e565b60405180910390a250565b6000814090506000801b8103610c5a576040517f84c0686400000000000000000000000000000000000000000000000000000000815260040160405180910390fd5b80600f6000848152602001908152602001600020819055505050565b600a5481565b600b60009054906101000a900473ffffffffffffffffffffffffffffffffffffffff1681565b600d60009054906101000a900473ffffffffffffffffffffffffffffffffffffffff1673ffffffffffffffffffffffffffffffffffffffff163373ffffffffffffffffffffffffffffffffffffffff1614610d32576040517f08c379a0000000000000000000000000000000000000000000000000000000008152600401610d2990613b87565b60405180910390fd5b601060009054906101000a900460ff1615610d82576040517f08c379a0000000000000000000000000000000000000000000000000000000008152600401610d7990613c19565b60405180910390fd5b806008819055506001601060006101000a81548160ff021916908315150217905550600115157f1f5c872f1ea93c57e43112ea449ee19ef5754488b87627b4c52456b0e5a4109a82604051610dd79190613373565b60405180910390a250565b600d60009054906101000a900473ffffffffffffffffffffffffffffffffffffffff1673ffffffffffffffffffffffffffffffffffffffff163373ffffffffffffffffffffffffffffffffffffffff1614610e72576040517f08c379a0000000000000000000000000000000000000000000000000000000008152600401610e6990613b87565b60405180910390fd5b60008111610eb5576040517f08c379a0000000000000000000000000000000000000000000000000000000008152600401610eac90613cab565b60405180910390fd5b7fc1bf9abfb57ea01ed9ecb4f45e9cefa7ba44b2e6778c3ce7281409999f1af1b260045482604051610ee8929190613ccb565b60405180910390a18060048190555050565b600d60009054906101000a900473ffffffffffffffffffffffffffffffffffffffff1673ffffffffffffffffffffffffffffffffffffffff163373ffffffffffffffffffffffffffffffffffffffff1614610f8a576040517f08c379a0000000000000000000000000000000000000000000000000000000008152600401610f8190613b87565b60405180910390fd5b80601360006101000a81548173ffffffffffffffffffffffffffffffffffffffff021916908373ffffffffffffffffffffffffffffffffffffffff1602179055508073ffffffffffffffffffffffffffffffffffffffff167f73702180ce348e07b058846d1745c99987ae6c741ff97ec28d4539530ef1e8f160405160405180910390a250565b60115481565b6000806003805490501461108f57600360016003805490506110399190613d23565b8154811061104a57611049613d57565b5b906000526020600020906002020160010160109054906101000a90046fffffffffffffffffffffffffffffffff166fffffffffffffffffffffffffffffffff16611093565b6001545b905090565b600d60009054906101000a900473ffffffffffffffffffffffffffffffffffffffff1673ffffffffffffffffffffffffffffffffffffffff163373ffffffffffffffffffffffffffffffffffffffff1614611128576040517f08c379a000000000000000000000000000000000000000000000000000000000815260040161111f90613b87565b60405180910390fd5b6000801b840361116d576040517f08c379a000000000000000000000000000000000000000000000000000000000815260040161116490613df8565b60405180910390fd5b6111b16012600086815260200190815260200160002060405180606001604052908160008201548152602001600182015481526020016002820154815250506112d0565b156111f1576040517f08c379a00000000000000000000000000000000000000000000000000000000081526004016111e890613e8a565b60405180910390fd5b60006040518060600160405280848152602001838152602001858152509050611219816112d0565b611258576040517f08c379a000000000000000000000000000000000000000000000000000000000815260040161124f90613f1c565b60405180910390fd5b8060126000878152602001908152602001600020600082015181600001556020820151816001015560408201518160020155905050847fea0123c726a665cb0ab5691444f929a7056c7a7709c60c0587829e8046b8d5148484876040516112c193929190613650565b60405180910390a25050505050565b60008060001b8260000151141580156112f057506000801b826020015114155b801561130357506000801b826040015114155b9050919050565b600d60009054906101000a900473ffffffffffffffffffffffffffffffffffffffff1673ffffffffffffffffffffffffffffffffffffffff163373ffffffffffffffffffffffffffffffffffffffff161461139a576040517f08c379a000000000000000000000000000000000000000000000000000000000815260040161139190613b87565b60405180910390fd5b601060009054906101000a900460ff166113e9576040517f08c379a00000000000000000000000000000000000000000000000000000000081526004016113e090613fae565b60405180910390fd5b806008819055506000601060006101000a81548160ff021916908315150217905550600015157f1f5c872f1ea93c57e43112ea449ee19ef5754488b87627b4c52456b0e5a4109a8260405161143e9190613373565b60405180910390a250565b600660009054906101000a900473ffffffffffffffffffffffffffffffffffffffff1681565b6040518060400160405280600681526020017f76332e302e30000000000000000000000000000000000000000000000000000081525081565b601060009054906101000a900460ff1681565b600060016003805490506114cf9190613d23565b905090565b60126020528060005260406000206000915090508060000154908060010154908060020154905083565b6000600380549050905090565b600c5481565b60015481565b6000601060009054906101000a900460ff1615611569576040517f08c379a000000000000000000000000000000000000000000000000000000000815260040161156090613c19565b60405180910390fd5b600073ffffffffffffffffffffffffffffffffffffffff16601360009054906101000a900473ffffffffffffffffffffffffffffffffffffffff1673ffffffffffffffffffffffffffffffffffffffff16036115fa576040517f08c379a00000000000000000000000000000000000000000000000000000000081526004016115f190614040565b60405180910390fd5b6001601360146101000a81548160ff021916908315150217905550601360009054906101000a900473ffffffffffffffffffffffffffffffffffffffff1673ffffffffffffffffffffffffffffffffffffffff166382ecf2f6346006898989888e8b604051602001611670959493929190614131565b6040516020818303038152906040526040518563ffffffff1660e01b815260040161169d93929190614238565b60206040518083038185885af11580156116bb573d6000803e3d6000fd5b50505050506040513d601f19601f820116820180604052508101906116e091906142b4565b90506000601360146101000a81548160ff0219169083151502179055509695505050505050565b6000611711611017565b821115611753576040517f08c379a000000000000000000000000000000000000000000000000000000000815260040161174a90614379565b60405180910390fd5b60006003805490501161179b576040517f08c379a000000000000000000000000000000000000000000000000000000000815260040161179290614431565b60405180910390fd5b60008060038054905090505b80821015611844576000600282846117bf9190614451565b6117c991906144d6565b905084600382815481106117e0576117df613d57565b5b906000526020600020906002020160010160109054906101000a90046fffffffffffffffffffffffffffffffff166fffffffffffffffffffffffffffffffff16101561183a576001816118339190614451565b925061183e565b8091505b506117a7565b8192505050919050565b600381565b60025481565b600660009054906101000a900473ffffffffffffffffffffffffffffffffffffffff1673ffffffffffffffffffffffffffffffffffffffff163373ffffffffffffffffffffffffffffffffffffffff16146118e9576040517f08c379a00000000000000000000000000000000000000000000000000000000081526004016118e090614579565b60405180910390fd5b6000811161192c576040517f08c379a00000000000000000000000000000000000000000000000000000000081526004016119239061460b565b60405180910390fd5b6003805490508110611973576040517f08c379a000000000000000000000000000000000000000000000000000000000815260040161196a906146c3565b60405180910390fd5b6008546003828154811061198a57611989613d57565b5b906000526020600020906002020160010160009054906101000a90046fffffffffffffffffffffffffffffffff166fffffffffffffffffffffffffffffffff16426119d59190613d23565b10611a15576040517f08c379a0000000000000000000000000000000000000000000000000000000008152600401611a0c9061477b565b60405180910390fd5b6000611a1f6114fe565b90508160035581817f4ee37ac2c786ec85e87592d3c5c8a1dd66f8496dda3f125d9ea8ca5f657629b660405160405180910390a35050565b600d60009054906101000a900473ffffffffffffffffffffffffffffffffffffffff1681565b60055481565b600d60009054906101000a900473ffffffffffffffffffffffffffffffffffffffff1673ffffffffffffffffffffffffffffffffffffffff163373ffffffffffffffffffffffffffffffffffffffff1614611b13576040517f08c379a0000000000000000000000000000000000000000000000000000000008152600401611b0a90613b87565b60405180910390fd5b8073ffffffffffffffffffffffffffffffffffffffff16600b60009054906101000a900473ffffffffffffffffffffffffffffffffffffffff1673ffffffffffffffffffffffffffffffffffffffff167f0243549a92b2412f7a3caf7a2e56d65b8821b91345363faa5f57195384065fcc60405160405180910390a380600b60006101000a81548173ffffffffffffffffffffffffffffffffffffffff021916908373ffffffffffffffffffffffffffffffffffffffff16021790555050565b601060009054906101000a900460ff16611c22576040517f08c379a0000000000000000000000000000000000000000000000000000000008152600401611c1990613fae565b60405180910390fd5b600e60003373ffffffffffffffffffffffffffffffffffffffff1673ffffffffffffffffffffffffffffffffffffffff16815260200190815260200160002060009054906101000a900460ff1680611cc35750600e60008073ffffffffffffffffffffffffffffffffffffffff1673ffffffffffffffffffffffffffffffffffffffff16815260200190815260200160002060009054906101000a900460ff165b611d02576040517f08c379a0000000000000000000000000000000000000000000000000000000008152600401611cf99061480d565b60405180910390fd5b611d0a612965565b8314611d4b576040517f08c379a0000000000000000000000000000000000000000000000000000000008152600401611d42906148c5565b60405180910390fd5b42611d5584612914565b10611d95576040517f08c379a0000000000000000000000000000000000000000000000000000000008152600401611d8c90614957565b60405180910390fd5b6000801b8403611dda576040517f08c379a0000000000000000000000000000000000000000000000000000000008152600401611dd1906149e9565b60405180910390fd5b6000801b8214611e285781814014611e27576040517f08c379a0000000000000000000000000000000000000000000000000000000008152600401611e1e90614aa1565b60405180910390fd5b5b82611e316114fe565b857fa7aaf2512769da4e444e3de247be2564225c2e7a8f74cfe528e46e17d24868e242604051611e619190613373565b60405180910390a460036040518060600160405280868152602001426fffffffffffffffffffffffffffffffff168152602001856fffffffffffffffffffffffffffffffff1681525090806001815401808255809150506001900390600052602060002090600202016000909190919091506000820151816000015560208201518160010160006101000a8154816fffffffffffffffffffffffffffffffff02191690836fffffffffffffffffffffffffffffffff16021790555060408201518160010160106101000a8154816fffffffffffffffffffffffffffffffff02191690836fffffffffffffffffffffffffffffffff160217905550505050505050565b600f6020528060005260406000206000915090505481565b611f836131bc565b60038281548110611f9757611f96613d57565b5b9060005260206000209060020201604051806060016040529081600082015481526020016001820160009054906101000a90046fffffffffffffffffffffffffffffffff166fffffffffffffffffffffffffffffffff166fffffffffffffffffffffffffffffffff1681526020016001820160109054906101000a90046fffffffffffffffffffffffffffffffff166fffffffffffffffffffffffffffffffff166fffffffffffffffffffffffffffffffff16815250509050919050565b601060009054906101000a900460ff16156120a5576040517f08c379a000000000000000000000000000000000000000000000000000000000815260040161209c90613c19565b60405180910390fd5b600e60003273ffffffffffffffffffffffffffffffffffffffff1673ffffffffffffffffffffffffffffffffffffffff16815260200190815260200160002060009054906101000a900460ff16806121465750600e60008073ffffffffffffffffffffffffffffffffffffffff1673ffffffffffffffffffffffffffffffffffffffff16815260200190815260200160002060009054906101000a900460ff165b806121645750601154612157612981565b426121629190613d23565b115b6121a3576040517f08c379a000000000000000000000000000000000000000000000000000000000815260040161219a9061480d565b60405180910390fd5b6121ab612965565b8410156121ed576040517f08c379a00000000000000000000000000000000000000000000000000000000081526004016121e490614b59565b60405180910390fd5b426121f785612914565b10612237576040517f08c379a000000000000000000000000000000000000000000000000000000000815260040161222e90614957565b60405180910390fd5b600073ffffffffffffffffffffffffffffffffffffffff16601360009054906101000a900473ffffffffffffffffffffffffffffffffffffffff1673ffffffffffffffffffffffffffffffffffffffff16146122e157601360149054906101000a900460ff166122dc576040517f08c379a00000000000000000000000000000000000000000000000000000000081526004016122d390614c37565b60405180910390fd5b612332565b601360149054906101000a900460ff1615612331576040517f08c379a000000000000000000000000000000000000000000000000000000000815260040161232890614d15565b60405180910390fd5b5b6000801b8503612377576040517f08c379a000000000000000000000000000000000000000000000000000000000815260040161236e906149e9565b60405180910390fd5b600060126000888152602001908152602001600020604051806060016040529081600082015481526020016001820154815260200160028201548152505090506123c0816112d0565b6123ff576040517f08c379a00000000000000000000000000000000000000000000000000000000081526004016123f690614da7565b60405180910390fd5b6000600f60008681526020019081526020016000205490506000801b8103612453576040517f22aa3a9800000000000000000000000000000000000000000000000000000000815260040160405180910390fd5b60006040518060e0016040528083815260200160036124706114bb565b8154811061248157612480613d57565b5b906000526020600020906002020160000154815260200189815260200188815260200184604001518152602001846020015181526020018573ffffffffffffffffffffffffffffffffffffffff168152509050600b60009054906101000a900473ffffffffffffffffffffffffffffffffffffffff1673ffffffffffffffffffffffffffffffffffffffff166341493c608460000151836040516020016125289190614e73565b604051602081830303815290604052886040518463ffffffff1660e01b815260040161255693929190614e8e565b60006040518083038186803b15801561256e57600080fd5b505afa158015612582573d6000803e3d6000fd5b505050508661258f6114fe565b897fa7aaf2512769da4e444e3de247be2564225c2e7a8f74cfe528e46e17d24868e2426040516125bf9190613373565b60405180910390a4600360405180606001604052808a8152602001426fffffffffffffffffffffffffffffffff168152602001896fffffffffffffffffffffffffffffffff1681525090806001815401808255809150506001900390600052602060002090600202016000909190919091506000820151816000015560208201518160010160006101000a8154816fffffffffffffffffffffffffffffffff02191690836fffffffffffffffffffffffffffffffff16021790555060408201518160010160106101000a8154816fffffffffffffffffffffffffffffffff02191690836fffffffffffffffffffffffffffffffff1602179055505050505050505050505050565b600760009054906101000a900473ffffffffffffffffffffffffffffffffffffffff1681565b600d60009054906101000a900473ffffffffffffffffffffffffffffffffffffffff1673ffffffffffffffffffffffffffffffffffffffff163373ffffffffffffffffffffffffffffffffffffffff161461277c576040517f08c379a000000000000000000000000000000000000000000000000000000000815260040161277390613b87565b60405180910390fd5b6001600e60008373ffffffffffffffffffffffffffffffffffffffff1673ffffffffffffffffffffffffffffffffffffffff16815260200190815260200160002060006101000a81548160ff0219169083151502179055508073ffffffffffffffffffffffffffffffffffffffff167f5df38d395edc15b669d646569bd015513395070b5b4deb8a16300abb060d1b5a600160405161281b919061355e565b60405180910390a250565b60095481565b60085481565b61283a6131bc565b600361284583611707565b8154811061285657612855613d57565b5b9060005260206000209060020201604051806060016040529081600082015481526020016001820160009054906101000a90046fffffffffffffffffffffffffffffffff166fffffffffffffffffffffffffffffffff166fffffffffffffffffffffffffffffffff1681526020016001820160109054906101000a90046fffffffffffffffffffffffffffffffff166fffffffffffffffffffffffffffffffff166fffffffffffffffffffffffffffffffff16815250509050919050565b6000600554600154836129279190613d23565b6129319190614ed3565b60025461293e9190614451565b9050919050565b600e6020528060005260406000206000915054906101000a900460ff1681565b6000600454612972611017565b61297c9190614451565b905090565b600080600380549050146129f957600360016003805490506129a39190613d23565b815481106129b4576129b3613d57565b5b906000526020600020906002020160010160009054906101000a90046fffffffffffffffffffffffffffffffff166fffffffffffffffffffffffffffffffff166129fd565b6002545b905090565b60045481565b6003600060019054906101000a900460ff16158015612a3957508060ff1660008054906101000a900460ff1660ff16105b612a78576040517f08c379a0000000000000000000000000000000000000000000000000000000008152600401612a6f90614f9f565b60405180910390fd5b806000806101000a81548160ff021916908360ff1602179055506001600060016101000a81548160ff021916908315150217905550600082610160015111612af5576040517f08c379a0000000000000000000000000000000000000000000000000000000008152600401612aec90613cab565b60405180910390fd5b6000826080015111612b3c576040517f08c379a0000000000000000000000000000000000000000000000000000000008152600401612b3390615031565b60405180910390fd5b428261014001511115612b84576040517f08c379a0000000000000000000000000000000000000000000000000000000008152600401612b7b906150e9565b60405180910390fd5b8161016001516004819055508160800151600581905550600060038054905003612cc4576003604051806060016040528084610100015181526020018461014001516fffffffffffffffffffffffffffffffff1681526020018461012001516fffffffffffffffffffffffffffffffff1681525090806001815401808255809150506001900390600052602060002090600202016000909190919091506000820151816000015560208201518160010160006101000a8154816fffffffffffffffffffffffffffffffff02191690836fffffffffffffffffffffffffffffffff16021790555060408201518160010160106101000a8154816fffffffffffffffffffffffffffffffff02191690836fffffffffffffffffffffffffffffffff16021790555050508161012001516001819055508161014001516002819055505b8160000151600660006101000a81548173ffffffffffffffffffffffffffffffffffffffff021916908373ffffffffffffffffffffffffffffffffffffffff16021790555081606001516008819055506001600e6000846020015173ffffffffffffffffffffffffffffffffffffffff1673ffffffffffffffffffffffffffffffffffffffff16815260200190815260200160002060006101000a81548160ff021916908315150217905550816101a0015160118190555060405180606001604052808360a0015181526020018360c0015181526020018360e00151815250601260007fae8304f40f7123e0c87b97f8a600e94ff3a3a25be588fc66b8a3717c8959ce778152602001908152602001600020600082015181600001556020820151816001015560408201518160020155905050816101800151600b60006101000a81548173ffffffffffffffffffffffffffffffffffffffff021916908373ffffffffffffffffffffffffffffffffffffffff1602179055508160400151600d60006101000a81548173ffffffffffffffffffffffffffffffffffffffff021916908373ffffffffffffffffffffffffffffffffffffffff1602179055506000601360146101000a81548160ff0219169083151502179055506000601360006101000a81548173ffffffffffffffffffffffffffffffffffffffff021916908373ffffffffffffffffffffffffffffffffffffffff16021790555060008060016101000a81548160ff0219169083151502179055507f7f26b83ff96e1f2b6a682f133852f6798a09c465da95921460cefb384740249881604051612f289190613880565b60405180910390a15050565b600d60009054906101000a900473ffffffffffffffffffffffffffffffffffffffff1673ffffffffffffffffffffffffffffffffffffffff163373ffffffffffffffffffffffffffffffffffffffff1614612fc4576040517f08c379a0000000000000000000000000000000000000000000000000000000008152600401612fbb90613b87565b60405180910390fd5b60126000828152602001908152602001600020600080820160009055600182016000905560028201600090555050807f4432b02a2fcbed48d94e8d72723e155c6690e4b7f39afa41a2a8ff8c0aa425da60405160405180910390a250565b601360009054906101000a900473ffffffffffffffffffffffffffffffffffffffff1681565b600d60009054906101000a900473ffffffffffffffffffffffffffffffffffffffff1673ffffffffffffffffffffffffffffffffffffffff163373ffffffffffffffffffffffffffffffffffffffff16146130d8576040517f08c379a00000000000000000000000000000000000000000000000000000000081526004016130cf90613b87565b60405180910390fd5b8073ffffffffffffffffffffffffffffffffffffffff16600d60009054906101000a900473ffffffffffffffffffffffffffffffffffffffff1673ffffffffffffffffffffffffffffffffffffffff167f8be0079c531659141344cd1fd0a4f28419497f9722a3daafe3b4186f6b6457e060405160405180910390a380600d60006101000a81548173ffffffffffffffffffffffffffffffffffffffff021916908373ffffffffffffffffffffffffffffffffffffffff16021790555050565b7fae8304f40f7123e0c87b97f8a600e94ff3a3a25be588fc66b8a3717c8959ce7781565b60405180606001604052806000801916815260200160006fffffffffffffffffffffffffffffffff16815260200160006fffffffffffffffffffffffffffffffff1681525090565b6000604051905090565b600080fd5b600080fd5b600073ffffffffffffffffffffffffffffffffffffffff82169050919050565b600061324382613218565b9050919050565b61325381613238565b811461325e57600080fd5b50565b6000813590506132708161324a565b92915050565b60006020828403121561328c5761328b61320e565b5b600061329a84828501613261565b91505092915050565b6000819050919050565b6132b6816132a3565b81146132c157600080fd5b50565b6000813590506132d3816132ad565b92915050565b6000602082840312156132ef576132ee61320e565b5b60006132fd848285016132c4565b91505092915050565b6000819050919050565b61331981613306565b82525050565b60006020820190506133346000830184613310565b92915050565b61334381613238565b82525050565b600060208201905061335e600083018461333a565b92915050565b61336d816132a3565b82525050565b60006020820190506133886000830184613364565b92915050565b61339781613306565b81146133a257600080fd5b50565b6000813590506133b48161338e565b92915050565b600080600080608085870312156133d4576133d361320e565b5b60006133e2878288016133a5565b94505060206133f3878288016133a5565b9350506040613404878288016133a5565b9250506060613415878288016133a5565b91505092959194509250565b600080fd5b6000601f19601f8301169050919050565b7f4e487b7100000000000000000000000000000000000000000000000000000000600052604160045260246000fd5b61346f82613426565b810181811067ffffffffffffffff8211171561348e5761348d613437565b5b80604052505050565b60006134a1613204565b90506134ad8282613466565b919050565b6000606082840312156134c8576134c7613421565b5b6134d26060613497565b905060006134e2848285016133a5565b60008301525060206134f6848285016133a5565b602083015250604061350a848285016133a5565b60408301525092915050565b60006060828403121561352c5761352b61320e565b5b600061353a848285016134b2565b91505092915050565b60008115159050919050565b61355881613543565b82525050565b6000602082019050613573600083018461354f565b92915050565b600081519050919050565b600082825260208201905092915050565b60005b838110156135b3578082015181840152602081019050613598565b838111156135c2576000848401525b50505050565b60006135d382613579565b6135dd8185613584565b93506135ed818560208601613595565b6135f681613426565b840191505092915050565b6000602082019050818103600083015261361b81846135c8565b905092915050565b6000602082840312156136395761363861320e565b5b6000613647848285016133a5565b91505092915050565b60006060820190506136656000830186613310565b6136726020830185613310565b61367f6040830184613310565b949350505050565b600080fd5b600080fd5b600067ffffffffffffffff8211156136ac576136ab613437565b5b6136b582613426565b9050602081019050919050565b82818337600083830152505050565b60006136e46136df84613691565b613497565b905082815260208101848484011115613700576136ff61368c565b5b61370b8482856136c2565b509392505050565b600082601f83011261372857613727613687565b5b81356137388482602086016136d1565b91505092915050565b60008060008060008060c0878903121561375e5761375d61320e565b5b600061376c89828a016133a5565b965050602061377d89828a016133a5565b955050604061378e89828a016132c4565b945050606061379f89828a016132c4565b935050608087013567ffffffffffffffff8111156137c0576137bf613213565b5b6137cc89828a01613713565b92505060a06137dd89828a01613261565b9150509295509295509295565b6000819050919050565b600061380f61380a61380584613218565b6137ea565b613218565b9050919050565b6000613821826137f4565b9050919050565b600061383382613816565b9050919050565b61384381613828565b82525050565b600060208201905061385e600083018461383a565b92915050565b600060ff82169050919050565b61387a81613864565b82525050565b60006020820190506138956000830184613871565b92915050565b600080600080608085870312156138b5576138b461320e565b5b60006138c3878288016133a5565b94505060206138d4878288016132c4565b93505060406138e5878288016133a5565b92505060606138f6878288016132c4565b91505092959194509250565b61390b81613306565b82525050565b60006fffffffffffffffffffffffffffffffff82169050919050565b61393681613911565b82525050565b6060820160008201516139526000850182613902565b506020820151613965602085018261392d565b506040820151613978604085018261392d565b50505050565b6000606082019050613993600083018461393c565b92915050565b60006101c082840312156139b0576139af613421565b5b6139bb6101c0613497565b905060006139cb84828501613261565b60008301525060206139df84828501613261565b60208301525060406139f384828501613261565b6040830152506060613a07848285016132c4565b6060830152506080613a1b848285016132c4565b60808301525060a0613a2f848285016133a5565b60a08301525060c0613a43848285016133a5565b60c08301525060e0613a57848285016133a5565b60e083015250610100613a6c848285016133a5565b61010083015250610120613a82848285016132c4565b61012083015250610140613a98848285016132c4565b61014083015250610160613aae848285016132c4565b61016083015250610180613ac484828501613261565b610180830152506101a0613ada848285016132c4565b6101a08301525092915050565b60006101c08284031215613afe57613afd61320e565b5b6000613b0c84828501613999565b91505092915050565b7f4c324f75747075744f7261636c653a2063616c6c6572206973206e6f7420746860008201527f65206f776e657200000000000000000000000000000000000000000000000000602082015250565b6000613b71602783613584565b9150613b7c82613b15565b604082019050919050565b60006020820190508181036000830152613ba081613b64565b9050919050565b7f4c324f75747075744f7261636c653a206f7074696d6973746963206d6f64652060008201527f697320656e61626c656400000000000000000000000000000000000000000000602082015250565b6000613c03602a83613584565b9150613c0e82613ba7565b604082019050919050565b60006020820190508181036000830152613c3281613bf6565b9050919050565b7f4c324f75747075744f7261636c653a207375626d697373696f6e20696e74657260008201527f76616c206d7573742062652067726561746572207468616e2030000000000000602082015250565b6000613c95603a83613584565b9150613ca082613c39565b604082019050919050565b60006020820190508181036000830152613cc481613c88565b9050919050565b6000604082019050613ce06000830185613364565b613ced6020830184613364565b9392505050565b7f4e487b7100000000000000000000000000000000000000000000000000000000600052601160045260246000fd5b6000613d2e826132a3565b9150613d39836132a3565b925082821015613d4c57613d4b613cf4565b5b828203905092915050565b7f4e487b7100000000000000000000000000000000000000000000000000000000600052603260045260246000fd5b7f4c324f75747075744f7261636c653a20636f6e666967206e616d652063616e6e60008201527f6f7420626520656d707479000000000000000000000000000000000000000000602082015250565b6000613de2602b83613584565b9150613ded82613d86565b604082019050919050565b60006020820190508181036000830152613e1181613dd5565b9050919050565b7f4c324f75747075744f7261636c653a20636f6e66696720616c7265616479206560008201527f7869737473000000000000000000000000000000000000000000000000000000602082015250565b6000613e74602583613584565b9150613e7f82613e18565b604082019050919050565b60006020820190508181036000830152613ea381613e67565b9050919050565b7f4c324f75747075744f7261636c653a20696e76616c6964204f5020537563636960008201527f6e637420636f6e66696775726174696f6e20706172616d657465727300000000602082015250565b6000613f06603c83613584565b9150613f1182613eaa565b604082019050919050565b60006020820190508181036000830152613f3581613ef9565b9050919050565b7f4c324f75747075744f7261636c653a206f7074696d6973746963206d6f64652060008201527f6973206e6f7420656e61626c6564000000000000000000000000000000000000602082015250565b6000613f98602e83613584565b9150613fa382613f3c565b604082019050919050565b60006020820190508181036000830152613fc781613f8b565b9050919050565b7f4c324f75747075744f7261636c653a20646973707574652067616d652066616360008201527f746f7279206973206e6f74207365740000000000000000000000000000000000602082015250565b600061402a602f83613584565b915061403582613fce565b604082019050919050565b600060208201905081810360008301526140598161401d565b9050919050565b6000819050919050565b61407b614076826132a3565b614060565b82525050565b60008160601b9050919050565b600061409982614081565b9050919050565b60006140ab8261408e565b9050919050565b6140c36140be82613238565b6140a0565b82525050565b6000819050919050565b6140e46140df82613306565b6140c9565b82525050565b600081519050919050565b600081905092915050565b600061410b826140ea565b61411581856140f5565b9350614125818560208601613595565b80840191505092915050565b600061413d828861406a565b60208201915061414d828761406a565b60208201915061415d82866140b2565b60148201915061416d82856140d3565b60208201915061417d8284614100565b91508190509695505050505050565b600063ffffffff82169050919050565b60006141b76141b26141ad8461418c565b6137ea565b61418c565b9050919050565b6141c78161419c565b82525050565b60006141d882613306565b9050919050565b6141e8816141cd565b82525050565b600082825260208201905092915050565b600061420a826140ea565b61421481856141ee565b9350614224818560208601613595565b61422d81613426565b840191505092915050565b600060608201905061424d60008301866141be565b61425a60208301856141df565b818103604083015261426c81846141ff565b9050949350505050565b600061428182613238565b9050919050565b61429181614276565b811461429c57600080fd5b50565b6000815190506142ae81614288565b92915050565b6000602082840312156142ca576142c961320e565b5b60006142d88482850161429f565b91505092915050565b7f4c324f75747075744f7261636c653a2063616e6e6f7420676574206f7574707560008201527f7420666f72206120626c6f636b207468617420686173206e6f74206265656e2060208201527f70726f706f736564000000000000000000000000000000000000000000000000604082015250565b6000614363604883613584565b915061436e826142e1565b606082019050919050565b6000602082019050818103600083015261439281614356565b9050919050565b7f4c324f75747075744f7261636c653a2063616e6e6f7420676574206f7574707560008201527f74206173206e6f206f7574707574732068617665206265656e2070726f706f7360208201527f6564207965740000000000000000000000000000000000000000000000000000604082015250565b600061441b604683613584565b915061442682614399565b606082019050919050565b6000602082019050818103600083015261444a8161440e565b9050919050565b600061445c826132a3565b9150614467836132a3565b9250827fffffffffffffffffffffffffffffffffffffffffffffffffffffffffffffffff0382111561449c5761449b613cf4565b5b828201905092915050565b7f4e487b7100000000000000000000000000000000000000000000000000000000600052601260045260246000fd5b60006144e1826132a3565b91506144ec836132a3565b9250826144fc576144fb6144a7565b5b828204905092915050565b7f4c324f75747075744f7261636c653a206f6e6c7920746865206368616c6c656e60008201527f67657220616464726573732063616e2064656c657465206f7574707574730000602082015250565b6000614563603e83613584565b915061456e82614507565b604082019050919050565b6000602082019050818103600083015261459281614556565b9050919050565b7f4c324f75747075744f7261636c653a2063616e6e6f742064656c65746520676560008201527f6e65736973206f75747075740000000000000000000000000000000000000000602082015250565b60006145f5602c83613584565b915061460082614599565b604082019050919050565b60006020820190508181036000830152614624816145e8565b9050919050565b7f4c324f75747075744f7261636c653a2063616e6e6f742064656c657465206f7560008201527f747075747320616674657220746865206c6174657374206f757470757420696e60208201527f6465780000000000000000000000000000000000000000000000000000000000604082015250565b60006146ad604383613584565b91506146b88261462b565b606082019050919050565b600060208201905081810360008301526146dc816146a0565b9050919050565b7f4c324f75747075744f7261636c653a2063616e6e6f742064656c657465206f7560008201527f74707574732074686174206861766520616c7265616479206265656e2066696e60208201527f616c697a65640000000000000000000000000000000000000000000000000000604082015250565b6000614765604683613584565b9150614770826146e3565b606082019050919050565b6000602082019050818103600083015261479481614758565b9050919050565b7f4c324f75747075744f7261636c653a206f6e6c7920617070726f76656420707260008201527f6f706f736572732063616e2070726f706f7365206e6577206f75747075747300602082015250565b60006147f7603f83613584565b91506148028261479b565b604082019050919050565b60006020820190508181036000830152614826816147ea565b9050919050565b7f4c324f75747075744f7261636c653a20626c6f636b206e756d626572206d757360008201527f7420626520657175616c20746f206e65787420657870656374656420626c6f6360208201527f6b206e756d626572000000000000000000000000000000000000000000000000604082015250565b60006148af604883613584565b91506148ba8261482d565b606082019050919050565b600060208201905081810360008301526148de816148a2565b9050919050565b7f4c324f75747075744f7261636c653a2063616e6e6f742070726f706f7365204c60008201527f32206f757470757420696e207468652066757475726500000000000000000000602082015250565b6000614941603683613584565b915061494c826148e5565b604082019050919050565b6000602082019050818103600083015261497081614934565b9050919050565b7f4c324f75747075744f7261636c653a204c32206f75747075742070726f706f7360008201527f616c2063616e6e6f7420626520746865207a65726f2068617368000000000000602082015250565b60006149d3603a83613584565b91506149de82614977565b604082019050919050565b60006020820190508181036000830152614a02816149c6565b9050919050565b7f4c324f75747075744f7261636c653a20626c6f636b206861736820646f65732060008201527f6e6f74206d61746368207468652068617368206174207468652065787065637460208201527f6564206865696768740000000000000000000000000000000000000000000000604082015250565b6000614a8b604983613584565b9150614a9682614a09565b606082019050919050565b60006020820190508181036000830152614aba81614a7e565b9050919050565b7f4c324f75747075744f7261636c653a20626c6f636b206e756d626572206d757360008201527f742062652067726561746572207468616e206f7220657175616c20746f206e6560208201527f787420657870656374656420626c6f636b206e756d6265720000000000000000604082015250565b6000614b43605883613584565b9150614b4e82614ac1565b606082019050919050565b60006020820190508181036000830152614b7281614b36565b9050919050565b7f4c324f75747075744f7261636c653a2063616e6e6f742070726f706f7365204c60008201527f32206f75747075742066726f6d206f757473696465204469737075746547616d60208201527f65466163746f72792e637265617465207768696c65206469737075746547616d60408201527f65466163746f7279206973207365740000000000000000000000000000000000606082015250565b6000614c21606f83613584565b9150614c2c82614b79565b608082019050919050565b60006020820190508181036000830152614c5081614c14565b9050919050565b7f4c324f75747075744f7261636c653a2063616e6e6f742070726f706f7365204c60008201527f32206f75747075742066726f6d20696e73696465204469737075746547616d6560208201527f466163746f72792e63726561746520776974686f75742073657474696e67206460408201527f69737075746547616d65466163746f7279000000000000000000000000000000606082015250565b6000614cff607183613584565b9150614d0a82614c57565b608082019050919050565b60006020820190508181036000830152614d2e81614cf2565b9050919050565b7f4c324f75747075744f7261636c653a20696e76616c6964204f5020537563636960008201527f6e637420636f6e66696775726174696f6e000000000000000000000000000000602082015250565b6000614d91603183613584565b9150614d9c82614d35565b604082019050919050565b60006020820190508181036000830152614dc081614d84565b9050919050565b614dd0816132a3565b82525050565b614ddf81613238565b82525050565b60e082016000820151614dfb6000850182613902565b506020820151614e0e6020850182613902565b506040820151614e216040850182613902565b506060820151614e346060850182614dc7565b506080820151614e476080850182613902565b5060a0820151614e5a60a0850182613902565b5060c0820151614e6d60c0850182614dd6565b50505050565b600060e082019050614e886000830184614de5565b92915050565b6000606082019050614ea36000830186613310565b8181036020830152614eb581856141ff565b90508181036040830152614ec981846141ff565b9050949350505050565b6000614ede826132a3565b9150614ee9836132a3565b9250817fffffffffffffffffffffffffffffffffffffffffffffffffffffffffffffffff0483118215151615614f2257614f21613cf4565b5b828202905092915050565b7f496e697469616c697a61626c653a20636f6e747261637420697320616c72656160008201527f647920696e697469616c697a6564000000000000000000000000000000000000602082015250565b6000614f89602e83613584565b9150614f9482614f2d565b604082019050919050565b60006020820190508181036000830152614fb881614f7c565b9050919050565b7f4c324f75747075744f7261636c653a204c3220626c6f636b2074696d65206d7560008201527f73742062652067726561746572207468616e2030000000000000000000000000602082015250565b600061501b603483613584565b915061502682614fbf565b604082019050919050565b6000602082019050818103600083015261504a8161500e565b9050919050565b7f4c324f75747075744f7261636c653a207374617274696e67204c322074696d6560008201527f7374616d70206d757374206265206c657373207468616e2063757272656e742060208201527f74696d6500000000000000000000000000000000000000000000000000000000604082015250565b60006150d3604483613584565b91506150de82615051565b606082019050919050565b60006020820190508181036000830152615102816150c6565b905091905056fea2646970667358221220f1b1fc1306af82a760d2c9e40e19b4cba6fb0476008a2b853da237a3e6c072ad64736f6c634300080f0033",
    "linkReferences": {}
  },
  "methodIdentifiers": {
    "GENESIS_CONFIG_NAME()": "f72f606d",
    "addOpSuccinctConfig(bytes32,bytes32,bytes32,bytes32)": "47c37e9c",
    "addProposer(address)": "b03cd418",
    "aggregationVkey()": "c32e4e3e",
    "approvedProposers(address)": "d4651276",
    "challenger()": "534db0e2",
    "checkpointBlockHash(uint256)": "1e856800",
    "computeL2Timestamp(uint256)": "d1de856c",
    "deleteL2Outputs(uint256)": "89c44cbb",
    "deleteOpSuccinctConfig(bytes32)": "ec5b2e3a",
    "dgfProposeL2Output(bytes32,bytes32,uint256,uint256,bytes,address)": "7a41a035",
    "disableOptimisticMode(uint256)": "4ab309ac",
    "disputeGameFactory()": "f2b4e617",
    "enableOptimisticMode(uint256)": "2c697961",
    "fallbackTimeout()": "4277bc06",
    "finalizationPeriodSeconds()": "ce5db8d6",
    "getL2Output(uint256)": "a25ae557",
    "getL2OutputAfter(uint256)": "cf8e5cf0",
    "getL2OutputIndexAfter(uint256)": "7f006420",
    "historicBlockHashes(uint256)": "a196b525",
    "initialize((address,address,address,uint256,uint256,bytes32,bytes32,bytes32,bytes32,uint256,uint256,uint256,address,uint256))": "e40b7a12",
    "initializerVersion()": "7f01ea68",
    "isValidOpSuccinctConfig((bytes32,bytes32,bytes32))": "49185e06",
    "l2BlockTime()": "93991af3",
    "lastProposalTimestamp()": "e0c2f935",
    "latestBlockNumber()": "4599c788",
    "latestOutputIndex()": "69f16eec",
    "nextBlockNumber()": "dcec3348",
    "nextOutputIndex()": "6abcf563",
    "opSuccinctConfigs(bytes32)": "6a56620b",
    "optimisticMode()": "60caf7a0",
    "owner()": "8da5cb5b",
    "proposeL2Output(bytes32,bytes32,uint256,uint256,bytes,address)": "a4ee9d7b",
    "proposeL2Output(bytes32,uint256,bytes32,uint256)": "9aaab648",
    "proposer()": "a8e4fb90",
    "rangeVkeyCommitment()": "2b31841e",
    "removeProposer(address)": "09d632d3",
    "rollupConfigHash()": "6d9a1c8b",
    "setDisputeGameFactory(address)": "3419d2c2",
    "startingBlockNumber()": "70872aa5",
    "startingTimestamp()": "88786272",
    "submissionInterval()": "e1a41bcf",
    "transferOwnership(address)": "f2fde38b",
    "updateSubmissionInterval(uint256)": "336c9e81",
    "updateVerifier(address)": "97fc007c",
    "verifier()": "2b7ac3f3",
    "version()": "54fd4d50"
  },
  "storageLayout": {
    "storage": [
      {
        "astId": 6,
        "contract": "src/validity/OPSuccinctL2OutputOracle.sol:OPSuccinctL2OutputOracle",
        "label": "_initialized",
        "offset": 0,
        "slot": "0",
        "type": "t_uint8"
      },
      {
        "astId": 9,
        "contract": "src/validity/OPSuccinctL2OutputOracle.sol:OPSuccinctL2OutputOracle",
        "label": "_initializing",
        "offset": 1,
        "slot": "0",
        "type": "t_bool"
      },
      {
        "astId": 1954,
        "contract": "src/validity/OPSuccinctL2OutputOracle.sol:OPSuccinctL2OutputOracle",
        "label": "startingBlockNumber",
        "offset": 0,
        "slot": "1",
        "type": "t_uint256"
      },
      {
        "astId": 1957,
        "contract": "src/validity/OPSuccinctL2OutputOracle.sol:OPSuccinctL2OutputOracle",
        "label": "startingTimestamp",
        "offset": 0,
        "slot": "2",
        "type": "t_uint256"
      },
      {
        "astId": 1962,
        "contract": "src/validity/OPSuccinctL2OutputOracle.sol:OPSuccinctL2OutputOracle",
        "label": "l2Outputs",
        "offset": 0,
        "slot": "3",
        "type": "t_array(t_struct(OutputProposal)1783_storage)dyn_storage"
      },
      {
        "astId": 1965,
        "contract": "src/validity/OPSuccinctL2OutputOracle.sol:OPSuccinctL2OutputOracle",
        "label": "submissionInterval",
        "offset": 0,
        "slot": "4",
        "type": "t_uint256"
      },
      {
        "astId": 1968,
        "contract": "src/validity/OPSuccinctL2OutputOracle.sol:OPSuccinctL2OutputOracle",
        "label": "l2BlockTime",
        "offset": 0,
        "slot": "5",
        "type": "t_uint256"
      },
      {
        "astId": 1971,
        "contract": "src/validity/OPSuccinctL2OutputOracle.sol:OPSuccinctL2OutputOracle",
        "label": "challenger",
        "offset": 0,
        "slot": "6",
        "type": "t_address"
      },
      {
        "astId": 1974,
        "contract": "src/validity/OPSuccinctL2OutputOracle.sol:OPSuccinctL2OutputOracle",
        "label": "proposer",
        "offset": 0,
        "slot": "7",
        "type": "t_address"
      },
      {
        "astId": 1977,
        "contract": "src/validity/OPSuccinctL2OutputOracle.sol:OPSuccinctL2OutputOracle",
        "label": "finalizationPeriodSeconds",
        "offset": 0,
        "slot": "8",
        "type": "t_uint256"
      },
      {
        "astId": 1980,
        "contract": "src/validity/OPSuccinctL2OutputOracle.sol:OPSuccinctL2OutputOracle",
        "label": "aggregationVkey",
        "offset": 0,
        "slot": "9",
        "type": "t_bytes32"
      },
      {
        "astId": 1983,
        "contract": "src/validity/OPSuccinctL2OutputOracle.sol:OPSuccinctL2OutputOracle",
        "label": "rangeVkeyCommitment",
        "offset": 0,
        "slot": "10",
        "type": "t_bytes32"
      },
      {
        "astId": 1986,
        "contract": "src/validity/OPSuccinctL2OutputOracle.sol:OPSuccinctL2OutputOracle",
        "label": "verifier",
        "offset": 0,
        "slot": "11",
        "type": "t_address"
      },
      {
        "astId": 1989,
        "contract": "src/validity/OPSuccinctL2OutputOracle.sol:OPSuccinctL2OutputOracle",
        "label": "rollupConfigHash",
        "offset": 0,
        "slot": "12",
        "type": "t_bytes32"
      },
      {
        "astId": 1992,
        "contract": "src/validity/OPSuccinctL2OutputOracle.sol:OPSuccinctL2OutputOracle",
        "label": "owner",
        "offset": 0,
        "slot": "13",
        "type": "t_address"
      },
      {
        "astId": 1997,
        "contract": "src/validity/OPSuccinctL2OutputOracle.sol:OPSuccinctL2OutputOracle",
        "label": "approvedProposers",
        "offset": 0,
        "slot": "14",
        "type": "t_mapping(t_address,t_bool)"
      },
      {
        "astId": 2002,
        "contract": "src/validity/OPSuccinctL2OutputOracle.sol:OPSuccinctL2OutputOracle",
        "label": "historicBlockHashes",
        "offset": 0,
        "slot": "15",
        "type": "t_mapping(t_uint256,t_bytes32)"
      },
      {
        "astId": 2005,
        "contract": "src/validity/OPSuccinctL2OutputOracle.sol:OPSuccinctL2OutputOracle",
        "label": "optimisticMode",
        "offset": 0,
        "slot": "16",
        "type": "t_bool"
      },
      {
        "astId": 2008,
        "contract": "src/validity/OPSuccinctL2OutputOracle.sol:OPSuccinctL2OutputOracle",
        "label": "fallbackTimeout",
        "offset": 0,
        "slot": "17",
        "type": "t_uint256"
      },
      {
        "astId": 2014,
        "contract": "src/validity/OPSuccinctL2OutputOracle.sol:OPSuccinctL2OutputOracle",
        "label": "opSuccinctConfigs",
        "offset": 0,
        "slot": "18",
        "type": "t_mapping(t_bytes32,t_struct(OpSuccinctConfig)1922_storage)"
      },
      {
        "astId": 2023,
        "contract": "src/validity/OPSuccinctL2OutputOracle.sol:OPSuccinctL2OutputOracle",
        "label": "disputeGameFactory",
        "offset": 0,
        "slot": "19",
        "type": "t_address"
      },
      {
        "astId": 2026,
        "contract": "src/validity/OPSuccinctL2OutputOracle.sol:OPSuccinctL2OutputOracle",
        "label": "_enteredDGFCreate",
        "offset": 20,
        "slot": "19",
        "type": "t_bool"
      }
    ],
    "types": {
      "t_address": {
        "encoding": "inplace",
        "label": "address",
        "numberOfBytes": "20"
      },
      "t_array(t_struct(OutputProposal)1783_storage)dyn_storage": {
        "encoding": "dynamic_array",
        "label": "struct Types.OutputProposal[]",
        "numberOfBytes": "32",
        "base": "t_struct(OutputProposal)1783_storage"
      },
      "t_bool": {
        "encoding": "inplace",
        "label": "bool",
        "numberOfBytes": "1"
      },
      "t_bytes32": {
        "encoding": "inplace",
        "label": "bytes32",
        "numberOfBytes": "32"
      },
      "t_mapping(t_address,t_bool)": {
        "encoding": "mapping",
        "key": "t_address",
        "label": "mapping(address => bool)",
        "numberOfBytes": "32",
        "value": "t_bool"
      },
      "t_mapping(t_bytes32,t_struct(OpSuccinctConfig)1922_storage)": {
        "encoding": "mapping",
        "key": "t_bytes32",
        "label": "mapping(bytes32 => struct OPSuccinctL2OutputOracle.OpSuccinctConfig)",
        "numberOfBytes": "32",
        "value": "t_struct(OpSuccinctConfig)1922_storage"
      },
      "t_mapping(t_uint256,t_bytes32)": {
        "encoding": "mapping",
        "key": "t_uint256",
        "label": "mapping(uint256 => bytes32)",
        "numberOfBytes": "32",
        "value": "t_bytes32"
      },
      "t_struct(OpSuccinctConfig)1922_storage": {
        "encoding": "inplace",
        "label": "struct OPSuccinctL2OutputOracle.OpSuccinctConfig",
        "numberOfBytes": "96",
        "members": [
          {
            "astId": 1915,
            "contract": "src/validity/OPSuccinctL2OutputOracle.sol:OPSuccinctL2OutputOracle",
            "label": "aggregationVkey",
            "offset": 0,
            "slot": "0",
            "type": "t_bytes32"
          },
          {
            "astId": 1918,
            "contract": "src/validity/OPSuccinctL2OutputOracle.sol:OPSuccinctL2OutputOracle",
            "label": "rangeVkeyCommitment",
            "offset": 0,
            "slot": "1",
            "type": "t_bytes32"
          },
          {
            "astId": 1921,
            "contract": "src/validity/OPSuccinctL2OutputOracle.sol:OPSuccinctL2OutputOracle",
            "label": "rollupConfigHash",
            "offset": 0,
            "slot": "2",
            "type": "t_bytes32"
          }
        ]
      },
      "t_struct(OutputProposal)1783_storage": {
        "encoding": "inplace",
        "label": "struct Types.OutputProposal",
        "numberOfBytes": "64",
        "members": [
          {
            "astId": 1778,
            "contract": "src/validity/OPSuccinctL2OutputOracle.sol:OPSuccinctL2OutputOracle",
            "label": "outputRoot",
            "offset": 0,
            "slot": "0",
            "type": "t_bytes32"
          },
          {
            "astId": 1780,
            "contract": "src/validity/OPSuccinctL2OutputOracle.sol:OPSuccinctL2OutputOracle",
            "label": "timestamp",
            "offset": 0,
            "slot": "1",
            "type": "t_uint128"
          },
          {
            "astId": 1782,
            "contract": "src/validity/OPSuccinctL2OutputOracle.sol:OPSuccinctL2OutputOracle",
            "label": "l2BlockNumber",
            "offset": 16,
            "slot": "1",
            "type": "t_uint128"
          }
        ]
      },
      "t_uint128": {
        "encoding": "inplace",
        "label": "uint128",
        "numberOfBytes": "16"
      },
      "t_uint256": {
        "encoding": "inplace",
        "label": "uint256",
        "numberOfBytes": "32"
      },
      "t_uint8": {
        "encoding": "inplace",
        "label": "uint8",
        "numberOfBytes": "1"
      }
    }
  },
  "id": 19
}