{
	"abi": [
		{
			"type": "constructor",
			"inputs": [
				{
					"name": "admin",
					"type": "address",
					"internalType": "address"
				}
			],
			"stateMutability": "nonpayable"
		},
		{
			"type": "receive",
			"stateMutability": "payable"
		},
		{
			"type": "function",
			"name": "calculateCommitmentSlotHash",
			"inputs": [
				{
					"name": "commitment",
					"type": "bytes32",
					"internalType": "bytes32"
				}
			],
			"outputs": [
				{
					"name": "",
					"type": "bytes",
					"internalType": "bytes"
				}
			],
			"stateMutability": "pure"
		},
		{
			"type": "function",
			"name": "cancelOrder",
			"inputs": [
				{
					"name": "order",
					"type": "tuple",
					"internalType": "struct Order",
					"components": [
						{
							"name": "user",
							"type": "bytes32",
							"internalType": "bytes32"
						},
						{
							"name": "sourceChain",
							"type": "bytes",
							"internalType": "bytes"
						},
						{
							"name": "destChain",
							"type": "bytes",
							"internalType": "bytes"
						},
						{
							"name": "deadline",
							"type": "uint256",
							"internalType": "uint256"
						},
						{
							"name": "nonce",
							"type": "uint256",
							"internalType": "uint256"
						},
						{
							"name": "fees",
							"type": "uint256",
							"internalType": "uint256"
						},
						{
							"name": "outputs",
							"type": "tuple[]",
							"internalType": "struct PaymentInfo[]",
							"components": [
								{
									"name": "token",
									"type": "bytes32",
									"internalType": "bytes32"
								},
								{
									"name": "amount",
									"type": "uint256",
									"internalType": "uint256"
								},
								{
									"name": "beneficiary",
									"type": "bytes32",
									"internalType": "bytes32"
								}
							]
						},
						{
							"name": "inputs",
							"type": "tuple[]",
							"internalType": "struct TokenInfo[]",
							"components": [
								{
									"name": "token",
									"type": "bytes32",
									"internalType": "bytes32"
								},
								{
									"name": "amount",
									"type": "uint256",
									"internalType": "uint256"
								}
							]
						},
						{
							"name": "callData",
							"type": "bytes",
							"internalType": "bytes"
						}
					]
				},
				{
					"name": "options",
					"type": "tuple",
					"internalType": "struct CancelOptions",
					"components": [
						{
							"name": "relayerFee",
							"type": "uint256",
							"internalType": "uint256"
						},
						{
							"name": "height",
							"type": "uint256",
							"internalType": "uint256"
						}
					]
				}
			],
			"outputs": [],
			"stateMutability": "payable"
		},
		{
			"type": "function",
			"name": "fillOrder",
			"inputs": [
				{
					"name": "order",
					"type": "tuple",
					"internalType": "struct Order",
					"components": [
						{
							"name": "user",
							"type": "bytes32",
							"internalType": "bytes32"
						},
						{
							"name": "sourceChain",
							"type": "bytes",
							"internalType": "bytes"
						},
						{
							"name": "destChain",
							"type": "bytes",
							"internalType": "bytes"
						},
						{
							"name": "deadline",
							"type": "uint256",
							"internalType": "uint256"
						},
						{
							"name": "nonce",
							"type": "uint256",
							"internalType": "uint256"
						},
						{
							"name": "fees",
							"type": "uint256",
							"internalType": "uint256"
						},
						{
							"name": "outputs",
							"type": "tuple[]",
							"internalType": "struct PaymentInfo[]",
							"components": [
								{
									"name": "token",
									"type": "bytes32",
									"internalType": "bytes32"
								},
								{
									"name": "amount",
									"type": "uint256",
									"internalType": "uint256"
								},
								{
									"name": "beneficiary",
									"type": "bytes32",
									"internalType": "bytes32"
								}
							]
						},
						{
							"name": "inputs",
							"type": "tuple[]",
							"internalType": "struct TokenInfo[]",
							"components": [
								{
									"name": "token",
									"type": "bytes32",
									"internalType": "bytes32"
								},
								{
									"name": "amount",
									"type": "uint256",
									"internalType": "uint256"
								}
							]
						},
						{
							"name": "callData",
							"type": "bytes",
							"internalType": "bytes"
						}
					]
				},
				{
					"name": "options",
					"type": "tuple",
					"internalType": "struct FillOptions",
					"components": [
						{
							"name": "relayerFee",
							"type": "uint256",
							"internalType": "uint256"
						}
					]
				}
			],
			"outputs": [],
			"stateMutability": "payable"
		},
		{
			"type": "function",
			"name": "host",
			"inputs": [],
			"outputs": [
				{
					"name": "",
					"type": "address",
					"internalType": "address"
				}
			],
			"stateMutability": "view"
		},
		{
			"type": "function",
			"name": "instance",
			"inputs": [
				{
					"name": "stateMachineId",
					"type": "bytes",
					"internalType": "bytes"
				}
			],
			"outputs": [
				{
					"name": "",
					"type": "bytes32",
					"internalType": "bytes32"
				}
			],
			"stateMutability": "view"
		},
		{
			"type": "function",
			"name": "onAccept",
			"inputs": [
				{
					"name": "incoming",
					"type": "tuple",
					"internalType": "struct IncomingPostRequest",
					"components": [
						{
							"name": "request",
							"type": "tuple",
							"internalType": "struct PostRequest",
							"components": [
								{
									"name": "source",
									"type": "bytes",
									"internalType": "bytes"
								},
								{
									"name": "dest",
									"type": "bytes",
									"internalType": "bytes"
								},
								{
									"name": "nonce",
									"type": "uint64",
									"internalType": "uint64"
								},
								{
									"name": "from",
									"type": "bytes",
									"internalType": "bytes"
								},
								{
									"name": "to",
									"type": "bytes",
									"internalType": "bytes"
								},
								{
									"name": "timeoutTimestamp",
									"type": "uint64",
									"internalType": "uint64"
								},
								{
									"name": "body",
									"type": "bytes",
									"internalType": "bytes"
								}
							]
						},
						{
							"name": "relayer",
							"type": "address",
							"internalType": "address"
						}
					]
				}
			],
			"outputs": [],
			"stateMutability": "nonpayable"
		},
		{
			"type": "function",
			"name": "onGetResponse",
			"inputs": [
				{
					"name": "incoming",
					"type": "tuple",
					"internalType": "struct IncomingGetResponse",
					"components": [
						{
							"name": "response",
							"type": "tuple",
							"internalType": "struct GetResponse",
							"components": [
								{
									"name": "request",
									"type": "tuple",
									"internalType": "struct GetRequest",
									"components": [
										{
											"name": "source",
											"type": "bytes",
											"internalType": "bytes"
										},
										{
											"name": "dest",
											"type": "bytes",
											"internalType": "bytes"
										},
										{
											"name": "nonce",
											"type": "uint64",
											"internalType": "uint64"
										},
										{
											"name": "from",
											"type": "address",
											"internalType": "address"
										},
										{
											"name": "timeoutTimestamp",
											"type": "uint64",
											"internalType": "uint64"
										},
										{
											"name": "keys",
											"type": "bytes[]",
											"internalType": "bytes[]"
										},
										{
											"name": "height",
											"type": "uint64",
											"internalType": "uint64"
										},
										{
											"name": "context",
											"type": "bytes",
											"internalType": "bytes"
										}
									]
								},
								{
									"name": "values",
									"type": "tuple[]",
									"internalType": "struct StorageValue[]",
									"components": [
										{
											"name": "key",
											"type": "bytes",
											"internalType": "bytes"
										},
										{
											"name": "value",
											"type": "bytes",
											"internalType": "bytes"
										}
									]
								}
							]
						},
						{
							"name": "relayer",
							"type": "address",
							"internalType": "address"
						}
					]
				}
			],
			"outputs": [],
			"stateMutability": "nonpayable"
		},
		{
			"type": "function",
			"name": "onGetTimeout",
			"inputs": [
				{
					"name": "",
					"type": "tuple",
					"internalType": "struct GetRequest",
					"components": [
						{
							"name": "source",
							"type": "bytes",
							"internalType": "bytes"
						},
						{
							"name": "dest",
							"type": "bytes",
							"internalType": "bytes"
						},
						{
							"name": "nonce",
							"type": "uint64",
							"internalType": "uint64"
						},
						{
							"name": "from",
							"type": "address",
							"internalType": "address"
						},
						{
							"name": "timeoutTimestamp",
							"type": "uint64",
							"internalType": "uint64"
						},
						{
							"name": "keys",
							"type": "bytes[]",
							"internalType": "bytes[]"
						},
						{
							"name": "height",
							"type": "uint64",
							"internalType": "uint64"
						},
						{
							"name": "context",
							"type": "bytes",
							"internalType": "bytes"
						}
					]
				}
			],
			"outputs": [],
			"stateMutability": "nonpayable"
		},
		{
			"type": "function",
			"name": "onPostRequestTimeout",
			"inputs": [
				{
					"name": "",
					"type": "tuple",
					"internalType": "struct PostRequest",
					"components": [
						{
							"name": "source",
							"type": "bytes",
							"internalType": "bytes"
						},
						{
							"name": "dest",
							"type": "bytes",
							"internalType": "bytes"
						},
						{
							"name": "nonce",
							"type": "uint64",
							"internalType": "uint64"
						},
						{
							"name": "from",
							"type": "bytes",
							"internalType": "bytes"
						},
						{
							"name": "to",
							"type": "bytes",
							"internalType": "bytes"
						},
						{
							"name": "timeoutTimestamp",
							"type": "uint64",
							"internalType": "uint64"
						},
						{
							"name": "body",
							"type": "bytes",
							"internalType": "bytes"
						}
					]
				}
			],
			"outputs": [],
			"stateMutability": "nonpayable"
		},
		{
			"type": "function",
			"name": "onPostResponse",
			"inputs": [
				{
					"name": "",
					"type": "tuple",
					"internalType": "struct IncomingPostResponse",
					"components": [
						{
							"name": "response",
							"type": "tuple",
							"internalType": "struct PostResponse",
							"components": [
								{
									"name": "request",
									"type": "tuple",
									"internalType": "struct PostRequest",
									"components": [
										{
											"name": "source",
											"type": "bytes",
											"internalType": "bytes"
										},
										{
											"name": "dest",
											"type": "bytes",
											"internalType": "bytes"
										},
										{
											"name": "nonce",
											"type": "uint64",
											"internalType": "uint64"
										},
										{
											"name": "from",
											"type": "bytes",
											"internalType": "bytes"
										},
										{
											"name": "to",
											"type": "bytes",
											"internalType": "bytes"
										},
										{
											"name": "timeoutTimestamp",
											"type": "uint64",
											"internalType": "uint64"
										},
										{
											"name": "body",
											"type": "bytes",
											"internalType": "bytes"
										}
									]
								},
								{
									"name": "response",
									"type": "bytes",
									"internalType": "bytes"
								},
								{
									"name": "timeoutTimestamp",
									"type": "uint64",
									"internalType": "uint64"
								}
							]
						},
						{
							"name": "relayer",
							"type": "address",
							"internalType": "address"
						}
					]
				}
			],
			"outputs": [],
			"stateMutability": "nonpayable"
		},
		{
			"type": "function",
			"name": "onPostResponseTimeout",
			"inputs": [
				{
					"name": "",
					"type": "tuple",
					"internalType": "struct PostResponse",
					"components": [
						{
							"name": "request",
							"type": "tuple",
							"internalType": "struct PostRequest",
							"components": [
								{
									"name": "source",
									"type": "bytes",
									"internalType": "bytes"
								},
								{
									"name": "dest",
									"type": "bytes",
									"internalType": "bytes"
								},
								{
									"name": "nonce",
									"type": "uint64",
									"internalType": "uint64"
								},
								{
									"name": "from",
									"type": "bytes",
									"internalType": "bytes"
								},
								{
									"name": "to",
									"type": "bytes",
									"internalType": "bytes"
								},
								{
									"name": "timeoutTimestamp",
									"type": "uint64",
									"internalType": "uint64"
								},
								{
									"name": "body",
									"type": "bytes",
									"internalType": "bytes"
								}
							]
						},
						{
							"name": "response",
							"type": "bytes",
							"internalType": "bytes"
						},
						{
							"name": "timeoutTimestamp",
							"type": "uint64",
							"internalType": "uint64"
						}
					]
				}
			],
			"outputs": [],
			"stateMutability": "nonpayable"
		},
		{
			"type": "function",
			"name": "params",
			"inputs": [],
			"outputs": [
				{
					"name": "",
					"type": "tuple",
					"internalType": "struct Params",
					"components": [
						{
							"name": "host",
							"type": "address",
							"internalType": "address"
						},
						{
							"name": "dispatcher",
							"type": "address",
							"internalType": "address"
						}
					]
				}
			],
			"stateMutability": "view"
		},
		{
			"type": "function",
			"name": "placeOrder",
			"inputs": [
				{
					"name": "order",
					"type": "tuple",
					"internalType": "struct Order",
					"components": [
						{
							"name": "user",
							"type": "bytes32",
							"internalType": "bytes32"
						},
						{
							"name": "sourceChain",
							"type": "bytes",
							"internalType": "bytes"
						},
						{
							"name": "destChain",
							"type": "bytes",
							"internalType": "bytes"
						},
						{
							"name": "deadline",
							"type": "uint256",
							"internalType": "uint256"
						},
						{
							"name": "nonce",
							"type": "uint256",
							"internalType": "uint256"
						},
						{
							"name": "fees",
							"type": "uint256",
							"internalType": "uint256"
						},
						{
							"name": "outputs",
							"type": "tuple[]",
							"internalType": "struct PaymentInfo[]",
							"components": [
								{
									"name": "token",
									"type": "bytes32",
									"internalType": "bytes32"
								},
								{
									"name": "amount",
									"type": "uint256",
									"internalType": "uint256"
								},
								{
									"name": "beneficiary",
									"type": "bytes32",
									"internalType": "bytes32"
								}
							]
						},
						{
							"name": "inputs",
							"type": "tuple[]",
							"internalType": "struct TokenInfo[]",
							"components": [
								{
									"name": "token",
									"type": "bytes32",
									"internalType": "bytes32"
								},
								{
									"name": "amount",
									"type": "uint256",
									"internalType": "uint256"
								}
							]
						},
						{
							"name": "callData",
							"type": "bytes",
							"internalType": "bytes"
						}
					]
				},
				{
					"name": "graffiti",
					"type": "bytes32",
					"internalType": "bytes32"
				}
			],
			"outputs": [],
			"stateMutability": "payable"
		},
		{
			"type": "function",
			"name": "setParams",
			"inputs": [
				{
					"name": "p",
					"type": "tuple",
					"internalType": "struct Params",
					"components": [
						{
							"name": "host",
							"type": "address",
							"internalType": "address"
						},
						{
							"name": "dispatcher",
							"type": "address",
							"internalType": "address"
						}
					]
				}
			],
			"outputs": [],
			"stateMutability": "nonpayable"
		},
		{
			"type": "event",
			"name": "EscrowRefunded",
			"inputs": [
				{
					"name": "commitment",
					"type": "bytes32",
					"indexed": true,
					"internalType": "bytes32"
				}
			],
			"anonymous": false
		},
		{
			"type": "event",
			"name": "EscrowReleased",
			"inputs": [
				{
					"name": "commitment",
					"type": "bytes32",
					"indexed": true,
					"internalType": "bytes32"
				}
			],
			"anonymous": false
		},
		{
			"type": "event",
			"name": "NewDeploymentAdded",
			"inputs": [
				{
					"name": "stateMachineId",
					"type": "bytes",
					"indexed": false,
					"internalType": "bytes"
				},
				{
					"name": "gateway",
					"type": "bytes32",
					"indexed": false,
					"internalType": "bytes32"
				}
			],
			"anonymous": false
		},
		{
			"type": "event",
			"name": "OrderFilled",
			"inputs": [
				{
					"name": "commitment",
					"type": "bytes32",
					"indexed": true,
					"internalType": "bytes32"
				},
				{
					"name": "filler",
					"type": "address",
					"indexed": false,
					"internalType": "address"
				}
			],
			"anonymous": false
		},
		{
			"type": "event",
			"name": "OrderPlaced",
			"inputs": [
				{
					"name": "user",
					"type": "bytes32",
					"indexed": false,
					"internalType": "bytes32"
				},
				{
					"name": "sourceChain",
					"type": "bytes",
					"indexed": false,
					"internalType": "bytes"
				},
				{
					"name": "destChain",
					"type": "bytes",
					"indexed": false,
					"internalType": "bytes"
				},
				{
					"name": "deadline",
					"type": "uint256",
					"indexed": false,
					"internalType": "uint256"
				},
				{
					"name": "nonce",
					"type": "uint256",
					"indexed": false,
					"internalType": "uint256"
				},
				{
					"name": "fees",
					"type": "uint256",
					"indexed": false,
					"internalType": "uint256"
				},
				{
					"name": "outputs",
					"type": "tuple[]",
					"indexed": false,
					"internalType": "struct PaymentInfo[]",
					"components": [
						{
							"name": "token",
							"type": "bytes32",
							"internalType": "bytes32"
						},
						{
							"name": "amount",
							"type": "uint256",
							"internalType": "uint256"
						},
						{
							"name": "beneficiary",
							"type": "bytes32",
							"internalType": "bytes32"
						}
					]
				},
				{
					"name": "inputs",
					"type": "tuple[]",
					"indexed": false,
					"internalType": "struct TokenInfo[]",
					"components": [
						{
							"name": "token",
							"type": "bytes32",
							"internalType": "bytes32"
						},
						{
							"name": "amount",
							"type": "uint256",
							"internalType": "uint256"
						}
					]
				},
				{
					"name": "callData",
					"type": "bytes",
					"indexed": false,
					"internalType": "bytes"
				}
			],
			"anonymous": false
		},
		{
			"type": "event",
			"name": "ParamsUpdated",
			"inputs": [
				{
					"name": "previous",
					"type": "tuple",
					"indexed": false,
					"internalType": "struct Params",
					"components": [
						{
							"name": "host",
							"type": "address",
							"internalType": "address"
						},
						{
							"name": "dispatcher",
							"type": "address",
							"internalType": "address"
						}
					]
				},
				{
					"name": "current",
					"type": "tuple",
					"indexed": false,
					"internalType": "struct Params",
					"components": [
						{
							"name": "host",
							"type": "address",
							"internalType": "address"
						},
						{
							"name": "dispatcher",
							"type": "address",
							"internalType": "address"
						}
					]
				}
			],
			"anonymous": false
		},
		{
			"type": "error",
			"name": "Expired",
			"inputs": []
		},
		{
			"type": "error",
			"name": "Filled",
			"inputs": []
		},
		{
			"type": "error",
			"name": "InsufficientNativeToken",
			"inputs": []
		},
		{
			"type": "error",
			"name": "InvalidInput",
			"inputs": []
		},
		{
			"type": "error",
			"name": "NotExpired",
			"inputs": []
		},
		{
			"type": "error",
			"name": "Unauthorized",
			"inputs": []
		},
		{
			"type": "error",
			"name": "UnauthorizedCall",
			"inputs": []
		},
		{
			"type": "error",
			"name": "UnexpectedCall",
			"inputs": []
		},
		{
			"type": "error",
			"name": "UnknownOrder",
			"inputs": []
		},
		{
			"type": "error",
			"name": "WrongChain",
			"inputs": []
		}
	],
	"bytecode": {
		"object": "0x608060405234801562000010575f80fd5b50604051620045673803806200456783398101604081905262000033916200015a565b5f620000476001546001600160a01b031690565b90506001600160a01b038116156200013357806001600160a01b031663647846a56040518163ffffffff1660e01b8152600401602060405180830381865afa15801562000096573d5f803e3d5ffd5b505050506040513d601f19601f82011682018060405250810190620000bc91906200015a565b60405163095ea7b360e01b81526001600160a01b0383811660048301525f196024830152919091169063095ea7b3906044016020604051808303815f875af11580156200010b573d5f803e3d5ffd5b505050506040513d601f19601f8201168201806040525081019062000131919062000189565b505b50600380546001600160a01b0319166001600160a01b0392909216919091179055620001aa565b5f602082840312156200016b575f80fd5b81516001600160a01b038116811462000182575f80fd5b9392505050565b5f602082840312156200019a575f80fd5b8151801515811462000182575f80fd5b6143af80620001b85f395ff3fe60806040526004361061011e575f3560e01c8063b2a01bf51161009d578063cff0ab9611610062578063cff0ab96146102ee578063d0fff3661461033a578063d24740fb14610354578063dd92a31614610373578063f437bc5914610392575f80fd5b8063b2a01bf514610269578063b53eafe914610283578063bc0dd44714610296578063bca96c39146102b0578063c2977d2f146102cf575f80fd5b80634f3f7c05116100e35780634f3f7c05146101d957806360121a94146101f8578063632e235a14610224578063731c8b32146102435780637f84d22914610256575f80fd5b80630bc37bab146101295780630bddd96c1461014a5780630fee32ce1461017c578063108bc1dd1461019b57806344ab20f8146101ba575f80fd5b3661012557005b5f80fd5b348015610134575f80fd5b50610148610143366004612b99565b6103b9565b005b348015610155575f80fd5b50610169610164366004612bca565b6103fd565b6040519081526020015b60405180910390f35b348015610187575f80fd5b50610148610196366004612c35565b610445565b3480156101a6575f80fd5b506101696101b5366004612c8a565b610705565b3480156101c5575f80fd5b506101486101d4366004612f02565b6107c3565b3480156101e4575f80fd5b506101696101f3366004612c8a565b610afa565b348015610203575f80fd5b5061021761021236600461309c565b610d49565b6040516101739190613100565b34801561022f575f80fd5b5061016961023e366004613112565b610d92565b6101486102513660046132ed565b610d9d565b61014861026436600461342c565b611377565b348015610274575f80fd5b506101486101433660046134a6565b610148610291366004613524565b611a69565b3480156102a1575f80fd5b50610148610143366004613590565b3480156102bb575f80fd5b506101696102ca3660046135c1565b611f15565b3480156102da575f80fd5b506101486102e936600461369a565b612044565b3480156102f9575f80fd5b506040805180820182525f80825260209182015281518083019092526001546001600160a01b039081168352600254169082015260405161017391906136d9565b348015610345575f80fd5b506101486101433660046136fd565b34801561035f575f80fd5b5061016961036e3660046135c1565b612183565b34801561037e575f80fd5b5061016961038d366004613112565b61218e565b34801561039d575f80fd5b506001546040516001600160a01b039091168152602001610173565b6001546001600160a01b031633146103e457604051637bf6a16f60e01b815260040160405180910390fd5b6040516302cbc79f60e01b815260040160405180910390fd5b5f8060065f858560405161041292919061372e565b604051809103902081526020019081526020015f205490505f801b8114610439578061043b565b305b9150505b92915050565b6001546001600160a01b0316331461047057604051637bf6a16f60e01b815260040160405180910390fd5b5f61047b828061373d565b6104899060c081019061375b565b5f818110610499576104996137a4565b919091013560f81c905060028111156104b4576104b46137b8565b90505f8160028111156104c9576104c96137b8565b036104db576104d782612246565b5050565b6001546001600160a01b03166001600160a01b0316625e763e6040518163ffffffff1660e01b81526004015f60405180830381865afa158015610520573d5f803e3d5ffd5b505050506040513d5f823e601f3d908101601f1916820160405261054791908101906137cc565b8051602090910120610559838061373d565b610563908061375b565b60405161057192919061372e565b604051809103902014610596576040516282b42960e81b815260040160405180910390fd5b60018160028111156105aa576105aa6137b8565b03610644575f6105ba838061373d565b6105c89060c081019061375b565b6105d691600190829061383d565b8101906105e39190613864565b6020808201805183518051908401205f9081526006909352604092839020558251905191519293507ff6ef54addfd2bdaa8b0c1fa61c3a9bbf6dde3c0e2640fa16a88f7b38ce5368e39261063792906138d8565b60405180910390a1505050565b6002816002811115610658576106586137b8565b036104d7575f610668838061373d565b6106769060c081019061375b565b61068491600190829061383d565b810190610691919061369a565b90507fa71f7687ff8346b13c6f0923b96164593da1bb1ac8e6c571499fcd041d57245e6001826040516106c59291906138f9565b60405180910390a18051600180546001600160a01b03199081166001600160a01b0393841617909155602090920151600280549093169116179055505b50565b5f8082604001515160201161071f57826040015151610722565b60205b90506107366001546001600160a01b031690565b8351604051632008f60560e11b81526001600160a01b039290921691634011ec0a9161076491600401613100565b602060405180830381865afa15801561077f573d5f803e3d5ffd5b505050506040513d601f19601f820116820180604052508101906107a3919061393a565b6107ad9082613965565b83608001516107bc919061397c565b9392505050565b6001546001600160a01b031633146107ee57604051637bf6a16f60e01b815260040160405180910390fd5b80516020015180515f90610804576108046137a4565b602002602001015160200151515f146108305760405163413e917360e11b815260040160405180910390fd5b80515160e0015180515f9161084d9181016020908101910161398f565b6020810151604082015151919250905f5b818110156109dd575f8460400151828151811061087d5761087d6137a4565b60200260200101515f01515f1c90505f856040015183815181106108a3576108a36137a4565b60209081029190910181015181015187515f9081526004835260408082206001600160a01b03871683529093529182205490925090036108f657604051635c1c6f4b60e11b815260040160405180910390fd5b6001600160a01b03821661097a575f856001600160a01b0316826040515f6040518083038185875af1925050503d805f811461094d576040519150601f19603f3d011682016040523d82523d5f602084013e610952565b606091505b5050905080610974576040516332201f6960e11b815260040160405180910390fd5b5061098e565b61098e6001600160a01b0383168683612553565b85515f9081526004602090815260408083206001600160a01b0386168452909152812080548392906109c1908490613a82565b92505081905550505080806109d590613a95565b91505061085e565b5082515f90815260046020908152604080832073d254fdaa2ce7841c7794b71b85f15052f5aeac8284529091529020548015610ac957610a998382610a2a6001546001600160a01b031690565b6001600160a01b031663647846a56040518163ffffffff1660e01b8152600401602060405180830381865afa158015610a65573d5f803e3d5ffd5b505050506040513d601f19601f82011682018060405250810190610a899190613aad565b6001600160a01b03169190612553565b83515f90815260046020908152604080832073d254fdaa2ce7841c7794b71b85f15052f5aeac8284529091528120555b83516040517f7b08f2d2a35d68f512d4ee819cc6c616e61aa7cd7f7b0855d95ba090d84dc436905f90a25050505050565b5f80610b0583610705565b90505f610b1a6001546001600160a01b031690565b90505f816001600160a01b0316631694505e6040518163ffffffff1660e01b8152600401602060405180830381865afa158015610b59573d5f803e3d5ffd5b505050506040513d601f19601f82011682018060405250810190610b7d9190613aad565b6040805160028082526060820183529293505f929091602083019080368337019050509050816001600160a01b031663ad5c46486040518163ffffffff1660e01b8152600401602060405180830381865afa158015610bde573d5f803e3d5ffd5b505050506040513d601f19601f82011682018060405250810190610c029190613aad565b815f81518110610c1457610c146137a4565b60200260200101906001600160a01b031690816001600160a01b031681525050826001600160a01b031663647846a56040518163ffffffff1660e01b8152600401602060405180830381865afa158015610c70573d5f803e3d5ffd5b505050506040513d601f19601f82011682018060405250810190610c949190613aad565b81600181518110610ca757610ca76137a4565b6001600160a01b0392831660209182029290920101526040516307c0329d60e21b815290831690631f00ca7490610ce49087908590600401613b0a565b5f60405180830381865afa158015610cfe573d5f803e3d5ffd5b505050506040513d5f823e601f3d908101601f19168201604052610d259190810190613b22565b5f81518110610d3657610d366137a4565b6020026020010151945050505050919050565b6040805160056020820152908101829052606090810160408051601f19818403018152828252805160209182012090830152016040516020818303038152906040529050919050565b5f80610b058361218e565b5f610db06001546001600160a01b031690565b5f805460808601523385526040805163f437bc5960e01b815290519293506001600160a01b0384169263f437bc59926004808401939192918290030181865afa158015610dff573d5f803e3d5ffd5b505050506040513d5f823e601f3d908101601f19168201604052610e2691908101906137cc565b83602001819052505f83604051602001610e409190613c1f565b60408051601f19818403018152919052805160209091012060e08501515190915034905f5b81811015611007578660e001518181518110610e8357610e836137a4565b6020026020010151602001515f03610eae5760405163b4fa3fb360e01b815260040160405180910390fd5b5f8760e001518281518110610ec557610ec56137a4565b60209081029190910101515190506001600160a01b038116610f57578760e001518281518110610ef757610ef76137a4565b602002602001015160200151841015610f23576040516332201f6960e11b815260040160405180910390fd5b8760e001518281518110610f3957610f396137a4565b60200260200101516020015184610f509190613a82565b9350610f98565b610f9833308a60e001518581518110610f7257610f726137a4565b602002602001015160200151846001600160a01b03166125bb909392919063ffffffff16565b8760e001518281518110610fae57610fae6137a4565b6020908102919091018101518101515f8781526004835260408082206001600160a01b0386168352909352918220805491929091610fed90849061397c565b90915550829150610fff905081613a95565b915050610e65565b5060a0860151156112ee575f846001600160a01b031663647846a56040518163ffffffff1660e01b8152600401602060405180830381865afa15801561104f573d5f803e3d5ffd5b505050506040513d601f19601f820116820180604052508101906110739190613aad565b9050821561129d575f856001600160a01b0316631694505e6040518163ffffffff1660e01b8152600401602060405180830381865afa1580156110b8573d5f803e3d5ffd5b505050506040513d601f19601f820116820180604052508101906110dc9190613aad565b90505f816001600160a01b031663ad5c46486040518163ffffffff1660e01b8152600401602060405180830381865afa15801561111b573d5f803e3d5ffd5b505050506040513d601f19601f8201168201806040525081019061113f9190613aad565b6040805160028082526060820183529293505f92909160208301908036833701905050905081815f81518110611177576111776137a4565b60200260200101906001600160a01b031690816001600160a01b031681525050876001600160a01b031663647846a56040518163ffffffff1660e01b8152600401602060405180830381865afa1580156111d3573d5f803e3d5ffd5b505050506040513d601f19601f820116820180604052508101906111f79190613aad565b8160018151811061120a5761120a6137a4565b6001600160a01b03928316602091820292909201015260a08b0151604051637ff36ab560e01b815291851691637ff36ab59189916112519190869030904290600401613cdb565b5f6040518083038185885af115801561126c573d5f803e3d5ffd5b50505050506040513d5f823e601f3d908101601f191682016040526112949190810190613b22565b505050506112ba565b60a08701516112ba906001600160a01b03831690339030906125bb565b5060a08601515f84815260046020908152604080832073d254fdaa2ce7841c7794b71b85f15052f5aeac8284529091529020555b60015f808282546112ff919061397c565b90915550508551602087015160408089015160608a015160808b015160a08c015160c08d015160e08e01516101008f015196517fd969ab7a9f9c7b547e1500b952901705e8ae61385f62d7b9a8baa5345a0ac07d996113679990989097969594939291613d0f565b60405180910390a1505050505050565b5f61138a6001546001600160a01b031690565b9050806001600160a01b031663f437bc596040518163ffffffff1660e01b81526004015f60405180830381865afa1580156113c7573d5f803e3d5ffd5b505050506040513d5f823e601f3d908101601f191682016040526113ee91908101906137cc565b8051602090910120611403604085018561375b565b60405161141192919061372e565b604051809103902014611437576040516310dfc03360e01b815260040160405180910390fd5b438360600135101561145c57604051630407b05b60e31b815260040160405180910390fd5b5f8360405160200161146e9190613efe565b60408051601f1981840301815291815281516020928301205f81815260059093529120549091506001600160a01b0316156114bc5760405163413e917360e11b815260040160405180910390fd5b345f6114cb60c0870187613ff0565b905090505f5b818110156116ba575f6114e760c0890189613ff0565b838181106114f7576114f76137a4565b606002919091013591505f905061151160c08a018a613ff0565b84818110611521576115216137a4565b905060600201604001355f1c90505f6001600160a01b0316826001600160a01b03160361165f5761155560c08a018a613ff0565b84818110611565576115656137a4565b9050606002016020013585101561158f576040516332201f6960e11b815260040160405180910390fd5b5f6001600160a01b0382166115a760c08c018c613ff0565b868181106115b7576115b76137a4565b905060600201602001356040515f6040518083038185875af1925050503d805f81146115fe576040519150601f19603f3d011682016040523d82523d5f602084013e611603565b606091505b5050905080611625576040516332201f6960e11b815260040160405180910390fd5b61163260c08b018b613ff0565b85818110611642576116426137a4565b90506060020160200135866116579190613a82565b9550506116a5565b6116a5338261167160c08d018d613ff0565b87818110611681576116816137a4565b90506060020160200135856001600160a01b03166125bb909392919063ffffffff16565b505080806116b290613a95565b9150506114d1565b505f6116ca61010088018861375b565b9050111561173c576002546001600160a01b031663ab7fff186116f161010089018961375b565b6040518363ffffffff1660e01b815260040161170e929190614034565b5f604051808303815f87803b158015611725575f80fd5b505af1158015611737573d5f803e3d5ffd5b505050505b604080516060810182528481523360208201525f91810161176060e08a018a614047565b808060200260200160405190810160405280939291908181526020015f905b828210156117ab5761179c6040830286013681900381019061408c565b8152602001906001019061177f565b50505050508152506040516020016117c391906140a6565b60408051601f1981840301815260c0830190915291505f90806117e960208b018b61375b565b8080601f0160208091040260200160405190810160405280939291908181526020018383808284375f9201919091525050509082525060209081019061183590610164908c018c61375b565b60405160200161184791815260200190565b60408051601f1981840301815291905281526020015f60f81b846040516020016118729291906140d4565b60408051601f198184030181529181529082525f602083015289519082015233606090910152905083156119155760405163b8f3e8f560e01b81526001600160a01b0387169063b8f3e8f59086906118ce908590600401614104565b60206040518083038185885af11580156118ea573d5f803e3d5ffd5b50505050506040513d601f19601f8201168201806040525081019061190f919061393a565b50611a09565b5f866001600160a01b031663647846a56040518163ffffffff1660e01b8152600401602060405180830381865afa158015611952573d5f803e3d5ffd5b505050506040513d601f19601f820116820180604052508101906119769190613aad565b90505f61198283610705565b90506119996001600160a01b0383163330846125bb565b60405163b8f3e8f560e01b81526001600160a01b0389169063b8f3e8f5906119c5908690600401614104565b6020604051808303815f875af11580156119e1573d5f803e3d5ffd5b505050506040513d601f19601f82011682018060405250810190611a05919061393a565b5050505b5f8581526005602090815260409182902080546001600160a01b03191633908117909155915191825286917f0555709e59fb225fcf12cc582a9e5f7fd8eea54c91f3dc500ab9d8c37c507770910160405180910390a25050505050505050565b5f82604051602001611a7b9190613efe565b60408051601f198184030181529190528051602090910120905082353314611ab5576040516282b42960e81b815260040160405180910390fd5b8260600135826020015111611add5760405163d0404f8560e01b815260040160405180910390fd5b5f818152600560205260409020546001600160a01b031615611b125760405163413e917360e11b815260040160405180910390fd5b5f611b2060e0850185614047565b905090505f5b81811015611bb5575f83815260046020526040812090611b4960e0880188614047565b84818110611b5957611b596137a4565b9050604002015f01355f1c6001600160a01b03166001600160a01b031681526020019081526020015f20545f03611ba357604051635c1c6f4b60e11b815260040160405180910390fd5b80611bad81613a95565b915050611b26565b5060408051606081018252838152853560208201525f918101611bdb60e0880188614047565b808060200260200160405190810160405280939291908181526020015f905b82821015611c2657611c176040830286013681900381019061408c565b81526020019060010190611bfa565b5050505050815250604051602001611c3e91906140a6565b60408051808303601f19018152600180845283830190925292505f9190816020015b6060815260200190600190039081611c60579050509050611c87610164604088018861375b565b604051611caf919060200160609190911b6bffffffffffffffffffffffff1916815260140190565b604051602081830303815290604052611cc785610d49565b604051602001611cd8929190614197565b604051602081830303815290604052815f81518110611cf957611cf96137a4565b60200260200101819052505f6040518060c00160405280888060400190611d20919061375b565b8080601f0160208091040260200160405190810160405280939291908181526020018383808284375f9201829052509385525050506020898101516001600160401b03169083015260408201859052606082018190528851608083015260a0909101859052909150611d9a6001546001600160a01b031690565b90503415611e175760405163d22e334360e01b81526001600160a01b0382169063d22e3343903490611dd09086906004016141c5565b60206040518083038185885af1158015611dec573d5f803e3d5ffd5b50505050506040513d601f19601f82011682018060405250810190611e11919061393a565b50611f0b565b5f816001600160a01b031663647846a56040518163ffffffff1660e01b8152600401602060405180830381865afa158015611e54573d5f803e3d5ffd5b505050506040513d601f19601f82011682018060405250810190611e789190613aad565b90505f611e8484611f15565b9050611e9b6001600160a01b0383163330846125bb565b60405163d22e334360e01b81526001600160a01b0384169063d22e334390611ec79087906004016141c5565b6020604051808303815f875af1158015611ee3573d5f803e3d5ffd5b505050506040513d601f19601f82011682018060405250810190611f07919061393a565b5050505b5050505050505050565b5f80611f296001546001600160a01b031690565b90505f816001600160a01b0316634011ec0a836001600160a01b031663f437bc596040518163ffffffff1660e01b81526004015f60405180830381865afa158015611f76573d5f803e3d5ffd5b505050506040513d5f823e601f3d908101601f19168201604052611f9d91908101906137cc565b6040518263ffffffff1660e01b8152600401611fb99190613100565b602060405180830381865afa158015611fd4573d5f803e3d5ffd5b505050506040513d601f19601f82011682018060405250810190611ff8919061393a565b90505f612006826020613965565b90505f8560a00151518361201a9190613965565b8660800151612029919061397c565b9050808211612038578061203a565b815b9695505050505050565b6003546001600160a01b0316331461206e576040516282b42960e81b815260040160405180910390fd5b805f01516001600160a01b031663647846a56040518163ffffffff1660e01b8152600401602060405180830381865afa1580156120ad573d5f803e3d5ffd5b505050506040513d601f19601f820116820180604052508101906120d19190613aad565b815160405163095ea7b360e01b81526001600160a01b0391821660048201525f19602482015291169063095ea7b3906044016020604051808303815f875af115801561211f573d5f803e3d5ffd5b505050506040513d601f19601f820116820180604052508101906121439190614296565b50600380546001600160a01b03199081169091558151600180546001600160a01b0392831690841617905560209092015160028054919093169116179055565b5f80610b0583611f15565b5f808260200151516020116121a8578260200151516121ab565b60205b90506121bf6001546001600160a01b031690565b835151604051632008f60560e11b81526001600160a01b039290921691634011ec0a916121ee91600401613100565b602060405180830381865afa158015612209573d5f803e3d5ffd5b505050506040513d601f19601f8201168201806040525081019061222d919061393a565b6122379082613965565b83606001516107bc919061397c565b612250818061373d565b5f61225e606083018361375b565b61226c916020915f9161383d565b612275916142b5565b905080612285610164848061375b565b146122a2576040516282b42960e81b815260040160405180910390fd5b5f6122ad848061373d565b6122bb9060c081019061375b565b6122c991600190829061383d565b8101906122d691906142d2565b6020810151604082015151919250905f5b81811015612466575f84604001518281518110612306576123066137a4565b60200260200101515f01515f1c90505f8560400151838151811061232c5761232c6137a4565b60209081029190910181015181015187515f9081526004835260408082206001600160a01b038716835290935291822054909250900361237f57604051635c1c6f4b60e11b815260040160405180910390fd5b6001600160a01b038216612403575f856001600160a01b0316826040515f6040518083038185875af1925050503d805f81146123d6576040519150601f19603f3d011682016040523d82523d5f602084013e6123db565b606091505b50509050806123fd576040516332201f6960e11b815260040160405180910390fd5b50612417565b6124176001600160a01b0383168683612553565b85515f9081526004602090815260408083206001600160a01b03861684529091528120805483929061244a908490613a82565b925050819055505050808061245e90613a95565b9150506122e7565b5082515f90815260046020908152604080832073d254fdaa2ce7841c7794b71b85f15052f5aeac82845290915290205480156124e3576124b38382610a2a6001546001600160a01b031690565b83515f90815260046020908152604080832073d254fdaa2ce7841c7794b71b85f15052f5aeac8284529091528120555b6124f3604088016020890161434d565b84515f9081526005602052604080822080546001600160a01b0319166001600160a01b039490941693909317909255855191517fb6e94cf3f8e202cc261173363d27daa8f5e2e79cff984b252f786794afb499469190a250505050505050565b6040516001600160a01b0383166024820152604481018290526125b690849063a9059cbb60e01b906064015b60408051601f198184030181529190526020810180516001600160e01b03166001600160e01b0319909316929092179091526125f9565b505050565b6040516001600160a01b03808516602483015283166044820152606481018290526125f39085906323b872dd60e01b9060840161257f565b50505050565b5f61264d826040518060400160405280602081526020017f5361666545524332303a206c6f772d6c6576656c2063616c6c206661696c6564815250856001600160a01b03166126cf9092919063ffffffff16565b8051909150156125b6578080602001905181019061266b9190614296565b6125b65760405162461bcd60e51b815260206004820152602a60248201527f5361666545524332303a204552433230206f7065726174696f6e20646964206e6044820152691bdd081cdd58d8d9595960b21b60648201526084015b60405180910390fd5b60606126dd84845f856126e5565b949350505050565b6060824710156127465760405162461bcd60e51b815260206004820152602660248201527f416464726573733a20696e73756666696369656e742062616c616e636520666f6044820152651c8818d85b1b60d21b60648201526084016126c6565b5f80866001600160a01b031685876040516127619190614368565b5f6040518083038185875af1925050503d805f811461279b576040519150601f19603f3d011682016040523d82523d5f602084013e6127a0565b606091505b50915091506127b1878383876127bc565b979650505050505050565b6060831561282a5782515f03612823576001600160a01b0385163b6128235760405162461bcd60e51b815260206004820152601d60248201527f416464726573733a2063616c6c20746f206e6f6e2d636f6e747261637400000060448201526064016126c6565b50816126dd565b6126dd838381511561283f5781518083602001fd5b8060405162461bcd60e51b81526004016126c69190613100565b634e487b7160e01b5f52604160045260245ffd5b60405160e081016001600160401b038111828210171561288f5761288f612859565b60405290565b604051606081016001600160401b038111828210171561288f5761288f612859565b60405160c081016001600160401b038111828210171561288f5761288f612859565b60405161010081016001600160401b038111828210171561288f5761288f612859565b604080519081016001600160401b038111828210171561288f5761288f612859565b60405160a081016001600160401b038111828210171561288f5761288f612859565b60405161012081016001600160401b038111828210171561288f5761288f612859565b604051601f8201601f191681016001600160401b038111828210171561298b5761298b612859565b604052919050565b5f6001600160401b038211156129ab576129ab612859565b50601f01601f191660200190565b5f82601f8301126129c8575f80fd5b81356129db6129d682612993565b612963565b8181528460208386010111156129ef575f80fd5b816020850160208301375f918101602001919091529392505050565b80356001600160401b0381168114612a21575f80fd5b919050565b5f60e08284031215612a36575f80fd5b612a3e61286d565b905081356001600160401b0380821115612a56575f80fd5b612a62858386016129b9565b83526020840135915080821115612a77575f80fd5b612a83858386016129b9565b6020840152612a9460408501612a0b565b60408401526060840135915080821115612aac575f80fd5b612ab8858386016129b9565b60608401526080840135915080821115612ad0575f80fd5b612adc858386016129b9565b6080840152612aed60a08501612a0b565b60a084015260c0840135915080821115612b05575f80fd5b50612b12848285016129b9565b60c08301525092915050565b5f60608284031215612b2e575f80fd5b612b36612895565b905081356001600160401b0380821115612b4e575f80fd5b612b5a85838601612a26565b83526020840135915080821115612b6f575f80fd5b50612b7c848285016129b9565b602083015250612b8e60408301612a0b565b604082015292915050565b5f60208284031215612ba9575f80fd5b81356001600160401b03811115612bbe575f80fd5b61043b84828501612b1e565b5f8060208385031215612bdb575f80fd5b82356001600160401b0380821115612bf1575f80fd5b818501915085601f830112612c04575f80fd5b813581811115612c12575f80fd5b866020828501011115612c23575f80fd5b60209290920196919550909350505050565b5f60208284031215612c45575f80fd5b81356001600160401b03811115612c5a575f80fd5b8201604081850312156107bc575f80fd5b6001600160a01b0381168114610702575f80fd5b8035612a2181612c6b565b5f60208284031215612c9a575f80fd5b81356001600160401b0380821115612cb0575f80fd5b9083019060c08286031215612cc3575f80fd5b612ccb6128b7565b823582811115612cd9575f80fd5b612ce5878286016129b9565b825250602083013582811115612cf9575f80fd5b612d05878286016129b9565b602083015250604083013582811115612d1c575f80fd5b612d28878286016129b9565b604083015250612d3a60608401612a0b565b606082015260808301356080820152612d5560a08401612c7f565b60a082015295945050505050565b5f6001600160401b03821115612d7b57612d7b612859565b5060051b60200190565b5f82601f830112612d94575f80fd5b81356020612da46129d683612d63565b82815260059290921b84018101918181019086841115612dc2575f80fd5b8286015b84811015612e005780356001600160401b03811115612de4575f8081fd5b612df28986838b01016129b9565b845250918301918301612dc6565b509695505050505050565b5f6101008284031215612e1c575f80fd5b612e246128d9565b905081356001600160401b0380821115612e3c575f80fd5b612e48858386016129b9565b83526020840135915080821115612e5d575f80fd5b612e69858386016129b9565b6020840152612e7a60408501612a0b565b6040840152612e8b60608501612c7f565b6060840152612e9c60808501612a0b565b608084015260a0840135915080821115612eb4575f80fd5b612ec085838601612d85565b60a0840152612ed160c08501612a0b565b60c084015260e0840135915080821115612ee9575f80fd5b50612ef6848285016129b9565b60e08301525092915050565b5f60208284031215612f12575f80fd5b6001600160401b038083351115612f27575f80fd5b8235830160408186031215612f3a575f80fd5b612f426128fc565b8282351115612f4f575f80fd5b8135820160408188031215612f62575f80fd5b612f6a6128fc565b8482351115612f77575f80fd5b612f848883358401612e0b565b81528460208301351115612f96575f80fd5b60208201358201915087601f830112612fad575f80fd5b612fba6129d68335612d63565b82358082526020808301929160051b8501018a811115612fd8575f80fd5b602085015b81811015613073578881351115612ff2575f80fd5b803586016040818e03601f19011215613009575f80fd5b6130116128fc565b8a60208301351115613021575f80fd5b6130338e6020808501358501016129b9565b81528a60408301351115613045575f80fd5b6130588e602060408501358501016129b9565b60208201528086525050602084019350602081019050612fdd565b50508060208401525050808352505061308e60208301612c7f565b602082015295945050505050565b5f602082840312156130ac575f80fd5b5035919050565b5f5b838110156130cd5781810151838201526020016130b5565b50505f910152565b5f81518084526130ec8160208601602086016130b3565b601f01601f19169290920160200192915050565b602081525f6107bc60208301846130d5565b5f60208284031215613122575f80fd5b81356001600160401b0380821115613138575f80fd5b9083019060a0828603121561314b575f80fd5b61315361291e565b823582811115613161575f80fd5b61316d87828601612a26565b825250602083013582811115613181575f80fd5b61318d878286016129b9565b60208301525061319f60408401612a0b565b604082015260608301356060820152608083013592506131be83612c6b565b6080810192909252509392505050565b5f82601f8301126131dd575f80fd5b813560206131ed6129d683612d63565b8281526060928302850182019282820191908785111561320b575f80fd5b8387015b858110156132515781818a031215613226575f8081fd5b61322e612895565b81358152858201358682015260408083013590820152845292840192810161320f565b5090979650505050505050565b5f6040828403121561326e575f80fd5b6132766128fc565b9050813581526020820135602082015292915050565b5f82601f83011261329b575f80fd5b813560206132ab6129d683612d63565b82815260069290921b840181019181810190868411156132c9575f80fd5b8286015b84811015612e00576132df888261325e565b8352918301916040016132cd565b5f80604083850312156132fe575f80fd5b82356001600160401b0380821115613314575f80fd5b908401906101208287031215613328575f80fd5b613330612940565b82358152602083013582811115613345575f80fd5b613351888286016129b9565b602083015250604083013582811115613368575f80fd5b613374888286016129b9565b604083015250606083013560608201526080830135608082015260a083013560a082015260c0830135828111156133a9575f80fd5b6133b5888286016131ce565b60c08301525060e0830135828111156133cc575f80fd5b6133d88882860161328c565b60e08301525061010080840135838111156133f1575f80fd5b6133fd898287016129b9565b91830191909152509660209590950135955050505050565b5f6101208284031215613426575f80fd5b50919050565b5f80828403604081121561343e575f80fd5b83356001600160401b0380821115613454575f80fd5b61346087838801613415565b94506020601f1984011215613473575f80fd5b6040519250602083019150828210818311171561349257613492612859565b506040526020939093013583525092909150565b5f602082840312156134b6575f80fd5b81356001600160401b03808211156134cc575f80fd5b90830190604082860312156134df575f80fd5b6134e76128fc565b8235828111156134f5575f80fd5b61350187828601612b1e565b8252506020830135925061351483612c6b565b6020810192909252509392505050565b5f808284036060811215613536575f80fd5b83356001600160401b0381111561354b575f80fd5b61355786828701613415565b9350506040601f198201121561356b575f80fd5b506135746128fc565b6020840135815260408401356020820152809150509250929050565b5f602082840312156135a0575f80fd5b81356001600160401b038111156135b5575f80fd5b61043b84828501612a26565b5f602082840312156135d1575f80fd5b81356001600160401b03808211156135e7575f80fd5b9083019060c082860312156135fa575f80fd5b6136026128b7565b823582811115613610575f80fd5b61361c878286016129b9565b82525061362b60208401612a0b565b6020820152604083013582811115613641575f80fd5b61364d87828601612d85565b60408301525061365f60608401612a0b565b60608201526080830135608082015260a08301358281111561367f575f80fd5b61368b878286016129b9565b60a08301525095945050505050565b5f604082840312156136aa575f80fd5b6136b26128fc565b82356136bd81612c6b565b815260208301356136cd81612c6b565b60208201529392505050565b6040810161043f828480516001600160a01b03908116835260209182015116910152565b5f6020828403121561370d575f80fd5b81356001600160401b03811115613722575f80fd5b61043b84828501612e0b565b818382375f9101908152919050565b5f823560de19833603018112613751575f80fd5b9190910192915050565b5f808335601e19843603018112613770575f80fd5b8301803591506001600160401b03821115613789575f80fd5b60200191503681900382131561379d575f80fd5b9250929050565b634e487b7160e01b5f52603260045260245ffd5b634e487b7160e01b5f52602160045260245ffd5b5f602082840312156137dc575f80fd5b81516001600160401b038111156137f1575f80fd5b8201601f81018413613801575f80fd5b805161380f6129d682612993565b818152856020838501011115613823575f80fd5b6138348260208301602086016130b3565b95945050505050565b5f808585111561384b575f80fd5b83861115613857575f80fd5b5050820193919092039150565b5f60208284031215613874575f80fd5b81356001600160401b038082111561388a575f80fd5b908301906040828603121561389d575f80fd5b6138a56128fc565b8235828111156138b3575f80fd5b6138bf878286016129b9565b8252506020830135602082015280935050505092915050565b604081525f6138ea60408301856130d5565b90508260208301529392505050565b82546001600160a01b0390811682526001840154166020820152608081016107bc604083018480516001600160a01b03908116835260209182015116910152565b5f6020828403121561394a575f80fd5b5051919050565b634e487b7160e01b5f52601160045260245ffd5b808202811582820484141761043f5761043f613951565b8082018082111561043f5761043f613951565b5f60208083850312156139a0575f80fd5b82516001600160401b03808211156139b6575f80fd5b90840190606082870312156139c9575f80fd5b6139d1612895565b825181528383015184820152604080840151838111156139ef575f80fd5b80850194505087601f850112613a03575f80fd5b83519250613a136129d684612d63565b83815260069390931b84018501928581019089851115613a31575f80fd5b948601945b84861015613a705782868b031215613a4d575f8081fd5b613a556128fc565b86518152878701518882015282529482019490860190613a36565b91830191909152509695505050505050565b8181038181111561043f5761043f613951565b5f60018201613aa657613aa6613951565b5060010190565b5f60208284031215613abd575f80fd5b81516107bc81612c6b565b5f8151808452602080850194508084015f5b83811015613aff5781516001600160a01b031687529582019590820190600101613ada565b509495945050505050565b828152604060208201525f6126dd6040830184613ac8565b5f6020808385031215613b33575f80fd5b82516001600160401b03811115613b48575f80fd5b8301601f81018513613b58575f80fd5b8051613b666129d682612d63565b81815260059190911b82018301908381019087831115613b84575f80fd5b928401925b828410156127b157835182529284019290840190613b89565b5f8151808452602080850194508084015f5b83811015613aff5781518051885283810151848901526040908101519088015260609096019590820190600101613bb4565b5f8151808452602080850194508084015f5b83811015613aff578151805188528301518388015260409096019590820190600101613bf8565b60208152815160208201525f6020830151610120806040850152613c476101408501836130d5565b91506040850151601f1980868503016060870152613c6584836130d5565b935060608701516080870152608087015160a087015260a087015160c087015260c08701519150808685030160e0870152613ca08483613ba2565b935060e08701519150610100818786030181880152613cbf8584613be6565b90880151878203909201848801529350905061203a83826130d5565b848152608060208201525f613cf36080830186613ac8565b6001600160a01b03949094166040830152506060015292915050565b5f6101208b8352806020840152613d288184018c6130d5565b90508281036040840152613d3c818b6130d5565b90508860608401528760808401528660a084015282810360c0840152613d628187613ba2565b905082810360e0840152613d768186613be6565b9050828103610100840152613d8b81856130d5565b9c9b505050505050505050505050565b5f808335601e19843603018112613db0575f80fd5b83016020810192503590506001600160401b03811115613dce575f80fd5b80360382131561379d575f80fd5b81835281816020850137505f828201602090810191909152601f909101601f19169091010190565b5f808335601e19843603018112613e19575f80fd5b83016020810192503590506001600160401b03811115613e37575f80fd5b60608102360382131561379d575f80fd5b8183525f60208085019450825f5b85811015613aff578135875282820135838801526040808301359088015260609687019690910190600101613e56565b5f808335601e19843603018112613e9b575f80fd5b83016020810192503590506001600160401b03811115613eb9575f80fd5b8060061b360382131561379d575f80fd5b8183525f60208085019450825f5b85811015613aff5781358752828201358388015260409687019690910190600101613ed8565b60208152813560208201525f613f176020840184613d9b565b610120806040860152613f2f61014086018385613ddc565b9250613f3e6040870187613d9b565b9250601f1980878603016060880152613f58858584613ddc565b945060608801356080880152608088013560a088015260a088013560c0880152613f8560c0890189613e04565b94509150808786030160e0880152613f9e858584613e48565b9450613fad60e0890189613e86565b94509150610100818887030181890152613fc8868685613eca565b9550613fd6818a018a613d9b565b9550925050808786030183880152506127b1848483613ddc565b5f808335601e19843603018112614005575f80fd5b8301803591506001600160401b0382111561401e575f80fd5b602001915060608102360382131561379d575f80fd5b602081525f6126dd602083018486613ddc565b5f808335601e1984360301811261405c575f80fd5b8301803591506001600160401b03821115614075575f80fd5b6020019150600681901b360382131561379d575f80fd5b5f6040828403121561409c575f80fd5b6107bc838361325e565b6020815281516020820152602082015160408201525f604083015160608084015261043b6080840182613be6565b6001600160f81b03198316815281515f906140f68160018501602087016130b3565b919091016001019392505050565b602081525f825160c0602084015261411f60e08401826130d5565b90506020840151601f198085840301604086015261413d83836130d5565b925060408601519150808584030160608601525061415b82826130d5565b9150506001600160401b036060850151166080840152608084015160a084015260018060a01b0360a08501511660c08401528091505092915050565b5f83516141a88184602088016130b3565b8351908301906141bc8183602088016130b3565b01949350505050565b5f6020808352835160c0828501526141e060e08501826130d5565b90506001600160401b03828601511660408501526040850151601f19808684030160608701528282518085528585019150858160051b86010186850194505f5b8281101561424c578487830301845261423a8287516130d5565b95880195938801939150600101614220565b5060608a01516001600160401b03811660808b0152965060808a015160a08a015260a08a01519650838982030160c08a015261428881886130d5565b9a9950505050505050505050565b5f602082840312156142a6575f80fd5b815180151581146107bc575f80fd5b8035602083101561043f575f19602084900360031b1b1692915050565b5f602082840312156142e2575f80fd5b81356001600160401b03808211156142f8575f80fd5b908301906060828603121561430b575f80fd5b614313612895565b8235815260208301356020820152604083013582811115614332575f80fd5b61433e8782860161328c565b60408301525095945050505050565b5f6020828403121561435d575f80fd5b81356107bc81612c6b565b5f82516137518184602087016130b356fea26469706673582212207c4ae8aa6fc0549d799479a6affadce699d3ef7ca6b7e78c075adf9265f398c664736f6c63430008140033",
		"linkReferences": {}
	},
	"methodIdentifiers": {
		"calculateCommitmentSlotHash(bytes32)": "60121a94",
		"cancelOrder((bytes32,bytes,bytes,uint256,uint256,uint256,(bytes32,uint256,bytes32)[],(bytes32,uint256)[],bytes),(uint256,uint256))": "b53eafe9",
		"fillOrder((bytes32,bytes,bytes,uint256,uint256,uint256,(bytes32,uint256,bytes32)[],(bytes32,uint256)[],bytes),(uint256))": "7f84d229",
		"host()": "f437bc59",
		"instance(bytes)": "0bddd96c",
		"onAccept(((bytes,bytes,uint64,bytes,bytes,uint64,bytes),address))": "0fee32ce",
		"onGetResponse((((bytes,bytes,uint64,address,uint64,bytes[],uint64,bytes),(bytes,bytes)[]),address))": "44ab20f8",
		"onGetTimeout((bytes,bytes,uint64,address,uint64,bytes[],uint64,bytes))": "d0fff366",
		"onPostRequestTimeout((bytes,bytes,uint64,bytes,bytes,uint64,bytes))": "bc0dd447",
		"onPostResponse((((bytes,bytes,uint64,bytes,bytes,uint64,bytes),bytes,uint64),address))": "b2a01bf5",
		"onPostResponseTimeout(((bytes,bytes,uint64,bytes,bytes,uint64,bytes),bytes,uint64))": "0bc37bab",
		"params()": "cff0ab96",
		"placeOrder((bytes32,bytes,bytes,uint256,uint256,uint256,(bytes32,uint256,bytes32)[],(bytes32,uint256)[],bytes),bytes32)": "731c8b32",
		"setParams((address,address))": "c2977d2f"
	},
	"id": 100
}