{
  "abi": [
    {
      "inputs": [
        {
          "internalType": "uint256",
          "name": "paraId",
          "type": "uint256"
        }
      ],
      "stateMutability": "nonpayable",
      "type": "constructor"
    },
    {
      "inputs": [],
      "name": "AURA_CONSENSUS_ID",
      "outputs": [
        {
          "internalType": "bytes4",
          "name": "",
          "type": "bytes4"
        }
      ],
      "stateMutability": "view",
      "type": "function"
    },
    {
      "inputs": [],
      "name": "ISMP_CONSENSUS_ID",
      "outputs": [
        {
          "internalType": "bytes4",
          "name": "",
          "type": "bytes4"
        }
      ],
      "stateMutability": "view",
      "type": "function"
    },
    {
      "inputs": [],
      "name": "MMR_ROOT_PAYLOAD_ID",
      "outputs": [
        {
          "internalType": "bytes2",
          "name": "",
          "type": "bytes2"
        }
      ],
      "stateMutability": "view",
      "type": "function"
    },
    {
      "inputs": [],
      "name": "SLOT_DURATION",
      "outputs": [
        {
          "internalType": "uint256",
          "name": "",
          "type": "uint256"
        }
      ],
      "stateMutability": "view",
      "type": "function"
    },
    {
      "inputs": [
        {
          "components": [
            {
              "internalType": "uint256",
              "name": "latestHeight",
              "type": "uint256"
            },
            {
              "internalType": "uint256",
              "name": "beefyActivationBlock",
              "type": "uint256"
            },
            {
              "components": [
                {
                  "internalType": "uint256",
                  "name": "id",
                  "type": "uint256"
                },
                {
                  "internalType": "uint256",
                  "name": "len",
                  "type": "uint256"
                },
                {
                  "internalType": "bytes32",
                  "name": "root",
                  "type": "bytes32"
                }
              ],
              "internalType": "struct AuthoritySetCommitment",
              "name": "currentAuthoritySet",
              "type": "tuple"
            },
            {
              "components": [
                {
                  "internalType": "uint256",
                  "name": "id",
                  "type": "uint256"
                },
                {
                  "internalType": "uint256",
                  "name": "len",
                  "type": "uint256"
                },
                {
                  "internalType": "bytes32",
                  "name": "root",
                  "type": "bytes32"
                }
              ],
              "internalType": "struct AuthoritySetCommitment",
              "name": "nextAuthoritySet",
              "type": "tuple"
            }
          ],
          "internalType": "struct BeefyConsensusState",
          "name": "trustedState",
          "type": "tuple"
        },
        {
          "components": [
            {
              "components": [
                {
                  "components": [
                    {
                      "components": [
                        {
                          "components": [
                            {
                              "internalType": "bytes2",
                              "name": "id",
                              "type": "bytes2"
                            },
                            {
                              "internalType": "bytes",
                              "name": "data",
                              "type": "bytes"
                            }
                          ],
                          "internalType": "struct Payload[]",
                          "name": "payload",
                          "type": "tuple[]"
                        },
                        {
                          "internalType": "uint256",
                          "name": "blockNumber",
                          "type": "uint256"
                        },
                        {
                          "internalType": "uint256",
                          "name": "validatorSetId",
                          "type": "uint256"
                        }
                      ],
                      "internalType": "struct Commitment",
                      "name": "commitment",
                      "type": "tuple"
                    },
                    {
                      "components": [
                        {
                          "internalType": "bytes",
                          "name": "signature",
                          "type": "bytes"
                        },
                        {
                          "internalType": "uint256",
                          "name": "authorityIndex",
                          "type": "uint256"
                        }
                      ],
                      "internalType": "struct Vote[]",
                      "name": "votes",
                      "type": "tuple[]"
                    }
                  ],
                  "internalType": "struct SignedCommitment",
                  "name": "signedCommitment",
                  "type": "tuple"
                },
                {
                  "components": [
                    {
                      "internalType": "uint256",
                      "name": "version",
                      "type": "uint256"
                    },
                    {
                      "internalType": "uint256",
                      "name": "parentNumber",
                      "type": "uint256"
                    },
                    {
                      "internalType": "bytes32",
                      "name": "parentHash",
                      "type": "bytes32"
                    },
                    {
                      "components": [
                        {
                          "internalType": "uint256",
                          "name": "id",
                          "type": "uint256"
                        },
                        {
                          "internalType": "uint256",
                          "name": "len",
                          "type": "uint256"
                        },
                        {
                          "internalType": "bytes32",
                          "name": "root",
                          "type": "bytes32"
                        }
                      ],
                      "internalType": "struct AuthoritySetCommitment",
                      "name": "nextAuthoritySet",
                      "type": "tuple"
                    },
                    {
                      "internalType": "bytes32",
                      "name": "extra",
                      "type": "bytes32"
                    },
                    {
                      "internalType": "uint256",
                      "name": "kIndex",
                      "type": "uint256"
                    },
                    {
                      "internalType": "uint256",
                      "name": "leafIndex",
                      "type": "uint256"
                    }
                  ],
                  "internalType": "struct BeefyMmrLeaf",
                  "name": "latestMmrLeaf",
                  "type": "tuple"
                },
                {
                  "internalType": "bytes32[]",
                  "name": "mmrProof",
                  "type": "bytes32[]"
                },
                {
                  "components": [
                    {
                      "internalType": "uint256",
                      "name": "k_index",
                      "type": "uint256"
                    },
                    {
                      "internalType": "bytes32",
                      "name": "node",
                      "type": "bytes32"
                    }
                  ],
                  "internalType": "struct Node[][]",
                  "name": "proof",
                  "type": "tuple[][]"
                }
              ],
              "internalType": "struct RelayChainProof",
              "name": "relay",
              "type": "tuple"
            },
            {
              "components": [
                {
                  "components": [
                    {
                      "internalType": "uint256",
                      "name": "index",
                      "type": "uint256"
                    },
                    {
                      "internalType": "uint256",
                      "name": "id",
                      "type": "uint256"
                    },
                    {
                      "internalType": "bytes",
                      "name": "header",
                      "type": "bytes"
                    }
                  ],
                  "internalType": "struct Parachain",
                  "name": "parachain",
                  "type": "tuple"
                },
                {
                  "components": [
                    {
                      "internalType": "uint256",
                      "name": "k_index",
                      "type": "uint256"
                    },
                    {
                      "internalType": "bytes32",
                      "name": "node",
                      "type": "bytes32"
                    }
                  ],
                  "internalType": "struct Node[][]",
                  "name": "proof",
                  "type": "tuple[][]"
                }
              ],
              "internalType": "struct ParachainProof",
              "name": "parachain",
              "type": "tuple"
            }
          ],
          "internalType": "struct BeefyConsensusProof",
          "name": "proof",
          "type": "tuple"
        }
      ],
      "name": "verifyConsensus",
      "outputs": [
        {
          "components": [
            {
              "internalType": "uint256",
              "name": "latestHeight",
              "type": "uint256"
            },
            {
              "internalType": "uint256",
              "name": "beefyActivationBlock",
              "type": "uint256"
            },
            {
              "components": [
                {
                  "internalType": "uint256",
                  "name": "id",
                  "type": "uint256"
                },
                {
                  "internalType": "uint256",
                  "name": "len",
                  "type": "uint256"
                },
                {
                  "internalType": "bytes32",
                  "name": "root",
                  "type": "bytes32"
                }
              ],
              "internalType": "struct AuthoritySetCommitment",
              "name": "currentAuthoritySet",
              "type": "tuple"
            },
            {
              "components": [
                {
                  "internalType": "uint256",
                  "name": "id",
                  "type": "uint256"
                },
                {
                  "internalType": "uint256",
                  "name": "len",
                  "type": "uint256"
                },
                {
                  "internalType": "bytes32",
                  "name": "root",
                  "type": "bytes32"
                }
              ],
              "internalType": "struct AuthoritySetCommitment",
              "name": "nextAuthoritySet",
              "type": "tuple"
            }
          ],
          "internalType": "struct BeefyConsensusState",
          "name": "",
          "type": "tuple"
        },
        {
          "components": [
            {
              "internalType": "uint256",
              "name": "stateMachineId",
              "type": "uint256"
            },
            {
              "internalType": "uint256",
              "name": "height",
              "type": "uint256"
            },
            {
              "components": [
                {
                  "internalType": "uint256",
                  "name": "timestamp",
                  "type": "uint256"
                },
                {
                  "internalType": "bytes32",
                  "name": "overlayRoot",
                  "type": "bytes32"
                },
                {
                  "internalType": "bytes32",
                  "name": "stateRoot",
                  "type": "bytes32"
                }
              ],
              "internalType": "struct StateCommitment",
              "name": "commitment",
              "type": "tuple"
            }
          ],
          "internalType": "struct IntermediateState",
          "name": "",
          "type": "tuple"
        }
      ],
      "stateMutability": "view",
      "type": "function"
    },
    {
      "inputs": [
        {
          "internalType": "bytes",
          "name": "encodedState",
          "type": "bytes"
        },
        {
          "internalType": "bytes",
          "name": "encodedProof",
          "type": "bytes"
        }
      ],
      "name": "verifyConsensus",
      "outputs": [
        {
          "internalType": "bytes",
          "name": "",
          "type": "bytes"
        },
        {
          "components": [
            {
              "internalType": "uint256",
              "name": "stateMachineId",
              "type": "uint256"
            },
            {
              "internalType": "uint256",
              "name": "height",
              "type": "uint256"
            },
            {
              "components": [
                {
                  "internalType": "uint256",
                  "name": "timestamp",
                  "type": "uint256"
                },
                {
                  "internalType": "bytes32",
                  "name": "overlayRoot",
                  "type": "bytes32"
                },
                {
                  "internalType": "bytes32",
                  "name": "stateRoot",
                  "type": "bytes32"
                }
              ],
              "internalType": "struct StateCommitment",
              "name": "commitment",
              "type": "tuple"
            }
          ],
          "internalType": "struct IntermediateState",
          "name": "",
          "type": "tuple"
        }
      ],
      "stateMutability": "nonpayable",
      "type": "function"
    }
  ],
  "bytecode": {
    "object": "0x60806040523480156200001157600080fd5b5060405162003fea38038062003fea83398101604081905262000034916200003d565b60005562000057565b6000602082840312156200005057600080fd5b5051919050565b613f8380620000676000396000f3fe608060405234801561001057600080fd5b50600436106100625760003560e01c80634e9fdbec146100675780635e399aea146100935780637d755598146100b4578063905c0511146100d5578063af8b91d6146100ec578063babb311814610111575b600080fd5b610075636175726160e01b81565b6040516001600160e01b031990911681526020015b60405180910390f35b6100a66100a1366004612e26565b61011f565b60405161008a929190612fe2565b6100c76100c236600461302a565b610164565b60405161008a9291906130dd565b6100de612ee081565b60405190815260200161008a565b6100f8610dad60f31b81565b6040516001600160f01b0319909116815260200161008a565b61007563049534d560e41b81565b610127612695565b61012f6126f8565b60008061014086866000015161025b565b915091506000610154828760200151610842565b92945091925050505b9250929050565b606061016e6126f8565b60008480602001905181019061018491906131b6565b90506000808580602001905181019061019d919061368f565b91509150600080306001600160a01b0316635e399aea866040518060400160405280888152602001878152506040518363ffffffff1660e01b81526004016101e6929190613950565b6101a060405180830381865afa158015610204573d6000803e3d6000fd5b505050506040513d601f19601f820116820180604052508101906102289190613ab0565b915091508160405160200161023d9190613b4b565b60408051808303601f19018152919052999098509650505050505050565b610263612695565b815160208082015151915101518451600092919081116102e75760405162461bcd60e51b815260206004820152603460248201527f636f6e73656e73757320636c69656e7473206f6e6c79206163636570742070726044820152736f6f667320666f72206e6577206865616465727360601b60648201526084015b60405180910390fd5b6102f982876040015160200151610c59565b80610311575061031182876060015160200151610c59565b6103695760405162461bcd60e51b8152602060048201526024808201527f5375706572206d616a6f72697479207468726573686f6c64206e6f742072656160448201526318da195960e21b60648201526084016102de565b8451516040808801515190820151148061038b57506060870151516040820151145b6103cf5760405162461bcd60e51b8152602060048201526015602482015274155b9adb9bdddb88185d5d1a1bdc9a5d1e481cd95d605a1b60448201526064016102de565b60408088015151908201518251519114906000805b8281101561048f5784518051610dad60f31b91908390811061040857610408613b5a565b6020026020010151600001516001600160f01b03191614801561044b5750845180518290811061043a5761043a613b5a565b602002602001015160200151516020145b1561047d5761047a8560000151828151811061046957610469613b5a565b602002602001015160200151610c87565b91505b8061048781613b86565b9150506103e4565b50806104dd5760405162461bcd60e51b815260206004820152601760248201527f4d6d7220726f6f742068617368206e6f7420666f756e6400000000000000000060448201526064016102de565b60006104e885610cef565b8051906020012090506000876001600160401b0381111561050b5761050b6127c4565b60405190808252806020026020018201604052801561055057816020015b60408051808201909152600080825260208201528152602001906001900390816105295790505b50905060005b8881101561061f5760008c6000015160200151828151811061057a5761057a613b5a565b602002602001015190506000610594858360000151610e8f565b9050604051806040016040528083602001518152602001826040516020016105d4919060609190911b6bffffffffffffffffffffffff1916815260140190565b604051602081830303815290604052805190602001208152508484815181106105ff576105ff613b5a565b60200260200101819052505050808061061790613b86565b915050610556565b50841561070d576106378c6040015160200151610eb3565b8b60600151511461069b5760405162461bcd60e51b815260206004820152602860248201527f496e76616c69642063757272656e7420617574686f7269746965732070726f6f60448201526719881a195a59da1d60c21b60648201526084016102de565b6106b28c60400151604001518c6060015183610ed9565b6107085760405162461bcd60e51b815260206004820152602160248201527f496e76616c69642063757272656e7420617574686f7269746965732070726f6f6044820152603360f91b60648201526084016102de565b6107e2565b61071e8c6060015160200151610eb3565b8b60600151511461077f5760405162461bcd60e51b815260206004820152602560248201527f496e76616c6964206e65787420617574686f7269746965732070726f6f662068604482015264195a59da1d60da1b60648201526084016102de565b6107968c60600151604001518c6060015183610ed9565b6107e25760405162461bcd60e51b815260206004820152601e60248201527f496e76616c6964206e65787420617574686f7269746965732070726f6f66000060448201526064016102de565b6107ed8c8c85610ef1565b841580610809575060208b015160609081015151908d01515114155b15610826576060808d01805160408f015260208d01519091015190525b5050509288525050505060209290920151608001519293915050565b61084a6126f8565b604080516001808252818301909252600091816020015b6040805180820190915260008082526020820152815260200190600190039081610861575050835160005460208201519293509091146108d45760405162461bcd60e51b815260206004820152600e60248201526d155b9adb9bdddb881c185c98525960921b60448201526064016102de565b60006108e38260400151611088565b905080602001516000036109455760405162461bcd60e51b8152602060048201526024808201527f47656e6573697320626c6f636b2073686f756c64206e6f7420626520696e636c6044820152631d59195960e21b60648201526084016102de565b60008060005b836080015151811015610ac1578360800151818151811061096e5761096e613b5a565b60200260200101516040015180156109c5575063049534d560e41b6001600160e01b031916846080015182815181106109a9576109a9613b5a565b602002602001015160600151600001516001600160e01b031916145b156109fb576109f8846080015182815181106109e3576109e3613b5a565b60200260200101516060015160200151610c87565b92505b83608001518181518110610a1157610a11613b5a565b6020026020010151600001518015610a685750636175726160e01b6001600160e01b03191684608001518281518110610a4c57610a4c613b5a565b602002602001015160200151600001516001600160e01b031916145b15610aaf576000610a9d85608001518381518110610a8857610a88613b5a565b6020026020010151602001516020015161128a565b9050610aab612ee082613b9f565b9250505b80610ab981613b86565b91505061094b565b5080600003610b125760405162461bcd60e51b815260206004820152601d60248201527f5265717565737420636f6d6d69746d656e74206e6f7420666f756e642100000060448201526064016102de565b604051806040016040528085600001518152602001610b568660200151600881811c62ff00ff1663ff00ff009290911b9190911617601081811c91901b1760e01b90565b610b63876040015161130c565b604051602001610b74929190613bb6565b6040516020818303038152906040528051906020012081525085600081518110610ba057610ba0613b5a565b6020026020010181905250600060405180606001604052808660200151815260200185602001518152602001604051806060016040528085815260200186815260200187604001518152508152509050610bff89896020015188610ed9565b610c4b5760405162461bcd60e51b815260206004820152601e60248201527f496e76616c69642070617261636861696e732068656164732070726f6f66000060448201526064016102de565b955050505050505b92915050565b60006003610c68836002613b9f565b610c729190613bfd565b610c7d906001613c11565b9092101592915050565b6000602082511015610ce75760405162461bcd60e51b8152602060048201526024808201527f42797465733a3a20746f427974657333323a206461746120697320746f20736860448201526337b93a1760e11b60648201526084016102de565b506020015190565b8051516040805160208101909152600080825260609291905b82811015610dbe578451805182908110610d2457610d24613b5a565b602002602001015160000151604051602001610d5091906001600160f01b031991909116815260020190565b604051602081830303815290604052610d8986600001518381518110610d7857610d78613b5a565b60200260200101516020015161130c565b604051602001610d9a929190613c24565b60405160208183030381529060405291508080610db690613b86565b915050610d08565b506000610dca83611340565b82604051602001610ddc929190613c24565b60405160208183030381529060405290506000610e1e8660200151600881811c62ff00ff1663ff00ff009290911b9190911617601081811c91901b1760e01b90565b610e2b87604001516115e3565b6040516001600160e01b031990921660208301526001600160c01b0319166024820152602c0160405160208183030381529060405290508181604051602001610e75929190613c24565b604051602081830303815290604052945050505050919050565b6000806000610e9e858561164d565b91509150610eab8161168f565b509392505050565b600080610ec18360016117dc565b9050610ecc83611827565b610c535760010192915050565b6000610ee5838361184d565b841490505b9392505050565b6000610f008360200151611ba2565b8051906020012090506000610f218560200151856020015160200151611d6a565b610f2c906001613c11565b60408051600180825281830190925291925060009190816020015b6040805160608101825260008082526020808301829052928201528252600019909201910181610f475790505090506040518060600160405280866020015160a001518152602001866020015160c0015181526020018481525081600081518110610fb457610fb4613b5a565b6020908102919091010152604080860151905163722e206d60e01b815273__$2399d33eab5707eb5118077f9c67419cb4$__9163722e206d91610fff91889186908890600401613c53565b602060405180830381865af415801561101c573d6000803e3d6000fd5b505050506040513d601f19601f820116820180604052508101906110409190613cff565b6110805760405162461bcd60e51b815260206004820152601160248201527024b73b30b634b21026b6b910283937b7b360791b60448201526064016102de565b505050505050565b6040805160a081018252600080825260208083018290528284018290526060808401839052608084015283518085019094528484528381018290529192916110da906110d5908490611d97565b610c87565b905060006110e783611e18565b905060006110f96110d5856020611d97565b9050600061110b6110d5866020611d97565b9050600061111886611e18565b90506000816001600160401b03811115611134576111346127c4565b60405190808252806020026020018201604052801561116d57816020015b61115a61272b565b8152602001906001900390816111525790505b50905060005b8281101561125b57600061118689611ffd565b905061119061272b565b60ff82166111a457600160c0820152611228565b60031960ff8316016111ca57600160408201526111c08a612099565b6060820152611228565b60041960ff8316016111f057600160808201526111e68a612099565b60a0820152611228565b60051960ff83160161121357600181526112098a612099565b6020820152611228565b60071960ff8316016112285760016101008201525b8084848151811061123b5761123b613b5a565b60200260200101819052505050808061125390613b86565b915050611173565b506040805160a08101825296875260208701959095529385019290925260608401525060808201529392505050565b805160009081905b8015611305576112a3600182613d21565b6112ae906008613b9f565b6112b9906002613e18565b846112c5600184613d21565b815181106112d5576112d5613b5a565b01602001516112e7919060f81c613b9f565b6112f19083613c11565b9150806112fd81613e24565b915050611292565b5092915050565b60606113188251611340565b8260405160200161132a929190613c24565b6040516020818303038152906040529050919050565b6060604082101561136a576040516001600160f81b031960fa84901b16602082015260210161132a565b6140008210156113bd5761139a611386600284901b6001613c11565b600881811b62ffff001691901c60ff161790565b60405160200161132a919060f09190911b6001600160f01b031916815260020190565b6340000000821015611421576113fe6113da600284811b90613c11565b600881811c62ff00ff1663ff00ff009290911b9190911617601081811c91901b1790565b60405160200161132a919060e09190911b6001600160e01b031916815260040190565b600061159561156f8460008190506008817eff00ff00ff00ff00ff00ff00ff00ff00ff00ff00ff00ff00ff00ff00ff00ff16901b6008827fff00ff00ff00ff00ff00ff00ff00ff00ff00ff00ff00ff00ff00ff00ff00ff0016901c1790506010817dffff0000ffff0000ffff0000ffff0000ffff0000ffff0000ffff0000ffff16901b6010827fffff0000ffff0000ffff0000ffff0000ffff0000ffff0000ffff0000ffff000016901c1790506020817bffffffff00000000ffffffff00000000ffffffff00000000ffffffff16901b6020827fffffffff00000000ffffffff00000000ffffffff00000000ffffffff0000000016901c17905060408177ffffffffffffffff0000000000000000ffffffffffffffff16901b60408277ffffffffffffffff0000000000000000ffffffffffffffff1916901c179050608081901b608082901c179050919050565b60405160200161158191815260200190565b604051602081830303815290604052612106565b8051909150600060026115a9600484613d21565b6115b5911b6003613c11565b905080836040516020016115ca929190613e3b565b6040516020818303038152906040529350505050919050565b600065ff000000ff00600883811b91821664ff000000ff9185901c91821617601090811b67ff000000ff0000009390931666ff000000ff00009290921691909117901c17602081811b6bffffffffffffffff000000001691901c63ffffffff161760c01b92915050565b60008082516041036116835760208301516040840151606085015160001a61167787828585612173565b9450945050505061015d565b5060009050600261015d565b60008160048111156116a3576116a3613e6a565b036116ab5750565b60018160048111156116bf576116bf613e6a565b0361170c5760405162461bcd60e51b815260206004820152601860248201527f45434453413a20696e76616c6964207369676e6174757265000000000000000060448201526064016102de565b600281600481111561172057611720613e6a565b0361176d5760405162461bcd60e51b815260206004820152601f60248201527f45434453413a20696e76616c6964207369676e6174757265206c656e6774680060448201526064016102de565b600381600481111561178157611781613e6a565b036117d95760405162461bcd60e51b815260206004820152602260248201527f45434453413a20696e76616c6964207369676e6174757265202773272076616c604482015261756560f01b60648201526084016102de565b50565b6000806117e884612237565b905060018360028111156117fe576117fe613e6a565b14801561180e575083816001901b105b61181957600061181c565b60015b60ff16019392505050565b60008160000361183957506000919050565b611844600183613d21565b90911615919050565b6040805160008082526020820190925281908161188c565b60408051808201909152600080825260208201528152602001906001900390816118655790505b5090506118b383856000815181106118a6576118a6613b5a565b60200260200101516122cb565b846000815181106118c6576118c6613b5a565b6020908102919091010152835160005b81811015611b6a57604080516000808252602082019092528161191b565b60408051808201909152600080825260208201528152602001906001900390816118f45790505b50905083516000036119485786828151811061193957611939613b5a565b6020026020010151905061196e565b61196b87838151811061195d5761195d613b5a565b6020026020010151856122cb565b90505b8051600061197d8260026124d7565b6001600160401b03811115611994576119946127c4565b6040519080825280602002602001820160405280156119d957816020015b60408051808201909152600080825260208201528152602001906001900390816119b25790505b50955060005b82811015611b5357826119f3826001613c11565b10611a67576000848281518110611a0c57611a0c613b5a565b60200260200101519050611a3e858381518110611a2b57611a2b613b5a565b60200260200101516000015160026124ff565b815287518190899085908110611a5657611a56613b5a565b602002602001018190525050611b41565b60408051808201909152600080825260208201526000858381518110611a8f57611a8f613b5a565b6020026020010151602001519050600086846001611aad9190613c11565b81518110611abd57611abd613b5a565b602002602001015160200151905080821015611aeb5760008281526020829052604090206020840152611aff565b600081815260208390526040902060208401525b611b14878581518110611a2b57611a2b613b5a565b8352895183908b9087908110611b2c57611b2c613b5a565b60209081029190910101525050600190920191505b611b4c600282613c11565b90506119df565b505050508080611b6290613b86565b9150506118d6565b508151600114611b7957600080fd5b81600081518110611b8c57611b8c613b5a565b6020026020010151602001519250505092915050565b606060008260000151604051602001611bce919060f89190911b6001600160f81b031916815260010190565b604051602081830303815290604052611c0c8460200151600881811c62ff00ff1663ff00ff009290911b9190911617601081811c91901b1760e01b90565b604051602001611c1d929190613e80565b60408051601f19818403018152828252858201516020840152925060009101604051602081830303815290604052611c5c8560600151600001516115e3565b604051602001611c6d929190613eaf565b60405160208183030381529060405290506000611cb3856060015160200151600881811c62ff00ff1663ff00ff009290911b9190911617601081811c91901b1760e01b90565b856060015160400151604051602001611cce91815260200190565b60408051601f1981840301815290829052611cec9291602001613bb6565b60405160208183030381529060405290508282604051602001611d10929190613c24565b60408051601f19818403018152828252608088015160208401529183910160408051601f1981840301815290829052611d4c9291602001613c24565b60408051601f19818403018152908290526115ca9291602001613c24565b600082600003611d7b575080610c53565b611d86826002613c11565b611d909084613d21565b9050610c53565b6060826000015151828460200151611daf9190613c11565b1115611dba57600080fd5b81600003611dd75750604080516020810190915260008152610c53565b8251602080850151910190600090611df990611df39084613c11565b8561250b565b90508385602001818151611e0d9190613c11565b905250949350505050565b600080611e2483611ffd565b90506000611e33600483613ede565b905060008160ff16600003611e505750603f600283901c16611ff5565b8160ff16600103611e95576000611e6686611ffd565b9050613fc0600682901b16611e82603f600287901c1682613f00565b6001600160401b03169250611ff5915050565b8160ff16600203611f08576000611eab86611ffd565b90506000611eb887611ffd565b90506000611ec588611ffd565b63ffffffff60089490941b61ff001660ff88161760109390931b62ff0000169290921760189290921b63ff000000169190911760021c919091169150611ff59050565b8160ff16600303611fad576000611f27603f600286901c166004613f20565b905060088160ff161115611f8e5760405162461bcd60e51b815260206004820152602860248201527f756e657870656374656420707265666978206465636f64696e6720436f6d706160448201526731ba1e2ab4b73a1f60c11b60648201526084016102de565b611fa3611f9e878360ff16611d97565b61128a565b9695505050505050565b60405162461bcd60e51b815260206004820152601a60248201527f436f64652073686f756c6420626520756e726561636861626c6500000000000060448201526064016102de565b949350505050565b805151602082015160009190612014906001613c11565b11156120515760405162461bcd60e51b815260206004820152600c60248201526b4f7574206f662072616e676560a01b60448201526064016102de565b6000826000015183602001518151811061206d5761206d613b5a565b602001015160f81c60f81b60f81c90506001836020018181516120909190613c11565b90525092915050565b60408051808201909152600081526060602082015260006120c56120be846004611d97565b6000612561565b905060006120d284611e18565b905060006120e08583611d97565b604080518082019091526001600160e01b03199094168452602084015250909392505050565b8051606090600080612119600184613d21565b90505b84818151811061212e5761212e613b5a565b01602001516001600160f81b0319161561214a5780915061215c565b8061215481613e24565b91505061211c565b50611ff584600061216e846001613c11565b6125be565b6000807f7fffffffffffffffffffffffffffffff5d576e7357a4501ddfe92f46681b20a08311156121aa575060009050600361222e565b6040805160008082526020820180845289905260ff881692820192909252606081018690526080810185905260019060a0016020604051602081039080840390855afa1580156121fe573d6000803e3d6000fd5b5050604051601f1901519150506001600160a01b0381166122275760006001925092505061222e565b9150600090505b94509492505050565b600080608083901c1561224c57608092831c92015b604083901c1561225e57604092831c92015b602083901c1561227057602092831c92015b601083901c1561228257601092831c92015b600883901c1561229457600892831c92015b600483901c156122a657600492831c92015b600283901c156122b857600292831c92015b600183901c15610c535760010192915050565b8151815160609160009182918291826122e48284613c11565b90506000816001600160401b03811115612300576123006127c4565b60405190808252806020026020018201604052801561234557816020015b604080518082019091526000808252602082015281526020019060019003908161231e5790505b5090505b838710801561235757508286105b1561242c5788868151811061236e5761236e613b5a565b6020026020010151600001518a888151811061238c5761238c613b5a565b60200260200101516000015110156123e5578987815181106123b0576123b0613b5a565b60200260200101518186815181106123ca576123ca613b5a565b60209081029190910101526001968701969490940193612349565b8886815181106123f7576123f7613b5a565b602002602001015181868151811061241157612411613b5a565b60209081029190910101526001958601959490940193612349565b8387101561247b5789878151811061244657612446613b5a565b602002602001015181868151811061246057612460613b5a565b6020908102919091010152600196870196949094019361242c565b828610156124ca5788868151811061249557612495613b5a565b60200260200101518186815181106124af576124af613b5a565b6020908102919091010152600195860195949094019361247b565b9998505050505050505050565b6000806124e48385613bfd565b90506124f08385613f39565b15610eea576001019392505050565b6000610eea8284613bfd565b6060816001600160401b03811115612525576125256127c4565b6040519080825280601f01601f19166020018201604052801561254f576020820181803683370190505b50905060208101611305848285612615565b60008060005b6004811015610eab5761257b816008613b9f565b856125868387613c11565b8151811061259657612596613b5a565b01602001516001600160f81b031916901c9190911790806125b681613b86565b915050612567565b82516060906125cd8385613c11565b11156125d857600080fd5b816000036125f55750604080516020810190915260008152610eea565b6020840161260c6126068583613c11565b8461250b565b95945050505050565b6020811061264d578251825261262c602083613c11565b9150612639602084613c11565b9250612646602082613d21565b9050612615565b6000811561267d576001612662836020613d21565b61266e90610100613e18565b6126789190613d21565b612681565b6000195b935183518516941916939093179091525050565b604051806080016040528060008152602001600081526020016126d560405180606001604052806000815260200160008152602001600080191681525090565b815260408051606081018252600080825260208281018290529282015291015290565b60408051606080820183526000808352602080840182905284519283018552818352820181905281840152909182015290565b60405180610120016040528060001515815260200161275b60408051808201909152600081526060602082015290565b81526000602082015260400161278260408051808201909152600081526060602082015290565b8152600060208201526040016127a960408051808201909152600081526060602082015290565b81526000602082018190526060604083018190529091015290565b634e487b7160e01b600052604160045260246000fd5b604051606081016001600160401b03811182821017156127fc576127fc6127c4565b60405290565b604080519081016001600160401b03811182821017156127fc576127fc6127c4565b60405160e081016001600160401b03811182821017156127fc576127fc6127c4565b604051608081016001600160401b03811182821017156127fc576127fc6127c4565b604051601f8201601f191681016001600160401b0381118282101715612890576128906127c4565b604052919050565b6000606082840312156128aa57600080fd5b6128b26127da565b905081358152602082013560208201526040820135604082015292915050565b60006001600160401b038211156128eb576128eb6127c4565b5060051b60200190565b6001600160f01b0319811681146117d957600080fd5b60006001600160401b03821115612924576129246127c4565b50601f01601f191660200190565b600082601f83011261294357600080fd5b81356129566129518261290b565b612868565b81815284602083860101111561296b57600080fd5b816020850160208301376000918101602001919091529392505050565b600082601f83011261299957600080fd5b813560206129a9612951836128d2565b82815260059290921b840181019181810190868411156129c857600080fd5b8286015b84811015612a465780356001600160401b03808211156129ec5760008081fd5b908801906040828b03601f1901811315612a065760008081fd5b612a0e612802565b8784013583811115612a205760008081fd5b612a2e8d8a83880101612932565b825250920135868301525083529183019183016129cc565b509695505050505050565b600060408284031215612a6357600080fd5b612a6b612802565b905081356001600160401b0380821115612a8457600080fd5b9083019060608286031215612a9857600080fd5b612aa06127da565b823582811115612aaf57600080fd5b8301601f81018713612ac057600080fd5b80356020612ad0612951836128d2565b82815260059290921b8301810191818101908a841115612aef57600080fd5b8285015b84811015612b6d57803588811115612b0b5760008081fd5b86016040818e03601f19011215612b225760008081fd5b612b2a612802565b85820135612b37816128f5565b815260408201358a811115612b4c5760008081fd5b612b5a8f8883860101612932565b8288015250845250918301918301612af3565b50808652505080860135818501526040860135604085015283875280880135955084861115612b9b57600080fd5b612ba789878a01612988565b8188015250505050505092915050565b60006101208284031215612bca57600080fd5b612bd2612824565b9050813581526020820135602082015260408201356040820152612bf98360608401612898565b606082015260c0820135608082015260e082013560a082015261010082013560c082015292915050565b600082601f830112612c3457600080fd5b81356020612c44612951836128d2565b82815260059290921b84018101918181019086841115612c6357600080fd5b8286015b84811015612a465780358352918301918301612c67565b600082601f830112612c8f57600080fd5b81356020612c9f612951836128d2565b82815260059290921b84018101918181019086841115612cbe57600080fd5b8286015b84811015612a465780356001600160401b03811115612ce15760008081fd5b8701603f81018913612cf35760008081fd5b848101356040612d05612951836128d2565b82815260069290921b8301810191878101908c841115612d255760008081fd5b938201935b83851015612d655782858e031215612d425760008081fd5b612d4a612802565b85358152898601358a82015282529382019390880190612d2a565b875250505092840192508301612cc2565b600060408284031215612d8857600080fd5b612d90612802565b905081356001600160401b0380821115612da957600080fd5b9083019060608286031215612dbd57600080fd5b612dc56127da565b8235815260208301356020820152604083013582811115612de557600080fd5b612df187828601612932565b60408301525083526020840135915080821115612e0d57600080fd5b50612e1a84828501612c7e565b60208301525092915050565b600080828403610120811215612e3b57600080fd5b61010080821215612e4b57600080fd5b612e53612846565b91508435825260208086013581840152612e708760408801612898565b6040840152612e828760a08801612898565b6060840152919350840135906001600160401b039081831115612ea457600080fd5b9185019160408388031215612eb857600080fd5b612ec0612802565b833583811115612ecf57600080fd5b8401610180818a031215612ee257600080fd5b612eea612846565b813585811115612ef957600080fd5b612f058b828501612a51565b825250612f148a858401612bb7565b8482015261014082013585811115612f2b57600080fd5b612f378b828501612c23565b60408301525061016082013585811115612f5057600080fd5b612f5c8b828501612c7e565b6060830152508252508382013583811115612f7657600080fd5b612f8289828701612d76565b8383015250809450505050509250929050565b805182526020808201518184015260408083015180518286015291820151606085015281015160808401525060600151805160a0830152602081015160c08301526040015160e090910152565b6101a08101612ff18285612f95565b82516101008301526020808401516101208401526040808501518051610140860152918201516101608501520151610180830152610eea565b6000806040838503121561303d57600080fd5b82356001600160401b038082111561305457600080fd5b61306086838701612932565b9350602085013591508082111561307657600080fd5b5061308385828601612932565b9150509250929050565b60005b838110156130a8578181015183820152602001613090565b50506000910152565b600081518084526130c981602086016020860161308d565b601f01601f19169290920160200192915050565b60c0815260006130f060c08301856130b1565b9050610eea602083018480518252602080820151818401526040918201518051838501529081015160608401520151608090910152565b60006060828403121561313957600080fd5b6131416127da565b905081518152602082015160208201526040820151604082015292915050565b6000610100828403121561317457600080fd5b61317c612846565b905081518152602082015160208201526131998360408401613127565b60408201526131ab8360a08401613127565b606082015292915050565b600061010082840312156131c957600080fd5b610eea8383613161565b600082601f8301126131e457600080fd5b81516131f26129518261290b565b81815284602083860101111561320757600080fd5b611ff582602083016020870161308d565b600082601f83011261322957600080fd5b81516020613239612951836128d2565b82815260059290921b8401810191818101908684111561325857600080fd5b8286015b84811015612a465780516001600160401b038082111561327c5760008081fd5b908801906040828b03601f19018113156132965760008081fd5b61329e612802565b87840151838111156132b05760008081fd5b6132be8d8a838801016131d3565b8252509201518683015250835291830191830161325c565b6000604082840312156132e857600080fd5b6132f0612802565b905081516001600160401b038082111561330957600080fd5b908301906060828603121561331d57600080fd5b6133256127da565b82518281111561333457600080fd5b8301601f8101871361334557600080fd5b80516020613355612951836128d2565b82815260059290921b8301810191818101908a84111561337457600080fd5b8285015b848110156133f2578051888111156133905760008081fd5b86016040818e03601f190112156133a75760008081fd5b6133af612802565b858201516133bc816128f5565b815260408201518a8111156133d15760008081fd5b6133df8f88838601016131d3565b8288015250845250918301918301613378565b5080865250508086015181850152604086015160408501528387528088015195508486111561342057600080fd5b612ba789878a01613218565b6000610120828403121561343f57600080fd5b613447612824565b905081518152602082015160208201526040820151604082015261346e8360608401613127565b606082015260c0820151608082015260e082015160a082015261010082015160c082015292915050565b600082601f8301126134a957600080fd5b815160206134b9612951836128d2565b82815260059290921b840181019181810190868411156134d857600080fd5b8286015b84811015612a4657805183529183019183016134dc565b600082601f83011261350457600080fd5b81516020613514612951836128d2565b82815260059290921b8401810191818101908684111561353357600080fd5b8286015b84811015612a465780516001600160401b038111156135565760008081fd5b8701603f810189136135685760008081fd5b84810151604061357a612951836128d2565b82815260069290921b8301810191878101908c84111561359a5760008081fd5b938201935b838510156135da5782858e0312156135b75760008081fd5b6135bf612802565b85518152898601518a8201528252938201939088019061359f565b875250505092840192508301613537565b6000604082840312156135fd57600080fd5b613605612802565b905081516001600160401b038082111561361e57600080fd5b908301906060828603121561363257600080fd5b61363a6127da565b825181526020830151602082015260408301518281111561365a57600080fd5b613666878286016131d3565b6040830152508352602084015191508082111561368257600080fd5b50612e1a848285016134f3565b600080604083850312156136a257600080fd5b82516001600160401b03808211156136b957600080fd5b9084019061018082870312156136ce57600080fd5b6136d6612846565b8251828111156136e557600080fd5b6136f1888286016132d6565b825250613701876020850161342c565b60208201526101408301518281111561371957600080fd5b61372588828601613498565b6040830152506101608301518281111561373e57600080fd5b61374a888286016134f3565b606083015250602086015190945091508082111561376757600080fd5b50613083858286016135eb565b600081518084526020808501808196508360051b8101915082860160005b858110156137d25782840389528151604081518187526137b4828801826130b1565b92880151968801969096525098850198935090840190600101613792565b5091979650505050505050565b805182526020810151602083015260408101516040830152606081015161381d60608401828051825260208082015190830152604090810151910152565b50608081015160c083015260a081015160e083015260c08101516101008301525050565b600081518084526020808501945080840160005b8381101561387157815187529582019590820190600101613855565b509495945050505050565b600081518084526020808501808196508360051b810191508286016000805b868110156138f5578385038a52825180518087529087019087870190845b818110156138e0578351805184528a01518a840152928901926040909201916001016138b9565b50509a87019a9550509185019160010161389b565b509298975050505050505050565b60008151604084528051604085015260208101516060850152604081015190506060608085015261393760a08501826130b1565b90506020830151848203602086015261260c828261387c565b600061012061395f8386612f95565b8061010084015283516040808386015281519250610180806101608701528351826102e08801526103808701815160606103208a01528181518084526103a09350838b019150838160051b8c010193506020808401935060005b82811015613a03578c860361039f19018452845180516001600160f01b03191687528201518287018a90526139f08a8801826130b1565b96505093810193928101926001016139b9565b50858101516103408d0152878601516103608d0152988901518b85036102df19016103008d015298613a35858b613774565b9950808901519550613a49878d01876137df565b87890151975061015f199650868c8b03016102a08d0152613a6a8a89613841565b995060608901519850868c8b03016102c08d0152613a888a8a61387c565b9950808d01519850505050505050505061011f1984830301610140850152611fa38282613903565b6000808284036101a0811215613ac557600080fd5b613acf8585613161565b925060a060ff1982011215613ae357600080fd5b613aeb6127da565b61010085015181526101208501516020820152606061013f1983011215613b1157600080fd5b613b196127da565b915061014085015182526101608501516020830152610180850151604083015281604082015280925050509250929050565b6101008101610c538284612f95565b634e487b7160e01b600052603260045260246000fd5b634e487b7160e01b600052601160045260246000fd5b600060018201613b9857613b98613b70565b5060010190565b8082028115828204841417610c5357610c53613b70565b6001600160e01b0319831681528151600090613bd981600485016020870161308d565b919091016004019392505050565b634e487b7160e01b600052601260045260246000fd5b600082613c0c57613c0c613be7565b500490565b80820180821115610c5357610c53613b70565b60008351613c3681846020880161308d565b835190830190613c4a81836020880161308d565b01949350505050565b600060808201868352602060808185015281875180845260a086019150828901935060005b81811015613c9457845183529383019391830191600101613c78565b50508481036040860152865180825290820192508187019060005b81811015613ce957613cd68584518051825260208082015190830152604090810151910152565b6060949094019391830191600101613caf565b5050505060609290920192909252949350505050565b600060208284031215613d1157600080fd5b81518015158114610eea57600080fd5b81810381811115610c5357610c53613b70565b600181815b80851115613d6f578160001904821115613d5557613d55613b70565b80851615613d6257918102915b93841c9390800290613d39565b509250929050565b600082613d8657506001610c53565b81613d9357506000610c53565b8160018114613da95760028114613db357613dcf565b6001915050610c53565b60ff841115613dc457613dc4613b70565b50506001821b610c53565b5060208310610133831016604e8410600b8410161715613df2575081810a610c53565b613dfc8383613d34565b8060001904821115613e1057613e10613b70565b029392505050565b6000610eea8383613d77565b600081613e3357613e33613b70565b506000190190565b60ff60f81b8360f81b16815260008251613e5c81600185016020870161308d565b919091016001019392505050565b634e487b7160e01b600052602160045260246000fd5b60008351613e9281846020880161308d565b6001600160e01b0319939093169190920190815260040192915050565b60008351613ec181846020880161308d565b6001600160c01b0319939093169190920190815260080192915050565b600060ff831680613ef157613ef1613be7565b8060ff84160691505092915050565b6001600160401b0381811683821601908082111561130557611305613b70565b60ff8181168382160190811115610c5357610c53613b70565b600082613f4857613f48613be7565b50069056fea26469706673582212205097e5faba97daa813b3e6ed8ab2c9944264f0f1c211515cb51206ba3f500b2c64736f6c63430008110033",
    "linkReferences": {
      "lib/solidity-merkle-trees/src/MerkleMountainRange.sol": {
        "MerkleMountainRange": [
          {
            "start": 4154,
            "length": 20
          }
        ]
      }
    }
  },
  "methodIdentifiers": {
    "AURA_CONSENSUS_ID()": "4e9fdbec",
    "ISMP_CONSENSUS_ID()": "babb3118",
    "MMR_ROOT_PAYLOAD_ID()": "af8b91d6",
    "SLOT_DURATION()": "905c0511",
    "verifyConsensus((uint256,uint256,(uint256,uint256,bytes32),(uint256,uint256,bytes32)),(((((bytes2,bytes)[],uint256,uint256),(bytes,uint256)[]),(uint256,uint256,bytes32,(uint256,uint256,bytes32),bytes32,uint256,uint256),bytes32[],(uint256,bytes32)[][]),((uint256,uint256,bytes),(uint256,bytes32)[][])))": "5e399aea",
    "verifyConsensus(bytes,bytes)": "7d755598"
  },
  "id": 41
}