{
  "abi": [
    {
      "inputs": [
        {
          "internalType": "address",
          "name": "_admin",
          "type": "address"
        }
      ],
      "stateMutability": "nonpayable",
      "type": "constructor"
    },
    {
      "inputs": [],
      "name": "NotAuthorized",
      "type": "error"
    },
    {
      "anonymous": false,
      "inputs": [
        {
          "indexed": false,
          "internalType": "uint256",
          "name": "nonce",
          "type": "uint256"
        },
        {
          "indexed": false,
          "internalType": "bytes",
          "name": "source",
          "type": "bytes"
        },
        {
          "indexed": false,
          "internalType": "string",
          "name": "message",
          "type": "string"
        }
      ],
      "name": "PostReceived",
      "type": "event"
    },
    {
      "inputs": [
        {
          "components": [
            {
              "internalType": "bytes",
              "name": "source",
              "type": "bytes"
            },
            {
              "internalType": "bytes",
              "name": "dest",
              "type": "bytes"
            },
            {
              "internalType": "uint64",
              "name": "nonce",
              "type": "uint64"
            },
            {
              "internalType": "bytes",
              "name": "from",
              "type": "bytes"
            },
            {
              "internalType": "bytes",
              "name": "to",
              "type": "bytes"
            },
            {
              "internalType": "uint64",
              "name": "timeoutTimestamp",
              "type": "uint64"
            },
            {
              "internalType": "bytes",
              "name": "body",
              "type": "bytes"
            },
            {
              "internalType": "uint64",
              "name": "gaslimit",
              "type": "uint64"
            }
          ],
          "internalType": "struct PostRequest",
          "name": "request",
          "type": "tuple"
        }
      ],
      "name": "onAccept",
      "outputs": [],
      "stateMutability": "nonpayable",
      "type": "function"
    },
    {
      "inputs": [
        {
          "components": [
            {
              "components": [
                {
                  "internalType": "bytes",
                  "name": "source",
                  "type": "bytes"
                },
                {
                  "internalType": "bytes",
                  "name": "dest",
                  "type": "bytes"
                },
                {
                  "internalType": "uint64",
                  "name": "nonce",
                  "type": "uint64"
                },
                {
                  "internalType": "bytes",
                  "name": "from",
                  "type": "bytes"
                },
                {
                  "internalType": "uint64",
                  "name": "timeoutTimestamp",
                  "type": "uint64"
                },
                {
                  "internalType": "bytes[]",
                  "name": "keys",
                  "type": "bytes[]"
                },
                {
                  "internalType": "uint64",
                  "name": "height",
                  "type": "uint64"
                },
                {
                  "internalType": "uint64",
                  "name": "gaslimit",
                  "type": "uint64"
                }
              ],
              "internalType": "struct GetRequest",
              "name": "request",
              "type": "tuple"
            },
            {
              "components": [
                {
                  "internalType": "bytes",
                  "name": "key",
                  "type": "bytes"
                },
                {
                  "internalType": "bytes",
                  "name": "value",
                  "type": "bytes"
                }
              ],
              "internalType": "struct StorageValue[]",
              "name": "values",
              "type": "tuple[]"
            }
          ],
          "internalType": "struct GetResponse",
          "name": "response",
          "type": "tuple"
        }
      ],
      "name": "onGetResponse",
      "outputs": [],
      "stateMutability": "view",
      "type": "function"
    },
    {
      "inputs": [
        {
          "components": [
            {
              "internalType": "bytes",
              "name": "source",
              "type": "bytes"
            },
            {
              "internalType": "bytes",
              "name": "dest",
              "type": "bytes"
            },
            {
              "internalType": "uint64",
              "name": "nonce",
              "type": "uint64"
            },
            {
              "internalType": "bytes",
              "name": "from",
              "type": "bytes"
            },
            {
              "internalType": "uint64",
              "name": "timeoutTimestamp",
              "type": "uint64"
            },
            {
              "internalType": "bytes[]",
              "name": "keys",
              "type": "bytes[]"
            },
            {
              "internalType": "uint64",
              "name": "height",
              "type": "uint64"
            },
            {
              "internalType": "uint64",
              "name": "gaslimit",
              "type": "uint64"
            }
          ],
          "internalType": "struct GetRequest",
          "name": "request",
          "type": "tuple"
        }
      ],
      "name": "onGetTimeout",
      "outputs": [],
      "stateMutability": "view",
      "type": "function"
    },
    {
      "inputs": [
        {
          "components": [
            {
              "components": [
                {
                  "internalType": "bytes",
                  "name": "source",
                  "type": "bytes"
                },
                {
                  "internalType": "bytes",
                  "name": "dest",
                  "type": "bytes"
                },
                {
                  "internalType": "uint64",
                  "name": "nonce",
                  "type": "uint64"
                },
                {
                  "internalType": "bytes",
                  "name": "from",
                  "type": "bytes"
                },
                {
                  "internalType": "bytes",
                  "name": "to",
                  "type": "bytes"
                },
                {
                  "internalType": "uint64",
                  "name": "timeoutTimestamp",
                  "type": "uint64"
                },
                {
                  "internalType": "bytes",
                  "name": "body",
                  "type": "bytes"
                },
                {
                  "internalType": "uint64",
                  "name": "gaslimit",
                  "type": "uint64"
                }
              ],
              "internalType": "struct PostRequest",
              "name": "request",
              "type": "tuple"
            },
            {
              "internalType": "bytes",
              "name": "response",
              "type": "bytes"
            }
          ],
          "internalType": "struct PostResponse",
          "name": "response",
          "type": "tuple"
        }
      ],
      "name": "onPostResponse",
      "outputs": [],
      "stateMutability": "view",
      "type": "function"
    },
    {
      "inputs": [
        {
          "components": [
            {
              "internalType": "bytes",
              "name": "source",
              "type": "bytes"
            },
            {
              "internalType": "bytes",
              "name": "dest",
              "type": "bytes"
            },
            {
              "internalType": "uint64",
              "name": "nonce",
              "type": "uint64"
            },
            {
              "internalType": "bytes",
              "name": "from",
              "type": "bytes"
            },
            {
              "internalType": "bytes",
              "name": "to",
              "type": "bytes"
            },
            {
              "internalType": "uint64",
              "name": "timeoutTimestamp",
              "type": "uint64"
            },
            {
              "internalType": "bytes",
              "name": "body",
              "type": "bytes"
            },
            {
              "internalType": "uint64",
              "name": "gaslimit",
              "type": "uint64"
            }
          ],
          "internalType": "struct PostRequest",
          "name": "request",
          "type": "tuple"
        }
      ],
      "name": "onPostTimeout",
      "outputs": [],
      "stateMutability": "nonpayable",
      "type": "function"
    },
    {
      "inputs": [
        {
          "internalType": "address",
          "name": "_host",
          "type": "address"
        }
      ],
      "name": "setIsmpHost",
      "outputs": [],
      "stateMutability": "nonpayable",
      "type": "function"
    },
    {
      "inputs": [
        {
          "components": [
            {
              "internalType": "bytes",
              "name": "dest",
              "type": "bytes"
            },
            {
              "internalType": "bytes",
              "name": "message",
              "type": "bytes"
            },
            {
              "internalType": "uint64",
              "name": "timeout",
              "type": "uint64"
            }
          ],
          "internalType": "struct CrossChainMessage",
          "name": "params",
          "type": "tuple"
        }
      ],
      "name": "teleport",
      "outputs": [],
      "stateMutability": "nonpayable",
      "type": "function"
    }
  ],
  "bytecode": {
    "object": "0x608060405234801561001057600080fd5b50604051610cde380380610cde83398101604081905261002f91610054565b600180546001600160a01b0319166001600160a01b0392909216919091179055610084565b60006020828403121561006657600080fd5b81516001600160a01b038116811461007d57600080fd5b9392505050565b610c4b806100936000396000f3fe608060405234801561001057600080fd5b506004361061007d5760003560e01c806354ce464d1161005b57806354ce464d146100e1578063c52c28af146100f4578063c715f52b14610107578063f370fdbb1461011a57600080fd5b80630e8324a2146100825780634c46c035146100bb5780634e87ba19146100ce575b600080fd5b6100b96100903660046103f4565b600080546001600160a01b039092166001600160a01b0319928316179055600180549091169055565b005b6100b96100c93660046106ef565b610128565b6100b96100dc366004610831565b6101b6565b6100b96100ef366004610865565b610228565b6100b961010236600461091c565b610305565b6100b9610115366004610831565b61038b565b6100b96100c93660046109ac565b6000546001600160a01b031633146101535760405163ea8e4eb560e01b815260040160405180910390fd5b60405162461bcd60e51b815260206004820152602d60248201527f43726f7373436861696e4d657373656e67657220646f65736e277420656d697460448201526c2047657420526571756573747360981b60648201526084015b60405180910390fd5b6000546001600160a01b031633146101e15760405163ea8e4eb560e01b815260040160405180910390fd5b604080820151825160c084015192517ff171f8e688d72a92c6d635d7f68bf0ddf4bda0d023697b06eaab4f168fd682bd9361021d939291610b4f565b60405180910390a150565b60006040518060a001604052808360000151815260200130604051602001610268919060609190911b6bffffffffffffffffffffffff1916815260140190565b60408051601f1981840301815291815290825260208581015190830152848101516001600160401b031682820152600060609092018290529054905163d25bcd3d60e01b81529192506001600160a01b03169063d25bcd3d906102cf908490600401610b8d565b600060405180830381600087803b1580156102e957600080fd5b505af11580156102fd573d6000803e3d6000fd5b505050505050565b6000546001600160a01b031633146103305760405163ea8e4eb560e01b815260040160405180910390fd5b60405162461bcd60e51b815260206004820152602a60248201527f43726f7373436861696e4d657373656e67657220646f65736e277420656d697460448201526920726573706f6e73657360b01b60648201526084016101ad565b6000546001600160a01b031633146103b65760405163ea8e4eb560e01b815260040160405180910390fd5b60405162461bcd60e51b81526020600482015260136024820152724e6f2074696d656f75747320666f72206e6f7760681b60448201526064016101ad565b60006020828403121561040657600080fd5b81356001600160a01b038116811461041d57600080fd5b9392505050565b634e487b7160e01b600052604160045260246000fd5b60405161010081016001600160401b038111828210171561045d5761045d610424565b60405290565b604080519081016001600160401b038111828210171561045d5761045d610424565b604051601f8201601f191681016001600160401b03811182821017156104ad576104ad610424565b604052919050565b600082601f8301126104c657600080fd5b81356001600160401b038111156104df576104df610424565b6104f2601f8201601f1916602001610485565b81815284602083860101111561050757600080fd5b816020850160208301376000918101602001919091529392505050565b80356001600160401b038116811461053b57600080fd5b919050565b60006001600160401b0382111561055957610559610424565b5060051b60200190565b600082601f83011261057457600080fd5b8135602061058961058483610540565b610485565b82815260059290921b840181019181810190868411156105a857600080fd5b8286015b848110156105e75780356001600160401b038111156105cb5760008081fd5b6105d98986838b01016104b5565b8452509183019183016105ac565b509695505050505050565b6000610100828403121561060557600080fd5b61060d61043a565b905081356001600160401b038082111561062657600080fd5b610632858386016104b5565b8352602084013591508082111561064857600080fd5b610654858386016104b5565b602084015261066560408501610524565b6040840152606084013591508082111561067e57600080fd5b61068a858386016104b5565b606084015261069b60808501610524565b608084015260a08401359150808211156106b457600080fd5b506106c184828501610563565b60a0830152506106d360c08301610524565b60c08201526106e460e08301610524565b60e082015292915050565b60006020828403121561070157600080fd5b81356001600160401b0381111561071757600080fd5b610723848285016105f2565b949350505050565b6000610100828403121561073e57600080fd5b61074661043a565b905081356001600160401b038082111561075f57600080fd5b61076b858386016104b5565b8352602084013591508082111561078157600080fd5b61078d858386016104b5565b602084015261079e60408501610524565b604084015260608401359150808211156107b757600080fd5b6107c3858386016104b5565b606084015260808401359150808211156107dc57600080fd5b6107e8858386016104b5565b60808401526107f960a08501610524565b60a084015260c084013591508082111561081257600080fd5b5061081f848285016104b5565b60c0830152506106e460e08301610524565b60006020828403121561084357600080fd5b81356001600160401b0381111561085957600080fd5b6107238482850161072b565b60006020828403121561087757600080fd5b81356001600160401b038082111561088e57600080fd5b90830190606082860312156108a257600080fd5b6040516060810181811083821117156108bd576108bd610424565b6040528235828111156108cf57600080fd5b6108db878286016104b5565b8252506020830135828111156108f057600080fd5b6108fc878286016104b5565b60208301525061090e60408401610524565b604082015295945050505050565b60006020828403121561092e57600080fd5b81356001600160401b038082111561094557600080fd5b908301906040828603121561095957600080fd5b610961610463565b82358281111561097057600080fd5b61097c8782860161072b565b82525060208301358281111561099157600080fd5b61099d878286016104b5565b60208301525095945050505050565b600060208083850312156109bf57600080fd5b82356001600160401b03808211156109d657600080fd5b818501915060408083880312156109ec57600080fd5b6109f4610463565b833583811115610a0357600080fd5b610a0f898287016105f2565b8252508484013583811115610a2357600080fd5b80850194505087601f850112610a3857600080fd5b8335610a4661058482610540565b81815260059190911b8501860190868101908a831115610a6557600080fd5b8787015b83811015610af557803587811115610a815760008081fd5b8801808d03601f1901871315610a975760008081fd5b610a9f610463565b8a82013589811115610ab15760008081fd5b610abf8f8d838601016104b5565b8252508782013589811115610ad45760008081fd5b610ae28f8d838601016104b5565b828d015250845250918801918801610a69565b509683019690965250979650505050505050565b6000815180845260005b81811015610b2f57602081850181015186830182015201610b13565b506000602082860101526020601f19601f83011685010191505092915050565b6001600160401b0384168152606060208201526000610b716060830185610b09565b8281036040840152610b838185610b09565b9695505050505050565b602081526000825160a06020840152610ba960c0840182610b09565b90506020840151601f1980858403016040860152610bc78383610b09565b9250604086015191508085840301606086015250610be58282610b09565b91505060608401516001600160401b0380821660808601528060808701511660a08601525050809150509291505056fea264697066735822122040a834e2cc4a7b42af66122577725d1c22deb5a8f144c73d0711ed4878299a9164736f6c63430008110033",
    "linkReferences": {}
  },
  "methodIdentifiers": {
    "onAccept((bytes,bytes,uint64,bytes,bytes,uint64,bytes,uint64))": "4e87ba19",
    "onGetResponse(((bytes,bytes,uint64,bytes,uint64,bytes[],uint64,uint64),(bytes,bytes)[]))": "f370fdbb",
    "onGetTimeout((bytes,bytes,uint64,bytes,uint64,bytes[],uint64,uint64))": "4c46c035",
    "onPostResponse(((bytes,bytes,uint64,bytes,bytes,uint64,bytes,uint64),bytes))": "c52c28af",
    "onPostTimeout((bytes,bytes,uint64,bytes,bytes,uint64,bytes,uint64))": "c715f52b",
    "setIsmpHost(address)": "0e8324a2",
    "teleport((bytes,bytes,uint64))": "54ce464d"
  },
  "id": 44
}