{
  "abi": [
    {
      "anonymous": false,
      "inputs": [
        {
          "indexed": false,
          "internalType": "uint256",
          "name": "stateMachineId",
          "type": "uint256"
        },
        {
          "indexed": false,
          "internalType": "uint256",
          "name": "height",
          "type": "uint256"
        }
      ],
      "name": "StateMachineUpdated",
      "type": "event"
    },
    {
      "inputs": [
        {
          "internalType": "contract IIsmpHost",
          "name": "host",
          "type": "address"
        },
        {
          "internalType": "bytes",
          "name": "proof",
          "type": "bytes"
        }
      ],
      "name": "handleConsensus",
      "outputs": [],
      "stateMutability": "nonpayable",
      "type": "function"
    },
    {
      "inputs": [
        {
          "internalType": "contract IIsmpHost",
          "name": "host",
          "type": "address"
        },
        {
          "components": [
            {
              "internalType": "bytes[]",
              "name": "proof",
              "type": "bytes[]"
            },
            {
              "components": [
                {
                  "internalType": "uint256",
                  "name": "stateMachineId",
                  "type": "uint256"
                },
                {
                  "internalType": "uint256",
                  "name": "height",
                  "type": "uint256"
                }
              ],
              "internalType": "struct StateMachineHeight",
              "name": "height",
              "type": "tuple"
            },
            {
              "components": [
                {
                  "internalType": "bytes",
                  "name": "source",
                  "type": "bytes"
                },
                {
                  "internalType": "bytes",
                  "name": "dest",
                  "type": "bytes"
                },
                {
                  "internalType": "uint64",
                  "name": "nonce",
                  "type": "uint64"
                },
                {
                  "internalType": "bytes",
                  "name": "from",
                  "type": "bytes"
                },
                {
                  "internalType": "uint64",
                  "name": "timeoutTimestamp",
                  "type": "uint64"
                },
                {
                  "internalType": "bytes[]",
                  "name": "keys",
                  "type": "bytes[]"
                },
                {
                  "internalType": "uint64",
                  "name": "height",
                  "type": "uint64"
                },
                {
                  "internalType": "uint64",
                  "name": "gaslimit",
                  "type": "uint64"
                }
              ],
              "internalType": "struct GetRequest[]",
              "name": "requests",
              "type": "tuple[]"
            }
          ],
          "internalType": "struct GetResponseMessage",
          "name": "message",
          "type": "tuple"
        }
      ],
      "name": "handleGetResponses",
      "outputs": [],
      "stateMutability": "nonpayable",
      "type": "function"
    },
    {
      "inputs": [
        {
          "internalType": "contract IIsmpHost",
          "name": "host",
          "type": "address"
        },
        {
          "components": [
            {
              "components": [
                {
                  "internalType": "bytes",
                  "name": "source",
                  "type": "bytes"
                },
                {
                  "internalType": "bytes",
                  "name": "dest",
                  "type": "bytes"
                },
                {
                  "internalType": "uint64",
                  "name": "nonce",
                  "type": "uint64"
                },
                {
                  "internalType": "bytes",
                  "name": "from",
                  "type": "bytes"
                },
                {
                  "internalType": "uint64",
                  "name": "timeoutTimestamp",
                  "type": "uint64"
                },
                {
                  "internalType": "bytes[]",
                  "name": "keys",
                  "type": "bytes[]"
                },
                {
                  "internalType": "uint64",
                  "name": "height",
                  "type": "uint64"
                },
                {
                  "internalType": "uint64",
                  "name": "gaslimit",
                  "type": "uint64"
                }
              ],
              "internalType": "struct GetRequest[]",
              "name": "timeouts",
              "type": "tuple[]"
            }
          ],
          "internalType": "struct GetTimeoutMessage",
          "name": "message",
          "type": "tuple"
        }
      ],
      "name": "handleGetTimeouts",
      "outputs": [],
      "stateMutability": "nonpayable",
      "type": "function"
    },
    {
      "inputs": [
        {
          "internalType": "contract IIsmpHost",
          "name": "host",
          "type": "address"
        },
        {
          "components": [
            {
              "components": [
                {
                  "components": [
                    {
                      "internalType": "uint256",
                      "name": "stateMachineId",
                      "type": "uint256"
                    },
                    {
                      "internalType": "uint256",
                      "name": "height",
                      "type": "uint256"
                    }
                  ],
                  "internalType": "struct StateMachineHeight",
                  "name": "height",
                  "type": "tuple"
                },
                {
                  "internalType": "bytes32[]",
                  "name": "multiproof",
                  "type": "bytes32[]"
                },
                {
                  "internalType": "uint256",
                  "name": "leafCount",
                  "type": "uint256"
                }
              ],
              "internalType": "struct Proof",
              "name": "proof",
              "type": "tuple"
            },
            {
              "components": [
                {
                  "components": [
                    {
                      "internalType": "bytes",
                      "name": "source",
                      "type": "bytes"
                    },
                    {
                      "internalType": "bytes",
                      "name": "dest",
                      "type": "bytes"
                    },
                    {
                      "internalType": "uint64",
                      "name": "nonce",
                      "type": "uint64"
                    },
                    {
                      "internalType": "bytes",
                      "name": "from",
                      "type": "bytes"
                    },
                    {
                      "internalType": "bytes",
                      "name": "to",
                      "type": "bytes"
                    },
                    {
                      "internalType": "uint64",
                      "name": "timeoutTimestamp",
                      "type": "uint64"
                    },
                    {
                      "internalType": "bytes",
                      "name": "body",
                      "type": "bytes"
                    },
                    {
                      "internalType": "uint64",
                      "name": "gaslimit",
                      "type": "uint64"
                    }
                  ],
                  "internalType": "struct PostRequest",
                  "name": "request",
                  "type": "tuple"
                },
                {
                  "internalType": "uint256",
                  "name": "index",
                  "type": "uint256"
                },
                {
                  "internalType": "uint256",
                  "name": "kIndex",
                  "type": "uint256"
                }
              ],
              "internalType": "struct PostRequestLeaf[]",
              "name": "requests",
              "type": "tuple[]"
            }
          ],
          "internalType": "struct PostRequestMessage",
          "name": "request",
          "type": "tuple"
        }
      ],
      "name": "handlePostRequests",
      "outputs": [],
      "stateMutability": "nonpayable",
      "type": "function"
    },
    {
      "inputs": [
        {
          "internalType": "contract IIsmpHost",
          "name": "host",
          "type": "address"
        },
        {
          "components": [
            {
              "components": [
                {
                  "components": [
                    {
                      "internalType": "uint256",
                      "name": "stateMachineId",
                      "type": "uint256"
                    },
                    {
                      "internalType": "uint256",
                      "name": "height",
                      "type": "uint256"
                    }
                  ],
                  "internalType": "struct StateMachineHeight",
                  "name": "height",
                  "type": "tuple"
                },
                {
                  "internalType": "bytes32[]",
                  "name": "multiproof",
                  "type": "bytes32[]"
                },
                {
                  "internalType": "uint256",
                  "name": "leafCount",
                  "type": "uint256"
                }
              ],
              "internalType": "struct Proof",
              "name": "proof",
              "type": "tuple"
            },
            {
              "components": [
                {
                  "components": [
                    {
                      "components": [
                        {
                          "internalType": "bytes",
                          "name": "source",
                          "type": "bytes"
                        },
                        {
                          "internalType": "bytes",
                          "name": "dest",
                          "type": "bytes"
                        },
                        {
                          "internalType": "uint64",
                          "name": "nonce",
                          "type": "uint64"
                        },
                        {
                          "internalType": "bytes",
                          "name": "from",
                          "type": "bytes"
                        },
                        {
                          "internalType": "bytes",
                          "name": "to",
                          "type": "bytes"
                        },
                        {
                          "internalType": "uint64",
                          "name": "timeoutTimestamp",
                          "type": "uint64"
                        },
                        {
                          "internalType": "bytes",
                          "name": "body",
                          "type": "bytes"
                        },
                        {
                          "internalType": "uint64",
                          "name": "gaslimit",
                          "type": "uint64"
                        }
                      ],
                      "internalType": "struct PostRequest",
                      "name": "request",
                      "type": "tuple"
                    },
                    {
                      "internalType": "bytes",
                      "name": "response",
                      "type": "bytes"
                    }
                  ],
                  "internalType": "struct PostResponse",
                  "name": "response",
                  "type": "tuple"
                },
                {
                  "internalType": "uint256",
                  "name": "index",
                  "type": "uint256"
                },
                {
                  "internalType": "uint256",
                  "name": "kIndex",
                  "type": "uint256"
                }
              ],
              "internalType": "struct PostResponseLeaf[]",
              "name": "responses",
              "type": "tuple[]"
            }
          ],
          "internalType": "struct PostResponseMessage",
          "name": "response",
          "type": "tuple"
        }
      ],
      "name": "handlePostResponses",
      "outputs": [],
      "stateMutability": "nonpayable",
      "type": "function"
    },
    {
      "inputs": [
        {
          "internalType": "contract IIsmpHost",
          "name": "host",
          "type": "address"
        },
        {
          "components": [
            {
              "components": [
                {
                  "internalType": "bytes",
                  "name": "source",
                  "type": "bytes"
                },
                {
                  "internalType": "bytes",
                  "name": "dest",
                  "type": "bytes"
                },
                {
                  "internalType": "uint64",
                  "name": "nonce",
                  "type": "uint64"
                },
                {
                  "internalType": "bytes",
                  "name": "from",
                  "type": "bytes"
                },
                {
                  "internalType": "bytes",
                  "name": "to",
                  "type": "bytes"
                },
                {
                  "internalType": "uint64",
                  "name": "timeoutTimestamp",
                  "type": "uint64"
                },
                {
                  "internalType": "bytes",
                  "name": "body",
                  "type": "bytes"
                },
                {
                  "internalType": "uint64",
                  "name": "gaslimit",
                  "type": "uint64"
                }
              ],
              "internalType": "struct PostRequest[]",
              "name": "timeouts",
              "type": "tuple[]"
            },
            {
              "components": [
                {
                  "internalType": "uint256",
                  "name": "stateMachineId",
                  "type": "uint256"
                },
                {
                  "internalType": "uint256",
                  "name": "height",
                  "type": "uint256"
                }
              ],
              "internalType": "struct StateMachineHeight",
              "name": "height",
              "type": "tuple"
            },
            {
              "internalType": "bytes[]",
              "name": "proof",
              "type": "bytes[]"
            }
          ],
          "internalType": "struct PostTimeoutMessage",
          "name": "message",
          "type": "tuple"
        }
      ],
      "name": "handlePostTimeouts",
      "outputs": [],
      "stateMutability": "nonpayable",
      "type": "function"
    }
  ],
  "bytecode": {
    "object": "0x608060405234801561001057600080fd5b50613fd2806100206000396000f3fe608060405234801561001057600080fd5b50600436106100625760003560e01c806320d71c7a14610067578063873ce1ce1461007c578063ac269bd61461008f578063bb1689be146100a2578063d95e4fbb146100b5578063fda626c3146100c8575b600080fd5b61007a610075366004612c7c565b6100db565b005b61007a61008a366004613055565b610819565b61007a61009d36600461310c565b610f2d565b61007a6100b03660046131a3565b6111b9565b61007a6100c33660046131f2565b611a54565b61007a6100d6366004613319565b611efb565b81806001600160a01b031663054f7d9c6040518163ffffffff1660e01b81526004016020604051808303816000875af115801561011c573d6000803e3d6000fd5b505050506040513d601f19601f820116820180604052508101906101409190613479565b156101665760405162461bcd60e51b815260040161015d906134a2565b60405180910390fd5b815151604051631a880a9360e01b81526000916001600160a01b03861691631a880a9391610196916004016134cc565b6020604051808303816000875af11580156101b5573d6000803e3d6000fd5b505050506040513d601f19601f820116820180604052508101906101d991906134e3565b846001600160a01b031663b80777ea6040518163ffffffff1660e01b81526004016020604051808303816000875af1158015610219573d6000803e3d6000fd5b505050506040513d601f19601f8201168201806040525081019061023d91906134e3565b6102479190613512565b9050836001600160a01b031663f3f480d96040518163ffffffff1660e01b81526004016020604051808303816000875af1158015610289573d6000803e3d6000fd5b505050506040513d601f19601f820116820180604052508101906102ad91906134e3565b81116102cb5760405162461bcd60e51b815260040161015d90613525565b6020830151516000816001600160401b038111156102eb576102eb612913565b60405190808252806020026020018201604052801561033657816020015b60408051606081018252600080825260208083018290529282015282526000199092019101816103095790505b50905060005b828110156105f95760008660200151828151811061035c5761035c613568565b602002602001015190506103db886001600160a01b031663f437bc596040518163ffffffff1660e01b81526004016000604051808303816000875af11580156103a9573d6000803e3d6000fd5b505050506040513d6000823e601f3d908101601f191682016040526103d191908101906135ef565b8251515190612639565b6104365760405162461bcd60e51b815260206004820152602660248201527f4948616e646c65723a20496e76616c696420726573706f6e73652064657374696044820152653730ba34b7b760d11b606482015260840161015d565b8051516000906104459061266b565b604051630da2fd1960e21b8152600481018290529091506001600160a01b038a169063368bf464906024016020604051808303816000875af115801561048f573d6000803e3d6000fd5b505050506040513d601f19601f820116820180604052508101906104b39190613479565b6104cf5760405162461bcd60e51b815260040161015d90613623565b60006104de83600001516126c2565b604051632211f1dd60e01b8152600481018290529091506001600160a01b038b1690632211f1dd906024016020604051808303816000875af1158015610528573d6000803e3d6000fd5b505050506040513d601f19601f8201168201806040525081019061054c9190613479565b156105a35760405162461bcd60e51b815260206004820152602160248201527f4948616e646c65723a204475706c696361746520506f737420726573706f6e736044820152606560f81b606482015260840161015d565b60405180606001604052808460400151815260200184602001518152602001828152508585815181106105d8576105d8613568565b602002602001018190525050505080806105f19061365a565b91505061033c565b5084515160405163a70a8c4760e01b81526000916001600160a01b0389169163a70a8c479161062a916004016134cc565b6060604051808303816000875af1158015610649573d6000803e3d6000fd5b505050506040513d601f19601f8201168201806040525081019061066d91906136ad565b602001519050806106905760405162461bcd60e51b815260040161015d906136c9565b85516020810151604091820151915163722e206d60e01b815273__$2399d33eab5707eb5118077f9c67419cb4$__9263722e206d926106d5928692889160040161370a565b602060405180830381865af41580156106f2573d6000803e3d6000fd5b505050506040513d601f19601f820116820180604052508101906107169190613479565b61076c5760405162461bcd60e51b815260206004820152602160248201527f4948616e646c65723a20496e76616c696420726573706f6e73652070726f6f666044820152607360f81b606482015260840161015d565b60005b8381101561080f5760008760200151828151811061078f5761078f613568565b60200260200101519050886001600160a01b0316638cf66b9282600001516040518263ffffffff1660e01b81526004016107c991906138b7565b600060405180830381600087803b1580156107e357600080fd5b505af11580156107f7573d6000803e3d6000fd5b505050505080806108079061365a565b91505061076f565b5050505050505050565b81806001600160a01b031663054f7d9c6040518163ffffffff1660e01b81526004016020604051808303816000875af115801561085a573d6000803e3d6000fd5b505050506040513d601f19601f8201168201806040525081019061087e9190613479565b1561089b5760405162461bcd60e51b815260040161015d906134a2565b6020820151604051631a880a9360e01b81526000916001600160a01b03861691631a880a93916108cd916004016134cc565b6020604051808303816000875af11580156108ec573d6000803e3d6000fd5b505050506040513d601f19601f8201168201806040525081019061091091906134e3565b846001600160a01b031663b80777ea6040518163ffffffff1660e01b81526004016020604051808303816000875af1158015610950573d6000803e3d6000fd5b505050506040513d601f19601f8201168201806040525081019061097491906134e3565b61097e9190613512565b9050836001600160a01b031663f3f480d96040518163ffffffff1660e01b81526004016020604051808303816000875af11580156109c0573d6000803e3d6000fd5b505050506040513d601f19601f820116820180604052508101906109e491906134e3565b8111610a025760405162461bcd60e51b815260040161015d90613525565b602083015160405163a70a8c4760e01b81526000916001600160a01b0387169163a70a8c4791610a34916004016134cc565b6060604051808303816000875af1158015610a53573d6000803e3d6000fd5b505050506040513d601f19601f82011682018060405250810190610a7791906136ad565b604081015190915080610a9c5760405162461bcd60e51b815260040161015d906136c9565b604085015151855160005b82811015610f2257600088604001518281518110610ac757610ac7613568565b60200260200101519050610b448a6001600160a01b031663f437bc596040518163ffffffff1660e01b81526004016000604051808303816000875af1158015610b14573d6000803e3d6000fd5b505050506040513d6000823e601f3d908101601f19168201604052610b3c91908101906135ef565b825190612639565b610ba35760405162461bcd60e51b815260206004820152602a60248201527f4948616e646c65723a20496e76616c69642047455420726573706f6e7365206460448201526932b9ba34b730ba34b7b760b11b606482015260840161015d565b6000610bae82612705565b604051630da2fd1960e21b8152600481018290529091506001600160a01b038c169063368bf464906024016020604051808303816000875af1158015610bf8573d6000803e3d6000fd5b505050506040513d601f19601f82011682018060405250810190610c1c9190613479565b610c685760405162461bcd60e51b815260206004820152601d60248201527f4948616e646c65723a20556e6b6e6f776e204745542072657175657374000000604482015260640161015d565b8a6001600160a01b031663b80777ea6040518163ffffffff1660e01b81526004016020604051808303816000875af1158015610ca8573d6000803e3d6000fd5b505050506040513d601f19601f82011682018060405250810190610ccc91906134e3565b82608001516001600160401b031610610d275760405162461bcd60e51b815260206004820152601f60248201527f4948616e646c65723a2047455420726571756573742074696d6564206f757400604482015260640161015d565b600073__$3557184f57f01f44bdc1609b323054fd0c$__6355028f6f88878660a0015186604051602001610d5d91815260200190565b6040516020818303038152906040526040518563ffffffff1660e01b8152600401610d8b9493929190613945565b600060405180830381865af4158015610da8573d6000803e3d6000fd5b505050506040513d6000823e601f3d908101601f19168201604052610dd0919081019061398f565b60408051808201909152848152602081018290529091506001600160a01b038d16632211f1dd610dff836127d7565b6040518263ffffffff1660e01b8152600401610e1d91815260200190565b6020604051808303816000875af1158015610e3c573d6000803e3d6000fd5b505050506040513d601f19601f82011682018060405250810190610e609190613479565b15610ead5760405162461bcd60e51b815260206004820181905260248201527f4948616e646c65723a204475706c69636174652047455420726573706f6e7365604482015260640161015d565b60405163f073609160e01b81526001600160a01b038e169063f073609190610ed9908490600401613b6c565b600060405180830381600087803b158015610ef357600080fd5b505af1158015610f07573d6000803e3d6000fd5b50505050505050508080610f1a9061365a565b915050610aa7565b505050505050505050565b81806001600160a01b031663054f7d9c6040518163ffffffff1660e01b81526004016020604051808303816000875af1158015610f6e573d6000803e3d6000fd5b505050506040513d601f19601f82011682018060405250810190610f929190613479565b15610faf5760405162461bcd60e51b815260040161015d906134a2565b81515160005b818110156111b257600084600001518281518110610fd557610fd5613568565b602002602001015190506000610fea82612705565b604051630da2fd1960e21b8152600481018290529091506001600160a01b0388169063368bf464906024016020604051808303816000875af1158015611034573d6000803e3d6000fd5b505050506040513d601f19601f820116820180604052508101906110589190613479565b6110745760405162461bcd60e51b815260040161015d90613623565b81608001516001600160401b0316876001600160a01b031663b80777ea6040518163ffffffff1660e01b81526004016020604051808303816000875af11580156110c2573d6000803e3d6000fd5b505050506040513d601f19601f820116820180604052508101906110e691906134e3565b1161113f5760405162461bcd60e51b815260206004820152602360248201527f4948616e646c65723a204745542072657175657374206e6f742074696d6564206044820152621bdd5d60ea1b606482015260840161015d565b6040516384566a5d60e01b81526001600160a01b038816906384566a5d9061116b908590600401613c12565b600060405180830381600087803b15801561118557600080fd5b505af1158015611199573d6000803e3d6000fd5b50505050505080806111aa9061365a565b915050610fb5565b5050505050565b81806001600160a01b031663054f7d9c6040518163ffffffff1660e01b81526004016020604051808303816000875af11580156111fa573d6000803e3d6000fd5b505050506040513d601f19601f8201168201806040525081019061121e9190613479565b1561123b5760405162461bcd60e51b815260040161015d906134a2565b826001600160a01b031663f3f480d96040518163ffffffff1660e01b81526004016020604051808303816000875af115801561127b573d6000803e3d6000fd5b505050506040513d601f19601f8201168201806040525081019061129f91906134e3565b836001600160a01b0316639a8425bc6040518163ffffffff1660e01b81526004016020604051808303816000875af11580156112df573d6000803e3d6000fd5b505050506040513d601f19601f8201168201806040525081019061130391906134e3565b846001600160a01b031663b80777ea6040518163ffffffff1660e01b81526004016020604051808303816000875af1158015611343573d6000803e3d6000fd5b505050506040513d601f19601f8201168201806040525081019061136791906134e3565b6113719190613512565b1161138e5760405162461bcd60e51b815260040161015d90613525565b826001600160a01b031663d40784c76040518163ffffffff1660e01b81526004016020604051808303816000875af11580156113ce573d6000803e3d6000fd5b505050506040513d601f19601f820116820180604052508101906113f291906134e3565b836001600160a01b0316639a8425bc6040518163ffffffff1660e01b81526004016020604051808303816000875af1158015611432573d6000803e3d6000fd5b505050506040513d601f19601f8201168201806040525081019061145691906134e3565b846001600160a01b031663b80777ea6040518163ffffffff1660e01b81526004016020604051808303816000875af1158015611496573d6000803e3d6000fd5b505050506040513d601f19601f820116820180604052508101906114ba91906134e3565b6114c49190613512565b10806115445750826001600160a01b031663f851a4406040518163ffffffff1660e01b81526004016020604051808303816000875af115801561150b573d6000803e3d6000fd5b505050506040513d601f19601f8201168201806040525081019061152f9190613c25565b6001600160a01b0316336001600160a01b0316145b6115605760405162461bcd60e51b815260040161015d90613525565b600080846001600160a01b0316632476132b6040518163ffffffff1660e01b81526004016020604051808303816000875af11580156115a3573d6000803e3d6000fd5b505050506040513d601f19601f820116820180604052508101906115c79190613c25565b6001600160a01b0316637d755598866001600160a01b031663bbad99d46040518163ffffffff1660e01b81526004016000604051808303816000875af1158015611615573d6000803e3d6000fd5b505050506040513d6000823e601f3d908101601f1916820160405261163d91908101906135ef565b866040518363ffffffff1660e01b815260040161165b929190613c42565b6000604051808303816000875af115801561167a573d6000803e3d6000fd5b505050506040513d6000823e601f3d908101601f191682016040526116a29190810190613c70565b604051630b4974cf60e41b815291935091506001600160a01b0386169063b4974cf0906116d3908590600401613cf2565b600060405180830381600087803b1580156116ed57600080fd5b505af1158015611701573d6000803e3d6000fd5b50505050846001600160a01b031663d860cb47866001600160a01b031663b80777ea6040518163ffffffff1660e01b81526004016020604051808303816000875af1158015611754573d6000803e3d6000fd5b505050506040513d601f19601f8201168201806040525081019061177891906134e3565b6040518263ffffffff1660e01b815260040161179691815260200190565b600060405180830381600087803b1580156117b057600080fd5b505af11580156117c4573d6000803e3d6000fd5b50505050846001600160a01b03166356b655976040518163ffffffff1660e01b81526004016020604051808303816000875af1158015611808573d6000803e3d6000fd5b505050506040513d601f19601f8201168201806040525081019061182c91906134e3565b816020015111156111b25760408051808201825282518152602080840151818301908152848401518451632acf7f4f60e11b81528451600482015291516024830152805160448301529182015160648201529201516084830152906001600160a01b0387169063559efe9e9060a401600060405180830381600087803b1580156118b557600080fd5b505af11580156118c9573d6000803e3d6000fd5b50505050856001600160a01b03166314863dcb82886001600160a01b031663b80777ea6040518163ffffffff1660e01b81526004016020604051808303816000875af115801561191d573d6000803e3d6000fd5b505050506040513d601f19601f8201168201806040525081019061194191906134e3565b6040516001600160e01b031960e085901b1681528251600482015260209092015160248301526044820152606401600060405180830381600087803b15801561198957600080fd5b505af115801561199d573d6000803e3d6000fd5b505050602082015160405163a0756ecd60e01b81526001600160a01b038916925063a0756ecd916119d49160040190815260200190565b600060405180830381600087803b1580156119ee57600080fd5b505af1158015611a02573d6000803e3d6000fd5b5050825160208401516040517ff12a80290a43822c9acabb2a766d41728f06fe4c0497e4a7bb3f54292e4cb0da9450611a449350918252602082015260400190565b60405180910390a1505050505050565b81806001600160a01b031663054f7d9c6040518163ffffffff1660e01b81526004016020604051808303816000875af1158015611a95573d6000803e3d6000fd5b505050506040513d601f19601f82011682018060405250810190611ab99190613479565b15611ad65760405162461bcd60e51b815260040161015d906134a2565b602082015160405163a70a8c4760e01b81526000916001600160a01b0386169163a70a8c4791611b08916004016134cc565b6060604051808303816000875af1158015611b27573d6000803e3d6000fd5b505050506040513d601f19601f82011682018060405250810190611b4b91906136ad565b83515190915060005b81811015611ef357600085600001518281518110611b7457611b74613568565b602002602001015190508060a001516001600160401b0316846000015111611bd65760405162461bcd60e51b815260206004820152601560248201527414995c5d595cdd081b9bdd081d1a5b5959081bdd5d605a1b604482015260640161015d565b6000611be18261266b565b604051630da2fd1960e21b8152600481018290529091506001600160a01b0389169063368bf464906024016020604051808303816000875af1158015611c2b573d6000803e3d6000fd5b505050506040513d601f19601f82011682018060405250810190611c4f9190613479565b611c6b5760405162461bcd60e51b815260040161015d90613623565b604080516001808252818301909252600091816020015b6060815260200190600190039081611c8257505060408051808201825260208082527f103895530afb23bb607661426d55eb8b0484aecefe882c3ce64e6f82507f715a818301528251908101869052929350910160408051601f1981840301815290829052611cf49291602001613d05565b604051602081830303815290604052818581518110611d1557611d15613568565b6020026020010181905250600073__$3557184f57f01f44bdc1609b323054fd0c$__631475ff4588604001518b60400151856040518463ffffffff1660e01b8152600401611d6593929190613d34565b600060405180830381865af4158015611d82573d6000803e3d6000fd5b505050506040513d6000823e601f3d908101601f19168201604052611daa919081019061398f565b600081518110611dbc57611dbc613568565b60200260200101519050611e1860006001600160401b03811115611de257611de2612913565b6040519080825280601f01601f191660200182016040528015611e0c576020820181803683370190505b50602083015190612639565b611e735760405162461bcd60e51b815260206004820152602660248201527f4948616e646c65723a20496e76616c6964206e6f6e2d6d656d6265727368697060448201526510383937b7b360d11b606482015260840161015d565b6040805160208101825285815290516312dde20360e11b81526001600160a01b038c16916325bbc40691611eaa9190600401613d69565b600060405180830381600087803b158015611ec457600080fd5b505af1158015611ed8573d6000803e3d6000fd5b50505050505050508080611eeb9061365a565b915050611b54565b505050505050565b81806001600160a01b031663054f7d9c6040518163ffffffff1660e01b81526004016020604051808303816000875af1158015611f3c573d6000803e3d6000fd5b505050506040513d601f19601f82011682018060405250810190611f609190613479565b15611f7d5760405162461bcd60e51b815260040161015d906134a2565b815151604051631a880a9360e01b81526000916001600160a01b03861691631a880a9391611fad916004016134cc565b6020604051808303816000875af1158015611fcc573d6000803e3d6000fd5b505050506040513d601f19601f82011682018060405250810190611ff091906134e3565b846001600160a01b031663b80777ea6040518163ffffffff1660e01b81526004016020604051808303816000875af1158015612030573d6000803e3d6000fd5b505050506040513d601f19601f8201168201806040525081019061205491906134e3565b61205e9190613512565b9050836001600160a01b031663f3f480d96040518163ffffffff1660e01b81526004016020604051808303816000875af11580156120a0573d6000803e3d6000fd5b505050506040513d601f19601f820116820180604052508101906120c491906134e3565b81116120e25760405162461bcd60e51b815260040161015d90613525565b6020830151516000816001600160401b0381111561210257612102612913565b60405190808252806020026020018201604052801561214d57816020015b60408051606081018252600080825260208083018290529282015282526000199092019101816121205790505b50905060005b8281101561242d5760008660200151828151811061217357612173613568565b602002602001015190506121f4886001600160a01b031663f437bc596040518163ffffffff1660e01b81526004016000604051808303816000875af11580156121c0573d6000803e3d6000fd5b505050506040513d6000823e601f3d908101601f191682016040526121e891908101906135ef565b82516020015190612639565b61224e5760405162461bcd60e51b815260206004820152602560248201527f4948616e646c65723a20496e76616c696420726571756573742064657374696e60448201526430ba34b7b760d91b606482015260840161015d565b876001600160a01b031663b80777ea6040518163ffffffff1660e01b81526004016020604051808303816000875af115801561228e573d6000803e3d6000fd5b505050506040513d601f19601f820116820180604052508101906122b291906134e3565b815160a001516001600160401b03161061230e5760405162461bcd60e51b815260206004820152601b60248201527f4948616e646c65723a20526571756573742074696d6564206f75740000000000604482015260640161015d565b600061231d826000015161266b565b604051630cb33d1f60e11b8152600481018290529091506001600160a01b038a16906319667a3e906024016020604051808303816000875af1158015612367573d6000803e3d6000fd5b505050506040513d601f19601f8201168201806040525081019061238b9190613479565b156123d85760405162461bcd60e51b815260206004820152601b60248201527f4948616e646c65723a204475706c696361746520726571756573740000000000604482015260640161015d565b604051806060016040528083604001518152602001836020015181526020018281525084848151811061240d5761240d613568565b6020026020010181905250505080806124259061365a565b915050612153565b5084515160405163a70a8c4760e01b81526000916001600160a01b0389169163a70a8c479161245e916004016134cc565b6060604051808303816000875af115801561247d573d6000803e3d6000fd5b505050506040513d601f19601f820116820180604052508101906124a191906136ad565b602001519050806124c45760405162461bcd60e51b815260040161015d906136c9565b85516020810151604091820151915163722e206d60e01b815273__$2399d33eab5707eb5118077f9c67419cb4$__9263722e206d92612509928692889160040161370a565b602060405180830381865af4158015612526573d6000803e3d6000fd5b505050506040513d601f19601f8201168201806040525081019061254a9190613479565b6125965760405162461bcd60e51b815260206004820181905260248201527f4948616e646c65723a20496e76616c696420726571756573742070726f6f6673604482015260640161015d565b60005b8381101561080f576000876020015182815181106125b9576125b9613568565b60200260200101519050886001600160a01b0316633b8c2bf782600001516040518263ffffffff1660e01b81526004016125f39190613d84565b600060405180830381600087803b15801561260d57600080fd5b505af1158015612621573d6000803e3d6000fd5b505050505080806126319061365a565b915050612599565b6000815183511461264c57506000612665565b825160208381018281209186019283209091145b925050505b92915050565b805160208083015160408085015160a08601516060870151608088015160c089015160e08a015195516000996126a5999098979101613d97565b604051602081830303815290604052805190602001209050919050565b8051805160208083015160408085015160a086015160c08701516060880151608090980151868a015194516000996126a599989596949593949093909101613e3f565b6040805160208101909152600080825260a083015151909190825b8181101561277c57828560a00151828151811061273f5761273f613568565b6020026020010151604051602001612758929190613d05565b604051602081830303815290604052925080806127749061365a565b915050612720565b508360000151846020015185604001518660c0015187608001518860600151878a60e001516040516020016127b8989796959493929190613eed565b6040516020818303038152906040528051906020012092505050919050565b600080826000015160a001516040516020016127f39190613f89565b60408051601f19818403018152828252855180516020828101519483015160c08401516080850151606086015160e0909601519699506000986128459895979596939592949193928b92909101613eed565b60408051601f1981840301815291905260208501515190915060005b818110156128ea5760008660200151828151811061288157612881613568565b6020026020010151905083816000015182602001516040516020016128a7929190613d05565b60408051601f19818403018152908290526128c59291602001613d05565b60405160208183030381529060405293505080806128e29061365a565b915050612861565b505080516020909101209392505050565b6001600160a01b038116811461291057600080fd5b50565b634e487b7160e01b600052604160045260246000fd5b604080519081016001600160401b038111828210171561294b5761294b612913565b60405290565b604051606081016001600160401b038111828210171561294b5761294b612913565b60405161010081016001600160401b038111828210171561294b5761294b612913565b604051601f8201601f191681016001600160401b03811182821017156129be576129be612913565b604052919050565b6000604082840312156129d857600080fd5b6129e0612929565b9050813581526020820135602082015292915050565b60006001600160401b03821115612a0f57612a0f612913565b5060051b60200190565b600060808284031215612a2b57600080fd5b612a33612951565b9050612a3f83836129c6565b815260408201356001600160401b03811115612a5a57600080fd5b8201601f81018413612a6b57600080fd5b80356020612a80612a7b836129f6565b612996565b82815260059290921b83018101918181019087841115612a9f57600080fd5b938201935b83851015612abd57843582529382019390820190612aa4565b808387015250505050506060820135604082015292915050565b60006001600160401b03821115612af057612af0612913565b50601f01601f191660200190565b600082601f830112612b0f57600080fd5b8135612b1d612a7b82612ad7565b818152846020838601011115612b3257600080fd5b816020850160208301376000918101602001919091529392505050565b80356001600160401b0381168114612b6657600080fd5b919050565b60006101008284031215612b7e57600080fd5b612b86612973565b905081356001600160401b0380821115612b9f57600080fd5b612bab85838601612afe565b83526020840135915080821115612bc157600080fd5b612bcd85838601612afe565b6020840152612bde60408501612b4f565b60408401526060840135915080821115612bf757600080fd5b612c0385838601612afe565b60608401526080840135915080821115612c1c57600080fd5b612c2885838601612afe565b6080840152612c3960a08501612b4f565b60a084015260c0840135915080821115612c5257600080fd5b50612c5f84828501612afe565b60c083015250612c7160e08301612b4f565b60e082015292915050565b60008060408385031215612c8f57600080fd5b612c9983356128fb565b823591506001600160401b038060208501351115612cb657600080fd5b6020840135840160408187031215612ccd57600080fd5b612cd5612929565b8282351115612ce357600080fd5b612cf08783358401612a19565b81528260208301351115612d0357600080fd5b60208201358201915086601f830112612d1b57600080fd5b612d28612a7b83356129f6565b82358082526020808301929160051b850101891015612d4657600080fd5b602084015b6020853560051b860101811015612e3c578581351115612d6a57600080fd5b601f196060823587018c0382011215612d8257600080fd5b612d8a612951565b8760208435890101351115612d9e57600080fd5b823587016020810135016040818e0384011215612dba57600080fd5b612dc2612929565b92508860208201351115612dd557600080fd5b612de78d602080840135840101612b6b565b83528860408201351115612dfa57600080fd5b612e0d8d60206040840135840101612afe565b602084810191909152928252506040833588018181013583850152606001359082015284529283019201612d4b565b506020830152509396939550929350505050565b600082601f830112612e6157600080fd5b81356020612e71612a7b836129f6565b82815260059290921b84018101918181019086841115612e9057600080fd5b8286015b84811015612ecf5780356001600160401b03811115612eb35760008081fd5b612ec18986838b0101612afe565b845250918301918301612e94565b509695505050505050565b600082601f830112612eeb57600080fd5b81356020612efb612a7b836129f6565b82815260059290921b84018101918181019086841115612f1a57600080fd5b8286015b84811015612ecf5780356001600160401b0380821115612f3e5760008081fd5b90880190610100828b03601f1901811315612f595760008081fd5b612f61612973565b8784013583811115612f735760008081fd5b612f818d8a83880101612afe565b82525060408085013584811115612f985760008081fd5b612fa68e8b83890101612afe565b8a840152506060612fb8818701612b4f565b82840152608091508186013585811115612fd25760008081fd5b612fe08f8c838a0101612afe565b82850152505060a0612ff3818701612b4f565b8284015260c09150818601358581111561300d5760008081fd5b61301b8f8c838a0101612e50565b82850152505060e09350613030848601612b4f565b9082015261303f848301612b4f565b9281019290925250845250918301918301612f1e565b6000806040838503121561306857600080fd5b8235613073816128fb565b915060208301356001600160401b038082111561308f57600080fd5b90840190608082870312156130a357600080fd5b6130ab612951565b8235828111156130ba57600080fd5b6130c688828601612e50565b8252506130d687602085016129c6565b60208201526060830135828111156130ed57600080fd5b6130f988828601612eda565b6040830152508093505050509250929050565b6000806040838503121561311f57600080fd5b823561312a816128fb565b915060208301356001600160401b038082111561314657600080fd5b908401906020828703121561315a57600080fd5b60405160208101818110838211171561317557613175612913565b60405282358281111561318757600080fd5b61319388828601612eda565b8252508093505050509250929050565b600080604083850312156131b657600080fd5b82356131c1816128fb565b915060208301356001600160401b038111156131dc57600080fd5b6131e885828601612afe565b9150509250929050565b6000806040838503121561320557600080fd5b8235613210816128fb565b91506020838101356001600160401b038082111561322d57600080fd5b908501906080828803121561324157600080fd5b613249612951565b82358281111561325857600080fd5b8301601f8101891361326957600080fd5b8035613277612a7b826129f6565b81815260059190911b8201860190868101908b83111561329657600080fd5b8784015b838110156132ce578035878111156132b25760008081fd5b6132c08e8b83890101612b6b565b84525091880191880161329a565b50808552505050506132e2888585016129c6565b8482015260608301359350818411156132fa57600080fd5b61330688858501612e50565b6040820152809450505050509250929050565b6000806040838503121561332c57600080fd5b8235613337816128fb565b91506020838101356001600160401b038082111561335457600080fd5b908501906040828803121561336857600080fd5b613370612929565b82358281111561337f57600080fd5b61338b89828601612a19565b825250838301358281111561339f57600080fd5b80840193505087601f8401126133b457600080fd5b82356133c2612a7b826129f6565b81815260059190911b8401850190858101908a8311156133e157600080fd5b8686015b83811015613462578035868111156133fc57600080fd5b87016060818e03601f190112156134135760008081fd5b61341b612951565b898201358881111561342d5760008081fd5b61343b8f8c83860101612b6b565b8252506040828101358b8301526060909201359181019190915283529187019187016133e5565b508087850152505050809450505050509250929050565b60006020828403121561348b57600080fd5b8151801515811461349b57600080fd5b9392505050565b60208082526010908201526f24a430b7323632b91d10333937bd32b760811b604082015260600190565b815181526020808301519082015260408101612665565b6000602082840312156134f557600080fd5b5051919050565b634e487b7160e01b600052601160045260246000fd5b81810381811115612665576126656134fc565b60208082526023908201527f4948616e646c65723a207374696c6c20696e206368616c6c656e6765207065726040820152621a5bd960ea1b606082015260800190565b634e487b7160e01b600052603260045260246000fd5b60005b83811015613599578181015183820152602001613581565b50506000910152565b600082601f8301126135b357600080fd5b81516135c1612a7b82612ad7565b8181528460208386010111156135d657600080fd5b6135e782602083016020870161357e565b949350505050565b60006020828403121561360157600080fd5b81516001600160401b0381111561361757600080fd5b6135e7848285016135a2565b60208082526019908201527f4948616e646c65723a20556e6b6e6f776e207265717565737400000000000000604082015260600190565b60006001820161366c5761366c6134fc565b5060010190565b60006060828403121561368557600080fd5b61368d612951565b905081518152602082015160208201526040820151604082015292915050565b6000606082840312156136bf57600080fd5b61349b8383613673565b60208082526021908201527f4948616e646c65723a2050726f6f6620686569676874206e6f7420666f756e646040820152602160f81b606082015260800190565b600060808201868352602060808185015281875180845260a086019150828901935060005b8181101561374b5784518352938301939183019160010161372f565b505060409250848103838601528087518083528383019150838901925060005b8181101561379a578351805184528581015186850152860151868401529284019260609092019160010161376b565b50508094505050505082606083015295945050505050565b600081518084526137ca81602086016020860161357e565b601f01601f19169290920160200192915050565b600061010082518185526137f4828601826137b2565b9150506020830151848203602086015261380e82826137b2565b915050604083015161382b60408601826001600160401b03169052565b506060830151848203606086015261384382826137b2565b9150506080830151848203608086015261385d82826137b2565b91505060a083015161387a60a08601826001600160401b03169052565b5060c083015184820360c086015261389282826137b2565b91505060e08301516138af60e08601826001600160401b03169052565b509392505050565b6020815260008251604060208401526138d360608401826137de565b90506020840151601f1984830301604085015261266082826137b2565b600081518084526020808501808196508360051b8101915082860160005b858110156139385782840389526139268483516137b2565b9885019893509084019060010161390e565b5091979650505050505050565b84815260806020820152600061395e60808301866138f0565b828103604084015261397081866138f0565b9050828103606084015261398481856137b2565b979650505050505050565b600060208083850312156139a257600080fd5b82516001600160401b03808211156139b957600080fd5b818501915085601f8301126139cd57600080fd5b81516139db612a7b826129f6565b81815260059190911b830184019084810190888311156139fa57600080fd5b8585015b83811015613a8d57805185811115613a165760008081fd5b86016040818c03601f1901811315613a2e5760008081fd5b613a36612929565b8983015188811115613a485760008081fd5b613a568e8c838701016135a2565b825250908201519087821115613a6c5760008081fd5b613a7a8d8b848601016135a2565b818b0152855250509186019186016139fe565b5098975050505050505050565b60006101008251818552613ab0828601826137b2565b91505060208301518482036020860152613aca82826137b2565b9150506040830151613ae760408601826001600160401b03169052565b5060608301518482036060860152613aff82826137b2565b9150506080830151613b1c60808601826001600160401b03169052565b5060a083015184820360a0860152613b3482826138f0565b91505060c0830151613b5160c08601826001600160401b03169052565b5060e08301516138af60e08601826001600160401b03169052565b60006020808352835160408083860152613b896060860183613a9a565b83870151601f1987830381018489015281518084529294509085019184860190600581901b8601870160005b82811015613c03578488830301845285518051888452613bd7898501826137b2565b918b0151848303858d0152919050613bef81836137b2565b978b0197958b019593505050600101613bb5565b509a9950505050505050505050565b60208152600061349b6020830184613a9a565b600060208284031215613c3757600080fd5b815161349b816128fb565b604081526000613c5560408301856137b2565b8281036020840152613c6781856137b2565b95945050505050565b60008082840360c0811215613c8457600080fd5b83516001600160401b03811115613c9a57600080fd5b613ca6868287016135a2565b93505060a0601f1982011215613cbb57600080fd5b50613cc4612951565b6020840151815260408401516020820152613ce28560608601613673565b6040820152809150509250929050565b60208152600061349b60208301846137b2565b60008351613d1781846020880161357e565b835190830190613d2b81836020880161357e565b01949350505050565b838152606060208201526000613d4d60608301856138f0565b8281036040840152613d5f81856138f0565b9695505050505050565b60208152600082516020808401526135e760408401826137de565b60208152600061349b60208301846137de565b60008951613da9818460208e0161357e565b895190830190613dbd818360208e0161357e565b60c08a811b6001600160c01b03199081169390920192835289901b811660088301528751613df2816010850160208c0161357e565b8751920191613e08816010850160208b0161357e565b8651920191613e1e816010850160208a0161357e565b60c09590951b16930160108101939093525050601801979650505050505050565b600089516020613e528285838f0161357e565b8a5191840191613e658184848f0161357e565b60c08b811b6001600160c01b0319908116949092019384528a901b1660088301528751613e988160108501848c0161357e565b8751920191613ead8160108501848b0161357e565b8651920191613ec28160108501848a0161357e565b8551920191613ed7816010850184890161357e565b919091016010019b9a5050505050505050505050565b60008951613eff818460208e0161357e565b895190830190613f13818360208e0161357e565b60c08a811b6001600160c01b03199081169390920192835289811b8216600884015288901b811660108301528651613f52816018850160208b0161357e565b8651920191613f68816018850160208a0161357e565b60c09590951b16930160188101939093525050602001979650505050505050565b60208152600061349b60208301846138f056fea26469706673582212206dc1219a203ead1a0d48f59b5c500965571f4bc3335392141b5de0aa24b7b15664736f6c63430008110033",
    "linkReferences": {
      "lib/solidity-merkle-trees/src/MerkleMountainRange.sol": {
        "MerkleMountainRange": [
          {
            "start": 1739,
            "length": 20
          },
          {
            "start": 9471,
            "length": 20
          }
        ]
      },
      "lib/solidity-merkle-trees/src/MerklePatricia.sol": {
        "MerklePatricia": [
          {
            "start": 3403,
            "length": 20
          },
          {
            "start": 7492,
            "length": 20
          }
        ]
      }
    }
  },
  "methodIdentifiers": {
    "handleConsensus(address,bytes)": "bb1689be",
    "handleGetResponses(address,(bytes[],(uint256,uint256),(bytes,bytes,uint64,bytes,uint64,bytes[],uint64,uint64)[]))": "873ce1ce",
    "handleGetTimeouts(address,((bytes,bytes,uint64,bytes,uint64,bytes[],uint64,uint64)[]))": "ac269bd6",
    "handlePostRequests(address,(((uint256,uint256),bytes32[],uint256),((bytes,bytes,uint64,bytes,bytes,uint64,bytes,uint64),uint256,uint256)[]))": "fda626c3",
    "handlePostResponses(address,(((uint256,uint256),bytes32[],uint256),(((bytes,bytes,uint64,bytes,bytes,uint64,bytes,uint64),bytes),uint256,uint256)[]))": "20d71c7a",
    "handlePostTimeouts(address,((bytes,bytes,uint64,bytes,bytes,uint64,bytes,uint64)[],(uint256,uint256),bytes[]))": "d95e4fbb"
  },
  "id": 39
}