{
  "abi": [
    {
      "inputs": [
        {
          "internalType": "address",
          "name": "host",
          "type": "address"
        },
        {
          "internalType": "uint256",
          "name": "paraId",
          "type": "uint256"
        }
      ],
      "stateMutability": "nonpayable",
      "type": "constructor"
    },
    {
      "inputs": [],
      "name": "ExecutionFailed",
      "type": "error"
    },
    {
      "inputs": [],
      "name": "NotIsmpHost",
      "type": "error"
    },
    {
      "anonymous": false,
      "inputs": [],
      "name": "GetResponseReceived",
      "type": "event"
    },
    {
      "anonymous": false,
      "inputs": [],
      "name": "GetTimeoutReceived",
      "type": "event"
    },
    {
      "anonymous": false,
      "inputs": [],
      "name": "MessageDispatched",
      "type": "event"
    },
    {
      "anonymous": false,
      "inputs": [
        {
          "indexed": false,
          "internalType": "string",
          "name": "message",
          "type": "string"
        }
      ],
      "name": "PostReceived",
      "type": "event"
    },
    {
      "anonymous": false,
      "inputs": [],
      "name": "PostResponseReceived",
      "type": "event"
    },
    {
      "anonymous": false,
      "inputs": [],
      "name": "PostTimeoutReceived",
      "type": "event"
    },
    {
      "inputs": [
        {
          "components": [
            {
              "internalType": "bytes",
              "name": "source",
              "type": "bytes"
            },
            {
              "internalType": "bytes",
              "name": "dest",
              "type": "bytes"
            },
            {
              "internalType": "uint64",
              "name": "nonce",
              "type": "uint64"
            },
            {
              "internalType": "bytes",
              "name": "from",
              "type": "bytes"
            },
            {
              "internalType": "bytes",
              "name": "to",
              "type": "bytes"
            },
            {
              "internalType": "uint64",
              "name": "timeoutTimestamp",
              "type": "uint64"
            },
            {
              "internalType": "bytes",
              "name": "body",
              "type": "bytes"
            },
            {
              "internalType": "uint64",
              "name": "gaslimit",
              "type": "uint64"
            }
          ],
          "internalType": "struct PostRequest",
          "name": "request",
          "type": "tuple"
        }
      ],
      "name": "dispatch",
      "outputs": [
        {
          "internalType": "bytes32",
          "name": "",
          "type": "bytes32"
        }
      ],
      "stateMutability": "nonpayable",
      "type": "function"
    },
    {
      "inputs": [
        {
          "components": [
            {
              "internalType": "bytes",
              "name": "source",
              "type": "bytes"
            },
            {
              "internalType": "bytes",
              "name": "dest",
              "type": "bytes"
            },
            {
              "internalType": "uint64",
              "name": "nonce",
              "type": "uint64"
            },
            {
              "internalType": "bytes",
              "name": "from",
              "type": "bytes"
            },
            {
              "internalType": "uint64",
              "name": "timeoutTimestamp",
              "type": "uint64"
            },
            {
              "internalType": "bytes[]",
              "name": "keys",
              "type": "bytes[]"
            },
            {
              "internalType": "uint64",
              "name": "height",
              "type": "uint64"
            },
            {
              "internalType": "uint64",
              "name": "gaslimit",
              "type": "uint64"
            }
          ],
          "internalType": "struct GetRequest",
          "name": "request",
          "type": "tuple"
        }
      ],
      "name": "dispatch",
      "outputs": [
        {
          "internalType": "bytes32",
          "name": "",
          "type": "bytes32"
        }
      ],
      "stateMutability": "nonpayable",
      "type": "function"
    },
    {
      "inputs": [],
      "name": "dispatchToParachain",
      "outputs": [],
      "stateMutability": "nonpayable",
      "type": "function"
    },
    {
      "inputs": [
        {
          "components": [
            {
              "internalType": "bytes",
              "name": "source",
              "type": "bytes"
            },
            {
              "internalType": "bytes",
              "name": "dest",
              "type": "bytes"
            },
            {
              "internalType": "uint64",
              "name": "nonce",
              "type": "uint64"
            },
            {
              "internalType": "bytes",
              "name": "from",
              "type": "bytes"
            },
            {
              "internalType": "bytes",
              "name": "to",
              "type": "bytes"
            },
            {
              "internalType": "uint64",
              "name": "timeoutTimestamp",
              "type": "uint64"
            },
            {
              "internalType": "bytes",
              "name": "body",
              "type": "bytes"
            },
            {
              "internalType": "uint64",
              "name": "gaslimit",
              "type": "uint64"
            }
          ],
          "internalType": "struct PostRequest",
          "name": "request",
          "type": "tuple"
        }
      ],
      "name": "onAccept",
      "outputs": [],
      "stateMutability": "nonpayable",
      "type": "function"
    },
    {
      "inputs": [
        {
          "components": [
            {
              "components": [
                {
                  "internalType": "bytes",
                  "name": "source",
                  "type": "bytes"
                },
                {
                  "internalType": "bytes",
                  "name": "dest",
                  "type": "bytes"
                },
                {
                  "internalType": "uint64",
                  "name": "nonce",
                  "type": "uint64"
                },
                {
                  "internalType": "bytes",
                  "name": "from",
                  "type": "bytes"
                },
                {
                  "internalType": "uint64",
                  "name": "timeoutTimestamp",
                  "type": "uint64"
                },
                {
                  "internalType": "bytes[]",
                  "name": "keys",
                  "type": "bytes[]"
                },
                {
                  "internalType": "uint64",
                  "name": "height",
                  "type": "uint64"
                },
                {
                  "internalType": "uint64",
                  "name": "gaslimit",
                  "type": "uint64"
                }
              ],
              "internalType": "struct GetRequest",
              "name": "request",
              "type": "tuple"
            },
            {
              "components": [
                {
                  "internalType": "bytes",
                  "name": "key",
                  "type": "bytes"
                },
                {
                  "internalType": "bytes",
                  "name": "value",
                  "type": "bytes"
                }
              ],
              "internalType": "struct StorageValue[]",
              "name": "values",
              "type": "tuple[]"
            }
          ],
          "internalType": "struct GetResponse",
          "name": "response",
          "type": "tuple"
        }
      ],
      "name": "onGetResponse",
      "outputs": [],
      "stateMutability": "nonpayable",
      "type": "function"
    },
    {
      "inputs": [
        {
          "components": [
            {
              "internalType": "bytes",
              "name": "source",
              "type": "bytes"
            },
            {
              "internalType": "bytes",
              "name": "dest",
              "type": "bytes"
            },
            {
              "internalType": "uint64",
              "name": "nonce",
              "type": "uint64"
            },
            {
              "internalType": "bytes",
              "name": "from",
              "type": "bytes"
            },
            {
              "internalType": "uint64",
              "name": "timeoutTimestamp",
              "type": "uint64"
            },
            {
              "internalType": "bytes[]",
              "name": "keys",
              "type": "bytes[]"
            },
            {
              "internalType": "uint64",
              "name": "height",
              "type": "uint64"
            },
            {
              "internalType": "uint64",
              "name": "gaslimit",
              "type": "uint64"
            }
          ],
          "internalType": "struct GetRequest",
          "name": "request",
          "type": "tuple"
        }
      ],
      "name": "onGetTimeout",
      "outputs": [],
      "stateMutability": "nonpayable",
      "type": "function"
    },
    {
      "inputs": [
        {
          "components": [
            {
              "components": [
                {
                  "internalType": "bytes",
                  "name": "source",
                  "type": "bytes"
                },
                {
                  "internalType": "bytes",
                  "name": "dest",
                  "type": "bytes"
                },
                {
                  "internalType": "uint64",
                  "name": "nonce",
                  "type": "uint64"
                },
                {
                  "internalType": "bytes",
                  "name": "from",
                  "type": "bytes"
                },
                {
                  "internalType": "bytes",
                  "name": "to",
                  "type": "bytes"
                },
                {
                  "internalType": "uint64",
                  "name": "timeoutTimestamp",
                  "type": "uint64"
                },
                {
                  "internalType": "bytes",
                  "name": "body",
                  "type": "bytes"
                },
                {
                  "internalType": "uint64",
                  "name": "gaslimit",
                  "type": "uint64"
                }
              ],
              "internalType": "struct PostRequest",
              "name": "request",
              "type": "tuple"
            },
            {
              "internalType": "bytes",
              "name": "response",
              "type": "bytes"
            }
          ],
          "internalType": "struct PostResponse",
          "name": "response",
          "type": "tuple"
        }
      ],
      "name": "onPostResponse",
      "outputs": [],
      "stateMutability": "nonpayable",
      "type": "function"
    },
    {
      "inputs": [
        {
          "components": [
            {
              "internalType": "bytes",
              "name": "source",
              "type": "bytes"
            },
            {
              "internalType": "bytes",
              "name": "dest",
              "type": "bytes"
            },
            {
              "internalType": "uint64",
              "name": "nonce",
              "type": "uint64"
            },
            {
              "internalType": "bytes",
              "name": "from",
              "type": "bytes"
            },
            {
              "internalType": "bytes",
              "name": "to",
              "type": "bytes"
            },
            {
              "internalType": "uint64",
              "name": "timeoutTimestamp",
              "type": "uint64"
            },
            {
              "internalType": "bytes",
              "name": "body",
              "type": "bytes"
            },
            {
              "internalType": "uint64",
              "name": "gaslimit",
              "type": "uint64"
            }
          ],
          "internalType": "struct PostRequest",
          "name": "request",
          "type": "tuple"
        }
      ],
      "name": "onPostTimeout",
      "outputs": [],
      "stateMutability": "nonpayable",
      "type": "function"
    }
  ],
  "bytecode": {
    "object": "0x608060405234801561001057600080fd5b506040516111aa3803806111aa83398101604081905261002f91610058565b600080546001600160a01b0319166001600160a01b039390931692909217909155600155610092565b6000806040838503121561006b57600080fd5b82516001600160a01b038116811461008257600080fd5b6020939093015192949293505050565b611109806100a16000396000f3fe608060405234801561001057600080fd5b50600436106100885760003560e01c8063c52c28af1161005b578063c52c28af146100e2578063c715f52b146100f5578063d1ab46cf14610108578063f370fdbb1461011b57600080fd5b806331267dee1461008d5780634c46c035146100b25780634e87ba19146100c7578063667f320a146100da575b600080fd5b6100a061009b3660046108fc565b61012e565b60405190815260200160405180910390f35b6100c56100c0366004610ad7565b6101ee565b005b6100c56100d53660046108fc565b610245565b6100c56102ae565b6100c56100f0366004610b0b565b610409565b6100c56101033660046108fc565b610460565b6100a0610116366004610ad7565b6104b7565b6100c5610129366004610b9b565b610541565b60008061013a83610598565b6040805160a0808201835260208088015183526080808901519184019190915260c088015183850152908701516001600160401b03908116606084015260e08801511690820152600054915163d25bcd3d60e01b8152929350916001600160a01b039091169063d25bcd3d906101b4908490600401610d48565b600060405180830381600087803b1580156101ce57600080fd5b505af11580156101e2573d6000803e3d6000fd5b50939695505050505050565b6000546001600160a01b03163314610219576040516351ab8de560e01b815260040160405180910390fd5b6040517f83e62025e4bc587516d0bc315e329eac0c66362854feb7cd4135ef8143ba15f990600090a150565b6000546001600160a01b03163314610270576040516351ab8de560e01b815260040160405180910390fd5b7ffb087b3ffbbb0fc922dccf872508671a7605859423eb90eb014c56fdba1484dc8160c001516040516102a39190610dd0565b60405180910390a150565b60006040518060a0016040528073__$90334c6bf9c5e572543454910fcc219522$__63504f5a5a6001546040518263ffffffff1660e01b81526004016102f691815260200190565b600060405180830381865af4158015610313573d6000803e3d6000fd5b505050506040513d6000823e601f3d908101601f1916820160405261033b9190810190610dea565b815260408051808201825260088152671a5cdb5c0b585cdd60c21b6020828101919091528084019190915281518083018352601381527268656c6c6f2066726f6d20657468657265756d60681b9181019190915281830152610e106060830152600060809092018290529054905163d25bcd3d60e01b81529192506001600160a01b03169063d25bcd3d906103d4908490600401610d48565b600060405180830381600087803b1580156103ee57600080fd5b505af1158015610402573d6000803e3d6000fd5b5050505050565b6000546001600160a01b03163314610434576040516351ab8de560e01b815260040160405180910390fd5b6040517fd7dc99afb6c33039cea4505a9e2cab3471d359cebe021ec127dc94ddd359d3c590600090a150565b6000546001600160a01b0316331461048b576040516351ab8de560e01b815260040160405180910390fd5b6040517fc3998b1677e63c12e8bdc8daab3e836b037b3b28d05cd349066c2673e62f35d790600090a150565b6000806104c3836105ef565b6040805160a08082018352602080880151835260c08801516001600160401b039081169184019190915290870151828401526080808801518216606084015260e08801519091169082015260005491516367bd911f60e01b8152929350916001600160a01b03909116906367bd911f906101b4908490600401610e60565b6000546001600160a01b0316331461056c576040516351ab8de560e01b815260040160405180910390fd5b6040517fcbcbca664dfeb924ccd850a00868130bfb1df157099a06f9296822cb7bc3ad0190600090a150565b805160208083015160408085015160a08601516060870151608088015160c089015160e08a015195516000996105d2999098979101610f23565b604051602081830303815290604052805190602001209050919050565b6040805160208101909152600080825260a083015151909190825b8181101561066657828560a00151828151811061062957610629610fcb565b6020026020010151604051602001610642929190610fe1565b6040516020818303038152906040529250808061065e90611010565b91505061060a565b508360000151846020015185604001518660c0015187608001518860600151878a60e001516040516020016106a2989796959493929190611037565b6040516020818303038152906040528051906020012092505050919050565b634e487b7160e01b600052604160045260246000fd5b60405161010081016001600160401b03811182821017156106fa576106fa6106c1565b60405290565b604080519081016001600160401b03811182821017156106fa576106fa6106c1565b604051601f8201601f191681016001600160401b038111828210171561074a5761074a6106c1565b604052919050565b60006001600160401b0382111561076b5761076b6106c1565b50601f01601f191660200190565b600082601f83011261078a57600080fd5b813561079d61079882610752565b610722565b8181528460208386010111156107b257600080fd5b816020850160208301376000918101602001919091529392505050565b80356001600160401b03811681146107e657600080fd5b919050565b600061010082840312156107fe57600080fd5b6108066106d7565b905081356001600160401b038082111561081f57600080fd5b61082b85838601610779565b8352602084013591508082111561084157600080fd5b61084d85838601610779565b602084015261085e604085016107cf565b6040840152606084013591508082111561087757600080fd5b61088385838601610779565b6060840152608084013591508082111561089c57600080fd5b6108a885838601610779565b60808401526108b960a085016107cf565b60a084015260c08401359150808211156108d257600080fd5b506108df84828501610779565b60c0830152506108f160e083016107cf565b60e082015292915050565b60006020828403121561090e57600080fd5b81356001600160401b0381111561092457600080fd5b610930848285016107eb565b949350505050565b60006001600160401b03821115610951576109516106c1565b5060051b60200190565b600082601f83011261096c57600080fd5b8135602061097c61079883610938565b82815260059290921b8401810191818101908684111561099b57600080fd5b8286015b848110156109da5780356001600160401b038111156109be5760008081fd5b6109cc8986838b0101610779565b84525091830191830161099f565b509695505050505050565b600061010082840312156109f857600080fd5b610a006106d7565b905081356001600160401b0380821115610a1957600080fd5b610a2585838601610779565b83526020840135915080821115610a3b57600080fd5b610a4785838601610779565b6020840152610a58604085016107cf565b60408401526060840135915080821115610a7157600080fd5b610a7d85838601610779565b6060840152610a8e608085016107cf565b608084015260a0840135915080821115610aa757600080fd5b50610ab48482850161095b565b60a083015250610ac660c083016107cf565b60c08201526108f160e083016107cf565b600060208284031215610ae957600080fd5b81356001600160401b03811115610aff57600080fd5b610930848285016109e5565b600060208284031215610b1d57600080fd5b81356001600160401b0380821115610b3457600080fd5b9083019060408286031215610b4857600080fd5b610b50610700565b823582811115610b5f57600080fd5b610b6b878286016107eb565b825250602083013582811115610b8057600080fd5b610b8c87828601610779565b60208301525095945050505050565b60006020808385031215610bae57600080fd5b82356001600160401b0380821115610bc557600080fd5b81850191506040808388031215610bdb57600080fd5b610be3610700565b833583811115610bf257600080fd5b610bfe898287016109e5565b8252508484013583811115610c1257600080fd5b80850194505087601f850112610c2757600080fd5b8335610c3561079882610938565b81815260059190911b8501860190868101908a831115610c5457600080fd5b8787015b83811015610ce457803587811115610c705760008081fd5b8801808d03601f1901871315610c865760008081fd5b610c8e610700565b8a82013589811115610ca05760008081fd5b610cae8f8d83860101610779565b8252508782013589811115610cc35760008081fd5b610cd18f8d83860101610779565b828d015250845250918801918801610c58565b509683019690965250979650505050505050565b60005b83811015610d13578181015183820152602001610cfb565b50506000910152565b60008151808452610d34816020860160208601610cf8565b601f01601f19169290920160200192915050565b602081526000825160a06020840152610d6460c0840182610d1c565b90506020840151601f1980858403016040860152610d828383610d1c565b9250604086015191508085840301606086015250610da08282610d1c565b91505060608401516001600160401b0380821660808601528060808701511660a086015250508091505092915050565b602081526000610de36020830184610d1c565b9392505050565b600060208284031215610dfc57600080fd5b81516001600160401b03811115610e1257600080fd5b8201601f81018413610e2357600080fd5b8051610e3161079882610752565b818152856020838501011115610e4657600080fd5b610e57826020830160208601610cf8565b95945050505050565b60006020808352835160a082850152610e7c60c0850182610d1c565b90506001600160401b03828601511660408501526040850151601f19808684030160608701528282518085528585019150858160051b860101868501945060005b82811015610ee95784878303018452610ed7828751610d1c565b95880195938801939150600101610ebd565b5060608a01516001600160401b03811660808b0152965060808a01516001600160401b03811660a08b015296509998505050505050505050565b60008951610f35818460208e01610cf8565b895190830190610f49818360208e01610cf8565b60c08a811b6001600160c01b03199081169390920192835289901b811660088301528751610f7e816010850160208c01610cf8565b8751920191610f94816010850160208b01610cf8565b8651920191610faa816010850160208a01610cf8565b60c09590951b16930160108101939093525050601801979650505050505050565b634e487b7160e01b600052603260045260246000fd5b60008351610ff3818460208801610cf8565b835190830190611007818360208801610cf8565b01949350505050565b60006001820161103057634e487b7160e01b600052601160045260246000fd5b5060010190565b60008951611049818460208e01610cf8565b89519083019061105d818360208e01610cf8565b60c08a811b6001600160c01b03199081169390920192835289811b8216600884015288901b81166010830152865161109c816018850160208b01610cf8565b86519201916110b2816018850160208a01610cf8565b60c09590951b1693016018810193909352505060200197965050505050505056fea2646970667358221220f59b08da54f20599e287a82701f70068c9a4d869bc8a489b96904167b4648b4464736f6c63430008110033",
    "linkReferences": {
      "src/interfaces/StateMachine.sol": {
        "StateMachine": [
          {
            "start": 862,
            "length": 20
          }
        ]
      }
    }
  },
  "methodIdentifiers": {
    "dispatch((bytes,bytes,uint64,bytes,bytes,uint64,bytes,uint64))": "31267dee",
    "dispatch((bytes,bytes,uint64,bytes,uint64,bytes[],uint64,uint64))": "d1ab46cf",
    "dispatchToParachain()": "667f320a",
    "onAccept((bytes,bytes,uint64,bytes,bytes,uint64,bytes,uint64))": "4e87ba19",
    "onGetResponse(((bytes,bytes,uint64,bytes,uint64,bytes[],uint64,uint64),(bytes,bytes)[]))": "f370fdbb",
    "onGetTimeout((bytes,bytes,uint64,bytes,uint64,bytes[],uint64,uint64))": "4c46c035",
    "onPostResponse(((bytes,bytes,uint64,bytes,bytes,uint64,bytes,uint64),bytes))": "c52c28af",
    "onPostTimeout((bytes,bytes,uint64,bytes,bytes,uint64,bytes,uint64))": "c715f52b"
  },
  "id": 51
}