{
  "abi": [
    {
      "inputs": [
        {
          "internalType": "address",
          "name": "host",
          "type": "address"
        }
      ],
      "stateMutability": "nonpayable",
      "type": "constructor"
    },
    {
      "inputs": [],
      "name": "ExecutionFailed",
      "type": "error"
    },
    {
      "inputs": [],
      "name": "NotIsmpHost",
      "type": "error"
    },
    {
      "anonymous": false,
      "inputs": [],
      "name": "GetResponseReceived",
      "type": "event"
    },
    {
      "anonymous": false,
      "inputs": [],
      "name": "GetTimeoutReceived",
      "type": "event"
    },
    {
      "anonymous": false,
      "inputs": [],
      "name": "MessageDispatched",
      "type": "event"
    },
    {
      "anonymous": false,
      "inputs": [
        {
          "indexed": false,
          "internalType": "string",
          "name": "message",
          "type": "string"
        }
      ],
      "name": "PostReceived",
      "type": "event"
    },
    {
      "anonymous": false,
      "inputs": [],
      "name": "PostResponseReceived",
      "type": "event"
    },
    {
      "anonymous": false,
      "inputs": [],
      "name": "PostTimeoutReceived",
      "type": "event"
    },
    {
      "inputs": [
        {
          "components": [
            {
              "internalType": "bytes",
              "name": "source",
              "type": "bytes"
            },
            {
              "internalType": "bytes",
              "name": "dest",
              "type": "bytes"
            },
            {
              "internalType": "uint64",
              "name": "nonce",
              "type": "uint64"
            },
            {
              "internalType": "bytes",
              "name": "from",
              "type": "bytes"
            },
            {
              "internalType": "bytes",
              "name": "to",
              "type": "bytes"
            },
            {
              "internalType": "uint64",
              "name": "timeoutTimestamp",
              "type": "uint64"
            },
            {
              "internalType": "bytes",
              "name": "body",
              "type": "bytes"
            },
            {
              "internalType": "uint64",
              "name": "gaslimit",
              "type": "uint64"
            }
          ],
          "internalType": "struct PostRequest",
          "name": "request",
          "type": "tuple"
        }
      ],
      "name": "dispatch",
      "outputs": [
        {
          "internalType": "bytes32",
          "name": "",
          "type": "bytes32"
        }
      ],
      "stateMutability": "nonpayable",
      "type": "function"
    },
    {
      "inputs": [
        {
          "components": [
            {
              "internalType": "bytes",
              "name": "source",
              "type": "bytes"
            },
            {
              "internalType": "bytes",
              "name": "dest",
              "type": "bytes"
            },
            {
              "internalType": "uint64",
              "name": "nonce",
              "type": "uint64"
            },
            {
              "internalType": "bytes",
              "name": "from",
              "type": "bytes"
            },
            {
              "internalType": "uint64",
              "name": "timeoutTimestamp",
              "type": "uint64"
            },
            {
              "internalType": "bytes[]",
              "name": "keys",
              "type": "bytes[]"
            },
            {
              "internalType": "uint64",
              "name": "height",
              "type": "uint64"
            },
            {
              "internalType": "uint64",
              "name": "gaslimit",
              "type": "uint64"
            }
          ],
          "internalType": "struct GetRequest",
          "name": "request",
          "type": "tuple"
        }
      ],
      "name": "dispatch",
      "outputs": [
        {
          "internalType": "bytes32",
          "name": "",
          "type": "bytes32"
        }
      ],
      "stateMutability": "nonpayable",
      "type": "function"
    },
    {
      "inputs": [
        {
          "internalType": "uint256",
          "name": "_paraId",
          "type": "uint256"
        }
      ],
      "name": "dispatchToParachain",
      "outputs": [],
      "stateMutability": "nonpayable",
      "type": "function"
    },
    {
      "inputs": [
        {
          "components": [
            {
              "internalType": "bytes",
              "name": "source",
              "type": "bytes"
            },
            {
              "internalType": "bytes",
              "name": "dest",
              "type": "bytes"
            },
            {
              "internalType": "uint64",
              "name": "nonce",
              "type": "uint64"
            },
            {
              "internalType": "bytes",
              "name": "from",
              "type": "bytes"
            },
            {
              "internalType": "bytes",
              "name": "to",
              "type": "bytes"
            },
            {
              "internalType": "uint64",
              "name": "timeoutTimestamp",
              "type": "uint64"
            },
            {
              "internalType": "bytes",
              "name": "body",
              "type": "bytes"
            },
            {
              "internalType": "uint64",
              "name": "gaslimit",
              "type": "uint64"
            }
          ],
          "internalType": "struct PostRequest",
          "name": "request",
          "type": "tuple"
        }
      ],
      "name": "onAccept",
      "outputs": [],
      "stateMutability": "nonpayable",
      "type": "function"
    },
    {
      "inputs": [
        {
          "components": [
            {
              "components": [
                {
                  "internalType": "bytes",
                  "name": "source",
                  "type": "bytes"
                },
                {
                  "internalType": "bytes",
                  "name": "dest",
                  "type": "bytes"
                },
                {
                  "internalType": "uint64",
                  "name": "nonce",
                  "type": "uint64"
                },
                {
                  "internalType": "bytes",
                  "name": "from",
                  "type": "bytes"
                },
                {
                  "internalType": "uint64",
                  "name": "timeoutTimestamp",
                  "type": "uint64"
                },
                {
                  "internalType": "bytes[]",
                  "name": "keys",
                  "type": "bytes[]"
                },
                {
                  "internalType": "uint64",
                  "name": "height",
                  "type": "uint64"
                },
                {
                  "internalType": "uint64",
                  "name": "gaslimit",
                  "type": "uint64"
                }
              ],
              "internalType": "struct GetRequest",
              "name": "request",
              "type": "tuple"
            },
            {
              "components": [
                {
                  "internalType": "bytes",
                  "name": "key",
                  "type": "bytes"
                },
                {
                  "internalType": "bytes",
                  "name": "value",
                  "type": "bytes"
                }
              ],
              "internalType": "struct StorageValue[]",
              "name": "values",
              "type": "tuple[]"
            }
          ],
          "internalType": "struct GetResponse",
          "name": "response",
          "type": "tuple"
        }
      ],
      "name": "onGetResponse",
      "outputs": [],
      "stateMutability": "nonpayable",
      "type": "function"
    },
    {
      "inputs": [
        {
          "components": [
            {
              "internalType": "bytes",
              "name": "source",
              "type": "bytes"
            },
            {
              "internalType": "bytes",
              "name": "dest",
              "type": "bytes"
            },
            {
              "internalType": "uint64",
              "name": "nonce",
              "type": "uint64"
            },
            {
              "internalType": "bytes",
              "name": "from",
              "type": "bytes"
            },
            {
              "internalType": "uint64",
              "name": "timeoutTimestamp",
              "type": "uint64"
            },
            {
              "internalType": "bytes[]",
              "name": "keys",
              "type": "bytes[]"
            },
            {
              "internalType": "uint64",
              "name": "height",
              "type": "uint64"
            },
            {
              "internalType": "uint64",
              "name": "gaslimit",
              "type": "uint64"
            }
          ],
          "internalType": "struct GetRequest",
          "name": "request",
          "type": "tuple"
        }
      ],
      "name": "onGetTimeout",
      "outputs": [],
      "stateMutability": "nonpayable",
      "type": "function"
    },
    {
      "inputs": [
        {
          "components": [
            {
              "components": [
                {
                  "internalType": "bytes",
                  "name": "source",
                  "type": "bytes"
                },
                {
                  "internalType": "bytes",
                  "name": "dest",
                  "type": "bytes"
                },
                {
                  "internalType": "uint64",
                  "name": "nonce",
                  "type": "uint64"
                },
                {
                  "internalType": "bytes",
                  "name": "from",
                  "type": "bytes"
                },
                {
                  "internalType": "bytes",
                  "name": "to",
                  "type": "bytes"
                },
                {
                  "internalType": "uint64",
                  "name": "timeoutTimestamp",
                  "type": "uint64"
                },
                {
                  "internalType": "bytes",
                  "name": "body",
                  "type": "bytes"
                },
                {
                  "internalType": "uint64",
                  "name": "gaslimit",
                  "type": "uint64"
                }
              ],
              "internalType": "struct PostRequest",
              "name": "request",
              "type": "tuple"
            },
            {
              "internalType": "bytes",
              "name": "response",
              "type": "bytes"
            }
          ],
          "internalType": "struct PostResponse",
          "name": "response",
          "type": "tuple"
        }
      ],
      "name": "onPostResponse",
      "outputs": [],
      "stateMutability": "nonpayable",
      "type": "function"
    },
    {
      "inputs": [
        {
          "components": [
            {
              "internalType": "bytes",
              "name": "source",
              "type": "bytes"
            },
            {
              "internalType": "bytes",
              "name": "dest",
              "type": "bytes"
            },
            {
              "internalType": "uint64",
              "name": "nonce",
              "type": "uint64"
            },
            {
              "internalType": "bytes",
              "name": "from",
              "type": "bytes"
            },
            {
              "internalType": "bytes",
              "name": "to",
              "type": "bytes"
            },
            {
              "internalType": "uint64",
              "name": "timeoutTimestamp",
              "type": "uint64"
            },
            {
              "internalType": "bytes",
              "name": "body",
              "type": "bytes"
            },
            {
              "internalType": "uint64",
              "name": "gaslimit",
              "type": "uint64"
            }
          ],
          "internalType": "struct PostRequest",
          "name": "request",
          "type": "tuple"
        }
      ],
      "name": "onPostTimeout",
      "outputs": [],
      "stateMutability": "nonpayable",
      "type": "function"
    },
    {
      "inputs": [
        {
          "internalType": "bytes",
          "name": "dest",
          "type": "bytes"
        }
      ],
      "name": "ping",
      "outputs": [],
      "stateMutability": "nonpayable",
      "type": "function"
    }
  ],
  "bytecode": {
    "object": "0x608060405234801561001057600080fd5b5060405161136b38038061136b83398101604081905261002f91610054565b600080546001600160a01b0319166001600160a01b0392909216919091179055610084565b60006020828403121561006657600080fd5b81516001600160a01b038116811461007d57600080fd5b9392505050565b6112d8806100936000396000f3fe608060405234801561001057600080fd5b50600436106100935760003560e01c806372354e9b1161006657806372354e9b146100f8578063c52c28af1461010b578063c715f52b1461011e578063d1ab46cf14610131578063f370fdbb1461014457600080fd5b80631f40dc8b1461009857806331267dee146100ad5780634c46c035146100d25780634e87ba19146100e5575b600080fd5b6100ab6100a636600461091e565b610157565b005b6100c06100bb366004610a87565b6102ba565b60405190815260200160405180910390f35b6100ab6100e0366004610c5a565b61037a565b6100ab6100f3366004610a87565b6103d1565b6100ab610106366004610c8e565b61043a565b6100ab610119366004610ca7565b610558565b6100ab61012c366004610a87565b6105af565b6100c061013f366004610c5a565b610606565b6100ab610152366004610d37565b610690565b60006040518060a0016040528083815260200130604051602001610193919060609190911b6bffffffffffffffffffffffff1916815260140190565b604051602081830303815290604052815260200160008054906101000a90046001600160a01b03166001600160a01b031663f437bc596040518163ffffffff1660e01b81526004016000604051808303816000875af11580156101fa573d6000803e3d6000fd5b505050506040513d6000823e601f3d908101601f191682016040526102229190810190610eb8565b6040516020016102329190610f2e565b60408051601f19818403018152918152908252610e10602083015260009181018290529054905163d25bcd3d60e01b81529192506001600160a01b03169063d25bcd3d90610284908490600401610f8d565b600060405180830381600087803b15801561029e57600080fd5b505af11580156102b2573d6000803e3d6000fd5b505050505050565b6000806102c6836106e7565b6040805160a0808201835260208088015183526080808901519184019190915260c088015183850152908701516001600160401b03908116606084015260e08801511690820152600054915163d25bcd3d60e01b8152929350916001600160a01b039091169063d25bcd3d90610340908490600401610f8d565b600060405180830381600087803b15801561035a57600080fd5b505af115801561036e573d6000803e3d6000fd5b50939695505050505050565b6000546001600160a01b031633146103a5576040516351ab8de560e01b815260040160405180910390fd5b6040517f83e62025e4bc587516d0bc315e329eac0c66362854feb7cd4135ef8143ba15f990600090a150565b6000546001600160a01b031633146103fc576040516351ab8de560e01b815260040160405180910390fd5b7ffb087b3ffbbb0fc922dccf872508671a7605859423eb90eb014c56fdba1484dc8160c0015160405161042f9190611015565b60405180910390a150565b6040805160a0810191829052632265539b60e11b90915260a481018290526000908073__$90334c6bf9c5e572543454910fcc219522$__6344caa73660c48301600060405180830381865af4158015610497573d6000803e3d6000fd5b505050506040513d6000823e601f3d908101601f191682016040526104bf9190810190610eb8565b815260408051808201825260088152671a5cdb5c0b585cdd60c21b6020828101919091528084019190915281518083018352601381527268656c6c6f2066726f6d20657468657265756d60681b9181019190915281830152610e106060830152600060809092018290529054905163d25bcd3d60e01b81529192506001600160a01b03169063d25bcd3d90610284908490600401610f8d565b6000546001600160a01b03163314610583576040516351ab8de560e01b815260040160405180910390fd5b6040517fd7dc99afb6c33039cea4505a9e2cab3471d359cebe021ec127dc94ddd359d3c590600090a150565b6000546001600160a01b031633146105da576040516351ab8de560e01b815260040160405180910390fd5b6040517fc3998b1677e63c12e8bdc8daab3e836b037b3b28d05cd349066c2673e62f35d790600090a150565b6000806106128361073e565b6040805160a08082018352602080880151835260c08801516001600160401b039081169184019190915290870151828401526080808801518216606084015260e08801519091169082015260005491516367bd911f60e01b8152929350916001600160a01b03909116906367bd911f9061034090849060040161102f565b6000546001600160a01b031633146106bb576040516351ab8de560e01b815260040160405180910390fd5b6040517fcbcbca664dfeb924ccd850a00868130bfb1df157099a06f9296822cb7bc3ad0190600090a150565b805160208083015160408085015160a08601516060870151608088015160c089015160e08a015195516000996107219990989791016110f2565b604051602081830303815290604052805190602001209050919050565b6040805160208101909152600080825260a083015151909190825b818110156107b557828560a0015182815181106107785761077861119a565b60200260200101516040516020016107919291906111b0565b604051602081830303815290604052925080806107ad906111df565b915050610759565b508360000151846020015185604001518660c0015187608001518860600151878a60e001516040516020016107f1989796959493929190611206565b6040516020818303038152906040528051906020012092505050919050565b634e487b7160e01b600052604160045260246000fd5b60405161010081016001600160401b038111828210171561084957610849610810565b60405290565b604080519081016001600160401b038111828210171561084957610849610810565b604051601f8201601f191681016001600160401b038111828210171561089957610899610810565b604052919050565b60006001600160401b038211156108ba576108ba610810565b50601f01601f191660200190565b600082601f8301126108d957600080fd5b81356108ec6108e7826108a1565b610871565b81815284602083860101111561090157600080fd5b816020850160208301376000918101602001919091529392505050565b60006020828403121561093057600080fd5b81356001600160401b0381111561094657600080fd5b610952848285016108c8565b949350505050565b80356001600160401b038116811461097157600080fd5b919050565b6000610100828403121561098957600080fd5b610991610826565b905081356001600160401b03808211156109aa57600080fd5b6109b6858386016108c8565b835260208401359150808211156109cc57600080fd5b6109d8858386016108c8565b60208401526109e96040850161095a565b60408401526060840135915080821115610a0257600080fd5b610a0e858386016108c8565b60608401526080840135915080821115610a2757600080fd5b610a33858386016108c8565b6080840152610a4460a0850161095a565b60a084015260c0840135915080821115610a5d57600080fd5b50610a6a848285016108c8565b60c083015250610a7c60e0830161095a565b60e082015292915050565b600060208284031215610a9957600080fd5b81356001600160401b03811115610aaf57600080fd5b61095284828501610976565b60006001600160401b03821115610ad457610ad4610810565b5060051b60200190565b600082601f830112610aef57600080fd5b81356020610aff6108e783610abb565b82815260059290921b84018101918181019086841115610b1e57600080fd5b8286015b84811015610b5d5780356001600160401b03811115610b415760008081fd5b610b4f8986838b01016108c8565b845250918301918301610b22565b509695505050505050565b60006101008284031215610b7b57600080fd5b610b83610826565b905081356001600160401b0380821115610b9c57600080fd5b610ba8858386016108c8565b83526020840135915080821115610bbe57600080fd5b610bca858386016108c8565b6020840152610bdb6040850161095a565b60408401526060840135915080821115610bf457600080fd5b610c00858386016108c8565b6060840152610c116080850161095a565b608084015260a0840135915080821115610c2a57600080fd5b50610c3784828501610ade565b60a083015250610c4960c0830161095a565b60c0820152610a7c60e0830161095a565b600060208284031215610c6c57600080fd5b81356001600160401b03811115610c8257600080fd5b61095284828501610b68565b600060208284031215610ca057600080fd5b5035919050565b600060208284031215610cb957600080fd5b81356001600160401b0380821115610cd057600080fd5b9083019060408286031215610ce457600080fd5b610cec61084f565b823582811115610cfb57600080fd5b610d0787828601610976565b825250602083013582811115610d1c57600080fd5b610d28878286016108c8565b60208301525095945050505050565b60006020808385031215610d4a57600080fd5b82356001600160401b0380821115610d6157600080fd5b81850191506040808388031215610d7757600080fd5b610d7f61084f565b833583811115610d8e57600080fd5b610d9a89828701610b68565b8252508484013583811115610dae57600080fd5b80850194505087601f850112610dc357600080fd5b8335610dd16108e782610abb565b81815260059190911b8501860190868101908a831115610df057600080fd5b8787015b83811015610e8057803587811115610e0c5760008081fd5b8801808d03601f1901871315610e225760008081fd5b610e2a61084f565b8a82013589811115610e3c5760008081fd5b610e4a8f8d838601016108c8565b8252508782013589811115610e5f5760008081fd5b610e6d8f8d838601016108c8565b828d015250845250918801918801610df4565b509683019690965250979650505050505050565b60005b83811015610eaf578181015183820152602001610e97565b50506000910152565b600060208284031215610eca57600080fd5b81516001600160401b03811115610ee057600080fd5b8201601f81018413610ef157600080fd5b8051610eff6108e7826108a1565b818152856020838501011115610f1457600080fd5b610f25826020830160208601610e94565b95945050505050565b6a03432b6363790333937b6960ad1b815260008251610f5481600b850160208701610e94565b91909101600b0192915050565b60008151808452610f79816020860160208601610e94565b601f01601f19169290920160200192915050565b602081526000825160a06020840152610fa960c0840182610f61565b90506020840151601f1980858403016040860152610fc78383610f61565b9250604086015191508085840301606086015250610fe58282610f61565b91505060608401516001600160401b0380821660808601528060808701511660a086015250508091505092915050565b6020815260006110286020830184610f61565b9392505050565b60006020808352835160a08285015261104b60c0850182610f61565b90506001600160401b03828601511660408501526040850151601f19808684030160608701528282518085528585019150858160051b860101868501945060005b828110156110b857848783030184526110a6828751610f61565b9588019593880193915060010161108c565b5060608a01516001600160401b03811660808b0152965060808a01516001600160401b03811660a08b015296509998505050505050505050565b60008951611104818460208e01610e94565b895190830190611118818360208e01610e94565b60c08a811b6001600160c01b03199081169390920192835289901b81166008830152875161114d816010850160208c01610e94565b8751920191611163816010850160208b01610e94565b8651920191611179816010850160208a01610e94565b60c09590951b16930160108101939093525050601801979650505050505050565b634e487b7160e01b600052603260045260246000fd5b600083516111c2818460208801610e94565b8351908301906111d6818360208801610e94565b01949350505050565b6000600182016111ff57634e487b7160e01b600052601160045260246000fd5b5060010190565b60008951611218818460208e01610e94565b89519083019061122c818360208e01610e94565b60c08a811b6001600160c01b03199081169390920192835289811b8216600884015288901b81166010830152865161126b816018850160208b01610e94565b8651920191611281816018850160208a01610e94565b60c09590951b1693016018810193909352505060200197965050505050505056fea26469706673582212203546c6300268c0deb245b2ef506bd22861a7c087731e6c20aad831bee694144d64736f6c63430008110033",
    "linkReferences": {
      "src/interfaces/StateMachine.sol": {
        "StateMachine": [
          {
            "start": 1265,
            "length": 20
          }
        ]
      }
    }
  },
  "methodIdentifiers": {
    "dispatch((bytes,bytes,uint64,bytes,bytes,uint64,bytes,uint64))": "31267dee",
    "dispatch((bytes,bytes,uint64,bytes,uint64,bytes[],uint64,uint64))": "d1ab46cf",
    "dispatchToParachain(uint256)": "72354e9b",
    "onAccept((bytes,bytes,uint64,bytes,bytes,uint64,bytes,uint64))": "4e87ba19",
    "onGetResponse(((bytes,bytes,uint64,bytes,uint64,bytes[],uint64,uint64),(bytes,bytes)[]))": "f370fdbb",
    "onGetTimeout((bytes,bytes,uint64,bytes,uint64,bytes[],uint64,uint64))": "4c46c035",
    "onPostResponse(((bytes,bytes,uint64,bytes,bytes,uint64,bytes,uint64),bytes))": "c52c28af",
    "onPostTimeout((bytes,bytes,uint64,bytes,bytes,uint64,bytes,uint64))": "c715f52b",
    "ping(bytes)": "1f40dc8b"
  },
  "id": 51
}