{
  "abi": [
    {
      "inputs": [
        {
          "internalType": "address",
          "name": "_owner",
          "type": "address"
        }
      ],
      "stateMutability": "nonpayable",
      "type": "constructor"
    },
    {
      "inputs": [
        {
          "internalType": "address",
          "name": "owner",
          "type": "address"
        }
      ],
      "name": "OwnableInvalidOwner",
      "type": "error"
    },
    {
      "inputs": [
        {
          "internalType": "address",
          "name": "account",
          "type": "address"
        }
      ],
      "name": "OwnableUnauthorizedAccount",
      "type": "error"
    },
    {
      "anonymous": false,
      "inputs": [
        {
          "indexed": false,
          "internalType": "uint256",
          "name": "",
          "type": "uint256"
        }
      ],
      "name": "DecimalsUpdated",
      "type": "event"
    },
    {
      "anonymous": false,
      "inputs": [
        {
          "indexed": false,
          "internalType": "uint256",
          "name": "",
          "type": "uint256"
        }
      ],
      "name": "GasPriceUpdated",
      "type": "event"
    },
    {
      "anonymous": false,
      "inputs": [
        {
          "indexed": false,
          "internalType": "uint256",
          "name": "",
          "type": "uint256"
        }
      ],
      "name": "L1BaseFeeUpdated",
      "type": "event"
    },
    {
      "anonymous": false,
      "inputs": [
        {
          "indexed": false,
          "internalType": "uint256",
          "name": "",
          "type": "uint256"
        }
      ],
      "name": "OverheadUpdated",
      "type": "event"
    },
    {
      "anonymous": false,
      "inputs": [
        {
          "indexed": true,
          "internalType": "address",
          "name": "previousOwner",
          "type": "address"
        },
        {
          "indexed": true,
          "internalType": "address",
          "name": "newOwner",
          "type": "address"
        }
      ],
      "name": "OwnershipTransferred",
      "type": "event"
    },
    {
      "anonymous": false,
      "inputs": [
        {
          "indexed": false,
          "internalType": "uint256",
          "name": "",
          "type": "uint256"
        }
      ],
      "name": "ScalarUpdated",
      "type": "event"
    },
    {
      "inputs": [],
      "name": "decimals",
      "outputs": [
        {
          "internalType": "uint256",
          "name": "",
          "type": "uint256"
        }
      ],
      "stateMutability": "view",
      "type": "function"
    },
    {
      "inputs": [],
      "name": "gasPrice",
      "outputs": [
        {
          "internalType": "uint256",
          "name": "",
          "type": "uint256"
        }
      ],
      "stateMutability": "view",
      "type": "function"
    },
    {
      "inputs": [
        {
          "internalType": "bytes",
          "name": "_data",
          "type": "bytes"
        }
      ],
      "name": "getL1Fee",
      "outputs": [
        {
          "internalType": "uint256",
          "name": "",
          "type": "uint256"
        }
      ],
      "stateMutability": "view",
      "type": "function"
    },
    {
      "inputs": [
        {
          "internalType": "bytes",
          "name": "_data",
          "type": "bytes"
        }
      ],
      "name": "getL1GasUsed",
      "outputs": [
        {
          "internalType": "uint256",
          "name": "",
          "type": "uint256"
        }
      ],
      "stateMutability": "view",
      "type": "function"
    },
    {
      "inputs": [],
      "name": "l1BaseFee",
      "outputs": [
        {
          "internalType": "uint256",
          "name": "",
          "type": "uint256"
        }
      ],
      "stateMutability": "view",
      "type": "function"
    },
    {
      "inputs": [],
      "name": "overhead",
      "outputs": [
        {
          "internalType": "uint256",
          "name": "",
          "type": "uint256"
        }
      ],
      "stateMutability": "view",
      "type": "function"
    },
    {
      "inputs": [],
      "name": "owner",
      "outputs": [
        {
          "internalType": "address",
          "name": "",
          "type": "address"
        }
      ],
      "stateMutability": "view",
      "type": "function"
    },
    {
      "inputs": [],
      "name": "renounceOwnership",
      "outputs": [],
      "stateMutability": "nonpayable",
      "type": "function"
    },
    {
      "inputs": [],
      "name": "scalar",
      "outputs": [
        {
          "internalType": "uint256",
          "name": "",
          "type": "uint256"
        }
      ],
      "stateMutability": "view",
      "type": "function"
    },
    {
      "inputs": [
        {
          "internalType": "uint256",
          "name": "_decimals",
          "type": "uint256"
        }
      ],
      "name": "setDecimals",
      "outputs": [],
      "stateMutability": "nonpayable",
      "type": "function"
    },
    {
      "inputs": [
        {
          "internalType": "uint256",
          "name": "_gasPrice",
          "type": "uint256"
        }
      ],
      "name": "setGasPrice",
      "outputs": [],
      "stateMutability": "nonpayable",
      "type": "function"
    },
    {
      "inputs": [
        {
          "internalType": "uint256",
          "name": "_baseFee",
          "type": "uint256"
        }
      ],
      "name": "setL1BaseFee",
      "outputs": [],
      "stateMutability": "nonpayable",
      "type": "function"
    },
    {
      "inputs": [
        {
          "internalType": "uint256",
          "name": "_overhead",
          "type": "uint256"
        }
      ],
      "name": "setOverhead",
      "outputs": [],
      "stateMutability": "nonpayable",
      "type": "function"
    },
    {
      "inputs": [
        {
          "internalType": "uint256",
          "name": "_scalar",
          "type": "uint256"
        }
      ],
      "name": "setScalar",
      "outputs": [],
      "stateMutability": "nonpayable",
      "type": "function"
    },
    {
      "inputs": [
        {
          "internalType": "address",
          "name": "newOwner",
          "type": "address"
        }
      ],
      "name": "transferOwnership",
      "outputs": [],
      "stateMutability": "nonpayable",
      "type": "function"
    }
  ],
  "bytecode": {
    "object": "0x608060405234801561001057600080fd5b5060405161092f38038061092f83398101604081905261002f91610135565b806001600160a01b03811661005f57604051631e4fbdf760e01b8152600060048201526024015b60405180910390fd5b61006881610078565b50610072816100c8565b50610165565b600080546001600160a01b038381166001600160a01b0319831681178455604051919092169283917f8be0079c531659141344cd1fd0a4f28419497f9722a3daafe3b4186f6b6457e09190a35050565b6100d0610106565b6001600160a01b0381166100fa57604051631e4fbdf760e01b815260006004820152602401610056565b61010381610078565b50565b6000546001600160a01b031633146101335760405163118cdaa760e01b8152336004820152602401610056565b565b60006020828403121561014757600080fd5b81516001600160a01b038116811461015e57600080fd5b9392505050565b6107bb806101746000396000f3fe608060405234801561001057600080fd5b50600436106100f55760003560e01c80638c8885c811610097578063de26c4a111610066578063de26c4a1146101bf578063f2fde38b146101d2578063f45e65d8146101e5578063fe173b97146101ee57600080fd5b80638c8885c81461016b5780638da5cb5b1461017e578063bede39b514610199578063bf1fe420146101ac57600080fd5b806349948e0e116100d357806349948e0e14610134578063519b4bd3146101475780637046559714610150578063715018a61461016357600080fd5b80630c18c162146100fa578063313ce567146101165780633577afc51461011f575b600080fd5b61010360035481565b6040519081526020015b60405180910390f35b61010360055481565b61013261012d3660046104ee565b6101f7565b005b61010361014236600461051d565b61023b565b61010360025481565b61013261015e3660046104ee565b610297565b6101326102d4565b6101326101793660046104ee565b6102e8565b6000546040516001600160a01b03909116815260200161010d565b6101326101a73660046104ee565b610325565b6101326101ba3660046104ee565b610362565b6101036101cd36600461051d565b61039f565b6101326101e03660046105ce565b61042e565b61010360045481565b61010360015481565b6101ff610471565b60038190556040518181527f32740b35c0ea213650f60d44366b4fb211c9033b50714e4a1d34e65d5beb9bb4906020015b60405180910390a150565b6000806102478361039f565b90506000600254826102599190610614565b90506000600554600a61026c9190610715565b905060006004548361027e9190610614565b9050600061028c8383610721565b979650505050505050565b61029f610471565b60048190556040518181527f3336cd9708eaf2769a0f0dc0679f30e80f15dcd88d1921b5a16858e8b85c591a90602001610230565b6102dc610471565b6102e6600061049e565b565b6102f0610471565b60058190556040518181527fd68112a8707e326d08be3656b528c1bcc5bbbfc47f4177e2179b14d8640838c190602001610230565b61032d610471565b60028190556040518181527f351fb23757bb5ea0546c85b7996ddd7155f96b939ebaa5ff7bc49c75f27f2c4490602001610230565b61036a610471565b60018190556040518181527ffcdccc6074c6c42e4bd578aa9870c697dc976a270968452d2b8c8dc369fae39690602001610230565b600080805b8351811015610407578381815181106103bf576103bf610743565b01602001516001600160f81b0319166000036103e7576103e0600483610759565b91506103f5565b6103f2601083610759565b91505b806103ff8161076c565b9150506103a4565b506000600354826104189190610759565b905061042681610440610759565b949350505050565b610436610471565b6001600160a01b03811661046557604051631e4fbdf760e01b8152600060048201526024015b60405180910390fd5b61046e8161049e565b50565b6000546001600160a01b031633146102e65760405163118cdaa760e01b815233600482015260240161045c565b600080546001600160a01b038381166001600160a01b0319831681178455604051919092169283917f8be0079c531659141344cd1fd0a4f28419497f9722a3daafe3b4186f6b6457e09190a35050565b60006020828403121561050057600080fd5b5035919050565b634e487b7160e01b600052604160045260246000fd5b60006020828403121561052f57600080fd5b813567ffffffffffffffff8082111561054757600080fd5b818401915084601f83011261055b57600080fd5b81358181111561056d5761056d610507565b604051601f8201601f19908116603f0116810190838211818310171561059557610595610507565b816040528281528760208487010111156105ae57600080fd5b826020860160208301376000928101602001929092525095945050505050565b6000602082840312156105e057600080fd5b81356001600160a01b03811681146105f757600080fd5b9392505050565b634e487b7160e01b600052601160045260246000fd5b808202811582820484141761062b5761062b6105fe565b92915050565b600181815b8085111561066c578160001904821115610652576106526105fe565b8085161561065f57918102915b93841c9390800290610636565b509250929050565b6000826106835750600161062b565b816106905750600061062b565b81600181146106a657600281146106b0576106cc565b600191505061062b565b60ff8411156106c1576106c16105fe565b50506001821b61062b565b5060208310610133831016604e8410600b84101617156106ef575081810a61062b565b6106f98383610631565b806000190482111561070d5761070d6105fe565b029392505050565b60006105f78383610674565b60008261073e57634e487b7160e01b600052601260045260246000fd5b500490565b634e487b7160e01b600052603260045260246000fd5b8082018082111561062b5761062b6105fe565b60006001820161077e5761077e6105fe565b506001019056fea2646970667358221220cbc11a04c263d8104a0da139f3110d851417bdc1bc47c4f5d989fd246d04baf964736f6c63430008150033",
    "linkReferences": {}
  },
  "methodIdentifiers": {
    "decimals()": "313ce567",
    "gasPrice()": "fe173b97",
    "getL1Fee(bytes)": "49948e0e",
    "getL1GasUsed(bytes)": "de26c4a1",
    "l1BaseFee()": "519b4bd3",
    "overhead()": "0c18c162",
    "owner()": "8da5cb5b",
    "renounceOwnership()": "715018a6",
    "scalar()": "f45e65d8",
    "setDecimals(uint256)": "8c8885c8",
    "setGasPrice(uint256)": "bf1fe420",
    "setL1BaseFee(uint256)": "bede39b5",
    "setOverhead(uint256)": "3577afc5",
    "setScalar(uint256)": "70465597",
    "transferOwnership(address)": "f2fde38b"
  },
  "id": 25
}