{
  "abi": [
    {
      "inputs": [
        {
          "internalType": "address",
          "name": "host",
          "type": "address"
        }
      ],
      "stateMutability": "nonpayable",
      "type": "constructor"
    },
    {
      "inputs": [],
      "name": "ExecutionFailed",
      "type": "error"
    },
    {
      "inputs": [],
      "name": "NotIsmpHost",
      "type": "error"
    },
    {
      "anonymous": false,
      "inputs": [],
      "name": "GetResponseReceived",
      "type": "event"
    },
    {
      "anonymous": false,
      "inputs": [],
      "name": "GetTimeoutReceived",
      "type": "event"
    },
    {
      "anonymous": false,
      "inputs": [],
      "name": "MessageDispatched",
      "type": "event"
    },
    {
      "anonymous": false,
      "inputs": [
        {
          "indexed": false,
          "internalType": "string",
          "name": "message",
          "type": "string"
        }
      ],
      "name": "PostReceived",
      "type": "event"
    },
    {
      "anonymous": false,
      "inputs": [],
      "name": "PostResponseReceived",
      "type": "event"
    },
    {
      "anonymous": false,
      "inputs": [],
      "name": "PostTimeoutReceived",
      "type": "event"
    },
    {
      "inputs": [
        {
          "components": [
            {
              "internalType": "bytes",
              "name": "source",
              "type": "bytes"
            },
            {
              "internalType": "bytes",
              "name": "dest",
              "type": "bytes"
            },
            {
              "internalType": "uint64",
              "name": "nonce",
              "type": "uint64"
            },
            {
              "internalType": "bytes",
              "name": "from",
              "type": "bytes"
            },
            {
              "internalType": "bytes",
              "name": "to",
              "type": "bytes"
            },
            {
              "internalType": "uint64",
              "name": "timeoutTimestamp",
              "type": "uint64"
            },
            {
              "internalType": "bytes",
              "name": "body",
              "type": "bytes"
            },
            {
              "internalType": "uint64",
              "name": "gaslimit",
              "type": "uint64"
            }
          ],
          "internalType": "struct PostRequest",
          "name": "request",
          "type": "tuple"
        }
      ],
      "name": "dispatch",
      "outputs": [
        {
          "internalType": "bytes32",
          "name": "",
          "type": "bytes32"
        }
      ],
      "stateMutability": "nonpayable",
      "type": "function"
    },
    {
      "inputs": [
        {
          "components": [
            {
              "internalType": "bytes",
              "name": "source",
              "type": "bytes"
            },
            {
              "internalType": "bytes",
              "name": "dest",
              "type": "bytes"
            },
            {
              "internalType": "uint64",
              "name": "nonce",
              "type": "uint64"
            },
            {
              "internalType": "bytes",
              "name": "from",
              "type": "bytes"
            },
            {
              "internalType": "uint64",
              "name": "timeoutTimestamp",
              "type": "uint64"
            },
            {
              "internalType": "bytes[]",
              "name": "keys",
              "type": "bytes[]"
            },
            {
              "internalType": "uint64",
              "name": "height",
              "type": "uint64"
            },
            {
              "internalType": "uint64",
              "name": "gaslimit",
              "type": "uint64"
            }
          ],
          "internalType": "struct GetRequest",
          "name": "request",
          "type": "tuple"
        }
      ],
      "name": "dispatch",
      "outputs": [
        {
          "internalType": "bytes32",
          "name": "",
          "type": "bytes32"
        }
      ],
      "stateMutability": "nonpayable",
      "type": "function"
    },
    {
      "inputs": [
        {
          "internalType": "uint256",
          "name": "_paraId",
          "type": "uint256"
        }
      ],
      "name": "dispatchToParachain",
      "outputs": [],
      "stateMutability": "nonpayable",
      "type": "function"
    },
    {
      "inputs": [
        {
          "components": [
            {
              "internalType": "bytes",
              "name": "source",
              "type": "bytes"
            },
            {
              "internalType": "bytes",
              "name": "dest",
              "type": "bytes"
            },
            {
              "internalType": "uint64",
              "name": "nonce",
              "type": "uint64"
            },
            {
              "internalType": "bytes",
              "name": "from",
              "type": "bytes"
            },
            {
              "internalType": "bytes",
              "name": "to",
              "type": "bytes"
            },
            {
              "internalType": "uint64",
              "name": "timeoutTimestamp",
              "type": "uint64"
            },
            {
              "internalType": "bytes",
              "name": "body",
              "type": "bytes"
            },
            {
              "internalType": "uint64",
              "name": "gaslimit",
              "type": "uint64"
            }
          ],
          "internalType": "struct PostRequest",
          "name": "request",
          "type": "tuple"
        }
      ],
      "name": "onAccept",
      "outputs": [],
      "stateMutability": "nonpayable",
      "type": "function"
    },
    {
      "inputs": [
        {
          "components": [
            {
              "components": [
                {
                  "internalType": "bytes",
                  "name": "source",
                  "type": "bytes"
                },
                {
                  "internalType": "bytes",
                  "name": "dest",
                  "type": "bytes"
                },
                {
                  "internalType": "uint64",
                  "name": "nonce",
                  "type": "uint64"
                },
                {
                  "internalType": "bytes",
                  "name": "from",
                  "type": "bytes"
                },
                {
                  "internalType": "uint64",
                  "name": "timeoutTimestamp",
                  "type": "uint64"
                },
                {
                  "internalType": "bytes[]",
                  "name": "keys",
                  "type": "bytes[]"
                },
                {
                  "internalType": "uint64",
                  "name": "height",
                  "type": "uint64"
                },
                {
                  "internalType": "uint64",
                  "name": "gaslimit",
                  "type": "uint64"
                }
              ],
              "internalType": "struct GetRequest",
              "name": "request",
              "type": "tuple"
            },
            {
              "components": [
                {
                  "internalType": "bytes",
                  "name": "key",
                  "type": "bytes"
                },
                {
                  "internalType": "bytes",
                  "name": "value",
                  "type": "bytes"
                }
              ],
              "internalType": "struct StorageValue[]",
              "name": "values",
              "type": "tuple[]"
            }
          ],
          "internalType": "struct GetResponse",
          "name": "response",
          "type": "tuple"
        }
      ],
      "name": "onGetResponse",
      "outputs": [],
      "stateMutability": "nonpayable",
      "type": "function"
    },
    {
      "inputs": [
        {
          "components": [
            {
              "internalType": "bytes",
              "name": "source",
              "type": "bytes"
            },
            {
              "internalType": "bytes",
              "name": "dest",
              "type": "bytes"
            },
            {
              "internalType": "uint64",
              "name": "nonce",
              "type": "uint64"
            },
            {
              "internalType": "bytes",
              "name": "from",
              "type": "bytes"
            },
            {
              "internalType": "uint64",
              "name": "timeoutTimestamp",
              "type": "uint64"
            },
            {
              "internalType": "bytes[]",
              "name": "keys",
              "type": "bytes[]"
            },
            {
              "internalType": "uint64",
              "name": "height",
              "type": "uint64"
            },
            {
              "internalType": "uint64",
              "name": "gaslimit",
              "type": "uint64"
            }
          ],
          "internalType": "struct GetRequest",
          "name": "request",
          "type": "tuple"
        }
      ],
      "name": "onGetTimeout",
      "outputs": [],
      "stateMutability": "nonpayable",
      "type": "function"
    },
    {
      "inputs": [
        {
          "components": [
            {
              "components": [
                {
                  "internalType": "bytes",
                  "name": "source",
                  "type": "bytes"
                },
                {
                  "internalType": "bytes",
                  "name": "dest",
                  "type": "bytes"
                },
                {
                  "internalType": "uint64",
                  "name": "nonce",
                  "type": "uint64"
                },
                {
                  "internalType": "bytes",
                  "name": "from",
                  "type": "bytes"
                },
                {
                  "internalType": "bytes",
                  "name": "to",
                  "type": "bytes"
                },
                {
                  "internalType": "uint64",
                  "name": "timeoutTimestamp",
                  "type": "uint64"
                },
                {
                  "internalType": "bytes",
                  "name": "body",
                  "type": "bytes"
                },
                {
                  "internalType": "uint64",
                  "name": "gaslimit",
                  "type": "uint64"
                }
              ],
              "internalType": "struct PostRequest",
              "name": "request",
              "type": "tuple"
            },
            {
              "internalType": "bytes",
              "name": "response",
              "type": "bytes"
            }
          ],
          "internalType": "struct PostResponse",
          "name": "response",
          "type": "tuple"
        }
      ],
      "name": "onPostResponse",
      "outputs": [],
      "stateMutability": "nonpayable",
      "type": "function"
    },
    {
      "inputs": [
        {
          "components": [
            {
              "internalType": "bytes",
              "name": "source",
              "type": "bytes"
            },
            {
              "internalType": "bytes",
              "name": "dest",
              "type": "bytes"
            },
            {
              "internalType": "uint64",
              "name": "nonce",
              "type": "uint64"
            },
            {
              "internalType": "bytes",
              "name": "from",
              "type": "bytes"
            },
            {
              "internalType": "bytes",
              "name": "to",
              "type": "bytes"
            },
            {
              "internalType": "uint64",
              "name": "timeoutTimestamp",
              "type": "uint64"
            },
            {
              "internalType": "bytes",
              "name": "body",
              "type": "bytes"
            },
            {
              "internalType": "uint64",
              "name": "gaslimit",
              "type": "uint64"
            }
          ],
          "internalType": "struct PostRequest",
          "name": "request",
          "type": "tuple"
        }
      ],
      "name": "onPostTimeout",
      "outputs": [],
      "stateMutability": "nonpayable",
      "type": "function"
    },
    {
      "inputs": [
        {
          "components": [
            {
              "internalType": "bytes",
              "name": "dest",
              "type": "bytes"
            },
            {
              "internalType": "address",
              "name": "module",
              "type": "address"
            },
            {
              "internalType": "uint64",
              "name": "timeout",
              "type": "uint64"
            }
          ],
          "internalType": "struct PingMessage",
          "name": "msg",
          "type": "tuple"
        }
      ],
      "name": "ping",
      "outputs": [],
      "stateMutability": "nonpayable",
      "type": "function"
    }
  ],
  "bytecode": {
    "object": "0x608060405234801561001057600080fd5b506040516113fd3803806113fd83398101604081905261002f91610054565b600080546001600160a01b0319166001600160a01b0392909216919091179055610084565b60006020828403121561006657600080fd5b81516001600160a01b038116811461007d57600080fd5b9392505050565b61136a806100936000396000f3fe608060405234801561001057600080fd5b50600436106100935760003560e01c806372354e9b1161006657806372354e9b146100f8578063c52c28af1461010b578063c715f52b1461011e578063d1ab46cf14610131578063f370fdbb1461014457600080fd5b806331267dee1461009857806340ffb7bc146100bd5780634c46c035146100d25780634e87ba19146100e5575b600080fd5b6100ab6100a6366004610a5c565b610157565b60405190815260200160405180910390f35b6100d06100cb366004610a98565b610217565b005b6100d06100e0366004610cec565b61038c565b6100d06100f3366004610a5c565b6103e3565b6100d0610106366004610d20565b61044c565b6100d0610119366004610d39565b610569565b6100d061012c366004610a5c565b6105c0565b6100ab61013f366004610cec565b610617565b6100d0610152366004610dc9565b6106a1565b600080610163836106f8565b6040805160a0808201835260208088015183526080808901519184019190915260c088015183850152908701516001600160401b03908116606084015260e08801511690820152600054915163d25bcd3d60e01b8152929350916001600160a01b039091169063d25bcd3d906101dd908490600401610f76565b600060405180830381600087803b1580156101f757600080fd5b505af115801561020b573d6000803e3d6000fd5b50939695505050505050565b60006040518060a0016040528083600001518152602001836020015160405160200161025b919060609190911b6bffffffffffffffffffffffff1916815260140190565b604051602081830303815290604052815260200160008054906101000a90046001600160a01b03166001600160a01b031663f437bc596040518163ffffffff1660e01b81526004016000604051808303816000875af11580156102c2573d6000803e3d6000fd5b505050506040513d6000823e601f3d908101601f191682016040526102ea9190810190610ffe565b6040516020016102fa9190611074565b60408051601f19818403018152918152908252848101516001600160401b0316602083015260009181018290529054905163d25bcd3d60e01b81529192506001600160a01b03169063d25bcd3d90610356908490600401610f76565b600060405180830381600087803b15801561037057600080fd5b505af1158015610384573d6000803e3d6000fd5b505050505050565b6000546001600160a01b031633146103b7576040516351ab8de560e01b815260040160405180910390fd5b6040517f83e62025e4bc587516d0bc315e329eac0c66362854feb7cd4135ef8143ba15f990600090a150565b6000546001600160a01b0316331461040e576040516351ab8de560e01b815260040160405180910390fd5b7ffb087b3ffbbb0fc922dccf872508671a7605859423eb90eb014c56fdba1484dc8160c0015160405161044191906110a7565b60405180910390a150565b6040805160a0810191829052632265539b60e11b90915260a481018290526000908073__$5951573f04fb13f9a8f5667287590e28f9$__6344caa73660c48301600060405180830381865af41580156104a9573d6000803e3d6000fd5b505050506040513d6000823e601f3d908101601f191682016040526104d19190810190610ffe565b815260408051808201825260088152671a5cdb5c0b585cdd60c21b6020828101919091528084019190915281518083018352601381527268656c6c6f2066726f6d20657468657265756d60681b918101919091528183015260006060830181905260809092018290529054905163d25bcd3d60e01b81529192506001600160a01b03169063d25bcd3d90610356908490600401610f76565b6000546001600160a01b03163314610594576040516351ab8de560e01b815260040160405180910390fd5b6040517fd7dc99afb6c33039cea4505a9e2cab3471d359cebe021ec127dc94ddd359d3c590600090a150565b6000546001600160a01b031633146105eb576040516351ab8de560e01b815260040160405180910390fd5b6040517fc3998b1677e63c12e8bdc8daab3e836b037b3b28d05cd349066c2673e62f35d790600090a150565b6000806106238361074f565b6040805160a08082018352602080880151835260c08801516001600160401b039081169184019190915290870151828401526080808801518216606084015260e08801519091169082015260005491516367bd911f60e01b8152929350916001600160a01b03909116906367bd911f906101dd9084906004016110c1565b6000546001600160a01b031633146106cc576040516351ab8de560e01b815260040160405180910390fd5b6040517fcbcbca664dfeb924ccd850a00868130bfb1df157099a06f9296822cb7bc3ad0190600090a150565b805160208083015160408085015160a08601516060870151608088015160c089015160e08a01519551600099610732999098979101611184565b604051602081830303815290604052805190602001209050919050565b6040805160208101909152600080825260a083015151909190825b818110156107c657828560a0015182815181106107895761078961122c565b60200260200101516040516020016107a2929190611242565b604051602081830303815290604052925080806107be90611271565b91505061076a565b508360000151846020015185604001518660c0015187608001518860600151878a60e00151604051602001610802989796959493929190611298565b6040516020818303038152906040528051906020012092505050919050565b634e487b7160e01b600052604160045260246000fd5b60405161010081016001600160401b038111828210171561085a5761085a610821565b60405290565b604080519081016001600160401b038111828210171561085a5761085a610821565b604051601f8201601f191681016001600160401b03811182821017156108aa576108aa610821565b604052919050565b60006001600160401b038211156108cb576108cb610821565b50601f01601f191660200190565b600082601f8301126108ea57600080fd5b81356108fd6108f8826108b2565b610882565b81815284602083860101111561091257600080fd5b816020850160208301376000918101602001919091529392505050565b80356001600160401b038116811461094657600080fd5b919050565b6000610100828403121561095e57600080fd5b610966610837565b905081356001600160401b038082111561097f57600080fd5b61098b858386016108d9565b835260208401359150808211156109a157600080fd5b6109ad858386016108d9565b60208401526109be6040850161092f565b604084015260608401359150808211156109d757600080fd5b6109e3858386016108d9565b606084015260808401359150808211156109fc57600080fd5b610a08858386016108d9565b6080840152610a1960a0850161092f565b60a084015260c0840135915080821115610a3257600080fd5b50610a3f848285016108d9565b60c083015250610a5160e0830161092f565b60e082015292915050565b600060208284031215610a6e57600080fd5b81356001600160401b03811115610a8457600080fd5b610a908482850161094b565b949350505050565b600060208284031215610aaa57600080fd5b81356001600160401b0380821115610ac157600080fd5b9083019060608286031215610ad557600080fd5b604051606081018181108382111715610af057610af0610821565b604052823582811115610b0257600080fd5b610b0e878286016108d9565b825250602083013591506001600160a01b0382168214610b2d57600080fd5b816020820152610b3f6040840161092f565b604082015295945050505050565b60006001600160401b03821115610b6657610b66610821565b5060051b60200190565b600082601f830112610b8157600080fd5b81356020610b916108f883610b4d565b82815260059290921b84018101918181019086841115610bb057600080fd5b8286015b84811015610bef5780356001600160401b03811115610bd35760008081fd5b610be18986838b01016108d9565b845250918301918301610bb4565b509695505050505050565b60006101008284031215610c0d57600080fd5b610c15610837565b905081356001600160401b0380821115610c2e57600080fd5b610c3a858386016108d9565b83526020840135915080821115610c5057600080fd5b610c5c858386016108d9565b6020840152610c6d6040850161092f565b60408401526060840135915080821115610c8657600080fd5b610c92858386016108d9565b6060840152610ca36080850161092f565b608084015260a0840135915080821115610cbc57600080fd5b50610cc984828501610b70565b60a083015250610cdb60c0830161092f565b60c0820152610a5160e0830161092f565b600060208284031215610cfe57600080fd5b81356001600160401b03811115610d1457600080fd5b610a9084828501610bfa565b600060208284031215610d3257600080fd5b5035919050565b600060208284031215610d4b57600080fd5b81356001600160401b0380821115610d6257600080fd5b9083019060408286031215610d7657600080fd5b610d7e610860565b823582811115610d8d57600080fd5b610d998782860161094b565b825250602083013582811115610dae57600080fd5b610dba878286016108d9565b60208301525095945050505050565b60006020808385031215610ddc57600080fd5b82356001600160401b0380821115610df357600080fd5b81850191506040808388031215610e0957600080fd5b610e11610860565b833583811115610e2057600080fd5b610e2c89828701610bfa565b8252508484013583811115610e4057600080fd5b80850194505087601f850112610e5557600080fd5b8335610e636108f882610b4d565b81815260059190911b8501860190868101908a831115610e8257600080fd5b8787015b83811015610f1257803587811115610e9e5760008081fd5b8801808d03601f1901871315610eb45760008081fd5b610ebc610860565b8a82013589811115610ece5760008081fd5b610edc8f8d838601016108d9565b8252508782013589811115610ef15760008081fd5b610eff8f8d838601016108d9565b828d015250845250918801918801610e86565b509683019690965250979650505050505050565b60005b83811015610f41578181015183820152602001610f29565b50506000910152565b60008151808452610f62816020860160208601610f26565b601f01601f19169290920160200192915050565b602081526000825160a06020840152610f9260c0840182610f4a565b90506020840151601f1980858403016040860152610fb08383610f4a565b9250604086015191508085840301606086015250610fce8282610f4a565b91505060608401516001600160401b0380821660808601528060808701511660a086015250508091505092915050565b60006020828403121561101057600080fd5b81516001600160401b0381111561102657600080fd5b8201601f8101841361103757600080fd5b80516110456108f8826108b2565b81815285602083850101111561105a57600080fd5b61106b826020830160208601610f26565b95945050505050565b6a03432b6363790333937b6960ad1b81526000825161109a81600b850160208701610f26565b91909101600b0192915050565b6020815260006110ba6020830184610f4a565b9392505050565b60006020808352835160a0828501526110dd60c0850182610f4a565b90506001600160401b03828601511660408501526040850151601f19808684030160608701528282518085528585019150858160051b860101868501945060005b8281101561114a5784878303018452611138828751610f4a565b9588019593880193915060010161111e565b5060608a01516001600160401b03811660808b0152965060808a01516001600160401b03811660a08b015296509998505050505050505050565b60008951611196818460208e01610f26565b8951908301906111aa818360208e01610f26565b60c08a811b6001600160c01b03199081169390920192835289901b8116600883015287516111df816010850160208c01610f26565b87519201916111f5816010850160208b01610f26565b865192019161120b816010850160208a01610f26565b60c09590951b16930160108101939093525050601801979650505050505050565b634e487b7160e01b600052603260045260246000fd5b60008351611254818460208801610f26565b835190830190611268818360208801610f26565b01949350505050565b60006001820161129157634e487b7160e01b600052601160045260246000fd5b5060010190565b600089516112aa818460208e01610f26565b8951908301906112be818360208e01610f26565b60c08a811b6001600160c01b03199081169390920192835289811b8216600884015288901b8116601083015286516112fd816018850160208b01610f26565b8651920191611313816018850160208a01610f26565b60c09590951b1693016018810193909352505060200197965050505050505056fea2646970667358221220c52f7d5b4a358a29e2fc70e021819b49a6f8b1dc4a27e1210019dff4b8edb76264736f6c63430008110033",
    "linkReferences": {
      "lib/ismp-solidity/src/interfaces/StateMachine.sol": {
        "StateMachine": [
          {
            "start": 1283,
            "length": 20
          }
        ]
      }
    }
  },
  "methodIdentifiers": {
    "dispatch((bytes,bytes,uint64,bytes,bytes,uint64,bytes,uint64))": "31267dee",
    "dispatch((bytes,bytes,uint64,bytes,uint64,bytes[],uint64,uint64))": "d1ab46cf",
    "dispatchToParachain(uint256)": "72354e9b",
    "onAccept((bytes,bytes,uint64,bytes,bytes,uint64,bytes,uint64))": "4e87ba19",
    "onGetResponse(((bytes,bytes,uint64,bytes,uint64,bytes[],uint64,uint64),(bytes,bytes)[]))": "f370fdbb",
    "onGetTimeout((bytes,bytes,uint64,bytes,uint64,bytes[],uint64,uint64))": "4c46c035",
    "onPostResponse(((bytes,bytes,uint64,bytes,bytes,uint64,bytes,uint64),bytes))": "c52c28af",
    "onPostTimeout((bytes,bytes,uint64,bytes,bytes,uint64,bytes,uint64))": "c715f52b",
    "ping((bytes,address,uint64))": "40ffb7bc"
  },
  "id": 67
}