{
  "abi": [
    {
      "inputs": [
        {
          "internalType": "address",
          "name": "host",
          "type": "address"
        }
      ],
      "stateMutability": "nonpayable",
      "type": "constructor"
    },
    {
      "inputs": [],
      "name": "ExecutionFailed",
      "type": "error"
    },
    {
      "inputs": [],
      "name": "NotIsmpHost",
      "type": "error"
    },
    {
      "anonymous": false,
      "inputs": [],
      "name": "GetResponseReceived",
      "type": "event"
    },
    {
      "anonymous": false,
      "inputs": [],
      "name": "GetTimeoutReceived",
      "type": "event"
    },
    {
      "anonymous": false,
      "inputs": [],
      "name": "MessageDispatched",
      "type": "event"
    },
    {
      "anonymous": false,
      "inputs": [
        {
          "indexed": false,
          "internalType": "string",
          "name": "message",
          "type": "string"
        }
      ],
      "name": "PostReceived",
      "type": "event"
    },
    {
      "anonymous": false,
      "inputs": [],
      "name": "PostResponseReceived",
      "type": "event"
    },
    {
      "anonymous": false,
      "inputs": [],
      "name": "PostTimeoutReceived",
      "type": "event"
    },
    {
      "inputs": [
        {
          "components": [
            {
              "internalType": "bytes",
              "name": "source",
              "type": "bytes"
            },
            {
              "internalType": "bytes",
              "name": "dest",
              "type": "bytes"
            },
            {
              "internalType": "uint64",
              "name": "nonce",
              "type": "uint64"
            },
            {
              "internalType": "bytes",
              "name": "from",
              "type": "bytes"
            },
            {
              "internalType": "bytes",
              "name": "to",
              "type": "bytes"
            },
            {
              "internalType": "uint64",
              "name": "timeoutTimestamp",
              "type": "uint64"
            },
            {
              "internalType": "bytes",
              "name": "body",
              "type": "bytes"
            },
            {
              "internalType": "uint64",
              "name": "gaslimit",
              "type": "uint64"
            }
          ],
          "internalType": "struct PostRequest",
          "name": "request",
          "type": "tuple"
        }
      ],
      "name": "dispatch",
      "outputs": [
        {
          "internalType": "bytes32",
          "name": "",
          "type": "bytes32"
        }
      ],
      "stateMutability": "nonpayable",
      "type": "function"
    },
    {
      "inputs": [
        {
          "components": [
            {
              "internalType": "bytes",
              "name": "source",
              "type": "bytes"
            },
            {
              "internalType": "bytes",
              "name": "dest",
              "type": "bytes"
            },
            {
              "internalType": "uint64",
              "name": "nonce",
              "type": "uint64"
            },
            {
              "internalType": "bytes",
              "name": "from",
              "type": "bytes"
            },
            {
              "internalType": "uint64",
              "name": "timeoutTimestamp",
              "type": "uint64"
            },
            {
              "internalType": "bytes[]",
              "name": "keys",
              "type": "bytes[]"
            },
            {
              "internalType": "uint64",
              "name": "height",
              "type": "uint64"
            },
            {
              "internalType": "uint64",
              "name": "gaslimit",
              "type": "uint64"
            }
          ],
          "internalType": "struct GetRequest",
          "name": "request",
          "type": "tuple"
        }
      ],
      "name": "dispatch",
      "outputs": [
        {
          "internalType": "bytes32",
          "name": "",
          "type": "bytes32"
        }
      ],
      "stateMutability": "nonpayable",
      "type": "function"
    },
    {
      "inputs": [
        {
          "internalType": "uint256",
          "name": "_paraId",
          "type": "uint256"
        }
      ],
      "name": "dispatchToParachain",
      "outputs": [],
      "stateMutability": "nonpayable",
      "type": "function"
    },
    {
      "inputs": [
        {
          "components": [
            {
              "internalType": "bytes",
              "name": "source",
              "type": "bytes"
            },
            {
              "internalType": "bytes",
              "name": "dest",
              "type": "bytes"
            },
            {
              "internalType": "uint64",
              "name": "nonce",
              "type": "uint64"
            },
            {
              "internalType": "bytes",
              "name": "from",
              "type": "bytes"
            },
            {
              "internalType": "bytes",
              "name": "to",
              "type": "bytes"
            },
            {
              "internalType": "uint64",
              "name": "timeoutTimestamp",
              "type": "uint64"
            },
            {
              "internalType": "bytes",
              "name": "body",
              "type": "bytes"
            },
            {
              "internalType": "uint64",
              "name": "gaslimit",
              "type": "uint64"
            }
          ],
          "internalType": "struct PostRequest",
          "name": "request",
          "type": "tuple"
        }
      ],
      "name": "onAccept",
      "outputs": [],
      "stateMutability": "nonpayable",
      "type": "function"
    },
    {
      "inputs": [
        {
          "components": [
            {
              "components": [
                {
                  "internalType": "bytes",
                  "name": "source",
                  "type": "bytes"
                },
                {
                  "internalType": "bytes",
                  "name": "dest",
                  "type": "bytes"
                },
                {
                  "internalType": "uint64",
                  "name": "nonce",
                  "type": "uint64"
                },
                {
                  "internalType": "bytes",
                  "name": "from",
                  "type": "bytes"
                },
                {
                  "internalType": "uint64",
                  "name": "timeoutTimestamp",
                  "type": "uint64"
                },
                {
                  "internalType": "bytes[]",
                  "name": "keys",
                  "type": "bytes[]"
                },
                {
                  "internalType": "uint64",
                  "name": "height",
                  "type": "uint64"
                },
                {
                  "internalType": "uint64",
                  "name": "gaslimit",
                  "type": "uint64"
                }
              ],
              "internalType": "struct GetRequest",
              "name": "request",
              "type": "tuple"
            },
            {
              "components": [
                {
                  "internalType": "bytes",
                  "name": "key",
                  "type": "bytes"
                },
                {
                  "internalType": "bytes",
                  "name": "value",
                  "type": "bytes"
                }
              ],
              "internalType": "struct StorageValue[]",
              "name": "values",
              "type": "tuple[]"
            }
          ],
          "internalType": "struct GetResponse",
          "name": "response",
          "type": "tuple"
        }
      ],
      "name": "onGetResponse",
      "outputs": [],
      "stateMutability": "nonpayable",
      "type": "function"
    },
    {
      "inputs": [
        {
          "components": [
            {
              "internalType": "bytes",
              "name": "source",
              "type": "bytes"
            },
            {
              "internalType": "bytes",
              "name": "dest",
              "type": "bytes"
            },
            {
              "internalType": "uint64",
              "name": "nonce",
              "type": "uint64"
            },
            {
              "internalType": "bytes",
              "name": "from",
              "type": "bytes"
            },
            {
              "internalType": "uint64",
              "name": "timeoutTimestamp",
              "type": "uint64"
            },
            {
              "internalType": "bytes[]",
              "name": "keys",
              "type": "bytes[]"
            },
            {
              "internalType": "uint64",
              "name": "height",
              "type": "uint64"
            },
            {
              "internalType": "uint64",
              "name": "gaslimit",
              "type": "uint64"
            }
          ],
          "internalType": "struct GetRequest",
          "name": "request",
          "type": "tuple"
        }
      ],
      "name": "onGetTimeout",
      "outputs": [],
      "stateMutability": "nonpayable",
      "type": "function"
    },
    {
      "inputs": [
        {
          "components": [
            {
              "components": [
                {
                  "internalType": "bytes",
                  "name": "source",
                  "type": "bytes"
                },
                {
                  "internalType": "bytes",
                  "name": "dest",
                  "type": "bytes"
                },
                {
                  "internalType": "uint64",
                  "name": "nonce",
                  "type": "uint64"
                },
                {
                  "internalType": "bytes",
                  "name": "from",
                  "type": "bytes"
                },
                {
                  "internalType": "bytes",
                  "name": "to",
                  "type": "bytes"
                },
                {
                  "internalType": "uint64",
                  "name": "timeoutTimestamp",
                  "type": "uint64"
                },
                {
                  "internalType": "bytes",
                  "name": "body",
                  "type": "bytes"
                },
                {
                  "internalType": "uint64",
                  "name": "gaslimit",
                  "type": "uint64"
                }
              ],
              "internalType": "struct PostRequest",
              "name": "request",
              "type": "tuple"
            },
            {
              "internalType": "bytes",
              "name": "response",
              "type": "bytes"
            }
          ],
          "internalType": "struct PostResponse",
          "name": "response",
          "type": "tuple"
        }
      ],
      "name": "onPostResponse",
      "outputs": [],
      "stateMutability": "nonpayable",
      "type": "function"
    },
    {
      "inputs": [
        {
          "components": [
            {
              "internalType": "bytes",
              "name": "source",
              "type": "bytes"
            },
            {
              "internalType": "bytes",
              "name": "dest",
              "type": "bytes"
            },
            {
              "internalType": "uint64",
              "name": "nonce",
              "type": "uint64"
            },
            {
              "internalType": "bytes",
              "name": "from",
              "type": "bytes"
            },
            {
              "internalType": "bytes",
              "name": "to",
              "type": "bytes"
            },
            {
              "internalType": "uint64",
              "name": "timeoutTimestamp",
              "type": "uint64"
            },
            {
              "internalType": "bytes",
              "name": "body",
              "type": "bytes"
            },
            {
              "internalType": "uint64",
              "name": "gaslimit",
              "type": "uint64"
            }
          ],
          "internalType": "struct PostRequest",
          "name": "request",
          "type": "tuple"
        }
      ],
      "name": "onPostTimeout",
      "outputs": [],
      "stateMutability": "nonpayable",
      "type": "function"
    },
    {
      "inputs": [
        {
          "components": [
            {
              "internalType": "bytes",
              "name": "dest",
              "type": "bytes"
            },
            {
              "internalType": "address",
              "name": "module",
              "type": "address"
            }
          ],
          "internalType": "struct PingMessage",
          "name": "msg",
          "type": "tuple"
        }
      ],
      "name": "ping",
      "outputs": [],
      "stateMutability": "nonpayable",
      "type": "function"
    }
  ],
  "bytecode": {
    "object": "0x608060405234801561001057600080fd5b506040516113cf3803806113cf83398101604081905261002f91610054565b600080546001600160a01b0319166001600160a01b0392909216919091179055610084565b60006020828403121561006657600080fd5b81516001600160a01b038116811461007d57600080fd5b9392505050565b61133c806100936000396000f3fe608060405234801561001057600080fd5b50600436106100935760003560e01c8063c52c28af11610066578063c52c28af146100f8578063c715f52b1461010b578063d1ab46cf1461011e578063e23c69b114610131578063f370fdbb1461014457600080fd5b806331267dee146100985780634c46c035146100bd5780634e87ba19146100d257806372354e9b146100e5575b600080fd5b6100ab6100a6366004610a53565b610157565b60405190815260200160405180910390f35b6100d06100cb366004610c2e565b610217565b005b6100d06100e0366004610a53565b61026e565b6100d06100f3366004610c62565b6102d7565b6100d0610106366004610c7b565b61042b565b6100d0610119366004610a53565b610482565b6100ab61012c366004610c2e565b6104d9565b6100d061013f366004610d0b565b610563565b6100d0610152366004610d9b565b610698565b600080610163836106ef565b6040805160a0808201835260208088015183526080808901519184019190915260c088015183850152908701516001600160401b03908116606084015260e08801511690820152600054915163d25bcd3d60e01b8152929350916001600160a01b039091169063d25bcd3d906101dd908490600401610f48565b600060405180830381600087803b1580156101f757600080fd5b505af115801561020b573d6000803e3d6000fd5b50939695505050505050565b6000546001600160a01b03163314610242576040516351ab8de560e01b815260040160405180910390fd5b6040517f83e62025e4bc587516d0bc315e329eac0c66362854feb7cd4135ef8143ba15f990600090a150565b6000546001600160a01b03163314610299576040516351ab8de560e01b815260040160405180910390fd5b7ffb087b3ffbbb0fc922dccf872508671a7605859423eb90eb014c56fdba1484dc8160c001516040516102cc9190610fd0565b60405180910390a150565b6040805160a0810191829052632265539b60e11b90915260a481018290526000908073__$90334c6bf9c5e572543454910fcc219522$__6344caa73660c48301600060405180830381865af4158015610334573d6000803e3d6000fd5b505050506040513d6000823e601f3d908101601f1916820160405261035c9190810190610fea565b815260408051808201825260088152671a5cdb5c0b585cdd60c21b6020828101919091528084019190915281518083018352601381527268656c6c6f2066726f6d20657468657265756d60681b9181019190915281830152610e106060830152600060809092018290529054905163d25bcd3d60e01b81529192506001600160a01b03169063d25bcd3d906103f5908490600401610f48565b600060405180830381600087803b15801561040f57600080fd5b505af1158015610423573d6000803e3d6000fd5b505050505050565b6000546001600160a01b03163314610456576040516351ab8de560e01b815260040160405180910390fd5b6040517fd7dc99afb6c33039cea4505a9e2cab3471d359cebe021ec127dc94ddd359d3c590600090a150565b6000546001600160a01b031633146104ad576040516351ab8de560e01b815260040160405180910390fd5b6040517fc3998b1677e63c12e8bdc8daab3e836b037b3b28d05cd349066c2673e62f35d790600090a150565b6000806104e583610746565b6040805160a08082018352602080880151835260c08801516001600160401b039081169184019190915290870151828401526080808801518216606084015260e08801519091169082015260005491516367bd911f60e01b8152929350916001600160a01b03909116906367bd911f906101dd908490600401611060565b60006040518060a001604052808360000151815260200183602001516040516020016105a7919060609190911b6bffffffffffffffffffffffff1916815260140190565b604051602081830303815290604052815260200160008054906101000a90046001600160a01b03166001600160a01b031663f437bc596040518163ffffffff1660e01b81526004016000604051808303816000875af115801561060e573d6000803e3d6000fd5b505050506040513d6000823e601f3d908101601f191682016040526106369190810190610fea565b6040516020016106469190611123565b60408051601f19818403018152918152908252610e10602083015260009181018290529054905163d25bcd3d60e01b81529192506001600160a01b03169063d25bcd3d906103f5908490600401610f48565b6000546001600160a01b031633146106c3576040516351ab8de560e01b815260040160405180910390fd5b6040517fcbcbca664dfeb924ccd850a00868130bfb1df157099a06f9296822cb7bc3ad0190600090a150565b805160208083015160408085015160a08601516060870151608088015160c089015160e08a01519551600099610729999098979101611156565b604051602081830303815290604052805190602001209050919050565b6040805160208101909152600080825260a083015151909190825b818110156107bd57828560a001518281518110610780576107806111fe565b6020026020010151604051602001610799929190611214565b604051602081830303815290604052925080806107b590611243565b915050610761565b508360000151846020015185604001518660c0015187608001518860600151878a60e001516040516020016107f998979695949392919061126a565b6040516020818303038152906040528051906020012092505050919050565b634e487b7160e01b600052604160045260246000fd5b60405161010081016001600160401b038111828210171561085157610851610818565b60405290565b604080519081016001600160401b038111828210171561085157610851610818565b604051601f8201601f191681016001600160401b03811182821017156108a1576108a1610818565b604052919050565b60006001600160401b038211156108c2576108c2610818565b50601f01601f191660200190565b600082601f8301126108e157600080fd5b81356108f46108ef826108a9565b610879565b81815284602083860101111561090957600080fd5b816020850160208301376000918101602001919091529392505050565b80356001600160401b038116811461093d57600080fd5b919050565b6000610100828403121561095557600080fd5b61095d61082e565b905081356001600160401b038082111561097657600080fd5b610982858386016108d0565b8352602084013591508082111561099857600080fd5b6109a4858386016108d0565b60208401526109b560408501610926565b604084015260608401359150808211156109ce57600080fd5b6109da858386016108d0565b606084015260808401359150808211156109f357600080fd5b6109ff858386016108d0565b6080840152610a1060a08501610926565b60a084015260c0840135915080821115610a2957600080fd5b50610a36848285016108d0565b60c083015250610a4860e08301610926565b60e082015292915050565b600060208284031215610a6557600080fd5b81356001600160401b03811115610a7b57600080fd5b610a8784828501610942565b949350505050565b60006001600160401b03821115610aa857610aa8610818565b5060051b60200190565b600082601f830112610ac357600080fd5b81356020610ad36108ef83610a8f565b82815260059290921b84018101918181019086841115610af257600080fd5b8286015b84811015610b315780356001600160401b03811115610b155760008081fd5b610b238986838b01016108d0565b845250918301918301610af6565b509695505050505050565b60006101008284031215610b4f57600080fd5b610b5761082e565b905081356001600160401b0380821115610b7057600080fd5b610b7c858386016108d0565b83526020840135915080821115610b9257600080fd5b610b9e858386016108d0565b6020840152610baf60408501610926565b60408401526060840135915080821115610bc857600080fd5b610bd4858386016108d0565b6060840152610be560808501610926565b608084015260a0840135915080821115610bfe57600080fd5b50610c0b84828501610ab2565b60a083015250610c1d60c08301610926565b60c0820152610a4860e08301610926565b600060208284031215610c4057600080fd5b81356001600160401b03811115610c5657600080fd5b610a8784828501610b3c565b600060208284031215610c7457600080fd5b5035919050565b600060208284031215610c8d57600080fd5b81356001600160401b0380821115610ca457600080fd5b9083019060408286031215610cb857600080fd5b610cc0610857565b823582811115610ccf57600080fd5b610cdb87828601610942565b825250602083013582811115610cf057600080fd5b610cfc878286016108d0565b60208301525095945050505050565b600060208284031215610d1d57600080fd5b81356001600160401b0380821115610d3457600080fd5b9083019060408286031215610d4857600080fd5b610d50610857565b823582811115610d5f57600080fd5b610d6b878286016108d0565b82525060209290920135916001600160a01b0383168314610d8b57600080fd5b6020810192909252509392505050565b60006020808385031215610dae57600080fd5b82356001600160401b0380821115610dc557600080fd5b81850191506040808388031215610ddb57600080fd5b610de3610857565b833583811115610df257600080fd5b610dfe89828701610b3c565b8252508484013583811115610e1257600080fd5b80850194505087601f850112610e2757600080fd5b8335610e356108ef82610a8f565b81815260059190911b8501860190868101908a831115610e5457600080fd5b8787015b83811015610ee457803587811115610e705760008081fd5b8801808d03601f1901871315610e865760008081fd5b610e8e610857565b8a82013589811115610ea05760008081fd5b610eae8f8d838601016108d0565b8252508782013589811115610ec35760008081fd5b610ed18f8d838601016108d0565b828d015250845250918801918801610e58565b509683019690965250979650505050505050565b60005b83811015610f13578181015183820152602001610efb565b50506000910152565b60008151808452610f34816020860160208601610ef8565b601f01601f19169290920160200192915050565b602081526000825160a06020840152610f6460c0840182610f1c565b90506020840151601f1980858403016040860152610f828383610f1c565b9250604086015191508085840301606086015250610fa08282610f1c565b91505060608401516001600160401b0380821660808601528060808701511660a086015250508091505092915050565b602081526000610fe36020830184610f1c565b9392505050565b600060208284031215610ffc57600080fd5b81516001600160401b0381111561101257600080fd5b8201601f8101841361102357600080fd5b80516110316108ef826108a9565b81815285602083850101111561104657600080fd5b611057826020830160208601610ef8565b95945050505050565b60006020808352835160a08285015261107c60c0850182610f1c565b90506001600160401b03828601511660408501526040850151601f19808684030160608701528282518085528585019150858160051b860101868501945060005b828110156110e957848783030184526110d7828751610f1c565b958801959388019391506001016110bd565b5060608a01516001600160401b03811660808b0152965060808a01516001600160401b03811660a08b015296509998505050505050505050565b6a03432b6363790333937b6960ad1b81526000825161114981600b850160208701610ef8565b91909101600b0192915050565b60008951611168818460208e01610ef8565b89519083019061117c818360208e01610ef8565b60c08a811b6001600160c01b03199081169390920192835289901b8116600883015287516111b1816010850160208c01610ef8565b87519201916111c7816010850160208b01610ef8565b86519201916111dd816010850160208a01610ef8565b60c09590951b16930160108101939093525050601801979650505050505050565b634e487b7160e01b600052603260045260246000fd5b60008351611226818460208801610ef8565b83519083019061123a818360208801610ef8565b01949350505050565b60006001820161126357634e487b7160e01b600052601160045260246000fd5b5060010190565b6000895161127c818460208e01610ef8565b895190830190611290818360208e01610ef8565b60c08a811b6001600160c01b03199081169390920192835289811b8216600884015288901b8116601083015286516112cf816018850160208b01610ef8565b86519201916112e5816018850160208a01610ef8565b60c09590951b1693016018810193909352505060200197965050505050505056fea26469706673582212209155f5b5c3624b945192f2cc850f39968358384e71a4fbb1528e6d9a7cdc657e64736f6c63430008110033",
    "linkReferences": {
      "src/interfaces/StateMachine.sol": {
        "StateMachine": [
          {
            "start": 910,
            "length": 20
          }
        ]
      }
    }
  },
  "methodIdentifiers": {
    "dispatch((bytes,bytes,uint64,bytes,bytes,uint64,bytes,uint64))": "31267dee",
    "dispatch((bytes,bytes,uint64,bytes,uint64,bytes[],uint64,uint64))": "d1ab46cf",
    "dispatchToParachain(uint256)": "72354e9b",
    "onAccept((bytes,bytes,uint64,bytes,bytes,uint64,bytes,uint64))": "4e87ba19",
    "onGetResponse(((bytes,bytes,uint64,bytes,uint64,bytes[],uint64,uint64),(bytes,bytes)[]))": "f370fdbb",
    "onGetTimeout((bytes,bytes,uint64,bytes,uint64,bytes[],uint64,uint64))": "4c46c035",
    "onPostResponse(((bytes,bytes,uint64,bytes,bytes,uint64,bytes,uint64),bytes))": "c52c28af",
    "onPostTimeout((bytes,bytes,uint64,bytes,bytes,uint64,bytes,uint64))": "c715f52b",
    "ping((bytes,address))": "e23c69b1"
  },
  "id": 54
}