{"abi":[{"type":"function","name":"MMR_ROOT_PAYLOAD_ID","inputs":[],"outputs":[{"name":"","type":"bytes2","internalType":"bytes2"}],"stateMutability":"view"},{"type":"function","name":"noOp","inputs":[{"name":"s","type":"tuple","internalType":"struct BeefyConsensusState","components":[{"name":"latestHeight","type":"uint256","internalType":"uint256"},{"name":"beefyActivationBlock","type":"uint256","internalType":"uint256"},{"name":"currentAuthoritySet","type":"tuple","internalType":"struct AuthoritySetCommitment","components":[{"name":"id","type":"uint64","internalType":"uint64"},{"name":"len","type":"uint32","internalType":"uint32"},{"name":"root","type":"bytes32","internalType":"bytes32"}]},{"name":"nextAuthoritySet","type":"tuple","internalType":"struct AuthoritySetCommitment","components":[{"name":"id","type":"uint64","internalType":"uint64"},{"name":"len","type":"uint32","internalType":"uint32"},{"name":"root","type":"bytes32","internalType":"bytes32"}]}]},{"name":"p","type":"tuple","internalType":"struct BeefyConsensusProof","components":[{"name":"relay","type":"tuple","internalType":"struct RelayChainProof","components":[{"name":"signedCommitment","type":"tuple","internalType":"struct SignedCommitment","components":[{"name":"commitment","type":"tuple","internalType":"struct Commitment","components":[{"name":"payload","type":"tuple[]","internalType":"struct Payload[]","components":[{"name":"id","type":"bytes2","internalType":"bytes2"},{"name":"data","type":"bytes","internalType":"bytes"}]},{"name":"blockNumber","type":"uint32","internalType":"uint32"},{"name":"validatorSetId","type":"uint64","internalType":"uint64"}]},{"name":"votes","type":"tuple[]","internalType":"struct Vote[]","components":[{"name":"signature","type":"bytes","internalType":"bytes"},{"name":"authorityIndex","type":"uint256","internalType":"uint256"}]}]},{"name":"latestMmrLeaf","type":"tuple","internalType":"struct BeefyMmrLeaf","components":[{"name":"version","type":"uint8","internalType":"uint8"},{"name":"parentNumber","type":"uint32","internalType":"uint32"},{"name":"parentHash","type":"bytes32","internalType":"bytes32"},{"name":"nextAuthoritySet","type":"tuple","internalType":"struct AuthoritySetCommitment","components":[{"name":"id","type":"uint64","internalType":"uint64"},{"name":"len","type":"uint32","internalType":"uint32"},{"name":"root","type":"bytes32","internalType":"bytes32"}]},{"name":"extra","type":"bytes32","internalType":"bytes32"},{"name":"leafIndex","type":"uint256","internalType":"uint256"}]},{"name":"mmrProof","type":"bytes32[]","internalType":"bytes32[]"},{"name":"proof","type":"bytes32[]","internalType":"bytes32[]"}]},{"name":"parachain","type":"tuple","internalType":"struct ParachainProof","components":[{"name":"parachains","type":"tuple[]","internalType":"struct Parachain[]","components":[{"name":"index","type":"uint256","internalType":"uint256"},{"name":"id","type":"uint256","internalType":"uint256"},{"name":"header","type":"bytes","internalType":"bytes"}]},{"name":"proof","type":"bytes32[]","internalType":"bytes32[]"},{"name":"leafCount","type":"uint256","internalType":"uint256"}]}]}],"outputs":[],"stateMutability":"pure"},{"type":"function","name":"supportsInterface","inputs":[{"name":"interfaceId","type":"bytes4","internalType":"bytes4"}],"outputs":[{"name":"","type":"bool","internalType":"bool"}],"stateMutability":"view"},{"type":"function","name":"verify","inputs":[{"name":"previousState","type":"bytes","internalType":"bytes"},{"name":"proof","type":"bytes","internalType":"bytes"}],"outputs":[{"name":"","type":"bytes","internalType":"bytes"},{"name":"","type":"tuple[]","internalType":"struct IntermediateState[]","components":[{"name":"stateMachineId","type":"uint256","internalType":"uint256"},{"name":"height","type":"uint256","internalType":"uint256"},{"name":"commitment","type":"tuple","internalType":"struct StateCommitment","components":[{"name":"timestamp","type":"uint256","internalType":"uint256"},{"name":"overlayRoot","type":"bytes32","internalType":"bytes32"},{"name":"stateRoot","type":"bytes32","internalType":"bytes32"}]}]},{"name":"","type":"uint256","internalType":"uint256"}],"stateMutability":"pure"},{"type":"function","name":"verifyConsensus","inputs":[{"name":"encodedState","type":"bytes","internalType":"bytes"},{"name":"encodedProof","type":"bytes","internalType":"bytes"}],"outputs":[{"name":"","type":"bytes","internalType":"bytes"},{"name":"","type":"tuple[]","internalType":"struct IntermediateState[]","components":[{"name":"stateMachineId","type":"uint256","internalType":"uint256"},{"name":"height","type":"uint256","internalType":"uint256"},{"name":"commitment","type":"tuple","internalType":"struct StateCommitment","components":[{"name":"timestamp","type":"uint256","internalType":"uint256"},{"name":"overlayRoot","type":"bytes32","internalType":"bytes32"},{"name":"stateRoot","type":"bytes32","internalType":"bytes32"}]}]}],"stateMutability":"pure"},{"type":"error","name":"ECDSAInvalidSignature","inputs":[]},{"type":"error","name":"ECDSAInvalidSignatureLength","inputs":[{"name":"length","type":"uint256","internalType":"uint256"}]},{"type":"error","name":"ECDSAInvalidSignatureS","inputs":[{"name":"s","type":"bytes32","internalType":"bytes32"}]},{"type":"error","name":"EmptyLeaves","inputs":[]},{"type":"error","name":"EmptyTree","inputs":[]},{"type":"error","name":"EmptyTree","inputs":[]},{"type":"error","name":"IllegalGenesisBlock","inputs":[]},{"type":"error","name":"InvalidAuthoritiesProof","inputs":[]},{"type":"error","name":"InvalidMmrProof","inputs":[]},{"type":"error","name":"LeafIndexOutOfBounds","inputs":[]},{"type":"error","name":"MmrRootHashMissing","inputs":[]},{"type":"error","name":"OutOfBoundsLeaves","inputs":[]},{"type":"error","name":"ProofExhausted","inputs":[]},{"type":"error","name":"SuperMajorityRequired","inputs":[]},{"type":"error","name":"TimestampNotFound","inputs":[]},{"type":"error","name":"UnconsumedProof","inputs":[]},{"type":"error","name":"UnknownAuthoritySet","inputs":[]},{"type":"error","name":"UnsortedLeaves","inputs":[]},{"type":"error","name":"UnsortedLeaves","inputs":[]}],"bytecode":{"object":"0x60808060405234601557613455908161001a8239f35b5f80fdfe60806040526004361015610011575f80fd5b5f3560e01c806301ffc9a7146100645780637163f3121461005f5780637d7555981461005a578063af8b91d6146100555763f7e83aee14610050575f80fd5b610aac565b610a31565b610926565b6107e5565b346100d45760203660031901126100d45760043563ffffffff60e01b81168091036100d457630faeaab360e31b81149081156100c3575b81156100b2575b501515608052607f1960a0016080f35b6301ffc9a760e01b149050816100a2565b637bf41d7760e11b8114915061009b565b5f80fd5b634e487b7160e01b5f52604160045260245ffd5b606081019081106001600160401b0382111761010757604052565b6100d8565b608081019081106001600160401b0382111761010757604052565b604081019081106001600160401b0382111761010757604052565b60c081019081106001600160401b0382111761010757604052565b90601f801991011681019081106001600160401b0382111761010757604052565b6040519061018d60808361015d565b565b6040519061018d60408361015d565b6040519061018d60608361015d565b6040519061018d60a08361015d565b6001600160401b038116036100d457565b359061018d826101bc565b63ffffffff8116036100d457565b359061018d826101d8565b91908260609103126100d457604051610209816100ec565b60408082948035610219816101bc565b84526020810135610229816101d8565b60208501520135910152565b906101006003198301126100d45760405161024f8161010c565b606061027a82946004358452602435602085015261026e8160446101f1565b604085015260a46101f1565b910152565b9190610100838203126100d457606061027a6040519261029e8461010c565b60a0849680358652602081013560208701526102bd83604083016101f1565b6040870152016101f1565b6001600160401b0381116101075760051b60200190565b6001600160f01b03198116036100d457565b6001600160401b03811161010757601f01601f191660200190565b81601f820112156100d457803590610323826102f1565b92610331604051948561015d565b828452602083830101116100d457815f926020809301838601378301015290565b81601f820112156100d457803590610369826102c8565b92610377604051948561015d565b82845260208085019360051b830101918183116100d45760208101935b8385106103a357505050505090565b84356001600160401b0381116100d45782016040818503601f1901126100d457604051916103d083610127565b6020820135926001600160401b0384116100d4576040836103f888602080988198010161030c565b8352013583820152815201940193610394565b91906040838203126100d4576040519061042482610127565b819380356001600160401b0381116100d45781016060818403126100d4576040519061044f826100ec565b80356001600160401b0381116100d457810184601f820112156100d457803590610478826102c8565b91610486604051938461015d565b80835260208084019160051b830101918783116100d45760208101915b8383106104f657505050506104ce9160409184526104c3602082016101e6565b6020850152016101cd565b604082015283526020810135916001600160401b0383116100d45760209261027a9201610352565b82356001600160401b0381116100d4578201906040828b03601f1901126100d4576040519061052482610127565b6020830135610532816102df565b82526040830135916001600160401b0383116100d45761055a8c60208096958196010161030c565b838201528152019201916104a3565b60ff8116036100d457565b919091610100818403126100d45760a060e06040519261059384610142565b6105cb849682356105a381610569565b865260208301356105b3816101d8565b602087015260408301356040870152606083016101f1565b606085015260c081013560808501520135910152565b9080601f830112156100d45781356105f8816102c8565b92610606604051948561015d565b81845260208085019260051b8201019283116100d457602001905b82821061062e5750505090565b8135815260209182019101610621565b919091610160818403126100d45761065461017e565b9281356001600160401b0381116100d4578161067191840161040b565b84526106808160208401610574565b60208501526101208201356001600160401b0381116100d457816106a59184016105e1565b60408501526101408201356001600160401b0381116100d4576106c892016105e1565b6060830152565b9190916060818403126100d457604051906106e9826100ec565b819381356001600160401b0381116100d457820181601f820112156100d457803590610714826102c8565b91610722604051938461015d565b80835260208084019160051b830101918483116100d45760208101915b838310610770575050505083526020820135916001600160401b0383116100d45761022960409392849383016105e1565b82356001600160401b0381116100d4578201906060828803601f1901126100d4576040519061079e826100ec565b60208301358252604083013560208301526060830135916001600160401b0383116100d4576107d58960208096958196010161030c565b604082015281520192019161073f565b346100d4576101203660031901126100d45761080036610235565b50610104356001600160401b0381116100d457604060031982360301126100d4576040519061082e82610127565b80600401356001600160401b0381116100d457610851906004369184010161063e565b825260248101356001600160401b0381116100d457602091600461087892369201016106cf565b910152005b805180835260209291819084018484015e5f828201840152601f01601f1916010190565b90602080835192838152019201905f5b8181106108be5750505090565b909192602060a0600192604080885180518452858101518685015201518051828401528481015160608401520151608082015201940191019190916108b1565b90916109156109239360408452604084019061087d565b9160208184039101526108a1565b90565b346100d45760403660031901126100d4576004356001600160401b0381116100d45761095690369060040161030c565b6024356001600160401b0381116100d45761097590369060040161030c565b815182019061010083602084019303126100d457610a1e926109e76109ff926109d3610a109560c0604051956109aa8761010c565b60208101518752604081015160208801526109c88360608301610bcf565b604088015201610bcf565b606084015260208082518301019101611050565b6109f292919261018f565b92835260208301526112a3565b92906040519283916020830161111c565b03601f19810183528261015d565b610a2d604051928392836108fe565b0390f35b346100d4575f3660031901126100d457604051610dad60f31b8152602090f35b9181601f840112156100d4578235916001600160401b0383116100d457602083818601950101116100d457565b939291610aa790610a9960409360608852606088019061087d565b9086820360208801526108a1565b930152565b346100d45760403660031901126100d4576004356001600160401b0381116100d457610adc903690600401610a51565b6024356001600160401b0381116100d457610afb903690600401610a51565b9290918101610100828203126100d457610b149161027f565b918101916040828403126100d45781356001600160401b0381116100d45783610b3e91840161063e565b916020810135936001600160401b0385116100d457610b6994610b6192016106cf565b6109f261018f565b90610a2d6001600160401b03610bac606060405194610b9d86610b8f836020830161111c565b03601f19810188528761015d565b0151516001600160401b031690565b1660405193849384610a7e565b519061018d826101bc565b519061018d826101d8565b91908260609103126100d457604051610be7816100ec565b60408082948051610bf7816101bc565b84526020810151610c07816101d8565b60208501520151910152565b81601f820112156100d457805190610c2a826102f1565b92610c38604051948561015d565b828452602083830101116100d457815f9260208093018386015e8301015290565b81601f820112156100d457805190610c70826102c8565b92610c7e604051948561015d565b82845260208085019360051b830101918183116100d45760208101935b838510610caa57505050505090565b84516001600160401b0381116100d45782016040818503601f1901126100d45760405191610cd783610127565b6020820151926001600160401b0384116100d457604083610cff886020809881980101610c13565b8352015183820152815201940193610c9b565b91906040838203126100d45760405190610d2b82610127565b819380516001600160401b0381116100d45781016060818403126100d45760405190610d56826100ec565b80516001600160401b0381116100d457810184601f820112156100d457805190610d7f826102c8565b91610d8d604051938461015d565b80835260208084019160051b830101918783116100d45760208101915b838310610dfd5750505050610dd5916040918452610dca60208201610bc4565b602085015201610bb9565b604082015283526020810151916001600160401b0383116100d45760209261027a9201610c59565b82516001600160401b0381116100d4578201906040828b03601f1901126100d45760405190610e2b82610127565b6020830151610e39816102df565b82526040830151916001600160401b0383116100d457610e618c602080969581960101610c13565b83820152815201920191610daa565b919091610100818403126100d45760a060e060405192610e8f84610142565b610ec784968251610e9f81610569565b86526020830151610eaf816101d8565b60208701526040830151604087015260608301610bcf565b606085015260c081015160808501520151910152565b9080601f830112156100d4578151610ef4816102c8565b92610f02604051948561015d565b81845260208085019260051b8201019283116100d457602001905b828210610f2a5750505090565b8151815260209182019101610f1d565b9190916060818403126100d45760405190610f54826100ec565b819381516001600160401b0381116100d457820181601f820112156100d457805190610f7f826102c8565b91610f8d604051938461015d565b80835260208084019160051b830101918483116100d45760208101915b838310610fdb575050505083526020820151916001600160401b0383116100d457610c076040939284938301610edd565b82516001600160401b0381116100d4578201906060828803601f1901126100d45760405190611009826100ec565b60208301518252604083015160208301526060830151916001600160401b0383116100d45761104089602080969581960101610c13565b6040820152815201920191610faa565b9190916040818403126100d45780516001600160401b0381116100d4578101610160818503126100d45761108261017e565b9080516001600160401b0381116100d4578561109f918301610d12565b82526110ae8560208301610e70565b60208301526101208101516001600160401b0381116100d457856110d3918301610edd565b6040830152610140810151906001600160401b0382116100d4576110f991869101610edd565b60608201529260208201516001600160401b0381116100d4576109239201610f3a565b61018d9092919260a06060610100830195805184526020810151602085015261117060408201516040860190604080916001600160401b03815116845263ffffffff60208201511660208501520151910152565b0151910190604080916001600160401b03815116845263ffffffff60208201511660208501520151910152565b604051906111aa826100ec565b5f6040838281528260208201520152565b604051906111c88261010c565b815f81525f60208201526111da61119d565b6040820152606061027a61119d565b604051906111f860208361015d565b5f80835282815b82811061120b57505050565b60209060405161121a816100ec565b5f81525f8382015261122a61119d565b6040820152828285010152016111ff565b90611245826102c8565b611252604051918261015d565b8281528092611263601f19916102c8565b01905f5b82811061127357505050565b602090604051611282816100ec565b5f81525f8382015261129261119d565b604082015282828501015201611267565b91906112ad6111bb565b50825163ffffffff6020835151510151161115611604578051906112cf6111bb565b508151916020830151519251906112fa6112f16020840163ffffffff90511690565b63ffffffff1690565b93604083019061131182516001600160401b031690565b9160408901926001600160401b0361134161133586516001600160401b0390511690565b6001600160401b031690565b91169081141590816115e1575b506115d257516001600160401b03168251906001600160401b0361137c61133584516001600160401b031690565b9116036115c657905b60208201916113ab6113a76113a16112f1865163ffffffff1690565b846118b4565b1590565b6115b757855151955f965f5b8181106115335750508615611524576113cf906119c3565b60208151910120916113e08161165f565b925f5b8281106114a5575050506040015160608501519251611416936113a793916114109063ffffffff166112f1565b92611b18565b611496576109239460208361142f82966080968c611c30565b01916114486060845101516001600160401b0390511690565b60608a01918251916001600160401b0361146c61133585516001600160401b031690565b911611611485575b5050508752510151910151906116f8565b5260608351015190525f8080611474565b63528bd3ef60e01b5f5260045ffd5b806114b760019260208b510151611633565b5160206114c5825186611b02565b910151906040516114f581610a106020820194856014916bffffffffffffffffffffffff199060601b1681520190565b51902061150061018f565b91825260208201526115128288611633565b5261151d8187611633565b50016113e3565b6323188e3960e21b5f5260045ffd5b610dad60f31b61156661155961154a848751611633565b51516001600160f01b03191690565b6001600160f01b03191690565b148061159e575b61157a575b6001016113b7565b97506001611596602061158e8b8651611633565b5101516118dd565b989050611572565b506020806115ad838651611633565b510151511461156d565b633aa90f7f60e21b5f5260045ffd5b50606088015190611385565b637202e68560e11b5f5260045ffd5b90506115fc61133560608c01516001600160401b0390511690565b14155f61134e565b506109236111e9565b634e487b7160e01b5f52603260045260245ffd5b80511561162e5760200190565b61160d565b805182101561162e5760209160051b010190565b6040519061165482610127565b5f6020838281520152565b90611669826102c8565b611676604051918261015d565b8281528092611687601f19916102c8565b01905f5b82811061169757505050565b6020906116a2611647565b8282850101520161168b565b805191908290602001825e015f815290565b6040516001600160e01b03199091166020820152919061018d9083906116ea9060248301906116ae565b03601f19810184528361015d565b815151916117058361165f565b9161170f8461123b565b935f5b8181106117585750611725575b50505090565b61173d9282604060206113a795015191015192611b18565b611749575f808061171f565b630b92186960e31b5f5260045ffd5b611763818551611633565b519060408201916117748351611e25565b92602084019182511561185557600194816117ee602061182094519201946117e86117e16117a6885163ffffffff1690565b6001600160e01b03199063ff00ff00600882811b9190911691901c62ff00ff1617601081811b63ffff00001691901c61ffff161760e01b1690565b9151611f71565b906116c0565b602081519101206117fd61018f565b918252602082015261180f868c611633565b5261181a858b611633565b50611f96565b9051915161182c61019e565b928352602083015260408201526118438289611633565b5261184e8188611633565b5001611712565b63b4eb9e5160e01b5f5260045ffd5b634e487b7160e01b5f52601160045260245ffd5b906001820180921161188657565b611864565b906003820180921161188657565b906002820180921161188657565b9190820180921161188657565b906001600160ff1b03811681036118865760039060011b04906001820180921161188657101590565b60208151106118ed576020015190565b60405162461bcd60e51b8152602060048201526024808201527f42797465733a3a20746f427974657333323a206461746120697320746f20736860448201526337b93a1760e11b6064820152608490fd5b6040519061194d60208361015d565b5f8252565b6116ea611971949361197161018d9460405197889560208701906116ae565b906116ae565b61018d926119719594611996600c9460405198899560208701906116ae565b6001600160e01b03199290921682526001600160c01b03191660048201520360131981018552018361015d565b908151516119cf61193e565b905f5b818110611aa45750926119e86109239394612156565b91611a9e611a146040611a056117a6602087015163ffffffff1690565b9401516001600160401b031690565b67ffffffffffff000067ff00ff00ff00ff0066ff00ff00ff00ff8360081c169260081b169165ffff0000ffff65ffff0000ff0065ffffffffffff67ffff0000ffff0000861666ff0000ffff000085161760101c16941691161760101b161767ffffffff0000000063ffffffff8260201c169160201b166001600160401b0360c01b911760c01b1690565b92611977565b91611afb600191610a10611add611abf61154a888b51611633565b6040516001600160f01b031990911660208201529182906022820190565b611af56020611aed888b51611633565b510151611f71565b91611952565b92016119d2565b61092391611b0f916122d3565b9092919261232b565b919392908115611be1578451611b2d816123a7565b611b36826123a7565b916001611b4286612c4e565b1b5f805b838210611b615750505050611b5d94959650612c7e565b1490565b611b6b828c611633565b51519088821015611bd2578215159081611bc7575b50611bb8576001906020611b94848e611633565b510151611ba18489611633565b52808401611baf8488611633565b52910190611b46565b630647f54960e21b5f5260045ffd5b90508111155f611b80565b630834466160e31b5f5260045ffd5b639136328760e01b5f5260045ffd5b60408051909190611c01838261015d565b6001815291601f1901825f5b828110611c1957505050565b602090611c24611647565b82828501015201611c0d565b6113a791611d139360406020830192611cd7611cd26020611cae8751611c57815160ff1690565b90611c688482015163ffffffff1690565b9088810151611c9b6080606084015193015193611c8f611c866101ad565b60ff9097168752565b63ffffffff1685880152565b8984015260608301526080820152612450565b805190820120970151865160200151611ccc9063ffffffff166112f1565b90612544565b611878565b9460a0611ce2611bf0565b9551015190611cef61018f565b9182526020820152611d0085611621565b52611d0a84611621565b50015190612559565b61174957565b6040519060a082018281106001600160401b038211176101075760405260606080835f81525f60208201525f60408201525f838201520152565b60405190611d6082610127565b60606020835f81520152565b6040519061012082018281106001600160401b03821117610107576040525f61010083828152611d9a611d53565b6020820152826040820152611dad611d53565b6060820152826080820152611dc0611d53565b60a08201528260c0820152606060e08201520152565b90611de0826102c8565b611ded604051918261015d565b8281528092611dfe601f19916102c8565b01905f5b828110611e0e57505050565b602090611e19611d6c565b82828501015201611e02565b611e2d611d19565b50611e3661018f565b9081525f6020820152611e50611e4b82612565565b6118dd565b90611e5a816126a4565b611e66611e4b83612565565b611e72611e4b84612565565b91611e7c846126a4565b611e8581611dd6565b945f5b828110611eb457505050611e9a6101ad565b948552602085015260408401526060830152608082015290565b600190611ec083612817565b60ff611eca611d6c565b911680611ef65750600160c08201525b611ee4828a611633565b52611eef8189611633565b5001611e88565b60048103611f1a575060016040820152611f0f84612891565b60608201525b611eda565b60058103611f3d575060016080820152611f3384612891565b60a0820152611eda565b60068103611f5d575060018152611f5384612891565b6020820152611eda565b600803611f15576001610100820152611eda565b61092361197191610a10611f858251612156565b9160405194859360208501906116ae565b611f9e61119d565b505f5f925f5f5b60808501805180518310156120cf576040611fc384611fcb93611633565b510151151590565b806120a7575b61205e575b611fe66040611fc3848451611633565b80612025575b611ffa575b50600101611fa5565b81925061201d6020606061201360809560019551611633565b51015101516129e7565b929150611ff1565b50634953544d60e01b63ffffffff60e01b6120576060612046868651611633565b510151516001600160e01b03191690565b1614611fec565b95509250612081611e4b60206060612077878a51611633565b510151015161296d565b926120a1611e4b60206060612097858b51611633565b51015101516129ae565b95611fd6565b5063049534d560e41b63ffffffff60e01b6120c86060612046868651611633565b1614611fd1565b5050509250929082156120f4576120e461019e565b9283526020830152604082015290565b633eba99d160e21b5f5260045ffd5b60031981019190821161188657565b5f1981019190821161188657565b602003906020821161188657565b9190820391821161188657565b600190610923939260ff60f81b9060f81b16815201906116ae565b604081101561219a57610923612178612172610a109360021b90565b60ff1690565b60405160f89190911b6001600160f81b03191660208201529182906021820190565b6140008110156121f9576109236121d76121c46121bd611cd2610a109560021b90565b61ffff1690565b60ff61ff008260081b169160081c161790565b60405160f09190911b6001600160f01b03191660208201529182906022820190565b6340000000811015612276576109236122546122236112f161221e610a109560021b90565b611899565b63ffffff0062ff00ff62ffffff818460081c1616921660081b161763ffff000061ffff8260101c169160101b161790565b60405160e09190911b6001600160e01b03191660208201529182906024820190565b610a1061229b6122886122a093612a5f565b6040519283916020830160209181520190565b612b78565b6109236122c16121726122bc6122b68551612103565b60021b90565b61188b565b610a106040519384926020840161213b565b8151919060418303612303576122fc9250602082015190606060408401519301515f1a90612bc1565b9192909190565b50505f9160029190565b6004111561231757565b634e487b7160e01b5f52602160045260245ffd5b6123348161230d565b8061233d575050565b6123468161230d565b6001810361235d5763f645eedf60e01b5f5260045ffd5b6123668161230d565b60028103612381575063fce698f760e01b5f5260045260245ffd5b8061238d60039261230d565b146123955750565b6335e2f38360e21b5f5260045260245ffd5b906123b1826102c8565b6123be604051918261015d565b82815280926123cf601f19916102c8565b0190602036910137565b9492919695939096604051978896602088016123f4916116ae565b9063ffffffff60e01b16815260040161240c916116ae565b916001600160401b0360c01b16825263ffffffff60e01b166008820152600c01612435916116ae565b61243e916116ae565b03601f198101835261018d908361015d565b61253161250e6116ea6109239361248d61246b825160ff1690565b60405160f89190911b6001600160f81b03191660208201529283906021820190565b6116ea6124a46117a6602084015163ffffffff1690565b6124bf60408401516040519384916020830160209181520190565b60608301519361253f60806124de611a1488516001600160401b031690565b9561251c60406124f86117a660208c015163ffffffff1690565b9901516040519a8b916020830160209181520190565b03601f1981018b528a61015d565b01516040519889916020830160209181520190565b03601f19810189528861015d565b6123d9565b8061254d575090565b81039081116118865790565b929091611b5d92612df3565b602081019081516020810180911161188657815151106100d45760209051818351820101918291011161188657602061259d9161302b565b9080519060208201809211611886575290565b906020820191825182810180911161188657815151106100d45781156125fe5760209051818451820101918291011161188657816125ed9161302b565b918051918201809211611886575290565b50505060405161260f60208261015d565b5f815290565b60ff60049116019060ff821161188657565b1561262e57565b60405162461bcd60e51b815260206004820152602860248201527f756e657870656374656420707265666978206465636f64696e6720436f6d706160448201526731ba1e2ab4b73a1f60c11b6064820152608490fd5b906001600160401b03809116911601906001600160401b03821161188657565b6126ad81612817565b60038116806126c75750610923915060021c603f16612172565b6001810361270c5750611335906127066121726126fc6126ec61217261092397612817565b60061b67ffffffffffffffc01690565b9260021c603f1690565b90612684565b6002810361278257506112f19061277560ff846127668261272f61092398612817565b95816127558161274761274188612817565b97612817565b991660081b63ffffff001690565b911617921660101b63ffff00001690565b17921660181b63ff0000001690565b1760021c633fffffff1690565b6003036127c1576109239160ff6127a86127a36127bc94603f9060021c1690565b612615565b16906127b76008831115612627565b6125b0565b6129e7565b60405162461bcd60e51b815260206004820152601a60248201527f436f64652073686f756c6420626520756e726561636861626c650000000000006044820152606490fd5b90815181101561162e570160200190565b6020810190815160018101809111611886578151511061285d575181516001600160f81b0319916128489190612806565b511660f81c906128588151611878565b905290565b60405162461bcd60e51b815260206004820152600c60248201526b4f7574206f662072616e676560a01b6044820152606490fd5b612899611d53565b50602081019081516004810180911161188657815151106100d4576020815181845182010191829101116118865760046128d29161302b565b918051906004820180921161188657525f915f905b60048210612927575050806128fe612904926126a4565b906125b0565b61291f61290f61018f565b6001600160e01b03199093168352565b602082015290565b90926001600160f81b031961293c8584612806565b5116908460031b9185830460081486151715611886576001926001600160e01b0319918216901c16179301906128e7565b80516020116100d457602080610923920161302b565b90815181116100d457801561299e576020610923920161302b565b505060405161260f60208261015d565b8051806020116100d457601f1981019081116118865760408201916020018210611886576109239161302b565b8015611886575f190190565b80515f91815b6129f657505090565b90915f1983019083821161188657612a0e8284612806565b5160f81c91600381901b906001600160fd1b038116036118865760ff8111611886576001901b9182810292818404149015171561188657612a5891612a52916118a7565b926129db565b90816129ed565b8060081c9060081b907cff000000ff000000ff000000ff000000ff000000ff000000ff000000ff7dff000000ff000000ff000000ff000000ff000000ff000000ff000000ff007fff000000ff000000ff000000ff000000ff000000ff000000ff000000ff00000084167eff000000ff000000ff000000ff000000ff000000ff000000ff000000ff000084161760101c931691161760101b177bffffffff00000000ffffffff00000000ffffffff00000000ffffffff7fffffffff00000000ffffffff00000000ffffffff00000000ffffffff00000000821660201c911660201b1777ffffffffffffffff0000000000000000ffffffffffffffff8019821660401c911660401b17612b748160801c9160801b90565b1790565b80515f198101908111611886575b6001600160f81b0319612b998284612806565b5116612bad57612ba8906129db565b612b86565b600181018091116118865761092391612983565b91907f7fffffffffffffffffffffffffffffff5d576e7357a4501ddfe92f46681b20a08411612c43579160209360809260ff5f9560405194855216868401526040830152606082015282805260015afa15612c38575f516001600160a01b03811615612c2e57905f905f90565b505f906001905f90565b6040513d5f823e3d90fd5b5050505f9160039190565b6001811115612c79575f19810190811161188657612c6b906130cc565b600181018091116118865790565b505f90565b9192905f83515b6001612c9086611621565b5114612de057612cbc612cb7856001612cb1612cab8a611621565b516130cc565b1b6118a7565b612112565b905f915f915b808310612ce557505050612cd9612cdf9194611878565b60011c90565b92612c85565b909192612cf28489611633565b5182612cfd86611878565b1080612dc2575b15612d635790612d4f6001926002612d3a612d1f898c611633565b51612d32612d2c8b611878565b8d611633565b519084613132565b9701965b612d48848b611633565b5260011c90565b612d59828b611633565b5201929190612cc2565b8987600183188610612da55791600180612d9b612d4f94612d938c612d8c8d9e9d869b9a611633565b5192611633565b519085613132565b9801980196612d3e565b612d4f9150916001612db988829695611633565b51970196612d3e565b50612dd5612dcf86611878565b8a611633565b516001821814612d04565b5050915050612def9150611621565b5190565b9290928215611be157835193841561301c5760015b858110612fee57506001841480612fe4575b80612fd2575b612fb757612e35612e3085613152565b6123a7565b94612e3e61018f565b945f865260208601968752612e5161018f565b925f845260208401948552612e6461019e565b905f82526020820193845260408201525f91805b612f03575b50505051612ef4575190515103612ee55781515f190182525b815115612ed957612ea6826133f4565b612eaf836133f4565b90612ebb845160010190565b84525f5260205260405f20612ed38451845190611633565b52612e96565b91612def915051611621565b637227423160e11b5f5260045ffd5b63072afb8760e51b5f5260045ffd5b612f0c816130cc565b92612f26612f1e6001861b809461212e565b9283926118a7565b938685612f338187613197565b92602084015180155f14612f6b575050505050508551518551145f03612e7d5780612f66612f60876133d8565b8a6133bd565b612e78565b60011480612faf575b15612f9b575050506020612f92826040612f66940151905190611633565b5101518a6133bd565b91612f6693916002612f60941b0391613220565b508015612f74565b925090925051612ee557612fcc602091611621565b51015190565b50612fdc81611621565b515115612e20565b5060018514612e1a565b612ff88183611633565b515161300c61300683612112565b84611633565b51511015611bb857600101612e08565b631a14a47760e31b5f5260045ffd5b919091613037836102f1565b613044604051918261015d565b838152613050846102f1565b602082019190601f1901368337939091905b602081101561309c578061308257505f19905b5182518216911916179052565b612cb761309161309692612120565b613410565b90613075565b909182518152602081018091116118865791602081018091116118865790601f1981019081111561306257611864565b806fffffffffffffffffffffffffffffffff1060071b81811c6001600160401b031060061b1781811c63ffffffff1060051b1781811c61ffff1060041b1781811c60ff1060031b1781811c600f1060021b1781811c60031060011b1790811c6001101790565b600116613145575f5260205260405f2090565b905f5260205260405f2090565b90815f925b61315e5750565b915f19830183811161188657600193169283910192613157565b60405190613185826100ec565b60606040835f81525f60208201520152565b61319f613178565b5080516131b260208301918251906118a7565b928251905b8482106131f9575b508293506131d26128589293518261212e565b9084519460408101516131e361019e565b968752836020880152604087015252825161212e565b90613208816040860151611633565b515182111561321a57600101906131b7565b906131bf565b91906020830151835193613233826123a7565b9361323d836123a7565b955f5b84811061336f5750505050935b600161325884611621565b5114613362575f945f905b80821061327757505084808452845261324d565b90956132838786611633565b5187878461329083611878565b1080613344575b156132eb576001926132c9836132c1612d2c6132ba6132e599976132d397611633565b5192611878565b519083613132565b612d48848c611633565b6132dd8289611633565b520196611899565b90613263565b5050845160208601515111156133355760019161332183926132c96133108c8c611633565b5161331a8a6133d8565b9083613132565b61332b8289611633565b5201960190613263565b63d8f29a1560e01b5f5260045ffd5b5061335761335183611878565b89611633565b516001841814613297565b93505050612def90611621565b6001906133a8604086016020613390825161338a86896118a7565b90611633565b51015161339d848d611633565b525182850190611633565b515184016133b6828a611633565b5201613240565b906133ce6020830151835190611633565b5260018151019052565b6133e86020820151825190611633565b51906001815101905290565b6134046020820151825190611633565b5181515f190190915290565b601f8111611886576101000a9056fea2646970667358221220ef5ccb88ede39e8e09e4f5d0e653ecda99ce9449ab4b4e971bbc15048d77a4e864736f6c634300081e0033","linkReferences":{}},"methodIdentifiers":{"MMR_ROOT_PAYLOAD_ID()":"af8b91d6","noOp((uint256,uint256,(uint64,uint32,bytes32),(uint64,uint32,bytes32)),(((((bytes2,bytes)[],uint32,uint64),(bytes,uint256)[]),(uint8,uint32,bytes32,(uint64,uint32,bytes32),bytes32,uint256),bytes32[],bytes32[]),((uint256,uint256,bytes)[],bytes32[],uint256)))":"7163f312","supportsInterface(bytes4)":"01ffc9a7","verify(bytes,bytes)":"f7e83aee","verifyConsensus(bytes,bytes)":"7d755598"},"id":150}