{"abi":[{"type":"function","name":"MMR_ROOT_PAYLOAD_ID","inputs":[],"outputs":[{"name":"","type":"bytes2","internalType":"bytes2"}],"stateMutability":"view"},{"type":"function","name":"noOp","inputs":[{"name":"s","type":"tuple","internalType":"struct BeefyConsensusState","components":[{"name":"latestHeight","type":"uint256","internalType":"uint256"},{"name":"beefyActivationBlock","type":"uint256","internalType":"uint256"},{"name":"currentAuthoritySet","type":"tuple","internalType":"struct AuthoritySetCommitment","components":[{"name":"id","type":"uint256","internalType":"uint256"},{"name":"len","type":"uint256","internalType":"uint256"},{"name":"root","type":"bytes32","internalType":"bytes32"}]},{"name":"nextAuthoritySet","type":"tuple","internalType":"struct AuthoritySetCommitment","components":[{"name":"id","type":"uint256","internalType":"uint256"},{"name":"len","type":"uint256","internalType":"uint256"},{"name":"root","type":"bytes32","internalType":"bytes32"}]}]},{"name":"p","type":"tuple","internalType":"struct BeefyConsensusProof","components":[{"name":"relay","type":"tuple","internalType":"struct RelayChainProof","components":[{"name":"signedCommitment","type":"tuple","internalType":"struct SignedCommitment","components":[{"name":"commitment","type":"tuple","internalType":"struct Commitment","components":[{"name":"payload","type":"tuple[]","internalType":"struct Payload[]","components":[{"name":"id","type":"bytes2","internalType":"bytes2"},{"name":"data","type":"bytes","internalType":"bytes"}]},{"name":"blockNumber","type":"uint256","internalType":"uint256"},{"name":"validatorSetId","type":"uint256","internalType":"uint256"}]},{"name":"votes","type":"tuple[]","internalType":"struct Vote[]","components":[{"name":"signature","type":"bytes","internalType":"bytes"},{"name":"authorityIndex","type":"uint256","internalType":"uint256"}]}]},{"name":"latestMmrLeaf","type":"tuple","internalType":"struct BeefyMmrLeaf","components":[{"name":"version","type":"uint256","internalType":"uint256"},{"name":"parentNumber","type":"uint256","internalType":"uint256"},{"name":"parentHash","type":"bytes32","internalType":"bytes32"},{"name":"nextAuthoritySet","type":"tuple","internalType":"struct AuthoritySetCommitment","components":[{"name":"id","type":"uint256","internalType":"uint256"},{"name":"len","type":"uint256","internalType":"uint256"},{"name":"root","type":"bytes32","internalType":"bytes32"}]},{"name":"extra","type":"bytes32","internalType":"bytes32"},{"name":"leafIndex","type":"uint256","internalType":"uint256"}]},{"name":"mmrProof","type":"bytes32[]","internalType":"bytes32[]"},{"name":"proof","type":"bytes32[]","internalType":"bytes32[]"}]},{"name":"parachain","type":"tuple","internalType":"struct ParachainProof","components":[{"name":"parachains","type":"tuple[]","internalType":"struct Parachain[]","components":[{"name":"index","type":"uint256","internalType":"uint256"},{"name":"id","type":"uint256","internalType":"uint256"},{"name":"header","type":"bytes","internalType":"bytes"}]},{"name":"proof","type":"bytes32[]","internalType":"bytes32[]"},{"name":"leafCount","type":"uint256","internalType":"uint256"}]}]}],"outputs":[],"stateMutability":"pure"},{"type":"function","name":"supportsInterface","inputs":[{"name":"interfaceId","type":"bytes4","internalType":"bytes4"}],"outputs":[{"name":"","type":"bool","internalType":"bool"}],"stateMutability":"view"},{"type":"function","name":"verify","inputs":[{"name":"previousState","type":"bytes","internalType":"bytes"},{"name":"proof","type":"bytes","internalType":"bytes"}],"outputs":[{"name":"","type":"bytes","internalType":"bytes"},{"name":"","type":"tuple[]","internalType":"struct IntermediateState[]","components":[{"name":"stateMachineId","type":"uint256","internalType":"uint256"},{"name":"height","type":"uint256","internalType":"uint256"},{"name":"commitment","type":"tuple","internalType":"struct StateCommitment","components":[{"name":"timestamp","type":"uint256","internalType":"uint256"},{"name":"overlayRoot","type":"bytes32","internalType":"bytes32"},{"name":"stateRoot","type":"bytes32","internalType":"bytes32"}]}]},{"name":"","type":"uint256","internalType":"uint256"}],"stateMutability":"pure"},{"type":"function","name":"verifyConsensus","inputs":[{"name":"encodedState","type":"bytes","internalType":"bytes"},{"name":"encodedProof","type":"bytes","internalType":"bytes"}],"outputs":[{"name":"","type":"bytes","internalType":"bytes"},{"name":"","type":"tuple[]","internalType":"struct IntermediateState[]","components":[{"name":"stateMachineId","type":"uint256","internalType":"uint256"},{"name":"height","type":"uint256","internalType":"uint256"},{"name":"commitment","type":"tuple","internalType":"struct StateCommitment","components":[{"name":"timestamp","type":"uint256","internalType":"uint256"},{"name":"overlayRoot","type":"bytes32","internalType":"bytes32"},{"name":"stateRoot","type":"bytes32","internalType":"bytes32"}]}]}],"stateMutability":"pure"},{"type":"error","name":"ECDSAInvalidSignature","inputs":[]},{"type":"error","name":"ECDSAInvalidSignatureLength","inputs":[{"name":"length","type":"uint256","internalType":"uint256"}]},{"type":"error","name":"ECDSAInvalidSignatureS","inputs":[{"name":"s","type":"bytes32","internalType":"bytes32"}]},{"type":"error","name":"EmptyLeaves","inputs":[]},{"type":"error","name":"EmptyTree","inputs":[]},{"type":"error","name":"EmptyTree","inputs":[]},{"type":"error","name":"IllegalGenesisBlock","inputs":[]},{"type":"error","name":"InvalidAuthoritiesProof","inputs":[]},{"type":"error","name":"InvalidMmrProof","inputs":[]},{"type":"error","name":"LeafIndexOutOfBounds","inputs":[]},{"type":"error","name":"MmrRootHashMissing","inputs":[]},{"type":"error","name":"OutOfBoundsLeaves","inputs":[]},{"type":"error","name":"ProofExhausted","inputs":[]},{"type":"error","name":"SuperMajorityRequired","inputs":[]},{"type":"error","name":"TimestampNotFound","inputs":[]},{"type":"error","name":"UnconsumedProof","inputs":[]},{"type":"error","name":"UnknownAuthoritySet","inputs":[]},{"type":"error","name":"UnsortedLeaves","inputs":[]},{"type":"error","name":"UnsortedLeaves","inputs":[]}],"bytecode":{"object":"0x60808060405234601557613273908161001a8239f35b5f80fdfe60806040526004361015610011575f80fd5b5f3560e01c806301ffc9a7146100645780637d7555981461005f578063af8b91d61461005a578063bf63b93a146100555763f7e83aee14610050575f80fd5b610a46565b610953565b6103d1565b6102c6565b346100d45760203660031901126100d45760043563ffffffff60e01b81168091036100d457630faeaab360e31b81149081156100c3575b81156100b2575b501515608052607f1960a0016080f35b6301ffc9a760e01b149050816100a2565b637bf41d7760e11b8114915061009b565b5f80fd5b634e487b7160e01b5f52604160045260245ffd5b608081019081106001600160401b0382111761010757604052565b6100d8565b606081019081106001600160401b0382111761010757604052565b604081019081106001600160401b0382111761010757604052565b60c081019081106001600160401b0382111761010757604052565b90601f801991011681019081106001600160401b0382111761010757604052565b6040519061018d60408361015d565b565b6040519061018d60808361015d565b6040519061018d60608361015d565b6040519061018d60a08361015d565b6001600160401b03811161010757601f01601f191660200190565b81601f820112156100d4578035906101ee826101bc565b926101fc604051948561015d565b828452602083830101116100d457815f926020809301838601378301015290565b805180835260209291819084018484015e5f828201840152601f01601f1916010190565b90602080835192838152019201905f5b81811061025e5750505090565b909192602060a060019260408088518051845285810151868501520151805182840152848101516060840152015160808201520194019101919091610251565b90916102b56102c39360408452604084019061021d565b916020818403910152610241565b90565b346100d45760403660031901126100d4576004356001600160401b0381116100d4576102f69036906004016101d7565b6024356001600160401b0381116100d4576103159036906004016101d7565b815182019061010083602084019303126100d4576103be9261038761039f926103736103b09560c06040519561034a876100ec565b60208101518752604081015160208801526103688360608301610b3b565b604088015201610b3b565b606084015260208082518301019101610f96565b61039292919261017e565b92835260208301526111cb565b929060405192839160208301611062565b03601f19810183528261015d565b6103cd6040519283928361029e565b0390f35b346100d4575f3660031901126100d457604051610dad60f31b8152602090f35b91908260609103126100d4576040516104098161010c565b604080829480358452602081013560208501520135910152565b906101006003198301126100d45760405161043d816100ec565b606061046882946004358452602435602085015261045c8160446103f1565b604085015260a46103f1565b910152565b9190610100838203126100d45760606104686040519261048c846100ec565b60a0849680358652602081013560208701526104ab83604083016103f1565b6040870152016103f1565b6001600160401b0381116101075760051b60200190565b6001600160f01b03198116036100d457565b81601f820112156100d4578035906104f6826104b6565b92610504604051948561015d565b82845260208085019360051b830101918183116100d45760208101935b83851061053057505050505090565b84356001600160401b0381116100d45782016040818503601f1901126100d4576040519161055d83610127565b6020820135926001600160401b0384116100d4576040836105858860208098819801016101d7565b8352013583820152815201940193610521565b91906040838203126100d457604051906105b182610127565b819380356001600160401b0381116100d45781016060818403126100d457604051906105dc8261010c565b80356001600160401b0381116100d457810184601f820112156100d457803590610605826104b6565b91610613604051938461015d565b80835260208084019160051b830101918783116100d45760208101915b8383106106755750505050906040918352602081013560208401520135604082015283526020810135916001600160401b0383116100d45760209261046892016104df565b82356001600160401b0381116100d4578201906040828b03601f1901126100d457604051906106a382610127565b60208301356106b1816104cd565b82526040830135916001600160401b0383116100d4576106d98c6020809695819601016101d7565b83820152815201920191610630565b919091610100818403126100d45760a060e06040519261070784610142565b61072d8496823586526020830135602087015260408301356040870152606083016103f1565b606085015260c081013560808501520135910152565b9080601f830112156100d457813561075a816104b6565b92610768604051948561015d565b81845260208085019260051b8201019283116100d457602001905b8282106107905750505090565b8135815260209182019101610783565b919091610160818403126100d4576107b661018f565b9281356001600160401b0381116100d457816107d3918401610598565b84526107e281602084016106e8565b60208501526101208201356001600160401b0381116100d45781610807918401610743565b60408501526101408201356001600160401b0381116100d45761082a9201610743565b6060830152565b9190916060818403126100d4576040519061084b8261010c565b819381356001600160401b0381116100d457820181601f820112156100d457803590610876826104b6565b91610884604051938461015d565b80835260208084019160051b830101918483116100d45760208101915b8383106108de575050505083526020820135916001600160401b0383116100d4576108d26040939284938301610743565b60208501520135910152565b82356001600160401b0381116100d4578201906060828803601f1901126100d4576040519061090c8261010c565b60208301358252604083013560208301526060830135916001600160401b0383116100d457610943896020809695819601016101d7565b60408201528152019201916108a1565b346100d4576101203660031901126100d45761096e36610423565b50610104356001600160401b0381116100d457604060031982360301126100d4576040519061099c82610127565b80600401356001600160401b0381116100d4576109bf90600436918401016107a0565b825260248101356001600160401b0381116100d45760209160046109e69236920101610831565b910152005b9181601f840112156100d4578235916001600160401b0383116100d457602083818601950101116100d457565b939291610a4190610a3360409360608852606088019061021d565b908682036020880152610241565b930152565b346100d45760403660031901126100d4576004356001600160401b0381116100d457610a769036906004016109eb565b6024356001600160401b0381116100d457610a959036906004016109eb565b9290918101610100828203126100d457610aae9161046d565b918101916040828403126100d45781356001600160401b0381116100d45783610ad89184016107a0565b916020810135936001600160401b0385116100d457610b0394610afb9201610831565b61039261017e565b906103cd606060405192610b2c84610b1e8360208301611062565b03601f19810186528561015d565b01515160405193849384610a18565b91908260609103126100d457604051610b538161010c565b604080829480518452602081015160208501520151910152565b81601f820112156100d457805190610b84826101bc565b92610b92604051948561015d565b828452602083830101116100d457815f9260208093018386015e8301015290565b81601f820112156100d457805190610bca826104b6565b92610bd8604051948561015d565b82845260208085019360051b830101918183116100d45760208101935b838510610c0457505050505090565b84516001600160401b0381116100d45782016040818503601f1901126100d45760405191610c3183610127565b6020820151926001600160401b0384116100d457604083610c59886020809881980101610b6d565b8352015183820152815201940193610bf5565b91906040838203126100d45760405190610c8582610127565b819380516001600160401b0381116100d45781016060818403126100d45760405190610cb08261010c565b80516001600160401b0381116100d457810184601f820112156100d457805190610cd9826104b6565b91610ce7604051938461015d565b80835260208084019160051b830101918783116100d45760208101915b838310610d495750505050906040918352602081015160208401520151604082015283526020810151916001600160401b0383116100d4576020926104689201610bb3565b82516001600160401b0381116100d4578201906040828b03601f1901126100d45760405190610d7782610127565b6020830151610d85816104cd565b82526040830151916001600160401b0383116100d457610dad8c602080969581960101610b6d565b83820152815201920191610d04565b919091610100818403126100d45760a060e060405192610ddb84610142565b610e01849682518652602083015160208701526040830151604087015260608301610b3b565b606085015260c081015160808501520151910152565b9080601f830112156100d4578151610e2e816104b6565b92610e3c604051948561015d565b81845260208085019260051b8201019283116100d457602001905b828210610e645750505090565b8151815260209182019101610e57565b9190916060818403126100d45760405190610e8e8261010c565b819381516001600160401b0381116100d457820181601f820112156100d457805190610eb9826104b6565b91610ec7604051938461015d565b80835260208084019160051b830101918483116100d45760208101915b838310610f21575050505083526020820151916001600160401b0383116100d457610f156040939284938301610e17565b60208501520151910152565b82516001600160401b0381116100d4578201906060828803601f1901126100d45760405190610f4f8261010c565b60208301518252604083015160208301526060830151916001600160401b0383116100d457610f8689602080969581960101610b6d565b6040820152815201920191610ee4565b9190916040818403126100d45780516001600160401b0381116100d4578101610160818503126100d457610fc861018f565b9080516001600160401b0381116100d45785610fe5918301610c6c565b8252610ff48560208301610dbc565b60208301526101208101516001600160401b0381116100d45785611019918301610e17565b6040830152610140810151906001600160401b0382116100d45761103f91869101610e17565b60608201529260208201516001600160401b0381116100d4576102c39201610e74565b61018d9092919260a0606061010083019580518452602081015160208501526110a7604082015160408601906040809180518452602081015160208501520151910152565b01519101906040809180518452602081015160208501520151910152565b604051906110d28261010c565b5f6040838281528260208201520152565b604051906110f0826100ec565b815f81525f60208201526111026110c5565b604082015260606104686110c5565b6040519061112060208361015d565b5f80835282815b82811061113357505050565b6020906040516111428161010c565b5f81525f838201526111526110c5565b604082015282828501015201611127565b9061116d826104b6565b61117a604051918261015d565b828152809261118b601f19916104b6565b01905f5b82811061119b57505050565b6020906040516111aa8161010c565b5f81525f838201526111ba6110c5565b60408201528282850101520161118f565b91906111d56110e3565b50825160208251515101511115611454578051906111f16110e3565b50815191602083015151925190602082015193604083019081519160408901928351518114159081611444575b5061143557518251908151145f1461142957905b60208201916112496112458451846116e6565b1590565b61141a57855151955f965f5b81811061139657505086156113875761126d906117db565b602081519101209161127e816114af565b925f5b8281106113085750505060400151606085015192516112a59361124593919261193c565b6112f9576102c3946020836112be82966080968c611a54565b01916060835101515160608a01918251918251106112e8575b505050875251015191015190611548565b5260608351015190525f80806112d7565b63528bd3ef60e01b5f5260045ffd5b8061131a60019260208b510151611483565b516020611328825186611926565b91015190604051611358816103b06020820194856014916bffffffffffffffffffffffff199060601b1681520190565b51902061136361017e565b91825260208201526113758288611483565b526113808187611483565b5001611281565b6323188e3960e21b5f5260045ffd5b610dad60f31b6113c96113bc6113ad848751611483565b51516001600160f01b03191690565b6001600160f01b03191690565b1480611401575b6113dd575b600101611255565b975060016113f960206113f18b8651611483565b51015161170f565b9890506113d5565b50602080611410838651611483565b51015151146113d0565b633aa90f7f60e21b5f5260045ffd5b50606088015190611232565b637202e68560e11b5f5260045ffd5b905060608a01515114155f61121e565b506102c3611111565b634e487b7160e01b5f52603260045260245ffd5b80511561147e5760200190565b61145d565b805182101561147e5760209160051b010190565b604051906114a482610127565b5f6020838281520152565b906114b9826104b6565b6114c6604051918261015d565b82815280926114d7601f19916104b6565b01905f5b8281106114e757505050565b6020906114f2611497565b828285010152016114db565b805191908290602001825e015f815290565b6040516001600160e01b03199091166020820152919061018d90839061153a9060248301906114fe565b03601f19810184528361015d565b81515191611555836114af565b9161155f84611163565b935f5b8181106115a85750611575575b50505090565b61158d9282604060206112459501519101519261193c565b611599575f808061156f565b630b92186960e31b5f5260045ffd5b6115b3818551611483565b519060408201916115c48351611c11565b92602084019182511561166f5760019481611608602061163a94519201946116026115fb6115f6885163ffffffff1690565b611d5d565b9151611d98565b90611510565b6020815191012061161761017e565b9182526020820152611629868c611483565b52611634858b611483565b50611dbd565b9051915161164661019e565b9283526020830152604082015261165d8289611483565b526116688188611483565b5001611562565b63b4eb9e5160e01b5f5260045ffd5b634e487b7160e01b5f52601160045260245ffd5b90612ee0820291808304612ee014901517156116aa57565b61167e565b90600182018092116116aa57565b90600382018092116116aa57565b90600282018092116116aa57565b919082018092116116aa57565b906001600160ff1b03811681036116aa5760039060011b0490600182018092116116aa57101590565b602081511061171f576020015190565b60405162461bcd60e51b8152602060048201526024808201527f42797465733a3a20746f427974657333323a206461746120697320746f20736860448201526337b93a1760e11b6064820152608490fd5b6040519061177f60208361015d565b5f8252565b61018d9061153a6117a0949360405195869360208501906114fe565b906114fe565b6040516001600160e01b031990911660208201526001600160c01b03199091166024820152600c81529061018d602c8361015d565b908151516117e7611770565b905f5b8181106118ce575061180c6102c39394926118076118c893611f89565b611784565b916118c261183860406118296115f6602086015163ffffffff1690565b9301516001600160401b031690565b67ffffffffffff000067ff00ff00ff00ff0066ff00ff00ff00ff8360081c169260081b169165ffff0000ffff65ffff0000ff0065ffffffffffff67ffff0000ffff0000861666ff0000ffff000085161760101c16941691161760101b161767ffffffff0000000063ffffffff8260201c169160201b166001600160401b0360c01b911760c01b1690565b906117a6565b90611784565b9150600161191f6103b06119076118e96113ad878a51611483565b6040516001600160f01b031990911660208201529182906022820190565b6118c86020611917878a51611483565b510151611d98565b92016117ea565b6102c3916119339161210f565b90929192612167565b919392908115611a05578451611951816121e3565b61195a826121e3565b91600161196686612a6c565b1b5f805b838210611985575050505061198194959650612a9c565b1490565b61198f828c611483565b515190888210156119f65782151590816119eb575b506119dc5760019060206119b8848e611483565b5101516119c58489611483565b528084016119d38488611483565b5291019061196a565b630647f54960e21b5f5260045ffd5b90508111155f6119a4565b630834466160e31b5f5260045ffd5b639136328760e01b5f5260045ffd5b60408051909190611a25838261015d565b6001815291601f1901825f5b828110611a3d57505050565b602090611a48611497565b82828501015201611a31565b61124591611aff9360406020830192611ac3611abe6020611aa987518051908381015190888101516080606083015192015192611a8f6101ad565b94855286850152898401526060830152608082015261229d565b81815191012097015160208751015190612356565b6116af565b9460a0611ace611a14565b9551015190611adb61017e565b9182526020820152611aec85611471565b52611af684611471565b5001519061236b565b61159957565b6040519060a082018281106001600160401b038211176101075760405260606080835f81525f60208201525f60408201525f838201520152565b60405190611b4c82610127565b60606020835f81520152565b6040519061012082018281106001600160401b03821117610107576040525f61010083828152611b86611b3f565b6020820152826040820152611b99611b3f565b6060820152826080820152611bac611b3f565b60a08201528260c0820152606060e08201520152565b90611bcc826104b6565b611bd9604051918261015d565b8281528092611bea601f19916104b6565b01905f5b828110611bfa57505050565b602090611c05611b58565b82828501015201611bee565b611c19611b05565b50611c2261017e565b9081525f6020820152611c3c611c3782612377565b61170f565b90611c46816124b6565b611c52611c3783612377565b611c5e611c3784612377565b91611c68846124b6565b611c7181611bc2565b945f5b828110611ca057505050611c866101ad565b948552602085015260408401526060830152608082015290565b600190611cac83612635565b60ff611cb6611b58565b911680611ce25750600160c08201525b611cd0828a611483565b52611cdb8189611483565b5001611c74565b60048103611d06575060016040820152611cfb846126af565b60608201525b611cc6565b60058103611d29575060016080820152611d1f846126af565b60a0820152611cc6565b60068103611d49575060018152611d3f846126af565b6020820152611cc6565b600803611d01576001610100820152611cc6565b6001600160e01b03199063ff00ff00600882811b9190911691901c62ff00ff1617601081811b63ffff00001691901c61ffff161760e01b1690565b6102c36117a0916103b0611dac8251611f89565b9160405194859360208501906114fe565b611dc56110c5565b505f915f905f5f5b6080850180518051831015611f03576040611deb84611df393611483565b510151151590565b80611edb575b611e92575b611e13611e0c838351611483565b5151151590565b80611e59575b611e27575b50600101611dcd565b819250611e51611e4c602080611e4260809660019651611483565b5101510151612805565b611692565b929150611e1e565b50636175726160e01b63ffffffff60e01b611e8b6020611e7a868651611483565b510151516001600160e01b03191690565b1614611e19565b93509450611eb5611c3760206060611eab898851611483565b510151015161278b565b94611ed5611c3760206060611ecb858951611483565b51015101516127cc565b93611dfe565b5063049534d560e41b63ffffffff60e01b611efc6060611e7a868651611483565b1614611df9565b5050509250928215611f2757611f1761019e565b9283526020830152604082015290565b633eba99d160e21b5f5260045ffd5b6003198101919082116116aa57565b5f198101919082116116aa57565b60200390602082116116aa57565b919082039182116116aa57565b6001906102c3939260ff60f81b9060f81b16815201906114fe565b6040811015611fcd576102c3611fab611fa56103b09360021b90565b60ff1690565b60405160f89190911b6001600160f81b03191660208201529182906021820190565b61400081101561202c576102c361200a611ff7611ff0611abe6103b09560021b90565b61ffff1690565b60ff61ff008260081b169160081c161790565b60405160f09190911b6001600160f01b03191660208201529182906022820190565b63400000008110156120b2576102c361209061205f6120566120516103b09560021b90565b6116cb565b63ffffffff1690565b63ffffff0062ff00ff62ffffff818460081c1616921660081b161763ffff000061ffff8260101c169160101b161790565b60405160e09190911b6001600160e01b03191660208201529182906024820190565b6103b06120d76120c46120dc9361287d565b6040519283916020830160209181520190565b612996565b6102c36120fd611fa56120f86120f28551611f36565b60021b90565b6116bd565b6103b060405193849260208401611f6e565b815191906041830361213f576121389250602082015190606060408401519301515f1a906129df565b9192909190565b50505f9160029190565b6004111561215357565b634e487b7160e01b5f52602160045260245ffd5b61217081612149565b80612179575050565b61218281612149565b600181036121995763f645eedf60e01b5f5260045ffd5b6121a281612149565b600281036121bd575063fce698f760e01b5f5260045260245ffd5b806121c9600392612149565b146121d15750565b6335e2f38360e21b5f5260045260245ffd5b906121ed826104b6565b6121fa604051918261015d565b828152809261220b601f19916104b6565b0190602036910137565b600461018d91612230949360405195869260208401906114fe565b9063ffffffff60e01b16815203601b1981018552018361015d565b906040519160208301526020825261018d60408361015d565b600861018d9161227f949360405195869260208401906114fe565b906001600160401b0360c01b1681520360171981018552018361015d565b805160405160f89190911b6001600160f81b03191660208201526102c391906118c8906122ea906122d181602181016103b0565b6122e463ffffffff602086015116611d5d565b90612215565b6118c8608061234e6122ff604087015161224b565b612348612325606089019261231f6118388551516001600160401b031690565b90612264565b915161160260406123406115f6602085015163ffffffff1690565b92015161224b565b94611784565b94015161224b565b8061235f575090565b81039081116116aa5790565b92909161198192612c11565b60208101908151602081018091116116aa57815151106100d4576020905181835182010191829101116116aa5760206123af91612e49565b90805190602082018092116116aa575290565b90602082019182518281018091116116aa57815151106100d4578115612410576020905181845182010191829101116116aa57816123ff91612e49565b9180519182018092116116aa575290565b50505060405161242160208261015d565b5f815290565b60ff60049116019060ff82116116aa57565b1561244057565b60405162461bcd60e51b815260206004820152602860248201527f756e657870656374656420707265666978206465636f64696e6720436f6d706160448201526731ba1e2ab4b73a1f60c11b6064820152608490fd5b906001600160401b03809116911601906001600160401b0382116116aa57565b6124bf81612635565b60038116806124d957506102c3915060021c603f16611fa5565b6001810361252a575061251e90612518611fa561250e6124fe611fa56102c397612635565b60061b67ffffffffffffffc01690565b9260021c603f1690565b90612496565b6001600160401b031690565b600281036125a057506120569061259360ff846125848261254d6102c398612635565b95816125738161256561255f88612635565b97612635565b991660081b63ffffff001690565b911617921660101b63ffff00001690565b17921660181b63ff0000001690565b1760021c633fffffff1690565b6003036125df576102c39160ff6125c66125c16125da94603f9060021c1690565b612427565b16906125d56008831115612439565b6123c2565b612805565b60405162461bcd60e51b815260206004820152601a60248201527f436f64652073686f756c6420626520756e726561636861626c650000000000006044820152606490fd5b90815181101561147e570160200190565b60208101908151600181018091116116aa578151511061267b575181516001600160f81b0319916126669190612624565b511660f81c9061267681516116af565b905290565b60405162461bcd60e51b815260206004820152600c60248201526b4f7574206f662072616e676560a01b6044820152606490fd5b6126b7611b3f565b5060208101908151600481018091116116aa57815151106100d4576020815181845182010191829101116116aa5760046126f091612e49565b91805190600482018092116116aa57525f915f905b600482106127455750508061271c612722926124b6565b906123c2565b61273d61272d61017e565b6001600160e01b03199093168352565b602082015290565b90926001600160f81b031961275a8584612624565b5116908460031b91858304600814861517156116aa576001926001600160e01b0319918216901c1617930190612705565b80516020116100d4576020806102c39201612e49565b90815181116100d45780156127bc5760206102c39201612e49565b505060405161242160208261015d565b8051806020116100d457601f1981019081116116aa57604082019160200182106116aa576102c391612e49565b80156116aa575f190190565b80515f91815b61281457505090565b90915f198301908382116116aa5761282c8284612624565b5160f81c91600381901b906001600160fd1b038116036116aa5760ff81116116aa576001901b918281029281840414901517156116aa5761287691612870916116d9565b926127f9565b908161280b565b8060081c9060081b907cff000000ff000000ff000000ff000000ff000000ff000000ff000000ff7dff000000ff000000ff000000ff000000ff000000ff000000ff000000ff007fff000000ff000000ff000000ff000000ff000000ff000000ff000000ff00000084167eff000000ff000000ff000000ff000000ff000000ff000000ff000000ff000084161760101c931691161760101b177bffffffff00000000ffffffff00000000ffffffff00000000ffffffff7fffffffff00000000ffffffff00000000ffffffff00000000ffffffff00000000821660201c911660201b1777ffffffffffffffff0000000000000000ffffffffffffffff8019821660401c911660401b176129928160801c9160801b90565b1790565b80515f1981019081116116aa575b6001600160f81b03196129b78284612624565b51166129cb576129c6906127f9565b6129a4565b600181018091116116aa576102c3916127a1565b91907f7fffffffffffffffffffffffffffffff5d576e7357a4501ddfe92f46681b20a08411612a61579160209360809260ff5f9560405194855216868401526040830152606082015282805260015afa15612a56575f516001600160a01b03811615612a4c57905f905f90565b505f906001905f90565b6040513d5f823e3d90fd5b5050505f9160039190565b6001811115612a97575f1981019081116116aa57612a8990612eea565b600181018091116116aa5790565b505f90565b9192905f83515b6001612aae86611471565b5114612bfe57612ada612ad5856001612acf612ac98a611471565b51612eea565b1b6116d9565b611f45565b905f915f915b808310612b0357505050612af7612afd91946116af565b60011c90565b92612aa3565b909192612b108489611483565b5182612b1b866116af565b1080612be0575b15612b815790612b6d6001926002612b58612b3d898c611483565b51612b50612b4a8b6116af565b8d611483565b519084612f50565b9701965b612b66848b611483565b5260011c90565b612b77828b611483565b5201929190612ae0565b8987600183188610612bc35791600180612bb9612b6d94612bb18c612baa8d9e9d869b9a611483565b5192611483565b519085612f50565b9801980196612b5c565b612b6d9150916001612bd788829695611483565b51970196612b5c565b50612bf3612bed866116af565b8a611483565b516001821814612b22565b5050915050612c0d9150611471565b5190565b9290928215611a05578351938415612e3a5760015b858110612e0c57506001841480612e02575b80612df0575b612dd557612c53612c4e85612f70565b6121e3565b94612c5c61017e565b945f865260208601968752612c6f61017e565b925f845260208401948552612c8261019e565b905f82526020820193845260408201525f91805b612d21575b50505051612d12575190515103612d035781515f190182525b815115612cf757612cc482613212565b612ccd83613212565b90612cd9845160010190565b84525f5260205260405f20612cf18451845190611483565b52612cb4565b91612c0d915051611471565b637227423160e11b5f5260045ffd5b63072afb8760e51b5f5260045ffd5b612d2a81612eea565b92612d44612d3c6001861b8094611f61565b9283926116d9565b938685612d518187612fb5565b92602084015180155f14612d89575050505050508551518551145f03612c9b5780612d84612d7e876131f6565b8a6131db565b612c96565b60011480612dcd575b15612db9575050506020612db0826040612d84940151905190611483565b5101518a6131db565b91612d8493916002612d7e941b039161303e565b508015612d92565b925090925051612d0357612dea602091611471565b51015190565b50612dfa81611471565b515115612c3e565b5060018514612c38565b612e168183611483565b5151612e2a612e2483611f45565b84611483565b515110156119dc57600101612c26565b631a14a47760e31b5f5260045ffd5b919091612e55836101bc565b612e62604051918261015d565b838152612e6e846101bc565b602082019190601f1901368337939091905b6020811015612eba5780612ea057505f19905b5182518216911916179052565b612ad5612eaf612eb492611f53565b61322e565b90612e93565b909182518152602081018091116116aa5791602081018091116116aa5790601f19810190811115612e805761167e565b806fffffffffffffffffffffffffffffffff1060071b81811c6001600160401b031060061b1781811c63ffffffff1060051b1781811c61ffff1060041b1781811c60ff1060031b1781811c600f1060021b1781811c60031060011b1790811c6001101790565b600116612f63575f5260205260405f2090565b905f5260205260405f2090565b90815f925b612f7c5750565b915f1983018381116116aa57600193169283910192612f75565b60405190612fa38261010c565b60606040835f81525f60208201520152565b612fbd612f96565b508051612fd060208301918251906116d9565b928251905b848210613017575b50829350612ff061267692935182611f61565b90845194604081015161300161019e565b9687528360208801526040870152528251611f61565b90613026816040860151611483565b51518211156130385760010190612fd5565b90612fdd565b91906020830151835193613051826121e3565b9361305b836121e3565b955f5b84811061318d5750505050935b600161307684611471565b5114613180575f945f905b80821061309557505084808452845261306b565b90956130a18786611483565b518787846130ae836116af565b1080613162575b15613109576001926130e7836130df612b4a6130d861310399976130f197611483565b51926116af565b519083612f50565b612b66848c611483565b6130fb8289611483565b5201966116cb565b90613081565b5050845160208601515111156131535760019161313f83926130e761312e8c8c611483565b516131388a6131f6565b9083612f50565b6131498289611483565b5201960190613081565b63d8f29a1560e01b5f5260045ffd5b5061317561316f836116af565b89611483565b5160018418146130b5565b93505050612c0d90611471565b6001906131c66040860160206131ae82516131a886896116d9565b90611483565b5101516131bb848d611483565b525182850190611483565b515184016131d4828a611483565b520161305e565b906131ec6020830151835190611483565b5260018151019052565b6132066020820151825190611483565b51906001815101905290565b6132226020820151825190611483565b5181515f190190915290565b601f81116116aa576101000a9056fea2646970667358221220f92aff77954f8568ec2187bbfa421a33587a35309158a957f11f1bc74bf3e97864736f6c634300081e0033","linkReferences":{}},"methodIdentifiers":{"MMR_ROOT_PAYLOAD_ID()":"af8b91d6","noOp((uint256,uint256,(uint256,uint256,bytes32),(uint256,uint256,bytes32)),(((((bytes2,bytes)[],uint256,uint256),(bytes,uint256)[]),(uint256,uint256,bytes32,(uint256,uint256,bytes32),bytes32,uint256),bytes32[],bytes32[]),((uint256,uint256,bytes)[],bytes32[],uint256)))":"bf63b93a","supportsInterface(bytes4)":"01ffc9a7","verify(bytes,bytes)":"f7e83aee","verifyConsensus(bytes,bytes)":"7d755598"},"id":66}