{"abi":[{"type":"function","name":"handleConsensus","inputs":[{"name":"host","type":"address","internalType":"contract IHost"},{"name":"proof","type":"bytes","internalType":"bytes"}],"outputs":[],"stateMutability":"nonpayable"},{"type":"function","name":"handleGetRequestTimeouts","inputs":[{"name":"host","type":"address","internalType":"contract IHost"},{"name":"message","type":"tuple","internalType":"struct GetTimeoutMessage","components":[{"name":"timeouts","type":"tuple[]","internalType":"struct GetRequest[]","components":[{"name":"source","type":"bytes","internalType":"bytes"},{"name":"dest","type":"bytes","internalType":"bytes"},{"name":"nonce","type":"uint64","internalType":"uint64"},{"name":"from","type":"address","internalType":"address"},{"name":"timeoutTimestamp","type":"uint64","internalType":"uint64"},{"name":"keys","type":"bytes[]","internalType":"bytes[]"},{"name":"height","type":"uint64","internalType":"uint64"},{"name":"context","type":"bytes","internalType":"bytes"}]},{"name":"height","type":"tuple","internalType":"struct StateMachineHeight","components":[{"name":"stateMachineId","type":"uint256","internalType":"uint256"},{"name":"height","type":"uint256","internalType":"uint256"}]},{"name":"proof","type":"bytes[]","internalType":"bytes[]"}]}],"outputs":[],"stateMutability":"nonpayable"},{"type":"function","name":"handleGetResponses","inputs":[{"name":"host","type":"address","internalType":"contract IHost"},{"name":"message","type":"tuple","internalType":"struct GetResponseMessage","components":[{"name":"proof","type":"tuple","internalType":"struct Proof","components":[{"name":"height","type":"tuple","internalType":"struct StateMachineHeight","components":[{"name":"stateMachineId","type":"uint256","internalType":"uint256"},{"name":"height","type":"uint256","internalType":"uint256"}]},{"name":"multiproof","type":"bytes32[]","internalType":"bytes32[]"},{"name":"leafCount","type":"uint256","internalType":"uint256"}]},{"name":"responses","type":"tuple[]","internalType":"struct GetResponseLeaf[]","components":[{"name":"response","type":"tuple","internalType":"struct GetResponse","components":[{"name":"request","type":"tuple","internalType":"struct GetRequest","components":[{"name":"source","type":"bytes","internalType":"bytes"},{"name":"dest","type":"bytes","internalType":"bytes"},{"name":"nonce","type":"uint64","internalType":"uint64"},{"name":"from","type":"address","internalType":"address"},{"name":"timeoutTimestamp","type":"uint64","internalType":"uint64"},{"name":"keys","type":"bytes[]","internalType":"bytes[]"},{"name":"height","type":"uint64","internalType":"uint64"},{"name":"context","type":"bytes","internalType":"bytes"}]},{"name":"values","type":"tuple[]","internalType":"struct StorageValue[]","components":[{"name":"key","type":"bytes","internalType":"bytes"},{"name":"value","type":"bytes","internalType":"bytes"}]}]},{"name":"index","type":"uint256","internalType":"uint256"}]}]}],"outputs":[],"stateMutability":"nonpayable"},{"type":"function","name":"handlePostRequestTimeouts","inputs":[{"name":"host","type":"address","internalType":"contract IHost"},{"name":"message","type":"tuple","internalType":"struct PostRequestTimeoutMessage","components":[{"name":"timeouts","type":"tuple[]","internalType":"struct PostRequest[]","components":[{"name":"source","type":"bytes","internalType":"bytes"},{"name":"dest","type":"bytes","internalType":"bytes"},{"name":"nonce","type":"uint64","internalType":"uint64"},{"name":"from","type":"bytes","internalType":"bytes"},{"name":"to","type":"bytes","internalType":"bytes"},{"name":"timeoutTimestamp","type":"uint64","internalType":"uint64"},{"name":"body","type":"bytes","internalType":"bytes"}]},{"name":"height","type":"tuple","internalType":"struct StateMachineHeight","components":[{"name":"stateMachineId","type":"uint256","internalType":"uint256"},{"name":"height","type":"uint256","internalType":"uint256"}]},{"name":"proof","type":"bytes[]","internalType":"bytes[]"}]}],"outputs":[],"stateMutability":"nonpayable"},{"type":"function","name":"handlePostRequests","inputs":[{"name":"host","type":"address","internalType":"contract IHost"},{"name":"request","type":"tuple","internalType":"struct PostRequestMessage","components":[{"name":"proof","type":"tuple","internalType":"struct Proof","components":[{"name":"height","type":"tuple","internalType":"struct StateMachineHeight","components":[{"name":"stateMachineId","type":"uint256","internalType":"uint256"},{"name":"height","type":"uint256","internalType":"uint256"}]},{"name":"multiproof","type":"bytes32[]","internalType":"bytes32[]"},{"name":"leafCount","type":"uint256","internalType":"uint256"}]},{"name":"requests","type":"tuple[]","internalType":"struct PostRequestLeaf[]","components":[{"name":"request","type":"tuple","internalType":"struct PostRequest","components":[{"name":"source","type":"bytes","internalType":"bytes"},{"name":"dest","type":"bytes","internalType":"bytes"},{"name":"nonce","type":"uint64","internalType":"uint64"},{"name":"from","type":"bytes","internalType":"bytes"},{"name":"to","type":"bytes","internalType":"bytes"},{"name":"timeoutTimestamp","type":"uint64","internalType":"uint64"},{"name":"body","type":"bytes","internalType":"bytes"}]},{"name":"index","type":"uint256","internalType":"uint256"}]}]}],"outputs":[],"stateMutability":"nonpayable"},{"type":"function","name":"handlePostResponseTimeouts","inputs":[{"name":"host","type":"address","internalType":"contract IHost"},{"name":"message","type":"tuple","internalType":"struct PostResponseTimeoutMessage","components":[{"name":"timeouts","type":"tuple[]","internalType":"struct PostResponse[]","components":[{"name":"request","type":"tuple","internalType":"struct PostRequest","components":[{"name":"source","type":"bytes","internalType":"bytes"},{"name":"dest","type":"bytes","internalType":"bytes"},{"name":"nonce","type":"uint64","internalType":"uint64"},{"name":"from","type":"bytes","internalType":"bytes"},{"name":"to","type":"bytes","internalType":"bytes"},{"name":"timeoutTimestamp","type":"uint64","internalType":"uint64"},{"name":"body","type":"bytes","internalType":"bytes"}]},{"name":"response","type":"bytes","internalType":"bytes"},{"name":"timeoutTimestamp","type":"uint64","internalType":"uint64"}]},{"name":"height","type":"tuple","internalType":"struct StateMachineHeight","components":[{"name":"stateMachineId","type":"uint256","internalType":"uint256"},{"name":"height","type":"uint256","internalType":"uint256"}]},{"name":"proof","type":"bytes[]","internalType":"bytes[]"}]}],"outputs":[],"stateMutability":"nonpayable"},{"type":"function","name":"handlePostResponses","inputs":[{"name":"host","type":"address","internalType":"contract IHost"},{"name":"response","type":"tuple","internalType":"struct PostResponseMessage","components":[{"name":"proof","type":"tuple","internalType":"struct Proof","components":[{"name":"height","type":"tuple","internalType":"struct StateMachineHeight","components":[{"name":"stateMachineId","type":"uint256","internalType":"uint256"},{"name":"height","type":"uint256","internalType":"uint256"}]},{"name":"multiproof","type":"bytes32[]","internalType":"bytes32[]"},{"name":"leafCount","type":"uint256","internalType":"uint256"}]},{"name":"responses","type":"tuple[]","internalType":"struct PostResponseLeaf[]","components":[{"name":"response","type":"tuple","internalType":"struct PostResponse","components":[{"name":"request","type":"tuple","internalType":"struct PostRequest","components":[{"name":"source","type":"bytes","internalType":"bytes"},{"name":"dest","type":"bytes","internalType":"bytes"},{"name":"nonce","type":"uint64","internalType":"uint64"},{"name":"from","type":"bytes","internalType":"bytes"},{"name":"to","type":"bytes","internalType":"bytes"},{"name":"timeoutTimestamp","type":"uint64","internalType":"uint64"},{"name":"body","type":"bytes","internalType":"bytes"}]},{"name":"response","type":"bytes","internalType":"bytes"},{"name":"timeoutTimestamp","type":"uint64","internalType":"uint64"}]},{"name":"index","type":"uint256","internalType":"uint256"}]}]}],"outputs":[],"stateMutability":"nonpayable"},{"type":"function","name":"supportsInterface","inputs":[{"name":"interfaceId","type":"bytes4","internalType":"bytes4"}],"outputs":[{"name":"","type":"bool","internalType":"bool"}],"stateMutability":"view"},{"type":"error","name":"ChallengePeriodNotElapsed","inputs":[]},{"type":"error","name":"ConsensusClientExpired","inputs":[]},{"type":"error","name":"DuplicateMessage","inputs":[]},{"type":"error","name":"EmptyLeaves","inputs":[]},{"type":"error","name":"EmptyTree","inputs":[]},{"type":"error","name":"HostFrozen","inputs":[]},{"type":"error","name":"InvalidMessageDestination","inputs":[]},{"type":"error","name":"InvalidProof","inputs":[]},{"type":"error","name":"MessageNotTimedOut","inputs":[]},{"type":"error","name":"MessageTimedOut","inputs":[]},{"type":"error","name":"OutOfBoundsLeaves","inputs":[]},{"type":"error","name":"ProofExhausted","inputs":[]},{"type":"error","name":"StateCommitmentNotFound","inputs":[]},{"type":"error","name":"UnconsumedProof","inputs":[]},{"type":"error","name":"UnknownMessage","inputs":[]},{"type":"error","name":"UnsortedLeaves","inputs":[]}],"bytecode":{"object":"0x608080604052346015576146b4908161001a8239f35b5f80fdfe60806040526004361015610011575f80fd5b5f3560e01c806301ffc9a714610094578063089b174c1461008f578063191c872b1461008a578063698b1267146100855780638958402a14610080578063a33c47061461007b578063bb1689be146100765763e407f86b14610071575f80fd5b6104dc565b610475565b6103e3565b610351565b6102bf565b6101f1565b610139565b346100e85760203660031901126100e85760043563ffffffff60e01b81168091036100e857630d79f4f960e01b81149081156100d7575b50151560805260206080f35b6301ffc9a760e01b149050816100cb565b5f80fd5b6001600160a01b038116036100e857565b9060406003198301126100e857600435610116816100ec565b916024356001600160401b0381116100e857608090600401809203126100e85790565b346100e857610147366100fd565b604051630153df6760e21b81526020816004816001600160a01b0387165afa9081156101ec575f916101bd575b5061017e81610601565b600181149081156101a9575b5061019a5761019891610b73565b005b631c6d5f7760e31b5f5260045ffd5b600391506101b681610601565b145f61018a565b6101df915060203d6020116101e5575b6101d781836105bd565b8101906105de565b5f610174565b503d6101cd565b6105f6565b346100e8576101ff366100fd565b604051630153df6760e21b81526020816004816001600160a01b0387165afa9081156101ec575f91610264575b5061023681610601565b60018114908115610250575b5061019a5761019891611104565b6003915061025d81610601565b145f610242565b61027d915060203d6020116101e5576101d781836105bd565b5f61022c565b9060406003198301126100e85760043561029c816100ec565b916024356001600160401b0381116100e857604090600401809203126100e85790565b346100e8576102cd36610283565b604051630153df6760e21b81526020816004816001600160a01b0387165afa9081156101ec575f91610332575b5061030481610601565b6001811490811561031e575b5061019a5761019891611516565b6003915061032b81610601565b145f610310565b61034b915060203d6020116101e5576101d781836105bd565b5f6102fa565b346100e85761035f36610283565b604051630153df6760e21b81526020816004816001600160a01b0387165afa9081156101ec575f916103c4575b5061039681610601565b600181149081156103b0575b5061019a5761019891611992565b600391506103bd81610601565b145f6103a2565b6103dd915060203d6020116101e5576101d781836105bd565b5f61038c565b346100e8576103f136610283565b604051630153df6760e21b81526020816004816001600160a01b0387165afa9081156101ec575f91610456575b5061042881610601565b60018114908115610442575b5061019a5761019891611e89565b6003915061044f81610601565b145f610434565b61046f915060203d6020116101e5576101d781836105bd565b5f61041e565b346100e85760403660031901126100e857600435610492816100ec565b602435906001600160401b0382116100e857366023830112156100e8578160040135906001600160401b0382116100e85736602483850101116100e8576024610198930190612116565b346100e8576104ea366100fd565b604051630153df6760e21b81526020816004816001600160a01b0387165afa9081156101ec575f9161054f575b5061052181610601565b6001811490811561053b575b5061019a5761019891612617565b6003915061054881610601565b145f61052d565b610568915060203d6020116101e5576101d781836105bd565b5f610517565b634e487b7160e01b5f52604160045260245ffd5b606081019081106001600160401b0382111761059d57604052565b61056e565b604081019081106001600160401b0382111761059d57604052565b90601f801991011681019081106001600160401b0382111761059d57604052565b908160209103126100e8575160048110156100e85790565b6040513d5f823e3d90fd5b6004111561060b57565b634e487b7160e01b5f52602160045260245ffd5b908160209103126100e8575190565b634e487b7160e01b5f52601160045260245ffd5b5f1981019190821161065057565b61062e565b602003906020821161065057565b9190820391821161065057565b6040519061067f60e0836105bd565b565b6040519061067f610100836105bd565b6040519061067f6040836105bd565b6040519061067f6060836105bd565b91908260609103126100e8576040516106c781610582565b604080829480518452602081015160208501520151910152565b906060828203126100e8576106f5916106af565b90565b903590601e19813603018212156100e857018035906001600160401b0382116100e857602001918160051b360383136100e857565b634e487b7160e01b5f52603260045260245ffd5b91908110156107635760051b8101359060de19813603018212156100e8570190565b61072d565b6001600160401b03811161059d57601f01601f191660200190565b81601f820112156100e85780359061079a82610768565b926107a860405194856105bd565b828452602083830101116100e857815f926020809301838601378301015290565b35906001600160401b03821682036100e857565b91909160e0818403126100e8576107f2610670565b9281356001600160401b0381116100e8578161080f918401610783565b845260208201356001600160401b0381116100e85781610830918401610783565b6020850152610841604083016107c9565b604085015260608201356001600160401b0381116100e85781610865918401610783565b606085015260808201356001600160401b0381116100e85781610889918401610783565b608085015261089a60a083016107c9565b60a085015260c08201356001600160401b0381116100e8576108bc9201610783565b60c0830152565b6106f59036906107dd565b908160409103126100e8576020604051916108e8836105a2565b8051835201516108f7816100ec565b602082015290565b6001600160401b03811161059d5760051b60200190565b6040805190919061092783826105bd565b6001815291601f1901825f5b82811061093f57505050565b806060602080938501015201610933565b6040519061095f6020836105bd565b5f8252565b604051906109736040836105bd565b600f82526e52657175657374526563656970747360881b6020830152565b906040519160208301526020825261067f6040836105bd565b805191908290602001825e015f815290565b61067f906109de6109d8949360405195869360208501906109aa565b906109aa565b03601f1981018452836105bd565b8051156107635760200190565b80518210156107635760209160051b010190565b929190610a19816108ff565b93610a2760405195866105bd565b602085838152019160051b8101918383116100e85781905b838210610a4d575050505050565b81356001600160401b0381116100e857602091610a6d8784938701610783565b815201910190610a3f565b5f9103126100e857565b805180835260209291819084018484015e5f828201840152601f01601f1916010190565b6106f59160c0610b11610aff610ada610ac8865160e0875260e0870190610a82565b60208701518682036020880152610a82565b6001600160401b03604087015116604086015260608601518582036060870152610a82565b60808501518482036080860152610a82565b60a0808501516001600160401b0316908401529201519060c0818403910152610a82565b610b6f610b5060609396959496608084526080840190610aa6565b8651602084810191909152909601516001600160a01b03166040830152565b0152565b60408051631a880a9360e01b81526020848101803560048401529285013560248301526001600160a01b039390931692816044815f875af180156101ec57610bc3915f91610e98575b5042610663565b60405163f3f480d960e01b815290602082600481875afa9182156101ec575f92610e67575b508115159182610e5d575b5050610e4e5760405163a70a8c4760e01b81528135600482015260209091013560248201526060816044815f865af19081156101ec575f91610e1f575b506040810192835115610e1057610c4781806106f8565b9390505f5b848110610c5b57505050505050565b610c77610c7282610c6c86806106f8565b90610741565b6108c3565b90610c818261286b565b6001600160401b038651911611610e0157610c9b82612889565b60408051630da2fd1960e21b8152600481018390529193919081602481885afa9081156101ec575f91610dd3575b506020810151610ce9906001600160a01b03165b6001600160a01b031690565b15610dc4576020610d50610d4b610cfe610916565b610d18610d09610964565b610d128a610991565b906109bc565b610d21826109ec565b52610d2b816109ec565b508c51610d45610d3e60608d018d6106f8565b3691610a0d565b906129e5565b6109ec565b51015151610db557843b156100e8575f91610d7f60405195869384936325a377d560e11b855260048501610b35565b038183875af19182156101ec57600192610d9b575b5001610c4c565b80610da95f610daf936105bd565b80610a78565b5f610d94565b6309bde33960e01b5f5260045ffd5b63f058bfd960e01b5f5260045ffd5b610df4915060403d8111610dfa575b610dec81836105bd565b8101906108ce565b5f610cc9565b503d610de2565b6348e8dd2f60e11b5f5260045ffd5b6353ae552b60e11b5f5260045ffd5b610e41915060603d606011610e47575b610e3981836105bd565b8101906106e1565b5f610c30565b503d610e2f565b63048c969960e01b5f5260045ffd5b1190505f80610bf3565b610e8a91925060203d602011610e91575b610e8281836105bd565b81019061061f565b905f610be8565b503d610e78565b610eb1915060203d602011610e9157610e8281836105bd565b5f610bbc565b91908110156107635760051b8101359060fe19813603018212156100e8570190565b359061067f826100ec565b9080601f830112156100e8578160206106f593359101610a0d565b919091610100818403126100e857610f15610681565b9281356001600160401b0381116100e85781610f32918401610783565b845260208201356001600160401b0381116100e85781610f53918401610783565b6020850152610f64604083016107c9565b6040850152610f7560608301610ed9565b6060850152610f86608083016107c9565b608085015260a08201356001600160401b0381116100e85781610faa918401610ee4565b60a0850152610fbb60c083016107c9565b60c085015260e08201356001600160401b0381116100e857610fdd9201610783565b60e0830152565b6106f5903690610eff565b9080602083519182815201916020808360051b8301019401925f915b83831061101a57505050505090565b9091929394602080611038600193601f198682030187528951610a82565b9701930193019193929061100b565b6106f59160e06110c561107a61106885516101008652610100860190610a82565b60208601518582036020870152610a82565b6040858101516001600160401b0316908501526060858101516001600160a01b0316908501526080858101516001600160401b03169085015260a085015184820360a0860152610fef565b60c0808501516001600160401b0316908401529201519060e0818403910152610a82565b610b6f610b5060609396959496608084526080840190611047565b60408051631a880a9360e01b81526020848101803560048401529285013560248301526001600160a01b039390931692816044815f875af180156101ec57611153915f91610e98575042610663565b60405163f3f480d960e01b815290602082600481875afa9182156101ec575f9261132c575b508115159182611322575b5050610e4e5760405163a70a8c4760e01b81528135600482015260209091013560248201526060816044815f865af19081156101ec575f91611303575b506040810192835115610e10576111d781806106f8565b9390505f5b8481106111eb57505050505050565b611207611202826111fc86806106f8565b90610eb7565b610fe4565b9061121182612c59565b6001600160401b038651911611610e015761122b82612c77565b60408051630da2fd1960e21b8152600481018390529193919081602481885afa9081156101ec575f916112e5575b506020810151611271906001600160a01b0316610cdd565b15610dc4576020611286610d4b610cfe610916565b51015151610db557843b156100e8575f916112b56040519586938493636d6c231360e01b8552600485016110e9565b038183875af19182156101ec576001926112d1575b50016111dc565b80610da95f6112df936105bd565b5f6112ca565b6112fd915060403d8111610dfa57610dec81836105bd565b5f611259565b61131c915060603d606011610e4757610e3981836105bd565b5f6111c0565b1190505f80611183565b61134691925060203d602011610e9157610e8281836105bd565b905f611178565b903590607e19813603018212156100e8570190565b9061136c826108ff565b61137960405191826105bd565b828152809261138a601f19916108ff565b01905f5b82811061139a57505050565b6020906040516113a9816105a2565b5f81525f838201528282850101520161138e565b91908110156107635760051b81013590603e19813603018212156100e8570190565b6040813603126100e857604051906113f6826105a2565b8035906001600160401b0382116100e857611416602092369083016107dd565b83520135602082015290565b81601f820112156100e85780519061143982610768565b9261144760405194856105bd565b828452602083830101116100e857815f9260208093018386015e8301015290565b906020828203126100e85781516001600160401b0381116100e8576106f59201611422565b908160209103126100e857516106f5816100ec565b9291906114ae816108ff565b936114bc60405195866105bd565b602085838152019160051b81019283116100e857905b8282106114de57505050565b81358152602091820191016114d2565b90611506602091949394604084526040840190610aa6565b6001600160a01b03909416910152565b6001600160a01b03169061155a602061152f838061134d565b604051631a880a9360e01b815281356004820152602090910135602482015291829081906044820190565b03815f875af180156101ec57611577915f91610e98575042610663565b60405163f3f480d960e01b815290602082600481875afa9182156101ec575f92611884575b50811515918261187a575b5050610e4e57602081016115bb81836106f8565b9290506115c783611362565b5f5b848110611718575061160b60606115e0848061134d565b60405163a70a8c4760e01b815281356004820152602090910135602482015291829081906044820190565b03815f8a5af180156101ec576020915f916116f9575b500151908115610e105761166561166b9161166f9361164d611643878061134d565b60408101906106f8565b9390606061165b898061134d565b01359436916114a2565b90612ca1565b1590565b610db5575f5b838110611683575050505050565b61169f61169a8261169486866106f8565b906113bd565b6113df565b5190853b156100e8575f6116c9926040518094819263b85e6fbb60e01b83523390600484016114ee565b0381838a5af19182156101ec576001926116e5575b5001611675565b80610da95f6116f3936105bd565b5f6116de565b611712915060603d606011610e4757610e3981836105bd565b5f611621565b61172961169a8261169487876106f8565b9060208251015160405163f437bc5960e01b81525f816004818c5afa80156101ec576117609261166b925f92611856575b50612c80565b6118475761177d611771835161286b565b6001600160401b031690565b4210156118385761178e8251612889565b604051630cb33d1f60e11b8152600481018290526020816024818c5afa9081156101ec575f9161180a575b506001600160a01b03166117fb5760206001930151906117d7610691565b91825260208201526117e982856109f9565b526117f481846109f9565b50016115c9565b63156a571760e11b5f5260045ffd5b61182b915060203d8111611831575b61182381836105bd565b81019061148d565b5f6117b9565b503d611819565b631676f4b360e01b5f5260045ffd5b6390d4c20960e01b5f5260045ffd5b6118739192503d805f833e61186b81836105bd565b810190611468565b905f61175a565b1190505f806115a7565b61189e91925060203d602011610e9157610e8281836105bd565b905f61159c565b9190916060818403126100e857604051906118bf82610582565b819381356001600160401b0381116100e857816118dd9184016107dd565b83526020820135906001600160401b0382116100e857826119076040949261191294869401610783565b6020860152016107c9565b910152565b6040813603126100e8576040519061192e826105a2565b8035906001600160401b0382116100e857611416602092369083016118a5565b9060406001600160401b0381611970610ac88651606087526060870190610aa6565b9401511691015290565b9061150660209194939460408452604084019061194e565b6001600160a01b0316906119ab602061152f838061134d565b03815f875af180156101ec576119c8915f91610e98575042610663565b60405163f3f480d960e01b815290602082600481875afa9182156101ec575f92611c51575b508115159182611c47575b5050610e4e5760208101611a0c81836106f8565b929050611a1883611362565b5f5b848110611b0c5750611a3160606115e0848061134d565b03815f8a5af180156101ec576020915f91611aed575b500151908115610e105761166561166b91611a699361164d611643878061134d565b610db5575f5b838110611a7d575050505050565b611a93611a8e8261169486866106f8565b611917565b5190853b156100e8575f611abd926040518094819263ab013de160e01b835233906004840161197a565b0381838a5af19182156101ec57600192611ad9575b5001611a6f565b80610da95f611ae7936105bd565b5f611ad2565b611b06915060603d606011610e4757610e3981836105bd565b5f611a47565b611b1d611a8e8261169487876106f8565b90611b2b6117718351612cb1565b42101561183857611b606040611b42845151612889565b815180938192630da2fd1960e21b8352600483019190602083019252565b03818b5afa80156101ec576020610cdd91611b8b935f91611c29575b5001516001600160a01b031690565b15610db557611bbd6040611b9f8451612ccf565b81518093819263442b19bf60e11b8352600483019190602083019252565b03818b5afa80156101ec576020610cdd91611be7935f91611c29575001516001600160a01b031690565b6117fb5781611bfd602060019401519151612ccf565b611c05610691565b9182526020820152611c1782856109f9565b52611c2281846109f9565b5001611a1a565b611c41915060403d8111610dfa57610dec81836105bd565b5f611b7c565b1190505f806119f8565b611c6b91925060203d602011610e9157610e8281836105bd565b905f6119ed565b906040823603126100e857604051611c89816105a2565b82356001600160401b0381116100e8578301926040843603126100e85760405193611cb3856105a2565b80356001600160401b0381116100e857611cd09036908301610eff565b85526020810135906001600160401b0382116100e857019336601f860112156100e857843594611cff866108ff565b90611d0d60405192836105bd565b86825260208083019760051b820101903682116100e85760208101975b828910611d4a575050506020809495965082015283520135602082015290565b88356001600160401b0381116100e85782016040601f1982360301126100e85760405191611d77836105a2565b60208201356001600160401b0381116100e857611d9a9060203691850101610783565b83526040820135926001600160401b0384116100e857611dc36020949385809536920101610783565b83820152815201980197611d2a565b929190604084526020611df082516040808801526080870190611047565b91015190603f19858203016060860152815180825260208201916020808360051b8301019401925f915b838310611e3c57505050505090602061067f9294019060018060a01b03169052565b9091929394602080611e7a600193601f1986820301875289519083611e6a8351604084526040840190610a82565b9201519084818403910152610a82565b97019301930191939290611e1a565b6001600160a01b031690611ea2602061152f838061134d565b03815f875af180156101ec57611ebf915f91610e98575042610663565b60405163f3f480d960e01b815290602082600481875afa9182156101ec575f926120f5575b5081151591826120eb575b5050610e4e5760208101611f0381836106f8565b929050611f0f83611362565b5f5b8481106120035750611f2860606115e0848061134d565b03815f8a5af180156101ec576020915f91611fe4575b500151908115610e105761166561166b91611f609361164d611643878061134d565b610db5575f5b838110611f74575050505050565b611f8a611f858261169486866106f8565b611c72565b5190853b156100e8575f611fb49260405180948192633f228d0760e21b8352339060048401611dd2565b0381838a5af19182156101ec57600192611fd0575b5001611f66565b80610da95f611fde936105bd565b5f611fc9565b611ffd915060603d606011610e4757610e3981836105bd565b5f611f3e565b612014611f858261169487876106f8565b90612020825151612c77565b60408051630da2fd1960e21b81526004810183905290816024818c5afa80156101ec576020610cdd91612062935f91611c29575001516001600160a01b031690565b15610dc4576040805163442b19bf60e11b81526004810192909252816024818b5afa80156101ec576020610cdd916120a9935f91611c29575001516001600160a01b031690565b6117fb57816120bf602060019401519151612d27565b6120c7610691565b91825260208201526120d982856109f9565b526120e481846109f9565b5001611f11565b1190505f80611eef565b61210f91925060203d602011610e9157610e8281836105bd565b905f611ee4565b604051630153df6760e21b81526020816004816001600160a01b0386165afa9081156101ec575f91612466575b5061214d81610601565b60018114908115612452575b5061019a576040516326a1096f60e21b81526001600160a01b03919091169290602081600481875afa80156101ec57612199915f91610e98575042610663565b60405163d40784c760e01b815290602082600481885afa9182156101ec575f92612431575b50101561242257604051632476132b60e01b815290602082600481875afa9182156101ec575f92612401575b50604051632eeb667560e21b8152915f83600481885afa9384156101ec57612233945f9485916123e7575b50604051630faeaab360e31b81529586948593849360048501612556565b03916001600160a01b03165afa9081156101ec575f905f926123c2575b50823b156100e8575f6122779160405180938192630b4974cf60e41b835260048301612590565b038183875af180156101ec576123ae575b508051905f5b82811061229b5750505050565b6122a581836109f9565b518051604051634e04afc360e11b81526004810191909152909190602081602481895afa9081156101ec575f91612390575b508015159081612382575b506122f2575b600191500161228e565b60408251926020810151612304610691565b9485526020850152015191853b156100e85760408051632acf7f4f60e11b815282516004820152602092830151602482015284516044820152918401516064830152929092015160848301525f8260a48183895af19182156101ec5760019261236e575b506122e8565b80610da95f61237c936105bd565b5f612368565b90506020830151115f6122e2565b6123a8915060203d8111610e9157610e8281836105bd565b5f6122d7565b80610da95f6123bc936105bd565b5f612288565b90506123e091503d805f833e6123d881836105bd565b810190612485565b905f612250565b6123fb91503d8087833e61186b81836105bd565b5f612215565b61241b91925060203d6020116118315761182381836105bd565b905f6121ea565b63040dc5c360e41b5f5260045ffd5b61244b91925060203d602011610e9157610e8281836105bd565b905f6121be565b6003915061245f81610601565b145f612159565b61247f915060203d6020116101e5576101d781836105bd565b5f612143565b91906040838203126100e85782516001600160401b0381116100e857816124ad918501611422565b926020810151906001600160401b0382116100e8570181601f820112156100e8578051906124da826108ff565b926124e860405194856105bd565b828452602060a08186019402830101918183116100e857602001925b828410612512575050505090565b60a0848303126100e857602060a09160405161252d81610582565b86518152828701518382015261254685604089016106af565b6040820152815201930192612504565b919260209361256e8293604086526040860190610a82565b9385818603910152818452848401375f828201840152601f01601f1916010190565b9060206106f5928181520190610a82565b91908110156107635760051b81013590605e19813603018212156100e8570190565b6106f59036906118a5565b604051906125dd6040836105bd565b601082526f526573706f6e7365526563656970747360801b6020830152565b610b6f610b506060939695949660808452608084019061194e565b60408051631a880a9360e01b81526020848101803560048401529285013560248301526001600160a01b039390931692816044815f875af180156101ec57612666915f91610e98575042610663565b60405163f3f480d960e01b815290602082600481875afa9182156101ec575f9261284a575b508115159182612840575b5050610e4e5760405163a70a8c4760e01b81528135600482015260209091013560248201526060816044815f865af19081156101ec575f91612821575b506040810192835115610e10576126ea81806106f8565b9390505f5b8481106126fe57505050505050565b61271a6127158261270f86806106f8565b906125a1565b6125c3565b9061272482612cb1565b6001600160401b038651911611610e015761273e82612ccf565b60408051632211f1dd60e01b8152600481018390529193919081602481885afa9081156101ec575f91612803575b506020810151612784906001600160a01b0316610cdd565b15610dc45760206127a4610d4b612799610916565b610d18610d096125ce565b51015151610db557843b156100e8575f916127d36040519586938493630446fc4760e01b8552600485016125fc565b038183875af19182156101ec576001926127ef575b50016126ef565b80610da95f6127fd936105bd565b5f6127e8565b61281b915060403d8111610dfa57610dec81836105bd565b5f61276c565b61283a915060603d606011610e4757610e3981836105bd565b5f6126d3565b1190505f80612696565b61286491925060203d602011610e9157610e8281836105bd565b905f61268b565b60a001516001600160401b0316806106f557506001600160401b0390565b61289290612d99565b6020815191012090565b906128a6826108ff565b6128b360405191826105bd565b82815280926128c4601f19916108ff565b01905f5b8281106128d457505050565b6020906040516128e381610582565b606081526060838201525f6040820152828285010152016128c8565b90612909826108ff565b61291660405191826105bd565b8281528092612927601f19916108ff565b01905f5b82811061293757505050565b602090604051612946816105a2565b5f81526060838201528282850101520161292b565b5f1981146106505760010190565b60405190608082018281106001600160401b0382111761059d57604052606080835f81525f60208201525f60408201520152565b9060108110156107635760051b0190565b906001820180921161065057565b9060ff820180921161065057565b906002820180921161065057565b9190820180921161065057565b926129f0835161289c565b6129fa83516128ff565b945f5b8451811015612a525780612a13600192876109f9565b5160208151910120612a2582886109f9565b51612a2e610691565b9182526020820152612a40828a6109f9565b52612a4b81896109f9565b50016129fd565b5091939092505f5b8151811015612c5157612a6d81836109f9565b51612a7882866109f9565b5152612a8481836109f9565b51612a8d610691565b9081525f602082015290612aa9612aa48589612e12565b612efa565b91600192835b612ac0575b50506001915001612a5a565b612ac8612969565b93612ad28261304d565b15612b35575060019350612ae8612af09161348e565b918251613579565b612afb575b80612ab4565b6020612b0991015188613430565b6020612b1583886109f9565b510152612b2f6040612b2783886109f9565b510160019052565b5f612af5565b9193612b408261306a565b15612c345750612b4f90613124565b92612b5a8451613375565b90612b6961166b86518361339c565b612c2e5781612b7782613375565b03612bc9575050506020600192612b936040612b27858a6109f9565b015180511515600114612ba65780612ab4565b6020612bb491015188613430565b6020612bc083886109f9565b5101525f612af5565b909193612be4906040612bdc85856133af565b91015161299d565b5191612bf4836001905115151490565b15612c2e57612aa46020612c17612c2794612c11612c21956129ae565b906133fe565b9401515b8b613430565b9361295b565b9283612aaf565b50612ab4565b9051919391612c4c57612c21612aa4612c2792612c1b565b612ab4565b509193505050565b608001516001600160401b0316806106f557506001600160401b0390565b612892906135f6565b9081519080518203612c9a57816020809201209201201490565b5050505f90565b929091612cad9261370c565b1490565b604001516001600160401b0316806106f557506001600160401b0390565b612d0061289291612d226008612ce58351612d99565b926040602082015191015160405195869260208401906109aa565b906001600160401b0360c01b9060c01b168152036017198101855201836105bd565b6109bc565b906020604051612d386020826105bd565b5f81529060208401805151905f925b828410612d605750505050612d226128929293516135f6565b90919293612d8f600191610d12612d788887516109f9565b515185612d868a89516109f9565b510151906109bc565b9401929190612d47565b6106f56020612e048351936109d883820151916109d86040820151601060a084015191606085015192612de160c06080880151970151986109d86040519e8f9d8e01906109aa565b6001600160c01b031960c093841b811682529190921b16600882015201906109aa565b03601f1981018352826105bd565b5f5b8151811015612e4a5782612e2882846109f9565b515114612e3757600101612e14565b60209250612e44916109f9565b51015190565b60405162461bcd60e51b8152602060048201526011602482015270496e636f6d706c6574652050726f6f662160781b6044820152606490fd5b60405190612e90826105a2565b5f602083606081520152565b6040519061014082018281106001600160401b0382111761059d57604052815f81525f60208201525f60408201525f60608201525f60808201525f60a08201525f60c08201525f60e08201525f610100820152610120611912612e83565b612f02612e9c565b50612f0b612e9c565b90612f14610691565b9081525f6020820152612f26816139c1565b5f60ff82161561304357829060c0831660408103612f60575050612f4991613aeb565b610100830152600160208301525b61012082015290565b60c08103612f85575050612f7391613aeb565b61010083015260016060830152612f57565b60808103612faa575050612f9891613aeb565b610100830152600160a0830152612f57565b149050612fb8575b50612f57565b81602060e0831603612fe157612fcd91613a9f565b610100830152600160408301525b5f612fb2565b50601060f08216036130095781612ff791613a3b565b61010083015260016080830152612fdb565b60405162461bcd60e51b8152602060048201526012602482015271556e616c6c6f77656420656e636f64696e6760701b6044820152606490fd5b5050600182525090565b6020810151159081159161305f575090565b604091500151151590565b60a0810151159081159161308e575b8115613083575090565b606091500151151590565b608081015115159150613079565b604051906130a9826105a2565b815f81526020611912612969565b604051906130c482610582565b816130cd612e83565b81526130d761309c565b6020820152604051906102006130ed81846105bd565b5f5b8181106130fe57505060400152565b60209061310961309c565b81860152016130ef565b908151811015610763570160200190565b61312c6130b7565b506131356130b7565b9061012081015161010082019161314d835160011690565b151580613321575b6132ee5782519261318561317d613177613171600180986129d8565b60011c90565b85613ce5565b915160011690565b61318d610691565b918252602082015284526131b26131ab6131a684613b37565b613dd1565b61ffff1690565b906131bb61309c565b906131c96080820151151590565b156132b1575060018152602081016131e2815160019052565b60206131f56131f086613c13565b61403a565b915101525b6020850152604084015f5b6010811061321557505050505090565b80613250869261322361309c565b6132388288600161ffff8093161b1616151590565b613257575b85519061324a838361299d565b5261299d565b5001613205565b6001815261326488613ed7565b6020810361329357506020810161327c815160019052565b602061328a6131f08b613c13565b9151015261323d565b606061328a60208401926132ab604085510160019052565b8b613ce5565b60600151156131fa576132c383613ed7565b6001825260606132e560208401926132df604085510160019052565b86613ce5565b915101526131fa565b60405162461bcd60e51b815260206004820152600b60248201526a42616420466f726d61742160a81b6044820152606490fd5b5060ff61335761335161334b61333d8651602088015190613113565b516001600160f81b03191690565b60f81c90565b60f01690565b161515613155565b908160011b918083046002149015171561065057565b805151908160011b9180830460021490151715610650576020015181039081116106505790565b6133a982612cad9261409b565b91613375565b9060208201918251928284018094116106505751908282018211610650576002600f9360ff6133e56001948298861c9051613113565b5160f81c169308036133f657161690565b60041c161690565b90613407612e83565b50602082519201519081018091116106505760405191613426836105a2565b8252602082015290565b60408201511561344257506060015190565b815161345e5750506040516134586020826105bd565b5f815290565b60206106f592015190612e12565b60405190613479826105a2565b81613482612e83565b81526020611912612969565b61349661346c565b5061349f61346c565b9061012081015161010082016134b6815160011690565b151580613555575b6132ee576134dd61317d6134d7613171600185516129d8565b84613ce5565b6134e5610691565b9182526020820152835261350460406134fc612969565b930151151590565b1561352c576131f061351f9161351a8460019052565b613c13565b6020820152602082015290565b8061353961354b92613ed7565b6001604085015290613ce5565b613ce5565b60608201526108f7565b5060ff61357161335161334b61333d8651602088015190613113565b1615156134be565b9061358382613375565b61358c82613375565b14918261359857505090565b81612cad9293506133a99161409b565b946109d8946135c76018946109d86106f59c9b996109d89b98966109aa565b6001600160c01b031960c094851b8116825291841b821660088201529190921b909116601082015201906109aa565b906135ff610950565b60a08301928351515f905b8082106136b85750506106f591929350612e0481519160208101519461369861363d60408401516001600160401b031690565b9261365260c08201516001600160401b031690565b60e061366860808401516001600160401b031690565b606084810151604051911b6bffffffffffffffffffffffff19166020820152949093906136a69086906034820190565b03601f1981018752866105bd565b015194604051998a9860208a016135a8565b90926136d26001916136cb8689516109f9565b51906109bc565b93019061360a565b906136e4826108ff565b6136f160405191826105bd565b8281528092613702601f19916108ff565b0190602036910137565b92909282156139b25783519384156139a35760015b8581106139665750600184148061395c575b8061394a575b6139355761374e613749856141df565b6136da565b94613757610691565b945f86526020860196875261376a610691565b925f84526020840194855261377d6106a0565b905f82526020820193845260408201525f91805b613820575b505050516138115751905151036138025781515f190182525b8151156137f2576137bf8261448e565b6137c88361448e565b906137d4845160010190565b84525f5260205260405f206137ec84518451906109f9565b526137af565b916137fe9150516109ec565b5190565b637227423160e11b5f5260045ffd5b63072afb8760e51b5f5260045ffd5b61388a81806fffffffffffffffffffffffffffffffff1060071b81811c6001600160401b031060061b1781811c63ffffffff1060051b1781811c61ffff1060041b1781811c60ff1060031b1781811c600f1060021b1781811c60031060011b1790811c6001101790565b926138a461389c6001861b8094610663565b9283926129d8565b9386856138b18187614224565b92602084015180155f146138e9575050505050508551518551145f0361379657806138e46138de87614472565b8a614457565b613791565b6001148061392d575b156139195750505060206139108260406138e49401519051906109f9565b5101518a614457565b916138e4939160026138de941b03916142ad565b5080156138f2565b92509092505161380257612e446020916109ec565b50613954816109ec565b515115613739565b5060018514613733565b61397081836109f9565b515161398461397e83610642565b846109f9565b5151101561399457600101613721565b630647f54960e21b5f5260045ffd5b631a14a47760e31b5f5260045ffd5b639136328760e01b5f5260045ffd5b60208101908151600181018091116106505781515110613a07575181516001600160f81b0319916139f29190613113565b511660f81c90613a0281516129ae565b905290565b60405162461bcd60e51b815260206004820152600c60248201526b4f7574206f662072616e676560a01b6044820152606490fd5b600f16600f8110613a9a575f198101908111610650575b61ffff811115613a6457505061ffff90565b60ff613a6f836139c1565b1660ff8110613a875750613a82906129bc565b613a52565b810191508110610650576106f5906129ae565b905090565b601f16601f8110613a9a575f198101908111610650575b61ffff811115613ac857505061ffff90565b60ff613ad3836139c1565b1660ff8110613a875750613ae6906129bc565b613ab6565b603f16603f8110613a9a575f198101908111610650575b61ffff811115613b1457505061ffff90565b60ff613b1f836139c1565b1660ff8110613a875750613b32906129bc565b613b02565b6020810180516002810180911161065057825151106100e85760209151828251820101928391011161065057613b6d6002610768565b91613b7b60405193846105bd565b60028352613b896002610768565b6020840190601f19013682379060025b6020811015613be35780613bc457505f19905b811990511690825116179052613a02600282516129d8565b613bd8613bd3613bdd92610655565b614636565b610642565b90613bac565b909182518152602081018091116106505791602081018091116106505790601f19810190811115613b995761062e565b6020810180516020810180911161065057825151106100e85760209151828251820101928391011161065057613c496020610768565b91613c5760405193846105bd565b60208352613c656020610768565b6020840190601f19013682379060205b6020811015613cb55780613ca057505f19905b811990511690825116179052613a02602082516129d8565b613bd8613bd3613caf92610655565b90613c88565b909182518152602081018091116106505791602081018091116106505790601f19810190811115613c755761062e565b919060208301805182810180911161065057845151106100e8578115613dbf5760209351848251820101948591011161065057613d2182610768565b91613d2f60405193846105bd565b808352613d3b81610768565b602084019590601f19013687378195905b6020871015613d9057613a029394959680155f14613d7b57505f19905b518251821691191617905282516129d8565b613bd8613bd3613d8a92610655565b90613d69565b9081518152602081018091116106505790602081018091116106505795601f1981019081116106505795613d4c565b505090506040516134586020826105bd565b80515f91815b613de057505090565b90915f19830183811161065057613df78184613113565b5160f81c90600381901b906001600160fd1b038116036106505760ff8111610650576001901b9081810291818304149015171561065057613e37916129d8565b918015610650575f19019081613dd7565b60ff60049116019060ff821161065057565b15613e6157565b60405162461bcd60e51b815260206004820152602860248201527f756e657870656374656420707265666978206465636f64696e6720436f6d706160448201526731ba1e2ab4b73a1f60c11b6064820152608490fd5b906001600160401b03809116911601906001600160401b03821161065057565b613ee0816139c1565b6003811680613efc57506106f5915060021c603f165b60ff1690565b60018103613f41575061177190613f3b613ef6613f31613f21613ef66106f5976139c1565b60061b67ffffffffffffffc01690565b9260021c603f1690565b90613eb7565b60028103613fc05750613fb790613faa60ff84613f9b82613f646106f5986139c1565b9581613f8a81613f7c613f76886139c1565b976139c1565b991660081b63ffffff001690565b911617921660101b63ffff00001690565b17921660181b63ff0000001690565b1760021c633fffffff1690565b63ffffffff1690565b600303613ff5576106f59160ff613fe6613fe16131a694603f9060021c1690565b613e48565b16906135466008831115613e5a565b60405162461bcd60e51b815260206004820152601a60248201527f436f64652073686f756c6420626520756e726561636861626c650000000000006044820152606490fd5b602081511061404a576020015190565b60405162461bcd60e51b8152602060048201526024808201527f42797465733a3a20746f427974657333323a206461746120697320746f20736860448201526337b93a1760e11b6064820152608490fd5b60208101906140ab825160011690565b9160208401906140bc825160011690565b840361417a57516140d29060011c915160011c90565b915f93614102575b6140fd926140f06106f596936140f793516144f7565b92516144f7565b90614570565b6129d8565b925092600f60f81b61411861333d868651613113565b1661413d600f60f81b61412f61333d868651613113565b166001600160f81b03191690565b03614172576140f76140fd926140f061416161415b6106f59861295b565b9261295b565b9160019693509396505092506140da565b505050505f90565b505091905061419a61418b83613375565b61419483613375565b906144aa565b905f925b8284106141ac575b50505090565b9091926141b981836133af565b6141c382856133af565b036141d9576141d19061295b565b92919061419e565b926141a6565b90815f925b6141eb5750565b915f198301838111610650576001931692839101926141e4565b6040519061421282610582565b60606040835f81525f60208201520152565b61422c614205565b50805161423f60208301918251906129d8565b928251905b848210614286575b5082935061425f613a0292935182610663565b9084519460408101516142706106a0565b9687528360208801526040870152528251610663565b906142958160408601516109f9565b51518211156142a75760010190614244565b9061424c565b919060208301518351936142c0826136da565b936142ca836136da565b955f5b8481106144095750505050935b60016142e5846109ec565b51146143fc575f945f905b8082106143045750508480845284526142da565b909561431087866109f9565b5187878461431d836129ae565b10806143de575b156143855760019261435c8361435461434e61434761437f999761436d976109f9565b51926129ae565b8d6109f9565b519083614616565b614366848c6109f9565b5260011c90565b61437782896109f9565b5201966129ca565b906142f0565b5050845160208601515111156143cf576001916143bb839261435c6143aa8c8c6109f9565b516143b48a614472565b9083614616565b6143c582896109f9565b52019601906142f0565b63d8f29a1560e01b5f5260045ffd5b506143f16143eb836129ae565b896109f9565b516001841814614324565b935050506137fe906109ec565b60019061444260408601602061442a825161442486896129d8565b906109f9565b510151614437848d6109f9565b5251828501906109f9565b51518401614450828a6109f9565b52016142cd565b9061446860208301518351906109f9565b5260018151019052565b61448260208201518251906109f9565b51906001815101905290565b61449e60208201518251906109f9565b5181515f190190915290565b9080821015613a9a575090565b156144be57565b60405162461bcd60e51b8152602060048201526011602482015270736c6963655f6f75744f66426f756e647360781b6044820152606490fd5b908151614510826145088184610663565b9210156144b7565b80614528575050506040515f81526020810160405290565b60405192601f821692831560051b80858701019484860193010101905b80841061455d5750508252601f01601f191660405290565b9092602080918551815201930190614545565b61457d81518351906144aa565b915f915b8383106145945750506106f5915061335f565b90916001600160f81b03196145a98284613113565b51166001600160f81b03196145be8386613113565b5116036145d5576145ce9061295b565b9190614581565b80935060011b91838304600214841517156106505761460a61333d8561460461333d6106f59861461097613113565b93613113565b90614645565b906129d8565b600116614629575f5260205260405f2090565b905f5260205260405f2090565b601f8111610650576101000a90565b906001600160f81b031980831690821603614661575050600290565b60f0809160f81c169160f81c16145f1461467a57600190565b5f9056fea264697066735822122054e875b4cb97bb13ce99e03b50b39a6f388dc4aea0b0ce22da77166536e74db964736f6c634300081e0033","linkReferences":{}},"methodIdentifiers":{"handleConsensus(address,bytes)":"bb1689be","handleGetRequestTimeouts(address,((bytes,bytes,uint64,address,uint64,bytes[],uint64,bytes)[],(uint256,uint256),bytes[]))":"191c872b","handleGetResponses(address,(((uint256,uint256),bytes32[],uint256),(((bytes,bytes,uint64,address,uint64,bytes[],uint64,bytes),(bytes,bytes)[]),uint256)[]))":"a33c4706","handlePostRequestTimeouts(address,((bytes,bytes,uint64,bytes,bytes,uint64,bytes)[],(uint256,uint256),bytes[]))":"089b174c","handlePostRequests(address,(((uint256,uint256),bytes32[],uint256),((bytes,bytes,uint64,bytes,bytes,uint64,bytes),uint256)[]))":"698b1267","handlePostResponseTimeouts(address,(((bytes,bytes,uint64,bytes,bytes,uint64,bytes),bytes,uint64)[],(uint256,uint256),bytes[]))":"e407f86b","handlePostResponses(address,(((uint256,uint256),bytes32[],uint256),(((bytes,bytes,uint64,bytes,bytes,uint64,bytes),bytes,uint64),uint256)[]))":"8958402a","supportsInterface(bytes4)":"01ffc9a7"},"id":157}