{"abi":[{"type":"function","name":"batchCall","inputs":[{"name":"calls","type":"bytes[]","internalType":"bytes[]"}],"outputs":[],"stateMutability":"nonpayable"},{"type":"function","name":"currentEpoch","inputs":[],"outputs":[{"name":"","type":"uint256","internalType":"uint256"}],"stateMutability":"view"},{"type":"function","name":"handleConsensus","inputs":[{"name":"host","type":"address","internalType":"contract IHost"},{"name":"proof","type":"bytes","internalType":"bytes"}],"outputs":[],"stateMutability":"nonpayable"},{"type":"function","name":"handleGetRequestTimeouts","inputs":[{"name":"host","type":"address","internalType":"contract IHost"},{"name":"message","type":"tuple","internalType":"struct GetTimeoutMessage","components":[{"name":"timeouts","type":"tuple[]","internalType":"struct GetRequest[]","components":[{"name":"source","type":"bytes","internalType":"bytes"},{"name":"dest","type":"bytes","internalType":"bytes"},{"name":"nonce","type":"uint64","internalType":"uint64"},{"name":"from","type":"bytes","internalType":"bytes"},{"name":"timeoutTimestamp","type":"uint64","internalType":"uint64"},{"name":"keys","type":"bytes[]","internalType":"bytes[]"},{"name":"height","type":"uint64","internalType":"uint64"},{"name":"context","type":"bytes","internalType":"bytes"}]},{"name":"height","type":"tuple","internalType":"struct StateMachineHeight","components":[{"name":"stateMachineId","type":"uint256","internalType":"uint256"},{"name":"height","type":"uint256","internalType":"uint256"}]},{"name":"proof","type":"bytes[]","internalType":"bytes[]"}]}],"outputs":[],"stateMutability":"nonpayable"},{"type":"function","name":"handleGetResponses","inputs":[{"name":"host","type":"address","internalType":"contract IHost"},{"name":"message","type":"tuple","internalType":"struct GetResponseMessage","components":[{"name":"proof","type":"tuple","internalType":"struct Proof","components":[{"name":"height","type":"tuple","internalType":"struct StateMachineHeight","components":[{"name":"stateMachineId","type":"uint256","internalType":"uint256"},{"name":"height","type":"uint256","internalType":"uint256"}]},{"name":"multiproof","type":"bytes32[]","internalType":"bytes32[]"},{"name":"leafCount","type":"uint256","internalType":"uint256"}]},{"name":"responses","type":"tuple[]","internalType":"struct GetResponseLeaf[]","components":[{"name":"response","type":"tuple","internalType":"struct GetResponse","components":[{"name":"request","type":"tuple","internalType":"struct GetRequest","components":[{"name":"source","type":"bytes","internalType":"bytes"},{"name":"dest","type":"bytes","internalType":"bytes"},{"name":"nonce","type":"uint64","internalType":"uint64"},{"name":"from","type":"bytes","internalType":"bytes"},{"name":"timeoutTimestamp","type":"uint64","internalType":"uint64"},{"name":"keys","type":"bytes[]","internalType":"bytes[]"},{"name":"height","type":"uint64","internalType":"uint64"},{"name":"context","type":"bytes","internalType":"bytes"}]},{"name":"values","type":"tuple[]","internalType":"struct StorageValue[]","components":[{"name":"key","type":"bytes","internalType":"bytes"},{"name":"value","type":"bytes","internalType":"bytes"}]}]},{"name":"index","type":"uint256","internalType":"uint256"}]}]}],"outputs":[],"stateMutability":"nonpayable"},{"type":"function","name":"handlePostRequestTimeouts","inputs":[{"name":"host","type":"address","internalType":"contract IHost"},{"name":"message","type":"tuple","internalType":"struct PostRequestTimeoutMessage","components":[{"name":"timeouts","type":"tuple[]","internalType":"struct PostRequest[]","components":[{"name":"source","type":"bytes","internalType":"bytes"},{"name":"dest","type":"bytes","internalType":"bytes"},{"name":"nonce","type":"uint64","internalType":"uint64"},{"name":"from","type":"bytes","internalType":"bytes"},{"name":"to","type":"bytes","internalType":"bytes"},{"name":"timeoutTimestamp","type":"uint64","internalType":"uint64"},{"name":"body","type":"bytes","internalType":"bytes"}]},{"name":"height","type":"tuple","internalType":"struct StateMachineHeight","components":[{"name":"stateMachineId","type":"uint256","internalType":"uint256"},{"name":"height","type":"uint256","internalType":"uint256"}]},{"name":"proof","type":"bytes[]","internalType":"bytes[]"}]}],"outputs":[],"stateMutability":"nonpayable"},{"type":"function","name":"handlePostRequests","inputs":[{"name":"host","type":"address","internalType":"contract IHost"},{"name":"request","type":"tuple","internalType":"struct PostRequestMessage","components":[{"name":"proof","type":"tuple","internalType":"struct Proof","components":[{"name":"height","type":"tuple","internalType":"struct StateMachineHeight","components":[{"name":"stateMachineId","type":"uint256","internalType":"uint256"},{"name":"height","type":"uint256","internalType":"uint256"}]},{"name":"multiproof","type":"bytes32[]","internalType":"bytes32[]"},{"name":"leafCount","type":"uint256","internalType":"uint256"}]},{"name":"requests","type":"tuple[]","internalType":"struct PostRequestLeaf[]","components":[{"name":"request","type":"tuple","internalType":"struct PostRequest","components":[{"name":"source","type":"bytes","internalType":"bytes"},{"name":"dest","type":"bytes","internalType":"bytes"},{"name":"nonce","type":"uint64","internalType":"uint64"},{"name":"from","type":"bytes","internalType":"bytes"},{"name":"to","type":"bytes","internalType":"bytes"},{"name":"timeoutTimestamp","type":"uint64","internalType":"uint64"},{"name":"body","type":"bytes","internalType":"bytes"}]},{"name":"index","type":"uint256","internalType":"uint256"}]}]}],"outputs":[],"stateMutability":"nonpayable"},{"type":"function","name":"relayerOf","inputs":[{"name":"authoritySetId","type":"uint256","internalType":"uint256"}],"outputs":[{"name":"","type":"address","internalType":"address"}],"stateMutability":"view"},{"type":"function","name":"supportsInterface","inputs":[{"name":"interfaceId","type":"bytes4","internalType":"bytes4"}],"outputs":[{"name":"","type":"bool","internalType":"bool"}],"stateMutability":"view"},{"type":"event","name":"NewEpoch","inputs":[{"name":"authoritySetId","type":"uint256","indexed":true,"internalType":"uint256"},{"name":"relayer","type":"address","indexed":true,"internalType":"address"}],"anonymous":false},{"type":"error","name":"BatchCallFailed","inputs":[{"name":"index","type":"uint256","internalType":"uint256"},{"name":"reason","type":"bytes","internalType":"bytes"}]},{"type":"error","name":"ChallengePeriodNotElapsed","inputs":[]},{"type":"error","name":"ConsensusClientExpired","inputs":[]},{"type":"error","name":"DuplicateMessage","inputs":[]},{"type":"error","name":"EmptyLeaves","inputs":[]},{"type":"error","name":"EmptyTree","inputs":[]},{"type":"error","name":"HostFrozen","inputs":[]},{"type":"error","name":"InvalidMessageDestination","inputs":[]},{"type":"error","name":"InvalidProof","inputs":[]},{"type":"error","name":"MessageNotTimedOut","inputs":[]},{"type":"error","name":"MessageTimedOut","inputs":[]},{"type":"error","name":"OutOfBoundsLeaves","inputs":[]},{"type":"error","name":"ProofExhausted","inputs":[]},{"type":"error","name":"StateCommitmentNotFound","inputs":[]},{"type":"error","name":"UnconsumedProof","inputs":[]},{"type":"error","name":"UnknownMessage","inputs":[]},{"type":"error","name":"UnsortedLeaves","inputs":[]}],"bytecode":{"object":"0x60808060405234601557613eb5908161001a8239f35b5f80fdfe60806040526004361015610011575f80fd5b5f3560e01c806301ffc9a7146100a4578063089b174c1461009f5780634130514b1461009a57806368be3cf214610095578063698b126714610090578063766718081461008b57806390642f2e14610086578063bb1689be146100815763ef7baa0b1461007c575f80fd5b6106b8565b610651565b610620565b610603565b610567565b610477565b610235565b61017d565b3461012c57602036600319011261012c5760043563ffffffff60e01b811680910361012c57631cf34b2760e01b811490811561011b575b811561010a575b81156100f9575b501515608052607f1960a0016080f35b6301ffc9a760e01b149050816100e9565b631a1ec69760e21b811491506100e2565b63744d77d560e01b811491506100db565b5f80fd5b6001600160a01b0381160361012c57565b90604060031983011261012c5760043561015a81610130565b916024356001600160401b03811161012c576080906004018092031261012c5790565b3461012c5761018b36610141565b604051630153df6760e21b81526020816004816001600160a01b0387165afa908115610230575f91610201575b506101c28161076d565b600181149081156101ed575b506101de576101dc91610b9c565b005b631c6d5f7760e31b5f5260045ffd5b600391506101fa8161076d565b145f6101ce565b610223915060203d602011610229575b61021b8183610316565b81019061074a565b5f6101b8565b503d610211565b610762565b3461012c5761024336610141565b604051630153df6760e21b81526020816004816001600160a01b0387165afa908115610230575f916102a8575b5061027a8161076d565b60018114908115610294575b506101de576101dc9161110a565b600391506102a18161076d565b145f610286565b6102c1915060203d6020116102295761021b8183610316565b5f610270565b634e487b7160e01b5f52604160045260245ffd5b606081019081106001600160401b038211176102f657604052565b6102c7565b604081019081106001600160401b038211176102f657604052565b90601f801991011681019081106001600160401b038211176102f657604052565b6040519061034660e083610316565b565b6040519061034661010083610316565b60405190610346604083610316565b60405190610346606083610316565b6001600160401b0381116102f65760051b60200190565b6001600160401b0381116102f657601f01601f191660200190565b81601f8201121561012c578035906103bf8261038d565b926103cd6040519485610316565b8284526020838301011161012c57815f926020809301838601378301015290565b9291906103fa81610376565b936104086040519586610316565b602085838152019160051b81019183831161012c5781905b83821061042e575050505050565b81356001600160401b03811161012c5760209161044e87849387016103a8565b815201910190610420565b9080601f8301121561012c57816020610474933591016103ee565b90565b3461012c57602036600319011261012c576004356001600160401b03811161012c576104a7903690600401610459565b8051905f5b8281106104b557005b5f806104c18385610a97565b51602081519101305af43d15610523573d906104dc8261038d565b916104ea6040519384610316565b82523d5f602084013e5b1561050257506001016104ac565b60405163651ab1b360e01b815291829161051f9160048401611353565b0390fd5b6060906104f4565b90604060031983011261012c5760043561054481610130565b916024356001600160401b03811161012c576040906004018092031261012c5790565b3461012c576105753661052b565b604051630153df6760e21b81526020816004816001600160a01b0387165afa908115610230575f916105da575b506105ac8161076d565b600181149081156105c6575b506101de576101dc91611533565b600391506105d38161076d565b145f6105b8565b6105f3915060203d6020116102295761021b8183610316565b5f6105a2565b5f91031261012c57565b3461012c575f36600319011261012c576020600154604051908152f35b3461012c57602036600319011261012c576004355f525f602052602060018060a01b0360405f205416604051908152f35b3461012c57604036600319011261012c5760043561066e81610130565b602435906001600160401b03821161012c573660238301121561012c578160040135906001600160401b03821161012c57366024838501011161012c5760246101dc9301906118c2565b3461012c576106c63661052b565b604051630153df6760e21b81526020816004816001600160a01b0387165afa908115610230575f9161072b575b506106fd8161076d565b60018114908115610717575b506101de576101dc91611fff565b600391506107248161076d565b145f610709565b610744915060203d6020116102295761021b8183610316565b5f6106f3565b9081602091031261012c5751600481101561012c5790565b6040513d5f823e3d90fd5b6004111561077757565b634e487b7160e01b5f52602160045260245ffd5b9081602091031261012c575190565b634e487b7160e01b5f52601160045260245ffd5b5f198101919082116107bc57565b61079a565b60200390602082116107bc57565b919082039182116107bc57565b919082606091031261012c576040516107f4816102db565b604080829480518452602081015160208501520151910152565b9060608282031261012c57610474916107dc565b903590601e198136030182121561012c57018035906001600160401b03821161012c57602001918160051b3603831361012c57565b634e487b7160e01b5f52603260045260245ffd5b919081101561088d5760051b8101359060de198136030182121561012c570190565b610857565b35906001600160401b038216820361012c57565b91909160e08184031261012c576108bb610337565b9281356001600160401b03811161012c57816108d89184016103a8565b845260208201356001600160401b03811161012c57816108f99184016103a8565b602085015261090a60408301610892565b604085015260608201356001600160401b03811161012c578161092e9184016103a8565b606085015260808201356001600160401b03811161012c57816109529184016103a8565b608085015261096360a08301610892565b60a085015260c08201356001600160401b03811161012c5761098592016103a8565b60c0830152565b6104749036906108a6565b9081604091031261012c576020604051916109b1836102fb565b8051835201516109c081610130565b602082015290565b604080519091906109d98382610316565b6001815291601f1901825f5b8281106109f157505050565b8060606020809385010152016109e5565b60405190610a11604083610316565b600f82526e52657175657374526563656970747360881b6020830152565b9060405191602083015260208252610346604083610316565b805191908290602001825e015f815290565b61034690610a7c610a7694936040519586936020850190610a48565b90610a48565b03601f198101845283610316565b80511561088d5760200190565b805182101561088d5760209160051b010190565b805180835260209291819084018484015e5f828201840152601f01601f1916010190565b6104749160c0610b3a610b28610b03610af1865160e0875260e0870190610aab565b60208701518682036020880152610aab565b6001600160401b03604087015116604086015260608601518582036060870152610aab565b60808501518482036080860152610aab565b60a0808501516001600160401b0316908401529201519060c0818403910152610aab565b610b98610b7960609396959496608084526080840190610acf565b8651602084810191909152909601516001600160a01b03166040830152565b0152565b60408051631a880a9360e01b81526020848101803560048401529285013560248301526001600160a01b039390931692816044815f875af1801561023057610bec915f91610ec1575b50426107cf565b60405163f3f480d960e01b815290602082600481875afa918215610230575f92610e90575b508115159182610e86575b5050610e775760405163a70a8c4760e01b81528135600482015260209091013560248201526060816044815f865af1908115610230575f91610e48575b506040810192835115610e3957610c708180610822565b9390505f5b848110610c8457505050505050565b610ca0610c9b82610c958680610822565b9061086b565b61098c565b90610caa826122ab565b6001600160401b038651911611610e2a57610cc4826122c9565b60408051630da2fd1960e21b8152600481018390529193919081602481885afa908115610230575f91610dfc575b506020810151610d12906001600160a01b03165b6001600160a01b031690565b15610ded576020610d79610d74610d276109c8565b610d41610d32610a02565b610d3b8a610a2f565b90610a5a565b610d4a82610a8a565b52610d5481610a8a565b508c51610d6e610d6760608d018d610822565b36916103ee565b90612443565b610a8a565b51015151610dde57843b1561012c575f91610da860405195869384936325a377d560e11b855260048501610b5e565b038183875af191821561023057600192610dc4575b5001610c75565b80610dd25f610dd893610316565b806105f9565b5f610dbd565b6309bde33960e01b5f5260045ffd5b63f058bfd960e01b5f5260045ffd5b610e1d915060403d8111610e23575b610e158183610316565b810190610997565b5f610cf2565b503d610e0b565b6348e8dd2f60e11b5f5260045ffd5b6353ae552b60e11b5f5260045ffd5b610e6a915060603d606011610e70575b610e628183610316565b81019061080e565b5f610c59565b503d610e58565b63048c969960e01b5f5260045ffd5b1190505f80610c1c565b610eb391925060203d602011610eba575b610eab8183610316565b81019061078b565b905f610c11565b503d610ea1565b610eda915060203d602011610eba57610eab8183610316565b5f610be5565b919081101561088d5760051b8101359060fe198136030182121561012c570190565b9190916101008184031261012c57610f18610348565b9281356001600160401b03811161012c5781610f359184016103a8565b845260208201356001600160401b03811161012c5781610f569184016103a8565b6020850152610f6760408301610892565b604085015260608201356001600160401b03811161012c5781610f8b9184016103a8565b6060850152610f9c60808301610892565b608085015260a08201356001600160401b03811161012c5781610fc0918401610459565b60a0850152610fd160c08301610892565b60c085015260e08201356001600160401b03811161012c57610ff392016103a8565b60e0830152565b610474903690610f02565b9080602083519182815201916020808360051b8301019401925f915b83831061103057505050505090565b909192939460208061104e600193601f198682030187528951610aab565b97019301930191939290611021565b6104749160e06110cb6110a6611081610af186516101008752610100870190610aab565b6040868101516001600160401b03169086015260608601518582036060870152610aab565b6080858101516001600160401b03169085015260a085015184820360a0860152611005565b60c0808501516001600160401b0316908401529201519060e0818403910152610aab565b610b98610b796060939695949660808452608084019061105d565b60408051631a880a9360e01b81526020848101803560048401529285013560248301526001600160a01b039390931692816044815f875af1801561023057611159915f91610ec15750426107cf565b60405163f3f480d960e01b815290602082600481875afa918215610230575f92611332575b508115159182611328575b5050610e775760405163a70a8c4760e01b81528135600482015260209091013560248201526060816044815f865af1908115610230575f91611309575b506040810192835115610e39576111dd8180610822565b9390505f5b8481106111f157505050505050565b61120d611208826112028680610822565b90610ee0565b610ffa565b90611217826126b7565b6001600160401b038651911611610e2a57611231826126d5565b60408051630da2fd1960e21b8152600481018390529193919081602481885afa908115610230575f916112eb575b506020810151611277906001600160a01b0316610d06565b15610ded57602061128c610d74610d276109c8565b51015151610dde57843b1561012c575f916112bb604051958693849363355e79e160e21b8552600485016110ef565b038183875af1918215610230576001926112d7575b50016111e2565b80610dd25f6112e593610316565b5f6112d0565b611303915060403d8111610e2357610e158183610316565b5f61125f565b611322915060603d606011610e7057610e628183610316565b5f6111c6565b1190505f80611189565b61134c91925060203d602011610eba57610eab8183610316565b905f61117e565b604090610474939281528160208201520190610aab565b903590607e198136030182121561012c570190565b9061138982610376565b6113966040519182610316565b82815280926113a7601f1991610376565b01905f5b8281106113b757505050565b6020906040516113c6816102fb565b5f81525f83820152828285010152016113ab565b919081101561088d5760051b81013590603e198136030182121561012c570190565b60408136031261012c5760405190611413826102fb565b8035906001600160401b03821161012c57611433602092369083016108a6565b83520135602082015290565b81601f8201121561012c578051906114568261038d565b926114646040519485610316565b8284526020838301011161012c57815f9260208093018386015e8301015290565b9060208282031261012c5781516001600160401b03811161012c57610474920161143f565b9081602091031261012c575161047481610130565b9291906114cb81610376565b936114d96040519586610316565b602085838152019160051b810192831161012c57905b8282106114fb57505050565b81358152602091820191016114ef565b90611523602091949394604084526040840190610acf565b6001600160a01b03909416910152565b6001600160a01b031690611577602061154c838061136a565b604051631a880a9360e01b815281356004820152602090910135602482015291829081906044820190565b03815f875af1801561023057611594915f91610ec15750426107cf565b60405163f3f480d960e01b815290602082600481875afa918215610230575f926118a1575b508115159182611897575b5050610e7757602081016115d88183610822565b9290506115e48361137f565b5f5b848110611735575061162860606115fd848061136a565b60405163a70a8c4760e01b815281356004820152602090910135602482015291829081906044820190565b03815f8a5af18015610230576020915f91611716575b500151908115610e39576116826116889161168c9361166a611660878061136a565b6040810190610822565b93906060611678898061136a565b01359436916114bf565b90612713565b1590565b610dde575f5b8381106116a0575050505050565b6116bc6116b7826116b18686610822565b906113da565b6113fc565b5190853b1561012c575f6116e6926040518094819263b85e6fbb60e01b835233906004840161150b565b0381838a5af191821561023057600192611702575b5001611692565b80610dd25f61171093610316565b5f6116fb565b61172f915060603d606011610e7057610e628183610316565b5f61163e565b6117466116b7826116b18787610822565b9060208251015160405163f437bc5960e01b81525f816004818c5afa80156102305761177d92611688925f92611873575b506126f2565b6118645761179a61178e83516122ab565b6001600160401b031690565b421015611855576117ab82516122c9565b604051630cb33d1f60e11b8152600481018290526020816024818c5afa908115610230575f91611827575b506001600160a01b03166118185760206001930151906117f4610358565b91825260208201526118068285610a97565b526118118184610a97565b50016115e6565b63156a571760e11b5f5260045ffd5b611848915060203d811161184e575b6118408183610316565b8101906114aa565b5f6117d6565b503d611836565b631676f4b360e01b5f5260045ffd5b6390d4c20960e01b5f5260045ffd5b6118909192503d805f833e6118888183610316565b810190611485565b905f611777565b1190505f806115c4565b6118bb91925060203d602011610eba57610eab8183610316565b905f6115b9565b604051630153df6760e21b8152909291906020816004816001600160a01b0388165afa908115610230575f9161192b575b506118fd8161076d565b60018114908115611917575b506101de5761034692611a6c565b600391506119248161076d565b145f611909565b611944915060203d6020116102295761021b8183610316565b5f6118f3565b909160608284031261012c5781516001600160401b03811161012c578361197291840161143f565b9260208301516001600160401b03811161012c57830181601f8201121561012c5780519061199f82610376565b926119ad6040519485610316565b828452602060a081860194028301019181831161012c57602001925b8284106119dd575050505060409092015190565b60a08483031261012c57602060a0916040516119f8816102db565b865181528287015183820152611a1185604089016107dc565b60408201528152019301926119c9565b9192602093611a398293604086526040860190610aab565b9385818603910152818452848401375f828201840152601f01601f1916010190565b906020610474928181520190610aab565b6040516326a1096f60e21b81526001600160a01b03919091169190602081600481865afa801561023057611aa7915f91610ec15750426107cf565b60405163d40784c760e01b815290602082600481875afa918215610230575f92611dcf575b501015611dc057604051632eeb667560e21b8152925f84600481865afa938415610230575f94611da4575b50604051632476132b60e01b815290602082600481875afa801561023057611b40935f938492611d83575b50604051809581948293637bf41d7760e11b84528a60048501611a21565b03916001600160a01b03165afa928315610230575f905f925f95611d59575b50602081519101208151602083012014611d5357823b1561012c575f611b999160405180938192630b4974cf60e41b835260048301611a5b565b038183875af1801561023057611d3f575b508051905f5b828110611c2c57505050506001548111611bc75750565b611bd081600155565b611c0433611be5835f525f60205260405f2090565b80546001600160a01b0319166001600160a01b03909216919091179055565b33907f2b4e2a8b270a64e4ec388aa5c559d57927b97b13797f2b08cd3cf7043c3512d65f80a3565b611c368183610a97565b518051604051634e04afc360e11b81526004810191909152909190602081602481895afa908115610230575f91611d21575b508015159081611d13575b50611c83575b6001915001611bb0565b60408251926020810151611c95610358565b9485526020850152015191853b1561012c5760408051632acf7f4f60e11b815282516004820152602092830151602482015284516044820152918401516064830152929092015160848301525f8260a48183895af191821561023057600192611cff575b50611c79565b80610dd25f611d0d93610316565b5f611cf9565b90506020830151115f611c73565b611d39915060203d8111610eba57610eab8183610316565b5f611c68565b80610dd25f611d4d93610316565b5f611baa565b50505050565b91509350611d7991503d805f833e611d718183610316565b81019061194a565b919091935f611b5f565b611d9d91925060203d60201161184e576118408183610316565b905f611b22565b611db99194503d805f833e6118888183610316565b925f611af7565b63040dc5c360e41b5f5260045ffd5b611de991925060203d602011610eba57610eab8183610316565b905f611acc565b9060408236031261012c57604051611e07816102fb565b82356001600160401b03811161012c5783019260408436031261012c5760405193611e31856102fb565b80356001600160401b03811161012c57611e4e9036908301610f02565b85526020810135906001600160401b03821161012c57019336601f8601121561012c57843594611e7d86610376565b90611e8b6040519283610316565b86825260208083019760051b8201019036821161012c5760208101975b828910611ec8575050506020809495965082015283520135602082015290565b88356001600160401b03811161012c5782016040601f19823603011261012c5760405191611ef5836102fb565b60208201356001600160401b03811161012c57611f1890602036918501016103a8565b83526040820135926001600160401b03841161012c57611f4160209493858095369201016103a8565b83820152815201980197611ea8565b6020611f65825160408552604085019061105d565b910151916020818303910152815180825260208201916020808360051b8301019401925f915b838310611f9a57505050505090565b9091929394602080611fd8600193601f1986820301875289519083611fc88351604084526040840190610aab565b9201519084818403910152610aab565b97019301930191939290611f8b565b90611523602091949394604084526040840190611f50565b6001600160a01b031690612018602061154c838061136a565b03815f875af1801561023057612035915f91610ec15750426107cf565b60405163f3f480d960e01b815290602082600481875afa918215610230575f9261228a575b508115159182612280575b5050610e7757602081016120798183610822565b9290506120858361137f565b5f5b848110612179575061209e60606115fd848061136a565b03815f8a5af18015610230576020915f9161215a575b500151908115610e3957611682611688916120d69361166a611660878061136a565b610dde575f5b8381106120ea575050505050565b6121006120fb826116b18686610822565b611df0565b5190853b1561012c575f61212a926040518094819263e739a22560e01b8352339060048401611fe7565b0381838a5af191821561023057600192612146575b50016120dc565b80610dd25f61215493610316565b5f61213f565b612173915060603d606011610e7057610e628183610316565b5f6120b4565b61218a6120fb826116b18787610822565b906121968251516126d5565b60408051630da2fd1960e21b81526004810183905290816024818c5afa8015610230576020610d06916121d9935f91612262575b5001516001600160a01b031690565b15610ded576040805163442b19bf60e11b81526004810192909252816024818b5afa8015610230576020610d0691612220935f91612262575001516001600160a01b031690565b6118185781612236602060019401519151612723565b61223e610358565b91825260208201526122508285610a97565b5261225b8184610a97565b5001612087565b61227a915060403d8111610e2357610e158183610316565b5f6121ca565b1190505f80612065565b6122a491925060203d602011610eba57610eab8183610316565b905f61205a565b60a001516001600160401b03168061047457506001600160401b0390565b6040516122f4816122e66020820194602086526040830190610acf565b03601f198101835282610316565b51902090565b9061230482610376565b6123116040519182610316565b8281528092612322601f1991610376565b01905f5b82811061233257505050565b602090604051612341816102db565b606081526060838201525f604082015282828501015201612326565b9061236782610376565b6123746040519182610316565b8281528092612385601f1991610376565b01905f5b82811061239557505050565b6020906040516123a4816102fb565b5f815260608382015282828501015201612389565b5f1981146107bc5760010190565b60405190608082018281106001600160401b038211176102f657604052606080835f81525f60208201525f60408201520152565b90601081101561088d5760051b0190565b90600182018092116107bc57565b9060ff82018092116107bc57565b90600282018092116107bc57565b919082018092116107bc57565b9261244e83516122fa565b612458835161235d565b945f5b84518110156124b0578061247160019287610a97565b51602081519101206124838288610a97565b5161248c610358565b918252602082015261249e828a610a97565b526124a98189610a97565b500161245b565b5091939092505f5b81518110156126af576124cb8183610a97565b516124d68286610a97565b51526124e28183610a97565b516124eb610358565b9081525f6020820152906125076125028589612740565b61282d565b91600192835b61251e575b505060019150016124b8565b6125266123c7565b9361253082612980565b1561259357506001935061254661254e91612dc1565b918251612eac565b612559575b80612512565b602061256791015188612d63565b60206125738388610a97565b51015261258d60406125858388610a97565b510160019052565b5f612553565b919361259e8261299d565b1561269257506125ad90612a57565b926125b88451612ca8565b906125c7611688865183612ccf565b61268c57816125d582612ca8565b036126275750505060206001926125f16040612585858a610a97565b0151805115156001146126045780612512565b602061261291015188612d63565b602061261e8388610a97565b5101525f612553565b90919361264290604061263a8585612ce2565b9101516123fb565b5191612652836001905115151490565b1561268c5761250260206126756126859461266f61267f9561240c565b90612d31565b9401515b8b612d63565b936123b9565b928361250d565b50612512565b90519193916126aa5761267f61250261268592612679565b612512565b509193505050565b608001516001600160401b03168061047457506001600160401b0390565b6040516122f4816122e6602082019460208652604083019061105d565b908151908051820361270c57816020809201209201201490565b5050505f90565b92909161271f92612f0d565b1490565b6040516122f4816122e66020820194602086526040830190611f50565b5f5b815181101561277857826127568284610a97565b51511461276557600101612742565b6020925061277291610a97565b51015190565b60405162461bcd60e51b8152602060048201526011602482015270496e636f6d706c6574652050726f6f662160781b6044820152606490fd5b604051906127be826102fb565b5f602083606081520152565b6040519061014082018281106001600160401b038211176102f657604052815f81525f60208201525f60408201525f60608201525f60808201525f60a08201525f60c08201525f60e08201525f6101008201526101206128286127b1565b910152565b6128356127ca565b5061283e6127ca565b90612847610358565b9081525f6020820152612859816131c2565b5f60ff82161561297657829060c083166040810361289357505061287c916132ec565b610100830152600160208301525b61012082015290565b60c081036128b85750506128a6916132ec565b6101008301526001606083015261288a565b608081036128dd5750506128cb916132ec565b610100830152600160a083015261288a565b1490506128eb575b5061288a565b81602060e083160361291457612900916132a0565b610100830152600160408301525b5f6128e5565b50601060f082160361293c578161292a9161323c565b6101008301526001608083015261290e565b60405162461bcd60e51b8152602060048201526012602482015271556e616c6c6f77656420656e636f64696e6760701b6044820152606490fd5b5050600182525090565b60208101511590811591612992575090565b604091500151151590565b60a081015115908115916129c1575b81156129b6575090565b606091500151151590565b6080810151151591506129ac565b604051906129dc826102fb565b815f815260206128286123c7565b604051906129f7826102db565b81612a006127b1565b8152612a0a6129cf565b602082015260405190610200612a208184610316565b5f5b818110612a3157505060400152565b602090612a3c6129cf565b8186015201612a22565b90815181101561088d570160200190565b612a5f6129ea565b50612a686129ea565b90610120810151610100820191612a80835160011690565b151580612c54575b612c2157825192612ab8612ab0612aaa612aa460018098612436565b60011c90565b856134e6565b915160011690565b612ac0610358565b91825260208201528452612ae5612ade612ad984613338565b6135d2565b61ffff1690565b90612aee6129cf565b90612afc6080820151151590565b15612be457506001815260208101612b15815160019052565b6020612b28612b2386613414565b61383b565b915101525b6020850152604084015f5b60108110612b4857505050505090565b80612b838692612b566129cf565b612b6b8288600161ffff8093161b1616151590565b612b8a575b855190612b7d83836123fb565b526123fb565b5001612b38565b60018152612b97886136d8565b60208103612bc6575060208101612baf815160019052565b6020612bbd612b238b613414565b91510152612b70565b6060612bbd6020840192612bde604085510160019052565b8b6134e6565b6060015115612b2d57612bf6836136d8565b600182526060612c186020840192612c12604085510160019052565b866134e6565b91510152612b2d565b60405162461bcd60e51b815260206004820152600b60248201526a42616420466f726d61742160a81b6044820152606490fd5b5060ff612c8a612c84612c7e612c708651602088015190612a46565b516001600160f81b03191690565b60f81c90565b60f01690565b161515612a88565b908160011b91808304600214901517156107bc57565b805151908160011b91808304600214901517156107bc576020015181039081116107bc5790565b612cdc8261271f9261389c565b91612ca8565b9060208201918251928284018094116107bc57519082820182116107bc576002600f9360ff612d186001948298861c9051612a46565b5160f81c16930803612d2957161690565b60041c161690565b90612d3a6127b1565b50602082519201519081018091116107bc5760405191612d59836102fb565b8252602082015290565b604082015115612d7557506060015190565b8151612d91575050604051612d8b602082610316565b5f815290565b602061047492015190612740565b60405190612dac826102fb565b81612db56127b1565b815260206128286123c7565b612dc9612d9f565b50612dd2612d9f565b906101208101516101008201612de9815160011690565b151580612e88575b612c2157612e10612ab0612e0a612aa460018551612436565b846134e6565b612e18610358565b91825260208201528352612e376040612e2f6123c7565b930151151590565b15612e5f57612b23612e5291612e4d8460019052565b613414565b6020820152602082015290565b80612e6c612e7e926136d8565b60016040850152906134e6565b6134e6565b60608201526109c0565b5060ff612ea4612c84612c7e612c708651602088015190612a46565b161515612df1565b90612eb682612ca8565b612ebf82612ca8565b149182612ecb57505090565b8161271f929350612cdc9161389c565b90612ee582610376565b612ef26040519182610316565b8281528092612f03601f1991610376565b0190602036910137565b92909282156131b35783519384156131a45760015b8581106131675750600184148061315d575b8061314b575b61313657612f4f612f4a856139e0565b612edb565b94612f58610358565b945f865260208601968752612f6b610358565b925f845260208401948552612f7e610367565b905f82526020820193845260408201525f91805b613021575b505050516130125751905151036130035781515f190182525b815115612ff357612fc082613c8f565b612fc983613c8f565b90612fd5845160010190565b84525f5260205260405f20612fed8451845190610a97565b52612fb0565b91612fff915051610a8a565b5190565b637227423160e11b5f5260045ffd5b63072afb8760e51b5f5260045ffd5b61308b81806fffffffffffffffffffffffffffffffff1060071b81811c6001600160401b031060061b1781811c63ffffffff1060051b1781811c61ffff1060041b1781811c60ff1060031b1781811c600f1060021b1781811c60031060011b1790811c6001101790565b926130a561309d6001861b80946107cf565b928392612436565b9386856130b28187613a25565b92602084015180155f146130ea575050505050508551518551145f03612f9757806130e56130df87613c73565b8a613c58565b612f92565b6001148061312e575b1561311a5750505060206131118260406130e5940151905190610a97565b5101518a613c58565b916130e5939160026130df941b0391613aae565b5080156130f3565b92509092505161300357612772602091610a8a565b5061315581610a8a565b515115612f3a565b5060018514612f34565b6131718183610a97565b515161318561317f836107ae565b84610a97565b5151101561319557600101612f22565b630647f54960e21b5f5260045ffd5b631a14a47760e31b5f5260045ffd5b639136328760e01b5f5260045ffd5b60208101908151600181018091116107bc5781515110613208575181516001600160f81b0319916131f39190612a46565b511660f81c90613203815161240c565b905290565b60405162461bcd60e51b815260206004820152600c60248201526b4f7574206f662072616e676560a01b6044820152606490fd5b600f16600f811061329b575f1981019081116107bc575b61ffff81111561326557505061ffff90565b60ff613270836131c2565b1660ff811061328857506132839061241a565b613253565b8101915081106107bc576104749061240c565b905090565b601f16601f811061329b575f1981019081116107bc575b61ffff8111156132c957505061ffff90565b60ff6132d4836131c2565b1660ff811061328857506132e79061241a565b6132b7565b603f16603f811061329b575f1981019081116107bc575b61ffff81111561331557505061ffff90565b60ff613320836131c2565b1660ff811061328857506133339061241a565b613303565b602081018051600281018091116107bc578251511061012c576020915182825182010192839101116107bc5761336e600261038d565b9161337c6040519384610316565b6002835261338a600261038d565b6020840190601f19013682379060025b60208110156133e457806133c557505f19905b81199051169082511617905261320360028251612436565b6133d96133d46133de926107c1565b613e37565b6107ae565b906133ad565b909182518152602081018091116107bc5791602081018091116107bc5790601f1981019081111561339a5761079a565b602081018051602081018091116107bc578251511061012c576020915182825182010192839101116107bc5761344a602061038d565b916134586040519384610316565b60208352613466602061038d565b6020840190601f19013682379060205b60208110156134b657806134a157505f19905b81199051169082511617905261320360208251612436565b6133d96133d46134b0926107c1565b90613489565b909182518152602081018091116107bc5791602081018091116107bc5790601f198101908111156134765761079a565b91906020830180518281018091116107bc578451511061012c5781156135c0576020935184825182010194859101116107bc576135228261038d565b916135306040519384610316565b80835261353c8161038d565b602084019590601f19013687378195905b6020871015613591576132039394959680155f1461357c57505f19905b51825182169119161790528251612436565b6133d96133d461358b926107c1565b9061356a565b9081518152602081018091116107bc5790602081018091116107bc5795601f1981019081116107bc579561354d565b50509050604051612d8b602082610316565b80515f91815b6135e157505090565b90915f1983018381116107bc576135f88184612a46565b5160f81c90600381901b906001600160fd1b038116036107bc5760ff81116107bc576001901b908181029181830414901517156107bc5761363891612436565b9180156107bc575f190190816135d8565b60ff60049116019060ff82116107bc57565b1561366257565b60405162461bcd60e51b815260206004820152602860248201527f756e657870656374656420707265666978206465636f64696e6720436f6d706160448201526731ba1e2ab4b73a1f60c11b6064820152608490fd5b906001600160401b03809116911601906001600160401b0382116107bc57565b6136e1816131c2565b60038116806136fd5750610474915060021c603f165b60ff1690565b60018103613742575061178e9061373c6136f76137326137226136f7610474976131c2565b60061b67ffffffffffffffc01690565b9260021c603f1690565b906136b8565b600281036137c157506137b8906137ab60ff8461379c82613765610474986131c2565b958161378b8161377d613777886131c2565b976131c2565b991660081b63ffffff001690565b911617921660101b63ffff00001690565b17921660181b63ff0000001690565b1760021c633fffffff1690565b63ffffffff1690565b6003036137f6576104749160ff6137e76137e2612ad994603f9060021c1690565b613649565b1690612e79600883111561365b565b60405162461bcd60e51b815260206004820152601a60248201527f436f64652073686f756c6420626520756e726561636861626c650000000000006044820152606490fd5b602081511061384b576020015190565b60405162461bcd60e51b8152602060048201526024808201527f42797465733a3a20746f427974657333323a206461746120697320746f20736860448201526337b93a1760e11b6064820152608490fd5b60208101906138ac825160011690565b9160208401906138bd825160011690565b840361397b57516138d39060011c915160011c90565b915f93613903575b6138fe926138f161047496936138f89351613cf8565b9251613cf8565b90613d71565b612436565b925092600f60f81b613919612c70868651612a46565b1661393e600f60f81b613930612c70868651612a46565b166001600160f81b03191690565b03613973576138f86138fe926138f161396261395c610474986123b9565b926123b9565b9160019693509396505092506138db565b505050505f90565b505091905061399b61398c83612ca8565b61399583612ca8565b90613cab565b905f925b8284106139ad575b50505090565b9091926139ba8183612ce2565b6139c48285612ce2565b036139da576139d2906123b9565b92919061399f565b926139a7565b90815f925b6139ec5750565b915f1983018381116107bc576001931692839101926139e5565b60405190613a13826102db565b60606040835f81525f60208201520152565b613a2d613a06565b508051613a406020830191825190612436565b928251905b848210613a87575b50829350613a60613203929351826107cf565b908451946040810151613a71610367565b96875283602088015260408701525282516107cf565b90613a96816040860151610a97565b5151821115613aa85760010190613a45565b90613a4d565b91906020830151835193613ac182612edb565b93613acb83612edb565b955f5b848110613c0a5750505050935b6001613ae684610a8a565b5114613bfd575f945f905b808210613b05575050848084528452613adb565b9095613b118786610a97565b51878784613b1e8361240c565b1080613bdf575b15613b8657600192613b5d83613b55613b4f613b48613b809997613b6e97610a97565b519261240c565b8d610a97565b519083613e17565b613b67848c610a97565b5260011c90565b613b788289610a97565b520196612428565b90613af1565b505084516020860151511115613bd057600191613bbc8392613b5d613bab8c8c610a97565b51613bb58a613c73565b9083613e17565b613bc68289610a97565b5201960190613af1565b63d8f29a1560e01b5f5260045ffd5b50613bf2613bec8361240c565b89610a97565b516001841814613b25565b93505050612fff90610a8a565b600190613c43604086016020613c2b8251613c258689612436565b90610a97565b510151613c38848d610a97565b525182850190610a97565b51518401613c51828a610a97565b5201613ace565b90613c696020830151835190610a97565b5260018151019052565b613c836020820151825190610a97565b51906001815101905290565b613c9f6020820151825190610a97565b5181515f190190915290565b908082101561329b575090565b15613cbf57565b60405162461bcd60e51b8152602060048201526011602482015270736c6963655f6f75744f66426f756e647360781b6044820152606490fd5b908151613d1182613d0981846107cf565b921015613cb8565b80613d29575050506040515f81526020810160405290565b60405192601f821692831560051b80858701019484860193010101905b808410613d5e5750508252601f01601f191660405290565b9092602080918551815201930190613d46565b613d7e8151835190613cab565b915f915b838310613d955750506104749150612c92565b90916001600160f81b0319613daa8284612a46565b51166001600160f81b0319613dbf8386612a46565b511603613dd657613dcf906123b9565b9190613d82565b80935060011b91838304600214841517156107bc57613e0b612c7085613e05612c7061047498613e1197612a46565b93612a46565b90613e46565b90612436565b600116613e2a575f5260205260405f2090565b905f5260205260405f2090565b601f81116107bc576101000a90565b906001600160f81b031980831690821603613e62575050600290565b60f0809160f81c169160f81c16145f14613e7b57600190565b5f9056fea264697066735822122075e536619abf521f854b6a63db17af5571e4e669b80ff463a6d2c6d36a97618364736f6c634300081e0033","linkReferences":{}},"methodIdentifiers":{"batchCall(bytes[])":"68be3cf2","currentEpoch()":"76671808","handleConsensus(address,bytes)":"bb1689be","handleGetRequestTimeouts(address,((bytes,bytes,uint64,bytes,uint64,bytes[],uint64,bytes)[],(uint256,uint256),bytes[]))":"4130514b","handleGetResponses(address,(((uint256,uint256),bytes32[],uint256),(((bytes,bytes,uint64,bytes,uint64,bytes[],uint64,bytes),(bytes,bytes)[]),uint256)[]))":"ef7baa0b","handlePostRequestTimeouts(address,((bytes,bytes,uint64,bytes,bytes,uint64,bytes)[],(uint256,uint256),bytes[]))":"089b174c","handlePostRequests(address,(((uint256,uint256),bytes32[],uint256),((bytes,bytes,uint64,bytes,bytes,uint64,bytes),uint256)[]))":"698b1267","relayerOf(uint256)":"90642f2e","supportsInterface(bytes4)":"01ffc9a7"},"id":158}