{"abi":[{"type":"function","name":"batchCall","inputs":[{"name":"calls","type":"bytes[]","internalType":"bytes[]"}],"outputs":[],"stateMutability":"nonpayable"},{"type":"function","name":"currentEpoch","inputs":[{"name":"host","type":"address","internalType":"address"}],"outputs":[{"name":"","type":"uint256","internalType":"uint256"}],"stateMutability":"view"},{"type":"function","name":"handleConsensus","inputs":[{"name":"host","type":"address","internalType":"contract IHost"},{"name":"proof","type":"bytes","internalType":"bytes"}],"outputs":[],"stateMutability":"nonpayable"},{"type":"function","name":"handleGetRequestTimeouts","inputs":[{"name":"host","type":"address","internalType":"contract IHost"},{"name":"message","type":"tuple","internalType":"struct GetTimeoutMessage","components":[{"name":"timeouts","type":"tuple[]","internalType":"struct GetRequest[]","components":[{"name":"source","type":"bytes","internalType":"bytes"},{"name":"dest","type":"bytes","internalType":"bytes"},{"name":"nonce","type":"uint64","internalType":"uint64"},{"name":"from","type":"address","internalType":"address"},{"name":"timeoutTimestamp","type":"uint64","internalType":"uint64"},{"name":"keys","type":"bytes[]","internalType":"bytes[]"},{"name":"height","type":"uint64","internalType":"uint64"},{"name":"context","type":"bytes","internalType":"bytes"}]},{"name":"height","type":"tuple","internalType":"struct StateMachineHeight","components":[{"name":"stateMachineId","type":"uint256","internalType":"uint256"},{"name":"height","type":"uint256","internalType":"uint256"}]},{"name":"proof","type":"bytes[]","internalType":"bytes[]"}]}],"outputs":[],"stateMutability":"nonpayable"},{"type":"function","name":"handleGetResponses","inputs":[{"name":"host","type":"address","internalType":"contract IHost"},{"name":"message","type":"tuple","internalType":"struct GetResponseMessage","components":[{"name":"proof","type":"tuple","internalType":"struct Proof","components":[{"name":"height","type":"tuple","internalType":"struct StateMachineHeight","components":[{"name":"stateMachineId","type":"uint256","internalType":"uint256"},{"name":"height","type":"uint256","internalType":"uint256"}]},{"name":"multiproof","type":"bytes32[]","internalType":"bytes32[]"},{"name":"leafCount","type":"uint256","internalType":"uint256"}]},{"name":"responses","type":"tuple[]","internalType":"struct GetResponseLeaf[]","components":[{"name":"response","type":"tuple","internalType":"struct GetResponse","components":[{"name":"request","type":"tuple","internalType":"struct GetRequest","components":[{"name":"source","type":"bytes","internalType":"bytes"},{"name":"dest","type":"bytes","internalType":"bytes"},{"name":"nonce","type":"uint64","internalType":"uint64"},{"name":"from","type":"address","internalType":"address"},{"name":"timeoutTimestamp","type":"uint64","internalType":"uint64"},{"name":"keys","type":"bytes[]","internalType":"bytes[]"},{"name":"height","type":"uint64","internalType":"uint64"},{"name":"context","type":"bytes","internalType":"bytes"}]},{"name":"values","type":"tuple[]","internalType":"struct StorageValue[]","components":[{"name":"key","type":"bytes","internalType":"bytes"},{"name":"value","type":"bytes","internalType":"bytes"}]}]},{"name":"index","type":"uint256","internalType":"uint256"}]}]}],"outputs":[],"stateMutability":"nonpayable"},{"type":"function","name":"handlePostRequestTimeouts","inputs":[{"name":"host","type":"address","internalType":"contract IHost"},{"name":"message","type":"tuple","internalType":"struct PostRequestTimeoutMessage","components":[{"name":"timeouts","type":"tuple[]","internalType":"struct PostRequest[]","components":[{"name":"source","type":"bytes","internalType":"bytes"},{"name":"dest","type":"bytes","internalType":"bytes"},{"name":"nonce","type":"uint64","internalType":"uint64"},{"name":"from","type":"bytes","internalType":"bytes"},{"name":"to","type":"bytes","internalType":"bytes"},{"name":"timeoutTimestamp","type":"uint64","internalType":"uint64"},{"name":"body","type":"bytes","internalType":"bytes"}]},{"name":"height","type":"tuple","internalType":"struct StateMachineHeight","components":[{"name":"stateMachineId","type":"uint256","internalType":"uint256"},{"name":"height","type":"uint256","internalType":"uint256"}]},{"name":"proof","type":"bytes[]","internalType":"bytes[]"}]}],"outputs":[],"stateMutability":"nonpayable"},{"type":"function","name":"handlePostRequests","inputs":[{"name":"host","type":"address","internalType":"contract IHost"},{"name":"request","type":"tuple","internalType":"struct PostRequestMessage","components":[{"name":"proof","type":"tuple","internalType":"struct Proof","components":[{"name":"height","type":"tuple","internalType":"struct StateMachineHeight","components":[{"name":"stateMachineId","type":"uint256","internalType":"uint256"},{"name":"height","type":"uint256","internalType":"uint256"}]},{"name":"multiproof","type":"bytes32[]","internalType":"bytes32[]"},{"name":"leafCount","type":"uint256","internalType":"uint256"}]},{"name":"requests","type":"tuple[]","internalType":"struct PostRequestLeaf[]","components":[{"name":"request","type":"tuple","internalType":"struct PostRequest","components":[{"name":"source","type":"bytes","internalType":"bytes"},{"name":"dest","type":"bytes","internalType":"bytes"},{"name":"nonce","type":"uint64","internalType":"uint64"},{"name":"from","type":"bytes","internalType":"bytes"},{"name":"to","type":"bytes","internalType":"bytes"},{"name":"timeoutTimestamp","type":"uint64","internalType":"uint64"},{"name":"body","type":"bytes","internalType":"bytes"}]},{"name":"index","type":"uint256","internalType":"uint256"}]}]}],"outputs":[],"stateMutability":"nonpayable"},{"type":"function","name":"handlePostResponseTimeouts","inputs":[{"name":"host","type":"address","internalType":"contract IHost"},{"name":"message","type":"tuple","internalType":"struct PostResponseTimeoutMessage","components":[{"name":"timeouts","type":"tuple[]","internalType":"struct PostResponse[]","components":[{"name":"request","type":"tuple","internalType":"struct PostRequest","components":[{"name":"source","type":"bytes","internalType":"bytes"},{"name":"dest","type":"bytes","internalType":"bytes"},{"name":"nonce","type":"uint64","internalType":"uint64"},{"name":"from","type":"bytes","internalType":"bytes"},{"name":"to","type":"bytes","internalType":"bytes"},{"name":"timeoutTimestamp","type":"uint64","internalType":"uint64"},{"name":"body","type":"bytes","internalType":"bytes"}]},{"name":"response","type":"bytes","internalType":"bytes"},{"name":"timeoutTimestamp","type":"uint64","internalType":"uint64"}]},{"name":"height","type":"tuple","internalType":"struct StateMachineHeight","components":[{"name":"stateMachineId","type":"uint256","internalType":"uint256"},{"name":"height","type":"uint256","internalType":"uint256"}]},{"name":"proof","type":"bytes[]","internalType":"bytes[]"}]}],"outputs":[],"stateMutability":"nonpayable"},{"type":"function","name":"handlePostResponses","inputs":[{"name":"host","type":"address","internalType":"contract IHost"},{"name":"response","type":"tuple","internalType":"struct PostResponseMessage","components":[{"name":"proof","type":"tuple","internalType":"struct Proof","components":[{"name":"height","type":"tuple","internalType":"struct StateMachineHeight","components":[{"name":"stateMachineId","type":"uint256","internalType":"uint256"},{"name":"height","type":"uint256","internalType":"uint256"}]},{"name":"multiproof","type":"bytes32[]","internalType":"bytes32[]"},{"name":"leafCount","type":"uint256","internalType":"uint256"}]},{"name":"responses","type":"tuple[]","internalType":"struct PostResponseLeaf[]","components":[{"name":"response","type":"tuple","internalType":"struct PostResponse","components":[{"name":"request","type":"tuple","internalType":"struct PostRequest","components":[{"name":"source","type":"bytes","internalType":"bytes"},{"name":"dest","type":"bytes","internalType":"bytes"},{"name":"nonce","type":"uint64","internalType":"uint64"},{"name":"from","type":"bytes","internalType":"bytes"},{"name":"to","type":"bytes","internalType":"bytes"},{"name":"timeoutTimestamp","type":"uint64","internalType":"uint64"},{"name":"body","type":"bytes","internalType":"bytes"}]},{"name":"response","type":"bytes","internalType":"bytes"},{"name":"timeoutTimestamp","type":"uint64","internalType":"uint64"}]},{"name":"index","type":"uint256","internalType":"uint256"}]}]}],"outputs":[],"stateMutability":"nonpayable"},{"type":"function","name":"relayerOf","inputs":[{"name":"host","type":"address","internalType":"address"},{"name":"authoritySetId","type":"uint256","internalType":"uint256"}],"outputs":[{"name":"","type":"address","internalType":"address"}],"stateMutability":"view"},{"type":"function","name":"supportsInterface","inputs":[{"name":"interfaceId","type":"bytes4","internalType":"bytes4"}],"outputs":[{"name":"","type":"bool","internalType":"bool"}],"stateMutability":"view"},{"type":"event","name":"NewEpoch","inputs":[{"name":"authoritySetId","type":"uint256","indexed":true,"internalType":"uint256"},{"name":"relayer","type":"address","indexed":true,"internalType":"address"}],"anonymous":false},{"type":"error","name":"BatchCallFailed","inputs":[{"name":"index","type":"uint256","internalType":"uint256"},{"name":"reason","type":"bytes","internalType":"bytes"}]},{"type":"error","name":"ChallengePeriodNotElapsed","inputs":[]},{"type":"error","name":"ConsensusClientExpired","inputs":[]},{"type":"error","name":"DuplicateMessage","inputs":[]},{"type":"error","name":"EmptyLeaves","inputs":[]},{"type":"error","name":"EmptyTree","inputs":[]},{"type":"error","name":"HostFrozen","inputs":[]},{"type":"error","name":"InvalidMessageDestination","inputs":[]},{"type":"error","name":"InvalidProof","inputs":[]},{"type":"error","name":"MessageNotTimedOut","inputs":[]},{"type":"error","name":"MessageTimedOut","inputs":[]},{"type":"error","name":"MismatchedResponseKeys","inputs":[]},{"type":"error","name":"OutOfBoundsLeaves","inputs":[]},{"type":"error","name":"ProofExhausted","inputs":[]},{"type":"error","name":"StateCommitmentNotFound","inputs":[]},{"type":"error","name":"UnconsumedProof","inputs":[]},{"type":"error","name":"UnknownMessage","inputs":[]},{"type":"error","name":"UnsortedLeaves","inputs":[]}],"bytecode":{"object":"0x6080806040523460155761497c908161001a8239f35b5f80fdfe60806040526004361015610011575f80fd5b5f3560e01c806301ffc9a7146100c45780630736e19f146100bf578063089b174c146100ba578063191c872b146100b5578063321e3f15146100b057806368be3cf2146100ab578063698b1267146100a65780638958402a146100a1578063a33c47061461009c578063bb1689be146100975763e407f86b14610092575f80fd5b610834565b6107cd565b61073b565b6106a9565b610617565b610527565b61032d565b61029b565b6101e3565b61016c565b3461014a57602036600319011261014a5760043563ffffffff60e01b811680910361014a576365c7c80b60e01b8114908115610139575b8115610128575b8115610117575b506040519015158152602090f35b6301ffc9a760e01b1490505f610109565b631a1ec69760e21b81149150610102565b630d79f4f960e01b811491506100fb565b5f80fd5b6001600160a01b0381160361014a57565b359061016a8261014e565b565b3461014a57602036600319011261014a576004356101898161014e565b60018060a01b03165f526001602052602060405f2054604051908152f35b90604060031983011261014a576004356101c08161014e565b916024356001600160401b03811161014a576080906004018092031261014a5790565b3461014a576101f1366101a7565b604051630153df6760e21b81526020816004816001600160a01b0387165afa908115610296575f91610267575b50610228816108e9565b60018114908115610253575b506102445761024291610d36565b005b631c6d5f7760e31b5f5260045ffd5b60039150610260816108e9565b145f610234565b610289915060203d60201161028f575b61028181836103c8565b8101906108c6565b5f61021e565b503d610277565b6108de565b3461014a576102a9366101a7565b604051630153df6760e21b81526020816004816001600160a01b0387165afa908115610296575f9161030e575b506102e0816108e9565b600181149081156102fa575b5061024457610242916112a1565b60039150610307816108e9565b145f6102ec565b610327915060203d60201161028f5761028181836103c8565b5f6102d6565b3461014a57604036600319011261014a5760043561034a8161014e565b6001600160a01b039081165f908152602081815260408083206024358452825291829020549151919092168152f35b634e487b7160e01b5f52604160045260245ffd5b606081019081106001600160401b038211176103a857604052565b610379565b604081019081106001600160401b038211176103a857604052565b90601f801991011681019081106001600160401b038211176103a857604052565b6040519061016a60e0836103c8565b6040519061016a610100836103c8565b6040519061016a6040836103c8565b6040519061016a6060836103c8565b6001600160401b0381116103a85760051b60200190565b6001600160401b0381116103a857601f01601f191660200190565b81601f8201121561014a5780359061046f8261043d565b9261047d60405194856103c8565b8284526020838301011161014a57815f926020809301838601378301015290565b9291906104aa81610426565b936104b860405195866103c8565b602085838152019160051b81019183831161014a5781905b8382106104de575050505050565b81356001600160401b03811161014a576020916104fe8784938701610458565b8152019101906104d0565b9080601f8301121561014a578160206105249335910161049e565b90565b3461014a57602036600319011261014a576004356001600160401b03811161014a57610557903690600401610509565b8051905f5b82811061056557005b5f806105718385610c27565b51602081519101305af43d156105d3573d9061058c8261043d565b9161059a60405193846103c8565b82523d5f602084013e5b156105b2575060010161055c565b60405163651ab1b360e01b81529182916105cf91600484016114ea565b0390fd5b6060906105a4565b90604060031983011261014a576004356105f48161014e565b916024356001600160401b03811161014a576040906004018092031261014a5790565b3461014a57610625366105db565b604051630153df6760e21b81526020816004816001600160a01b0387165afa908115610296575f9161068a575b5061065c816108e9565b60018114908115610676575b5061024457610242916116ca565b60039150610683816108e9565b145f610668565b6106a3915060203d60201161028f5761028181836103c8565b5f610652565b3461014a576106b7366105db565b604051630153df6760e21b81526020816004816001600160a01b0387165afa908115610296575f9161071c575b506106ee816108e9565b60018114908115610708575b506102445761024291611b46565b60039150610715816108e9565b145f6106fa565b610735915060203d60201161028f5761028181836103c8565b5f6106e4565b3461014a57610749366105db565b604051630153df6760e21b81526020816004816001600160a01b0387165afa908115610296575f916107ae575b50610780816108e9565b6001811490811561079a575b50610244576102429161201d565b600391506107a7816108e9565b145f61078c565b6107c7915060203d60201161028f5761028181836103c8565b5f610776565b3461014a57604036600319011261014a576004356107ea8161014e565b602435906001600160401b03821161014a573660238301121561014a578160040135906001600160401b03821161014a57366024838501011161014a576024610242930190612309565b3461014a57610842366101a7565b604051630153df6760e21b81526020816004816001600160a01b0387165afa908115610296575f916108a7575b50610879816108e9565b60018114908115610893575b5061024457610242916128ec565b600391506108a0816108e9565b145f610885565b6108c0915060203d60201161028f5761028181836103c8565b5f61086f565b9081602091031261014a5751600481101561014a5790565b6040513d5f823e3d90fd5b600411156108f357565b634e487b7160e01b5f52602160045260245ffd5b9081602091031261014a575190565b634e487b7160e01b5f52601160045260245ffd5b5f1981019190821161093857565b610916565b602003906020821161093857565b9190820391821161093857565b919082606091031261014a576040516109708161038d565b604080829480518452602081015160208501520151910152565b9060608282031261014a5761052491610958565b903590601e198136030182121561014a57018035906001600160401b03821161014a57602001918160051b3603831361014a57565b634e487b7160e01b5f52603260045260245ffd5b9190811015610a095760051b8101359060de198136030182121561014a570190565b6109d3565b35906001600160401b038216820361014a57565b91909160e08184031261014a57610a376103e9565b9281356001600160401b03811161014a5781610a54918401610458565b845260208201356001600160401b03811161014a5781610a75918401610458565b6020850152610a8660408301610a0e565b604085015260608201356001600160401b03811161014a5781610aaa918401610458565b606085015260808201356001600160401b03811161014a5781610ace918401610458565b6080850152610adf60a08301610a0e565b60a085015260c08201356001600160401b03811161014a57610b019201610458565b60c0830152565b610524903690610a22565b9081604091031261014a57602060405191610b2d836103ad565b805183520151610b3c8161014e565b602082015290565b60408051909190610b5583826103c8565b6001815291601f1901825f5b828110610b6d57505050565b806060602080938501015201610b61565b60405190610b8d6020836103c8565b5f8252565b60405190610ba16040836103c8565b600f82526e52657175657374526563656970747360881b6020830152565b906040519160208301526020825261016a6040836103c8565b805191908290602001825e015f815290565b61016a90610c0c610c0694936040519586936020850190610bd8565b90610bd8565b03601f1981018452836103c8565b805115610a095760200190565b8051821015610a095760209160051b010190565b5f91031261014a57565b805180835260209291819084018484015e5f828201840152601f01601f1916010190565b6105249160c0610cd4610cc2610c9d610c8b865160e0875260e0870190610c45565b60208701518682036020880152610c45565b6001600160401b03604087015116604086015260608601518582036060870152610c45565b60808501518482036080860152610c45565b60a0808501516001600160401b0316908401529201519060c0818403910152610c45565b610d32610d1360609396959496608084526080840190610c69565b8651602084810191909152909601516001600160a01b03166040830152565b0152565b60408051631a880a9360e01b81526020848101803560048401529285013560248301526001600160a01b039390931692816044815f875af1801561029657610d86915f9161105b575b504261094b565b60405163f3f480d960e01b815290602082600481875afa918215610296575f9261102a575b508115159182611020575b50506110115760405163a70a8c4760e01b81528135600482015260209091013560248201526060816044815f865af1908115610296575f91610fe2575b506040810192835115610fd357610e0a818061099e565b9390505f5b848110610e1e57505050505050565b610e3a610e3582610e2f868061099e565b906109e7565b610b08565b90610e4482612b40565b6001600160401b038651911611610fc457610e5e82612b5e565b60408051630da2fd1960e21b8152600481018390529193919081602481885afa908115610296575f91610f96575b506020810151610eac906001600160a01b03165b6001600160a01b031690565b15610f87576020610f13610f0e610ec1610b44565b610edb610ecc610b92565b610ed58a610bbf565b90610bea565b610ee482610c1a565b52610eee81610c1a565b508c51610f08610f0160608d018d61099e565b369161049e565b90612cba565b610c1a565b51015151610f7857843b1561014a575f91610f4260405195869384936325a377d560e11b855260048501610cf8565b038183875af191821561029657600192610f5e575b5001610e0f565b80610f6c5f610f72936103c8565b80610c3b565b5f610f57565b6309bde33960e01b5f5260045ffd5b63f058bfd960e01b5f5260045ffd5b610fb7915060403d8111610fbd575b610faf81836103c8565b810190610b13565b5f610e8c565b503d610fa5565b6348e8dd2f60e11b5f5260045ffd5b6353ae552b60e11b5f5260045ffd5b611004915060603d60601161100a575b610ffc81836103c8565b81019061098a565b5f610df3565b503d610ff2565b63048c969960e01b5f5260045ffd5b1190505f80610db6565b61104d91925060203d602011611054575b61104581836103c8565b810190610907565b905f610dab565b503d61103b565b611074915060203d6020116110545761104581836103c8565b5f610d7f565b9190811015610a095760051b8101359060fe198136030182121561014a570190565b9190916101008184031261014a576110b26103f8565b9281356001600160401b03811161014a57816110cf918401610458565b845260208201356001600160401b03811161014a57816110f0918401610458565b602085015261110160408301610a0e565b60408501526111126060830161015f565b606085015261112360808301610a0e565b608085015260a08201356001600160401b03811161014a5781611147918401610509565b60a085015261115860c08301610a0e565b60c085015260e08201356001600160401b03811161014a5761117a9201610458565b60e0830152565b61052490369061109c565b9080602083519182815201916020808360051b8301019401925f915b8383106111b757505050505090565b90919293946020806111d5600193601f198682030187528951610c45565b970193019301919392906111a8565b6105249160e061126261121761120585516101008652610100860190610c45565b60208601518582036020870152610c45565b6040858101516001600160401b0316908501526060858101516001600160a01b0316908501526080858101516001600160401b03169085015260a085015184820360a086015261118c565b60c0808501516001600160401b0316908401529201519060e0818403910152610c45565b610d32610d13606093969594966080845260808401906111e4565b60408051631a880a9360e01b81526020848101803560048401529285013560248301526001600160a01b039390931692816044815f875af18015610296576112f0915f9161105b57504261094b565b60405163f3f480d960e01b815290602082600481875afa918215610296575f926114c9575b5081151591826114bf575b50506110115760405163a70a8c4760e01b81528135600482015260209091013560248201526060816044815f865af1908115610296575f916114a0575b506040810192835115610fd357611374818061099e565b9390505f5b84811061138857505050505050565b6113a461139f82611399868061099e565b9061107a565b611181565b906113ae82612f2e565b6001600160401b038651911611610fc4576113c882612f4c565b60408051630da2fd1960e21b8152600481018390529193919081602481885afa908115610296575f91611482575b50602081015161140e906001600160a01b0316610ea0565b15610f87576020611423610f0e610ec1610b44565b51015151610f7857843b1561014a575f916114526040519586938493636d6c231360e01b855260048501611286565b038183875af19182156102965760019261146e575b5001611379565b80610f6c5f61147c936103c8565b5f611467565b61149a915060403d8111610fbd57610faf81836103c8565b5f6113f6565b6114b9915060603d60601161100a57610ffc81836103c8565b5f61135d565b1190505f80611320565b6114e391925060203d6020116110545761104581836103c8565b905f611315565b604090610524939281528160208201520190610c45565b903590607e198136030182121561014a570190565b9061152082610426565b61152d60405191826103c8565b828152809261153e601f1991610426565b01905f5b82811061154e57505050565b60209060405161155d816103ad565b5f81525f8382015282828501015201611542565b9190811015610a095760051b81013590603e198136030182121561014a570190565b60408136031261014a57604051906115aa826103ad565b8035906001600160401b03821161014a576115ca60209236908301610a22565b83520135602082015290565b81601f8201121561014a578051906115ed8261043d565b926115fb60405194856103c8565b8284526020838301011161014a57815f9260208093018386015e8301015290565b9060208282031261014a5781516001600160401b03811161014a5761052492016115d6565b9081602091031261014a57516105248161014e565b92919061166281610426565b9361167060405195866103c8565b602085838152019160051b810192831161014a57905b82821061169257505050565b8135815260209182019101611686565b906116ba602091949394604084526040840190610c69565b6001600160a01b03909416910152565b6001600160a01b03169061170e60206116e38380611501565b604051631a880a9360e01b815281356004820152602090910135602482015291829081906044820190565b03815f875af180156102965761172b915f9161105b57504261094b565b60405163f3f480d960e01b815290602082600481875afa918215610296575f92611a38575b508115159182611a2e575b5050611011576020810161176f818361099e565b92905061177b83611516565b5f5b8481106118cc57506117bf60606117948480611501565b60405163a70a8c4760e01b815281356004820152602090910135602482015291829081906044820190565b03815f8a5af18015610296576020915f916118ad575b500151908115610fd35761181961181f91611823936118016117f78780611501565b604081019061099e565b9390606061180f8980611501565b0135943691611656565b90612f76565b1590565b610f78575f5b838110611837575050505050565b61185361184e82611848868661099e565b90611571565b611593565b5190853b1561014a575f61187d926040518094819263b85e6fbb60e01b83523390600484016116a2565b0381838a5af191821561029657600192611899575b5001611829565b80610f6c5f6118a7936103c8565b5f611892565b6118c6915060603d60601161100a57610ffc81836103c8565b5f6117d5565b6118dd61184e82611848878761099e565b9060208251015160405163f437bc5960e01b81525f816004818c5afa8015610296576119149261181f925f92611a0a575b50612f55565b6119fb576119316119258351612b40565b6001600160401b031690565b4210156119ec576119428251612b5e565b604051630cb33d1f60e11b8152600481018290526020816024818c5afa908115610296575f916119be575b506001600160a01b03166119af57602060019301519061198b610408565b918252602082015261199d8285610c27565b526119a88184610c27565b500161177d565b63156a571760e11b5f5260045ffd5b6119df915060203d81116119e5575b6119d781836103c8565b810190611641565b5f61196d565b503d6119cd565b631676f4b360e01b5f5260045ffd5b6390d4c20960e01b5f5260045ffd5b611a279192503d805f833e611a1f81836103c8565b81019061161c565b905f61190e565b1190505f8061175b565b611a5291925060203d6020116110545761104581836103c8565b905f611750565b91909160608184031261014a5760405190611a738261038d565b819381356001600160401b03811161014a5781611a91918401610a22565b83526020820135906001600160401b03821161014a5782611abb60409492611ac694869401610458565b602086015201610a0e565b910152565b60408136031261014a5760405190611ae2826103ad565b8035906001600160401b03821161014a576115ca60209236908301611a59565b9060406001600160401b0381611b24610c8b8651606087526060870190610c69565b9401511691015290565b906116ba602091949394604084526040840190611b02565b6001600160a01b031690611b5f60206116e38380611501565b03815f875af1801561029657611b7c915f9161105b57504261094b565b60405163f3f480d960e01b815290602082600481875afa918215610296575f92611de5575b508115159182611ddb575b50506110115760208101611bc0818361099e565b929050611bcc83611516565b5f5b848110611cc05750611be560606117948480611501565b03815f8a5af18015610296576020915f91611ca1575b500151908115610fd35761181961181f91611c1d936118016117f78780611501565b610f78575f5b838110611c31575050505050565b611c47611c4282611848868661099e565b611acb565b5190853b1561014a575f611c71926040518094819263ab013de160e01b8352339060048401611b2e565b0381838a5af191821561029657600192611c8d575b5001611c23565b80610f6c5f611c9b936103c8565b5f611c86565b611cba915060603d60601161100a57610ffc81836103c8565b5f611bfb565b611cd1611c4282611848878761099e565b90611cdf6119258351612f86565b4210156119ec57611cf1825151612b5e565b60408051630da2fd1960e21b81526004810183905290816024818c5afa8015610296576020610ea091611d34935f91611dbd575b5001516001600160a01b031690565b15610f78576040805163442b19bf60e11b81526004810192909252816024818b5afa8015610296576020610ea091611d7b935f91611dbd575001516001600160a01b031690565b6119af5781611d91602060019401519151612fa4565b611d99610408565b9182526020820152611dab8285610c27565b52611db68184610c27565b5001611bce565b611dd5915060403d8111610fbd57610faf81836103c8565b5f611d25565b1190505f80611bac565b611dff91925060203d6020116110545761104581836103c8565b905f611ba1565b9060408236031261014a57604051611e1d816103ad565b82356001600160401b03811161014a5783019260408436031261014a5760405193611e47856103ad565b80356001600160401b03811161014a57611e64903690830161109c565b85526020810135906001600160401b03821161014a57019336601f8601121561014a57843594611e9386610426565b90611ea160405192836103c8565b86825260208083019760051b8201019036821161014a5760208101975b828910611ede575050506020809495965082015283520135602082015290565b88356001600160401b03811161014a5782016040601f19823603011261014a5760405191611f0b836103ad565b60208201356001600160401b03811161014a57611f2e9060203691850101610458565b83526040820135926001600160401b03841161014a57611f576020949385809536920101610458565b83820152815201980197611ebe565b929190604084526020611f84825160408088015260808701906111e4565b91015190603f19858203016060860152815180825260208201916020808360051b8301019401925f915b838310611fd057505050505090602061016a9294019060018060a01b03169052565b909192939460208061200e600193601f1986820301875289519083611ffe8351604084526040840190610c45565b9201519084818403910152610c45565b97019301930191939290611fae565b6001600160a01b03169061203660206116e38380611501565b03815f875af1801561029657612053915f9161105b57504261094b565b60405163f3f480d960e01b815290602082600481875afa918215610296575f926122e8575b5081151591826122de575b50506110115760208101612097818361099e565b9290506120a383611516565b5f5b84811061219757506120bc60606117948480611501565b03815f8a5af18015610296576020915f91612178575b500151908115610fd35761181961181f916120f4936118016117f78780611501565b610f78575f5b838110612108575050505050565b61211e61211982611848868661099e565b611e06565b5190853b1561014a575f6121489260405180948192633f228d0760e21b8352339060048401611f66565b0381838a5af191821561029657600192612164575b50016120fa565b80610f6c5f612172936103c8565b5f61215d565b612191915060603d60601161100a57610ffc81836103c8565b5f6120d2565b6121a861211982611848878761099e565b6121b3815151612f4c565b60408051630da2fd1960e21b81526004810183905290816024818c5afa8015610296576020610ea0916121f5935f91611dbd575001516001600160a01b031690565b15610f87576040805163442b19bf60e11b81526004810192909252816024818b5afa8015610296576020610ea09161223c935f91611dbd575001516001600160a01b031690565b6119af5760a08151510151515f5b8181106122925750509081612266602060019401519151612ffc565b61226e610408565b91825260208201526122808285610c27565b5261228b8184610c27565b50016120a5565b6122a28160a08551510151610c27565b51602081519101206122b982602086510151610c27565b515160208151910120036122cf5760010161224a565b63837fbe2b60e01b5f5260045ffd5b1190505f80612083565b61230291925060203d6020116110545761104581836103c8565b905f612078565b604051630153df6760e21b8152909291906020816004816001600160a01b0388165afa908115610296575f91612372575b50612344816108e9565b6001811490811561235e575b506102445761016a926124b3565b6003915061236b816108e9565b145f612350565b61238b915060203d60201161028f5761028181836103c8565b5f61233a565b909160608284031261014a5781516001600160401b03811161014a57836123b99184016115d6565b9260208301516001600160401b03811161014a57830181601f8201121561014a578051906123e682610426565b926123f460405194856103c8565b828452602060a081860194028301019181831161014a57602001925b828410612424575050505060409092015190565b60a08483031261014a57602060a09160405161243f8161038d565b8651815282870151838201526124588560408901610958565b6040820152815201930192612410565b91926020936124808293604086526040860190610c45565b9385818603910152818452848401375f828201840152601f01601f1916010190565b906020610524928181520190610c45565b6040516326a1096f60e21b81526001600160a01b03909116929190602081600481875afa8015610296576124ee915f9161105b57504261094b565b60405163d40784c760e01b815290602082600481885afa918215610296575f92612855575b50101561284657604051632eeb667560e21b8152915f83600481875afa928315610296575f9361282a575b50604051632476132b60e01b815290602082600481885afa801561029657612587935f938492612809575b50604051809581948293637bf41d7760e11b84528960048501612468565b03916001600160a01b03165afa918215610296575f905f925f946127df575b506020815191012081516020830120146127d957833b1561014a575f6125e09160405180938192630b4974cf60e41b8352600483016124a2565b038183885af18015610296576127c5575b508051905f5b8281106126b25750505061260a9061092a565b6001600160a01b0382165f90815260016020526040902090919054821161262f575050565b6001600160a01b03165f90815260016020908152604080832084905590829052902061268a90339061266b9084905b905f5260205260405f2090565b80546001600160a01b0319166001600160a01b03909216919091179055565b33907f2b4e2a8b270a64e4ec388aa5c559d57927b97b13797f2b08cd3cf7043c3512d65f80a3565b6126bc8183610c27565b518051604051634e04afc360e11b815260048101919091529091906020816024818a5afa908115610296575f916127a7575b508015159081612799575b50612709575b60019150016125f7565b6040825192602081015161271b610408565b9485526020850152015191863b1561014a5760408051632acf7f4f60e11b815282516004820152602092830151602482015284516044820152918401516064830152929092015160848301525f8260a481838a5af191821561029657600192612785575b506126ff565b80610f6c5f612793936103c8565b5f61277f565b90506020830151115f6126f9565b6127bf915060203d81116110545761104581836103c8565b5f6126ee565b80610f6c5f6127d3936103c8565b5f6125f1565b50505050565b915092506127ff91503d805f833e6127f781836103c8565b810190612391565b919091925f6125a6565b61282391925060203d6020116119e5576119d781836103c8565b905f612569565b61283f9193503d805f833e611a1f81836103c8565b915f61253e565b63040dc5c360e41b5f5260045ffd5b61286f91925060203d6020116110545761104581836103c8565b905f612513565b9190811015610a095760051b81013590605e198136030182121561014a570190565b610524903690611a59565b604051906128b26040836103c8565b601082526f526573706f6e7365526563656970747360801b6020830152565b610d32610d1360609396959496608084526080840190611b02565b60408051631a880a9360e01b81526020848101803560048401529285013560248301526001600160a01b039390931692816044815f875af180156102965761293b915f9161105b57504261094b565b60405163f3f480d960e01b815290602082600481875afa918215610296575f92612b1f575b508115159182612b15575b50506110115760405163a70a8c4760e01b81528135600482015260209091013560248201526060816044815f865af1908115610296575f91612af6575b506040810192835115610fd3576129bf818061099e565b9390505f5b8481106129d357505050505050565b6129ef6129ea826129e4868061099e565b90612876565b612898565b906129f982612f86565b6001600160401b038651911611610fc457612a1382612fa4565b60408051632211f1dd60e01b8152600481018390529193919081602481885afa908115610296575f91612ad8575b506020810151612a59906001600160a01b0316610ea0565b15610f87576020612a79610f0e612a6e610b44565b610edb610ecc6128a3565b51015151610f7857843b1561014a575f91612aa86040519586938493630446fc4760e01b8552600485016128d1565b038183875af191821561029657600192612ac4575b50016129c4565b80610f6c5f612ad2936103c8565b5f612abd565b612af0915060403d8111610fbd57610faf81836103c8565b5f612a41565b612b0f915060603d60601161100a57610ffc81836103c8565b5f6129a8565b1190505f8061296b565b612b3991925060203d6020116110545761104581836103c8565b905f612960565b60a001516001600160401b03168061052457506001600160401b0390565b612b679061306e565b6020815191012090565b90612b7b82610426565b612b8860405191826103c8565b8281528092612b99601f1991610426565b01905f5b828110612ba957505050565b602090604051612bb88161038d565b606081526060838201525f604082015282828501015201612b9d565b90612bde82610426565b612beb60405191826103c8565b8281528092612bfc601f1991610426565b01905f5b828110612c0c57505050565b602090604051612c1b816103ad565b5f815260608382015282828501015201612c00565b5f1981146109385760010190565b60405190608082018281106001600160401b038211176103a857604052606080835f81525f60208201525f60408201520152565b906010811015610a095760051b0190565b906001820180921161093857565b9060ff820180921161093857565b906002820180921161093857565b9190820180921161093857565b92612cc58351612b71565b612ccf8351612bd4565b945f5b8451811015612d275780612ce860019287610c27565b5160208151910120612cfa8288610c27565b51612d03610408565b9182526020820152612d15828a610c27565b52612d208189610c27565b5001612cd2565b5091939092505f5b8151811015612f2657612d428183610c27565b51612d4d8286610c27565b5152612d598183610c27565b51612d62610408565b9081525f602082015290612d7e612d7985896130e7565b6131cf565b91600192835b612d95575b50506001915001612d2f565b612d9d612c3e565b93612da782613322565b15612e0a575060019350612dbd612dc591613763565b91825161384e565b612dd0575b80612d89565b6020612dde91015188613705565b6020612dea8388610c27565b510152612e046040612dfc8388610c27565b510160019052565b5f612dca565b9193612e158261333f565b15612f095750612e24906133f9565b92612e2f845161364a565b90612e3e61181f865183613671565b612f035781612e4c8261364a565b03612e9e575050506020600192612e686040612dfc858a610c27565b015180511515600114612e7b5780612d89565b6020612e8991015188613705565b6020612e958388610c27565b5101525f612dca565b909193612eb9906040612eb18585613684565b910151612c72565b5191612ec9836001905115151490565b15612f0357612d796020612eec612efc94612ee6612ef695612c83565b906136d3565b9401515b8b613705565b93612c30565b9283612d84565b50612d89565b9051919391612f2157612ef6612d79612efc92612ef0565b612d89565b509193505050565b608001516001600160401b03168061052457506001600160401b0390565b612b67906138cb565b9081519080518203612f6f57816020809201209201201490565b5050505f90565b929091612f82926139e1565b1490565b604001516001600160401b03168061052457506001600160401b0390565b612fd5612b6791612ff76008612fba835161306e565b92604060208201519101516040519586926020840190610bd8565b906001600160401b0360c01b9060c01b168152036017198101855201836103c8565b610bea565b90602060405161300d6020826103c8565b5f81529060208401805151905f925b8284106130355750505050612ff7612b679293516138cb565b90919293613064600191610ed561304d888751610c27565b51518561305b8a8951610c27565b51015190610bea565b940192919061301c565b61052460206130d9835193610c068382015191610c066040820151601060a0840151916060850151926130b660c0608088015197015198610c066040519e8f9d8e0190610bd8565b6001600160c01b031960c093841b811682529190921b1660088201520190610bd8565b03601f1981018352826103c8565b5f5b815181101561311f57826130fd8284610c27565b51511461310c576001016130e9565b6020925061311991610c27565b51015190565b60405162461bcd60e51b8152602060048201526011602482015270496e636f6d706c6574652050726f6f662160781b6044820152606490fd5b60405190613165826103ad565b5f602083606081520152565b6040519061014082018281106001600160401b038211176103a857604052815f81525f60208201525f60408201525f60608201525f60808201525f60a08201525f60c08201525f60e08201525f610100820152610120611ac6613158565b6131d7613171565b506131e0613171565b906131e9610408565b9081525f60208201526131fb81613c96565b5f60ff82161561331857829060c083166040810361323557505061321e91613dc0565b610100830152600160208301525b61012082015290565b60c0810361325a57505061324891613dc0565b6101008301526001606083015261322c565b6080810361327f57505061326d91613dc0565b610100830152600160a083015261322c565b14905061328d575b5061322c565b81602060e08316036132b6576132a291613d74565b610100830152600160408301525b5f613287565b50601060f08216036132de57816132cc91613d10565b610100830152600160808301526132b0565b60405162461bcd60e51b8152602060048201526012602482015271556e616c6c6f77656420656e636f64696e6760701b6044820152606490fd5b5050600182525090565b60208101511590811591613334575090565b604091500151151590565b60a08101511590811591613363575b8115613358575090565b606091500151151590565b60808101511515915061334e565b6040519061337e826103ad565b815f81526020611ac6612c3e565b604051906133998261038d565b816133a2613158565b81526133ac613371565b6020820152604051906102006133c281846103c8565b5f5b8181106133d357505060400152565b6020906133de613371565b81860152016133c4565b908151811015610a09570160200190565b61340161338c565b5061340a61338c565b90610120810151610100820191613422835160011690565b1515806135f6575b6135c35782519261345a61345261344c61344660018098612cad565b60011c90565b85613fba565b915160011690565b613462610408565b9182526020820152845261348761348061347b84613e0c565b6140a6565b61ffff1690565b90613490613371565b9061349e6080820151151590565b15613586575060018152602081016134b7815160019052565b60206134ca6134c586613ee8565b61430f565b915101525b6020850152604084015f5b601081106134ea57505050505090565b8061352586926134f8613371565b61350d8288600161ffff8093161b1616151590565b61352c575b85519061351f8383612c72565b52612c72565b50016134da565b60018152613539886141ac565b60208103613568575060208101613551815160019052565b602061355f6134c58b613ee8565b91510152613512565b606061355f6020840192613580604085510160019052565b8b613fba565b60600151156134cf57613598836141ac565b6001825260606135ba60208401926135b4604085510160019052565b86613fba565b915101526134cf565b60405162461bcd60e51b815260206004820152600b60248201526a42616420466f726d61742160a81b6044820152606490fd5b5060ff61362c61362661362061361286516020880151906133e8565b516001600160f81b03191690565b60f81c90565b60f01690565b16151561342a565b908160011b918083046002149015171561093857565b805151908160011b9180830460021490151715610938576020015181039081116109385790565b61367e82612f8292614370565b9161364a565b9060208201918251928284018094116109385751908282018211610938576002600f9360ff6136ba6001948298861c90516133e8565b5160f81c169308036136cb57161690565b60041c161690565b906136dc613158565b506020825192015190810180911161093857604051916136fb836103ad565b8252602082015290565b60408201511561371757506060015190565b815161373357505060405161372d6020826103c8565b5f815290565b6020610524920151906130e7565b6040519061374e826103ad565b81613757613158565b81526020611ac6612c3e565b61376b613741565b50613774613741565b90610120810151610100820161378b815160011690565b15158061382a575b6135c3576137b26134526137ac61344660018551612cad565b84613fba565b6137ba610408565b918252602082015283526137d960406137d1612c3e565b930151151590565b15613801576134c56137f4916137ef8460019052565b613ee8565b6020820152602082015290565b8061380e613820926141ac565b6001604085015290613fba565b613fba565b6060820152610b3c565b5060ff61384661362661362061361286516020880151906133e8565b161515613793565b906138588261364a565b6138618261364a565b14918261386d57505090565b81612f8292935061367e91614370565b94610c069461389c601894610c066105249c9b99610c069b9896610bd8565b6001600160c01b031960c094851b8116825291841b821660088201529190921b90911660108201520190610bd8565b906138d4610b7e565b60a08301928351515f905b80821061398d575050610524919293506130d981519160208101519461396d61391260408401516001600160401b031690565b9261392760c08201516001600160401b031690565b60e061393d60808401516001600160401b031690565b606084810151604051911b6bffffffffffffffffffffffff191660208201529490939061397b9086906034820190565b03601f1981018752866103c8565b015194604051998a9860208a0161387d565b90926139a76001916139a0868951610c27565b5190610bea565b9301906138df565b906139b982610426565b6139c660405191826103c8565b82815280926139d7601f1991610426565b0190602036910137565b9290928215613c87578351938415613c785760015b858110613c3b57506001841480613c31575b80613c1f575b613c0a57613a23613a1e856144b4565b6139af565b94613a2c610408565b945f865260208601968752613a3f610408565b925f845260208401948552613a52610417565b905f82526020820193845260408201525f91805b613af5575b50505051613ae6575190515103613ad75781515f190182525b815115613ac757613a9482614763565b613a9d83614763565b90613aa9845160010190565b84525f5260205260405f20613ac18451845190610c27565b52613a84565b91613ad3915051610c1a565b5190565b637227423160e11b5f5260045ffd5b63072afb8760e51b5f5260045ffd5b613b5f81806fffffffffffffffffffffffffffffffff1060071b81811c6001600160401b031060061b1781811c63ffffffff1060051b1781811c61ffff1060041b1781811c60ff1060031b1781811c600f1060021b1781811c60031060011b1790811c6001101790565b92613b79613b716001861b809461094b565b928392612cad565b938685613b8681876144f9565b92602084015180155f14613bbe575050505050508551518551145f03613a6b5780613bb9613bb387614747565b8a61472c565b613a66565b60011480613c02575b15613bee575050506020613be5826040613bb9940151905190610c27565b5101518a61472c565b91613bb993916002613bb3941b0391614582565b508015613bc7565b925090925051613ad757613119602091610c1a565b50613c2981610c1a565b515115613a0e565b5060018514613a08565b613c458183610c27565b5151613c59613c538361092a565b84610c27565b51511015613c69576001016139f6565b630647f54960e21b5f5260045ffd5b631a14a47760e31b5f5260045ffd5b639136328760e01b5f5260045ffd5b60208101908151600181018091116109385781515110613cdc575181516001600160f81b031991613cc791906133e8565b511660f81c90613cd78151612c83565b905290565b60405162461bcd60e51b815260206004820152600c60248201526b4f7574206f662072616e676560a01b6044820152606490fd5b600f16600f8110613d6f575f198101908111610938575b61ffff811115613d3957505061ffff90565b60ff613d4483613c96565b1660ff8110613d5c5750613d5790612c91565b613d27565b8101915081106109385761052490612c83565b905090565b601f16601f8110613d6f575f198101908111610938575b61ffff811115613d9d57505061ffff90565b60ff613da883613c96565b1660ff8110613d5c5750613dbb90612c91565b613d8b565b603f16603f8110613d6f575f198101908111610938575b61ffff811115613de957505061ffff90565b60ff613df483613c96565b1660ff8110613d5c5750613e0790612c91565b613dd7565b60208101805160028101809111610938578251511061014a5760209151828251820101928391011161093857613e42600261043d565b91613e5060405193846103c8565b60028352613e5e600261043d565b6020840190601f19013682379060025b6020811015613eb85780613e9957505f19905b811990511690825116179052613cd760028251612cad565b613ead613ea8613eb29261093d565b6148fe565b61092a565b90613e81565b909182518152602081018091116109385791602081018091116109385790601f19810190811115613e6e57610916565b60208101805160208101809111610938578251511061014a5760209151828251820101928391011161093857613f1e602061043d565b91613f2c60405193846103c8565b60208352613f3a602061043d565b6020840190601f19013682379060205b6020811015613f8a5780613f7557505f19905b811990511690825116179052613cd760208251612cad565b613ead613ea8613f849261093d565b90613f5d565b909182518152602081018091116109385791602081018091116109385790601f19810190811115613f4a57610916565b9190602083018051828101809111610938578451511061014a5781156140945760209351848251820101948591011161093857613ff68261043d565b9161400460405193846103c8565b8083526140108161043d565b602084019590601f19013687378195905b602087101561406557613cd79394959680155f1461405057505f19905b51825182169119161790528251612cad565b613ead613ea861405f9261093d565b9061403e565b9081518152602081018091116109385790602081018091116109385795601f1981019081116109385795614021565b5050905060405161372d6020826103c8565b80515f91815b6140b557505090565b90915f198301838111610938576140cc81846133e8565b5160f81c90600381901b906001600160fd1b038116036109385760ff8111610938576001901b908181029181830414901517156109385761410c91612cad565b918015610938575f190190816140ac565b60ff60049116019060ff821161093857565b1561413657565b60405162461bcd60e51b815260206004820152602860248201527f756e657870656374656420707265666978206465636f64696e6720436f6d706160448201526731ba1e2ab4b73a1f60c11b6064820152608490fd5b906001600160401b03809116911601906001600160401b03821161093857565b6141b581613c96565b60038116806141d15750610524915060021c603f165b60ff1690565b600181036142165750611925906142106141cb6142066141f66141cb61052497613c96565b60061b67ffffffffffffffc01690565b9260021c603f1690565b9061418c565b60028103614295575061428c9061427f60ff846142708261423961052498613c96565b958161425f8161425161424b88613c96565b97613c96565b991660081b63ffffff001690565b911617921660101b63ffff00001690565b17921660181b63ff0000001690565b1760021c633fffffff1690565b63ffffffff1690565b6003036142ca576105249160ff6142bb6142b661347b94603f9060021c1690565b61411d565b169061381b600883111561412f565b60405162461bcd60e51b815260206004820152601a60248201527f436f64652073686f756c6420626520756e726561636861626c650000000000006044820152606490fd5b602081511061431f576020015190565b60405162461bcd60e51b8152602060048201526024808201527f42797465733a3a20746f427974657333323a206461746120697320746f20736860448201526337b93a1760e11b6064820152608490fd5b6020810190614380825160011690565b916020840190614391825160011690565b840361444f57516143a79060011c915160011c90565b915f936143d7575b6143d2926143c561052496936143cc93516147cc565b92516147cc565b90614845565b612cad565b925092600f60f81b6143ed6136128686516133e8565b16614412600f60f81b6144046136128686516133e8565b166001600160f81b03191690565b03614447576143cc6143d2926143c561443661443061052498612c30565b92612c30565b9160019693509396505092506143af565b505050505f90565b505091905061446f6144608361364a565b6144698361364a565b9061477f565b905f925b828410614481575b50505090565b90919261448e8183613684565b6144988285613684565b036144ae576144a690612c30565b929190614473565b9261447b565b90815f925b6144c05750565b915f198301838111610938576001931692839101926144b9565b604051906144e78261038d565b60606040835f81525f60208201520152565b6145016144da565b5080516145146020830191825190612cad565b928251905b84821061455b575b50829350614534613cd79293518261094b565b908451946040810151614545610417565b968752836020880152604087015252825161094b565b9061456a816040860151610c27565b515182111561457c5760010190614519565b90614521565b91906020830151835193614595826139af565b9361459f836139af565b955f5b8481106146de5750505050935b60016145ba84610c1a565b51146146d1575f945f905b8082106145d95750508480845284526145af565b90956145e58786610c27565b518787846145f283612c83565b10806146b3575b1561465a576001926146318361462961462361461c614654999761464297610c27565b5192612c83565b8d610c27565b5190836148eb565b61463b848c610c27565b5260011c90565b61464c8289610c27565b520196612c9f565b906145c5565b5050845160208601515111156146a457600191614690839261463161467f8c8c610c27565b516146898a614747565b90836148eb565b61469a8289610c27565b52019601906145c5565b63d8f29a1560e01b5f5260045ffd5b506146c66146c083612c83565b89610c27565b5160018418146145f9565b93505050613ad390610c1a565b6001906147176040860160206146ff82516146f98689612cad565b90610c27565b51015161470c848d610c27565b525182850190610c27565b51518401614725828a610c27565b52016145a2565b9061473d6020830151835190610c27565b5260018151019052565b6147576020820151825190610c27565b51906001815101905290565b6147736020820151825190610c27565b5181515f190190915290565b9080821015613d6f575090565b1561479357565b60405162461bcd60e51b8152602060048201526011602482015270736c6963655f6f75744f66426f756e647360781b6044820152606490fd5b9081516147e5826147dd818461094b565b92101561478c565b806147fd575050506040515f81526020810160405290565b60405192601f821692831560051b80858701019484860193010101905b8084106148325750508252601f01601f191660405290565b909260208091855181520193019061481a565b614852815183519061477f565b915f915b8383106148695750506105249150613634565b90916001600160f81b031961487e82846133e8565b51166001600160f81b031961489383866133e8565b5116036148aa576148a390612c30565b9190614856565b80935060011b9183830460021484151715610938576148df613612856148d9613612610524986148e5976133e8565b936133e8565b9061490d565b90612cad565b60011661265e575f5260205260405f2090565b601f8111610938576101000a90565b906001600160f81b031980831690821603614929575050600290565b60f0809160f81c169160f81c16145f1461494257600190565b5f9056fea26469706673582212200cc9c66fcd38a92d920ac34396c99ae457da7c2c5417508f766e163480aa852e64736f6c634300081e0033","linkReferences":{}},"methodIdentifiers":{"batchCall(bytes[])":"68be3cf2","currentEpoch(address)":"0736e19f","handleConsensus(address,bytes)":"bb1689be","handleGetRequestTimeouts(address,((bytes,bytes,uint64,address,uint64,bytes[],uint64,bytes)[],(uint256,uint256),bytes[]))":"191c872b","handleGetResponses(address,(((uint256,uint256),bytes32[],uint256),(((bytes,bytes,uint64,address,uint64,bytes[],uint64,bytes),(bytes,bytes)[]),uint256)[]))":"a33c4706","handlePostRequestTimeouts(address,((bytes,bytes,uint64,bytes,bytes,uint64,bytes)[],(uint256,uint256),bytes[]))":"089b174c","handlePostRequests(address,(((uint256,uint256),bytes32[],uint256),((bytes,bytes,uint64,bytes,bytes,uint64,bytes),uint256)[]))":"698b1267","handlePostResponseTimeouts(address,(((bytes,bytes,uint64,bytes,bytes,uint64,bytes),bytes,uint64)[],(uint256,uint256),bytes[]))":"e407f86b","handlePostResponses(address,(((uint256,uint256),bytes32[],uint256),(((bytes,bytes,uint64,bytes,bytes,uint64,bytes),bytes,uint64),uint256)[]))":"8958402a","relayerOf(address,uint256)":"321e3f15","supportsInterface(bytes4)":"01ffc9a7"},"id":131}