{"abi":[{"type":"constructor","inputs":[{"name":"managerParams","type":"tuple","internalType":"struct HostManagerParams","components":[{"name":"admin","type":"address","internalType":"address"},{"name":"host","type":"address","internalType":"address"}]}],"stateMutability":"nonpayable"},{"type":"receive","stateMutability":"payable"},{"type":"function","name":"host","inputs":[],"outputs":[{"name":"","type":"address","internalType":"address"}],"stateMutability":"view"},{"type":"function","name":"onAccept","inputs":[{"name":"incoming","type":"tuple","internalType":"struct IncomingPostRequest","components":[{"name":"request","type":"tuple","internalType":"struct PostRequest","components":[{"name":"source","type":"bytes","internalType":"bytes"},{"name":"dest","type":"bytes","internalType":"bytes"},{"name":"nonce","type":"uint64","internalType":"uint64"},{"name":"from","type":"bytes","internalType":"bytes"},{"name":"to","type":"bytes","internalType":"bytes"},{"name":"timeoutTimestamp","type":"uint64","internalType":"uint64"},{"name":"body","type":"bytes","internalType":"bytes"}]},{"name":"relayer","type":"address","internalType":"address"}]}],"outputs":[],"stateMutability":"nonpayable"},{"type":"function","name":"onGetResponse","inputs":[{"name":"","type":"tuple","internalType":"struct IncomingGetResponse","components":[{"name":"response","type":"tuple","internalType":"struct GetResponse","components":[{"name":"request","type":"tuple","internalType":"struct GetRequest","components":[{"name":"source","type":"bytes","internalType":"bytes"},{"name":"dest","type":"bytes","internalType":"bytes"},{"name":"nonce","type":"uint64","internalType":"uint64"},{"name":"from","type":"address","internalType":"address"},{"name":"timeoutTimestamp","type":"uint64","internalType":"uint64"},{"name":"keys","type":"bytes[]","internalType":"bytes[]"},{"name":"height","type":"uint64","internalType":"uint64"},{"name":"context","type":"bytes","internalType":"bytes"}]},{"name":"values","type":"tuple[]","internalType":"struct StorageValue[]","components":[{"name":"key","type":"bytes","internalType":"bytes"},{"name":"value","type":"bytes","internalType":"bytes"}]}]},{"name":"relayer","type":"address","internalType":"address"}]}],"outputs":[],"stateMutability":"nonpayable"},{"type":"function","name":"onGetTimeout","inputs":[{"name":"","type":"tuple","internalType":"struct GetRequest","components":[{"name":"source","type":"bytes","internalType":"bytes"},{"name":"dest","type":"bytes","internalType":"bytes"},{"name":"nonce","type":"uint64","internalType":"uint64"},{"name":"from","type":"address","internalType":"address"},{"name":"timeoutTimestamp","type":"uint64","internalType":"uint64"},{"name":"keys","type":"bytes[]","internalType":"bytes[]"},{"name":"height","type":"uint64","internalType":"uint64"},{"name":"context","type":"bytes","internalType":"bytes"}]}],"outputs":[],"stateMutability":"nonpayable"},{"type":"function","name":"onPostRequestTimeout","inputs":[{"name":"","type":"tuple","internalType":"struct PostRequest","components":[{"name":"source","type":"bytes","internalType":"bytes"},{"name":"dest","type":"bytes","internalType":"bytes"},{"name":"nonce","type":"uint64","internalType":"uint64"},{"name":"from","type":"bytes","internalType":"bytes"},{"name":"to","type":"bytes","internalType":"bytes"},{"name":"timeoutTimestamp","type":"uint64","internalType":"uint64"},{"name":"body","type":"bytes","internalType":"bytes"}]}],"outputs":[],"stateMutability":"nonpayable"},{"type":"function","name":"onPostResponse","inputs":[{"name":"","type":"tuple","internalType":"struct IncomingPostResponse","components":[{"name":"response","type":"tuple","internalType":"struct PostResponse","components":[{"name":"request","type":"tuple","internalType":"struct PostRequest","components":[{"name":"source","type":"bytes","internalType":"bytes"},{"name":"dest","type":"bytes","internalType":"bytes"},{"name":"nonce","type":"uint64","internalType":"uint64"},{"name":"from","type":"bytes","internalType":"bytes"},{"name":"to","type":"bytes","internalType":"bytes"},{"name":"timeoutTimestamp","type":"uint64","internalType":"uint64"},{"name":"body","type":"bytes","internalType":"bytes"}]},{"name":"response","type":"bytes","internalType":"bytes"},{"name":"timeoutTimestamp","type":"uint64","internalType":"uint64"}]},{"name":"relayer","type":"address","internalType":"address"}]}],"outputs":[],"stateMutability":"nonpayable"},{"type":"function","name":"onPostResponseTimeout","inputs":[{"name":"","type":"tuple","internalType":"struct PostResponse","components":[{"name":"request","type":"tuple","internalType":"struct PostRequest","components":[{"name":"source","type":"bytes","internalType":"bytes"},{"name":"dest","type":"bytes","internalType":"bytes"},{"name":"nonce","type":"uint64","internalType":"uint64"},{"name":"from","type":"bytes","internalType":"bytes"},{"name":"to","type":"bytes","internalType":"bytes"},{"name":"timeoutTimestamp","type":"uint64","internalType":"uint64"},{"name":"body","type":"bytes","internalType":"bytes"}]},{"name":"response","type":"bytes","internalType":"bytes"},{"name":"timeoutTimestamp","type":"uint64","internalType":"uint64"}]}],"outputs":[],"stateMutability":"nonpayable"},{"type":"function","name":"params","inputs":[],"outputs":[{"name":"","type":"tuple","internalType":"struct HostManagerParams","components":[{"name":"admin","type":"address","internalType":"address"},{"name":"host","type":"address","internalType":"address"}]}],"stateMutability":"view"},{"type":"function","name":"quote","inputs":[{"name":"request","type":"tuple","internalType":"struct DispatchPost","components":[{"name":"dest","type":"bytes","internalType":"bytes"},{"name":"to","type":"bytes","internalType":"bytes"},{"name":"body","type":"bytes","internalType":"bytes"},{"name":"timeout","type":"uint64","internalType":"uint64"},{"name":"fee","type":"uint256","internalType":"uint256"},{"name":"payer","type":"address","internalType":"address"}]}],"outputs":[{"name":"","type":"uint256","internalType":"uint256"}],"stateMutability":"view"},{"type":"function","name":"quote","inputs":[{"name":"request","type":"tuple","internalType":"struct DispatchGet","components":[{"name":"dest","type":"bytes","internalType":"bytes"},{"name":"height","type":"uint64","internalType":"uint64"},{"name":"keys","type":"bytes[]","internalType":"bytes[]"},{"name":"timeout","type":"uint64","internalType":"uint64"},{"name":"fee","type":"uint256","internalType":"uint256"},{"name":"context","type":"bytes","internalType":"bytes"}]}],"outputs":[{"name":"","type":"uint256","internalType":"uint256"}],"stateMutability":"view"},{"type":"function","name":"quote","inputs":[{"name":"response","type":"tuple","internalType":"struct DispatchPostResponse","components":[{"name":"request","type":"tuple","internalType":"struct PostRequest","components":[{"name":"source","type":"bytes","internalType":"bytes"},{"name":"dest","type":"bytes","internalType":"bytes"},{"name":"nonce","type":"uint64","internalType":"uint64"},{"name":"from","type":"bytes","internalType":"bytes"},{"name":"to","type":"bytes","internalType":"bytes"},{"name":"timeoutTimestamp","type":"uint64","internalType":"uint64"},{"name":"body","type":"bytes","internalType":"bytes"}]},{"name":"response","type":"bytes","internalType":"bytes"},{"name":"timeout","type":"uint64","internalType":"uint64"},{"name":"fee","type":"uint256","internalType":"uint256"},{"name":"payer","type":"address","internalType":"address"}]}],"outputs":[{"name":"","type":"uint256","internalType":"uint256"}],"stateMutability":"view"},{"type":"function","name":"quoteNative","inputs":[{"name":"request","type":"tuple","internalType":"struct DispatchPost","components":[{"name":"dest","type":"bytes","internalType":"bytes"},{"name":"to","type":"bytes","internalType":"bytes"},{"name":"body","type":"bytes","internalType":"bytes"},{"name":"timeout","type":"uint64","internalType":"uint64"},{"name":"fee","type":"uint256","internalType":"uint256"},{"name":"payer","type":"address","internalType":"address"}]}],"outputs":[{"name":"","type":"uint256","internalType":"uint256"}],"stateMutability":"view"},{"type":"function","name":"quoteNative","inputs":[{"name":"request","type":"tuple","internalType":"struct DispatchPostResponse","components":[{"name":"request","type":"tuple","internalType":"struct PostRequest","components":[{"name":"source","type":"bytes","internalType":"bytes"},{"name":"dest","type":"bytes","internalType":"bytes"},{"name":"nonce","type":"uint64","internalType":"uint64"},{"name":"from","type":"bytes","internalType":"bytes"},{"name":"to","type":"bytes","internalType":"bytes"},{"name":"timeoutTimestamp","type":"uint64","internalType":"uint64"},{"name":"body","type":"bytes","internalType":"bytes"}]},{"name":"response","type":"bytes","internalType":"bytes"},{"name":"timeout","type":"uint64","internalType":"uint64"},{"name":"fee","type":"uint256","internalType":"uint256"},{"name":"payer","type":"address","internalType":"address"}]}],"outputs":[{"name":"","type":"uint256","internalType":"uint256"}],"stateMutability":"view"},{"type":"function","name":"quoteNative","inputs":[{"name":"request","type":"tuple","internalType":"struct DispatchGet","components":[{"name":"dest","type":"bytes","internalType":"bytes"},{"name":"height","type":"uint64","internalType":"uint64"},{"name":"keys","type":"bytes[]","internalType":"bytes[]"},{"name":"timeout","type":"uint64","internalType":"uint64"},{"name":"fee","type":"uint256","internalType":"uint256"},{"name":"context","type":"bytes","internalType":"bytes"}]}],"outputs":[{"name":"","type":"uint256","internalType":"uint256"}],"stateMutability":"view"},{"type":"function","name":"setIsmpHost","inputs":[{"name":"hostAddr","type":"address","internalType":"address"}],"outputs":[],"stateMutability":"nonpayable"},{"type":"function","name":"supportsInterface","inputs":[{"name":"interfaceId","type":"bytes4","internalType":"bytes4"}],"outputs":[{"name":"","type":"bool","internalType":"bool"}],"stateMutability":"view"},{"type":"error","name":"UnauthorizedAction","inputs":[]},{"type":"error","name":"UnauthorizedCall","inputs":[]},{"type":"error","name":"UnexpectedCall","inputs":[]}],"bytecode":{"object":"0x60806040523460c657604051601f6119fb38819003918201601f19168301916001600160401b0383118484101760b257808492604094855283398101031260c6576040805190810191906001600160401b0383118184101760b257602092604052607383606a8460ca565b938484520160ca565b92018290525f80546001600160a01b039283166001600160a01b0319918216179091556001805492909316911617905560405161191d90816100de8239f35b634e487b7160e01b5f52604160045260245ffd5b5f80fd5b51906001600160a01b038216820360c65756fe6080604052600436101561001a575b3615610018575f80fd5b005b5f3560e01c806301ffc9a7146101195780630bc37bab146101145780630e8324a21461010f5780630fee32ce1461010a578063108bc1dd1461010557806344ab20f8146101005780634f3f7c05146100fb578063632e235a146100f6578063b2a01bf5146100f1578063bc0dd447146100ec578063bca96c39146100e7578063cff0ab96146100e2578063d0fff366146100dd578063d24740fb146100d8578063dd92a316146100d35763f437bc590361000e57610fd9565b610fc6565b610fb5565b610f85565b610f25565b610f03565b610e07565b610d97565b610d81565b610b11565b610977565b6107dd565b6104cd565b61046a565b610419565b3461016f57602036600319011261016f5760043563ffffffff60e01b811680910361016f57602090639ed4554960e01b811490811561015e575b506040519015158152f35b6301ffc9a760e01b1490505f610153565b5f80fd5b634e487b7160e01b5f52604160045260245ffd5b606081019081106001600160401b038211176101a257604052565b610173565b604081019081106001600160401b038211176101a257604052565b60a081019081106001600160401b038211176101a257604052565b90601f801991011681019081106001600160401b038211176101a257604052565b6040519061020d60e0836101dd565b565b6040519061020d60c0836101dd565b6040519061020d610100836101dd565b6040519061020d6101c0836101dd565b6001600160401b0381116101a257601f01601f191660200190565b9291926102658261023e565b9161027360405193846101dd565b82948184528183011161016f578281602093845f960137010152565b9080601f8301121561016f578160206102aa93359101610259565b90565b35906001600160401b038216820361016f57565b91909160e08184031261016f576102d66101fe565b9281356001600160401b03811161016f57816102f391840161028f565b845260208201356001600160401b03811161016f578161031491840161028f565b6020850152610325604083016102ad565b604085015260608201356001600160401b03811161016f578161034991840161028f565b606085015260808201356001600160401b03811161016f578161036d91840161028f565b608085015261037e60a083016102ad565b60a085015260c08201356001600160401b03811161016f576103a0920161028f565b60c0830152565b91909160608184031261016f57604051906103c182610187565b819381356001600160401b03811161016f57816103df9184016102c1565b83526020820135906001600160401b03821161016f5782610409604094926104149486940161028f565b6020860152016102ad565b910152565b3461016f57602036600319011261016f576004356001600160401b03811161016f576104499036906004016103a7565b611001565b6001600160a01b0381160361016f57565b359061020d8261044e565b3461016f57602036600319011261016f576004356104878161044e565b5f54906001600160a01b03821633036104be57600180546001600160a01b03929092166001600160a01b0319928316179055165f55005b63421c007d60e11b5f5260045ffd5b3461016f57602036600319011261016f576004356001600160401b03811161016f5760408160040191600319903603011261016f57600154906001600160a01b03821633036104be578061052091611032565b61055661054a61054a61053d6105368580611047565b3691610259565b946001600160a01b031690565b6001600160a01b031690565b91604051622f3b1f60e11b81525f81600481875afa80156106745761058a92610586925f926106e4575b506118c6565b1590565b6104be5760c08101916105c86105c36105bd6105af6105a98787611047565b906110fa565b356001600160f81b03191690565b60f81c90565b611126565b6105d181611108565b806106795750506105e86105f7926105ef92611047565b8091611135565b81019061150b565b60015461060e9061054a906001600160a01b031681565b803b1561016f576040805163cb1a6e2f60e01b815283516001600160a01b0316600482015260208401516024820152920151151560448301525f908290606490829084905af180156106745761066057005b8061066e5f610018936101dd565b80610f1b565b6110db565b80610688600192959395611108565b1461068f57005b6105e861069f916106a793611047565b81019061122e565b90803b1561016f57604051636ad7df4760e01b8152915f9183918290849082906106d490600483016113ff565b03925af180156106745761066057005b6107019192503d805f833e6106f981836101dd565b810190611079565b905f610580565b602060031982011261016f576004356001600160401b03811161016f5760c0818303600319011261016f5761073b61020f565b9181600401356001600160401b03811161016f5781600461075e9285010161028f565b835260248201356001600160401b03811161016f578160046107829285010161028f565b60208401526044820135916001600160401b03831161016f576107af60a49260046107d59584010161028f565b60408501526107c0606482016102ad565b6060850152608481013560808501520161045f565b60a082015290565b3461016f5760206107f56107f036610708565b6115bf565b604051908152f35b6001600160401b0381116101a25760051b60200190565b9080601f8301121561016f57813561082b816107fd565b9261083960405194856101dd565b81845260208085019260051b8201019183831161016f5760208201905b83821061086557505050505090565b81356001600160401b03811161016f576020916108878784809488010161028f565b815201910190610856565b9190916101008184031261016f576108a861021e565b9281356001600160401b03811161016f57816108c591840161028f565b845260208201356001600160401b03811161016f57816108e691840161028f565b60208501526108f7604083016102ad565b60408501526109086060830161045f565b6060850152610919608083016102ad565b608085015260a08201356001600160401b03811161016f578161093d918401610814565b60a085015261094e60c083016102ad565b60c085015260e08201356001600160401b03811161016f57610970920161028f565b60e0830152565b3461016f57602036600319011261016f576004356001600160401b03811161016f576040600319823603011261016f57604051906109b4826101a7565b80600401356001600160401b03811161016f5781016040600319823603011261016f57604051906109e4826101a7565b60048101356001600160401b03811161016f57610a079060043691840101610892565b825260248101356001600160401b03811161016f57600491010136601f8201121561016f578035610a37816107fd565b91610a4560405193846101dd565b81835260208084019260051b8201019036821161016f5760208101925b828410610a895787610a7f6024898989602082015284520161045f565b6020820152611001565b83356001600160401b03811161016f5782016040601f19823603011261016f5760405191610ab6836101a7565b60208201356001600160401b03811161016f57610ad9906020369185010161028f565b83526040820135926001600160401b03841161016f57610b02602094938580953692010161028f565b83820152815201930192610a62565b3461016f57610b226107f036610708565b600154610b399061054a906001600160a01b031681565b90604051630b4a282f60e11b8152602081600481865afa908115610674575f91610cae575b50610b67611685565b6040516315ab88c960e31b81529390916001600160a01b031690602085600481855afa90811561067457610bba6020926004975f91610c91575b50610bab866116a7565b6001600160a01b039091169052565b60405163647846a560e01b815295869182905afa92831561067457610bef5f94610c0b968691610c62575b50610bab856116b4565b6040518095819482936307c0329d60e21b84526004840161173d565b03915afa90811561067457610c3c91610c2b915f91610c40575b506116a7565b516040519081529081906020820190565b0390f35b610c5c91503d805f833e610c5481836101dd565b8101906116c4565b5f610c25565b610c84915060203d602011610c8a575b610c7c81836101dd565b810190611670565b5f610be5565b503d610c72565b610ca89150843d8611610c8a57610c7c81836101dd565b5f610ba1565b610cc7915060203d602011610c8a57610c7c81836101dd565b5f610b5e565b602060031982011261016f57600435906001600160401b03821161016f5760a0828203600319011261016f5760405191610d06836101c2565b80600401356001600160401b03811161016f57826004610d28928401016102c1565b835260248101356001600160401b03811161016f576084926004610d4e9284010161028f565b6020840152610d5f604482016102ad565b6040840152606481013560608401520135610d798161044e565b608082015290565b3461016f57610b22610d9236610ccd565b61186a565b3461016f57602036600319011261016f576004356001600160401b03811161016f576040600319823603011261016f5760405190610dd4826101a7565b8060040135906001600160401b03821161016f57610dfa602492600436918401016103a7565b83520135610a7f8161044e565b3461016f57602036600319011261016f576004356001600160401b03811161016f576104499036906004016102c1565b602060031982011261016f576004356001600160401b03811161016f5760c0818303600319011261016f57610e6a61020f565b9181600401356001600160401b03811161016f57816004610e8d9285010161028f565b8352610e9b602483016102ad565b602084015260448201356001600160401b03811161016f57816004610ec292850101610814565b6040840152610ed3606483016102ad565b60608401526084820135608084015260a4820135916001600160401b03831161016f576107d5920160040161028f565b3461016f5760206107f5610f1636610e37565b611786565b5f91031261016f57565b3461016f575f36600319011261016f575f6020604051610f44816101a7565b828152015260408051610f56816101a7565b5f546001600160a01b039081168083526001548216602093840190815284519182525190911691810191909152f35b3461016f57602036600319011261016f576004356001600160401b03811161016f57610449903690600401610892565b3461016f57610b22610f1636610e37565b3461016f5760206107f5610d9236610ccd565b3461016f575f36600319011261016f576001546040516001600160a01b039091168152602090f35b506001546001600160a01b03163303611023576302cbc79f60e01b5f5260045ffd5b637bf6a16f60e01b5f5260045ffd5b90359060de198136030182121561016f570190565b903590601e198136030182121561016f57018035906001600160401b03821161016f5760200191813603831361016f57565b60208183031261016f578051906001600160401b03821161016f570181601f8201121561016f578051906110ac8261023e565b926110ba60405194856101dd565b8284526020838301011161016f57815f9260208093018386015e8301015290565b6040513d5f823e3d90fd5b634e487b7160e01b5f52603260045260245ffd5b90156111035790565b6110e6565b6002111561111257565b634e487b7160e01b5f52602160045260245ffd5b60ff1660028110156111125790565b909291928360011161016f57831161016f57600101915f190190565b9080601f8301121561016f578135611168816107fd565b9261117660405194856101dd565b81845260208085019260051b82010192831161016f57602001905b82821061119e5750505090565b8135815260209182019101611191565b81601f8201121561016f578035906111c5826107fd565b926111d360405194856101dd565b82845260208085019360061b8301019181831161016f57602001925b8284106111fd575050505090565b60408483031261016f5760206040918251611217816101a7565b8635815282870135838201528152019301926111ef565b60208183031261016f578035906001600160401b03821161016f57016101c08183031261016f5761125d61022e565b918135835260208201356020840152604082013560408401526112826060830161045f565b60608401526112936080830161045f565b60808401526112a460a0830161045f565b60a08401526112b560c0830161045f565b60c08401526112c660e0830161045f565b60e08401526101008201356101008401526101208201356101208401526112f0610140830161045f565b6101408401526101608201356001600160401b03811161016f5781611316918401611151565b6101608401526101808201356001600160401b03811161016f578161133c9184016111ae565b6101808401526101a08201356001600160401b03811161016f57611360920161028f565b6101a082015290565b90602080835192838152019201905f5b8181106113865750505090565b8251845260209384019390920191600101611379565b90602080835192838152019201905f5b8181106113b95750505090565b82518051855260209081015181860152604090940193909201916001016113ac565b805180835260209291819084018484015e5f828201840152601f01601f1916010190565b906102aa916020815281516020820152602082015160408201526040820151606082015261143c6060830151608083019060018060a01b03169052565b60808201516001600160a01b031660a082015260a08201516001600160a01b031660c082015260c08201516001600160a01b031660e082015260e08201516001600160a01b03166101008201526101008201516101208201526101208201516101408201526114bc61014083015161016083019060018060a01b03169052565b6101a06114f56114df6101608501516101c06101808601526101e0850190611369565b610180850151848203601f19018486015261139c565b920151906101c0601f19828503019101526113db565b9081606091031261016f57604080519161152483610187565b803561152f8161044e565b8352602081013560208401520135801515810361016f57604082015290565b9081602091031261016f575190565b9060206102aa9281815201906113db565b634e487b7160e01b5f52601160045260245ffd5b600581901b91906001600160fb1b0381160361159a57565b61156e565b8181029291811591840414171561159a57565b9190820180921161159a57565b604081015151806020115f1461166a57506020905b61161460206080830151926115f661054a61054a60018060a01b036001541690565b9051906040518080958194632008f60560e11b83526004830161155d565b03915afa8015610674576102aa93611633925f92611639575b5061159f565b906115b2565b61165c91925060203d602011611663575b61165481836101dd565b81019061154e565b905f61162d565b503d61164a565b906115d4565b9081602091031261016f57516102aa8161044e565b6040516060919061169683826101dd565b6002815291601f1901366020840137565b8051156111035760200190565b8051600110156111035760400190565b60208183031261016f578051906001600160401b03821161016f57019080601f8301121561016f5781516116f7816107fd565b9261170560405194856101dd565b81845260208085019260051b82010192831161016f57602001905b82821061172d5750505090565b8151815260209182019101611720565b6060602091604081019381526040838201528451809452019201905f5b8181106117675750505090565b82516001600160a01b031684526020938401939092019160010161175a565b60015461179d9061054a906001600160a01b031681565b9060405163f437bc5960e01b81525f81600481865afa8015610674576117e3936020925f9261184e575b506040518080968194632008f60560e11b83526004830161155d565b03915afa918215610674575f92611829575b506118189061163361180684611582565b9360a06080840151930151519061159f565b80821115611824575090565b905090565b6118189192506118479060203d6020116116635761165481836101dd565b91906117f5565b6118639192503d805f833e6106f981836101dd565b905f6117c7565b602081015151806020115f146118c057506020905b61161460206060830151926118a161054a61054a60018060a01b036001541690565b905151906040518080958194632008f60560e11b83526004830161155d565b9061187f565b90815190805182036118e057816020809201209201201490565b5050505f9056fea2646970667358221220b5c8c92ed54f6bf4a071f9b2d01ccfd1948c2db3258bad5dab572435c880483a64736f6c634300081e0033","linkReferences":{}},"methodIdentifiers":{"host()":"f437bc59","onAccept(((bytes,bytes,uint64,bytes,bytes,uint64,bytes),address))":"0fee32ce","onGetResponse((((bytes,bytes,uint64,address,uint64,bytes[],uint64,bytes),(bytes,bytes)[]),address))":"44ab20f8","onGetTimeout((bytes,bytes,uint64,address,uint64,bytes[],uint64,bytes))":"d0fff366","onPostRequestTimeout((bytes,bytes,uint64,bytes,bytes,uint64,bytes))":"bc0dd447","onPostResponse((((bytes,bytes,uint64,bytes,bytes,uint64,bytes),bytes,uint64),address))":"b2a01bf5","onPostResponseTimeout(((bytes,bytes,uint64,bytes,bytes,uint64,bytes),bytes,uint64))":"0bc37bab","params()":"cff0ab96","quote(((bytes,bytes,uint64,bytes,bytes,uint64,bytes),bytes,uint64,uint256,address))":"dd92a316","quote((bytes,bytes,bytes,uint64,uint256,address))":"108bc1dd","quote((bytes,uint64,bytes[],uint64,uint256,bytes))":"bca96c39","quoteNative(((bytes,bytes,uint64,bytes,bytes,uint64,bytes),bytes,uint64,uint256,address))":"632e235a","quoteNative((bytes,bytes,bytes,uint64,uint256,address))":"4f3f7c05","quoteNative((bytes,uint64,bytes[],uint64,uint256,bytes))":"d24740fb","setIsmpHost(address)":"0e8324a2","supportsInterface(bytes4)":"01ffc9a7"},"id":159}