{"abi":[{"type":"constructor","inputs":[{"name":"managerParams","type":"tuple","internalType":"struct HostManagerParams","components":[{"name":"admin","type":"address","internalType":"address"},{"name":"host","type":"address","internalType":"address"}]}],"stateMutability":"nonpayable"},{"type":"receive","stateMutability":"payable"},{"type":"function","name":"host","inputs":[],"outputs":[{"name":"","type":"address","internalType":"address"}],"stateMutability":"view"},{"type":"function","name":"onAccept","inputs":[{"name":"incoming","type":"tuple","internalType":"struct IncomingPostRequest","components":[{"name":"request","type":"tuple","internalType":"struct PostRequest","components":[{"name":"source","type":"bytes","internalType":"bytes"},{"name":"dest","type":"bytes","internalType":"bytes"},{"name":"nonce","type":"uint64","internalType":"uint64"},{"name":"from","type":"bytes","internalType":"bytes"},{"name":"to","type":"bytes","internalType":"bytes"},{"name":"timeoutTimestamp","type":"uint64","internalType":"uint64"},{"name":"body","type":"bytes","internalType":"bytes"}]},{"name":"relayer","type":"address","internalType":"address"}]}],"outputs":[],"stateMutability":"nonpayable"},{"type":"function","name":"onGetResponse","inputs":[{"name":"","type":"tuple","internalType":"struct IncomingGetResponse","components":[{"name":"response","type":"tuple","internalType":"struct GetResponse","components":[{"name":"request","type":"tuple","internalType":"struct GetRequest","components":[{"name":"source","type":"bytes","internalType":"bytes"},{"name":"dest","type":"bytes","internalType":"bytes"},{"name":"nonce","type":"uint64","internalType":"uint64"},{"name":"from","type":"bytes","internalType":"bytes"},{"name":"timeoutTimestamp","type":"uint64","internalType":"uint64"},{"name":"keys","type":"bytes[]","internalType":"bytes[]"},{"name":"height","type":"uint64","internalType":"uint64"},{"name":"context","type":"bytes","internalType":"bytes"}]},{"name":"values","type":"tuple[]","internalType":"struct StorageValue[]","components":[{"name":"key","type":"bytes","internalType":"bytes"},{"name":"value","type":"bytes","internalType":"bytes"}]}]},{"name":"relayer","type":"address","internalType":"address"}]}],"outputs":[],"stateMutability":"nonpayable"},{"type":"function","name":"onGetTimeout","inputs":[{"name":"","type":"tuple","internalType":"struct GetRequestTimeout","components":[{"name":"request","type":"tuple","internalType":"struct GetRequest","components":[{"name":"source","type":"bytes","internalType":"bytes"},{"name":"dest","type":"bytes","internalType":"bytes"},{"name":"nonce","type":"uint64","internalType":"uint64"},{"name":"from","type":"bytes","internalType":"bytes"},{"name":"timeoutTimestamp","type":"uint64","internalType":"uint64"},{"name":"keys","type":"bytes[]","internalType":"bytes[]"},{"name":"height","type":"uint64","internalType":"uint64"},{"name":"context","type":"bytes","internalType":"bytes"}]},{"name":"relayer","type":"address","internalType":"address"}]}],"outputs":[],"stateMutability":"nonpayable"},{"type":"function","name":"onPostRequestTimeout","inputs":[{"name":"","type":"tuple","internalType":"struct PostRequestTimeout","components":[{"name":"request","type":"tuple","internalType":"struct PostRequest","components":[{"name":"source","type":"bytes","internalType":"bytes"},{"name":"dest","type":"bytes","internalType":"bytes"},{"name":"nonce","type":"uint64","internalType":"uint64"},{"name":"from","type":"bytes","internalType":"bytes"},{"name":"to","type":"bytes","internalType":"bytes"},{"name":"timeoutTimestamp","type":"uint64","internalType":"uint64"},{"name":"body","type":"bytes","internalType":"bytes"}]},{"name":"relayer","type":"address","internalType":"address"}]}],"outputs":[],"stateMutability":"nonpayable"},{"type":"function","name":"params","inputs":[],"outputs":[{"name":"","type":"tuple","internalType":"struct HostManagerParams","components":[{"name":"admin","type":"address","internalType":"address"},{"name":"host","type":"address","internalType":"address"}]}],"stateMutability":"view"},{"type":"function","name":"quote","inputs":[{"name":"request","type":"tuple","internalType":"struct DispatchPost","components":[{"name":"dest","type":"bytes","internalType":"bytes"},{"name":"to","type":"bytes","internalType":"bytes"},{"name":"body","type":"bytes","internalType":"bytes"},{"name":"timeout","type":"uint64","internalType":"uint64"},{"name":"fee","type":"uint256","internalType":"uint256"},{"name":"payer","type":"address","internalType":"address"}]}],"outputs":[{"name":"","type":"uint256","internalType":"uint256"}],"stateMutability":"view"},{"type":"function","name":"quote","inputs":[{"name":"request","type":"tuple","internalType":"struct DispatchGet","components":[{"name":"dest","type":"bytes","internalType":"bytes"},{"name":"height","type":"uint64","internalType":"uint64"},{"name":"keys","type":"bytes[]","internalType":"bytes[]"},{"name":"timeout","type":"uint64","internalType":"uint64"},{"name":"fee","type":"uint256","internalType":"uint256"},{"name":"context","type":"bytes","internalType":"bytes"}]}],"outputs":[{"name":"","type":"uint256","internalType":"uint256"}],"stateMutability":"view"},{"type":"function","name":"setIsmpHost","inputs":[{"name":"hostAddr","type":"address","internalType":"address"}],"outputs":[],"stateMutability":"nonpayable"},{"type":"function","name":"supportsInterface","inputs":[{"name":"interfaceId","type":"bytes4","internalType":"bytes4"}],"outputs":[{"name":"","type":"bool","internalType":"bool"}],"stateMutability":"view"},{"type":"error","name":"UnauthorizedAction","inputs":[]},{"type":"error","name":"UnauthorizedCall","inputs":[]},{"type":"error","name":"UnexpectedCall","inputs":[]}],"bytecode":{"object":"0x60806040523460c657604051601f61143a38819003918201601f19168301916001600160401b0383118484101760b257808492604094855283398101031260c6576040805190810191906001600160401b0383118184101760b257602092604052607383606a8460ca565b938484520160ca565b92018290525f80546001600160a01b039283166001600160a01b0319918216179091556001805492909316911617905560405161135c90816100de8239f35b634e487b7160e01b5f52604160045260245ffd5b5f80fd5b51906001600160a01b038216820360c65756fe6080604052600436101561001a575b3615610018575f80fd5b005b5f3560e01c806301ffc9a7146100b95780630e8324a2146100b45780630fee32ce146100af578063108bc1dd146100aa57806350b9ac3a146100a5578063bca96c39146100a0578063c3694a831461009b578063cff0ab9614610096578063f437bc59146100915763f87238f30361000e57610ae8565b610ac0565b610a60565b6108c6565b6107ea565b610770565b6104ea565b610194565b610131565b3461010f57602036600319011261010f5760043563ffffffff60e01b811680910361010f576020906319133b2160e21b81149081156100fe575b506040519015158152f35b6301ffc9a760e01b1490505f6100f3565b5f80fd5b6001600160a01b0381160361010f57565b359061012f82610113565b565b3461010f57602036600319011261010f5760043561014e81610113565b5f54906001600160a01b038216330361018557600180546001600160a01b03929092166001600160a01b0319928316179055165f55005b63421c007d60e11b5f5260045ffd5b3461010f57602036600319011261010f576004356001600160401b03811161010f5760408160040191600319903603011261010f57600154906001600160a01b038216330361018557806101e791610c46565b61021d6102116102116102046101fd8580610c5b565b3691610482565b946001600160a01b031690565b6001600160a01b031690565b91604051622f3b1f60e11b81525f81600481875afa8015610340576102519261024d925f926103b0575b50611305565b1590565b6101855760c081019161028f61028a6102846102766102708787610c5b565b90610d0e565b356001600160f81b03191690565b60f81c90565b610d3a565b61029881610d1c565b806103455750506102af6102be926102b692610c5b565b8091610d49565b810190610fd1565b6001546102d590610211906001600160a01b031681565b803b1561010f576040805163015a64d160e51b815283516001600160a01b0390811660048301526020850151602483015291909301511660448301525f9082908183816064810103925af180156103405761032c57005b8061033a5f61001893610408565b80610a56565b610cef565b80610354600192959395610d1c565b1461035b57005b6102af61036b9161037393610c5b565b810190610dc2565b90803b1561010f5760405163fdbcb2a760e01b8152915f9183918290849082906103a09060048301610f0a565b03925af180156103405761032c57005b6103cd9192503d805f833e6103c58183610408565b810190610c8d565b905f610247565b634e487b7160e01b5f52604160045260245ffd5b604081019081106001600160401b0382111761040357604052565b6103d4565b90601f801991011681019081106001600160401b0382111761040357604052565b6040519061012f60c083610408565b6040519061012f61010083610408565b6040519061012f60e083610408565b6040519061012f61014083610408565b6001600160401b03811161040357601f01601f191660200190565b92919261048e82610467565b9161049c6040519384610408565b82948184528183011161010f578281602093845f960137010152565b9080601f8301121561010f578160206104d393359101610482565b90565b35906001600160401b038216820361010f57565b3461010f57602036600319011261010f576004356001600160401b03811161010f5760c0600319823603011261010f57610522610429565b81600401356001600160401b03811161010f5761054590600436918501016104b8565b815260248201356001600160401b03811161010f5761056a90600436918501016104b8565b60208201526044820135906001600160401b03821161010f576105c560a46105df9461059f6105cf95600436918401016104b8565b60408501526105b0606482016104d6565b60608501526084810135608085015201610124565b60a082015261113c565b6040519081529081906020820190565b0390f35b6001600160401b0381116104035760051b60200190565b9080601f8301121561010f578135610611816105e3565b9261061f6040519485610408565b81845260208085019260051b8201019183831161010f5760208201905b83821061064b57505050505090565b81356001600160401b03811161010f5760209161066d878480948801016104b8565b81520191019061063c565b9190916101008184031261010f5761068e610438565b9281356001600160401b03811161010f57816106ab9184016104b8565b845260208201356001600160401b03811161010f57816106cc9184016104b8565b60208501526106dd604083016104d6565b604085015260608201356001600160401b03811161010f57816107019184016104b8565b6060850152610712608083016104d6565b608085015260a08201356001600160401b03811161010f57816107369184016105fa565b60a085015261074760c083016104d6565b60c085015260e08201356001600160401b03811161010f5761076992016104b8565b60e0830152565b3461010f57602036600319011261010f576004356001600160401b03811161010f576040600319823603011261010f57604051906107ad826103e8565b8060040135906001600160401b03821161010f576107d360249260043691840101610678565b835201356107e081610113565b60208201526112d4565b3461010f57602036600319011261010f576004356001600160401b03811161010f5760c0600319823603011261010f57610822610429565b9080600401356001600160401b03811161010f5761084690600436918401016104b8565b8252610854602482016104d6565b602083015260448101356001600160401b03811161010f5761087c90600436918401016105fa565b604083015261088d606482016104d6565b60608301526084810135608083015260a4810135916001600160401b03831161010f576105c56105cf9260046105df95369201016104b8565b3461010f57602036600319011261010f576004356001600160401b03811161010f576040600319823603011261010f5760405190610903826103e8565b80600401356001600160401b03811161010f5781016040600319823603011261010f5760405190610933826103e8565b60048101356001600160401b03811161010f576109569060043691840101610678565b825260248101356001600160401b03811161010f57600491010136601f8201121561010f578035610986816105e3565b916109946040519384610408565b81835260208084019260051b8201019036821161010f5760208101925b8284106109ce57876107e060248989896020820152845201610124565b83356001600160401b03811161010f5782016040601f19823603011261010f57604051916109fb836103e8565b60208201356001600160401b03811161010f57610a1e90602036918501016104b8565b83526040820135926001600160401b03841161010f57610a4760209493858095369201016104b8565b838201528152019301926109b1565b5f91031261010f57565b3461010f575f36600319011261010f575f6020604051610a7f816103e8565b828152015260408051610a91816103e8565b5f546001600160a01b039081168083526001548216602093840190815284519182525190911691810191909152f35b3461010f575f36600319011261010f576001546040516001600160a01b039091168152602090f35b3461010f57602036600319011261010f576004356001600160401b03811161010f576040600319823603011261010f5760405190610b25826103e8565b80600401356001600160401b03811161010f57810160e0600319823603011261010f57610b50610448565b9160048201356001600160401b03811161010f57610b7490600436918501016104b8565b835260248201356001600160401b03811161010f57610b9990600436918501016104b8565b6020840152610baa604483016104d6565b604084015260648201356001600160401b03811161010f57610bd290600436918501016104b8565b606084015260848201356001600160401b03811161010f57610bfa90600436918501016104b8565b6080840152610c0b60a483016104d6565b60a084015260c4820135926001600160401b03841161010f57610c3960249360046107e096369201016104b8565b60c0820152845201610124565b90359060de198136030182121561010f570190565b903590601e198136030182121561010f57018035906001600160401b03821161010f5760200191813603831361010f57565b60208183031261010f578051906001600160401b03821161010f570181601f8201121561010f57805190610cc082610467565b92610cce6040519485610408565b8284526020838301011161010f57815f9260208093018386015e8301015290565b6040513d5f823e3d90fd5b634e487b7160e01b5f52603260045260245ffd5b9015610d175790565b610cfa565b60021115610d2657565b634e487b7160e01b5f52602160045260245ffd5b60ff166002811015610d265790565b909291928360011161010f57831161010f57600101915f190190565b9080601f8301121561010f578135610d7c816105e3565b92610d8a6040519485610408565b81845260208085019260051b82010192831161010f57602001905b828210610db25750505090565b8135815260209182019101610da5565b60208183031261010f578035906001600160401b03821161010f57016101408183031261010f57610df1610457565b91610dfb82610124565b8352610e0960208301610124565b6020840152610e1a60408301610124565b6040840152610e2b60608301610124565b6060840152610e3c60808301610124565b608084015260a082013560a084015260c082013560c0840152610e6160e08301610124565b60e08401526101008201356001600160401b03811161010f5781610e86918401610d65565b6101008401526101208201356001600160401b03811161010f57610eaa92016104b8565b61012082015290565b90602080835192838152019201905f5b818110610ed05750505090565b8251845260209384019390920191600101610ec3565b805180835260209291819084018484015e5f828201840152601f01601f1916010190565b602080825282516001600160a01b0316908201526104d3919060208201516001600160a01b0316604082015260408201516001600160a01b0316606082015260608201516001600160a01b0316608082015260808201516001600160a01b031660a082015260a082015160c082015260c082015160e0820152610f9d60e083015161010083019060018060a01b03169052565b610120610fbb61010084015161014083850152610160840190610eb3565b92015190610140601f1982850301910152610ee6565b9081606091031261010f576040519060608201908282106001600160401b03831117610403576040918252803561100781610113565b835260208101356020840152013561101e81610113565b604082015290565b9081602091031261010f57516104d381610113565b6040516060919061104c8382610408565b6002815291601f1901366020840137565b805115610d175760200190565b805160011015610d175760400190565b60208183031261010f578051906001600160401b03821161010f57019080601f8301121561010f5781516110ad816105e3565b926110bb6040519485610408565b81845260208085019260051b82010192831161010f57602001905b8282106110e35750505090565b81518152602091820191016110d6565b6060602091604081019381526040838201528451809452019201905f5b81811061111d5750505090565b82516001600160a01b0316845260209384019390920191600101611110565b60015461115390610211906001600160a01b031681565b604051630b4a282f60e11b8152602081600481855afa908115610340575f916112b5575b5061118061103b565b6040516315ab88c960e31b81529290916001600160a01b031690602084600481855afa908115610340576111d36020926004965f91611298575b506111c48661105d565b6001600160a01b039091169052565b60405163647846a560e01b815294859182905afa8015610340576112289461120a6080925f968791611269575b506111c48661106a565b01516040518095819482936307c0329d60e21b8452600484016110f3565b03915afa801561034057611243915f91611247575b5061105d565b5190565b61126391503d805f833e61125b8183610408565b81019061107a565b5f61123d565b61128b915060203d602011611291575b6112838183610408565b810190611026565b5f611200565b503d611279565b6112af9150843d8611611291576112838183610408565b5f6111ba565b6112ce915060203d602011611291576112838183610408565b5f611177565b506001546001600160a01b031633036112f6576302cbc79f60e01b5f5260045ffd5b637bf6a16f60e01b5f5260045ffd5b908151908051820361131f57816020809201209201201490565b5050505f9056fea264697066735822122094e70a6ee0384c32c5ee98ef8e8b9e1b3bbd0ef03949dcde2ab355161dd1d2c164736f6c634300081e0033","linkReferences":{}},"methodIdentifiers":{"host()":"f437bc59","onAccept(((bytes,bytes,uint64,bytes,bytes,uint64,bytes),address))":"0fee32ce","onGetResponse((((bytes,bytes,uint64,bytes,uint64,bytes[],uint64,bytes),(bytes,bytes)[]),address))":"c3694a83","onGetTimeout(((bytes,bytes,uint64,bytes,uint64,bytes[],uint64,bytes),address))":"50b9ac3a","onPostRequestTimeout(((bytes,bytes,uint64,bytes,bytes,uint64,bytes),address))":"f87238f3","params()":"cff0ab96","quote((bytes,bytes,bytes,uint64,uint256,address))":"108bc1dd","quote((bytes,uint64,bytes[],uint64,uint256,bytes))":"bca96c39","setIsmpHost(address)":"0e8324a2","supportsInterface(bytes4)":"01ffc9a7"},"id":116}