{"abi":[{"type":"constructor","inputs":[{"name":"managerParams","type":"tuple","internalType":"struct HostManagerParams","components":[{"name":"admin","type":"address","internalType":"address"},{"name":"host","type":"address","internalType":"address"}]}],"stateMutability":"nonpayable"},{"type":"receive","stateMutability":"payable"},{"type":"function","name":"host","inputs":[],"outputs":[{"name":"","type":"address","internalType":"address"}],"stateMutability":"view"},{"type":"function","name":"onAccept","inputs":[{"name":"incoming","type":"tuple","internalType":"struct IncomingPostRequest","components":[{"name":"request","type":"tuple","internalType":"struct PostRequest","components":[{"name":"source","type":"bytes","internalType":"bytes"},{"name":"dest","type":"bytes","internalType":"bytes"},{"name":"nonce","type":"uint64","internalType":"uint64"},{"name":"from","type":"bytes","internalType":"bytes"},{"name":"to","type":"bytes","internalType":"bytes"},{"name":"timeoutTimestamp","type":"uint64","internalType":"uint64"},{"name":"body","type":"bytes","internalType":"bytes"}]},{"name":"relayer","type":"address","internalType":"address"}]}],"outputs":[],"stateMutability":"nonpayable"},{"type":"function","name":"onGetResponse","inputs":[{"name":"","type":"tuple","internalType":"struct IncomingGetResponse","components":[{"name":"response","type":"tuple","internalType":"struct GetResponse","components":[{"name":"request","type":"tuple","internalType":"struct GetRequest","components":[{"name":"source","type":"bytes","internalType":"bytes"},{"name":"dest","type":"bytes","internalType":"bytes"},{"name":"nonce","type":"uint64","internalType":"uint64"},{"name":"from","type":"bytes","internalType":"bytes"},{"name":"timeoutTimestamp","type":"uint64","internalType":"uint64"},{"name":"keys","type":"bytes[]","internalType":"bytes[]"},{"name":"height","type":"uint64","internalType":"uint64"},{"name":"context","type":"bytes","internalType":"bytes"}]},{"name":"values","type":"tuple[]","internalType":"struct StorageValue[]","components":[{"name":"key","type":"bytes","internalType":"bytes"},{"name":"value","type":"bytes","internalType":"bytes"}]}]},{"name":"relayer","type":"address","internalType":"address"}]}],"outputs":[],"stateMutability":"nonpayable"},{"type":"function","name":"onGetTimeout","inputs":[{"name":"","type":"tuple","internalType":"struct GetRequest","components":[{"name":"source","type":"bytes","internalType":"bytes"},{"name":"dest","type":"bytes","internalType":"bytes"},{"name":"nonce","type":"uint64","internalType":"uint64"},{"name":"from","type":"bytes","internalType":"bytes"},{"name":"timeoutTimestamp","type":"uint64","internalType":"uint64"},{"name":"keys","type":"bytes[]","internalType":"bytes[]"},{"name":"height","type":"uint64","internalType":"uint64"},{"name":"context","type":"bytes","internalType":"bytes"}]}],"outputs":[],"stateMutability":"nonpayable"},{"type":"function","name":"onPostRequestTimeout","inputs":[{"name":"","type":"tuple","internalType":"struct PostRequest","components":[{"name":"source","type":"bytes","internalType":"bytes"},{"name":"dest","type":"bytes","internalType":"bytes"},{"name":"nonce","type":"uint64","internalType":"uint64"},{"name":"from","type":"bytes","internalType":"bytes"},{"name":"to","type":"bytes","internalType":"bytes"},{"name":"timeoutTimestamp","type":"uint64","internalType":"uint64"},{"name":"body","type":"bytes","internalType":"bytes"}]}],"outputs":[],"stateMutability":"nonpayable"},{"type":"function","name":"params","inputs":[],"outputs":[{"name":"","type":"tuple","internalType":"struct HostManagerParams","components":[{"name":"admin","type":"address","internalType":"address"},{"name":"host","type":"address","internalType":"address"}]}],"stateMutability":"view"},{"type":"function","name":"quote","inputs":[{"name":"request","type":"tuple","internalType":"struct DispatchPost","components":[{"name":"dest","type":"bytes","internalType":"bytes"},{"name":"to","type":"bytes","internalType":"bytes"},{"name":"body","type":"bytes","internalType":"bytes"},{"name":"timeout","type":"uint64","internalType":"uint64"},{"name":"fee","type":"uint256","internalType":"uint256"},{"name":"payer","type":"address","internalType":"address"}]}],"outputs":[{"name":"","type":"uint256","internalType":"uint256"}],"stateMutability":"view"},{"type":"function","name":"quote","inputs":[{"name":"request","type":"tuple","internalType":"struct DispatchGet","components":[{"name":"dest","type":"bytes","internalType":"bytes"},{"name":"height","type":"uint64","internalType":"uint64"},{"name":"keys","type":"bytes[]","internalType":"bytes[]"},{"name":"timeout","type":"uint64","internalType":"uint64"},{"name":"fee","type":"uint256","internalType":"uint256"},{"name":"context","type":"bytes","internalType":"bytes"}]}],"outputs":[{"name":"","type":"uint256","internalType":"uint256"}],"stateMutability":"view"},{"type":"function","name":"quoteNative","inputs":[{"name":"request","type":"tuple","internalType":"struct DispatchPost","components":[{"name":"dest","type":"bytes","internalType":"bytes"},{"name":"to","type":"bytes","internalType":"bytes"},{"name":"body","type":"bytes","internalType":"bytes"},{"name":"timeout","type":"uint64","internalType":"uint64"},{"name":"fee","type":"uint256","internalType":"uint256"},{"name":"payer","type":"address","internalType":"address"}]}],"outputs":[{"name":"","type":"uint256","internalType":"uint256"}],"stateMutability":"view"},{"type":"function","name":"quoteNative","inputs":[{"name":"request","type":"tuple","internalType":"struct DispatchGet","components":[{"name":"dest","type":"bytes","internalType":"bytes"},{"name":"height","type":"uint64","internalType":"uint64"},{"name":"keys","type":"bytes[]","internalType":"bytes[]"},{"name":"timeout","type":"uint64","internalType":"uint64"},{"name":"fee","type":"uint256","internalType":"uint256"},{"name":"context","type":"bytes","internalType":"bytes"}]}],"outputs":[{"name":"","type":"uint256","internalType":"uint256"}],"stateMutability":"view"},{"type":"function","name":"setIsmpHost","inputs":[{"name":"hostAddr","type":"address","internalType":"address"}],"outputs":[],"stateMutability":"nonpayable"},{"type":"function","name":"supportsInterface","inputs":[{"name":"interfaceId","type":"bytes4","internalType":"bytes4"}],"outputs":[{"name":"","type":"bool","internalType":"bool"}],"stateMutability":"view"},{"type":"error","name":"UnauthorizedAction","inputs":[]},{"type":"error","name":"UnauthorizedCall","inputs":[]},{"type":"error","name":"UnexpectedCall","inputs":[]}],"bytecode":{"object":"0x60806040523460c657604051601f61176e38819003918201601f19168301916001600160401b0383118484101760b257808492604094855283398101031260c6576040805190810191906001600160401b0383118184101760b257602092604052607383606a8460ca565b938484520160ca565b92018290525f80546001600160a01b039283166001600160a01b0319918216179091556001805492909316911617905560405161169090816100de8239f35b634e487b7160e01b5f52604160045260245ffd5b5f80fd5b51906001600160a01b038216820360c65756fe6080604052600436101561001a575b3615610018575f80fd5b005b5f3560e01c806301ffc9a7146100d95780630e8324a2146100d45780630fee32ce146100cf578063108bc1dd146100ca5780631313cf1e146100c55780634f3f7c05146100c0578063bc0dd447146100bb578063bca96c39146100b6578063c3694a83146100b1578063cff0ab96146100ac578063d24740fb146100a75763f437bc590361000e57610d96565b610d85565b610d25565b610b81565b610b69565b610978565b6107bc565b610787565b6105da565b6101b4565b610151565b3461012f57602036600319011261012f5760043563ffffffff60e01b811680910361012f576020906318e658c560e21b811490811561011e575b506040519015158152f35b6301ffc9a760e01b1490505f610113565b5f80fd5b6001600160a01b0381160361012f57565b359061014f82610133565b565b3461012f57602036600319011261012f5760043561016e81610133565b5f54906001600160a01b03821633036101a557600180546001600160a01b03929092166001600160a01b0319928316179055165f55005b63421c007d60e11b5f5260045ffd5b3461012f57602036600319011261012f576004356001600160401b03811161012f5760408160040191600319903603011261012f57600154906001600160a01b03821633036101a5578061020791610dbe565b61023d61023161023161022461021d8580610dd3565b369161049d565b946001600160a01b031690565b6001600160a01b031690565b91604051622f3b1f60e11b81525f81600481875afa801561035b576102719261026d925f926103cb575b50611639565b1590565b6101a55760c08101916102af6102aa6102a46102966102908787610dd3565b90610e86565b356001600160f81b03191690565b60f81c90565b610eb2565b6102b881610e94565b806103605750506102cf6102de926102d692610dd3565b8091610ec1565b810190611297565b6001546102f590610231906001600160a01b031681565b803b1561012f576040805163cb1a6e2f60e01b815283516001600160a01b0316600482015260208401516024820152920151151560448301525f908290606490829084905af1801561035b5761034757005b806103555f61001893610423565b80610d1b565b610e67565b8061036f600192959395610e94565b1461037657005b6102cf6103869161038e93610dd3565b810190610fba565b90803b1561012f57604051636ad7df4760e01b8152915f9183918290849082906103bb906004830161118b565b03925af1801561035b5761034757005b6103e89192503d805f833e6103e08183610423565b810190610e05565b905f610267565b634e487b7160e01b5f52604160045260245ffd5b604081019081106001600160401b0382111761041e57604052565b6103ef565b90601f801991011681019081106001600160401b0382111761041e57604052565b6040519061014f60c083610423565b6040519061014f61010083610423565b6040519061014f60e083610423565b6040519061014f6101c083610423565b6001600160401b03811161041e57601f01601f191660200190565b9291926104a982610482565b916104b76040519384610423565b82948184528183011161012f578281602093845f960137010152565b9080601f8301121561012f578160206104ee9335910161049d565b90565b35906001600160401b038216820361012f57565b602060031982011261012f576004356001600160401b03811161012f5760c0818303600319011261012f57610538610444565b9181600401356001600160401b03811161012f5781600461055b928501016104d3565b835260248201356001600160401b03811161012f5781600461057f928501016104d3565b60208401526044820135916001600160401b03831161012f576105ac60a49260046105d2958401016104d3565b60408501526105bd606482016104f1565b60608501526084810135608085015201610144565b60a082015290565b3461012f5760206105f26105ed36610505565b61135d565b604051908152f35b6001600160401b03811161041e5760051b60200190565b9080601f8301121561012f578135610628816105fa565b926106366040519485610423565b81845260208085019260051b8201019183831161012f5760208201905b83821061066257505050505090565b81356001600160401b03811161012f57602091610684878480948801016104d3565b815201910190610653565b9190916101008184031261012f576106a5610453565b9281356001600160401b03811161012f57816106c29184016104d3565b845260208201356001600160401b03811161012f57816106e39184016104d3565b60208501526106f4604083016104f1565b604085015260608201356001600160401b03811161012f57816107189184016104d3565b6060850152610729608083016104f1565b608085015260a08201356001600160401b03811161012f578161074d918401610611565b60a085015261075e60c083016104f1565b60c085015260e08201356001600160401b03811161012f5761078092016104d3565b60e0830152565b3461012f57602036600319011261012f576004356001600160401b03811161012f576107b790369060040161068f565b61140e565b3461012f576107cd6105ed36610505565b6001546107e490610231906001600160a01b031681565b90604051630b4a282f60e11b8152602081600481865afa90811561035b575f91610959575b50610812611454565b6040516315ab88c960e31b81529390916001600160a01b031690602085600481855afa90811561035b576108656020926004975f9161093c575b5061085686611476565b6001600160a01b039091169052565b60405163647846a560e01b815295869182905afa92831561035b5761089a5f946108b696869161090d575b5061085685611483565b6040518095819482936307c0329d60e21b84526004840161150c565b03915afa90811561035b576108e7916108d6915f916108eb575b50611476565b516040519081529081906020820190565b0390f35b61090791503d805f833e6108ff8183610423565b810190611493565b5f6108d0565b61092f915060203d602011610935575b6109278183610423565b81019061143f565b5f610890565b503d61091d565b6109539150843d8611610935576109278183610423565b5f61084c565b610972915060203d602011610935576109278183610423565b5f610809565b3461012f57602036600319011261012f576004356001600160401b03811161012f5760e0600319823603011261012f576109b0610463565b9080600401356001600160401b03811161012f576109d490600436918401016104d3565b825260248101356001600160401b03811161012f576109f990600436918401016104d3565b6020830152610a0a604482016104f1565b604083015260648101356001600160401b03811161012f57610a3290600436918401016104d3565b606083015260848101356001600160401b03811161012f57610a5a90600436918401016104d3565b6080830152610a6b60a482016104f1565b60a083015260c4810135906001600160401b03821161012f576004610a9392369201016104d3565b60c082015261140e565b602060031982011261012f576004356001600160401b03811161012f5760c0818303600319011261012f57610ad0610444565b9181600401356001600160401b03811161012f57816004610af3928501016104d3565b8352610b01602483016104f1565b602084015260448201356001600160401b03811161012f57816004610b2892850101610611565b6040840152610b39606483016104f1565b60608401526084820135608084015260a4820135916001600160401b03831161012f576105d292016004016104d3565b3461012f5760206105f2610b7c36610a9d565b611555565b3461012f57602036600319011261012f576004356001600160401b03811161012f576040600319823603011261012f5760405190610bbe82610403565b80600401356001600160401b03811161012f5781016040600319823603011261012f5760405190610bee82610403565b60048101356001600160401b03811161012f57610c11906004369184010161068f565b825260248101356001600160401b03811161012f57600491010136601f8201121561012f578035610c41816105fa565b91610c4f6040519384610423565b81835260208084019260051b8201019036821161012f5760208101925b828410610c935787610c8960248989896020820152845201610144565b602082015261140e565b83356001600160401b03811161012f5782016040601f19823603011261012f5760405191610cc083610403565b60208201356001600160401b03811161012f57610ce390602036918501016104d3565b83526040820135926001600160401b03841161012f57610d0c60209493858095369201016104d3565b83820152815201930192610c6c565b5f91031261012f57565b3461012f575f36600319011261012f575f6020604051610d4481610403565b828152015260408051610d5681610403565b5f546001600160a01b039081168083526001548216602093840190815284519182525190911691810191909152f35b3461012f576107cd610b7c36610a9d565b3461012f575f36600319011261012f576001546040516001600160a01b039091168152602090f35b90359060de198136030182121561012f570190565b903590601e198136030182121561012f57018035906001600160401b03821161012f5760200191813603831361012f57565b60208183031261012f578051906001600160401b03821161012f570181601f8201121561012f57805190610e3882610482565b92610e466040519485610423565b8284526020838301011161012f57815f9260208093018386015e8301015290565b6040513d5f823e3d90fd5b634e487b7160e01b5f52603260045260245ffd5b9015610e8f5790565b610e72565b60021115610e9e57565b634e487b7160e01b5f52602160045260245ffd5b60ff166002811015610e9e5790565b909291928360011161012f57831161012f57600101915f190190565b9080601f8301121561012f578135610ef4816105fa565b92610f026040519485610423565b81845260208085019260051b82010192831161012f57602001905b828210610f2a5750505090565b8135815260209182019101610f1d565b81601f8201121561012f57803590610f51826105fa565b92610f5f6040519485610423565b82845260208085019360061b8301019181831161012f57602001925b828410610f89575050505090565b60408483031261012f5760206040918251610fa381610403565b863581528287013583820152815201930192610f7b565b60208183031261012f578035906001600160401b03821161012f57016101c08183031261012f57610fe9610472565b9181358352602082013560208401526040820135604084015261100e60608301610144565b606084015261101f60808301610144565b608084015261103060a08301610144565b60a084015261104160c08301610144565b60c084015261105260e08301610144565b60e084015261010082013561010084015261012082013561012084015261107c6101408301610144565b6101408401526101608201356001600160401b03811161012f57816110a2918401610edd565b6101608401526101808201356001600160401b03811161012f57816110c8918401610f3a565b6101808401526101a08201356001600160401b03811161012f576110ec92016104d3565b6101a082015290565b90602080835192838152019201905f5b8181106111125750505090565b8251845260209384019390920191600101611105565b90602080835192838152019201905f5b8181106111455750505090565b8251805185526020908101518186015260409094019390920191600101611138565b805180835260209291819084018484015e5f828201840152601f01601f1916010190565b906104ee91602081528151602082015260208201516040820152604082015160608201526111c86060830151608083019060018060a01b03169052565b60808201516001600160a01b031660a082015260a08201516001600160a01b031660c082015260c08201516001600160a01b031660e082015260e08201516001600160a01b031661010082015261010082015161012082015261012082015161014082015261124861014083015161016083019060018060a01b03169052565b6101a061128161126b6101608501516101c06101808601526101e08501906110f5565b610180850151848203601f190184860152611128565b920151906101c0601f1982850301910152611167565b9081606091031261012f576040519060608201908282106001600160401b0383111761041e57604091825280356112cd81610133565b8352602081013560208401520135801515810361012f57604082015290565b9081602091031261012f575190565b9060206104ee928181520190611167565b634e487b7160e01b5f52601160045260245ffd5b600581901b91906001600160fb1b0381160361133857565b61130c565b8181029291811591840414171561133857565b9190820180921161133857565b604081015151806020115f1461140857506020905b6113b2602060808301519261139461023161023160018060a01b036001541690565b9051906040518080958194632008f60560e11b8352600483016112fb565b03915afa801561035b576104ee936113d1925f926113d7575b5061133d565b90611350565b6113fa91925060203d602011611401575b6113f28183610423565b8101906112ec565b905f6113cb565b503d6113e8565b90611372565b506001546001600160a01b03163303611430576302cbc79f60e01b5f5260045ffd5b637bf6a16f60e01b5f5260045ffd5b9081602091031261012f57516104ee81610133565b604051606091906114658382610423565b6002815291601f1901366020840137565b805115610e8f5760200190565b805160011015610e8f5760400190565b60208183031261012f578051906001600160401b03821161012f57019080601f8301121561012f5781516114c6816105fa565b926114d46040519485610423565b81845260208085019260051b82010192831161012f57602001905b8282106114fc5750505090565b81518152602091820191016114ef565b6060602091604081019381526040838201528451809452019201905f5b8181106115365750505090565b82516001600160a01b0316845260209384019390920191600101611529565b60015461156c90610231906001600160a01b031681565b9060405163f437bc5960e01b81525f81600481865afa801561035b576115b2936020925f9261161d575b506040518080968194632008f60560e11b8352600483016112fb565b03915afa91821561035b575f926115f8575b506115e7906113d16115d584611320565b9360a06080840151930151519061133d565b808211156115f3575090565b905090565b6115e79192506116169060203d602011611401576113f28183610423565b91906115c4565b6116329192503d805f833e6103e08183610423565b905f611596565b908151908051820361165357816020809201209201201490565b5050505f9056fea2646970667358221220176833495353cc034b06d406d7a92cd271df473a1c011a80d7497911b9df588e64736f6c634300081e0033","linkReferences":{}},"methodIdentifiers":{"host()":"f437bc59","onAccept(((bytes,bytes,uint64,bytes,bytes,uint64,bytes),address))":"0fee32ce","onGetResponse((((bytes,bytes,uint64,bytes,uint64,bytes[],uint64,bytes),(bytes,bytes)[]),address))":"c3694a83","onGetTimeout((bytes,bytes,uint64,bytes,uint64,bytes[],uint64,bytes))":"1313cf1e","onPostRequestTimeout((bytes,bytes,uint64,bytes,bytes,uint64,bytes))":"bc0dd447","params()":"cff0ab96","quote((bytes,bytes,bytes,uint64,uint256,address))":"108bc1dd","quote((bytes,uint64,bytes[],uint64,uint256,bytes))":"bca96c39","quoteNative((bytes,bytes,bytes,uint64,uint256,address))":"4f3f7c05","quoteNative((bytes,uint64,bytes[],uint64,uint256,bytes))":"d24740fb","setIsmpHost(address)":"0e8324a2","supportsInterface(bytes4)":"01ffc9a7"},"id":159}