{"abi":[{"type":"constructor","inputs":[{"name":"admin","type":"address","internalType":"address"}],"stateMutability":"nonpayable"},{"type":"function","name":"dispatch","inputs":[{"name":"request","type":"tuple","internalType":"struct PostRequest","components":[{"name":"source","type":"bytes","internalType":"bytes"},{"name":"dest","type":"bytes","internalType":"bytes"},{"name":"nonce","type":"uint64","internalType":"uint64"},{"name":"from","type":"bytes","internalType":"bytes"},{"name":"to","type":"bytes","internalType":"bytes"},{"name":"timeoutTimestamp","type":"uint64","internalType":"uint64"},{"name":"body","type":"bytes","internalType":"bytes"}]}],"outputs":[{"name":"","type":"bytes32","internalType":"bytes32"}],"stateMutability":"nonpayable"},{"type":"function","name":"dispatch","inputs":[{"name":"request","type":"tuple","internalType":"struct GetRequest","components":[{"name":"source","type":"bytes","internalType":"bytes"},{"name":"dest","type":"bytes","internalType":"bytes"},{"name":"nonce","type":"uint64","internalType":"uint64"},{"name":"from","type":"bytes","internalType":"bytes"},{"name":"timeoutTimestamp","type":"uint64","internalType":"uint64"},{"name":"keys","type":"bytes[]","internalType":"bytes[]"},{"name":"height","type":"uint64","internalType":"uint64"},{"name":"context","type":"bytes","internalType":"bytes"}]}],"outputs":[{"name":"","type":"bytes32","internalType":"bytes32"}],"stateMutability":"nonpayable"},{"type":"function","name":"dispatchToParachain","inputs":[{"name":"_paraId","type":"uint256","internalType":"uint256"}],"outputs":[],"stateMutability":"nonpayable"},{"type":"function","name":"host","inputs":[],"outputs":[{"name":"","type":"address","internalType":"address"}],"stateMutability":"view"},{"type":"function","name":"onAccept","inputs":[{"name":"incoming","type":"tuple","internalType":"struct IncomingPostRequest","components":[{"name":"request","type":"tuple","internalType":"struct PostRequest","components":[{"name":"source","type":"bytes","internalType":"bytes"},{"name":"dest","type":"bytes","internalType":"bytes"},{"name":"nonce","type":"uint64","internalType":"uint64"},{"name":"from","type":"bytes","internalType":"bytes"},{"name":"to","type":"bytes","internalType":"bytes"},{"name":"timeoutTimestamp","type":"uint64","internalType":"uint64"},{"name":"body","type":"bytes","internalType":"bytes"}]},{"name":"relayer","type":"address","internalType":"address"}]}],"outputs":[],"stateMutability":"nonpayable"},{"type":"function","name":"onGetResponse","inputs":[{"name":"incoming","type":"tuple","internalType":"struct IncomingGetResponse","components":[{"name":"response","type":"tuple","internalType":"struct GetResponse","components":[{"name":"request","type":"tuple","internalType":"struct GetRequest","components":[{"name":"source","type":"bytes","internalType":"bytes"},{"name":"dest","type":"bytes","internalType":"bytes"},{"name":"nonce","type":"uint64","internalType":"uint64"},{"name":"from","type":"bytes","internalType":"bytes"},{"name":"timeoutTimestamp","type":"uint64","internalType":"uint64"},{"name":"keys","type":"bytes[]","internalType":"bytes[]"},{"name":"height","type":"uint64","internalType":"uint64"},{"name":"context","type":"bytes","internalType":"bytes"}]},{"name":"values","type":"tuple[]","internalType":"struct StorageValue[]","components":[{"name":"key","type":"bytes","internalType":"bytes"},{"name":"value","type":"bytes","internalType":"bytes"}]}]},{"name":"relayer","type":"address","internalType":"address"}]}],"outputs":[],"stateMutability":"nonpayable"},{"type":"function","name":"onGetTimeout","inputs":[{"name":"","type":"tuple","internalType":"struct GetRequest","components":[{"name":"source","type":"bytes","internalType":"bytes"},{"name":"dest","type":"bytes","internalType":"bytes"},{"name":"nonce","type":"uint64","internalType":"uint64"},{"name":"from","type":"bytes","internalType":"bytes"},{"name":"timeoutTimestamp","type":"uint64","internalType":"uint64"},{"name":"keys","type":"bytes[]","internalType":"bytes[]"},{"name":"height","type":"uint64","internalType":"uint64"},{"name":"context","type":"bytes","internalType":"bytes"}]}],"outputs":[],"stateMutability":"nonpayable"},{"type":"function","name":"onPostRequestTimeout","inputs":[{"name":"","type":"tuple","internalType":"struct PostRequest","components":[{"name":"source","type":"bytes","internalType":"bytes"},{"name":"dest","type":"bytes","internalType":"bytes"},{"name":"nonce","type":"uint64","internalType":"uint64"},{"name":"from","type":"bytes","internalType":"bytes"},{"name":"to","type":"bytes","internalType":"bytes"},{"name":"timeoutTimestamp","type":"uint64","internalType":"uint64"},{"name":"body","type":"bytes","internalType":"bytes"}]}],"outputs":[],"stateMutability":"nonpayable"},{"type":"function","name":"ping","inputs":[{"name":"pingMessage","type":"tuple","internalType":"struct PingMessage","components":[{"name":"dest","type":"bytes","internalType":"bytes"},{"name":"module","type":"address","internalType":"address"},{"name":"timeout","type":"uint64","internalType":"uint64"},{"name":"count","type":"uint256","internalType":"uint256"},{"name":"fee","type":"uint256","internalType":"uint256"}]}],"outputs":[],"stateMutability":"nonpayable"},{"type":"function","name":"previousPostRequest","inputs":[],"outputs":[{"name":"","type":"tuple","internalType":"struct PostRequest","components":[{"name":"source","type":"bytes","internalType":"bytes"},{"name":"dest","type":"bytes","internalType":"bytes"},{"name":"nonce","type":"uint64","internalType":"uint64"},{"name":"from","type":"bytes","internalType":"bytes"},{"name":"to","type":"bytes","internalType":"bytes"},{"name":"timeoutTimestamp","type":"uint64","internalType":"uint64"},{"name":"body","type":"bytes","internalType":"bytes"}]}],"stateMutability":"view"},{"type":"function","name":"quote","inputs":[{"name":"request","type":"tuple","internalType":"struct DispatchPost","components":[{"name":"dest","type":"bytes","internalType":"bytes"},{"name":"to","type":"bytes","internalType":"bytes"},{"name":"body","type":"bytes","internalType":"bytes"},{"name":"timeout","type":"uint64","internalType":"uint64"},{"name":"fee","type":"uint256","internalType":"uint256"},{"name":"payer","type":"address","internalType":"address"}]}],"outputs":[{"name":"","type":"uint256","internalType":"uint256"}],"stateMutability":"view"},{"type":"function","name":"quote","inputs":[{"name":"request","type":"tuple","internalType":"struct DispatchGet","components":[{"name":"dest","type":"bytes","internalType":"bytes"},{"name":"height","type":"uint64","internalType":"uint64"},{"name":"keys","type":"bytes[]","internalType":"bytes[]"},{"name":"timeout","type":"uint64","internalType":"uint64"},{"name":"fee","type":"uint256","internalType":"uint256"},{"name":"context","type":"bytes","internalType":"bytes"}]}],"outputs":[{"name":"","type":"uint256","internalType":"uint256"}],"stateMutability":"view"},{"type":"function","name":"quoteNative","inputs":[{"name":"request","type":"tuple","internalType":"struct DispatchPost","components":[{"name":"dest","type":"bytes","internalType":"bytes"},{"name":"to","type":"bytes","internalType":"bytes"},{"name":"body","type":"bytes","internalType":"bytes"},{"name":"timeout","type":"uint64","internalType":"uint64"},{"name":"fee","type":"uint256","internalType":"uint256"},{"name":"payer","type":"address","internalType":"address"}]}],"outputs":[{"name":"","type":"uint256","internalType":"uint256"}],"stateMutability":"view"},{"type":"function","name":"quoteNative","inputs":[{"name":"request","type":"tuple","internalType":"struct DispatchGet","components":[{"name":"dest","type":"bytes","internalType":"bytes"},{"name":"height","type":"uint64","internalType":"uint64"},{"name":"keys","type":"bytes[]","internalType":"bytes[]"},{"name":"timeout","type":"uint64","internalType":"uint64"},{"name":"fee","type":"uint256","internalType":"uint256"},{"name":"context","type":"bytes","internalType":"bytes"}]}],"outputs":[{"name":"","type":"uint256","internalType":"uint256"}],"stateMutability":"view"},{"type":"function","name":"setIsmpHost","inputs":[{"name":"hostAddr","type":"address","internalType":"address"},{"name":"tokenFaucet","type":"address","internalType":"address"}],"outputs":[],"stateMutability":"nonpayable"},{"type":"event","name":"GetResponseReceived","inputs":[{"name":"message","type":"tuple[]","indexed":false,"internalType":"struct StorageValue[]","components":[{"name":"key","type":"bytes","internalType":"bytes"},{"name":"value","type":"bytes","internalType":"bytes"}]}],"anonymous":false},{"type":"event","name":"GetTimeoutReceived","inputs":[],"anonymous":false},{"type":"event","name":"MessageDispatched","inputs":[],"anonymous":false},{"type":"event","name":"PostReceived","inputs":[{"name":"message","type":"string","indexed":false,"internalType":"string"}],"anonymous":false},{"type":"event","name":"PostRequestTimeoutReceived","inputs":[],"anonymous":false},{"type":"error","name":"ExecutionFailed","inputs":[]},{"type":"error","name":"NotIsmpHost","inputs":[]},{"type":"error","name":"UnauthorizedCall","inputs":[]},{"type":"error","name":"UnexpectedCall","inputs":[]}],"bytecode":{"object":"0x608034607057601f61280038819003918201601f19168301916001600160401b03831184841017607457808492602094604052833981010312607057516001600160a01b03811690819003607057600180546001600160a01b03191691909117905560405161277790816100898239f35b5f80fd5b634e487b7160e01b5f52604160045260245ffdfe6080806040526004361015610012575f80fd5b5f905f3560e01c9081630fee32ce146116a457508063108bc1dd146116915780631313cf1e146116295780634a692e061461127d5780634f3f7c051461126757806370c5474f1461102557806372354e9b14610d8757806388d9f170146108e4578063bc0dd4471461087c578063bca96c3914610861578063c3694a8314610606578063cf09eae114610432578063d24740fb1461027d578063ef2f4982146100ec5763f437bc59146100c3575f80fd5b346100e957806003193601126100e957546040516001600160a01b039091168152602090f35b80fd5b503461020e57604036600319011261020e576004356001600160a01b0381169081900361020e576024356001600160a01b0381169081900361020e576001546001600160a01b0316330361026e5760405163647846a560e01b8152602081600481865afa908115610203575f9161023f575b5060405163095ea7b360e01b8152600481018490525f1960248201526001600160a01b0391909116906020816044815f865af1801561020357610212575b50816101b7575b505081546001600160a01b03191617815580f35b813b1561020e575f916024839260405194859384926333d2e68360e11b845260048401525af18015610203576101ee575b806101a3565b6101fb9192505f90611daf565b5f905f6101e8565b6040513d5f823e3d90fd5b5f80fd5b6102339060203d602011610238575b61022b8183611daf565b81019061249f565b61019c565b503d610221565b610261915060203d602011610267575b6102598183611daf565b810190612480565b5f61015e565b503d61024f565b6351ab8de560e01b5f5260045ffd5b3461020e5761029361028e366121e3565b612627565b5f54604051630b4a282f60e11b81526001600160a01b0390911690602081600481855afa908115610203575f91610413575b50604051906102d5606083611daf565b6002825260403660208401376040516315ab88c960e31b81526001600160a01b039190911690602081600481855afa938415610203576004946020925f916103f6575b5061032285612534565b6001600160a01b03909116905260405163647846a560e01b815294859182905afa9384156102035761038d945f9485916103d7575b5061036184612555565b6001600160a01b0390911690526040516307c0329d60e21b8152948593849283929190600484016125de565b03915afa908115610203576020916103ac915f916103b5575b50612534565b51604051908152f35b6103d191503d805f833e6103c98183611daf565b810190612565565b836103a6565b6103f0915060203d602011610267576102598183611daf565b86610357565b61040d9150833d8511610267576102598183611daf565b87610318565b61042c915060203d602011610267576102598183611daf565b836102c5565b3461020e57602036600319011261020e576004356001600160401b03811161020e576104629036906004016120b4565b61051b6020820151916001600160401b0360c082015116926001600160401b03608060a084015193015116916020948593604051906104a18683611daf565b5f8252601f1986013687840137604051946104bb86611d79565b8552858501928352604085019384526060850190815260808501905f825260a0860192835260018060a01b035f5416946001600160401b03604051998a9863d22e334360e01b8a528a60048b01525160c060248b015260e48a01906121bf565b9551166044880152519360231987820301606488015284518082528882019189808360051b8301019701925f915b8383106105ce57505050505085935f9385936001600160401b0361058694511660848601525160a4850152516023198483030160c48501526121bf565b03925af1908115610203575f916105a1575b50604051908152f35b90508181813d83116105c7575b6105b88183611daf565b8101031261020e575182610598565b503d6105ae565b9295978b91949a509a6105f160019396989a9c601f198682030187528c516121bf565b9a01930193018b999795938b99979592610549565b3461020e57602036600319011261020e576004356001600160401b03811161020e576040600319823603011261020e576040519061064382611d5e565b80600401356001600160401b03811161020e5781016040600319823603011261020e576040519061067382611d5e565b60048101356001600160401b03811161020e5761069690600436918401016120b4565b825260248101356001600160401b03811161020e57600491010136601f8201121561020e5780356106c68161201f565b916106d46040519384611daf565b81835260208084019260051b8201019036821161020e5760208101925b8284106107d9578761070e60248989896020820152845201611f32565b60208201525f546001600160a01b031633036107ca57602090510151604051602081016020825282518091526040820190602060408260051b8501019401915f905b82821061077f577f44ab56595e8ef42ef9df1dd83dbbcef4593dc898f794a01d025f0c3ff601a65885870386a1005b909192946020806107bc600193603f19898203018652895190836107ac83516040845260408401906121bf565b92015190848184039101526121bf565b970192019201909291610750565b637bf6a16f60e01b5f5260045ffd5b83356001600160401b03811161020e5782016040601f19823603011261020e576040519161080683611d5e565b60208201356001600160401b03811161020e576108299060203691850101611deb565b83526040820135926001600160401b03841161020e576108526020949385809536920101611deb565b838201528152019301926106f1565b3461020e57602061087461028e366121e3565b604051908152f35b3461020e57602036600319011261020e576004356001600160401b03811161020e576108ac903690600401611e45565b505f546001600160a01b031633036107ca577fbbf48a52b83ebc3d9e39f092a8b9b7e56f1dd0dc438bef40dc7d92994270a59f5f80a1005b3461020e575f36600319011261020e57606060c060405161090481611d94565b8281528260208201525f604082015282808201528260808201525f60a0820152015260405161093281611d94565b604051600254815f610943836122b3565b8083529260018116908115610d685750600114610d1c575b61096792500382611daf565b8152604051600354815f61097a836122b3565b8083529260018116908115610cfd5750600114610c9e575b61099e92500382611daf565b602082019081526001600160401b03600454169060408301918252604051915f83600554916109cc836122b3565b8083529260018116908115610c7f5750600114610c20575b6109f092500384611daf565b60608401928352604051905f8260065491610a0a836122b3565b8083529260018116908115610c015750600114610ba2575b610a2e92500383611daf565b608085019182526001600160401b03600754169360a0860194855260405193865f600854610a5b816122b3565b8089529060018116908115610b7e5750600114610b22575b5086946001600160401b039485610ad7610b049660c06101009d9b97610aa1610b1e9e610af199038d611daf565b01998a52610ac46040519e8f9e8f9160208352519160e0602082015201906121bf565b90518d8203601f190160408f01526121bf565b92511660608b015251898203601f190160808b01526121bf565b9051878203601f190160a08901526121bf565b92511660c085015251838203601f190160e08501526121bf565b0390f35b60085f90815291507ff3f7a9fe364faab93b216da50a3214154f22a0a2b415b23a84c8169e8b636ee35b818310610b625750508601602001610b1e610a73565b6020919350806001915483858c01015201910190918992610b4c565b60ff19166020808b019190915291151560051b89019091019150610b1e9050610a73565b5060065f90815290917ff652222313e28459528d920b65115c16c04f3efc82aaedc97be59f3f377c0d3f5b818310610be5575050906020610a2e92820101610a22565b6020919350806001915483858901015201910190918492610bcd565b60209250610a2e94915060ff191682840152151560051b820101610a22565b5060055f90815290917f036b6384b5eca791c62761152d0c79bb0604c104a5fb6f4eb0703f3154bb3db05b818310610c635750509060206109f0928201016109e4565b6020919350806001915483858a01015201910190918592610c4b565b602092506109f094915060ff191682840152151560051b8201016109e4565b5060035f90815290917fc2575a0e9e593c00f959f8c92f12db2869c3395a3b0502d05e2516446f71f85b5b818310610ce157505090602061099e92820101610992565b6020919350806001915483858801015201910190918392610cc9565b6020925061099e94915060ff191682840152151560051b820101610992565b5060025f90815290915f5160206127225f395f51905f525b818310610d4c5750509060206109679282010161095b565b6020919350806001915483858801015201910190918392610d34565b6020925061096794915060ff191682840152151560051b82010161095b565b3461020e57602036600319011261020e5760043560408051610da98282611daf565b600e81526d68656c6c6f2066726f6d2065766d60901b602082015282835f9472184f03e93ff9f4daa797ed6e38ed64bf6a1f0160401b811015610ffe575b50806d04ee2d6d415b85acef8100000000600a921015610fe3575b662386f26fc10000811015610fcf575b6305f5e100811015610fbe575b612710811015610faf575b6064811015610fa1575b1015610f97575b6001840190600a6021610e65610e5085611dd0565b94610e5d88519687611daf565b808652611dd0565b602085019790601f19013689378401015b5f1901916f181899199a1a9b1b9c1cb0b131b232b360811b8282061a835304908115610ea457600a90610e76565b5f856020610f528988610ee460278a8751948591664b5553414d412d60c81b898401525180918484015e810189838201520301601f198101845283611daf565b8451610ef08682611daf565b60088152671a5cdb5c0b585cdd60c21b85820152855192610f1084611d79565b835284830152848201528460608201528460808201523260a082015260018060a01b0385541690845195868094819363b8f3e8f560e01b8352600483016124b7565b03925af1908115610f8e5750610f6457005b610f859060203d602011610f87575b610f7d8183611daf565b8101906122eb565b005b503d610f73565b513d5f823e3d90fd5b9260010192610e3b565b606460029104950194610e34565b61271060049104950194610e2a565b6305f5e10060089104950194610e1f565b662386f26fc1000060109104950194610e12565b6d04ee2d6d415b85acef810000000060209104950194610e02565b939450849372184f03e93ff9f4daa797ed6e38ed64bf6a1f0160401b90049050600a610de7565b3461020e57602036600319011261020e576004356001600160401b03811161020e57611055903690600401611e45565b61108c60018060a01b035f541691602081016020815160405180958192632008f60560e11b835284600484015260248301906121bf565b0381875afa928315610203575f93611232575b506020600493946040519485809263647846a560e01b82525afa80156102035761111b6020915f958691611215575b506110eb60c0860197885151808611891461120f575084906122fa565b6040516323b872dd60e01b8152336004820152306024820152604481019190915295869283919082906064820190565b03926001600160a01b03165af1918215610203575f946020946111a5946111f4575b505191519160806001600160401b0360a0840151169201516040519361116285611d79565b845285840152604083015260608201528360808201523260a082015260018060a01b038454169060405194858094819363b8f3e8f560e01b8352600483016124b7565b03925af18015610203575f906111c1575b602090604051908152f35b506020813d6020116111ec575b816111db60209383611daf565b8101031261020e57602090516111b6565b3d91506111ce565b61120a90863d88116102385761022b8183611daf565b61113d565b906122fa565b61122c9150833d8511610267576102598183611daf565b876110ce565b92506020833d60201161125f575b8161124d60209383611daf565b8101031261020e57915191602061109f565b3d9150611240565b3461020e5761029361127836611f46565b61232e565b3461020e57602036600319011261020e576004356001600160401b03811161020e5760a0600319823603011261020e576040519060a082018281106001600160401b038211176116155760405280600401356001600160401b03811161020e576112ed9060043691840101611deb565b82526112fb60248201611f32565b6020830190815261130e60448301611e31565b6040848101918252606484013560608601908152608490940135608086019081525f8054925163f437bc5960e01b81529193926001600160a01b03169082600481845afa918215610203576113949261136e915f916115fb575b5061243c565b906020885160405180958192632008f60560e11b835284600484015260248301906121bf565b0381845afa928315610203575f936115c6575b5060206004916040519283809263647846a560e01b82525afa8015610203575f9360209361143593869361159d575b50611405916113fd9151808711881461159457506113f7865b8a51926122fa565b90612321565b8951906122fa565b6040516323b872dd60e01b8152336004820152306024820152604481019190915293849283919082906064820190565b03926001600160a01b03165af1801561020357611577575b505f5b8451811015610f85575f805460405163f437bc5960e01b81526001600160a01b03909116929181600481865afa8015610203575f9361149b61151d926020948791611555575061243c565b8a51906001600160401b038851168a5191604051926bffffffffffffffffffffffff199060601b1687840152601483526114d6603484611daf565b8a5192604051946114e686611d79565b8552878501526040840152606083015260808201523260a082015260405195868094819363b8f3e8f560e01b8352600483016124b7565b03925af191821561020357600192611537575b5001611450565b61154e9060203d8111610f8757610f7d8183611daf565b5087611530565b61157191503d8089833e6115698183611daf565b8101906123da565b8c611368565b61158f9060203d6020116102385761022b8183611daf565b61144d565b6113f7906113ef565b6113fd919350916115bd61140593873d8911610267576102598183611daf565b939150916113d6565b9092506020813d6020116115f3575b816115e260209383611daf565b8101031261020e57519160206113a7565b3d91506115d5565b61160f91503d805f833e6115698183611daf565b89611368565b634e487b7160e01b5f52604160045260245ffd5b3461020e57602036600319011261020e576004356001600160401b03811161020e576116599036906004016120b4565b505f546001600160a01b031633036107ca577f83e62025e4bc587516d0bc315e329eac0c66362854feb7cd4135ef8143ba15f95f80a1005b3461020e57602061087461127836611f46565b3461020e57602036600319011261020e576004356001600160401b03811161020e576040600319823603011261020e576116dd82611d5e565b80600401356001600160401b03811161020e5761170e9161170660249260043691840101611e45565b845201611f32565b60208201525f546001600160a01b031633036107ca577ffb087b3ffbbb0fc922dccf872508671a7605859423eb90eb014c56fdba1484dc61176260c0835101516040519182916020835260208301906121bf565b0390a15180519081516001600160401b038111611615576117846002546122b3565b601f8111611cf6575b50602092601f8211600114611c8a57928192935f92611c7f575b50508160011b915f199060031b1c1916176002555b60208101519081516001600160401b038111611615576117dd6003546122b3565b601f8111611c1c575b50602092601f8211600114611bbb57928192935f92611bb0575b50508160011b915f199060031b1c1916176003555b6001600160401b036040820151166001600160401b0319600454161760045560608101519081516001600160401b038111611615576118556005546122b3565b601f8111611b6a575b50602092601f8211600114611b0957928192935f92611afe575b50508160011b915f199060031b1c1916176005555b6080810151908151916001600160401b038311611615576118af6006546122b3565b601f8111611a9b575b50602090601f8411600114611a345760c093915f9183611a29575b50508160011b915f199060031b1c1916176006555b6001600160401b0360a0820151166001600160401b03196007541617600755015180516001600160401b038111611615576119246008546122b3565b601f81116119c6575b50602091601f8211600114611969579181925f9261195e575b50505f19600383901b1c191660019190911b17600855005b015190508280611946565b601f1982169260085f52805f20915f5b8581106119ae57508360019510611996575b505050811b01600855005b01515f1960f88460031b161c1916905582808061198b565b91926020600181928685015181550194019201611979565b60085f527ff3f7a9fe364faab93b216da50a3214154f22a0a2b415b23a84c8169e8b636ee3601f830160051c81019160208410611a1f575b601f0160051c01905b818110611a14575061192d565b5f8155600101611a07565b90915081906119fe565b0151905084806118d3565b90601f1984169160065f52815f20925f5b818110611a83575091600193918660c0979410611a6b575b505050811b016006556118e8565b01515f1960f88460031b161c19169055848080611a5d565b92936020600181928786015181550195019301611a45565b60065f527ff652222313e28459528d920b65115c16c04f3efc82aaedc97be59f3f377c0d3f601f850160051c81019160208610611af4575b601f0160051c01905b818110611ae957506118b8565b5f8155600101611adc565b9091508190611ad3565b015190508380611878565b601f1982169360055f52805f20915f5b868110611b525750836001959610611b3a575b505050811b0160055561188d565b01515f1960f88460031b161c19169055838080611b2c565b91926020600181928685015181550194019201611b19565b60055f5260205f20601f830160051c81019160208410611ba6575b601f0160051c01905b818110611b9b575061185e565b5f8155600101611b8e565b9091508190611b85565b015190508380611800565b601f1982169360035f52805f20915f5b868110611c045750836001959610611bec575b505050811b01600355611815565b01515f1960f88460031b161c19169055838080611bde565b91926020600181928685015181550194019201611bcb565b60035f527fc2575a0e9e593c00f959f8c92f12db2869c3395a3b0502d05e2516446f71f85b601f830160051c81019160208410611c75575b601f0160051c01905b818110611c6a57506117e6565b5f8155600101611c5d565b9091508190611c54565b0151905083806117a7565b601f1982169360025f525f5160206127225f395f51905f52915f5b868110611cde5750836001959610611cc6575b505050811b016002556117bc565b01515f1960f88460031b161c19169055838080611cb8565b91926020600181928685015181550194019201611ca5565b60025f52601f820160051c5f5160206127225f395f51905f52019060208310611d49575b601f0160051c5f5160206127225f395f51905f5201905b818110611d3e575061178d565b5f8155600101611d31565b5f5160206127225f395f51905f529150611d1a565b604081019081106001600160401b0382111761161557604052565b60c081019081106001600160401b0382111761161557604052565b60e081019081106001600160401b0382111761161557604052565b90601f801991011681019081106001600160401b0382111761161557604052565b6001600160401b03811161161557601f01601f191660200190565b81601f8201121561020e57803590611e0282611dd0565b92611e106040519485611daf565b8284526020838301011161020e57815f926020809301838601378301015290565b35906001600160401b038216820361020e57565b919060e08382031261020e5760405190611e5e82611d94565b819380356001600160401b03811161020e5782611e7c918301611deb565b835260208101356001600160401b03811161020e5782611e9d918301611deb565b6020840152611eae60408201611e31565b604084015260608101356001600160401b03811161020e5782611ed2918301611deb565b606084015260808101356001600160401b03811161020e5782611ef6918301611deb565b6080840152611f0760a08201611e31565b60a084015260c0810135916001600160401b03831161020e5760c092611f2d9201611deb565b910152565b35906001600160a01b038216820361020e57565b602060031982011261020e576004356001600160401b03811161020e5760c0818303600319011261020e5760405191611f7e83611d79565b81600401356001600160401b03811161020e57816004611fa092850101611deb565b835260248201356001600160401b03811161020e57816004611fc492850101611deb565b60208401526044820135916001600160401b03831161020e57611ff160a492600461201795840101611deb565b604085015261200260648201611e31565b60608501526084810135608085015201611f32565b60a082015290565b6001600160401b0381116116155760051b60200190565b9080601f8301121561020e57813561204d8161201f565b9261205b6040519485611daf565b81845260208085019260051b8201019183831161020e5760208201905b83821061208757505050505090565b81356001600160401b03811161020e576020916120a987848094880101611deb565b815201910190612078565b91906101008382031261020e576040519061010082018281106001600160401b0382111761161557604052819380356001600160401b03811161020e57826120fd918301611deb565b835260208101356001600160401b03811161020e578261211e918301611deb565b602084015261212f60408201611e31565b604084015260608101356001600160401b03811161020e5782612153918301611deb565b606084015261216460808201611e31565b608084015260a08101356001600160401b03811161020e5782612188918301612036565b60a084015261219960c08201611e31565b60c084015260e0810135916001600160401b03831161020e5760e092611f2d9201611deb565b805180835260209291819084018484015e5f828201840152601f01601f1916010190565b602060031982011261020e576004356001600160401b03811161020e5760c0818303600319011261020e576040519161221b83611d79565b81600401356001600160401b03811161020e5781600461223d92850101611deb565b835261224b60248301611e31565b602084015260448201356001600160401b03811161020e5781600461227292850101612036565b604084015261228360648301611e31565b60608401526084820135608084015260a4820135916001600160401b03831161020e576120179201600401611deb565b90600182811c921680156122e1575b60208310146122cd57565b634e487b7160e01b5f52602260045260245ffd5b91607f16916122c2565b9081602091031261020e575190565b8181029291811591840414171561230d57565b634e487b7160e01b5f52601160045260245ffd5b9190820180921161230d57565b604081015151806020115f146123d457506020905b61237d602060808301519260018060a01b035f54169051906040518080958194632008f60560e11b835286600484015260248301906121bf565b03915afa908115610203575f916123a0575b506113f79061239d936122fa565b90565b90506020813d6020116123cc575b816123bb60209383611daf565b8101031261020e575161239d61238f565b3d91506123ae565b90612343565b60208183031261020e578051906001600160401b03821161020e570181601f8201121561020e5780519061240d82611dd0565b9261241b6040519485611daf565b8284526020838301011161020e57815f9260208093018386015e8301015290565b9061247e602b6020936040519485916a03432b6363790333937b6960ad1b828401528051918291018484015e81015f838201520301601f198101845283611daf565b565b9081602091031261020e57516001600160a01b038116810361020e5790565b9081602091031261020e5751801515810361020e5790565b6020815260c06125046124ee6124d8855184602087015260e08601906121bf565b6020860151858203601f190160408701526121bf565b6040850151848203601f190160608601526121bf565b926001600160401b036060820151166080840152608081015160a084015260a0600180821b039101511691015290565b8051156125415760200190565b634e487b7160e01b5f52603260045260245ffd5b8051600110156125415760400190565b60208183031261020e578051906001600160401b03821161020e57019080601f8301121561020e5781516125988161201f565b926125a66040519485611daf565b81845260208085019260051b82010192831161020e57602001905b8282106125ce5750505090565b81518152602091820191016125c1565b6060602091604081019381526040838201528451809452019201905f5b8181106126085750505090565b82516001600160a01b03168452602093840193909201916001016125fb565b5f805460405163f437bc5960e01b81526001600160a01b039091169181600481855afa801561020357612681926020925f92612705575b506040518080958194632008f60560e11b835286600484015260248301906121bf565b03915afa908115610203575f916126d3575b50600581901b916001600160fb1b038216820361230d576113f76126c29260a0608084015193015151906122fa565b808211156126ce575090565b905090565b90506020813d6020116126fd575b816126ee60209383611daf565b8101031261020e57515f612693565b3d91506126e1565b61271a9192503d805f833e6115698183611daf565b905f61265e56fe405787fa12a823e0f2b7631cc41b3ba8828b3321ca811111fa75cd3aa3bb5acea2646970667358221220dff5ffbb39940f8aaeae0f7adced9c2576201bb8224fd245b0a6fd838992906464736f6c634300081e0033","linkReferences":{}},"methodIdentifiers":{"dispatch((bytes,bytes,uint64,bytes,bytes,uint64,bytes))":"70c5474f","dispatch((bytes,bytes,uint64,bytes,uint64,bytes[],uint64,bytes))":"cf09eae1","dispatchToParachain(uint256)":"72354e9b","host()":"f437bc59","onAccept(((bytes,bytes,uint64,bytes,bytes,uint64,bytes),address))":"0fee32ce","onGetResponse((((bytes,bytes,uint64,bytes,uint64,bytes[],uint64,bytes),(bytes,bytes)[]),address))":"c3694a83","onGetTimeout((bytes,bytes,uint64,bytes,uint64,bytes[],uint64,bytes))":"1313cf1e","onPostRequestTimeout((bytes,bytes,uint64,bytes,bytes,uint64,bytes))":"bc0dd447","ping((bytes,address,uint64,uint256,uint256))":"4a692e06","previousPostRequest()":"88d9f170","quote((bytes,bytes,bytes,uint64,uint256,address))":"108bc1dd","quote((bytes,uint64,bytes[],uint64,uint256,bytes))":"bca96c39","quoteNative((bytes,bytes,bytes,uint64,uint256,address))":"4f3f7c05","quoteNative((bytes,uint64,bytes[],uint64,uint256,bytes))":"d24740fb","setIsmpHost(address,address)":"ef2f4982"},"id":178}