{"abi":[{"type":"constructor","inputs":[{"name":"admin","type":"address","internalType":"address"}],"stateMutability":"nonpayable"},{"type":"function","name":"dispatch","inputs":[{"name":"request","type":"tuple","internalType":"struct PostRequest","components":[{"name":"source","type":"bytes","internalType":"bytes"},{"name":"dest","type":"bytes","internalType":"bytes"},{"name":"nonce","type":"uint64","internalType":"uint64"},{"name":"from","type":"bytes","internalType":"bytes"},{"name":"to","type":"bytes","internalType":"bytes"},{"name":"timeoutTimestamp","type":"uint64","internalType":"uint64"},{"name":"body","type":"bytes","internalType":"bytes"}]}],"outputs":[{"name":"","type":"bytes32","internalType":"bytes32"}],"stateMutability":"nonpayable"},{"type":"function","name":"dispatch","inputs":[{"name":"request","type":"tuple","internalType":"struct GetRequest","components":[{"name":"source","type":"bytes","internalType":"bytes"},{"name":"dest","type":"bytes","internalType":"bytes"},{"name":"nonce","type":"uint64","internalType":"uint64"},{"name":"from","type":"address","internalType":"address"},{"name":"timeoutTimestamp","type":"uint64","internalType":"uint64"},{"name":"keys","type":"bytes[]","internalType":"bytes[]"},{"name":"height","type":"uint64","internalType":"uint64"},{"name":"context","type":"bytes","internalType":"bytes"}]}],"outputs":[{"name":"","type":"bytes32","internalType":"bytes32"}],"stateMutability":"nonpayable"},{"type":"function","name":"dispatchPostResponse","inputs":[{"name":"response","type":"tuple","internalType":"struct PostResponse","components":[{"name":"request","type":"tuple","internalType":"struct PostRequest","components":[{"name":"source","type":"bytes","internalType":"bytes"},{"name":"dest","type":"bytes","internalType":"bytes"},{"name":"nonce","type":"uint64","internalType":"uint64"},{"name":"from","type":"bytes","internalType":"bytes"},{"name":"to","type":"bytes","internalType":"bytes"},{"name":"timeoutTimestamp","type":"uint64","internalType":"uint64"},{"name":"body","type":"bytes","internalType":"bytes"}]},{"name":"response","type":"bytes","internalType":"bytes"},{"name":"timeoutTimestamp","type":"uint64","internalType":"uint64"}]}],"outputs":[{"name":"","type":"bytes32","internalType":"bytes32"}],"stateMutability":"nonpayable"},{"type":"function","name":"dispatchToParachain","inputs":[{"name":"_paraId","type":"uint256","internalType":"uint256"}],"outputs":[],"stateMutability":"nonpayable"},{"type":"function","name":"host","inputs":[],"outputs":[{"name":"","type":"address","internalType":"address"}],"stateMutability":"view"},{"type":"function","name":"onAccept","inputs":[{"name":"incoming","type":"tuple","internalType":"struct IncomingPostRequest","components":[{"name":"request","type":"tuple","internalType":"struct PostRequest","components":[{"name":"source","type":"bytes","internalType":"bytes"},{"name":"dest","type":"bytes","internalType":"bytes"},{"name":"nonce","type":"uint64","internalType":"uint64"},{"name":"from","type":"bytes","internalType":"bytes"},{"name":"to","type":"bytes","internalType":"bytes"},{"name":"timeoutTimestamp","type":"uint64","internalType":"uint64"},{"name":"body","type":"bytes","internalType":"bytes"}]},{"name":"relayer","type":"address","internalType":"address"}]}],"outputs":[],"stateMutability":"nonpayable"},{"type":"function","name":"onGetResponse","inputs":[{"name":"incoming","type":"tuple","internalType":"struct IncomingGetResponse","components":[{"name":"response","type":"tuple","internalType":"struct GetResponse","components":[{"name":"request","type":"tuple","internalType":"struct GetRequest","components":[{"name":"source","type":"bytes","internalType":"bytes"},{"name":"dest","type":"bytes","internalType":"bytes"},{"name":"nonce","type":"uint64","internalType":"uint64"},{"name":"from","type":"address","internalType":"address"},{"name":"timeoutTimestamp","type":"uint64","internalType":"uint64"},{"name":"keys","type":"bytes[]","internalType":"bytes[]"},{"name":"height","type":"uint64","internalType":"uint64"},{"name":"context","type":"bytes","internalType":"bytes"}]},{"name":"values","type":"tuple[]","internalType":"struct StorageValue[]","components":[{"name":"key","type":"bytes","internalType":"bytes"},{"name":"value","type":"bytes","internalType":"bytes"}]}]},{"name":"relayer","type":"address","internalType":"address"}]}],"outputs":[],"stateMutability":"nonpayable"},{"type":"function","name":"onGetTimeout","inputs":[{"name":"","type":"tuple","internalType":"struct GetRequest","components":[{"name":"source","type":"bytes","internalType":"bytes"},{"name":"dest","type":"bytes","internalType":"bytes"},{"name":"nonce","type":"uint64","internalType":"uint64"},{"name":"from","type":"address","internalType":"address"},{"name":"timeoutTimestamp","type":"uint64","internalType":"uint64"},{"name":"keys","type":"bytes[]","internalType":"bytes[]"},{"name":"height","type":"uint64","internalType":"uint64"},{"name":"context","type":"bytes","internalType":"bytes"}]}],"outputs":[],"stateMutability":"nonpayable"},{"type":"function","name":"onPostRequestTimeout","inputs":[{"name":"","type":"tuple","internalType":"struct PostRequest","components":[{"name":"source","type":"bytes","internalType":"bytes"},{"name":"dest","type":"bytes","internalType":"bytes"},{"name":"nonce","type":"uint64","internalType":"uint64"},{"name":"from","type":"bytes","internalType":"bytes"},{"name":"to","type":"bytes","internalType":"bytes"},{"name":"timeoutTimestamp","type":"uint64","internalType":"uint64"},{"name":"body","type":"bytes","internalType":"bytes"}]}],"outputs":[],"stateMutability":"nonpayable"},{"type":"function","name":"onPostResponse","inputs":[{"name":"","type":"tuple","internalType":"struct IncomingPostResponse","components":[{"name":"response","type":"tuple","internalType":"struct PostResponse","components":[{"name":"request","type":"tuple","internalType":"struct PostRequest","components":[{"name":"source","type":"bytes","internalType":"bytes"},{"name":"dest","type":"bytes","internalType":"bytes"},{"name":"nonce","type":"uint64","internalType":"uint64"},{"name":"from","type":"bytes","internalType":"bytes"},{"name":"to","type":"bytes","internalType":"bytes"},{"name":"timeoutTimestamp","type":"uint64","internalType":"uint64"},{"name":"body","type":"bytes","internalType":"bytes"}]},{"name":"response","type":"bytes","internalType":"bytes"},{"name":"timeoutTimestamp","type":"uint64","internalType":"uint64"}]},{"name":"relayer","type":"address","internalType":"address"}]}],"outputs":[],"stateMutability":"nonpayable"},{"type":"function","name":"onPostResponseTimeout","inputs":[{"name":"","type":"tuple","internalType":"struct PostResponse","components":[{"name":"request","type":"tuple","internalType":"struct PostRequest","components":[{"name":"source","type":"bytes","internalType":"bytes"},{"name":"dest","type":"bytes","internalType":"bytes"},{"name":"nonce","type":"uint64","internalType":"uint64"},{"name":"from","type":"bytes","internalType":"bytes"},{"name":"to","type":"bytes","internalType":"bytes"},{"name":"timeoutTimestamp","type":"uint64","internalType":"uint64"},{"name":"body","type":"bytes","internalType":"bytes"}]},{"name":"response","type":"bytes","internalType":"bytes"},{"name":"timeoutTimestamp","type":"uint64","internalType":"uint64"}]}],"outputs":[],"stateMutability":"nonpayable"},{"type":"function","name":"ping","inputs":[{"name":"pingMessage","type":"tuple","internalType":"struct PingMessage","components":[{"name":"dest","type":"bytes","internalType":"bytes"},{"name":"module","type":"address","internalType":"address"},{"name":"timeout","type":"uint64","internalType":"uint64"},{"name":"count","type":"uint256","internalType":"uint256"},{"name":"fee","type":"uint256","internalType":"uint256"}]}],"outputs":[],"stateMutability":"nonpayable"},{"type":"function","name":"previousPostRequest","inputs":[],"outputs":[{"name":"","type":"tuple","internalType":"struct PostRequest","components":[{"name":"source","type":"bytes","internalType":"bytes"},{"name":"dest","type":"bytes","internalType":"bytes"},{"name":"nonce","type":"uint64","internalType":"uint64"},{"name":"from","type":"bytes","internalType":"bytes"},{"name":"to","type":"bytes","internalType":"bytes"},{"name":"timeoutTimestamp","type":"uint64","internalType":"uint64"},{"name":"body","type":"bytes","internalType":"bytes"}]}],"stateMutability":"view"},{"type":"function","name":"quote","inputs":[{"name":"request","type":"tuple","internalType":"struct DispatchPost","components":[{"name":"dest","type":"bytes","internalType":"bytes"},{"name":"to","type":"bytes","internalType":"bytes"},{"name":"body","type":"bytes","internalType":"bytes"},{"name":"timeout","type":"uint64","internalType":"uint64"},{"name":"fee","type":"uint256","internalType":"uint256"},{"name":"payer","type":"address","internalType":"address"}]}],"outputs":[{"name":"","type":"uint256","internalType":"uint256"}],"stateMutability":"view"},{"type":"function","name":"quote","inputs":[{"name":"request","type":"tuple","internalType":"struct DispatchGet","components":[{"name":"dest","type":"bytes","internalType":"bytes"},{"name":"height","type":"uint64","internalType":"uint64"},{"name":"keys","type":"bytes[]","internalType":"bytes[]"},{"name":"timeout","type":"uint64","internalType":"uint64"},{"name":"fee","type":"uint256","internalType":"uint256"},{"name":"context","type":"bytes","internalType":"bytes"}]}],"outputs":[{"name":"","type":"uint256","internalType":"uint256"}],"stateMutability":"view"},{"type":"function","name":"quote","inputs":[{"name":"response","type":"tuple","internalType":"struct DispatchPostResponse","components":[{"name":"request","type":"tuple","internalType":"struct PostRequest","components":[{"name":"source","type":"bytes","internalType":"bytes"},{"name":"dest","type":"bytes","internalType":"bytes"},{"name":"nonce","type":"uint64","internalType":"uint64"},{"name":"from","type":"bytes","internalType":"bytes"},{"name":"to","type":"bytes","internalType":"bytes"},{"name":"timeoutTimestamp","type":"uint64","internalType":"uint64"},{"name":"body","type":"bytes","internalType":"bytes"}]},{"name":"response","type":"bytes","internalType":"bytes"},{"name":"timeout","type":"uint64","internalType":"uint64"},{"name":"fee","type":"uint256","internalType":"uint256"},{"name":"payer","type":"address","internalType":"address"}]}],"outputs":[{"name":"","type":"uint256","internalType":"uint256"}],"stateMutability":"view"},{"type":"function","name":"quoteNative","inputs":[{"name":"request","type":"tuple","internalType":"struct DispatchPost","components":[{"name":"dest","type":"bytes","internalType":"bytes"},{"name":"to","type":"bytes","internalType":"bytes"},{"name":"body","type":"bytes","internalType":"bytes"},{"name":"timeout","type":"uint64","internalType":"uint64"},{"name":"fee","type":"uint256","internalType":"uint256"},{"name":"payer","type":"address","internalType":"address"}]}],"outputs":[{"name":"","type":"uint256","internalType":"uint256"}],"stateMutability":"view"},{"type":"function","name":"quoteNative","inputs":[{"name":"request","type":"tuple","internalType":"struct DispatchPostResponse","components":[{"name":"request","type":"tuple","internalType":"struct PostRequest","components":[{"name":"source","type":"bytes","internalType":"bytes"},{"name":"dest","type":"bytes","internalType":"bytes"},{"name":"nonce","type":"uint64","internalType":"uint64"},{"name":"from","type":"bytes","internalType":"bytes"},{"name":"to","type":"bytes","internalType":"bytes"},{"name":"timeoutTimestamp","type":"uint64","internalType":"uint64"},{"name":"body","type":"bytes","internalType":"bytes"}]},{"name":"response","type":"bytes","internalType":"bytes"},{"name":"timeout","type":"uint64","internalType":"uint64"},{"name":"fee","type":"uint256","internalType":"uint256"},{"name":"payer","type":"address","internalType":"address"}]}],"outputs":[{"name":"","type":"uint256","internalType":"uint256"}],"stateMutability":"view"},{"type":"function","name":"quoteNative","inputs":[{"name":"request","type":"tuple","internalType":"struct DispatchGet","components":[{"name":"dest","type":"bytes","internalType":"bytes"},{"name":"height","type":"uint64","internalType":"uint64"},{"name":"keys","type":"bytes[]","internalType":"bytes[]"},{"name":"timeout","type":"uint64","internalType":"uint64"},{"name":"fee","type":"uint256","internalType":"uint256"},{"name":"context","type":"bytes","internalType":"bytes"}]}],"outputs":[{"name":"","type":"uint256","internalType":"uint256"}],"stateMutability":"view"},{"type":"function","name":"setIsmpHost","inputs":[{"name":"hostAddr","type":"address","internalType":"address"},{"name":"tokenFaucet","type":"address","internalType":"address"}],"outputs":[],"stateMutability":"nonpayable"},{"type":"event","name":"GetResponseReceived","inputs":[{"name":"message","type":"tuple[]","indexed":false,"internalType":"struct StorageValue[]","components":[{"name":"key","type":"bytes","internalType":"bytes"},{"name":"value","type":"bytes","internalType":"bytes"}]}],"anonymous":false},{"type":"event","name":"GetTimeoutReceived","inputs":[],"anonymous":false},{"type":"event","name":"MessageDispatched","inputs":[],"anonymous":false},{"type":"event","name":"PostReceived","inputs":[{"name":"message","type":"string","indexed":false,"internalType":"string"}],"anonymous":false},{"type":"event","name":"PostRequestTimeoutReceived","inputs":[],"anonymous":false},{"type":"event","name":"PostResponseReceived","inputs":[],"anonymous":false},{"type":"event","name":"PostResponseTimeoutReceived","inputs":[],"anonymous":false},{"type":"error","name":"ExecutionFailed","inputs":[]},{"type":"error","name":"NotIsmpHost","inputs":[]},{"type":"error","name":"UnauthorizedCall","inputs":[]},{"type":"error","name":"UnexpectedCall","inputs":[]}],"bytecode":{"object":"0x608034607057601f612d0738819003918201601f19168301916001600160401b03831184841017607457808492602094604052833981010312607057516001600160a01b03811690819003607057600180546001600160a01b031916919091179055604051612c7e90816100898239f35b5f80fd5b634e487b7160e01b5f52604160045260245ffdfe60806040526004361015610011575f80fd5b5f5f3560e01c80630bc37bab14611fe15780630fee32ce1461190f578063108bc1dd146118fc57806344ab20f8146116b05780634a692e06146113285780634d0d9c3b1461110b5780634f3f7c05146110f5578063632e235a146110e457806370c5474f14610ea257806372354e9b14610c0457806388d9f170146107f6578063b2a01bf51461074b578063bc0dd447146106e3578063bca96c39146106d0578063d0fff36614610659578063d21050db14610485578063d24740fb146102d0578063dd92a316146102b0578063ef2f49821461011f5763f437bc59146100f6575f80fd5b3461011c578060031936011261011c57546040516001600160a01b039091168152602090f35b80fd5b5034610241576040366003190112610241576004356001600160a01b03811690819003610241576024356001600160a01b03811690819003610241576001546001600160a01b031633036102a15760405163647846a560e01b8152602081600481865afa908115610236575f91610272575b5060405163095ea7b360e01b8152600481018490525f1960248201526001600160a01b0391909116906020816044815f865af1801561023657610245575b50816101ea575b505081546001600160a01b03191617815580f35b813b15610241575f916024839260405194859384926333d2e68360e11b845260048401525af1801561023657610221575b806101d6565b61022e9192505f906120b5565b5f905f61021b565b6040513d5f823e3d90fd5b5f80fd5b6102669060203d60201161026b575b61025e81836120b5565b810190612950565b6101cf565b503d610254565b610294915060203d60201161029a575b61028c81836120b5565b810190612931565b5f610191565b503d610282565b6351ab8de560e01b5f5260045ffd5b346102415760206102c86102c33661252f565b612bd2565b604051908152f35b34610241576102e66102e136612697565b612ad8565b5f54604051630b4a282f60e11b81526001600160a01b0390911690602081600481855afa908115610236575f91610466575b50604051906103286060836120b5565b6002825260403660208401376040516315ab88c960e31b81526001600160a01b039190911690602081600481855afa938415610236576004946020925f91610449575b50610375856129e5565b6001600160a01b03909116905260405163647846a560e01b815294859182905afa938415610236576103e0945f94859161042a575b506103b484612a06565b6001600160a01b0390911690526040516307c0329d60e21b815294859384928392919060048401612a8f565b03915afa908115610236576020916103ff915f91610408575b506129e5565b51604051908152f35b61042491503d805f833e61041c81836120b5565b810190612a16565b836103f9565b610443915060203d60201161029a5761028c81836120b5565b866103aa565b6104609150833d851161029a5761028c81836120b5565b8761036b565b61047f915060203d60201161029a5761028c81836120b5565b83610318565b34610241576020366003190112610241576004356001600160401b038111610241576104b5903690600401612437565b61056e6020820151916001600160401b0360c082015116926001600160401b03608060a084015193015116916020948593604051906104f486836120b5565b5f8252601f19860136878401376040519461050e8661207f565b8552858501928352604085019384526060850190815260808501905f825260a0860192835260018060a01b035f5416946001600160401b03604051998a9863d22e334360e01b8a528a60048b01525160c060248b015260e48a01906125e1565b9551166044880152519360231987820301606488015284518082528882019189808360051b8301019701925f915b83831061062157505050505085935f9385936001600160401b036105d994511660848601525160a4850152516023198483030160c48501526125e1565b03925af1908115610236575f916105f4575b50604051908152f35b90508181813d831161061a575b61060b81836120b5565b810103126102415751826105eb565b503d610601565b9295978b91949a509a61064460019396989a9c601f198682030187528c516125e1565b9a01930193018b999795938b9997959261059c565b34610241576020366003190112610241576004356001600160401b03811161024157610689903690600401612437565b505f546001600160a01b031633036106c1577f83e62025e4bc587516d0bc315e329eac0c66362854feb7cd4135ef8143ba15f95f80a1005b637bf6a16f60e01b5f5260045ffd5b346102415760206102c86102e136612697565b34610241576020366003190112610241576004356001600160401b0381116102415761071390369060040161214b565b505f546001600160a01b031633036106c1577fbbf48a52b83ebc3d9e39f092a8b9b7e56f1dd0dc438bef40dc7d92994270a59f5f80a1005b34610241576020366003190112610241576004356001600160401b0381116102415760406003198236030112610241576040519061078882612049565b8060040135906001600160401b0382116102415760246107bc916107b460209460043691840101612238565b8552016122b5565b9101525f546001600160a01b031633036106c1577fd7dc99afb6c33039cea4505a9e2cab3471d359cebe021ec127dc94ddd359d3c55f80a1005b34610241575f36600319011261024157606060c06040516108168161209a565b8281528260208201525f604082015282808201528260808201525f60a082015201526040516108448161209a565b604051600254815f61085583612767565b8083529260018116908115610be55750600114610b99575b610879925003826120b5565b8152604051600354815f61088c83612767565b8083529260018116908115610b7a5750600114610b1b575b6108b0925003826120b5565b60208201526001600160401b036004541660408201526040515f81600554916108d883612767565b8083529260018116908115610afc5750600114610a9d575b6108fc925003826120b5565b6060820152604051600654815f61091283612767565b8083529260018116908115610a7e5750600114610a1f575b610936925003826120b5565b60808201526001600160401b036007541660a0820152604051905f9160085461095e81612767565b80835290600181169081156109fb57506001146109a3575b506109868161099f9403826120b5565b60c0820152604051918291602083526020830190612605565b0390f35b60085f9081529093507ff3f7a9fe364faab93b216da50a3214154f22a0a2b415b23a84c8169e8b636ee35b8482106109e5575081016020019250610986610976565b60018160209254838587010152019101906109ce565b60ff191660208085019190915291151560051b830190910193506109869050610976565b5060065f90815290917ff652222313e28459528d920b65115c16c04f3efc82aaedc97be59f3f377c0d3f5b818310610a625750509060206109369282010161092a565b6020919350806001915483858801015201910190918392610a4a565b6020925061093694915060ff191682840152151560051b82010161092a565b5060055f90815290917f036b6384b5eca791c62761152d0c79bb0604c104a5fb6f4eb0703f3154bb3db05b818310610ae05750509060206108fc928201016108f0565b6020919350806001915483858801015201910190918392610ac8565b602092506108fc94915060ff191682840152151560051b8201016108f0565b5060035f90815290917fc2575a0e9e593c00f959f8c92f12db2869c3395a3b0502d05e2516446f71f85b5b818310610b5e5750509060206108b0928201016108a4565b6020919350806001915483858801015201910190918392610b46565b602092506108b094915060ff191682840152151560051b8201016108a4565b5060025f90815290915f516020612c295f395f51905f525b818310610bc95750509060206108799282010161086d565b6020919350806001915483858801015201910190918392610bb1565b6020925061087994915060ff191682840152151560051b82010161086d565b346102415760203660031901126102415760043560408051610c2682826120b5565b600e81526d68656c6c6f2066726f6d2065766d60901b602082015282835f9472184f03e93ff9f4daa797ed6e38ed64bf6a1f0160401b811015610e7b575b50806d04ee2d6d415b85acef8100000000600a921015610e60575b662386f26fc10000811015610e4c575b6305f5e100811015610e3b575b612710811015610e2c575b6064811015610e1e575b1015610e14575b6001840190600a6021610ce2610ccd856120d6565b94610cda885196876120b5565b8086526120d6565b602085019790601f19013689378401015b5f1901916f181899199a1a9b1b9c1cb0b131b232b360811b8282061a835304908115610d2157600a90610cf3565b5f856020610dcf8988610d6160278a8751948591664b5553414d412d60c81b898401525180918484015e810189838201520301601f1981018452836120b5565b8451610d6d86826120b5565b60088152671a5cdb5c0b585cdd60c21b85820152855192610d8d8461207f565b835284830152848201528460608201528460808201523260a082015260018060a01b0385541690845195868094819363b8f3e8f560e01b835260048301612968565b03925af1908115610e0b5750610de157005b610e029060203d602011610e04575b610dfa81836120b5565b81019061279f565b005b503d610df0565b513d5f823e3d90fd5b9260010192610cb8565b606460029104950194610cb1565b61271060049104950194610ca7565b6305f5e10060089104950194610c9c565b662386f26fc1000060109104950194610c8f565b6d04ee2d6d415b85acef810000000060209104950194610c7f565b939450849372184f03e93ff9f4daa797ed6e38ed64bf6a1f0160401b90049050600a610c64565b34610241576020366003190112610241576004356001600160401b03811161024157610ed290369060040161214b565b610f0960018060a01b035f541691602081016020815160405180958192632008f60560e11b835284600484015260248301906125e1565b0381875afa928315610236575f936110af575b506020600493946040519485809263647846a560e01b82525afa801561023657610f986020915f958691611092575b50610f6860c0860197885151808611891461108c575084906127ae565b6040516323b872dd60e01b8152336004820152306024820152604481019190915295869283919082906064820190565b03926001600160a01b03165af1918215610236575f9460209461102294611071575b505191519160806001600160401b0360a08401511692015160405193610fdf8561207f565b845285840152604083015260608201528360808201523260a082015260018060a01b038454169060405194858094819363b8f3e8f560e01b835260048301612968565b03925af18015610236575f9061103e575b602090604051908152f35b506020813d602011611069575b81611058602093836120b5565b810103126102415760209051611033565b3d915061104b565b61108790863d881161026b5761025e81836120b5565b610fba565b906127ae565b6110a99150833d851161029a5761028c81836120b5565b87610f4b565b92506020833d6020116110dc575b816110ca602093836120b5565b81010312610241579151916020610f1c565b3d91506110bd565b34610241576102e66102c33661252f565b34610241576102e6611106366122c9565b6127e2565b34610241576020366003190112610241576004356001600160401b0381116102415761113b903690600401612238565b61116f60018060a01b035f541691602081515160405180948192632008f60560e11b835284600484015260248301906125e1565b0381865afa918215610236575f926112f1575b5060206004936040519485809263647846a560e01b82525afa8015610236576111cc6020915f9586916112d4575b50610f6883850195865151808611891461108c575084906127ae565b03926001600160a01b03165af191821561023657611281936020936112b9575b5061126e5f6001600160401b0360408551945195015116926040519061121182612064565b81528581019485526040810193845260608101938285526080820132815260018060a01b03845416956001600160401b036040519a8b998a988997639448080560e01b89528d60048a01525160a060248a015260c4890190612605565b90518782036023190160448901526125e1565b9351166064850152516084840152516001600160a01b031660a483015203925af18015610236575f9061103e57602090604051908152f35b6112cf90843d861161026b5761025e81836120b5565b6111ec565b6112eb9150833d851161029a5761028c81836120b5565b866111b0565b9291506020833d602011611320575b8161130d602093836120b5565b8101031261024157915190916020611182565b3d9150611300565b34610241576020366003190112610241576004356001600160401b0381116102415760a06003198236030112610241576040519061136582612064565b80600401356001600160401b0381116102415761138890600436918401016120f1565b8252611396602482016122b5565b602083019081526113a960448301612137565b6040848101918252606484013560608601908152608490940135608086019081525f8054925163f437bc5960e01b81529193926001600160a01b03169082600481845afa9182156102365761142f92611409915f91611696575b506128ed565b906020885160405180958192632008f60560e11b835284600484015260248301906125e1565b0381845afa928315610236575f93611661575b5060206004916040519283809263647846a560e01b82525afa8015610236575f936020936114d0938693611638575b506114a0916114989151808711881461162f5750611492865b8a51926127ae565b906127d5565b8951906127ae565b6040516323b872dd60e01b8152336004820152306024820152604481019190915293849283919082906064820190565b03926001600160a01b03165af1801561023657611612575b505f5b8451811015610e02575f805460405163f437bc5960e01b81526001600160a01b03909116929181600481865afa8015610236575f936115366115b89260209487916115f057506128ed565b8a51906001600160401b038851168a5191604051926bffffffffffffffffffffffff199060601b1687840152601483526115716034846120b5565b8a5192604051946115818661207f565b8552878501526040840152606083015260808201523260a082015260405195868094819363b8f3e8f560e01b835260048301612968565b03925af1918215610236576001926115d2575b50016114eb565b6115e99060203d8111610e0457610dfa81836120b5565b50876115cb565b61160c91503d8089833e61160481836120b5565b81019061288b565b8c611403565b61162a9060203d60201161026b5761025e81836120b5565b6114e8565b6114929061148a565b611498919350916116586114a093873d891161029a5761028c81836120b5565b93915091611471565b9092506020813d60201161168e575b8161167d602093836120b5565b810103126102415751916020611442565b3d9150611670565b6116aa91503d805f833e61160481836120b5565b89611403565b34610241576020366003190112610241576004356001600160401b038111610241576040600319823603011261024157604051906116ed82612049565b80600401356001600160401b03811161024157810160406003198236030112610241576040519061171d82612049565b60048101356001600160401b038111610241576117409060043691840101612437565b825260248101356001600160401b03811161024157600491010136601f82011215610241578035611770816123a2565b9161177e60405193846120b5565b81835260208084019260051b820101903682116102415760208101925b82841061187457876117b8602489898960208201528452016122b5565b60208201525f546001600160a01b031633036106c157602090510151604051602081016020825282518091526040820190602060408260051b8501019401915f905b828210611829577f44ab56595e8ef42ef9df1dd83dbbcef4593dc898f794a01d025f0c3ff601a65885870386a1005b90919294602080611866600193603f198982030186528951908361185683516040845260408401906125e1565b92015190848184039101526125e1565b9701920192019092916117fa565b83356001600160401b0381116102415782016040601f19823603011261024157604051916118a183612049565b60208201356001600160401b038111610241576118c490602036918501016120f1565b83526040820135926001600160401b038411610241576118ed60209493858095369201016120f1565b8382015281520193019261179b565b346102415760206102c8611106366122c9565b34610241576020366003190112610241576004356001600160401b0381116102415760406003198236030112610241576040519061194c82612049565b80600401356001600160401b0381116102415761197d916119756024926004369184010161214b565b8452016122b5565b60208201525f546001600160a01b031633036106c1577ffb087b3ffbbb0fc922dccf872508671a7605859423eb90eb014c56fdba1484dc6119d160c0835101516040519182916020835260208301906125e1565b0390a15180519081516001600160401b038111611c98576119f3600254612767565b601f8111611f79575b50602092601f8211600114611f0d57928192935f92611f02575b50508160011b915f199060031b1c1916176002555b60208101519081516001600160401b038111611c9857611a4c600354612767565b601f8111611e9f575b50602092601f8211600114611e3e57928192935f92611e33575b50508160011b915f199060031b1c1916176003555b6001600160401b036040820151166001600160401b0319600454161760045560608101519081516001600160401b038111611c9857611ac4600554612767565b601f8111611ded575b50602092601f8211600114611d8c57928192935f92611d81575b50508160011b915f199060031b1c1916176005555b6080810151908151916001600160401b038311611c9857611b1e600654612767565b601f8111611d1e575b50602090601f8411600114611cb75760c093915f9183611cac575b50508160011b915f199060031b1c1916176006555b6001600160401b0360a0820151166001600160401b03196007541617600755015180516001600160401b038111611c9857611b93600854612767565b601f8111611c35575b50602091601f8211600114611bd8579181925f92611bcd575b50505f19600383901b1c191660019190911b17600855005b015190508280611bb5565b601f1982169260085f52805f20915f5b858110611c1d57508360019510611c05575b505050811b01600855005b01515f1960f88460031b161c19169055828080611bfa565b91926020600181928685015181550194019201611be8565b60085f527ff3f7a9fe364faab93b216da50a3214154f22a0a2b415b23a84c8169e8b636ee3601f830160051c81019160208410611c8e575b601f0160051c01905b818110611c835750611b9c565b5f8155600101611c76565b9091508190611c6d565b634e487b7160e01b5f52604160045260245ffd5b015190508480611b42565b90601f1984169160065f52815f20925f5b818110611d06575091600193918660c0979410611cee575b505050811b01600655611b57565b01515f1960f88460031b161c19169055848080611ce0565b92936020600181928786015181550195019301611cc8565b60065f527ff652222313e28459528d920b65115c16c04f3efc82aaedc97be59f3f377c0d3f601f850160051c81019160208610611d77575b601f0160051c01905b818110611d6c5750611b27565b5f8155600101611d5f565b9091508190611d56565b015190508380611ae7565b601f1982169360055f52805f20915f5b868110611dd55750836001959610611dbd575b505050811b01600555611afc565b01515f1960f88460031b161c19169055838080611daf565b91926020600181928685015181550194019201611d9c565b60055f5260205f20601f830160051c81019160208410611e29575b601f0160051c01905b818110611e1e5750611acd565b5f8155600101611e11565b9091508190611e08565b015190508380611a6f565b601f1982169360035f52805f20915f5b868110611e875750836001959610611e6f575b505050811b01600355611a84565b01515f1960f88460031b161c19169055838080611e61565b91926020600181928685015181550194019201611e4e565b60035f527fc2575a0e9e593c00f959f8c92f12db2869c3395a3b0502d05e2516446f71f85b601f830160051c81019160208410611ef8575b601f0160051c01905b818110611eed5750611a55565b5f8155600101611ee0565b9091508190611ed7565b015190508380611a16565b601f1982169360025f525f516020612c295f395f51905f52915f5b868110611f615750836001959610611f49575b505050811b01600255611a2b565b01515f1960f88460031b161c19169055838080611f3b565b91926020600181928685015181550194019201611f28565b60025f52601f820160051c5f516020612c295f395f51905f52019060208310611fcc575b601f0160051c5f516020612c295f395f51905f5201905b818110611fc157506119fc565b5f8155600101611fb4565b5f516020612c295f395f51905f529150611f9d565b34610241576020366003190112610241576004356001600160401b03811161024157612011903690600401612238565b505f546001600160a01b031633036106c1577f6876fa3ecc7d821f215d821242cbbe1f0e30a00a85c222d692a7968fd3aff10b5f80a1005b604081019081106001600160401b03821117611c9857604052565b60a081019081106001600160401b03821117611c9857604052565b60c081019081106001600160401b03821117611c9857604052565b60e081019081106001600160401b03821117611c9857604052565b90601f801991011681019081106001600160401b03821117611c9857604052565b6001600160401b038111611c9857601f01601f191660200190565b81601f8201121561024157803590612108826120d6565b9261211660405194856120b5565b8284526020838301011161024157815f926020809301838601378301015290565b35906001600160401b038216820361024157565b919060e08382031261024157604051906121648261209a565b819380356001600160401b03811161024157826121829183016120f1565b835260208101356001600160401b03811161024157826121a39183016120f1565b60208401526121b460408201612137565b604084015260608101356001600160401b03811161024157826121d89183016120f1565b606084015260808101356001600160401b03811161024157826121fc9183016120f1565b608084015261220d60a08201612137565b60a084015260c0810135916001600160401b0383116102415760c09261223392016120f1565b910152565b9190916060818403126102415760405190606082018281106001600160401b03821117611c9857604052819381356001600160401b038111610241578161228091840161214b565b83526020820135906001600160401b03821161024157826122aa60409492612233948694016120f1565b602086015201612137565b35906001600160a01b038216820361024157565b6020600319820112610241576004356001600160401b0381116102415760c0818303600319011261024157604051916123018361207f565b81600401356001600160401b03811161024157816004612323928501016120f1565b835260248201356001600160401b03811161024157816004612347928501016120f1565b60208401526044820135916001600160401b0383116102415761237460a492600461239a958401016120f1565b604085015261238560648201612137565b606085015260848101356080850152016122b5565b60a082015290565b6001600160401b038111611c985760051b60200190565b9080601f830112156102415781356123d0816123a2565b926123de60405194856120b5565b81845260208085019260051b820101918383116102415760208201905b83821061240a57505050505090565b81356001600160401b0381116102415760209161242c878480948801016120f1565b8152019101906123fb565b919061010083820312610241576040519061010082018281106001600160401b03821117611c9857604052819380356001600160401b03811161024157826124809183016120f1565b835260208101356001600160401b03811161024157826124a19183016120f1565b60208401526124b260408201612137565b60408401526124c3606082016122b5565b60608401526124d460808201612137565b608084015260a08101356001600160401b03811161024157826124f89183016123b9565b60a084015261250960c08201612137565b60c084015260e0810135916001600160401b0383116102415760e09261223392016120f1565b6020600319820112610241576004356001600160401b0381116102415760a08183036003190112610241576040519161256783612064565b81600401356001600160401b038111610241578160046125899285010161214b565b83526024820135916001600160401b038311610241576125b360849260046125d9958401016120f1565b60208501526125c460448201612137565b604085015260648101356060850152016122b5565b608082015290565b805180835260209291819084018484015e5f828201840152601f01601f1916010190565b6126949160c061267061265e612639612627865160e0875260e08701906125e1565b602087015186820360208801526125e1565b6001600160401b036040870151166040860152606086015185820360608701526125e1565b608085015184820360808601526125e1565b926001600160401b0360a08201511660a084015201519060c08184039101526125e1565b90565b6020600319820112610241576004356001600160401b0381116102415760c0818303600319011261024157604051916126cf8361207f565b81600401356001600160401b038111610241578160046126f1928501016120f1565b83526126ff60248301612137565b602084015260448201356001600160401b03811161024157816004612726928501016123b9565b604084015261273760648301612137565b60608401526084820135608084015260a4820135916001600160401b0383116102415761239a92016004016120f1565b90600182811c92168015612795575b602083101461278157565b634e487b7160e01b5f52602260045260245ffd5b91607f1691612776565b90816020910312610241575190565b818102929181159184041417156127c157565b634e487b7160e01b5f52601160045260245ffd5b919082018092116127c157565b604081015151806020115f1461288557506020905b612831602060808301519260018060a01b035f54169051906040518080958194632008f60560e11b835286600484015260248301906125e1565b03915afa908115610236575f91612851575b5061149290612694936127ae565b90506020813d60201161287d575b8161286c602093836120b5565b810103126102415751612694612843565b3d915061285f565b906127f7565b602081830312610241578051906001600160401b038211610241570181601f82011215610241578051906128be826120d6565b926128cc60405194856120b5565b8284526020838301011161024157815f9260208093018386015e8301015290565b9061292f602b6020936040519485916a03432b6363790333937b6960ad1b828401528051918291018484015e81015f838201520301601f1981018452836120b5565b565b9081602091031261024157516001600160a01b03811681036102415790565b90816020910312610241575180151581036102415790565b6020815260c06129b561299f612989855184602087015260e08601906125e1565b6020860151858203601f190160408701526125e1565b6040850151848203601f190160608601526125e1565b926001600160401b036060820151166080840152608081015160a084015260a0600180821b039101511691015290565b8051156129f25760200190565b634e487b7160e01b5f52603260045260245ffd5b8051600110156129f25760400190565b602081830312610241578051906001600160401b03821161024157019080601f83011215610241578151612a49816123a2565b92612a5760405194856120b5565b81845260208085019260051b82010192831161024157602001905b828210612a7f5750505090565b8151815260209182019101612a72565b6060602091604081019381526040838201528451809452019201905f5b818110612ab95750505090565b82516001600160a01b0316845260209384019390920191600101612aac565b5f805460405163f437bc5960e01b81526001600160a01b039091169181600481855afa801561023657612b32926020925f92612bb6575b506040518080958194632008f60560e11b835286600484015260248301906125e1565b03915afa908115610236575f91612b84575b50600581901b916001600160fb1b03821682036127c157611492612b739260a0608084015193015151906127ae565b80821115612b7f575090565b905090565b90506020813d602011612bae575b81612b9f602093836120b5565b8101031261024157515f612b44565b3d9150612b92565b612bcb9192503d805f833e61160481836120b5565b905f612b0f565b602081015151806020115f14612c2257506020905b612831602060608301519260018060a01b035f5416905151906040518080958194632008f60560e11b835286600484015260248301906125e1565b90612be756fe405787fa12a823e0f2b7631cc41b3ba8828b3321ca811111fa75cd3aa3bb5acea2646970667358221220a5edd430c522d1c83af8bb86a1d2c300119dae7cf385b662be47a60bb84cad1a64736f6c634300081e0033","linkReferences":{}},"methodIdentifiers":{"dispatch((bytes,bytes,uint64,address,uint64,bytes[],uint64,bytes))":"d21050db","dispatch((bytes,bytes,uint64,bytes,bytes,uint64,bytes))":"70c5474f","dispatchPostResponse(((bytes,bytes,uint64,bytes,bytes,uint64,bytes),bytes,uint64))":"4d0d9c3b","dispatchToParachain(uint256)":"72354e9b","host()":"f437bc59","onAccept(((bytes,bytes,uint64,bytes,bytes,uint64,bytes),address))":"0fee32ce","onGetResponse((((bytes,bytes,uint64,address,uint64,bytes[],uint64,bytes),(bytes,bytes)[]),address))":"44ab20f8","onGetTimeout((bytes,bytes,uint64,address,uint64,bytes[],uint64,bytes))":"d0fff366","onPostRequestTimeout((bytes,bytes,uint64,bytes,bytes,uint64,bytes))":"bc0dd447","onPostResponse((((bytes,bytes,uint64,bytes,bytes,uint64,bytes),bytes,uint64),address))":"b2a01bf5","onPostResponseTimeout(((bytes,bytes,uint64,bytes,bytes,uint64,bytes),bytes,uint64))":"0bc37bab","ping((bytes,address,uint64,uint256,uint256))":"4a692e06","previousPostRequest()":"88d9f170","quote(((bytes,bytes,uint64,bytes,bytes,uint64,bytes),bytes,uint64,uint256,address))":"dd92a316","quote((bytes,bytes,bytes,uint64,uint256,address))":"108bc1dd","quote((bytes,uint64,bytes[],uint64,uint256,bytes))":"bca96c39","quoteNative(((bytes,bytes,uint64,bytes,bytes,uint64,bytes),bytes,uint64,uint256,address))":"632e235a","quoteNative((bytes,bytes,bytes,uint64,uint256,address))":"4f3f7c05","quoteNative((bytes,uint64,bytes[],uint64,uint256,bytes))":"d24740fb","setIsmpHost(address,address)":"ef2f4982"},"id":178}