{"abi":[{"type":"constructor","inputs":[{"name":"v","type":"address","internalType":"contract ISP1Verifier"},{"name":"vk","type":"bytes32","internalType":"bytes32"}],"stateMutability":"nonpayable"},{"type":"function","name":"noOp","inputs":[{"name":"s","type":"tuple","internalType":"struct SP1BeefyProof","components":[{"name":"commitment","type":"tuple","internalType":"struct MiniCommitment","components":[{"name":"blockNumber","type":"uint256","internalType":"uint256"},{"name":"validatorSetId","type":"uint256","internalType":"uint256"}]},{"name":"mmrLeaf","type":"tuple","internalType":"struct PartialBeefyMmrLeaf","components":[{"name":"version","type":"uint256","internalType":"uint256"},{"name":"parentNumber","type":"uint256","internalType":"uint256"},{"name":"parentHash","type":"bytes32","internalType":"bytes32"},{"name":"nextAuthoritySet","type":"tuple","internalType":"struct AuthoritySetCommitment","components":[{"name":"id","type":"uint256","internalType":"uint256"},{"name":"len","type":"uint256","internalType":"uint256"},{"name":"root","type":"bytes32","internalType":"bytes32"}]},{"name":"extra","type":"bytes32","internalType":"bytes32"}]},{"name":"headers","type":"tuple[]","internalType":"struct ParachainHeader[]","components":[{"name":"id","type":"uint256","internalType":"uint256"},{"name":"header","type":"bytes","internalType":"bytes"}]},{"name":"proof","type":"bytes","internalType":"bytes"}]},{"name":"p","type":"tuple","internalType":"struct PublicInputs","components":[{"name":"authorities_root","type":"bytes32","internalType":"bytes32"},{"name":"authorities_len","type":"uint256","internalType":"uint256"},{"name":"leaf_hash","type":"bytes32","internalType":"bytes32"},{"name":"block_number","type":"uint256","internalType":"uint256"},{"name":"headers","type":"tuple[]","internalType":"struct ParachainHeaderHash[]","components":[{"name":"id","type":"uint256","internalType":"uint256"},{"name":"hash","type":"bytes32","internalType":"bytes32"}]}]}],"outputs":[],"stateMutability":"pure"},{"type":"function","name":"supportsInterface","inputs":[{"name":"interfaceId","type":"bytes4","internalType":"bytes4"}],"outputs":[{"name":"","type":"bool","internalType":"bool"}],"stateMutability":"view"},{"type":"function","name":"verificationKey","inputs":[],"outputs":[{"name":"","type":"bytes32","internalType":"bytes32"}],"stateMutability":"view"},{"type":"function","name":"verifier","inputs":[],"outputs":[{"name":"","type":"address","internalType":"contract ISP1Verifier"}],"stateMutability":"view"},{"type":"function","name":"verify","inputs":[{"name":"previousState","type":"bytes","internalType":"bytes"},{"name":"proof","type":"bytes","internalType":"bytes"}],"outputs":[{"name":"","type":"bytes","internalType":"bytes"},{"name":"","type":"tuple[]","internalType":"struct IntermediateState[]","components":[{"name":"stateMachineId","type":"uint256","internalType":"uint256"},{"name":"height","type":"uint256","internalType":"uint256"},{"name":"commitment","type":"tuple","internalType":"struct StateCommitment","components":[{"name":"timestamp","type":"uint256","internalType":"uint256"},{"name":"overlayRoot","type":"bytes32","internalType":"bytes32"},{"name":"stateRoot","type":"bytes32","internalType":"bytes32"}]}]},{"name":"","type":"uint256","internalType":"uint256"}],"stateMutability":"view"},{"type":"function","name":"verifyConsensus","inputs":[{"name":"encodedState","type":"bytes","internalType":"bytes"},{"name":"encodedProof","type":"bytes","internalType":"bytes"}],"outputs":[{"name":"","type":"bytes","internalType":"bytes"},{"name":"","type":"tuple[]","internalType":"struct IntermediateState[]","components":[{"name":"stateMachineId","type":"uint256","internalType":"uint256"},{"name":"height","type":"uint256","internalType":"uint256"},{"name":"commitment","type":"tuple","internalType":"struct StateCommitment","components":[{"name":"timestamp","type":"uint256","internalType":"uint256"},{"name":"overlayRoot","type":"bytes32","internalType":"bytes32"},{"name":"stateRoot","type":"bytes32","internalType":"bytes32"}]}]}],"stateMutability":"view"},{"type":"error","name":"IllegalGenesisBlock","inputs":[]},{"type":"error","name":"TimestampNotFound","inputs":[]},{"type":"error","name":"UnknownAuthoritySet","inputs":[]}],"bytecode":{"object":"0x60c03461008a57601f611b3a38819003918201601f19168301916001600160401b0383118484101761008e57808492604094855283398101031261008a578051906001600160a01b038216820361008a57602001519060a052608052604051611a9790816100a382396080518181816102ef0152610c41015260a0518181816101070152610bfb0152f35b5f80fd5b634e487b7160e01b5f52604160045260245ffdfe60806040526004361015610011575f80fd5b5f3560e01c806301ffc9a7146100745780632b7ac3f31461006f5780637d7555981461006a5780637ddc907d14610065578063e0525ae7146100605763f7e83aee1461005b575f80fd5b61076b565b610699565b6102d8565b610234565b6100f2565b346100e45760203660031901126100e45760043563ffffffff60e01b81168091036100e457630faeaab360e31b81149081156100d3575b81156100c2575b501515608052607f1960a0016080f35b6301ffc9a760e01b149050816100b2565b637bf41d7760e11b811491506100ab565b5f80fd5b5f9103126100e457565b346100e4575f3660031901126100e4576040517f00000000000000000000000000000000000000000000000000000000000000006001600160a01b03168152602090f35b9181601f840112156100e4578235916001600160401b0383116100e457602083818601950101116100e457565b60406003198201126100e4576004356001600160401b0381116100e4578161018d91600401610136565b92909291602435906001600160401b0382116100e4576101af91600401610136565b9091565b805180835260209291819084018484015e5f828201840152601f01601f1916010190565b90602080835192838152019201905f5b8181106101f45750505090565b909192602060a0600192604080885180518452858101518685015201518051828401528481015160608401520151608082015201940191019190916101e7565b346100e4576102c66102a46102d46102b261029361026361026c61025736610163565b949183919301906107dd565b9281019061082a565b916040949394519461027d86610326565b8552602085015260408401526060830152610b32565b919060405194859160208301610891565b03601f198101855284610397565b6040519384936040855260408501906101b3565b9083820360208501526101d7565b0390f35b346100e4575f3660031901126100e45760206040517f00000000000000000000000000000000000000000000000000000000000000008152f35b634e487b7160e01b5f52604160045260245ffd5b608081019081106001600160401b0382111761034157604052565b610312565b604081019081106001600160401b0382111761034157604052565b606081019081106001600160401b0382111761034157604052565b60a081019081106001600160401b0382111761034157604052565b90601f801991011681019081106001600160401b0382111761034157604052565b604051906103c7604083610397565b565b604051906103c760a083610397565b604051906103c7606083610397565b91908260409103126100e4576040516103ff81610346565b6020808294803584520135910152565b91908260609103126100e45760405161042781610361565b604080829480358452602081013560208501520135910152565b91909160e0818403126100e457608060c06040519261045f8461037c565b61048584968235865260208301356020870152604083013560408701526060830161040f565b60608501520135910152565b6001600160401b0381116103415760051b60200190565b6001600160401b03811161034157601f01601f191660200190565b81601f820112156100e4578035906104da826104a8565b926104e86040519485610397565b828452602083830101116100e457815f926020809301838601378301015290565b9080601f830112156100e45781359161052183610491565b9261052f6040519485610397565b80845260208085019160051b830101918383116100e45760208101915b83831061055b57505050505090565b82356001600160401b0381116100e4578201906040828703601f1901126100e4576040519061058982610346565b602083013582526040830135916001600160401b0383116100e4576105b6886020809695819601016104c3565b8382015281520192019161054c565b919060a0838203126100e4576040516105dd8161037c565b8093803582526020810135602083015260408101356040830152606081013560608301526080810135906001600160401b0382116100e4570182601f820112156100e45780359061062d82610491565b9361063b6040519586610397565b82855260208086019360061b830101918183116100e457602001925b828410610668575050505060800152565b6040848303126100e4576020604091825161068281610346565b863581528287013583820152815201930192610657565b346100e45760403660031901126100e4576004356001600160401b0381116100e45761016060031982360301126100e457604051906106d782610326565b6106e436826004016103e7565b82526106f33660448301610441565b60208301526101248101356001600160401b0381116100e45761071c9060043691840101610509565b60408301526101448101356001600160401b0381116100e457606091600461074792369201016104c3565b9101526024356001600160401b0381116100e4576107699036906004016105c5565b005b346100e4576107c561078561026361026c61025736610163565b6107d36060604051936107ad8561079f8360208301610891565b03601f198101875286610397565b015151916040519485946060865260608601906101b3565b9084820360208601526101d7565b9060408301520390f35b90610100828203126100e4576108229060a0604051936107fc85610326565b8035855260208101356020860152610817836040830161040f565b60408601520161040f565b606082015290565b90610160828203126100e45761084081836103e7565b9261084e8260408501610441565b926101208101356001600160401b0381116100e4578361086f918301610509565b926101408201356001600160401b0381116100e45761088e92016104c3565b90565b6103c79092919260a0606061010083019580518452602081015160208501526108d6604082015160408601906040809180518452602081015160208501520151910152565b01519101906040809180518452602081015160208501520151910152565b6040519061090182610361565b5f6040838281528260208201520152565b6040519061091f82610326565b815f81525f60208201526109316108f4565b604082015260606109406108f4565b910152565b60405190610954602083610397565b5f80835282815b82811061096757505050565b60209060405161097681610361565b5f81525f838201526109866108f4565b60408201528282850101520161095b565b906109a182610491565b6109ae6040519182610397565b82815280926109bf601f1991610491565b01905f5b8281106109cf57505050565b6020906040516109de81610361565b5f81525f838201526109ee6108f4565b6040820152828285010152016109c3565b90610a0982610491565b610a166040519182610397565b8281528092610a27601f1991610491565b01905f5b828110610a3757505050565b602090604051610a4681610346565b5f81525f8382015282828501015201610a2b565b634e487b7160e01b5f52603260045260245ffd5b8051821015610a825760209160051b010190565b610a5a565b9060208252602060e0608060c08501938051848701528381015160408701526040810151606087015260608101518287015201519360a0808201528451809452019201905f5b818110610ada5750505090565b8251805185526020908101518186015260409094019390920191600101610acd565b91610b199061088e949284526060602085015260608401906101b3565b9160408184039101526101b3565b6040513d5f823e3d90fd5b919091610b3d610912565b508251815181511115610dd157610b526108f4565b506020810151606083019081515181145f14610dad575080515b6040860195865151610b7d816109ff565b905f5b818110610d59575050610bf0610be291604060208601519501519087516020860196610bac8851610ed0565b6020815191012090610bbc6103c9565b948552602085015260408401526060830152608082015260405192839160208301610a87565b03601f198101835282610397565b606060018060a01b037f000000000000000000000000000000000000000000000000000000000000000016920151823b156100e45760405163020a49e360e51b8152925f92849283918291610c69917f000000000000000000000000000000000000000000000000000000000000000060048501610afc565b03915afa8015610d5457610d3a575b50855151610c8581610997565b965f5b828110610cc4575050506060815101515190825191825110610caf575b5050505181529190565b606091604086015251015190525f8080610ca5565b610ccf818351610a6e565b5190610cde6020830151611150565b916020830190815115610d2b57610cf66001946112cd565b90519151610d026103d8565b92835260208301526040820152610d19828c610a6e565b52610d24818b610a6e565b5001610c88565b63b4eb9e5160e01b5f5260045ffd5b80610d485f610d4e93610397565b806100e8565b5f610c78565b610b27565b808a6020610d7783610d6e6001968551610a6e565b51519351610a6e565b51015160208151910120610d896103b8565b9182526020820152610d9b8286610a6e565b52610da68185610a6e565b5001610b80565b6040840190815151145f14610dc25751610b6c565b637202e68560e11b5f5260045ffd5b50915061088e610945565b805191908290602001825e015f815290565b60046103c791610e0994936040519586926020840190610ddc565b9063ffffffff60e01b16815203601b19810185520183610397565b90604051916020830152602082526103c7604083610397565b60086103c791610e5894936040519586926020840190610ddc565b906001600160401b0360c01b16815203601719810185520183610397565b6040516001600160e01b0319909116602082015291906103c7908390610ea0906024830190610ddc565b03601f198101845283610397565b6103c790610ea0610eca94936040519586936020850190610ddc565b90610ddc565b61088e9061104e610f5282516040519060ff60f81b9060f81b16602082015260018152610efe602182610397565b610f4c610f12602086015163ffffffff1690565b63ff00ff00600882811b9190911691901c62ff00ff1617601081811b63ffff00001691901c61ffff161760e01b6001600160e01b03191690565b90610dee565b61104e6080611046610f676040870151610e24565b6110406110176060890192611011610f878551516001600160401b031690565b67ffffffffffff000067ff00ff00ff00ff0066ff00ff00ff00ff8360081c169260081b169165ffff0000ffff65ffff0000ff0065ffffffffffff67ffff0000ffff0000861666ff0000ffff000085161760101c16941691161760101b161767ffffffff0000000063ffffffff8260201c169160201b166001600160401b0360c01b911760c01b1690565b90610e3d565b915161103a6040611032610f12602085015163ffffffff1690565b920151610e24565b90610e76565b94610eae565b940151610e24565b90610eae565b604051906110618261037c565b60606080835f81525f60208201525f60408201525f838201520152565b6040519061108b82610346565b60606020835f81520152565b6040519061012082018281106001600160401b03821117610341576040525f610100838281526110c561107e565b60208201528260408201526110d861107e565b60608201528260808201526110eb61107e565b60a08201528260c0820152606060e08201520152565b9061110b82610491565b6111186040519182610397565b8281528092611129601f1991610491565b01905f5b82811061113957505050565b602090611144611097565b8282850101520161112d565b611158611054565b506111616103b8565b9081525f602082015261117b61117682611453565b611503565b90611185816115f3565b61119161117683611453565b61119d61117684611453565b916111a7846115f3565b6111b081611101565b945f5b8281106111df575050506111c56103c9565b948552602085015260408401526060830152608082015290565b6001906111eb8361177d565b60ff6111f5611097565b9116806112215750600160c08201525b61120f828a610a6e565b5261121a8189610a6e565b50016111b3565b6004810361124557506001604082015261123a846117fa565b60608201525b611205565b6005810361126857506001608082015261125e846117fa565b60a0820152611205565b6006810361128857506001815261127e846117fa565b6020820152611205565b600803611240576001610100820152611205565b634e487b7160e01b5f52601160045260245ffd5b90612ee0820291808304612ee014901517156112c857565b61129c565b6112d56108f4565b505f915f905f5f5b60808501805180518310156114135760406112fb8461130393610a6e565b510151151590565b806113eb575b6113a2575b61132361131c838351610a6e565b5151151590565b80611369575b611337575b506001016112dd565b81925061136161135c60208061135260809660019651610a6e565b5101510151611935565b6112b0565b92915061132e565b50636175726160e01b63ffffffff60e01b61139b602061138a868651610a6e565b510151516001600160e01b03191690565b1614611329565b935094506113c5611176602060606113bb898851610a6e565b51015101516118d6565b946113e5611176602060606113db858951610a6e565b5101510151611908565b9361130e565b5063049534d560e41b63ffffffff60e01b61140c606061138a868651610a6e565b1614611309565b5050509250928215611437576114276103d8565b9283526020830152604082015290565b633eba99d160e21b5f5260045ffd5b919082018092116112c857565b60208101908151602081018091116112c857815151106100e4576020905181835182010191829101116112c857602061148b916119ac565b90805190602082018092116112c8575290565b90602082019182518281018091116112c857815151106100e45781156114ec576020905181845182010191829101116112c857816114db916119ac565b9180519182018092116112c8575290565b5050506040516114fd602082610397565b5f815290565b6020815110611513576020015190565b60405162461bcd60e51b8152602060048201526024808201527f42797465733a3a20746f427974657333323a206461746120697320746f20736860448201526337b93a1760e11b6064820152608490fd5b60ff60049116019060ff82116112c857565b1561157d57565b60405162461bcd60e51b815260206004820152602860248201527f756e657870656374656420707265666978206465636f64696e6720436f6d706160448201526731ba1e2ab4b73a1f60c11b6064820152608490fd5b906001600160401b03809116911601906001600160401b0382116112c857565b6115fc8161177d565b6003811680611618575061088e915060021c603f165b60ff1690565b60018103611669575061165d9061165761161261164d61163d61161261088e9761177d565b60061b67ffffffffffffffc01690565b9260021c603f1690565b906115d3565b6001600160401b031690565b600281036116e857506116df906116d260ff846116c38261168c61088e9861177d565b95816116b2816116a461169e8861177d565b9761177d565b991660081b63ffffff001690565b911617921660101b63ffff00001690565b17921660181b63ff0000001690565b1760021c633fffffff1690565b63ffffffff1690565b6003036117275761088e9160ff61170e61170961172294603f9060021c1690565b611564565b169061171d6008831115611576565b61149e565b611935565b60405162461bcd60e51b815260206004820152601a60248201527f436f64652073686f756c6420626520756e726561636861626c650000000000006044820152606490fd5b908151811015610a82570160200190565b60208101908151600181018091116112c857815151106117c6575181516001600160f81b0319916117ae919061176c565b511660f81c90805190600182018092116112c8575290565b60405162461bcd60e51b815260206004820152600c60248201526b4f7574206f662072616e676560a01b6044820152606490fd5b61180261107e565b5060208101908151600481018091116112c857815151106100e4576020815181845182010191829101116112c857600461183b916119ac565b91805190600482018092116112c857525f915f905b600482106118905750508061186761186d926115f3565b9061149e565b6118886118786103b8565b6001600160e01b03199093168352565b602082015290565b90926001600160f81b03196118a5858461176c565b5116908460031b91858304600814861517156112c8576001926001600160e01b0319918216901c1617930190611850565b80516020116100e45760208061088e92016119ac565b60200390602082116112c857565b5f198101919082116112c857565b8051806020116100e457601f1981019081116112c857604082019160200182106112c85761088e916119ac565b80515f91815b61194457505090565b90915f1983018381116112c85761195b818461176c565b5160f81c90600381901b906001600160fd1b038116036112c85760ff81116112c8576001901b908181029181830414901517156112c85761199b91611446565b9180156112c8575f1901908161193b565b9190916119b8836104a8565b6119c56040519182610397565b8381526119d1846104a8565b602082019190601f1901368337939091905b6020811015611a225780611a0357505f19905b5182518216911916179052565b611a17611a12611a1c926118ec565b611a52565b6118fa565b906119f6565b909182518152602081018091116112c85791602081018091116112c85790601f198101908111156119e35761129c565b601f81116112c8576101000a9056fea2646970667358221220bbc3da5693fc3df94a7bd3db9125ecbd8e8327852dbf51ed0b9c301aa0e9139c64736f6c634300081e0033","linkReferences":{}},"methodIdentifiers":{"noOp(((uint256,uint256),(uint256,uint256,bytes32,(uint256,uint256,bytes32),bytes32),(uint256,bytes)[],bytes),(bytes32,uint256,bytes32,uint256,(uint256,bytes32)[]))":"e0525ae7","supportsInterface(bytes4)":"01ffc9a7","verificationKey()":"7ddc907d","verifier()":"2b7ac3f3","verify(bytes,bytes)":"f7e83aee","verifyConsensus(bytes,bytes)":"7d755598"},"id":68}