{"abi":[{"type":"constructor","inputs":[{"name":"v","type":"address","internalType":"contract ISP1Verifier"},{"name":"vk","type":"bytes32","internalType":"bytes32"}],"stateMutability":"nonpayable"},{"type":"function","name":"noOp","inputs":[{"name":"s","type":"tuple","internalType":"struct SP1BeefyProof","components":[{"name":"commitment","type":"tuple","internalType":"struct MiniCommitment","components":[{"name":"blockNumber","type":"uint256","internalType":"uint256"},{"name":"validatorSetId","type":"uint256","internalType":"uint256"}]},{"name":"mmrLeaf","type":"tuple","internalType":"struct PartialBeefyMmrLeaf","components":[{"name":"version","type":"uint8","internalType":"uint8"},{"name":"parentNumber","type":"uint32","internalType":"uint32"},{"name":"parentHash","type":"bytes32","internalType":"bytes32"},{"name":"nextAuthoritySet","type":"tuple","internalType":"struct AuthoritySetCommitment","components":[{"name":"id","type":"uint64","internalType":"uint64"},{"name":"len","type":"uint32","internalType":"uint32"},{"name":"root","type":"bytes32","internalType":"bytes32"}]},{"name":"extra","type":"bytes32","internalType":"bytes32"}]},{"name":"headers","type":"tuple[]","internalType":"struct ParachainHeader[]","components":[{"name":"id","type":"uint256","internalType":"uint256"},{"name":"header","type":"bytes","internalType":"bytes"}]},{"name":"proof","type":"bytes","internalType":"bytes"}]},{"name":"p","type":"tuple","internalType":"struct PublicInputs","components":[{"name":"authorities_root","type":"bytes32","internalType":"bytes32"},{"name":"authorities_len","type":"uint256","internalType":"uint256"},{"name":"leaf_hash","type":"bytes32","internalType":"bytes32"},{"name":"block_number","type":"uint256","internalType":"uint256"},{"name":"headers","type":"tuple[]","internalType":"struct ParachainHeaderHash[]","components":[{"name":"id","type":"uint256","internalType":"uint256"},{"name":"hash","type":"bytes32","internalType":"bytes32"}]}]}],"outputs":[],"stateMutability":"pure"},{"type":"function","name":"supportsInterface","inputs":[{"name":"interfaceId","type":"bytes4","internalType":"bytes4"}],"outputs":[{"name":"","type":"bool","internalType":"bool"}],"stateMutability":"view"},{"type":"function","name":"verificationKey","inputs":[],"outputs":[{"name":"","type":"bytes32","internalType":"bytes32"}],"stateMutability":"view"},{"type":"function","name":"verifier","inputs":[],"outputs":[{"name":"","type":"address","internalType":"contract ISP1Verifier"}],"stateMutability":"view"},{"type":"function","name":"verify","inputs":[{"name":"previousState","type":"bytes","internalType":"bytes"},{"name":"proof","type":"bytes","internalType":"bytes"}],"outputs":[{"name":"","type":"bytes","internalType":"bytes"},{"name":"","type":"tuple[]","internalType":"struct IntermediateState[]","components":[{"name":"stateMachineId","type":"uint256","internalType":"uint256"},{"name":"height","type":"uint256","internalType":"uint256"},{"name":"commitment","type":"tuple","internalType":"struct StateCommitment","components":[{"name":"timestamp","type":"uint256","internalType":"uint256"},{"name":"overlayRoot","type":"bytes32","internalType":"bytes32"},{"name":"stateRoot","type":"bytes32","internalType":"bytes32"}]}]},{"name":"","type":"uint256","internalType":"uint256"}],"stateMutability":"view"},{"type":"function","name":"verifyConsensus","inputs":[{"name":"encodedState","type":"bytes","internalType":"bytes"},{"name":"encodedProof","type":"bytes","internalType":"bytes"}],"outputs":[{"name":"","type":"bytes","internalType":"bytes"},{"name":"","type":"tuple[]","internalType":"struct IntermediateState[]","components":[{"name":"stateMachineId","type":"uint256","internalType":"uint256"},{"name":"height","type":"uint256","internalType":"uint256"},{"name":"commitment","type":"tuple","internalType":"struct StateCommitment","components":[{"name":"timestamp","type":"uint256","internalType":"uint256"},{"name":"overlayRoot","type":"bytes32","internalType":"bytes32"},{"name":"stateRoot","type":"bytes32","internalType":"bytes32"}]}]}],"stateMutability":"view"},{"type":"error","name":"IllegalGenesisBlock","inputs":[]},{"type":"error","name":"TimestampNotFound","inputs":[]},{"type":"error","name":"UnknownAuthoritySet","inputs":[]}],"bytecode":{"object":"0x60c03461008a57601f611bac38819003918201601f19168301916001600160401b0383118484101761008e57808492604094855283398101031261008a578051906001600160a01b038216820361008a57602001519060a052608052604051611b0990816100a382396080518181816107860152610cd5015260a05181818161059e0152610c8f0152f35b5f80fd5b634e487b7160e01b5f52604160045260245ffdfe60806040526004361015610011575f80fd5b5f3560e01c806301ffc9a7146100745780632a692d731461006f5780632b7ac3f31461006a5780637d755598146100655780637ddc907d146100605763f7e83aee1461005b575f80fd5b6107a9565b61076f565b6106cb565b610589565b6104ad565b346100e45760203660031901126100e45760043563ffffffff60e01b81168091036100e457630faeaab360e31b81149081156100d3575b81156100c2575b501515608052607f1960a0016080f35b6301ffc9a760e01b149050816100b2565b637bf41d7760e11b811491506100ab565b5f80fd5b634e487b7160e01b5f52604160045260245ffd5b604081019081106001600160401b0382111761011757604052565b6100e8565b606081019081106001600160401b0382111761011757604052565b60a081019081106001600160401b0382111761011757604052565b608081019081106001600160401b0382111761011757604052565b90601f801991011681019081106001600160401b0382111761011757604052565b6040519061019d60408361016d565b565b6040519061019d60a08361016d565b6040519061019d60608361016d565b91908260409103126100e4576040516101d5816100fc565b6020808294803584520135910152565b359063ffffffff821682036100e457565b91908260609103126100e45760405161020e8161011c565b809280356001600160401b03811681036100e45760409182918452610235602082016101e5565b60208501520135910152565b91909160e0818403126100e4576040519061025b82610137565b819381359160ff831683036100e45761029960c0926080948652610281602084016101e5565b602087015260408301356040870152606083016101f6565b60608501520135910152565b6001600160401b0381116101175760051b60200190565b6001600160401b03811161011757601f01601f191660200190565b81601f820112156100e4578035906102ee826102bc565b926102fc604051948561016d565b828452602083830101116100e457815f926020809301838601378301015290565b9080601f830112156100e457813591610335836102a5565b92610343604051948561016d565b80845260208085019160051b830101918383116100e45760208101915b83831061036f57505050505090565b82356001600160401b0381116100e4578201906040828703601f1901126100e4576040519061039d826100fc565b602083013582526040830135916001600160401b0383116100e4576103ca886020809695819601016102d7565b83820152815201920191610360565b919060a0838203126100e4576040516103f181610137565b8093803582526020810135602083015260408101356040830152606081013560608301526080810135906001600160401b0382116100e4570182601f820112156100e457803590610441826102a5565b9361044f604051958661016d565b82855260208086019360061b830101918183116100e457602001925b82841061047c575050505060800152565b6040848303126100e45760206040918251610496816100fc565b86358152828701358382015281520193019261046b565b346100e45760403660031901126100e4576004356001600160401b0381116100e45761016060031982360301126100e457604051906104eb82610152565b6104f836826004016101bd565b82526105073660448301610241565b60208301526101248101356001600160401b0381116100e457610530906004369184010161031d565b60408301526101448101356001600160401b0381116100e457606091600461055b92369201016102d7565b9101526024356001600160401b0381116100e45761057d9036906004016103d9565b005b5f9103126100e457565b346100e4575f3660031901126100e4576040517f00000000000000000000000000000000000000000000000000000000000000006001600160a01b03168152602090f35b9181601f840112156100e4578235916001600160401b0383116100e457602083818601950101116100e457565b60406003198201126100e4576004356001600160401b0381116100e45781610624916004016105cd565b92909291602435906001600160401b0382116100e457610646916004016105cd565b9091565b805180835260209291819084018484015e5f828201840152601f01601f1916010190565b90602080835192838152019201905f5b81811061068b5750505090565b909192602060a06001926040808851805184528581015186850152015180518284015284810151606084015201516080820152019401910191909161067e565b346100e45761075d61073b61076b61074961072a6106fa6107036106ee366105fa565b94918391930190610824565b92810190610871565b916040949394519461071486610152565b8552602085015260408401526060830152610b97565b9190604051948591602083016108d8565b03601f19810185528461016d565b60405193849360408552604085019061064a565b90838203602085015261066e565b0390f35b346100e4575f3660031901126100e45760206040517f00000000000000000000000000000000000000000000000000000000000000008152f35b346100e45761080c6107c36106fa6107036106ee366105fa565b61081a6001600160401b036060604051946107f3866107e583602083016108d8565b03601f19810188528761016d565b015151169160405194859460608652606086019061064a565b90848203602086015261066e565b9060408301520390f35b90610100828203126100e4576108699060a06040519361084385610152565b803585526020810135602086015261085e83604083016101f6565b6040860152016101f6565b606082015290565b90610160828203126100e45761088781836101bd565b926108958260408501610241565b926101208101356001600160401b0381116100e457836108b691830161031d565b926101408201356001600160401b0381116100e4576108d592016102d7565b90565b61019d9092919260a06060610100830195805184526020810151602085015261092c60408201516040860190604080916001600160401b03815116845263ffffffff60208201511660208501520151910152565b0151910190604080916001600160401b03815116845263ffffffff60208201511660208501520151910152565b604051906109668261011c565b5f6040838281528260208201520152565b6040519061098482610152565b815f81525f6020820152610996610959565b604082015260606109a5610959565b910152565b604051906109b960208361016d565b5f80835282815b8281106109cc57505050565b6020906040516109db8161011c565b5f81525f838201526109eb610959565b6040820152828285010152016109c0565b90610a06826102a5565b610a13604051918261016d565b8281528092610a24601f19916102a5565b01905f5b828110610a3457505050565b602090604051610a438161011c565b5f81525f83820152610a53610959565b604082015282828501015201610a28565b90610a6e826102a5565b610a7b604051918261016d565b8281528092610a8c601f19916102a5565b01905f5b828110610a9c57505050565b602090604051610aab816100fc565b5f81525f8382015282828501015201610a90565b634e487b7160e01b5f52603260045260245ffd5b8051821015610ae75760209160051b010190565b610abf565b9060208252602060e0608060c08501938051848701528381015160408701526040810151606087015260608101518287015201519360a0808201528451809452019201905f5b818110610b3f5750505090565b8251805185526020908101518186015260409094019390920191600101610b32565b91610b7e906108d59492845260606020850152606084019061064a565b91604081840391015261064a565b6040513d5f823e3d90fd5b919091610ba2610977565b508251815181511115610e9c57610bb7610959565b5060208101516060830190610be4610bd883516001600160401b0390511690565b6001600160401b031690565b8103610e67575080515b6040860195865151610bff81610a64565b905f5b818110610e13575050610c84610c76916040610c25602087015163ffffffff1690565b950151908751602086019663ffffffff610c3f8951610f30565b6020815191012091610c4f61019f565b95865216602085015260408401526060830152608082015260405192839160208301610aec565b03601f19810183528261016d565b606060018060a01b037f000000000000000000000000000000000000000000000000000000000000000016920151823b156100e45760405163020a49e360e51b8152925f92849283918291610cfd917f000000000000000000000000000000000000000000000000000000000000000060048501610b61565b03915afa8015610e0e57610df4575b50855151610d19816109fc565b965f5b828110610d7e575050815160600151516001600160401b03169050908251916001600160401b03610d57610bd885516001600160401b031690565b911611610d69575b5050505181529190565b606091604086015251015190525f8080610d5f565b610d89818351610ad3565b5190610d9860208301516111f2565b916020830190815115610de557610db060019461133e565b90519151610dbc6101ae565b92835260208301526040820152610dd3828c610ad3565b52610dde818b610ad3565b5001610d1c565b63b4eb9e5160e01b5f5260045ffd5b80610e025f610e089361016d565b8061057f565b5f610d0c565b610b8c565b808a6020610e3183610e286001968551610ad3565b51519351610ad3565b51015160208151910120610e4361018e565b9182526020820152610e558286610ad3565b52610e608185610ad3565b5001610c02565b6040840190610e82610bd883516001600160401b0390511690565b03610e8d5751610bee565b637202e68560e11b5f5260045ffd5b5091506108d56109aa565b805191908290602001825e015f815290565b949291969593909660405197889660208801610ed491610ea7565b9063ffffffff60e01b168152600401610eec91610ea7565b916001600160401b0360c01b16825263ffffffff60e01b166008820152600c01610f1591610ea7565b610f1e91610ea7565b03601f198101835261019d908361016d565b6110e36110c0610f6d6108d593610f7b610f4b825160ff1690565b60405160f89190911b6001600160f81b03191660208201529283906021820190565b03601f19810184528361016d565b610f6d610fcc610f92602084015163ffffffff1690565b63ff00ff00600882811b9190911691901c62ff00ff1617601081811b63ffff00001691901c61ffff161760e01b6001600160e01b03191690565b610fe760408401516040519384916020830160209181520190565b6060830151936110f1608061109061100688516001600160401b031690565b67ffffffffffff000067ff00ff00ff00ff0066ff00ff00ff00ff8360081c169260081b169165ffff0000ffff65ffff0000ff0065ffffffffffff67ffff0000ffff0000861666ff0000ffff000085161760101c16941691161760101b161767ffffffff0000000063ffffffff8260201c169160201b166001600160401b0360c01b911760c01b1690565b956110ce60406110aa610f9260208c015163ffffffff1690565b9901516040519a8b916020830160209181520190565b03601f1981018b528a61016d565b01516040519889916020830160209181520190565b03601f19810189528861016d565b610eb9565b6040519061110382610137565b60606080835f81525f60208201525f60408201525f838201520152565b6040519061112d826100fc565b60606020835f81520152565b6040519061012082018281106001600160401b03821117610117576040525f61010083828152611167611120565b602082015282604082015261117a611120565b606082015282608082015261118d611120565b60a08201528260c0820152606060e08201520152565b906111ad826102a5565b6111ba604051918261016d565b82815280926111cb601f19916102a5565b01905f5b8281106111db57505050565b6020906111e6611139565b828285010152016111cf565b6111fa6110f6565b5061120361018e565b9081525f602082015261121d611218826114d1565b611581565b9061122781611671565b611233611218836114d1565b61123f611218846114d1565b9161124984611671565b611252816111a3565b945f5b8281106112815750505061126761019f565b948552602085015260408401526060830152608082015290565b60019061128d836117ef565b60ff611297611139565b9116806112c35750600160c08201525b6112b1828a610ad3565b526112bc8189610ad3565b5001611255565b600481036112e75750600160408201526112dc8461186c565b60608201525b6112a7565b6005810361130a5750600160808201526113008461186c565b60a08201526112a7565b6006810361132a5750600181526113208461186c565b60208201526112a7565b6008036112e25760016101008201526112a7565b611346610959565b505f5f925f5f5b608085018051805183101561147757604061136b8461137393610ad3565b510151151590565b8061144f575b611406575b61138e604061136b848451610ad3565b806113cd575b6113a2575b5060010161134d565b8192506113c5602060606113bb60809560019551610ad3565b51015101516119a7565b929150611399565b50634953544d60e01b63ffffffff60e01b6113ff60606113ee868651610ad3565b510151516001600160e01b03191690565b1614611394565b955092506114296112186020606061141f878a51610ad3565b5101510151611948565b926114496112186020606061143f858b51610ad3565b510151015161197a565b9561137e565b5063049534d560e41b63ffffffff60e01b61147060606113ee868651610ad3565b1614611379565b50505092509290821561149c5761148c6101ae565b9283526020830152604082015290565b633eba99d160e21b5f5260045ffd5b634e487b7160e01b5f52601160045260245ffd5b919082018092116114cc57565b6114ab565b60208101908151602081018091116114cc57815151106100e4576020905181835182010191829101116114cc57602061150991611a1e565b90805190602082018092116114cc575290565b90602082019182518281018091116114cc57815151106100e457811561156a576020905181845182010191829101116114cc578161155991611a1e565b9180519182018092116114cc575290565b50505060405161157b60208261016d565b5f815290565b6020815110611591576020015190565b60405162461bcd60e51b8152602060048201526024808201527f42797465733a3a20746f427974657333323a206461746120697320746f20736860448201526337b93a1760e11b6064820152608490fd5b60ff60049116019060ff82116114cc57565b156115fb57565b60405162461bcd60e51b815260206004820152602860248201527f756e657870656374656420707265666978206465636f64696e6720436f6d706160448201526731ba1e2ab4b73a1f60c11b6064820152608490fd5b906001600160401b03809116911601906001600160401b0382116114cc57565b61167a816117ef565b600381168061169657506108d5915060021c603f165b60ff1690565b600181036116db5750610bd8906116d56116906116cb6116bb6116906108d5976117ef565b60061b67ffffffffffffffc01690565b9260021c603f1690565b90611651565b6002810361175a57506117519061174460ff84611735826116fe6108d5986117ef565b958161172481611716611710886117ef565b976117ef565b991660081b63ffffff001690565b911617921660101b63ffff00001690565b17921660181b63ff0000001690565b1760021c633fffffff1690565b63ffffffff1690565b600303611799576108d59160ff61178061177b61179494603f9060021c1690565b6115e2565b169061178f60088311156115f4565b61151c565b6119a7565b60405162461bcd60e51b815260206004820152601a60248201527f436f64652073686f756c6420626520756e726561636861626c650000000000006044820152606490fd5b908151811015610ae7570160200190565b60208101908151600181018091116114cc5781515110611838575181516001600160f81b03199161182091906117de565b511660f81c90805190600182018092116114cc575290565b60405162461bcd60e51b815260206004820152600c60248201526b4f7574206f662072616e676560a01b6044820152606490fd5b611874611120565b5060208101908151600481018091116114cc57815151106100e4576020815181845182010191829101116114cc5760046118ad91611a1e565b91805190600482018092116114cc57525f915f905b60048210611902575050806118d96118df92611671565b9061151c565b6118fa6118ea61018e565b6001600160e01b03199093168352565b602082015290565b90926001600160f81b031961191785846117de565b5116908460031b91858304600814861517156114cc576001926001600160e01b0319918216901c16179301906118c2565b80516020116100e4576020806108d59201611a1e565b60200390602082116114cc57565b5f198101919082116114cc57565b8051806020116100e457601f1981019081116114cc57604082019160200182106114cc576108d591611a1e565b80515f91815b6119b657505090565b90915f1983018381116114cc576119cd81846117de565b5160f81c90600381901b906001600160fd1b038116036114cc5760ff81116114cc576001901b908181029181830414901517156114cc57611a0d916114bf565b9180156114cc575f190190816119ad565b919091611a2a836102bc565b611a37604051918261016d565b838152611a43846102bc565b602082019190601f1901368337939091905b6020811015611a945780611a7557505f19905b5182518216911916179052565b611a89611a84611a8e9261195e565b611ac4565b61196c565b90611a68565b909182518152602081018091116114cc5791602081018091116114cc5790601f19810190811115611a55576114ab565b601f81116114cc576101000a9056fea2646970667358221220af0eb58afb4c67b33aae2b305e264f698dd0d024e1f68d04717a9b8769cf95a464736f6c634300081e0033","linkReferences":{}},"methodIdentifiers":{"noOp(((uint256,uint256),(uint8,uint32,bytes32,(uint64,uint32,bytes32),bytes32),(uint256,bytes)[],bytes),(bytes32,uint256,bytes32,uint256,(uint256,bytes32)[]))":"2a692d73","supportsInterface(bytes4)":"01ffc9a7","verificationKey()":"7ddc907d","verifier()":"2b7ac3f3","verify(bytes,bytes)":"f7e83aee","verifyConsensus(bytes,bytes)":"7d755598"},"id":151}