{"abi":[{"type":"constructor","inputs":[{"name":"v","type":"address","internalType":"contract ISP1Verifier"},{"name":"vk","type":"bytes32","internalType":"bytes32"}],"stateMutability":"nonpayable"},{"type":"function","name":"noOp","inputs":[{"name":"s","type":"tuple","internalType":"struct SP1BeefyProof","components":[{"name":"commitment","type":"tuple","internalType":"struct MiniCommitment","components":[{"name":"blockNumber","type":"uint256","internalType":"uint256"},{"name":"validatorSetId","type":"uint256","internalType":"uint256"}]},{"name":"mmrLeaf","type":"tuple","internalType":"struct PartialBeefyMmrLeaf","components":[{"name":"version","type":"uint8","internalType":"uint8"},{"name":"parentNumber","type":"uint32","internalType":"uint32"},{"name":"parentHash","type":"bytes32","internalType":"bytes32"},{"name":"nextAuthoritySet","type":"tuple","internalType":"struct AuthoritySetCommitment","components":[{"name":"id","type":"uint64","internalType":"uint64"},{"name":"len","type":"uint32","internalType":"uint32"},{"name":"root","type":"bytes32","internalType":"bytes32"}]},{"name":"extra","type":"bytes32","internalType":"bytes32"}]},{"name":"headers","type":"tuple[]","internalType":"struct ParachainHeader[]","components":[{"name":"id","type":"uint256","internalType":"uint256"},{"name":"header","type":"bytes","internalType":"bytes"}]},{"name":"proof","type":"bytes","internalType":"bytes"},{"name":"nonce","type":"bytes32","internalType":"bytes32"}]},{"name":"p","type":"tuple","internalType":"struct PublicInputs","components":[{"name":"authorities_root","type":"bytes32","internalType":"bytes32"},{"name":"authorities_len","type":"uint256","internalType":"uint256"},{"name":"leaf_hash","type":"bytes32","internalType":"bytes32"},{"name":"block_number","type":"uint256","internalType":"uint256"},{"name":"headers","type":"tuple[]","internalType":"struct ParachainHeaderHash[]","components":[{"name":"id","type":"uint256","internalType":"uint256"},{"name":"hash","type":"bytes32","internalType":"bytes32"}]},{"name":"nonce","type":"bytes32","internalType":"bytes32"}]}],"outputs":[],"stateMutability":"pure"},{"type":"function","name":"supportsInterface","inputs":[{"name":"interfaceId","type":"bytes4","internalType":"bytes4"}],"outputs":[{"name":"","type":"bool","internalType":"bool"}],"stateMutability":"view"},{"type":"function","name":"verificationKey","inputs":[],"outputs":[{"name":"","type":"bytes32","internalType":"bytes32"}],"stateMutability":"view"},{"type":"function","name":"verifier","inputs":[],"outputs":[{"name":"","type":"address","internalType":"contract ISP1Verifier"}],"stateMutability":"view"},{"type":"function","name":"verify","inputs":[{"name":"previousState","type":"bytes","internalType":"bytes"},{"name":"proof","type":"bytes","internalType":"bytes"}],"outputs":[{"name":"","type":"bytes","internalType":"bytes"},{"name":"","type":"tuple[]","internalType":"struct IntermediateState[]","components":[{"name":"stateMachineId","type":"uint256","internalType":"uint256"},{"name":"height","type":"uint256","internalType":"uint256"},{"name":"commitment","type":"tuple","internalType":"struct StateCommitment","components":[{"name":"timestamp","type":"uint256","internalType":"uint256"},{"name":"overlayRoot","type":"bytes32","internalType":"bytes32"},{"name":"stateRoot","type":"bytes32","internalType":"bytes32"}]}]},{"name":"","type":"uint256","internalType":"uint256"}],"stateMutability":"view"},{"type":"error","name":"IllegalGenesisBlock","inputs":[]},{"type":"error","name":"TimestampNotFound","inputs":[]},{"type":"error","name":"UnknownAuthoritySet","inputs":[]}],"bytecode":{"object":"0x60c03461008957601f611b7638819003918201601f19168301916001600160401b0383118484101761008d578084926040948552833981010312610089578051906001600160a01b038216820361008957602001519060a052608052604051611ad490816100a282396080518181816101210152610ca0015260a05181818160db0152610c5a0152f35b5f80fd5b634e487b7160e01b5f52604160045260245ffdfe60806040526004361015610011575f80fd5b5f3560e01c806301ffc9a7146100645780632b7ac3f31461005f5780637ddc907d1461005a5780639f81f883146100555763f7e83aee14610050575f80fd5b6106e9565b61053f565b61010a565b6100c6565b346100b85760203660031901126100b85760043563ffffffff60e01b81168091036100b857637bf41d7760e11b81149081156100a7575b50151560805260206080f35b6301ffc9a760e01b1490508161009b565b5f80fd5b5f9103126100b857565b346100b8575f3660031901126100b8576040517f00000000000000000000000000000000000000000000000000000000000000006001600160a01b03168152602090f35b346100b8575f3660031901126100b85760206040517f00000000000000000000000000000000000000000000000000000000000000008152f35b634e487b7160e01b5f52604160045260245ffd5b604081019081106001600160401b0382111761017357604052565b610144565b606081019081106001600160401b0382111761017357604052565b60a081019081106001600160401b0382111761017357604052565b60c081019081106001600160401b0382111761017357604052565b608081019081106001600160401b0382111761017357604052565b90601f801991011681019081106001600160401b0382111761017357604052565b6040519061021460a0836101e4565b565b604051906102146040836101e4565b6040519061021460c0836101e4565b604051906102146060836101e4565b91908260409103126100b85760405161025b81610158565b6020808294803584520135910152565b359063ffffffff821682036100b857565b91908260609103126100b85760405161029481610178565b809280356001600160401b03811681036100b857604091829184526102bb6020820161026b565b60208501520135910152565b91909160e0818403126100b857604051906102e182610193565b819381359160ff831683036100b85761031f60c09260809486526103076020840161026b565b6020870152604083013560408701526060830161027c565b60608501520135910152565b6001600160401b0381116101735760051b60200190565b6001600160401b03811161017357601f01601f191660200190565b81601f820112156100b85780359061037482610342565b9261038260405194856101e4565b828452602083830101116100b857815f926020809301838601378301015290565b9080601f830112156100b8578135916103bb8361032b565b926103c960405194856101e4565b80845260208085019160051b830101918383116100b85760208101915b8383106103f557505050505090565b82356001600160401b0381116100b8578201906040828703601f1901126100b8576040519061042382610158565b602083013582526040830135916001600160401b0383116100b8576104508860208096958196010161035d565b838201528152019201916103e6565b91909160c0818403126100b85760405190610479826101ae565b81938135835260208201356020840152604082013560408401526060820135606084015260808201356001600160401b0381116100b857820181601f820112156100b8578035906104c98261032b565b926104d760405194856101e4565b82845260208085019360061b830101918183116100b857602001925b82841061050e5750505050608083015260a090810135910152565b6040848303126100b8576020604091825161052881610158565b8635815282870135838201528152019301926104f3565b346100b85760403660031901126100b8576004356001600160401b0381116100b85761018060031982360301126100b857610578610205565b906105863682600401610243565b825261059536604483016102c7565b60208301526101248101356001600160401b0381116100b8576105be90600436918401016103a3565b60408301526101448101356001600160401b0381116100b8576080916105ed610164926004369184010161035d565b606085015201359101526024356001600160401b0381116100b85761061690369060040161045f565b005b9181601f840112156100b8578235916001600160401b0383116100b857602083818601950101116100b857565b805180835260209291819084018484015e5f828201840152601f01601f1916010190565b9392919061067f90606086526060860190610645565b908482036020860152602080825193848152019101915f5b8181106106a957505060409150930152565b9091602060a06001926040808851805184528581015186850152015180518284015284810151606084015201516080820152019401910192919092610697565b346100b85760403660031901126100b8576004356001600160401b0381116100b857610719903690600401610618565b906024356001600160401b0381116100b857610739903690600401610618565b92820190610100838303126100b8576107c0936107886107959360a060405196610762886101c9565b803588526020810135602089015261077d836040830161027c565b60408901520161027c565b6060850152810190610814565b926107a4959495929192610205565b9586526020860152604085015260608401526080830152610b56565b906108106001600160401b036108036060604051946107f4866107e68360208301610884565b03601f1981018852876101e4565b0151516001600160401b031690565b1660405193849384610669565b0390f35b9190610180838203126100b85761082b8184610243565b9261083982604083016102c7565b926101208201356001600160401b0381116100b8578361085a9184016103a3565b926101408301356001600160401b0381116100b8576101609161087e91850161035d565b92013590565b6102149092919260a0606061010083019580518452602081015160208501526108d860408201516040860190604080916001600160401b03815116845263ffffffff60208201511660208501520151910152565b0151910190604080916001600160401b03815116845263ffffffff60208201511660208501520151910152565b6040519061091282610178565b5f6040838281528260208201520152565b60405190610930826101c9565b815f81525f6020820152610942610905565b60408201526060610951610905565b910152565b604051906109656020836101e4565b5f80835282815b82811061097857505050565b60209060405161098781610178565b5f81525f83820152610997610905565b60408201528282850101520161096c565b906109b28261032b565b6109bf60405191826101e4565b82815280926109d0601f199161032b565b01905f5b8281106109e057505050565b6020906040516109ef81610178565b5f81525f838201526109ff610905565b6040820152828285010152016109d4565b90610a1a8261032b565b610a2760405191826101e4565b8281528092610a38601f199161032b565b01905f5b828110610a4857505050565b602090604051610a5781610158565b5f81525f8382015282828501015201610a3c565b634e487b7160e01b5f52603260045260245ffd5b8051821015610a935760209160051b010190565b610a6b565b6020815260e08101918051602083015260208101516040830152604081015160608301526060810151608083015260808101519260c060a08401528351809152602061010084019401905f5b818110610afb5750505060a060c091015191015290565b8251805187526020908101518188015260409096019590920191600101610ae4565b91610b3a90610b4894928452606060208501526060840190610645565b916040818403910152610645565b90565b6040513d5f823e3d90fd5b919091610b61610923565b508251815181511115610e6757610b76610905565b5060208101516060830190610ba3610b9783516001600160401b0390511690565b6001600160401b031690565b8103610e32575080515b604086019586515191610bbf83610a10565b925f5b818110610dde575050610c4f816040610be56020610c4195015163ffffffff1690565b910151908751956020860196610bfb8851610efb565b6020815191012063ffffffff608089015194610c15610225565b96875216602086015260408501526060840152608083015260a082015260405192839160208301610a98565b03601f1981018352826101e4565b606060018060a01b037f000000000000000000000000000000000000000000000000000000000000000016920151823b156100b85760405163020a49e360e51b8152925f92849283918291610cc8917f000000000000000000000000000000000000000000000000000000000000000060048501610b1d565b03915afa8015610dd957610dbf575b50855151610ce4816109a8565b965f5b828110610d49575050815160600151516001600160401b03169050908251916001600160401b03610d22610b9785516001600160401b031690565b911611610d34575b5050505181529190565b606091604086015251015190525f8080610d2a565b610d54818351610a7f565b5190610d6360208301516111bd565b916020830190815115610db057610d7b600194611309565b90519151610d87610234565b92835260208301526040820152610d9e828c610a7f565b52610da9818b610a7f565b5001610ce7565b63b4eb9e5160e01b5f5260045ffd5b80610dcd5f610dd3936101e4565b806100bc565b5f610cd7565b610b4b565b808a6020610dfc83610df36001968551610a7f565b51519351610a7f565b51015160208151910120610e0e610216565b9182526020820152610e208288610a7f565b52610e2b8187610a7f565b5001610bc2565b6040840190610e4d610b9783516001600160401b0390511690565b03610e585751610bad565b637202e68560e11b5f5260045ffd5b509150610b48610956565b805191908290602001825e015f815290565b949291969593909660405197889660208801610e9f91610e72565b9063ffffffff60e01b168152600401610eb791610e72565b916001600160401b0360c01b16825263ffffffff60e01b166008820152600c01610ee091610e72565b610ee991610e72565b03601f198101835261021490836101e4565b6110ae61108b610f38610b4893610f46610f16825160ff1690565b60405160f89190911b6001600160f81b03191660208201529283906021820190565b03601f1981018452836101e4565b610f38610f97610f5d602084015163ffffffff1690565b63ff00ff00600882811b9190911691901c62ff00ff1617601081811b63ffff00001691901c61ffff161760e01b6001600160e01b03191690565b610fb260408401516040519384916020830160209181520190565b6060830151936110bc608061105b610fd188516001600160401b031690565b67ffffffffffff000067ff00ff00ff00ff0066ff00ff00ff00ff8360081c169260081b169165ffff0000ffff65ffff0000ff0065ffffffffffff67ffff0000ffff0000861666ff0000ffff000085161760101c16941691161760101b161767ffffffff0000000063ffffffff8260201c169160201b166001600160401b0360c01b911760c01b1690565b956110996040611075610f5d60208c015163ffffffff1690565b9901516040519a8b916020830160209181520190565b03601f1981018b528a6101e4565b01516040519889916020830160209181520190565b03601f1981018952886101e4565b610e84565b604051906110ce82610193565b60606080835f81525f60208201525f60408201525f838201520152565b604051906110f882610158565b60606020835f81520152565b6040519061012082018281106001600160401b03821117610173576040525f610100838281526111326110eb565b60208201528260408201526111456110eb565b60608201528260808201526111586110eb565b60a08201528260c0820152606060e08201520152565b906111788261032b565b61118560405191826101e4565b8281528092611196601f199161032b565b01905f5b8281106111a657505050565b6020906111b1611104565b8282850101520161119a565b6111c56110c1565b506111ce610216565b9081525f60208201526111e86111e38261149c565b61154c565b906111f28161163c565b6111fe6111e38361149c565b61120a6111e38461149c565b916112148461163c565b61121d8161116e565b945f5b82811061124c57505050611232610205565b948552602085015260408401526060830152608082015290565b600190611258836117ba565b60ff611262611104565b91168061128e5750600160c08201525b61127c828a610a7f565b526112878189610a7f565b5001611220565b600481036112b25750600160408201526112a784611837565b60608201525b611272565b600581036112d55750600160808201526112cb84611837565b60a0820152611272565b600681036112f55750600181526112eb84611837565b6020820152611272565b6008036112ad576001610100820152611272565b611311610905565b505f5f925f5f5b60808501805180518310156114425760406113368461133e93610a7f565b510151151590565b8061141a575b6113d1575b6113596040611336848451610a7f565b80611398575b61136d575b50600101611318565b8192506113906020606061138660809560019551610a7f565b5101510151611972565b929150611364565b50634953544d60e01b63ffffffff60e01b6113ca60606113b9868651610a7f565b510151516001600160e01b03191690565b161461135f565b955092506113f46111e3602060606113ea878a51610a7f565b5101510151611913565b926114146111e36020606061140a858b51610a7f565b5101510151611945565b95611349565b5063049534d560e41b63ffffffff60e01b61143b60606113b9868651610a7f565b1614611344565b50505092509290821561146757611457610234565b9283526020830152604082015290565b633eba99d160e21b5f5260045ffd5b634e487b7160e01b5f52601160045260245ffd5b9190820180921161149757565b611476565b602081019081516020810180911161149757815151106100b8576020905181835182010191829101116114975760206114d4916119e9565b9080519060208201809211611497575290565b906020820191825182810180911161149757815151106100b8578115611535576020905181845182010191829101116114975781611524916119e9565b918051918201809211611497575290565b5050506040516115466020826101e4565b5f815290565b602081511061155c576020015190565b60405162461bcd60e51b8152602060048201526024808201527f42797465733a3a20746f427974657333323a206461746120697320746f20736860448201526337b93a1760e11b6064820152608490fd5b60ff60049116019060ff821161149757565b156115c657565b60405162461bcd60e51b815260206004820152602860248201527f756e657870656374656420707265666978206465636f64696e6720436f6d706160448201526731ba1e2ab4b73a1f60c11b6064820152608490fd5b906001600160401b03809116911601906001600160401b03821161149757565b611645816117ba565b60038116806116615750610b48915060021c603f165b60ff1690565b600181036116a65750610b97906116a061165b61169661168661165b610b48976117ba565b60061b67ffffffffffffffc01690565b9260021c603f1690565b9061161c565b60028103611725575061171c9061170f60ff84611700826116c9610b48986117ba565b95816116ef816116e16116db886117ba565b976117ba565b991660081b63ffffff001690565b911617921660101b63ffff00001690565b17921660181b63ff0000001690565b1760021c633fffffff1690565b63ffffffff1690565b60030361176457610b489160ff61174b61174661175f94603f9060021c1690565b6115ad565b169061175a60088311156115bf565b6114e7565b611972565b60405162461bcd60e51b815260206004820152601a60248201527f436f64652073686f756c6420626520756e726561636861626c650000000000006044820152606490fd5b908151811015610a93570160200190565b60208101908151600181018091116114975781515110611803575181516001600160f81b0319916117eb91906117a9565b511660f81c9080519060018201809211611497575290565b60405162461bcd60e51b815260206004820152600c60248201526b4f7574206f662072616e676560a01b6044820152606490fd5b61183f6110eb565b50602081019081516004810180911161149757815151106100b857602081518184518201019182910111611497576004611878916119e9565b918051906004820180921161149757525f915f905b600482106118cd575050806118a46118aa9261163c565b906114e7565b6118c56118b5610216565b6001600160e01b03199093168352565b602082015290565b90926001600160f81b03196118e285846117a9565b5116908460031b9185830460081486151715611497576001926001600160e01b0319918216901c161793019061188d565b80516020116100b857602080610b4892016119e9565b602003906020821161149757565b5f1981019190821161149757565b8051806020116100b857601f198101908111611497576040820191602001821061149757610b48916119e9565b80515f91815b61198157505090565b90915f1983018381116114975761199881846117a9565b5160f81c90600381901b906001600160fd1b038116036114975760ff8111611497576001901b90818102918183041490151715611497576119d89161148a565b918015611497575f19019081611978565b9190916119f583610342565b611a0260405191826101e4565b838152611a0e84610342565b602082019190601f1901368337939091905b6020811015611a5f5780611a4057505f19905b5182518216911916179052565b611a54611a4f611a5992611929565b611a8f565b611937565b90611a33565b909182518152602081018091116114975791602081018091116114975790601f19810190811115611a2057611476565b601f8111611497576101000a9056fea2646970667358221220dad4b510a6fbf7dce2106f46e06d1ceb55fa5defab43431f67530e8bc065634364736f6c634300081e0033","linkReferences":{}},"methodIdentifiers":{"noOp(((uint256,uint256),(uint8,uint32,bytes32,(uint64,uint32,bytes32),bytes32),(uint256,bytes)[],bytes,bytes32),(bytes32,uint256,bytes32,uint256,(uint256,bytes32)[],bytes32))":"9f81f883","supportsInterface(bytes4)":"01ffc9a7","verificationKey()":"7ddc907d","verifier()":"2b7ac3f3","verify(bytes,bytes)":"f7e83aee"},"id":9}